:100000000C94CB020C94F3020C94F3020C946A054A
:100010000C946A050C946A050C94F3020C94F30298
:100020000C94F3020C94F3020C94F3020C94F3027C
:100030000C94F3020C94F3020C94F3020C94F3026C
:100040000C94C3120C94F3020C9479100C9453107A
:100050000C94F3020C94F3020C94F3020C94F3024C
:100060000C94F3020C94F3029116941697169D16B5
:100070009A16D616D616D616D616D616A016A316C5
:10008000A616A916AC16D616D616D616D616D61697
:10009000AF16D616B516B216B816D616D616D6168A
:1000A000D616D616D616D616D616D616D616D616F0
:1000B000D616D616D616D616D616D616D616D616E0
:1000C000D616D616D616D616D616D616BB16BE1603
:1000D000C116C416C716CA16CD16D0164E414E49C3
:1000E0004E495459494E46CDCCCC3D0AD7233C17F6
:1000F000B7D13877CC2B329595E6241FB14F0A0043
:100100000020410000C84200401C4620BCBE4CCA32
:100110001B0E5AAEC59D7400407A10F35A00A072AF
:100120004E18090010A5D4E80000E8764817000032
:10013000E40B54020000CA9A3B000000E1F5050000
:100140000080969800000040420F000000A0860149
:10015000000000102700000000E803000000006419
:1001600000000000000A0000000000010000000084
:10017000002C76D888DC674F0823DFC1DFAE59E159
:10018000B1B796E5E3E453C63AE651997696E8E6C8
:10019000C28426EB898C9B62ED407C6FFCEFBC9C9B
:1001A0009F40F2BAA56FA5F490055A2AF75C936BAD
:1001B0006CF9676DC11BFCE0E40D47FEF520E6B568
:1001C00000D0ED902E0300943577050080841E0842
:1001D0000000204E0A000000C80C333333330F9860
:1001E0006E12831141EF8D2114893BE65516CFFE27
:1001F000E6DB18D1844B381BF77C1D901DA4BBE4B3
:1002000024203284725E228100C9F124ECA1E53DF4
:1002100027436F6E6E656374696F6E2053746174EB
:10022000653A200049443A2000536C6176652052BB
:1002300046204D6573736167652052656365697615
:1002400065643A20004F4E205246204D455353419D
:1002500047452053454E443A2000574946492052CD
:1002600045515545535420504F5354454420455211
:10027000524F520057494649205245515545535413
:1002800020504F535445440057494649205741494F
:1002900054494E472052455120524553504F4E53DA
:1002A000450057494649205245515545535420531E
:1002B000454E4400574946492052455155455354EF
:1002C00020495320504F5354494E470057494649FF
:1002D00020504F5354494E472052454144590057EE
:1002E00049464920535441525420504F5354494E8B
:1002F0004700574946492053544F5020504F5354BC
:10030000494E4700574946492053455256455220C9
:10031000434F4E4E454354454400574946492053A8
:10032000455256455220434F4E4E454354494E4741
:10033000005749464920534552564552204552528E
:100340004F52005749464920534552564552204482
:100350004953434F4E4E454354454400574946493F
:1003600020574C414E20434F4E4E45435445440088
:100370005749464920574C414E20434F4E4E454326
:1003800054494E47204641494C0057494649205759
:100390004C414E20434F4E4E454354494E47005723
:1003A00049464920574C414E20434845434B00574E
:1003B00049464920574C414E20444953434F4E4EE5
:1003C0004543544544005749464920494E495449FC
:1003D000414C495A494E47204552524F52005749C5
:1003E000464920494E495449414C495A45440057D1
:1003F00049464920494E495449414C495A494E477A
:10040000005749464920424C554445440057494607
:1004100049204F464600467265652052414D2042B4
:10042000543D200000010203040511121314151697
:100430000A0B0C0D0E0F526164696F20506F7765C7
:1004400072557000467265652052414D203D200076
:10045000535441525400467265652052414D203D2F
:1004600020005354415254494E470046726565205E
:1004700052414D2041465445523D20003D3D3D3EB8
:100480002050555348205245515545535453004729
:100490004554202573257320485454502F312E3154
:1004A0000D0A486F73743A2025730D0A0D0A007601
:1004B000696E3D2564266C763D256426616C3D257C
:1004C00064007372633D25642663683D256C752660
:1004D000736C3D25640047455420257325732048DF
:1004E0005454502F312E310D0A486F73743A202521
:1004F000730D0A0D0A0076696E3D2564266C763D03
:10050000256426616C3D2564007372633D25642675
:1005100063683D256C7526736C3D256400C204AF8D
:10052000048F040905F604D604242046726565206C
:1005300052414D203D200000000000240027002AE9
:100540000000000008000201000003040700000092
:10055000000000000000000000250028002B000023
:1005600000000023002600290004040404040404FD
:100570000402020202020203030303030301020452
:100580000810204080010204081020010204081015
:100590002000571C902011241FBECFEFD8E0DEBFF3
:1005A000CDBF12E0A0E0B1E0E8EDF8E502C00590B3
:1005B0000D92A03FB107D9F724E0A0EFB2E001C04F
:1005C0001D92A135B207E1F712E0CAECD2E004C0F7
:1005D0002197FE010E940A2BC93CD107C9F70E944E
:1005E000F3160C945F2C0C940000CF93DF93C09112
:1005F0004E03D0914F03E881F9810084F185E02D0D
:10060000CE010995892BB9F3E881F9810284F3853C
:10061000E02DCE01DF91CF9109941F93CF93DF930B
:10062000182FC0914E03D0914F038A3041F4E881D6
:10063000F9810190F081E02D6DE0CE010995E8810E
:10064000F9810190F081E02D612FCE01099521E023
:1006500030E0019711F420E030E0C901DF91CF9143
:100660001F9108952091150330911603281739071B
:1006700071F49091130380911403981741F0E09165
:100680001303F0E0E051FD4F808190E008958FEF7B
:100690009FEF089508951F93CF93DF93DC015C963D
:1006A0002D913C915D972115310539F481E090E061
:1006B00013969C938E9312973DC05196ED91FC91A9
:1006C000529750969C915097892F80951FB75E96B0
:1006D0004C915E9741FB772770F941FD6095F89446
:1006E0004081772311F0492B01C048234083E90161
:1006F0002197F1F748E0508160FF02C0592B01C0FB
:1007000058235083E9012197F1F76695415099F7F5
:10071000772321F090818923808303C08081982BE7
:1007200090831FBF5C968D919C915D970197F1F727
:1007300021E030E0C901DF91CF911F910895209110
:100740001503309116032817390769F480911403B3
:100750002091130390E08096821B910960E270E083
:100760000E94D42A089580E090E008952091150316
:100770003091160328173907B9F49091130380912B
:100780001403981789F0E0911303F0E0E051FD4F56
:1007900080812091130330E02F5F3F4F2F7133276B
:1007A0002093130390E008958FEF9FEF089508952D
:1007B00080E090E00895089508950C9451210895E3
:1007C00008950C945121DC01ED91FC913697208124
:1007D0003181820F931F0C94E103FB012081318151
:1007E000FC0131832083FB0142815381F90136975B
:1007F00020813181FC01E20FF31F51834083089572
:100800002AE931E0FC013183208324EA31E0318F91
:10081000208F6AEA71E00C94ED03DC01ED91FC910C
:10082000369720813181820F931F0C940004CF935F
:10083000DF93EC010E940004CE01DF91CF910C9474
:100840005121DC01ED91FC91369720813181820F9D
:10085000931F0C9417040C945121089508950C943F
:100860005121DC01ED91FC91369720813181820F7D
:10087000931F0C942F040C945121FC0180819181D1
:100880000C94512108950895FB0120813181FC01D0
:1008900031832083FB0142815381F9013697208106
:1008A0003181FC01E20FF31F5183408308950895C5
:1008B000FC0120813181828193812817390719F049
:1008C000822F0C94E00C0895CF93DF93EC019CB53C
:1008D0009F7D9CBD9CB5937F9CBD9CB59C7F9CBD22
:1008E0009DB591609DBD8A810E94E00C8C899D8997
:1008F000DF91CF910C94721261E00C94640460E07B
:100900000C9464048EBD00000DB407FEFDCF8EB5BF
:1009100008951F93CF93DF93EC010E947F0481EE33
:100920000E948204182FCE010E947C04812FDF9147
:10093000CF911F910895EF92FF921F93CF93DF9372
:1009400000D0CDB7DEB77C014A8369830E947F0463
:100950006981862F8F7180620E948204182F4A81DC
:10096000842F0E948204C7010E947C04812F0F9073
:100970000F90DF91CF911F91FF90EF900895CF924C
:10098000DF92EF92FF920F931F93CF93DF9300D0EC
:100990001F92CDB7DEB77C01142F2A835B83698356
:1009A0000E947F046981862F8F7180620E94820479
:1009B000082FC12E5B81D52E2A81120F1C1531F014
:1009C000F60181916F010E948204F8CFC7010E9455
:1009D0007C04802F0F900F900F90DF91CF911F918B
:1009E0000F91FF90EF90DF90CF900895EF92FF92DC
:1009F0001F93CF93DF931F92CDB7DEB77C0169833E
:100A00000E947F046981862F8F710E9482048FEF7C
:100A10000E948204182FC7010E947C04812F0F902E
:100A2000DF91CF911F91FF90EF900895EF92FF9289
:100A30000F931F93CF938C017B0166E00E94F60415
:100A4000C82FC77D82E0E816F10431F4C0628BE95B
:100A500090E0A0E0B0E00DC0EA94EF2829F085E531
:100A600090E0A0E0B0E005C0C86081E490E0A0E0C4
:100A7000B0E0F801808B918BA28BB38B4C2F66E09A
:100A8000C8010E949B0466E0C8010E94F60491E040
:100A90008C1390E0892FCF911F910F91FF90EF90D1
:100AA0000895CF93DF93EC0160E00E94F60481FD8E
:100AB0000EC0482F426060E0CE010E949B0465E0BA
:100AC00070E080E090E0DF91CF910C947D12DF9197
:100AD000CF9108951F920F920FB60F9211242F936A
:100AE0003F934F935F936F937F938F939F93AF93B6
:100AF000BF93EF93FF93E0911503F09116033097A6
:100B000009F451C0968DA685B785858591FF04C0EF
:100B10009C91892329F447C09C91892309F043C003
:100B2000A389B4899C918589809589238C93868932
:100B300097890197F1F7608D718DA685B7855585E9
:100B400038E020E0CB010197F1F7822F90E09595F6
:100B50008795282F4C91452309F02068315091F753
:100B6000868D81FD20958091140390E001968F7110
:100B7000992730911303381749F0A0911403B0E07E
:100B8000A051BD4F2C938093140303C0868D8160C8
:100B9000868F828D938D0197F1F7A389B4899C91FB
:100BA0008589892B8C93FF91EF91BF91AF919F9194
:100BB0008F917F916F915F914F913F912F910F9006
:100BC0000FBE0F901F9018950F931F93CF93DF9335
:100BD000EC01CB01088119817B836A830E94BC20D0
:100BE0009983888320E030E08C819D812817390724
:100BF00070F4E881F981E20FF31F309729F0D801F2
:100C0000A20FB31F8C9180832F5F3F4FEDCFC801A0
:100C1000DF91CF911F910F910C945121CF93DF93CE
:100C2000EC016C817D816F5F7F4F8A819B8186178C
:100C3000970718F4CE010E94E405E881F9818C81C0
:100C40009D81E80FF91F108288819981DF91CF91F2
:100C50000895CF92DF92EF92FF920F931F93FB01C3
:100C6000DC0100E010E098016A01E12CF12C0C1588
:100C70001D052E053F0538F461916D930F5F1F4FE1
:100C80002F4F3F4FF4CF840F951F1F910F91FF906F
:100C9000EF90DF90CF900895CF92DF92EF92FF9286
:100CA0000F931F93CF93DF931F92CDB7DEB77C01D5
:100CB0006B0188E090E0F7019383828315821482B0
:100CC0000E94BC20F70191838083C114D104B9F044
:100CD000F60101900020E9F731978F010C191D09E9
:100CE0001982AE014F5F5F4FB801C7010E947D0CB2
:100CF000A801B601F701808191810E9429060F9019
:100D0000DF91CF911F910F91FF90EF90DF90CF90E7
:100D100008950895FB01108281E0089580E0089510
:100D200081E0089582E00895CB0108957F928F922B
:100D30009F92AF92BF92CF92DF92EF92FF920F936A
:100D40001F93CF93DF93EC0149015A018B01C12C12
:100D5000D12C7601C814D904EA04FB0484F5F80107
:100D600071908F018F8580FF0BC0E881F98100842D
:100D7000F185E02D20E144E060E070E0CE010995CE
:100D8000EB85FC858D859E85E817F90738F4708220
:100D90008B859C8501969C878B870BC0E881F981A8
:100DA000672D70E0028CF38DE02DCE010995019640
:100DB00049F02FEFC21AD20AE20AF20ACBCFB401ED
:100DC000C50102C0B601C701DF91CF911F910F91FC
:100DD000FF90EF90DF90CF90BF90AF909F908F905B
:100DE0007F900895CF93DF93EC01E881F981028829
:100DF000F389E02D09958F3F2FEF920731F02D8178
:100E00003E812F5F3F4F3E832D83DF91CF91089529
:100E10008FEF9FEF089560E070E0CB01089580E0D0
:100E200090E00895CB010895CF93DF93EC0188897A
:100E30009989DC01ED91FC910084F185E02D099503
:100E4000892BA9F388899989DC01ED91FC910284B1
:100E5000F385E02DDF91CF910994CF93DF93EC01DF
:100E600088899989DC01ED91FC910084F185E02D60
:100E70000995892BA9F388899989DC01ED91FC9169
:100E80000484F585E02DDF91CF910994AF92BF9254
:100E9000CF92DF92EF92FF920F931F93CF93DF9346
:100EA00000D000D0CDB7DEB78C015B01C12CD12CB6
:100EB0007601F80180899189DC01ED91FC91028431
:100EC000F385E02D29833A834B835C83099529813F
:100ED0003A814B815C818F3F71F0C216D306E406E4
:100EE000F5064CF4D5018D935D01BFEFCB1ADB0AFB
:100EF000EB0AFB0ADECFC701B6010F900F900F90EF
:100F00000F90DF91CF911F910F91FF90EF90DF90A5
:100F1000CF90BF90AF900895DC0150968D919C9139
:100F20005197DC01ED91FC910084F185E02D09944D
:100F300080E090E0089580E090E0089580E090E007
:100F4000089580E090E0089508950C9451210C9448
:100F500051210C9451210C9451210C9451210C9449
:100F60005121CF92DF92EF92FF920F931F93CF9375
:100F7000DF93CDB7DEB7A6970FB6F894DEBF0FBEEE
:100F8000CDBF8C017B01E3E2F5E0659174919E0198
:100F90002F5F3F4F6901C9010E940B22F801808534
:100FA0008F9387818F9386818F9385818F9384819F
:100FB0008F9383818F9382811F928F93DF92CF9241
:100FC0001F9286E28F93FF92EF920E940C2CF70102
:100FD00015A20FB6F894DEBF0FBECDBFA6960FB612
:100FE000F894DEBF0FBECDBFDF91CF911F910F915F
:100FF000FF90EF90DF90CF900895CF92DF92EF9225
:10100000FF920F931F93CF93DF93CDB7DEB7A697D1
:101010000FB6F894DEBF0FBECDBF8C017B01EFE1B0
:10102000F5E0659174919E012F5F3F4F6901C90101
:101030000E940B22F80185811F928F9384811F9259
:101040008F9383818F9382818F93DF92CF921F92B0
:1010500086E28F93FF92EF920E940C2CF70115A26B
:101060000FB6F894DEBF0FBECDBFA6960FB6F894AC
:10107000DEBF0FBECDBFDF91CF911F910F91FF90CB
:10108000EF90DF90CF9008950F931F93CF93DF934E
:101090008C01EB016F3F8FEF780719F480E090E04F
:1010A0000FC06A3031F46DE0F801808991890E94A7
:1010B000B60F6C2FF801808991890E94B60FCE017E
:1010C000DF91CF911F910F9108958F929F92BF92C0
:1010D000CF92DF92EF92FF920F931F93CF93DF9304
:1010E00000D000D0CDB7DEB78C014B01C12CD12C84
:1010F0007601C216D306E406F50644F5F401B19074
:101100004F01FAE0BF120EC06DE0F80180899189AD
:1011100029833A834B835C830E94B60F5C814B81A9
:101120003A8129816B2DF8018089918929833A833D
:101130004B835C830E94B60FFFEFCF1ADF0AEF0AE2
:10114000FF0A5C814B813A812981D3CFCA01B90161
:101150000F900F900F900F90DF91CF911F910F91F3
:10116000FF90EF90DF90CF90BF909F908F90089569
:1011700022E132E0FC01318320832CE132E0358B27
:10118000248B62E272E00C944404DC01ED91FC914A
:10119000369720813181820F931F0C94B808CF932A
:1011A000DF93EC010E94B808CE01DF91CF910C943F
:1011B0005121DC01ED91FC91369720813181820F24
:1011C000931F0C94CF080F931F93CF93DF93FC01D1
:1011D000248D223018F0258D222311F080E047C0A5
:1011E0008C01EC012296CE010E94510560E0CE01F7
:1011F0000E94F604482F416060E0CE010E949B04EB
:1012000040E767E0CE010E949B0461E0CE010E94AE
:101210005804F8018385882351F0F8012089A8013A
:10122000455F5F4F6AE0CE010E94BF0414C062E0D8
:10123000CE010E94F604E4E2F4E0E49121E030E023
:1012400001C0220FEA95EAF72095422F482362E079
:10125000CE010E949B046DE1CE010E94F60481FF45
:1012600003C0CE010E94890481E0F801858FDF91DF
:10127000CF911F910F9108956F927F929F92AF929D
:10128000BF92CF92DF92EF92FF920F931F93CF9373
:10129000DF93CDB7DEB72A970FB6F894DEBF0FBE47
:1012A000CDBF8C015B01DC015A969C905A97992026
:1012B00009F4C7C05B969C905B97992009F4C1C064
:1012C0005C968C91823010F4912CBBC0F801858D16
:1012D00098012E5F3F4F7901811165C0F5010190A2
:1012E0000020E9F7D8011996DC90CE2ECA18DC143C
:1012F00008F4CD2CF8018285811102C0DC1801C0F0
:10130000D12CC7010E947F0480EA0E94820435012B
:10131000CA0CC61431F0D3018D913D010E948204A4
:10132000F8CFDD2029F080E00E948204DA94F9CF22
:10133000C7010E947C0461E0C7010E945804C701F4
:101340000E947F048FEF0E948204D82EC7010E9462
:101350007C048D2D807399F360E0C7010E945804CE
:1013600040E767E0C7010E949B0484FF55C0C701A6
:101370000E9489048AE391E09A8389831C830B830A
:101380008EE590E09E838D8318861F82BA86A9869B
:10139000BE016F5F7F4FC8010E94B511912CC8013B
:1013A0000E94E3084EC060E0C9010E945804D801C1
:1013B00052968D919C9153970E9472126DE1C701D4
:1013C0000E94F60481FF08C0F801828993890E9477
:1013D0007212C7010E94890460E0C7010E94F604EE
:1013E000482F4E7F60E0C7010E949B0462E0C70166
:1013F0000E94F604E4E2F4E0E49141E050E001C030
:10140000440FEA95EAF7482B62E0C7010E949B046B
:10141000D8015D961C9262CF8AE391E09A8389831A
:101420001C830B838DE590E09E838D8318861F823D
:10143000BA86A986BE016F5F7F4FC8010E94B511B1
:10144000AECF892D2A960FB6F894DEBF0FBECDBF62
:10145000DF91CF911F910F91FF90EF90DF90CF9090
:10146000BF90AF909F907F906F90089580911103EF
:1014700090911203892B89F58EE390E00E94BC20A5
:10148000FC0182E491E09183808389E090E0938382
:1014900082838AE090E095838483108680E281874E
:1014A000128685E0808B85E090E0A0E0B0E0868B3E
:1014B000978BA08FB18F1386128E81E0838F148E4D
:1014C000158E168E178E10A211A212A213AE15AE93
:1014D00014AEF0931203E0931103809111039091E5
:1014E000120308950895FC01DC010D900020E9F736
:1014F0009F938F9389EB92E09F938F93AE1B1F92E4
:10150000AF937F936F930E940C2C8DB79EB7089674
:101510000FB6F8949EBF0FBE8DBF08955F926F9275
:101520007F928F929F92AF92BF92CF92DF92EF9273
:10153000FF920F931F93CF93DF93CDB7DEB72D9715
:101540000FB6F894DEBF0FBECDBF6C014B015A0140
:101550008901FA0110826EEB72E0CE0107960E94BB
:10156000A10F6EEB72E0CE0101960E94A10FF60171
:1015700061917F0189EDC82E82E0D82E20E090E2B3
:10158000592E5C0C3801F8E06F0E711C61110EC011
:101590008B859C85892B09F46CC08F8198852D875C
:1015A0000E94ED21F50180832D8563C06A3081F3AF
:1015B0005C1471F32230D9F028F4222349F0213051
:1015C00081F050C0243061F1B8F02530E9F14AC013
:1015D0006B3209F442C0F6018081681709F442C0F9
:1015E0005AC06B32E1F16D33E1F1C40131C06D33AA
:1015F000C1F1CE0107962CC06C3241F54D814423D8
:1016000029F0B80189819A810E94730A40E050E074
:101610006EEB72E0CE0101960E94710F24E022C0B1
:101620006C32A1F44D81442329F0B30189819A8160
:101630000E94730A40E050E06EEB72E0CE0101962A
:101640000E94710F25E00EC06C3261F0CE01019650
:101650002D870E944F0F2D8505C021E003C022E099
:1016600001C023E0F70161917F01FFEFCF1ADF0A8C
:101670008DCF4D81442389F089819A81B80123302F
:1016800039F0243019F4685F7F4F02C0605F7F4FEC
:101690000E94730A02C010E001C011E0CE01019661
:1016A0000E949C0FCE0107960E949C0F812F2D96C1
:1016B0000FB6F894DEBF0FBECDBFDF91CF911F9163
:1016C0000F91FF90EF90DF90CF90BF90AF909F90E1
:1016D0008F907F906F905F9008950895EF92FF92A2
:1016E0000F931F93CF93DF93CDB7DEB72A970FB633
:1016F000F894DEBF0FBECDBF8C01DC0157962C9154
:1017000030E0FC01EA58FF4F80819181FE01319663
:101710007F010097A1F0DC01ED91FC910480F5813F
:10172000E02D4AE351E05A8349831C830B833E83B7
:101730002D8318861F821A861986B7010995F8012C
:1017400087898D3081F028F4843051F08A3041F15E
:1017500030C08731B9F0883169F08E3051F50AC058
:1017600080E29EE411C08AE0F801878BC8010E94E4
:101770006E0B16C00E94B712F801668F778F80A398
:1017800091A317C080E395E7D80193969C938E931D
:1017900092970E94B712F801628F738F848F958F92
:1017A0000E94B712D8015E966D937D938D939C93A2
:1017B000919769E275E08EE793E00E94BD0F8091FA
:1017C000450490914604B701681B790B8EE793E0BE
:1017D0000E94460C82E390E0F80193A382A30E944A
:1017E000B712D8015A966D937D938D939C935D9714
:1017F0002A960FB6F894DEBF0FBECDBFDF91CF9112
:101800001F910F91FF90EF9008950F931F93CF9327
:10181000DF93EC018C819D89883070F4980F9830AB
:1018200008F09770FE01E90FF11DE90FF11D7683B5
:1018300065838F5F8C8321C08B01FE01E90FF11D51
:10184000E90FF11D8581968116821582009739F086
:10185000DC01ED91FC910280F381E02D09958D89E9
:10186000FE01E80FF11DE80FF11D168305838F5F60
:10187000883010F48D8B01C01D8A81E0DF91CF91FB
:101880001F910F910895089508950895CF92DF92C2
:10189000EF92FF920F931F93CF93DF938C016B0115
:1018A000770FEE08FF08F7FE12C06DE20E94B60F38
:1018B000EC0144275527BA014C195D096E097F09CF
:1018C0002AE0C8010E94F60FC80FD91F06C02AE0FF
:1018D000B701A6010E94F60FEC016CEB72E0C801A3
:1018E0000E94E10F8C0F9D1FDF91CF911F910F91EF
:1018F000FF90EF90DF90CF900895EF92FF920F93BB
:101900001F93CF93DF93EC018C819D8186179707FE
:1019100010F57A018B018A819B818617970740F425
:10192000685F7F4F8617970718F4CE010E94E40581
:101930008C819D818017910758F4E881F981E80F27
:10194000F91F309719F0D7012C9120830196F2CF1F
:101950001D830C8305C06817790710F47D836C83A1
:10196000DF91CF911F910F91FF90EF9008958330F9
:1019700081F028F4813099F08230A1F00895873009
:10198000A9F08830B9F08430D1F4809180008F7D47
:1019900003C0809180008F7780938000089584B584
:1019A0008F7702C084B58F7D84BD08958091B0008B
:1019B0008F7703C08091B0008F7D8093B000089531
:1019C0001F93CF93DF93282F30E0F901EF5BFA4F9D
:1019D0008491F901E358FA4FD491F901E759FA4F8C
:1019E000C491CC23C9F0162F81110E94B70CEC2FA3
:1019F000F0E0EE0FFF1FEB5AFA4FA591B4918FB7AD
:101A0000F894111105C09C91ED2FE095E92302C0D7
:101A1000EC91ED2BEC938FBFDF91CF911F91089547
:101A2000CF93DF9390E0FC01E358FA4F2491FC013F
:101A3000E759FA4F8491882361F190E0880F991F4C
:101A4000FC01E95CFA4FC591D491FC01EB5AFA4FC5
:101A5000A591B491611109C09FB7F8948881209530
:101A600082238883EC912E230BC0623061F49FB7F0
:101A7000F8943881822F809583238883EC912E2BD4
:101A80002C939FBF06C08FB7F894E8812E2B288334
:101A90008FBFDF91CF910895CF92DF92EF92FF92A7
:101AA0000F931F93CF93DF936C017A018B01C0E0FA
:101AB000D0E0CE15DF0589F0D8016D918D01D601FA
:101AC000ED91FC910190F081E02DC6010995892BE3
:101AD00011F47E0102C02196ECCFC701DF91CF91B6
:101AE0001F910F91FF90EF90DF90CF900895FC0130
:101AF000538D448D252F30E0842F90E0821B930B73
:101B0000541710F0CF96089501970895FC01918D18
:101B1000828D981761F0828DDF01A80FB11D5D964F
:101B20008C91928D9F5F9F73928F90E008958FEFBD
:101B30009FEF0895FC01918D828D981731F0828D71
:101B4000E80FF11D858D90E008958FEF9FEF0895C8
:101B5000FC01918D228D892F90E0805C9F4F821B2C
:101B600091098F73992708958EE793E00E94A80D3D
:101B700021E0892B09F420E0822F0895FC01848D57
:101B8000DF01A80FB11DA35ABF4F2C91848D90E0A7
:101B900001968F739927848FA689B7892C93A08982
:101BA000B1898C9180648C93938D848D981306C039
:101BB0000288F389E02D80818F7D80830895EF92E4
:101BC000FF920F931F93CF93DF93EC0181E0888FF7
:101BD0009B8D8C8D981305C0E889F989808185FDDE
:101BE00024C0F62E0B8D10E00F5F1F4F0F731127CF
:101BF000E02E8C8DE8120CC00FB607FCFACFE889F6
:101C0000F989808185FFF5CFCE010E94BE0DF1CF0D
:101C10008B8DFE01E80FF11DE35AFF4FF0820B8F11
:101C2000EA89FB898081806207C0EE89FF89608331
:101C3000E889F98980818064808381E090E0DF9188
:101C4000CF911F910F91FF90EF900895CF93DF9365
:101C5000EC01888D8823C9F0EA89FB89808185FDA4
:101C600005C0A889B9898C9186FD0FC00FB607FC05
:101C7000F5CF808185FFF2CFA889B9898C9185FF46
:101C8000EDCFCE010E94BE0DE7CFDF91CF91089539
:101C900080E090E0892B29F00E94B40D81110C9412
:101CA0000000089508950E94EE2B0C9451210C948D
:101CB00051210C9451210C9451210C9451210C94DC
:101CC00051210F931F93CF93DF93EC01888199816A
:101CD000009729F02A813B812617370788F48B016A
:101CE0006F5F7F4F0E94242B009761F09983888358
:101CF0001B830A832C813D81232B11F4FC0110826C
:101D000081E001C080E0DF91CF911F910F91089594
:101D1000CF93DF936115710509F460C0FB01C081A9
:101D2000CF3F11F461E003C0C11104C060E0FC01C9
:101D3000828150C0FC01D28161E08D2F0E94100D84
:101D4000ED2FF0E0EF5BFA4FE491E33009F148F456
:101D5000E130C9F0E230C1F584B5806284BDC8BD10
:101D60003DC0E73009F1E83039F1E43069F58091A0
:101D700080008062809380008C2F90E090938B0095
:101D800080938A002BC084B5806884BDC7BD26C0FF
:101D9000809180008068809380008C2F90E09093E9
:101DA0008900809388001AC08091B0008068809379
:101DB000B000C093B30012C08091B00080628093E5
:101DC000B000C093B4000AC0C03810F460E001C095
:101DD00061E08D2FDF91CF910C94E00CDF91CF91DA
:101DE0000895CF93DF93DC01ED91FC91EB01A88185
:101DF000B981309711F01097C9F4109759F0EB01A1
:101E00002C813D81232B31F08C9190E0919581952F
:101E1000910914C0309781F0DC0114968D919C914A
:101E20001597892B49F0808190E008C0BD01CF0152
:101E3000DF91CF910C94FC2B80E090E0DF91CF916B
:101E40000895EF92FF920F931F93CF93DF93FC01BE
:101E5000248135816115710511F480E019C04115A7
:101E60005105A9F07B01EC018A01020F131FB80193
:101E70000E94610E882389F3288139818C819D819C
:101E8000B701820F931F0E94052C1D830C8381E0F4
:101E9000DF91CF911F910F91FF90EF900895CF9315
:101EA000DF9300D0CDB7DEB769831A8241E050E0FE
:101EB000BE016F5F7F4F0E94210F0F900F90DF9147
:101EC000CF9108956115710551F0FB01019000203B
:101ED000E9F73197AF01461B570B0C94210F80E0B7
:101EE0000895EF92FF920F931F93CF93DF93EC012E
:101EF0007B018A01BA010E94610E2881398181111A
:101F00000DC02115310519F0C9010E945121198216
:101F100018821D821C821B821A8206C01D830C83BC
:101F2000B701C9010E94052CCE01DF91CF911F910D
:101F30000F91FF90EF900895FC01808191810C94A6
:101F40005121FC01118210821382128215821482A7
:101F50006115710551F0FB0101900020E9F73197FF
:101F6000AF01461B570B0C94710F0895DC01ED91E6
:101F7000FC910190F081E02D0994EF92FF920F9374
:101F80001F93CF93DF938C017B01C0E0D0E0F7017A
:101F9000EC0FFD1F6491662361F0D801ED91FC9177
:101FA0000190F081E02DC8010995892B11F021964F
:101FB000EECFCE01DF91CF911F910F91FF90EF9067
:101FC00008956115710579F0FB0101900020E9F792
:101FD0003197AF01461B570BDC01ED91FC9102805C
:101FE000F381E02D099480E090E008954F925F9294
:101FF0006F927F92EF92FF920F931F93CF93DF9395
:10200000CDB7DEB7A1970FB6F894DEBF0FBECDBF38
:102010007C01FA01CB0119A2223008F42AE08E01DA
:102020000F5D1F4F422E512C612C712CBF01A3015B
:1020300092010E94E82AF901CA01015011096A308F
:1020400014F4605D01C0695CD8016C93232B242BD0
:10205000252B61F7B801C7010E94E10FA1960FB6C9
:10206000F894DEBF0FBECDBFDF91CF911F910F91CE
:10207000FF90EF907F906F905F904F9008950F9337
:102080001F93CF93DF93EC010E94BD0F8C016CEB8B
:1020900072E0CE010E94E10F800F911FDF91CF917E
:1020A0001F910F9108951F920F920FB60F92112456
:1020B0002F933F934F935F936F937F938F939F9350
:1020C000AF93BF93EF93FF938EE793E00E94BE0D13
:1020D000FF91EF91BF91AF919F918F917F916F9100
:1020E0005F914F913F912F910F900FBE0F901F90D6
:1020F00018951F920F920FB60F9211242F938F9362
:102100009F93EF93FF93E0918E03F0918F03808173
:10211000E0919403F091950382FD12C0908180912B
:1021200097038F5F8F7320919803821751F0E0918E
:102130009703F0E0E258FC4F958F8093970301C01E
:102140008081FF91EF919F918F912F910F900FBE02
:102150000F901F9018950F931F93CF93DF93CDB7D8
:10216000DEB727970FB6F894DEBF0FBECDBFDC01F8
:1021700019968D919C911A970097C1F012962C9107
:102180001297FC0140815181FA01048115814EEAC8
:1021900052E05A834983BC83AB832D831796BF8358
:1021A000AE83BE016F5F7F4FF801099527960FB68A
:1021B000F894DEBF0FBECDBFDF91CF911F910F917D
:1021C0000895089508958F929F92AF92BF92CF92F3
:1021D000DF92EF92FF920F931F93CF93DF93FC0157
:1021E0002189223009F065C0EC010E94B7122D85CB
:1021F0003E856901E12CF12C09851A852B853C85EA
:1022000046015701801A910AA20AB30ADC01CB01E8
:10221000880D991DAA1DBB1DEF85F889418152814A
:1022200060E070E084179507A607B70708F441C07F
:102230001E861D860E94B71269877A878B879C87C6
:10224000EF85F889638174816115710579F48F8157
:102250009885019698878F832D813E816B817C8143
:102260002115310519F0821793078CF4788B6F874D
:10227000CE01DF91CF911F910F91FF90EF90DF90F2
:10228000CF90BF90AF909F908F900C94880E198A3A
:10229000788B6F871E861D8660E08A810E94E00C25
:1022A0002F8138858D819E812817390711F4188672
:1022B0001F82DF91CF911F910F91FF90EF90DF90E0
:1022C000CF90BF90AF909F908F9008950895AF9258
:1022D000BF92CF92DF92EF92FF920F931F93CF9313
:1022E000DF931F92CDB7DEB78C016B017A015901E4
:1022F00088E090E0F80193838283158214820E9423
:10230000BC20F80191838083F601848195818E152C
:102310009F0510F40E94EE2B1982BC016E197F09F3
:10232000A616B70608F4B501AE014F5F5F4FC801AE
:102330000E947D0CF80144815581F6016081718114
:102340006E0D7F1DF801808191810E9429060F90FA
:10235000DF91CF911F910F91FF90EF90DF90CF9081
:10236000BF90AF90089508950895CF93DF93CDB7B0
:10237000DEB72A970FB6F894DEBF0FBECDBFFC01C3
:1023800084AD95AD009741F1DB01FC0120813181E5
:10239000F901448155812AE331E03A832983129679
:1023A0002D913C9113973C832B8314962D913C9156
:1023B00015973E832D8316962D913C91179738875C
:1023C0002F8318962D913C9119973A872987BE0142
:1023D0006F5F7F4FFA0109952A960FB6F894DEBF1A
:1023E0000FBECDBFDF91CF9108950F931F93CF9371
:1023F000DF93CDB7DEB72A970FB6F894DEBF0FBED6
:10240000CDBFFC01248D2617E1F18C01648F8AE396
:1024100091E09A838983FC83EB838AE590E09E8335
:102420008D8318861F82CF014C969A878987BE01BB
:102430006F5F7F4FCF010E94B511F801848D8E31FF
:1024400019F4F801168E11C095EF980F9330A8F487
:10245000F80183A1882331F0B8016D5D7F4FC80179
:102460000E943C0981E0F801868F0E94B712F801B2
:10247000678F70A381A392A302C08A3011F381E019
:1024800001C080E02A960FB6F894DEBF0FBECDBF24
:10249000DF91CF911F910F9108953FB7F8948091EC
:1024A000220390912303A0912403B091250326B524
:1024B000A89B05C02F3F19F00196A11DB11D3FBF7C
:1024C000BA2FA92F982F8827820F911DA11DB11D0A
:1024D000BC01CD0142E0660F771F881F991F4A9506
:1024E000D1F708958230910538F0880F991F880F31
:1024F000991F05970197F1F708958F929F92AF92D8
:10250000BF92CF92DF92EF92FF926B017C010E940B
:102510004D124B015C01C114D104E104F104F1F04E
:102520000E944D12DC01CB0188199909AA09BB0947
:10253000883E9340A105B10570F321E0C21AD1088D
:10254000E108F10888EE880E83E0981EA11CB11CFA
:10255000C114D104E104F10419F7DDCFFF90EF902D
:10256000DF90CF90BF90AF909F908F9008952FB73E
:10257000F89460911E0370911F0380912003909145
:1025800021032FBF08951F920F920FB60F921124AF
:102590002F933F938F939F93AF93BF9380911E038D
:1025A00090911F03A0912003B091210330911D034E
:1025B00023E0230F2D3720F40196A11DB11D05C086
:1025C00026E8230F0296A11DB11D20931D038093C1
:1025D0001E0390931F03A0932003B09321038091C7
:1025E000220390912303A0912403B0912503019627
:1025F000A11DB11D8093220390932303A093240374
:10260000B0932503BF91AF919F918F913F912F91EF
:102610000F900FBE0F901F901895089508950C9479
:10262000512102970C940F1304970C940F130F93DE
:102630001F93CF93DF93CDB7DEB769970FB6F894AA
:10264000DEBF0FBECDBFDB011296ED91FC9113975B
:10265000DC0116968D919C911797E817F90789F57B
:1026600087819085039769F582EB92E09F938F9322
:1026700086EB92E09F938F938E010F5F1F4F1F9306
:102680000F930E943C2C0E94360AB8010E943C091C
:1026900066E174E08EE793E00E94BD0FBE01675EC5
:1026A0007F4F8091450490914604681B790B8EE71B
:1026B00093E00E94460C0F900F900F900F900F9098
:1026C0000F9069960FB6F894DEBF0FBECDBFDF91B5
:1026D000CF911F910F91089504970C9417132F9287
:1026E0003F924F925F926F927F928F929F92AF92A2
:1026F000BF92CF92DF92EF92FF920F931F93CF93EF
:10270000DF93CDB7DEB7CE54D1090FB6F894DEBF54
:102710000FBECDBF7C01FB0162807380C480D58079
:10272000DC011A968D919C911B976816790609F029
:10273000E5C2C60199278B359105C9F08D35910504
:1027400009F4C9C28A35910509F0D8C20084F1851F
:10275000E02D108161E172E08EE793E00E94BD0FF1
:10276000612F70E08EE793E00E94460CC7C200859F
:10277000118569E272E08EE793E00E94BD0FB80117
:102780008EE793E00E94E10F6CEB72E08EE793E03E
:102790000E94E10F6EEB72E0CE018B5B9F4F0E94B7
:1027A000A10F5E01B9E1AB0EB11C88E1F5011192F8
:1027B0008A95E9F79501AE01445B5F4FBE016B5B03
:1027C0007F4FC8010E948E0A6FEB72E0CE01019626
:1027D0000E94A10FBE016F5F7F4FCE018B5B9F4FA9
:1027E0000E94F10E8C01CE0101960E949C0F012BDC
:1027F00009F4BDC163EC72E0CE0101960E94A10F05
:10280000BE016F5F7F4FCE018B5B9F4F0E94F10E29
:102810008C01CE0101960E949C0F012B09F08BC008
:10282000AE014F5F5F4FB501CE01C8960E944C06C6
:10283000CE01C8960E940E060E94E92120E030E0F9
:102840004AE754E40E94622A1B012C019B01AC015F
:10285000D70152966D917D918D919C9155970E94D3
:10286000EA28882309F430C1F701228A338A448A8E
:10287000558A808991892F969FAF8EAF2F97A2019D
:102880009101DC0115966D917D918D919C91189728
:102890000E94EA28882309F417C12F96EEADFFADF8
:1028A0002F9725823682478250864E01FFE38F0E96
:1028B000911C86E0D4011D928A95E9F7840122E0FB
:1028C00042E0C201B1010E949C2088E090E09CABF4
:1028D0008BAB1EAA1DAA0E94BC209AAB89AB20E03C
:1028E00030E040E251E4C201B1010E94EA2887FFD2
:1028F00006C067EC72E0CE01C1960E945720B40179
:10290000CE01C1960E94572069EC72E0CE01C196BB
:102910000E9457208E01055B1F4F2FEF3FEF40E0D5
:1029200050E0BE016F5C7F4FCE0101960E9467119F
:1029300040E050E0B6C06CEC72E0CE0101960E941F
:10294000A10FBE016F5F7F4FCE018B5B9F4F0E9437
:10295000F10E8C01CE0101960E949C0F012B09F40F
:1029600006C160ED72E0CE0101960E94A10FBE018A
:102970006F5F7F4FCE018B5B9F4F0E94F10E8C01EA
:10298000CE0101960E949C0F012B09F0A0C0AE0160
:102990004F5F5F4FB501CE01C8960E944C06CE0135
:1029A000C8960E940E060E94E92120E030E04AE726
:1029B00054E40E94622A1B012C019B01AC01D70147
:1029C00056966D917D918D919C9159970E94EA2820
:1029D000882309F479C0F701268A378A408E518E00
:1029E000808991892F969FAF8EAF2F97A201910179
:1029F000DC0119966D917D918D919C911C970E949F
:102A0000EA28882309F460C02F96EEADFFAD2F971A
:102A100021863286438654864E01FFE38F0E911C39
:102A200086E0D4011D928A95E9F7840122E042E014
:102A3000C201B1010E949C2088E090E09CAB8BAB6E
:102A40001EAA1DAA0E94BC209AAB89AB20E030E0F0
:102A500040E251E4C201B1010E94EA2887FF06C0AA
:102A600067EC72E0CE01C1960E945720B401CE01FE
:102A7000C1960E94572069EC72E0CE01C1960E9477
:102A800057208E01055B1F4F2FEF3FEF40E050E0D6
:102A9000BE016F5C7F4FCE0101960E94671142E03C
:102AA00050E0BE016F5F7F4F2F96EEADFFAD2F97C9
:102AB000828193810E94DD1FCE0101960E943D0418
:102AC000CE01C1960E943D04CE01C8964EC064ED71
:102AD00072E0CE0101960E94A10FBE016F5F7F4F91
:102AE000CE018B5B9F4F0E94F10E8C01CE010196AF
:102AF0000E949C0F012BD9F168ED72E0CE01019686
:102B00000E94A10FBE016F5F7F4FCE018B5B9F4F75
:102B10000E94F10E8C01CE0101960E949C0F012BA8
:102B200031F5AE014F5C5F4FB501CE0101960E94B9
:102B30004C06CE0101960E940E060E94E9211B015F
:102B40002C019B01AC01D7015A966D917D918D911D
:102B50009C915D970E94EA28882329F0F701228E34
:102B6000338E448E558ECE0101960E943D042D96E3
:102B70008FAD2D97882309F4A8C064E272E08EE738
:102B800093E00E94BD0F2D964FAD2D9750E060E071
:102B900070E02AE08EE793E00E94F60F6CEB72E0A3
:102BA0008EE793E00E94E10F198E19A219A62D96C7
:102BB0009FAC2D9769ED72E0CE01C8960E94A10FDF
:102BC0006BE2CE01C8960E944F0F62EB72E0CE011D
:102BD000C8960E94620F8E010F5C1F4F992041F131
:102BE0001F929F928CED92E09F938F931F9284E0AF
:102BF0008F931F930F930E940C2C6BE2CE01C8960B
:102C00000E944F0FB801CE0101960E94A10F4D8185
:102C10005E8169817A81CE01C8960E94210FCE0122
:102C200001960E949C0F0FB6F894DEBF0FBECDBF79
:102C30006EEB72E0C8010E94A10F898D882321F0FC
:102C4000B501C8010E94620F89A1882351F06CE28E
:102C5000C8010E944F0FBE016F5D7F4FC8010E94E7
:102C6000620F89A5882351F06CE2C8010E944F0FC2
:102C7000BE01675D7F4FC8010E94620F8DA99EA9AA
:102C8000892B69F06DE3CE01C8960E944F0F4DA9C4
:102C90005EA969A97AA9CE01C8960E94210F4CAD00
:102CA000BE016F5F7F4F88AD99AD0E94730AC80166
:102CB0000E949C0FCE01C8960E949C0F0E94360A6B
:102CC000BE016F5F7F4F0E943C09CE018B5B9F4F1F
:102CD0000E949C0F13C00085118565E472E08EE7A9
:102CE00093E00E94BD0FB8018EE793E00E94E10FD0
:102CF0006CEB72E08EE793E00E94E10FD7011C9627
:102D00008D919C911D976816790609F04FC0F601C8
:102D1000FF27EA33F10508F049C0EC5CFF4F0C9443
:102D20000A2B6DE074E03EC061E074E03BC06FEEE2
:102D300073E038C06EED73E035C066EC73E032C00E
:102D40006FEA73E02FC06FE973E02CC06AE873E0AC
:102D500029C060E773E026C06CE573E023C063E43C
:102D600073E020C061E373E01DC06AE173E01AC044
:102D700064E073E017C062EF72E014C06FED72E0C0
:102D800011C06CEC72E00EC064EB72E00BC062EA42
:102D900072E008C068E872E005C064E772E002C053
:102DA0006AE572E08EE793E00E943F10C25BDF4F5E
:102DB0000FB6F894DEBF0FBECDBFDF91CF911F914C
:102DC0000F91FF90EF90DF90CF90BF90AF909F90CA
:102DD0008F907F906F905F904F903F902F900895CD
:102DE00002970C946F13CF93DF93CDB7DEB7CE5518
:102DF000D1090FB6F894DEBF0FBECDBF789484B56D
:102E0000826084BD84B5816084BD85B5826085BDE6
:102E100085B5816085BD80916E00816080936E0074
:102E20001092810080918100826080938100809166
:102E30008100816080938100809180008160809317
:102E400080008091B10084608093B1008091B000D7
:102E500081608093B00080917A00846080937A00D2
:102E600080917A00826080937A0080917A008160FC
:102E700080937A0080917A00806880937A00109223
:102E8000C10061E085E00E94100D61E087E00E94D2
:102E9000100D61E086E00E94100DE0918E03F0912C
:102EA0008F0382E08083E0918A03F0918B0310828C
:102EB000E0918C03F0918D0380E180831092960362
:102EC000E0919203F091930386E08083E091900378
:102ED000F0919103808180618083E0919003F09173
:102EE0009103808188608083E0919003F091910349
:102EF000808180688083E0919003F09191038081CC
:102F00008F7D808362E674E08EE793E00E943F103D
:102F1000E0913003F0913103309721F08EE293E09D
:102F200092878187009134031091350301151105B3
:102F300029F08CE293E0F80195AF84AFE09136037D
:102F4000F0913703309759F0EA58FF4F8081918113
:102F50008C52934021F08CE293E091838083F801BE
:102F6000828D882339F0848D823020F0838D8823F0
:102F700009F480C2E0903403F090350387010E5FBE
:102F80001F4FF70182819381248135818217930736
:102F900019F061E00E94100DF70184819581228172
:102FA00033812817390719F061E00E94100DDFB650
:102FB000F89480911003811127C0E3E7F5E0849134
:102FC000E7E8F5E09491E82FF0E0EE0FFF1FE95CF1
:102FD000FA4FA591B491EC91E92321F461E08AE0E4
:102FE0000E94E00C61E08AE00E94100D8CB58061C7
:102FF0008CBD8CB580648CBD61E08DE00E94100DAD
:1030000061E08BE00E94100D809110038F5F809330
:103010001003DFBE60E0C8010E94580461E0C801EF
:103020000E94640465E070E080E090E00E947D1200
:103030004CE060E0C8010E949B044FE564E0C801D9
:103040000E949B0462E070E0C8010E94160588237C
:1030500019F081E0F701808766E0C8010E94F6045C
:10306000D82E60E070E0C8010E941605C8010E94D9
:103070007F0480E50E94820483E70E948204C801E5
:103080000E947C0440E06DE1C8010E949B0440E086
:103090006CE1C8010E949B04F701128640E767E0DB
:1030A000C8010E949B044CE465E0C8010E949B0497
:1030B000C8010E947F0482EE0E948204C8010E941F
:1030C0007C04C8010E948904C8010E94510560E087
:1030D000C8010E94F604482F4E7F60E0C8010E949C
:1030E0009B048FEF8D0D8E3F08F093C044EA64E09F
:1030F000C8010E949B0440E06DE1C8010E949B044E
:1031000040E06CE1C8010E949B04F701128688E14F
:10311000818781E02E968FAF2E972F961FAE2F9727
:1031200060961FAE609761961FAE619762961FAE64
:10313000629763961FAE639764961FAE6497659619
:103140001FAE65972089AE01435B5F4F6AE0C801FF
:103150000E94BF04F7012089AE01435B5F4F60E12D
:10316000C8010E94BF04F701418561E1C8010E94C6
:103170009B0482E026968FAF269727961FAE27974F
:1031800028961FAE289729961FAE29972A961FAE1C
:103190002A972B961FAE2B972C961FAE2C972D9609
:1031A0001FAE2D97E1E3F4E06491F7012089AE01B1
:1031B0004B5B5F4FC8010E94BF04EBE2F4E06491F7
:1031C000F7014185C8010E949B0462E0C8010E948A
:1031D000F604E5E2F4E0E49141E050E001C0440F80
:1031E000EA95EAF7482B62E0C8010E949B0466E07A
:1031F000C8010E94F604887F482F436066E0C8013A
:103200000E949B0462E070E0C8010E94160562E023
:1032100001C061E0C7010E94F511809134039091D3
:1032200035030E94E308E0913403F0913503828D69
:10323000811102C081E0828F61E085E00E94E00C94
:1032400061E087E00E94E00C61E086E00E94E00C13
:103250006AEF70E080E090E00E947D1260E085E01F
:103260000E94E00C60E087E00E94E00C60E086E0F5
:103270000E94E00C66E574E08EE793E00E94BD0FCB
:1032800080914504909146049E012F5F3F4F790144
:10329000B901681B790B8EE793E00E94460C60E54C
:1032A00074E08EE793E00E943F1064E474E08EE7E0
:1032B00093E00E94BD0F8091450490914604B701B0
:1032C000681B790B8EE793E00E94460C6E0139E192
:1032D000C30ED11C50E1452E57E2552E612C712CA6
:1032E0000E94B71200912603109127032091280312
:1032F00030912903DC01CB01801B910BA20BB30B96
:10330000803D9740A105B10554F00E94B71260932B
:103310002603709327038093280390932903009139
:10332000340310913503F801828D882309F47CC0A1
:10333000848D823008F478C05801F2E0AF0EB11CE1
:1033400067E1C5010E94F60480FFA2C02AC0C50142
:103350000E947C0440E767E0C5010E949B0419AA13
:103360003AE3A32E31E0B32EBCAEABAE1EAF0DAF31
:103370008BE590E021969FAF8EAF219723961FAEED
:103380001EAE23972596DFAECEAE2597BE01655CB7
:103390007F4FC8010E94B511F801848D823008F07A
:1033A000A0C0F801648D85EF860F8430E8F5868D26
:1033B0008130A1F50E94B712F801878C90A0A1A0DE
:1033C000B2A0DC01CB0188199909AA09BB0981388F
:1033D0009105A105B10540F1848D8D30D8F083AD04
:1033E000898F8AE391E09A8389831C830B8380E62B
:1033F00090E09E838D83D886CF82C80183969A877A
:103400008987B701C8010E94B511F80113A213AE54
:103410006AE007C082E0F801868F06C0823021F49E
:103420006F5FC8010E94F5110091300310913103C4
:10343000F801228130E0F901EF5BFA4F8491F90144
:10344000E358FA4FB490F901E759FA4FA490AA2033
:1034500009F4C5C081110E94B70CEA2DF0E0EE0F0F
:10346000FF1FE15AFA4FA591B491EC91BE2209F4E5
:10347000B6C0EEC0C80102960E94510581E0F80175
:10348000838F66E374E08EE793E00E943F1072CD75
:10349000F8018185883108F4A0C048E1242EF801A4
:1034A0009285911103C0382E321801C0312CC5010C
:1034B0000E947F0481E60E94820446012A94FFEF65
:1034C0002F1639F08FEF0E948204F40181934F018F
:1034D000F5CF332009F43BCF8FEF0E9482043A945A
:1034E000F8CF6EEB72E0CE018B5A9F4F0E94A10F76
:1034F00088E1F70111928A95E9F780E38B839701C0
:10350000AE01445A5F4FBE016B5A7F4FC6010E9405
:103510008E0A882309F45BC062EB72E0CE01C1968B
:103520000E94A10FBE016F5C7F4FCE018B5A9F4F4F
:103530000E94F10E4C01CE01C1960E949C0F892879
:1035400009F045C06D968FAD6D976C968FAF6C97F7
:10355000BAAAA9AA1CAB0BAB8CE590E09EAB8DABD5
:103560002BE530E02C0F3D1F38AF2FABDAAEC9AEE4
:10357000BE016F5C7F4FC8010E94B5116D969FAD73
:103580006D97992321F1F80183AD891320C06C96C2
:103590008FAF6C97BAAAA9AA1CAB0BAB8FE590E0D2
:1035A0009EAB8DAB2BE530E02C0F3D1F38AF2FAB22
:1035B000DAAEC9AEBE016F5C7F4FC8010E94B51183
:1035C000F80113A213AE6EE1C8010E94F511CE01FD
:1035D0008B5A9F4F0E949C0FE4CE282E60CFF8019B
:1035E000878190850097F9F40E94B712F8018380D3
:1035F0009480A580B680DC01CB0188199909AA09BD
:10360000BB09883E9340A105B105C8F1F801878147
:1036100090850397A1F183E090E090878783C801AC
:103620000E94AB102CC0019751F50E94B712F8010F
:1036300083809480A580B680DC01CB01881999092C
:10364000AA09BB09C397A105B10508F0F5C017C0C9
:10365000F80187819085019791F00E94B712F801D7
:1036600083809480A580B680DC01CB0188199909FC
:10367000AA09BB09C397A105B10508F0E6C00091EE
:10368000320310913303C80103960E94E310C8016E
:1036900045960E94E310C80187960E94E31080912E
:1036A0004803811193C00E94B71200914903109101
:1036B0004A0320914B0330914C03DC01CB01801B6A
:1036C000910BA20BB30B89389341A105B10508F406
:1036D0007DC06CE774E08EE793E00E943F1084E0C9
:1036E000882E912C9FE9292E3324339482E090E098
:1036F0000E94BC20BC012EE231E0FC01318320831A
:1037000089E090E06E966FAF6E976F967FAF6F9780
:103710000E94BC205C0126E131E0FC013183208362
:1037200031E03283438254826582768220E137E23F
:103730003087278386E090E00E94BC208C012AE03D
:1037400031E0FC01318320833382228238EC3483E0
:1037500015826E966FAD6E976F967FAD6F97809165
:103760003603909137030E94050CB5018091360312
:10377000909137030E94050CB80180913603909117
:1037800037030E94050C81E0881A910809F0AECF3A
:103790006BE674E08EE793E00E94BD0F80914504D4
:1037A00090914604B701681B790B8EE793E00E9465
:1037B000460C0E94B7126093490370934A038093AA
:1037C0004B0390934C0381E080934803809148031E
:1037D0008130B1F40E94B7120091490310914A035D
:1037E00020914B0330914C03DC01CB01801B910BEA
:1037F000A20BB30B813A9F40A105B10508F046C06A
:10380000109148031230A9F40E94B7128090490326
:1038100090904A03A0904B03B0904C03DC01CB0185
:1038200088199909AA09BB0989399A43A105B105E3
:1038300088F50E94480E54CDF80187819085892B28
:10384000E9F0F8011086178216C0F801878190858B
:10385000892B41F482E090E0F80190878783C801CA
:103860000E94AB10F80187819085019739F081E0C3
:1038700090E090878783C8010E94AB100E94B71226
:10388000F8016383748385839683F9CE82E0809305
:103890004803B6CF0E94B7126093490370934A035E
:1038A00080934B0390934C0310934803C2CFCF9265
:1038B000DF92EF92FF920F931F93CF93DF938EE7E8
:1038C00093E0109281031092800348EE53E060E091
:1038D00070E040938203509383036093840370935A
:1038E000850322E731E030937F0320937E0325ECAC
:1038F00030E030938B0320938A0324EC30E0309344
:103900008D0320938C0320EC30E030938F032093C1
:103910008E0321EC30E0309391032093900322EC4E
:1039200030E0309393032093920326EC30E0309301
:10393000950320939403109297031092980310928A
:10394000990310929A0361E270E0709333046093DC
:10395000320410923404109235041092360426E09A
:10396000C22ED12CE12CF12CC0923704D092380415
:10397000E0923904F0923A0410923B0410923C0415
:1039800010923D0410923E0440E240933F04109296
:10399000410410924004109244042DE134E030932D
:1039A00043042093420422E132E030931C0420932C
:1039B0001B042CE132E03093300420932F0410924A
:1039C00021041092200410922304109222041092D9
:1039D00025041092240410922704109226041092B9
:1039E00029041092280410922B0410922A0420EF2C
:1039F00031E030931E0420931D0490932E04809395
:103A00002D0450E150932C0470936C0360936B036E
:103A100010926D0310926E0310926F03C0927003A8
:103A2000D0927103E0927203F092730310927403C8
:103A300010927503109276031092770340937803E7
:103A400010927A031092790310927D031092520320
:103A500010925303109254031092550346E553E01D
:103A600050937C0340937B034AE951E05093510308
:103A70004093500344EA51E0509369034093680334
:103A800010925A031092590310925C0310925B0338
:103A900010925E0310925D031092600310925F0318
:103AA00010926203109261031092640310926303F8
:103AB00030935703209356039093670380936603D4
:103AC00028E02093650390934F0380934E0365EFA6
:103AD00072E08DE093E00E941A2282E892E09093D7
:103AE0002B0380932A0380E992E090932D03809327
:103AF0002C038AE992E090932F0380932E038BE0AE
:103B000090E00E94BC20EC0180E492E099838883DD
:103B10001B821C821D821E8281E090E098878F8329
:103B20001A86198684E08A8360E00E94100DD09383
:103B30003103C09330038091170390911803892BB0
:103B400009F052C089E390E00E94BC20EC0180E5BE
:103B500092E0998388831A8208E412E01C830B8325
:103B600085E08D831F821E82198618861B861A8621
:103B70001C861D861E861F86198A188A1B8A1A8A29
:103B80001C8A61E00E94100D1E8B0D8B87E08F8BCD
:103B9000198E188E1B8E1A8E1D8E1C8E1E8E1F8ED9
:103BA00018A219A21BA21AA21DA21CA21EA261E0A9
:103BB0000E94100D18A70FA386E089A71BA61AA6BE
:103BC0001DA61CA61FA61EA618AA19AA1AAA1BAAD9
:103BD0001DAA1CAA1FAA1EAA18AE61E00E94100D01
:103BE000D0931803C0931703809117039091180383
:103BF00090933303809332030E94360A90933503E7
:103C0000809334038091190390911A03892B09F052
:103C100026C188E790E00E94BC20EC018AE692E091
:103C2000998388838FE190E00E94BC208C01DC01A5
:103C300013961C921E92129788EE93E0A0E0B0E0DB
:103C4000F80184839583A683B78388E592E0918306
:103C50008083178A168A118E108E138E128E158EFF
:103C6000148E668D6E7F6D7F668F6695617081E0C4
:103C7000682783E00E94E00C61E083E00E94100D61
:103C8000E0E8F5E0E491D8015096EC93ECE6F5E03D
:103C9000E491F0E0EE0FFF1FEB5AFA4F85919491FB
:103CA000F801928B818B60E082E00E94100DD801B8
:103CB0005E968C9181FD04C061E082E00E94E00C80
:103CC00082E0F8018487EFE7F5E0E491D8011D96E2
:103CD000EC93EBE6F5E0E491F0E0EE0FFF1FE15A24
:103CE000FA4F85919491F801978786871B830A8301
:103CF0001C821D8A1E8A1F8A188E198E0E94B71276
:103D00006A8F7B8F8C8F9D8F0E94B7126E8F7F8FF3
:103D100088A399A31BA21AA2FE01EA58FF4F1182A1
:103D20001082E157F109CE01459611921192E817E0
:103D3000F907D9F78F89882321F01F8ACE010E94C5
:103D40006E0BEA81FB81138E128E118E108E178AF4
:103D5000168A8DE991E0958F848F8485863108F0ED
:103D60004DC02DEB30E0378B268B2BE931E0318FC6
:103D7000208F2CE231E0338F228F909168008830C1
:103D800050F021E08E3008F420E081E001C0880F7F
:103D90002A95EAF701C084E0892B80936800948516
:103DA000983038F09E3040F0963148F020E030E016
:103DB00008C02DE630E005C02BE630E002C02CE65E
:103DC00030E0348B238B983030F481E001C0880FD1
:103DD0009A95EAF70EC0292F30E09E3018F428504B
:103DE000310902C02E50310981E001C0880F2A95A7
:103DF000EAF7858B848D958D0197F1F7828D938DF0
:103E0000892B49F140911503509116034E175F0716
:103E100011F14115510571F0DA0153962D913C9144
:103E20005497D9019C91DA0155968C9180958923FC
:103E3000D9018C93868D8E7F868F109214031092F9
:103E40001303F0931603E0931503A389B4899C919F
:103E50008589892B8C93D0931A03C0931903809181
:103E6000190390911A03909337038093360380913E
:103E70001B0390911C03892B09F042C082E090E063
:103E80000E94BC20FC0182E792E091838083A09194
:103E90008E03B0918F0382E08C93A0918A03B0913E
:103EA0008B031C92A0918C03B0918D038FEC8C93AB
:103EB00010929603A0919203B091930386E08C93A5
:103EC000A0919003B09191039C9190619C93A091DB
:103ED0009003B09191039C9198609C93A091900362
:103EE000B09191039C9190689C93A0919003B091A4
:103EF00091039C919F7D9C93F0931C03E0931B0383
:103F0000C0911B03D0911C03D0933903C093380395
:103F100080E190E00E94BC20FC018AE792E091835E
:103F20008083D383C28381E08483158216821782C3
:103F300010861186128613861486158616861786B5
:103F4000F0933B03E0933A0310923C0310923D033D
:103F500010923E0310923F031092400310924103CF
:103F600010924203109243031092440310924503AF
:103F70001092460310924703109248030E94B71212
:103F80006093490370934A0380934B0390934C03CF
:103F900010924D030E94B71260932603709327037B
:103FA0008093280390932903DF91CF911F910F9164
:103FB000FF90EF90DF90CF9008958F929F92AF92F5
:103FC000BF92EF92FF920F931F93CF93DF9300D096
:103FD000CDB7DEB7CB01EDB6FEB6FB01248135814E
:103FE000235F3F4F6DB77EB7621B730B0FB6F8941C
:103FF0007EBF0FBE6DBF0DB71EB70F5F1F4F49834A
:104000005A830E940E069F938F931F9283E08F9393
:104010005A815F9349814F931F928F938FED92E066
:104020009F938F931F930F930E943C2CB8018EE7B0
:1040300093E00E94E10F0E94B7124B015C018DB723
:104040009EB70C960FB6F8949EBF0FBE8DBF10E0C2
:104050008EE793E00E94860D8534910581F0111161
:104060000EC00E94B712DC01CB0188199909AA0978
:10407000BB0911E08897A105B10550F7E8CF61E0D1
:1040800070E080E090E00E947D120FB6F894FEBED2
:104090000FBEEDBE0F900F90DF91CF911F910F914A
:1040A000FF90EF90BF90AF909F908F900895AF9248
:1040B000BF92CF92DF92EF92FF920F931F93CF9315
:1040C000DF931F92CDB7DEB77C016B01FB0101903E
:1040D0000020E9F731978F01061B170BFC01A48024
:1040E000B5801982B8016A0D7B1DAE014F5F5F4F2D
:1040F0000E947D0CF70180819181A801B6018A0D93
:104100009B1D0E942906C7010F90DF91CF911F913F
:104110000F91FF90EF90DF90CF90BF90AF900895F8
:104120008AE293E00E94DC0380E593E00E940004B1
:104130008BE194E00C94B808EF920F931F93CF9308
:10414000DF93E80147FD02C034E001C034E1E42F11
:10415000440FFF0BF7FF03C0F195E195F109E32E42
:10416000022F2E2FAE010E945324CE01DF91CF915A
:104170001F910F91EF900895CF93DF9382309105B7
:1041800010F482E090E0E0914704F091480420E0D0
:1041900030E0C0E0D0E0309711F140815181481704
:1041A0005907C0F04817590761F48281938120971D
:1041B00019F09B838A832BC0909348048093470413
:1041C00026C02115310519F04217530718F49A013A
:1041D000BE01DF01EF010280F381E02DDCCF21156C
:1041E000310509F1281B390B2430310590F4129662
:1041F0008D919C9113976115710521F0FB019383BB
:10420000828304C09093480480934704FD01329652
:1042100044C0FD01E20FF31F8193919322503109B5
:104220002D933C933AC02091450430914604232BB2
:1042300041F4209102013091030130934604209310
:10424000450420910001309101012115310541F40F
:104250002DB73EB74091040150910501241B350B49
:10426000E0914504F0914604E217F307A0F42E1BF9
:104270003F0B2817390778F0AC014E5F5F4F2417CA
:10428000350748F04E0F5F1F509346044093450496
:104290008193919302C0E0E0F0E0CF01DF91CF91F4
:1042A00008950F931F93CF93DF93009709F48CC069
:1042B000FC01329713821282009147041091480446
:1042C0000115110581F420813181820F931F209106
:1042D0004504309146042817390779F5F0934604D0
:1042E000E093450471C0D80140E050E0AE17BF072D
:1042F00050F412962D913C911397AD012115310583
:1043000009F1D901F3CF9D01DA0133832283608162
:104310007181860F971F8217930769F4EC0128813A
:104320003981260F371F2E5F3F4F318320838A81CB
:104330009B8193838283452B29F4F0934804E09377
:10434000470442C01396FC93EE931297ED014991F6
:1043500059919E01240F351FE217F30771F48081F4
:104360009181840F951F029611969C938E93828162
:10437000938113969C938E931297E0E0F0E0D8011E
:1043800012968D919C911397009719F0F8018C016A
:10439000F6CF8D919C9198012E5F3F4F820F931F16
:1043A00020914504309146042817390769F4309765
:1043B00029F4109248041092470402C0138212821A
:1043C0001093460400934504DF91CF911F910F9104
:1043D0000895662777270C94E125FC018827992703
:1043E000E89421912032E9F3293010F02E30C8F3FF
:1043F0002B3241F02D3239F4689404C00E9412220D
:10440000820F911D219120532A30C0F31EF4909504
:1044100081959F4F0895FB01DC0105900D920020CE
:10442000E1F708957AE0979F902D879F802D910D59
:10443000112408950F931F93CF93DF93009731F4C6
:104440006115710519F480E090E03AC08B01EC0130
:104450006EE070E081E090E00E943724FC01892B3F
:1044600091F380E883830115110571F013870287AA
:1044700081E883838091490490914A04892B21F437
:10448000F0934A04E09349042097C9F0D187C0878C
:1044900083818260838380914B0490914C04892BAB
:1044A00071F4F0934C04E0934B0480914D0490918F
:1044B0004E04892B21F4F0934E04E0934D04CF0178
:1044C000DF91CF911F910F910895ACE0B0E0EBE642
:1044D000F2E20C941C2A7C016B018A01FC01178218
:1044E0001682838181FFBDC1CE0101964C01F70187
:1044F0009381F60193FD859193FF81916F0188234C
:1045000009F4ABC1853239F493FD859193FF819114
:104510006F01853229F4B70190E00E945428E7CF5B
:10452000512C312C20E02032A0F48B3269F030F491
:10453000803259F0833269F420612CC08D3239F019
:10454000803339F4216026C02260246023C02860B3
:1045500021C027FD27C030ED380F3A3078F426FF10
:1045600006C0FAE05F9E300D1124532E13C08AE07E
:10457000389E300D1124332E20620CC08E3221F46F
:1045800026FD6BC1206406C08C3611F4206802C081
:10459000883641F4F60193FD859193FF81916F0177
:1045A0008111C1CF982F9F7D9554933028F40C5FD3
:1045B0001F4FFFE3F9830DC0833631F0833771F06D
:1045C000833509F05BC022C0F801808189830E5FCA
:1045D0001F4F44244394512C540115C03801F2E07C
:1045E0006F0E711CF801A080B18026FF03C0652DFD
:1045F00070E002C06FEF7FEFC5012C870E94492851
:104600002C0183012C852F77222E17C03801F2E070
:104610006F0E711CF801A080B18026FF03C0652DCC
:1046200070E002C06FEF7FEFC5012C870E94372832
:104630002C012C852068222E830123FC1BC0832D96
:1046400090E048165906B0F4B70180E290E00E946D
:1046500054283A94F4CFF50127FC859127FE8191E7
:104660005F01B70190E00E94542831103A94F1E0C4
:104670004F1A51084114510471F7E5C0843611F006
:10468000893639F5F80127FF07C060817181828181
:1046900093810C5F1F4F08C060817181072E000C51
:1046A000880B990B0E5F1F4F2F76722E97FF09C054
:1046B00090958095709561957F4F8F4F9F4F2068A3
:1046C000722E2AE030E0A4010E948C28A82EA8189F
:1046D00044C0853729F42F7EB22E2AE030E025C071
:1046E000F22FF97FBF2E8F36C1F018F4883579F09C
:1046F000B4C0803719F0883721F0AFC02F2F206168
:10470000B22EB4FE0DC08B2D8460B82E09C024FFDC
:104710000AC09F2F9660B92E06C028E030E005C081
:1047200020E130E002C020E132E0F801B7FE07C02E
:1047300060817181828193810C5F1F4F06C060810F
:10474000718180E090E00E5F1F4FA4010E948C28D1
:10475000A82EA818FB2DFF777F2E76FE0BC0372DD5
:104760003E7FA51450F474FE0AC072FC08C0372DB9
:104770003E7E05C0BA2C372D03C0BA2C01C0B52C23
:1047800034FF0DC0FE01EA0DF11D8081803311F46C
:10479000397E09C032FF06C0B394B39404C0832F9E
:1047A000867809F0B39433FD13C030FF06C05A2C4D
:1047B000B31418F4530C5B18B32CB31468F4B7019A
:1047C00080E290E03C870E945428B3943C85F5CF6A
:1047D000B31410F43B1801C0312C34FF12C0B701E0
:1047E00080E390E03C870E9454283C8532FF17C04C
:1047F00031FD03C088E790E002C088E590E0B70192
:104800000CC0832F867859F031FF02C08BE201C0C3
:1048100080E237FD8DE2B70190E00E945428A51494
:1048200038F4B70180E390E00E9454285A94F7CFFF
:10483000AA94F401EA0DF11D8081B70190E00E9475
:104840005428A110F5CF332009F451CEB70180E2EE
:1048500090E00E9454283A94F6CFF7018681978120
:1048600002C08FEF9FEF2C96E2E10C94382A0F9351
:104870001F93CF93DF93869F8001879F100D969F94
:10488000100D1124C8010E94BC20EC01009729F0F2
:10489000A80160E070E00E944228CE01DF91CF9134
:1048A0001F910F9108954F925F926F927F929F9206
:1048B000AF92BF92CF92DF92EF92FF920F931F932E
:1048C000CF93DF93CDB7DEB729970FB6F894DEBF4D
:1048D0000FBECDBF6A01122FB02E2BE3201720F0A0
:1048E000FF24F394F00E02C0BCE3FB2E0F2D27E053
:1048F000AE014F5F5F4F0E943E27AC018981982F28
:104900009970913031F0E1FC06C0E0FE06C090E203
:1049100005C09DE203C09BE201C090E0EE2DE07176
:1049200083FF3CC0911102C083E001C084E0811785
:1049300018F4212F281B01C020E0E1110BC0F60163
:10494000822F30E2882319F031938150FBCFC20EC1
:10495000D11C20E0992329F0D6019C93F6013196D1
:104960006F01C6010396E2FE0AC03EE4D6013C9305
:1049700041E411964C93119712963C9306C03EE683
:10498000F601308341E641833283FC01322F40E25D
:10499000332309F442C041933150FACF82FF44C01F
:1049A000911102C083E001C084E0811718F4212F27
:1049B000281B01C020E0E1110BC0F601822F30E27C
:1049C000882319F031938150FBCFC20ED11C20E017
:1049D000992329F0D6019C93F60131966F01C60107
:1049E0000396E2FE0BC039E4D6013C933EE41196F7
:1049F0003C93119736E412963C9307C039E6F601D2
:104A000030833EE6318336E63283FC01322F40E2CA
:104A1000332319F041933150FBCFFC01E20FF11D1C
:104A200010828EEF9FEFB7C0F1E0911101C0F0E06E
:104A30006F2F70E01416150624F49A012F5F3F4F74
:104A400002C021E030E0260F371FBB2029F06B2D7C
:104A500070E06F5F7F4F02C060E070E0260F371F8D
:104A6000612F70E0261737071CF4121B212F01C09D
:104A700020E03E2D387159F4D601322F60E2332305
:104A800019F06D933150FBCFC20ED11C20E0FF23F3
:104A900031F0D6019C93B6016F5F7F4F6B01E1113E
:104AA0000BC0F601922F30E3992319F03193915006
:104AB000FBCFC20ED11C20E09F2D940F3A81782F9E
:104AC0007071A72E84FF03C0313309F49150191679
:104AD00024F4993018F098E001C091E0E42F852F7C
:104AE00057FF02C0E0E080E06E2F782FE0E0F0E0BA
:104AF000AEE29A2E3A01691A71082A01461A570A3B
:104B00000B2D10E01195019511096F3F8FEF78077C
:104B100029F4D6019C92C60101966C0146175707ED
:104B200084F0661677066CF47F01E40CF51CA1E0B6
:104B3000B0E0AC0FBD1FEA0EFB1ED7011196BC9072
:104B400002C090E3B92E615071093196C6010196F9
:104B50007C016017710724F0D601BC926C01D5CF9F
:104B60006417750741F4363320F4353321F4A1106E
:104B700002C081E3B82EF601B082F701822F90E2E5
:104B8000882319F091938150FBCFF701E20FF11DBB
:104B9000108280E090E029960FB6F894DEBF0FBE39
:104BA000CDBFDF91CF911F910F91FF90EF90DF90DC
:104BB000CF90BF90AF909F907F906F905F904F90FD
:104BC0000895A0E0B0E0E7EEF5E20C94202AEC01B5
:104BD0007B016115710519F0DB018D939C938E01AA
:104BE0000F5F1F4F7880872D90E00E941628892B39
:104BF00011F0E801F4CFBDE27B1205C00F5F1F4F3B
:104C00007980C1E008C0EBE27E1204C08E010E5F25
:104C10001F4F7980C0E06801F1E0CF1AD10843E06E
:104C200050E064EE70E0C6010E941F28892BF1F469
:104C3000680122E0C20ED11C45E050E06FED70E04B
:104C4000C6010E941F28892B21F4680187E0C80E45
:104C5000D11CE114F10419F0D701CD92DC92C111FD
:104C6000FFC060E070E080E89FE703C143E050E0F0
:104C70006CED70E0C6010E941F28892B51F4E114ED
:104C8000F10409F4F2C00E5F1F4FF7011183008396
:104C9000ECC0680160E070E0CB0100E010E0F601DC
:104CA000D0EDD70DDA3058F52C2F2260622E2C2F44
:104CB0002870C2FF05C0211128C00F5F1F4F25C0FB
:104CC000222311F001501109A5E0B0E09B01AC01D5
:104CD0000E94112A4B015C01880C991CAA1CBB1C68
:104CE000C501B4016D0F711D811D911D6839A9E9C0
:104CF0007A078A07A9E19A0740F0C66005C0DE3F3F
:104D000051F4C3FD44C0C8606C2EBFEFCB1ADB0A60
:104D10007080C62DC4CF2D2F2F7D2531C1F5408148
:104D20004D3211F4C06106C04B3221F0319621E0C2
:104D300030E006C03296D60111964C9122E030E068
:104D4000A0EDA40FAA3018F0E21BF30B20C040E046
:104D500050E04038BCE05B075CF49A01220F331F3F
:104D6000220F331F420F531F440F551F4A0F511D6F
:104D70003196DF0111972C91A0EDA20FAA3048F3D4
:104D8000C4FF03C0519541955109040F151FC1FF80
:104D900007C0E114F10421F03197D701ED93FC93A2
:104DA0000E94EF28C370C33019F06B017C0106C06C
:104DB0006B017C01F7FAF094F7F8F09420E030E012
:104DC000A901C701B6010E94EA28882309F445C059
:104DD00017FF06C0119501951109CBEFD0E002C075
:104DE000C3E1D1E05E01B8E1AB1AB1084601BE2DC6
:104DF000AF2D90E2E92EF12C0E151F0584F0FE0177
:104E00002591359145915491B4018B2F9A2F0E9491
:104E100050294B01B82FA92F0E191F09EDCF249748
:104E2000F594E794CA15DB0539F76401EB2EFA2EE9
:104E30008E2D880F8F2D881F8F3F49F020E030E0A6
:104E4000A901C701B6010E94EA28811106C082E2C9
:104E500090E09093500480934F04C701B60109C0BD
:104E600060E070E080E89FEF04C060E070E080ECFC
:104E70009FE7CDB7DEB7EEE00C943C2A283008F06F
:104E800027E03327DA01990F311D87FD91600096E5
:104E90006105710539F432602E5F3D9330E32A9548
:104EA000E1F708959F3F30F080387105610509F002
:104EB0003C5F3C5F3D93913008F08068911DDF932B
:104EC000CF931F930F93FF92EF92192F987F969590
:104ED000E92F96959695E90FFF27EF58FE4F9927F2
:104EE0003327EE24FF24A701E701059008940794D7
:104EF00028F4360FE71EF81E491F511D660F771F55
:104F0000881F991F0694A1F70590079428F4E70ECF
:104F1000F81E491F561FC11D770F881F991F661F56
:104F20000694A1F70590079428F4F80E491F561F20
:104F3000C71FD11D880F991F661F771F0694A1F701
:104F40000590079420F4490F561FC71FD81F990FCB
:104F5000661F771F881F0694A9F784911095177014
:104F600041F0D695C79557954795F794E7941A95CC
:104F7000C1F7E7E1F1E068941590159135916591DD
:104F8000959105907FE27395E118F10A430B560B5A
:104F9000C90BD009C0F7E10CF11E431F561FC91FF2
:104FA000D01D7EF4703311F48A95E6CFE894015059
:104FB00030F0080F0AF40027021708F4202F239579
:104FC000022F7A3328F079E37D932A95E9F710C010
:104FD0007D932A9589F60694979567953795179549
:104FE0001794E118F10A430B560BC90BD00998F03E
:104FF00023957E9173957A3308F070E37C932013A8
:10500000B8F77E9170617D9330F0839571E37D9365
:1050100070E32A95E1F71124EF90FF900F911F9113
:10502000CF91DF91992787FD9095089591110C9468
:10503000BD29803219F089508550C8F70895FB01C9
:10504000DC014150504088F08D9181341CF08B354B
:105050000CF4805E659161341CF06B350CF4605E7D
:10506000861B611171F3990B0895881BFCCFFC011D
:105070000590615070400110D8F7809590958E0F83
:105080009F1F0895DC0101C06D9341505040E0F72F
:105090000895FC016150704001900110D8F780958F
:1050A00090958E0F9F1F08950F931F93CF93DF93BB
:1050B000FB01238121FD03C08FEF9FEF28C022FF5A
:1050C00016C046815781248135814217530744F425
:1050D000A081B1819D012F5F3F4F318320838C934D
:1050E000268137812F5F3F4F3783268310C0EB0126
:1050F000092F182F0084F185E02D0995892BE1F601
:105100008E819F8101969F838E83812F902FDF91C7
:10511000CF911F910F910895FA01AA27283051F1DC
:10512000203181F1E8946F936E7F6E5F7F4F8F4FD8
:105130009F4FAF4FB1E03ED0B4E03CD0670F781F37
:10514000891F9A1FA11D680F791F8A1F911DA11D1C
:105150006A0F711D811D911DA11D20D009F4689455
:105160003F912AE0269F11243019305D3193DEF6FD
:10517000CF010895462F4770405D4193B3E00FD0B3
:10518000C9F7F6CF462F4F70405D4A3318F0495D9E
:1051900031FD4052419302D0A9F7EACFB4E0A69581
:1051A0009795879577956795BA95C9F700976105A3
:1051B000710508959B01AC010A2E069457954795F9
:1051C00037952795BA95C9F7620F731F841F951FEE
:1051D000A01D08950E942C2908F481E00895E89408
:1051E00009C097FB3EF490958095709561957F4F2F
:1051F0008F4F9F4F9923A9F0F92F96E9BB279395DD
:10520000F695879577956795B795F111F8CFFAF4EC
:10521000BB0F11F460FF1BC06F5F7F4F8F4F9F4F1D
:1052200016C0882311F096E911C0772321F09EE87B
:10523000872F762F05C0662371F096E8862F70E0E1
:1052400060E02AF09A95660F771F881FDAF7880FBB
:105250009695879597F90895990F0008550FAA0B11
:10526000E0E8FEEF16161706E807F907C0F0121679
:105270001306E407F50798F0621B730B840B950B7C
:1052800039F40A2661F0232B242B252B21F40895D1
:105290000A2609F4A140A6958FEF811D811D08956E
:1052A0000E9463290C94D7290E94C92938F00E94D2
:1052B000D02920F0952311F00C94C0290C94C62914
:1052C00011240C940B2A0E94E82970F3959FC1F3D6
:1052D000950F50E0551F629FF001729FBB27F00DA4
:1052E000B11D639FAA27F00DB11DAA1F649F6627F9
:1052F000B00DA11D661F829F2227B00DA11D621F48
:10530000739FB00DA11D621F839FA00D611D221F01
:10531000749F3327A00D611D231F849F600D211DE5
:10532000822F762F6A2F11249F5750409AF0F1F068
:1053300088234AF0EE0FFF1FBB1F661F771F881FD1
:1053400091505040A9F79E3F510580F00C94C02920
:105350000C940B2A5F3FE4F3983ED4F3869577953F
:105360006795B795F795E7959F5FC1F7FE2B880F77
:10537000911D9695879597F90895992788270895FF
:1053800097F99F6780E870E060E008959FEF80ECF8
:10539000089500240A94161617061806090608959B
:1053A00000240A9412161306140605060895092E01
:1053B0000394000C11F4882352F0BB0F40F4BF2B70
:1053C00011F460FF04C06F5F7F4F8F4F9F4F0895B0
:1053D00057FD9058440F551F59F05F3F71F04795A6
:1053E000880F97FB991F61F09F3F79F0879508958B
:1053F000121613061406551FF2CF4695F1DF08C0AA
:10540000161617061806991FF1CF869571056105C6
:1054100008940895E894BB2766277727CB0197F96E
:1054200008950E94532AA59F900DB49F900DA49FAC
:10543000800D911D112408952F923F924F925F92FB
:105440006F927F928F929F92AF92BF92CF92DF9294
:10545000EF92FF920F931F93CF93DF93CDB7DEB7F9
:10546000CA1BDB0B0FB6F894DEBF0FBECDBF09948D
:105470002A88398848885F846E847D848C849B84E4
:10548000AA84B984C884DF80EE80FD800C811B81F2
:10549000AA81B981CE0FD11D0FB6F894DEBF0FBE21
:1054A000CDBFED010895A29FB001B39FC001A39F9E
:1054B000700D811D1124911DB29F700D811D11244D
:1054C000911D08950E94762A0C94D7290E94D02914
:1054D00058F00E94C92940F029F45F3F29F00C944C
:1054E000C02951110C940B2A0C94C6290E94E8295A
:1054F00068F39923B1F3552391F3951B550BBB2703
:10550000AA2762177307840738F09F5F5F4F220F47
:10551000331F441FAA1FA9F335D00E2E3AF0E0E83E
:1055200032D091505040E695001CCAF72BD0FE2F88
:1055300029D0660F771F881FBB1F2617370748071C
:10554000AB07B0E809F0BB0B802DBF01FF279358D4
:105550005F4F3AF09E3F510578F00C94C0290C94AF
:105560000B2A5F3FE4F3983ED4F3869577956795D1
:10557000B795F7959F5FC9F7880F911D9695879509
:1055800097F90895E1E0660F771F881FBB1F621728
:1055900073078407BA0720F0621B730B840BBA0BE6
:1055A000EE1F88F7E095089597FB072E16F40094F8
:1055B00007D077FD09D00E94102B07FC05D03EF4E0
:1055C000909581959F4F0895709561957F4F0895AF
:1055D000A1E21A2EAA1BBB1BFD010DC0AA1FBB1FF7
:1055E000EE1FFF1FA217B307E407F50720F0A21B69
:1055F000B30BE40BF50B661F771F881F991F1A94D6
:1056000069F760957095809590959B01AC01BD01FF
:10561000CF010895EE0FFF1F0590F491E02D09943E
:10562000AA1BBB1B51E107C0AA1FBB1FA617B707C8
:1056300010F0A61BB70B881F991F5A95A9F78095E4
:105640009095BC01CD010895A0E0B0E0EAE2FBE254
:105650000C94202AEC01009721F4CB010E94BC207D
:10566000B8C0FC01E60FF71F9C0122503109E21778
:10567000F30708F4ACC0D9010D911C9111970617DE
:105680001707B0F00530110508F49FC0C801049752
:105690008617970708F499C002501109061B170BCB
:1056A000019311936D937C93CF010E9451218DC082
:1056B0005B01A01AB10A4C01800E911EA091470413
:1056C000B091480440E050E0E12CF12C109709F42F
:1056D0004AC0A815B905D1F56D907C90119763016A
:1056E00082E0C80ED11CCA14DB0480F1A3014A1960
:1056F0005B096A0182E0C80ED11C1296BC90129719
:105700001396AC91B5E0CB16D10440F0B282A383DE
:1057100051834083D9016D937C930AC00E5F1F4F64
:10572000C301800F911FF90191838083EB2DFA2F24
:10573000E114F10431F0D7011396FC93EE93129724
:1057400044C0F0934804E09347043FC08D919C917E
:1057500011974817590708F4AC017D0112960D9076
:10576000BC91A02DB3CF809145049091460488153B
:105770009905E1F446175707C8F48091000190910C
:105780000101009741F48DB79EB7409104015091FB
:105790000501841B950BE817F907C8F4F09346043C
:1057A000E0934504F901718360830FC0CB010E942F
:1057B000BC207C01009759F0A801BE010E94F32B88
:1057C000CE010E945121C70104C0CE0102C080E079
:1057D00090E0CDB7DEB7EEE00C943C2A81E090E09B
:1057E000F8940C945F2CFB01DC0102C001900D9237
:1057F00041505040D8F70895FB01DC018D91019094
:1058000080190110D9F3990B0895FB01DC01019077
:105810000D920020E1F70895AEE0B0E0E2E1FCE295
:105820000C942A2A0D891E898F89988D26E02C8355
:105830001A83098397FF02C080E090E801979E8356
:105840008D83AE01455E5F4F698D7A8DCE010196E5
:105850000E9465224D815E8157FD0AC02F813885E7
:10586000421753070CF49A01F801E20FF31F10825C
:105870002E96E4E00C94462AAEE0B0E0E2E4FCE2CE
:105880000C942A2A0D891E8986E08C831A83098349
:105890008FEF9FE79E838D83AE01475E5F4F6F89D9
:1058A000788DCE0101960E9465222F813885F801FE
:1058B000E20FF31F10822E96E4E00C94462A12E0C9
:1058C000CAECD2E004C0FE010E940A2B2196CB3C18
:0858D000D107C9F7F894FFCFDE
:1058D80000005104800000000000450CAF0792064C
:1058E800FD0700000000440CAD079006B10700005A
:1058F800000000000000530E530E000000006D0B66
:10590800A9078E068A0600000000E210590E000062
:1059180000008906A507180000000000000000002C
:10592800E8FFE8FF0000000000001400000000008D
:1059380000000000ECFFECFF000000000000000089
:105948000000DF0D4C0D770D260EA80D860D9A0D63
:10595800060000000000DF03E103FAFFFAFF000081
:10596800E003E30318000000000000041704E8FF48
:10597800E8FF00000D0421049A014C015601A4011E
:10598800000000004204DD03A407A1079E079B074F
:1059980098070F070B070807F206120796069406E2
:1059A8000200000000002D042F04FEFFFEFF00008F
:1059B8002E0431040000000057043B0400000000DE
:1059C80043042B04A407A1079E079B0798078C078D
:1059D80046072D071407120765084408140000003D
:1059E8000000B808CF08ECFFECFF0000C508D90894
:1059F800120260016A011C020000000000000000A1
:105A0800530E0000000000000000530E00000000CC
:105A1800E110550E0000000066115B0E000000004A
:105A2800720AA707000000004B034C0DD8034A0375
:105A38009F03B603320300000000430CAB070000CD
:105A48000000B4115F0E00000000B3115D0E0000ED
:105A58000000DC030F13DB036F131713FEFF0000B6
:105A68000D131113F016FCFF00000E1314136C1322
:105A78000000000000000000530E00000000520E5D
:105A8800570E4143520041542B2573000D0A004123
:105A9800434B004856310020006B560053523100EA
:105AA80048563200535232004241540025640041A6
:105AB800543825643D2825642C25642C2573290039
:00000001FF
