:100000000C940C010C9434010C9434010C943401C4
:100010000C9434010C9434010C9434010C9434018C
:100020000C9434010C9434010C9434010C9434017C
:100030000C9434010C9434010C9434010C9434016C
:100040000C9496100C9434010C9479030C94530383
:100050000C9434010C9434010C9434010C9434014C
:100060000C9434010C9434014E414E494E4954597C
:10007000494E46CDCCCC3D0AD7233C17B7D1387773
:10008000CC2B329595E6241FB14F0A000020410089
:1000900000C84200401C4620BCBE4CCA1B0E5AAED3
:1000A000C59D7400407A10F35A00A0724E180900E2
:1000B00010A5D4E80000E87648170000E40B5402CD
:1000C0000000CA9A3B000000E1F505000080969808
:1000D00000000040420F000000A086010000001058
:1000E0002700000000E8030000000064000000009A
:1000F000000A00000000000100000000002C76D87B
:1001000088DC674F0823DFC1DFAE59E1B1B796E560
:10011000E3E453C63AE651997696E8E6C28426EBC4
:10012000898C9B62ED407C6FFCEFBC9C9F40F2BAD7
:10013000A56FA5F490055A2AF75C936B6CF9676D6F
:10014000C11BFCE0E40D47FEF520E6B500D0ED90C4
:100150002E0300943577050080841E080000204E91
:100160000A000000C80C333333330F986E1283112A
:1001700041EF8D2114893BE65516CFFEE6DB18D101
:10018000844B381BF77C1D901DA4BBE424203284D3
:10019000725E228100C9F124ECA1E53D2700010235
:1001A0000304051112131415160A0B0C0D0E0F5231
:1001B000656365697665643A200054696D65206FF2
:1001C00075740000000000250028002B00000000CE
:1001D00000240027002A0004040404040404040288
:1001E00002020202020303030303030102040810D4
:1001F00020408001020408102001020408102000A1
:1002000000000800020100000304070000000000D5
:10021000000000000018581A11241FBECFEFD8E0CC
:10022000DEBFCDBF13E0A0E0B1E0ECE0FAE402C035
:1002300005900D92A230B107D9F724E0A2E0B3E017
:1002400001C01D92A53AB207E1F711E0CBE0D1E081
:1002500004C02197FE010E94BD24CA30D107C9F70E
:100260000E94E0100C94F9240C9400000E94C32416
:10027000CF92DF92EF92FF920F931F93CF93DF9372
:100280006C017A018B01C0E0D0E0CE15DF0589F06A
:10029000D8016D918D01D601ED91FC910190F08115
:1002A000E02DC6010995892B11F47E0102C021962B
:1002B000ECCFC701DF91CF911F910F91FF90EF908D
:1002C000DF90CF900895089580E090E00895FC01BC
:1002D000538D448D252F30E0842F90E0821B930BAB
:1002E000541710F0CF96089501970895FC01918D51
:1002F000828D981761F0828DDF01A80FB11D5D9688
:100300008C91928D9F5F9F73928F90E008958FEFF5
:100310009FEF0895FC01918D828D981731F0828DA9
:10032000E80FF11D858D90E008958FEF9FEF089500
:10033000FC01918D228D892F90E0805C9F4F821B64
:1003400091098F73992708958EE793E00E94980191
:1003500021E0892B09F420E0822F0895FC01848D8F
:10036000DF01A80FB11DA35ABF4F2C91848D90E0DF
:1003700001968F739927848FA689B7892C93A089BA
:10038000B1898C9180648C93938D848D981306C071
:100390000288F389E02D80818F7D80830895EF921C
:1003A000FF920F931F93CF93DF93EC0181E0888F2F
:1003B0009B8D8C8D981305C0E889F989808185FD16
:1003C00024C0F62E0B8D10E00F5F1F4F0F73112707
:1003D000E02E8C8DE8120CC00FB607FCFACFE8892E
:1003E000F989808185FFF5CFCE010E94AE01F1CF62
:1003F0008B8DFE01E80FF11DE35AFF4FF0820B8F4A
:10040000EA89FB898081806207C0EE89FF89608369
:10041000E889F98980818064808381E090E0DF91C0
:10042000CF911F910F91FF90EF900895CF93DF939D
:10043000EC01888D8823C9F0EA89FB89808185FDDC
:1004400005C0A889B9898C9186FD0FC00FB607FC3D
:10045000F5CF808185FFF2CFA889B9898C9185FF7E
:10046000EDCFCE010E94AE01E7CFDF91CF9108958D
:1004700080E090E0892B29F00E94A40181110C9466
:1004800000000895089508950895FC019285915003
:1004900081E0923008F080E00895DC011A962C91FA
:1004A000261759F0FC0162870190F081E02D068843
:1004B000F789E02D099581E0089580E0089503967D
:1004C00008950895CF93DF93EC010E94210EFC0163
:1004D00011860E94050D61E085E00E948E0F61E0AB
:1004E00087E00E948E0F61E086E00E948E0F0E94DE
:1004F0001F106D877E878F87988B82E0DF91CF9169
:1005000008950F931F93CF93DF931F92CDB7DEB75C
:100510008C01AE014F5F5F4F64EA72E00E94710A86
:10052000C8010F90DF91CF911F910F9108950F9304
:100530001F93CF93DF931F92CDB7DEB78C01AE012F
:100540004F5F5F4F68EA72E00E94710AC8010F9026
:10055000DF91CF911F910F910895CF93DF93EC011D
:100560008AE591E09983888380910703909108033D
:10057000009739F0DC01ED91FC910280F381E02DD0
:1005800009958A819B81DF91CF910C94451BCF9374
:10059000DF93EC010E94AD02CE01DF91CF910C946C
:1005A000451B0C94451B0C94451B0C94451BAF92AA
:1005B000BF92CF92DF92EF92FF920F931F93CF9350
:1005C000DF93FC01248135816217730708F56B0105
:1005D000EC0187E0869F5001879FB00C11248B01AE
:1005E000E12CF12C8C819D810817190778F4C70143
:1005F0008A0D9B1D28813981820F931F0E94BE099D
:100600000F5F1F4FF7E0EF0EF11CECCFDD82CC82C5
:10061000DF91CF911F910F91FF90EF90DF90CF90DE
:10062000BF90AF900895DC01ED91FC910190F081B5
:10063000E02D0994EF92FF920F931F93CF93DF93D6
:100640008C017B01C0E0D0E0F701EC0FFD1F64914D
:10065000662361F0D801ED91FC910190F081E02DCD
:10066000C8010995892B11F02196EECFCE01DF91BB
:10067000CF911F910F91FF90EF9008956115710533
:1006800079F0FB0101900020E9F73197AF01461B9B
:10069000570BDC01ED91FC910280F381E02D099470
:1006A00080E090E008951F920F920FB60F921124F0
:1006B0002F933F934F935F936F937F938F939F936A
:1006C000AF93BF93EF93FF938EE793E00E94AE0149
:1006D000FF91EF91BF91AF919F918F917F916F911A
:1006E0005F914F913F912F910F900FBE0F901F90F0
:1006F00018951F920F920FB60F9211242F938F937C
:100700009F93EF93FF93E0918E03F0918F0380818D
:10071000E0919403F091950382FD12C09081809145
:1007200097038F5F8F7320919803821751F0E091A8
:100730009703F0E0E258FC4F958F8093970301C038
:100740008081FF91EF919F918F912F910F900FBE1C
:100750000F901F9018952AE031E0FC01318320832F
:1007600003960C94DE09CF93DF93EC010E94AB0358
:10077000CE01DF91CF910C94451BCF93DF938091F5
:10078000070390910803892BC9F489E090E00E9447
:10079000B01AEC018AE591E09983888388E090E0C3
:1007A0009D838C831F821E8280E190E00E94B01A9C
:1007B0009B838A83D0930803C09307038091070328
:1007C00090910803DF91CF910895EF92FF920F93DC
:1007D0001F93CF93DF93EC01E881F9810684F785BD
:1007E000E02D63E009950E94BD03DC0112968D9116
:1007F0009C91139716962D913C911797A901440F40
:10080000551F480F591FBC01FB016417750741F0C4
:100810006E5F7F4F008111810C171D07A9F702C081
:10082000E0E0F0E0CD2B31F1E81BF90BAF0155957D
:100830004795C9010197BF016E5F7F4F4817590760
:1008400090F41296ED90FC9013974F5F5F4F8701E5
:10085000060F171FE80108811981EE0DFF1D118396
:100860000083FB01E8CF8217930720F417969C932F
:100870008E931697DF91CF911F910F91FF90EF907C
:1008800008950F931F93CF93DF93EC010E941F10E5
:100890000D851E852F853889DC01CB01801B910BCE
:1008A000A20BB30B853F9140A105B105B8F060E004
:1008B00085E00E948E0F60E087E00E948E0F60E06E
:1008C00086E00E948E0F0E94570E0E942B10CE01D0
:1008D000DF91CF911F910F910C94E503DF91CF91A0
:1008E0001F910F9108954F925F926F927F928F9216
:1008F0009F92AF92BF92CF92DF92EF92FF920F93AF
:100900001F93CF93DF931F92CDB7DEB77C012B01EE
:10091000FC01848195816C01FFEFCF1ADF0A8C15F1
:100920009D0508F070C0F701228133812C153D052B
:10093000F0F5099628173907D0F5808091809383C8
:10094000828327E0AC01249FC001259F900D1124D4
:100950000E94B01AF701918380835401612C712C9D
:10096000F7018481958168167906F0F4F7012081FA
:100970003181C50188199909820F931F009751F0A1
:100980008E010F5F1F4F2FEF3FEF40E050E0B501AA
:100990000E94250AC5010E94BE09FFEF6F1A7F0A57
:1009A00027E0A20EB11CDCCFC4010E94451BF70159
:1009B000A480B58087E08A9D30018B9D700C112446
:1009C000812C912CF701AC14BD04D0F4208131812D
:1009D000C401860D971D820F931F009751F08E0161
:1009E0000F5F1F4F2FEF3FEF40E050E0B2010E943A
:1009F000250AFFEFAF1ABF0A27E0820E911CE2CF53
:100A0000D582C48204C0B601C7010E94D7020F90EC
:100A1000DF91CF911F910F91FF90EF90DF90CF90DA
:100A2000BF90AF909F908F907F906F905F904F900E
:100A30000895DF92EF92FF920F931F93CF93DF936E
:100A40008B0103967C0160E070E00E94D702F80100
:100A5000C081D18187E0D82EF80184819581D89E0C
:100A60009001D99E300D112480819181280F391F6A
:100A7000C217D30731F0BE01C7010E947304279645
:100A8000EBCFDF91CF911F910F91FF90EF90DF900F
:100A90000895CF92DF92EF92FF920F931F93CF931F
:100AA000DF931F92CDB7DEB78C01FB01E480F580A8
:100AB000E416F50610F40E94C324E41AF50A2E1574
:100AC0003F0508F47901C080D180C40ED51E88E0AE
:100AD00090E0F80193838283158214820E94B01AF9
:100AE000F80191838083FFEFEF16FF0621F3F601F3
:100AF0008081181684F41982AE014F5F5F4FB701F1
:100B0000C8010E948409F80144815581B6018081A1
:100B100091810E94020AC8010F90DF91CF911F912D
:100B20000F91FF90EF90DF90CF9008950895CF93AD
:100B3000DF936115710509F45FC0FB01C081CF3FF0
:100B400011F461E003C0C11104C060E0FC018281C6
:100B50004FC0FC01D2818D2F0E94E40EED2FF0E0FA
:100B6000E150FE4FE491E33009F148F4E130C9F07F
:100B7000E230C1F584B5806284BDC8BD3DC0E730B8
:100B800009F1E83039F1E43069F580918000806244
:100B9000809380008C2F90E090938B0080938A004C
:100BA0002BC084B5806884BDC7BD26C080918000FD
:100BB0008068809380008C2F90E0909389008093D0
:100BC00088001AC08091B00080688093B000C09304
:100BD000B30012C08091B00080628093B000C093D7
:100BE000B4000AC0C03810F460E001C061E08D2F8D
:100BF000DF91CF910C948E0FDF91CF9108958F925A
:100C00009F92AF92BF92CF92DF92EF92FF920F939B
:100C10001F93CF93DF93FC012189223009F065C037
:100C2000EC010E941F102D853E856901E12CF12CFD
:100C300009851A852B853C8546015701801A910A42
:100C4000A20AB30ADC01CB01880D991DAA1DBB1DA8
:100C5000EF85F8894181528160E070E08417950743
:100C6000A607B70708F441C01E861D860E941F1004
:100C700069877A878B879C87EF85F8896381748180
:100C80006115710579F48F819885019698878F8316
:100C90002D813E816B817C812115310519F08217F0
:100CA00093078CF4788B6F87CE01DF91CF911F91E2
:100CB0000F91FF90EF90DF90CF90BF90AF909F90FB
:100CC0008F900C949705198A788B6F871E861D86E6
:100CD00060E08A810E948E0F2F8138858D819E81F0
:100CE0002817390711F418861F82DF91CF911F91C1
:100CF0000F91FF90EF90DF90CF90BF90AF909F90BB
:100D00008F9008950895CF92DF92EF92FF92CF9344
:100D1000DF938EE793E00E943E03D82F0E941F10BE
:100D20006B017C01C0E08EE793E00E947601853480
:100D3000910589F0C1110FC00E941F10AB01BC01C9
:100D40004C195D096E097F09C1E048325105610502
:100D5000710548F7E7CF61E070E080E090E00E9425
:100D6000E50FCC2361F06AEB71E08EE793E00E941F
:100D70001A0369E972E08EE793E00E943E0381E086
:100D8000D11101C080E0DF91CF91FF90EF90DF9013
:100D9000CF9008957F928F929F92AF92BF92CF9201
:100DA000DF92EF92FF920F931F93CF93DF93CDB714
:100DB000DEB75C01CB01142F952E822E732ECDB69B
:100DC000DEB6DB011496ED91FC9115973D962DB79B
:100DD0003EB72E1B3F0B0FB6F8943EBF0FBE2DBF84
:100DE000ADB7BEB711967D010031D0F40E94C309A2
:100DF0009F938F937F928F929F921F938AEA92E0A4
:100E00009F938F93FF92EF920E94D6242DB73EB707
:100E1000265F3F4F0FB6F8943EBF0FBE2DBF18C0E0
:100E20000E94C3099F938F937F928F929F921F93EB
:100E30008AEB92E09F938F93FF92EF920E94D624C9
:100E40008DB79EB70A960FB6F8949EBF0FBE8DBFA2
:100E5000B701C5010E9483060FB6F894DEBE0FBE2F
:100E6000CDBEDF91CF911F910F91FF90EF90DF905A
:100E7000CF90BF90AF909F908F907F900895CF922A
:100E8000DF92EF92FF920F931F93CF93DF93CDB733
:100E9000DEB765970FB6F894DEBF0FBECDBF6C010D
:100EA0007E018FE0E80EF11C86E0F70111928A9531
:100EB000E9F7F6016581768187819085870122E0D7
:100EC00042E00E94901AAE01485F5F4FB701CE0129
:100ED00001960E94710ACE0101960E94280F0A5FB6
:100EE0001F4F2FEF3FEF40E050E0BE016F5F7F4F9D
:100EF000CE0108960E94250A00E123E030E040E0A0
:100F000050E0BE01685F7F4FF601828193810E94AD
:100F1000CA06CE0108960E94BE09CE0101960E9423
:100F2000BE0965960FB6F894DEBF0FBECDBFDF9148
:100F3000CF911F910F91FF90EF90DF90CF90089588
:100F4000CF93DF938091050390910603892B79F469
:100F500082E090E00E94B01AEC018AE491E099836B
:100F600088830E94BC0ED0930603C0930503809132
:100F7000050390910603DF91CF910895CF93DF93FE
:100F8000C0914C03D0914D03E881F9810084F18533
:100F9000E02DCE010995892BB9F3E881F98102840E
:100FA000F385E02DCE01DF91CF9109941F93CF936C
:100FB000DF93182FC0914C03D0914D038A3041F438
:100FC000E881F9810190F081E02D6DE0CE01099575
:100FD000E881F9810190F081E02D612FCE01099522
:100FE00021E030E0019711F420E030E0C901DF9109
:100FF000CF911F91089508950C94451B0F931F9353
:10100000CF93DF93EC01CB01088119817B836A8345
:101010000E94B01A9983888320E030E08C819D8102
:101020002817390770F4E881F981E20FF31F309730
:1010300029F0D801A20FB31F8C9180832F5F3F4FFF
:10104000EDCFC801DF91CF911F910F910C94451BFB
:101050000F931F93CF93DF93FC0104811581FB0154
:10106000C481D581AE010C171D0708F4A801FB014E
:1010700060817181FC01808191810E94C824009768
:1010800069F481E090E0C017D10740F00C171D070C
:1010900010F080E090E0919581959109DF91CF91DA
:1010A0001F910F910895FB0120813181FC01318353
:1010B0002083FB0142815381F901369720813181E0
:1010C000FC01E20FF31F5183408308950895FC0152
:1010D00020813181828193812817390719F0822F6D
:1010E0000C948E0F0895CF93DF93EC019CB59F7DF8
:1010F0009CBD9CB5937F9CBD9CB59C7F9CBD9DB5C4
:1011000091609DBD8A810E948E0F8C899D89DF919F
:10111000CF910C94DA0F61E00C94730860E00C94AA
:1011200073088EBD00000DB407FEFDCF8EB5089587
:101130001F93CF93DF93EC010E948E0881EE0E94F3
:101140009108182FCE010E948B08812FDF91CF913B
:101150001F910895EF92FF921F93CF93DF9300D0DA
:10116000CDB7DEB77C014A8369830E948E0869810E
:10117000862F8F7180620E949108182F4A81842FD8
:101180000E949108C7010E948B08812F0F900F9039
:10119000DF91CF911F91FF90EF900895CF92DF9252
:1011A000EF92FF920F931F93CF93DF9300D01F9284
:1011B000CDB7DEB77C01142F2A835B8369830E943D
:1011C0008E086981862F8F7180620E949108082F96
:1011D000C12E5B81D52E2A81120F1C1531F0F6012C
:1011E00081916F010E949108F8CFC7010E948B087E
:1011F000802F0F900F900F90DF91CF911F910F9143
:10120000FF90EF90DF90CF900895EF92FF921F93A1
:10121000CF93DF931F92CDB7DEB77C0169830E9425
:101220008E086981862F8F710E9491088FEF0E942E
:101230009108182FC7010E948B08812F0F90DF9112
:10124000CF911F91FF90EF900895CF93DF93EC0122
:1012500060E00E94050981FD0EC0482F426060E0F9
:10126000CE010E94AA0865E070E080E090E0DF9186
:10127000CF910C94E50FDF91CF910895CF93DF9339
:10128000EC010E94250960E0CE010E940509482F6B
:10129000416060E0CE010E94AA0840E767E0CE010D
:1012A0000E94AA0861E0CE010E9467088985882310
:1012B00049F02E85AE01475F5F4F6AE0CE010E9484
:1012C000CE0814C062E0CE010E940509EDE9F1E00C
:1012D000E49121E030E001C0220FEA95EAF7209581
:1012E000422F482362E0CE010E94AA086DE1CE01A0
:1012F0000E94050981FF05C0CE01DF91CF910C94BA
:101300009808DF91CF910895EF92FF920F931F936A
:10131000CF93DF93EC018C819D818617970710F5A1
:101320007A018B018A819B818617970740F4685F59
:101330007F4F8617970718F4CE010E94FE078C8115
:101340009D818017910758F4E881F981E80FF91F12
:10135000309719F0D7012C9120830196F2CF1D838D
:101360000C8305C06817790710F47D836C83DF91C7
:10137000CF911F910F91FF90EF900895FC01808114
:1013800091810C94451BCF93DF93EC016C817D819F
:101390006F5F7F4F8A819B818617970718F4CE0174
:1013A0000E94FE07E881F9818C819D81E80FF91F79
:1013B000108288819981DF91CF910895EF92FF92F9
:1013C0000F931F93CF93DF937C0100E010E0C0E008
:1013D000D0E0F7012481358180819181C217D30744
:1013E00040F4800F911F0E94BE092196095F1F4F94
:1013F000F0CFDF91CF911F910F91FF90EF900C9460
:10140000451B0895CF92DF92EF92FF920F931F93A7
:10141000FB01DC0100E010E098016A01E12CF12CF5
:101420000C151D052E053F0538F461916D930F5F76
:101430001F4F2F4F3F4FF4CF840F951F1F910F91D8
:10144000FF90EF90DF90CF900895AF92BF92CF9230
:10145000DF92EF92FF920F931F93CF93DF931F9230
:10146000CDB7DEB78C016B017A01590188E090E0BD
:10147000F80193838283158214820E94B01AF801C6
:1014800091838083F601848195818E159F0510F4E8
:101490000E94C3241982BC016E197F09A616B706E3
:1014A00008F4B501AE014F5F5F4FC8010E94840987
:1014B000F80144815581F601608171816E0D7F1DB7
:1014C000F801808191810E94020A0F90DF91CF91F3
:1014D0001F910F91FF90EF90DF90CF90BF90AF9052
:1014E0000895CF92DF92EF92FF920F931F93CF93C5
:1014F000DF931F92CDB7DEB77C016B0188E090E0EF
:10150000F70193838283158214820E94B01AF70137
:1015100091838083C114D104B9F0F60101900020B9
:10152000E9F731978F010C191D091982AE014F5F40
:101530005F4FB801C7010E948409A801B601F701F5
:10154000808191810E94020A0F90DF91CF911F91BB
:101550000F91FF90EF90DF90CF9008950895089538
:10156000CB0108957F928F929F92AF92BF92CF92BC
:10157000DF92EF92FF920F931F93CF93DF93EC01D3
:1015800049015A018B01C12CD12C7601C814D90410
:10159000EA04FB0484F5F80171908F018F8580FFC8
:1015A0000BC0E881F9810084F185E02D20E144E061
:1015B00060E070E0CE010995EB85FC858D859E8508
:1015C000E817F90738F470828B859C8501969C8713
:1015D0008B870BC0E881F981672D70E0028CF38D59
:1015E000E02DCE010995019649F02FEFC21AD20ADB
:1015F000E20AF20ACBCFB401C50102C0B601C701AD
:10160000DF91CF911F910F91FF90EF90DF90CF90DE
:10161000BF90AF909F908F907F900895CF93DF936E
:10162000EC01E881F9810288F389E02D09958F3F6B
:101630002FEF920731F02D813E812F5F3F4F3E8388
:101640002D83DF91CF9108958FEF9FEF089560E094
:1016500070E0CB01089580E090E00895CB010895FB
:10166000CF93DF93EC0188899989DC01ED91FC919E
:101670000084F185E02D0995892BA9F38889998942
:10168000DC01ED91FC910284F385E02DDF91CF9197
:101690000994CF93DF93EC0188899989DC01ED915E
:1016A000FC910084F185E02D0995892BA9F38889A7
:1016B0009989DC01ED91FC910484F585E02DDF91A1
:1016C000CF910994AF92BF92CF92DF92EF92FF92A7
:1016D0000F931F93CF93DF9300D000D0CDB7DEB729
:1016E0008C015B01C12CD12C7601F8018089918994
:1016F000DC01ED91FC910284F385E02D29833A838E
:101700004B835C83099529813A814B815C818F3FB2
:1017100071F0C216D306E406F5064CF4D5018D939C
:101720005D01BFEFCB1ADB0AEB0AFB0ADECFC70174
:10173000B6010F900F900F900F90DF91CF911F91F6
:101740000F91FF90EF90DF90CF90BF90AF900895F2
:10175000DC0150968D919C915197DC01ED91FC91AB
:101760000084F185E02D099480E090E0089580E008
:1017700090E0089580E090E0089580E090E0089582
:1017800008950C94451B0C94451B0C94451B0C941C
:10179000451B089508950C94451BDC01ED91FC91C7
:1017A000369720813181820F931F0C94CB0BFB0164
:1017B00020813181FC0131832083FB0142815381EF
:1017C000F901369720813181FC01E20FF31F51832B
:1017D0004083089523EC31E0FC01318320832DEC1C
:1017E00031E0318F208F63ED71E00C94D70BDC0179
:1017F000ED91FC91369720813181820F931F0C94DB
:10180000EA0BCF93DF93EC010E94EA0BCE01DF914C
:10181000CF910C94451BDC01ED91FC913697208112
:101820003181820F931F0C94010C0C94451B089579
:1018300008950C94451BDC01ED91FC9136972081B5
:101840003181820F931F0C94190C0F931F93CF9328
:10185000DF938C01EB016F3F8FEF780719F480E085
:1018600090E00FC06A3031F46DE0F8018089918911
:101870000E9413036C2FF801808991890E94130341
:10188000CE01DF91CF911F910F9108958F929F927A
:10189000BF92CF92DF92EF92FF920F931F93CF935D
:1018A000DF9300D000D0CDB7DEB78C014B01C12C47
:1018B000D12C7601C216D306E406F50644F5F401F0
:1018C000B1904F01FAE0BF120EC06DE0F8018089BF
:1018D000918929833A834B835C830E9413035C8143
:1018E0004B813A8129816B2DF80180899189298367
:1018F0003A834B835C830E941303FFEFCF1ADF0A06
:10190000EF0AFF0A5C814B813A812981D3CFCA015A
:10191000B9010F900F900F900F90DF91CF911F9111
:101920000F91FF90EF90DF90CF90BF909F908F909E
:1019300008952BE332E0FC013183208325E432E07B
:10194000358B248B6BE472E00C945308DC01ED9131
:10195000FC91369720813181820F931F0C94990C52
:10196000CF93DF93EC010E94990CCE01DF91CF91D0
:101970000C94451BDC01ED91FC913697208131815F
:10198000820F931F0C94B00C0895CF93DF93CDB7C3
:10199000DEB72A970FB6F894DEBF0FBECDBFFC01AD
:1019A00083859485009741F1DB01FC012081318121
:1019B000F9014481558122E431E03A83298312966A
:1019C0002D913C9113973C832B8314962D913C9140
:1019D00015973E832D8316962D913C911797388746
:1019E0002F8318962D913C9119973A872987BE012C
:1019F0006F5F7F4FFA0109952A960FB6F894DEBF04
:101A00000FBECDBFDF91CF910895CF93DF93EC014F
:101A10000E941F106D837E838F839887DF91CF9103
:101A200008956F927F929F92AF92BF92CF92DF9272
:101A3000EF92FF920F931F93CF93DF93CDB7DEB753
:101A40002A970FB6F894DEBF0FBECDBFFC0192847B
:101A5000992009F4A3C05B016C010281138160E04D
:101A6000C8010E946708F801808991890E94DA0FF5
:101A70006DE1C8010E94050981FF08C0F801808955
:101A800091890E94DA0FC8010E94980860E0C8019D
:101A90000E940509482F4E7F60E0C8010E94AA08F5
:101AA00062E0C8010E940509EDE9F1E0E49141E03E
:101AB00050E001C0440FEA95EAF7482B62E0C80104
:101AC0000E94AA08F60102811381F8019781E92E8C
:101AD000913110F080E1E82EF8018085811103C07A
:101AE000F92EFE1801C0F12CC8010E948E0880EA70
:101AF0000E9491083501EA94FFEFEF1631F0F301EF
:101B000081913F010E949108F6CFFF2029F080E0EB
:101B10000E949108FA94F9CFC8010E948B0861E0F5
:101B2000C8010E946708C8010E948E088FEF0E94BA
:101B30009108F82EC8010E948B088F2D807399F3AD
:101B400060E0C8010E94670840E767E0C8010E94A2
:101B5000AA0884FF04C0C8010E949808912C61E083
:101B600070E080E090E00E94E50F82E491E09A83CB
:101B700089831A861986DC82CB828CE590E098876F
:101B80008F83AD82BE82BE016F5F7F4FC6010E9410
:101B9000C50CF601828193810E943E09892D2A9607
:101BA0000FB6F894DEBF0FBECDBFDF91CF911F916E
:101BB0000F91FF90EF90DF90CF90BF90AF909F90EC
:101BC0007F906F900895EF92FF920F931F93CF93A2
:101BD000DF93CDB7DEB764970FB6F894DEBF0FBEC4
:101BE000CDBF7C0181E493E4ABE4B0E0898B9A8BB8
:101BF000AB8BBC8B9E012F5E3F4F3F932F932AEC04
:101C000032E03F932F938E010F5F1F4F1F930F936F
:101C10000E94D624B801C7010E94110D0F900F90A9
:101C20000F900F900F900F9064960FB6F894DEBF50
:101C30000FBECDBFDF91CF911F910F91FF90EF901D
:101C4000089580910B0390910C03892BC9F48DE0CA
:101C500090E00E94B01AFC018BE691E091838083B2
:101C6000138212821482158216821782108684E0F3
:101C70008187128614861386F0930C03E0930B037E
:101C800080910B0390910C0308952DE532E0FC0147
:101C900021933193CF010C94BE09CF93DF93EC01D4
:101CA0000E94450ECE01DF91CF910C94451B0F93FE
:101CB0001F93CF93DF938091090390910A03892B9F
:101CC00009F04FC089E390E00E94B01AEC0183E66E
:101CD00091E0998388831A8202E511E01C830B83CB
:101CE00085E08D831F821E82198618861B861A86C0
:101CF0001C861D861E861F86198A188A1B8A1A8AC8
:101D00001C8A0E94E40E1E8B0D8B87E08F8B198E30
:101D1000188E1B8E1A8E1D8E1C8E1E8E1F8E18A264
:101D200019A21BA21AA21DA21CA21EA20E94E40EAE
:101D300018A70FA386E089A71BA61AA61DA61CA696
:101D40001FA61EA618AA19AA1AAA1BAA1DAA1CAA6F
:101D50001FAA1EAA18AE0E94E40ED0930A03C093D5
:101D600009038091090390910A03DF91CF911F919C
:101D70000F91089508950895EEE7F3E0A089B189E1
:101D800082E08C93A485B5851C92A685B78580E1F9
:101D90008C93108EA489B58986E08C93A289B3892F
:101DA0008C9180618C93A289B3898C9188608C938B
:101DB000A289B3898C9180688C930288F389E02D85
:101DC00080818F7D8083089590E0FC01E551FE4F76
:101DD0002491FC01E952FE4F8491882399F090E010
:101DE000880F991FFC01E353FE4FA591B491FC01AC
:101DF000ED53FE4F859194918FB7F894EC91E22BBF
:101E0000EC938FBF08953FB7F8948091140390919D
:101E10001503A0911603B091170326B5A89B05C022
:101E20002F3F19F00196A11DB11D3FBFBA2FA92F59
:101E3000982F8827820F911DA11DB11DBC01CD01D6
:101E400042E0660F771F881F991F4A95D1F70895C2
:101E5000EF92FF920F931F93CF93DF931F92CDB713
:101E6000DEB78C01FC01E480F5801982B7016E5F5A
:101E70007F4FAE014F5F5F4F0E948409F801808160
:101E8000918142E050E06EEF72E08E0D9F1D0E9446
:101E9000020AC8010F90DF91CF911F910F91FF901F
:101EA000EF9008950F931F93CF938C0166E08CE120
:101EB00093E00E940509C82FC77D0230110531F457
:101EC000C0628BE990E0A0E0B0E00DC001301105E8
:101ED00029F085E590E0A0E0B0E005C0C86081E4AD
:101EE00090E0A0E0B0E080932C0390932D03A093AA
:101EF0002E03B0932F034C2F66E08CE193E00E94F9
:101F0000AA0866E08CE193E00E94050991E08C1339
:101F100090E0892FCF911F910F91089590E0FC01DF
:101F2000E150FE4F3491FC01E551FE4F2491FC013C
:101F3000E952FE4FE491EE2309F43BC0332339F11B
:101F4000333091F038F43130A9F0323001F584B5F6
:101F50008F7D12C0373091F03830A1F03430B9F4B1
:101F6000809180008F7D03C0809180008F77809367
:101F700080000DC084B58F7784BD09C08091B0000A
:101F80008F7703C08091B0008F7D8093B000F0E028
:101F9000EE0FFF1FED53FE4FA591B4918FB7F8944C
:101FA000EC91611103C020952E2301C02E2B2C93A0
:101FB0008FBF08958230910538F0880F991F880FE0
:101FC000991F05970197F1F708958F929F92AF920D
:101FD000BF92CF92DF92EF92FF926B017C010E9441
:101FE000030F4B015C01C114D104E104F104F1F0D1
:101FF0000E94030FDC01CB0188199909AA09BB09CA
:10200000883E9340A105B10570F321E0C21AD108C2
:10201000E108F10888EE880E83E0981EA11CB11C2F
:10202000C114D104E104F10419F7DDCFFF90EF9062
:10203000DF90CF90BF90AF909F908F9008952FB773
:10204000F8946091100370911103809112039091A4
:1020500013032FBF0895EF92FF920F931F93CF9317
:10206000DF93EC019A8192FD5AC094609A8397FDA8
:1020700056C01C8A8E819F819B8B8A8B198A188AF5
:1020800060E08D810E948E0F85E090E00E94B01A82
:102090007C01FC011082148213828CE79BE0928306
:1020A000818385E090E00E94B01A8C018FEFF801E7
:1020B000808384E190E092838183F482E38285E0EF
:1020C00090E00E94B01AFC0183E0808388E290E0F7
:1020D0009283818314830383FF83EE83FB8BEA8BDC
:1020E000EF2BE9F08C898230D1F0811104C0198A7C
:1020F000188A1B861A860E941F106C877D878E8720
:102100009F8782E08C8B6A897B89CE010396DF9161
:10211000CF911F910F91FF90EF900C949705DF9155
:10212000CF911F910F91FF90EF9008951F920F9202
:102130000FB60F9211242F933F938F939F93AF93DA
:10214000BF938091100390911103A0911203B0915D
:10215000130330910F0323E0230F2D3720F4019652
:10216000A11DB11D05C026E8230F0296A11DB11DBA
:1021700020930F038093100390931103A0931203F5
:10218000B09313038091140390911503A09116034B
:10219000B09117030196A11DB11D80931403909374
:1021A0001503A0931603B0931703BF91AF919F91AE
:1021B0008F913F912F910F900FBE0F901F90189508
:1021C000CF93DF93CDB7DEB7C454D1090FB6F894DF
:1021D000DEBF0FBECDBF789484B5826084BD84B568
:1021E000816084BD85B5826085BD85B5816085BD12
:1021F00080916E00816080936E00109281008091CA
:102200008100826080938100809181008160809351
:102210008100809180008160809380008091B10076
:1022200084608093B1008091B00081608093B000A1
:1022300080917A00846080937A0080917A00826035
:1022400080937A0080917A00816080937A008091F7
:102250007A00806880937A001092C10085E00E9425
:10226000E40E87E00E94E40E86E00E94E40E0E94E5
:10227000BC0E209142033091430398E0ECE9F2E078
:10228000AE014F5F5F4F7A01DA0101900D929A958E
:10229000E1F7BA01C9010E9483060091460310913B
:1022A00047038CE193E0D80113969C938E93129789
:1022B00080911C0390911D0320911E0330911F03F8
:1022C0008217930711F00E94E40E80911E039091F3
:1022D0001F0320911C0330911D032817390711F0AB
:1022E0000E94E40EDFB6F89480910203811124C0AD
:1022F000E1EEF1E08491E5EFF1E09491E82FF0E078
:10230000EE0FFF1FE353FE4FA591B491EC91E9232B
:1023100021F461E08AE00E948E0F8AE00E94E40EC0
:102320008CB580618CBD8CB580648CBD8DE00E94C5
:10233000E40E8BE00E94E40E809102038F5F809395
:102340000203DFBE60E08CE193E00E94670861E079
:102350008CE193E00E94730865E070E080E090E01B
:102360000E94E50F4CE060E08CE193E00E94AA0837
:102370004FE564E08CE193E00E94AA0882E090E0DF
:102380000E94520F882319F081E08093220366E0B7
:102390008CE193E00E940509D82E80E090E00E9435
:1023A000520F8CE193E00E948E0880E50E94910814
:1023B00083E70E9491088CE193E00E948B0840E043
:1023C0006DE18CE193E00E94AA0840E06CE18CE1B1
:1023D00093E00E94AA081092240340E767E08CE192
:1023E00093E00E94AA084CE465E08CE193E00E942F
:1023F000AA088CE193E00E948E0882EE0E94910868
:102400008CE193E00E948B088CE193E00E94980895
:102410008CE193E00E94250960E08CE193E00E944A
:102420000509482F4E7F60E08CE193E00E94AA08E6
:102430008FEF8D0D8E3F08F086C04FEF64E08CE18A
:1024400093E00E94AA0840E06DE18CE193E00E94D5
:10245000AA0840E06CE18CE193E00E94AA08109287
:10246000240380E180932303DD24D394DCAA1DAAF6
:102470001EAA1FAA18AE19AE1AAE1BAE20912A03CF
:10248000AE014C5C5F4F6AE08CE193E00E94CE08A5
:1024900020912A03AE014C5C5F4F60E18CE193E038
:1024A0000E94CE084091230361E18CE193E00E94F9
:1024B000AA0882E08CA71DA61EA61FA618AA19AA04
:1024C0001AAA1BAAEAEAF1E0649120912A03AE015C
:1024D000445D5F4F8CE193E00E94CE08E4EAF1E0B6
:1024E0006491409123038CE193E00E94AA0862E08A
:1024F0008CE193E00E940509EEE9F1E0E49141E00E
:1025000050E001C0440FEA95EAF7482B62E08CE105
:1025100093E00E94AA0866E08CE193E00E9405091E
:10252000887F482F416066E08CE193E00E94AA0812
:1025300082E090E00E94520F8CE193E00E943E09FD
:10254000F801D28603C0D8011A961C92C8010E94D5
:10255000050DE0913A03F0913B03309721F086E3BB
:1025600093E0948783878091380390913903009793
:1025700011F00E942B10C0903E03D0903F03AE019B
:102580004E5D5F4F6BE872E0C7010E94710A08E080
:1025900020E030E040E050E0B701F6018281938115
:1025A0000E94CA06C7010E94BE09AE014E5D5F4F80
:1025B0006FE872E0C7010E94710A20E030E041E05C
:1025C00050E0B701D60112968D919C9113970E940D
:1025D000CA06C7010E94BE09AE014E5D5F4F63E9A6
:1025E00072E0C7010E94710A20E030E042E050E052
:1025F000B701F601828193810E94CA06C7010E9439
:10260000BE09AE014E5D5F4F66E972E0C7010E94F0
:10261000710A20E030E043E050E0B701D6011296A5
:102620008D919C9113970E94CA06C7010E94BE0912
:10263000C6010E943F072E01BCE34B0E511C86E0F1
:10264000F20111928A95E9F7D60119966D917D9163
:102650008D919C911C97820122E042E00E94901A89
:10266000A701B201CE0182960E94710ACE01829624
:102670000E94280F0A5F1F4F2FEF3FEF40E050E00E
:10268000BE016E5D7F4FC7010E94250A00E123E075
:1026900030E042E050E0B701F601828193810E9470
:1026A000CA06C7010E94BE09CE0182960E94BE09D9
:1026B00081E190E00E94B01A8C01DC0112961C921C
:1026C000129788E090E016969C938E931597189633
:1026D0001C921E92179788E390E00E94B01AF801AE
:1026E000948383831286809103039091040301965F
:1026F00090930403809303039487838786E291E099
:1027000091838083158616861786108A61E0C8013A
:102710000E944D02D801ED91FC910088F189E02DD5
:10272000C8010995823009F07BC00E94BD036C018D
:102730000115110509F463C0FC01868097805401DE
:10274000FFEFAF1ABF0A8A149B0408F060C0DC01D7
:1027500014962D913C9115972A153B0598F5C401C7
:1027600009962817390770F512966C9012971396F0
:102770007C90139715969C938E931497880F991FAE
:102780000E94B01AF60193838283D30140E050E0A7
:1027900048155905A1F0F601828193819A01220F13
:1027A000331FFC01E20FF31F309729F08D919C91AC
:1027B0001197918380834F5F5F4F1296E9CFC301DA
:1027C0000E94451BD60116968D919C9117979C01EE
:1027D000220F331F8A159B0578F4D6011296ED91CE
:1027E000FC911397E20FF31F309711F011830083D0
:1027F00001962E5F3F4FEECFF601B782A6829AE098
:10280000692E712C812C912C222423941DC0A81494
:10281000B904A8F7DC011796BC92AE921697EFCFD9
:10282000D801ED91FC91813031F40288F389E02DDB
:10283000C8010995E4CF0488F589E02D63E0C8015B
:102840000995DDCF0E9438020E941F1000914A03B3
:1028500010914B03C80103960E94FF05C8014596DD
:102860000E94FF05C80187960E94FF05C09048039B
:10287000D09049038EE793E00E949801181619063C
:102880000CF07DC08EE793E00E947601F601668130
:1028900077818A3019F08D3009F05EC0672B09F41A
:1028A00067C08E010E5D1F4F2FEF3FEF40E050E0FD
:1028B000B6016E5F7F4FC7010E94250A6FEA71E083
:1028C0008EE793E00E941A03C7010E94C3098C019E
:1028D000BC018EE793E00E943E0369E972E08EE757
:1028E00093E00E943E030E94210EB8010E94110D48
:1028F000C7010E94BE09D60116962D913C911797EB
:1029000040E050E019A28E010F5D1F4FCA01B901CE
:10291000A40193010E949B24605DF80162938F01E2
:10292000211531054105510589F7BF018EE793E077
:102930000E943E0369E972E08EE793E00E943E0345
:10294000D60116968D919C911797892B89F0179631
:102950001C921E9216970CC024968FAF24976F5F1F
:102960007F4FAE014D5B5F4FC60102960E94840906
:10297000F60186819781419710F0178216826AE0EE
:1029800070E080E090E00E94E50F00914603109116
:102990004703D8011A968C911A97882309F4C2C06C
:1029A00067E112968D919C9113970E94050980FF13
:1029B000D5C041C0C6010E948B0840E767E0C60150
:1029C0000E94AA08C8010E94050D24E0F801218791
:1029D000848181111CC0248223962FAE239742E468
:1029E00051E05BA34AA31BA61AA61DA30CA38AE56C
:1029F00090E099A788A7A2E4B0E0AC0FBD1FBFA3E9
:102A0000AEA3BE016E5D7F4FC8010E94C50CE2E41B
:102A1000F1E0FBA3EAA31BA61AA61DA30CA32BE5BA
:102A200030E039A728A7FFA2EEA2BE016E5D7F4F5E
:102A3000C8010E94C50C0E941F10D8011596AD90C8
:102A4000BD90CD90DC9018971A962C911A9722235E
:102A500009F468C09B01AC012A193B094C095D09C6
:102A600059016A0119968C91811102C060E01CC065
:102A7000813091F4253F31404105510508F441C0B2
:102A800061E0C8010E94E30DC8010E94050DF80134
:102A900081858F5F818735C0823051F4253F314079
:102AA0004105510570F162E0C8010E94E30D1FC0AD
:102AB000833039F5253F31404105510510F1F801CA
:102AC00084818823A1F014821CAE22E431E03A8391
:102AD00029831A8619861C830B834AE550E05887A0
:102AE0004F835E824D82B701C8010E94C50CC801A8
:102AF0000E94050DD80119968C9119978F5F199630
:102B00008C93F8018185843069F4F1E1AF16F7E226
:102B1000BF06C104D10430F0D80119961C92C80137
:102B20000E94050DE0914403F0914503C280D380DB
:102B300006811781000F111F0C0D1D1DC016D10637
:102B400009F480CEF601819191916F01DC01ED9144
:102B5000FC910484F585E02D0995F0CFF801C28041
:102B6000D380D60117968C91803150F120E1F60187
:102B70009085911103C0382E321A01C0312CC60144
:102B800025962FAF25970E948E0881E60E94910816
:102B9000570125962FAD2597215050F08FEF2596A0
:102BA0002FAF25970E949108D5018D935D01F1CF3C
:102BB000332009F4FFCE8FEF0E9491083A94F8CFAA
:102BC000282FD5CF08950C94451B02970C94E3153C
:102BD0004F925F926F927F928F929F92AF92BF922D
:102BE000CF92DF92EF92FF920F931F93CF93DF93D9
:102BF000CDB7DEB7EC970FB6F894DEBF0FBECDBFF2
:102C0000FB012681378162817381DC0116964D912B
:102C10005C9117976417750709F0D8C133272A35D7
:102C2000310509F4FCC02B35310509F0CFC15C0139
:102C300064817581FE0131967F01AF01CE01C4969A
:102C40000E94710A08E010E018AB0FA71AAA19AA8F
:102C500088E090E00E94B01A9EA78DA719A708A748
:102C60001BA61AA688E390E00E94B01A9FA38EA329
:102C70000091490410914A04E0914504F091460402
:102C8000ACA9BDA9CF01800F911FE817F90709F47E
:102C9000D9C031912D913217C1F34EC08CAF6BA1C9
:102CA0007CA16F5F7F4FAE01445C5F4FCE014F96BA
:102CB0000E9484090F5F1F4F28AD39AD8CA99DA9D3
:102CC000820F931FC816D90649F0D6018D916D0168
:102CD0008D3321F70115110509F0C1C02BA13CA1CD
:102CE0002115310529F12150310941E050E0BE01A3
:102CF000615E7F4FC7010E94490509A91AA96D812C
:102D00007E81600F711F188EAE01485E5F4FCE014D
:102D10008D960E9484094D815E8169817A818DA59D
:102D20009EA5800F911F0E94020AC7010E94BE0942
:102D3000CE014F960E94BE0968E674E0CE018D96E2
:102D40000E942808892B01F581E493E4A2E5B0E014
:102D5000898B9A8BAB8BBC8BCE0141969F938F93C3
:102D60008AEC92E09F938F93FF92EF920E94D62479
:102D70000E94210EB7010E94110D0F900F900F902D
:102D80000F900F900F903EC061E674E0CE018D96DB
:102D90000E942808892BB1F56EA17FA18E010F5EDC
:102DA0001F4F2FEF3FEF40E050E0C7010E94250A80
:102DB000C7010E94C3090E94DD1B20E030E04AE702
:102DC00054E40E9429242B013C01D5011A960D914F
:102DD0001C911B979B01AC01F8016581768187816D
:102DE00090850E94B122882351F0D80115964D920A
:102DF0005D926D927C921897C8010E943F07C701AF
:102E00000E94BE09CE0186960E94DE09CE018D96F3
:102E10000E94BE09CE01C4960E94BE09D7C0DC0143
:102E200014962D913C9115970480F581E02D9081A9
:102E3000F9018281911103C080618283C7C08F7EB6
:102E40008283C4C0A7016BE972E0CE014F960E9455
:102E5000710ACCA8DDA8B2E0CB0ED11C2DCF0F5F3C
:102E60001F4F21503109A801BE016C5C7F4FCE017C
:102E700048960E944905AE01455C5F4F6EE571E0E2
:102E8000CE0141960E94710A2D893E898C8D9D8DBF
:102E90008217930720F4CC24CA94DC2C21C001961D
:102EA0004C01821A930AC12CD12CC814D90499F36D
:102EB0002D893E89A601BE01685E7F4FC7010E9431
:102EC0004905B701CE0141960E9428083C01C7017F
:102ED0000E94BE09672821F0BFEFCB1ADB0AE5CFBD
:102EE000CE0141960E94BE09CD20C09409F456C07F
:102EF0008C8D9D8DE88DF98D00E010E00817190785
:102F000049F021912C3219F4C12CD12C15C00F5F3E
:102F10001F4FF4CF0FEF1FEFF7CF0F5F1F4F0217B9
:102F2000130758F5FC01E00FF11F60816C32A9F71F
:102F30000F3FFFEF1F0709F10F3F8FEF180709F44D
:102F400040C098012C193D09A601BE01685E7F4F63
:102F5000C7010E944905B701CE0186960E947304FD
:102F6000C7010E94BE09A8014F5F5F4F6A012C8D07
:102F70003D8D888D998D8A01D2CFBE01685E7F4FCD
:102F8000C7010E944905B701CE0186960E947304CD
:102F9000C7010E94BE090FEF1FEFCECF28AD39AD9C
:102FA00021503109A801BE016C5C7F4FC7010E940E
:102FB0004905B701CE0186960E947304C7010E949D
:102FC000BE09CE0148960E94BE0988CEEC960FB687
:102FD000F894DEBF0FBECDBFDF91CF911F910F914F
:102FE000FF90EF90DF90CF90BF90AF909F908F9029
:102FF0007F906F905F904F90089502970C94E81522
:10300000CF92DF92EF92FF920F931F93CF93DF93B4
:103010001F92CDB7DEB70EE713E010928103109236
:10302000800388EE93E0A0E0B0E080938203909369
:103030008303A0938403B09385038BE991E090937D
:103040007F0380937E0385EC90E090938B038093C5
:103050008A0384EC90E090938D0380938C0380EC42
:1030600090E090938F0380938E0381EC90E0909397
:1030700091038093900382EC90E09093930380936C
:10308000920386EC90E090939503809394031092C2
:103090009703109298031092990310929A03AE012D
:1030A0004F5F5F4F60ED72E082E994E00E94710A29
:1030B000AE014F5F5F4F63ED72E08BE894E00E94DA
:1030C000710AAE014F5F5F4F66ED72E084E894E0F5
:1030D0000E94710AAE014F5F5F4F6BED72E08DE7AA
:1030E00094E00E94710AAE014F5F5F4F6FED72E096
:1030F00086E794E00E94710AAE014F5F5F4F63EE76
:1031000072E08FE694E00E94710AAE014F5F5F4F5C
:1031100067EE72E088E694E00E94710AAE014F5FAC
:103120005F4F6BEE72E081E694E00E94710AAE019F
:103130004F5F5F4F6FEE72E08AE594E00E94710A84
:10314000AE014F5F5F4F63EF72E083E594E00E9452
:10315000710AAE014F5F5F4F67EF72E08CE494E05D
:103160000E94710AAE014F5F5F4F6BEF72E085E422
:1031700094E00E94710AE1E2F0E0F0933304E093FE
:10318000320410923404109235041092360446E052
:1031900050E060E070E0409337045093380460934F
:1031A000390470933A0410923B0410923C0410923C
:1031B0003D0410923E0420E220933F04109241040B
:1031C00010924004109244048DE194E090934304E3
:1031D000809342048BE392E090931C0480931B0441
:1031E00085E492E09093300480932F0410922104A0
:1031F00010922004109223041092220410922504AD
:10320000109224041092270410922604109229048C
:103210001092280410922B0410922A0489E192E063
:1032200090931E0480931D0410932E0400932D048C
:1032300030E130932C04F0936C03E0936B03109215
:103240006D0310926E0310926F03409370035093BE
:10325000710360937203709373031092740310925E
:1032600075031092760310927703209378031092DF
:103270007A031092790310927D03109252031092F8
:103280005303109254031092550326E533E0309314
:103290007C0320937B0323EC31E030935103209394
:1032A00050032DEC31E030936903209368031092B2
:1032B0005A031092590310925C0310925B03109210
:1032C0005E0310925D031092600310925F031092F0
:1032D000620310926103109264031092630390934F
:1032E000570380935603109367030093660388E0A7
:1032F0008093650310924F0310924E0310934D0379
:1033000000934C036EEB77E086ED97E00E94E11BA3
:1033100090934F0380934E030E94570E90934B035C
:1033200080934A0380910D0390910E03892BC9F479
:1033300089E090E00E94B01A8C018DE592E0F801DE
:103340009183808388E090E095838483178216823E
:103350000E94B01AF8019383828310930E030093A6
:103360000D0380910D0390910E0390934903809378
:1033700048030E94210E90934703809346030E94C6
:10338000BD0390934503809344030E94A0078C01E2
:10339000909343038093420380E190E00E94B01A2F
:1033A000FC0185E5C82E82E0D82ED182C08213832D
:1033B000028311E01483158216821782108611860B
:1033C000128613861486158616861786F093410397
:1033D000E093400389E792E09093350380933403B0
:1033E00085E892E090933703809336031092390377
:1033F000109238030E94210E90933B0380933A036E
:103400000E94A0077C0190933D0380933C0380E1E0
:1034100090E00E94B01AFC01D182C082F382E28265
:1034200014831582168217821086118612861386DF
:10343000148615861686178690933F0380933E0365
:1034400089E090E090931D0380931C038AE090E054
:1034500090931F0380931E031092220380E28093B7
:1034600023031092240385E080932A0385E090E0F3
:10347000A0E0B0E08093300390933103A093320337
:10348000B0933303109225030E941F10609318031A
:103490007093190380931A0390931B030F90DF918D
:1034A000CF911F910F91FF90EF90DF90CF900895F3
:1034B00080E593E00E94EA0B8BE194E00E94990C76
:1034C00085E494E00E94BE098CE494E00E94BE0969
:1034D00083E594E00E94BE098AE594E00E94BE095B
:1034E00081E694E00E94BE0988E694E00E94BE094D
:1034F0008FE694E00E94BE0986E794E00E94BE0930
:103500008DE794E00E94BE0984E894E00E94BE0921
:103510008BE894E00E94BE0982E994E00C94BE0915
:10352000EF920F931F93CF93DF93E80147FD02C003
:1035300034E001C034E1E42F440FFF0BF7FF03C078
:10354000F195E195F109E32E022F2E2FAE010E9495
:103550001A1ECE01DF91CF911F910F91EF90089528
:10356000CF93DF938230910510F482E090E0E091F8
:103570009B04F0919C0420E030E0C0E0D0E0309764
:1035800011F14081518148175907C0F04817590778
:1035900061F482819381209719F09B838A832BC0E9
:1035A00090939C0480939B0426C02115310519F04B
:1035B0004217530718F49A01BE01DF01EF010280A0
:1035C000F381E02DDCCF2115310509F1281B390BE2
:1035D0002430310590F412968D919C9113976115CA
:1035E000710521F0FB019383828304C090939C04B6
:1035F00080939B04FD01329644C0FD01E20FF31F4E
:1036000081939193225031092D933C933AC020919C
:10361000990430919A04232B41F4209102013091B6
:10362000030130939A042093990420910001309172
:1036300001012115310541F42DB73EB74091040138
:1036400050910501241B350BE0919904F0919A04E7
:10365000E217F307A0F42E1B3F0B2817390778F069
:10366000AC014E5F5F4F2417350748F04E0F5F1FC8
:1036700050939A04409399048193919302C0E0E09F
:10368000F0E0CF01DF91CF9108950F931F93CF9377
:10369000DF93009709F48CC0FC01329713821282E9
:1036A00000919B0410919C040115110581F4208167
:1036B0003181820F931F2091990430919A04281729
:1036C000390779F5F0939A04E093990471C0D80111
:1036D00040E050E0AE17BF0750F412962D913C9198
:1036E0001397AD012115310509F1D901F3CF9D01E2
:1036F000DA013383228360817181860F971F8217DD
:10370000930769F4EC0128813981260F371F2E5F5A
:103710003F4F318320838A819B8193838283452B12
:1037200029F4F0939C04E0939B0442C01396FC930D
:10373000EE931297ED01499159919E01240F351F87
:10374000E217F30771F480819181840F951F02962F
:1037500011969C938E938281938113969C938E9362
:103760001297E0E0F0E0D80112968D919C911397AA
:10377000009719F0F8018C01F6CF8D919C9198017A
:103780002E5F3F4F820F931F2091990430919A042E
:103790002817390769F4309729F410929C04109285
:1037A0009B0402C01382128210939A04009399041E
:1037B000DF91CF911F910F910895662777270C9481
:1037C000A81F0F931F93CF93DF93009731F46115D8
:1037D000710519F480E090E03AC08B01EC016EE0D5
:1037E00070E081E090E00E94FE1DFC01892B91F3C6
:1037F00080E883830115110571F01387028781E842
:10380000838380919D0490919E04892B21F4F093F1
:103810009E04E0939D042097C9F0D187C0878381DF
:103820008260838380919F049091A004892B71F41E
:10383000F093A004E0939F048091A1049091A204CE
:10384000892B21F4F093A204E093A104CF01DF912E
:10385000CF911F910F910895ACE0B0E0E2E3FCE15D
:103860000C94E3237C016B018A01FC011782168210
:10387000838181FFBDC1CE0101964C01F701938187
:10388000F60193FD859193FF81916F01882309F4DF
:10389000ABC1853239F493FD859193FF81916F011E
:1038A000853229F4B70190E00E941B22E7CF512C0A
:1038B000312C20E02032A0F48B3269F030F48032D9
:1038C00059F0833269F420612CC08D3239F0803395
:1038D00039F4216026C02260246023C0286021C002
:1038E00027FD27C030ED380F3A3078F426FF06C0A8
:1038F000FAE05F9E300D1124532E13C08AE0389EEB
:10390000300D1124332E20620CC08E3221F426FD9E
:103910006BC1206406C08C3611F4206802C0883662
:1039200041F4F60193FD859193FF81916F0181111F
:10393000C1CF982F9F7D9554933028F40C5F1F4F73
:10394000FFE3F9830DC0833631F0833771F083359F
:1039500009F05BC022C0F801808189830E5F1F4F90
:1039600044244394512C540115C03801F2E06F0EE9
:10397000711CF801A080B18026FF03C0652D70E0A6
:1039800002C06FEF7FEFC5012C870E9410222C012F
:1039900083012C852F77222E17C03801F2E06F0E9D
:1039A000711CF801A080B18026FF03C0652D70E076
:1039B00002C06FEF7FEFC5012C870E94FE212C0112
:1039C0002C852068222E830123FC1BC0832D90E0D0
:1039D00048165906B0F4B70180E290E00E941B221D
:1039E0003A94F4CFF50127FC859127FE81915F0180
:1039F000B70190E00E941B2231103A94F1E04F1A77
:103A000051084114510471F7E5C0843611F089362C
:103A100039F5F80127FF07C06081718182819381A8
:103A20000C5F1F4F08C060817181072E000C880B4E
:103A3000990B0E5F1F4F2F76722E97FF09C090953E
:103A40008095709561957F4F8F4F9F4F2068722EA4
:103A50002AE030E0A4010E945322A82EA81844C0F6
:103A6000853729F42F7EB22E2AE030E025C0F22FD0
:103A7000F97FBF2E8F36C1F018F4883579F0B4C0C5
:103A8000803719F0883721F0AFC02F2F2061B22E78
:103A9000B4FE0DC08B2D8460B82E09C024FF0AC06F
:103AA0009F2F9660B92E06C028E030E005C020E1C7
:103AB00030E002C020E132E0F801B7FE07C06081CB
:103AC0007181828193810C5F1F4F06C0608171817B
:103AD00080E090E00E5F1F4FA4010E945322A82EA9
:103AE000A818FB2DFF777F2E76FE0BC0372D3E7F6B
:103AF000A51450F474FE0AC072FC08C0372D3E7E37
:103B000005C0BA2C372D03C0BA2C01C0B52C34FF28
:103B10000DC0FE01EA0DF11D8081803311F4397E64
:103B200009C032FF06C0B394B39404C0832F8678D3
:103B300009F0B39433FD13C030FF06C05A2CB31400
:103B400018F4530C5B18B32CB31468F4B70180E27B
:103B500090E03C870E941B22B3943C85F5CFB314C0
:103B600010F43B1801C0312C34FF12C0B70180E3C0
:103B700090E03C870E941B223C8532FF17C031FD3C
:103B800003C088E790E002C088E590E0B7010CC070
:103B9000832F867859F031FF02C08BE201C080E2AA
:103BA00037FD8DE2B70190E00E941B22A51438F486
:103BB000B70180E390E00E941B225A94F7CFAA94A9
:103BC000F401EA0DF11D8081B70190E00E941B22F3
:103BD000A110F5CF332009F451CEB70180E290E077
:103BE0000E941B223A94F6CFF7018681978102C08A
:103BF0008FEF9FEF2C96E2E10C94FF230F931F931E
:103C0000CF93DF93869F8001879F100D969F100DA5
:103C10001124C8010E94B01AEC01009729F0A801F4
:103C200060E070E00E940922CE01DF91CF911F91E8
:103C30000F9108954F925F926F927F929F92AF92F1
:103C4000BF92CF92DF92EF92FF920F931F93CF9389
:103C5000DF93CDB7DEB729970FB6F894DEBF0FBE5E
:103C6000CDBF6A01122FB02E2BE3201720F0FF24C6
:103C7000F394F00E02C0BCE3FB2E0F2D27E0AE0143
:103C80004F5F5F4F0E940521AC018981982F997089
:103C9000913031F0E1FC06C0E0FE06C090E205C0C4
:103CA0009DE203C09BE201C090E0EE2DE07183FF36
:103CB0003CC0911102C083E001C084E0811718F478
:103CC000212F281B01C020E0E1110BC0F601822F3B
:103CD00030E2882319F031938150FBCFC20ED11C02
:103CE00020E0992329F0D6019C93F60131966F01CB
:103CF000C6010396E2FE0AC03EE4D6013C9341E4CD
:103D000011964C93119712963C9306C03EE6F6012D
:103D1000308341E641833283FC01322F40E233237A
:103D200009F442C041933150FACF82FF44C091114F
:103D300002C083E001C084E0811718F4212F281B02
:103D400001C020E0E1110BC0F601822F30E2882390
:103D500019F031938150FBCFC20ED11C20E0992382
:103D600029F0D6019C93F60131966F01C6010396A6
:103D7000E2FE0BC039E4D6013C933EE411963C933D
:103D8000119736E412963C9307C039E6F60130836A
:103D90003EE6318336E63283FC01322F40E23323A4
:103DA00019F041933150FBCFFC01E20FF11D10825D
:103DB0008EEF9FEFB7C0F1E0911101C0F0E06F2FDF
:103DC00070E01416150624F49A012F5F3F4F02C0CD
:103DD00021E030E0260F371FBB2029F06B2D70E06B
:103DE0006F5F7F4F02C060E070E0260F371F612FCA
:103DF00070E0261737071CF4121B212F01C020E0AA
:103E00003E2D387159F4D601322F60E2332319F078
:103E10006D933150FBCFC20ED11C20E0FF2331F057
:103E2000D6019C93B6016F5F7F4F6B01E1110BC010
:103E3000F601922F30E3992319F031939150FBCF83
:103E4000C20ED11C20E09F2D940F3A81782F707103
:103E5000A72E84FF03C0313309F49150191624F4BE
:103E6000993018F098E001C091E0E42F852F57FFBA
:103E700002C0E0E080E06E2F782FE0E0F0E0AEE2FC
:103E80009A2E3A01691A71082A01461A570A0B2D0F
:103E900010E01195019511096F3F8FEF780729F414
:103EA000D6019C92C60101966C014617570784F013
:103EB000661677066CF47F01E40CF51CA1E0B0E017
:103EC000AC0FBD1FEA0EFB1ED7011196BC9002C0BD
:103ED00090E3B92E615071093196C60101967C01BB
:103EE0006017710724F0D601BC926C01D5CF64171E
:103EF000750741F4363320F4353321F4A11002C0A4
:103F000081E3B82EF601B082F701822F90E2882378
:103F100019F091938150FBCFF701E20FF11D108250
:103F200080E090E029960FB6F894DEBF0FBECDBFBB
:103F3000DF91CF911F910F91FF90EF90DF90CF9085
:103F4000BF90AF909F907F906F905F904F9008953B
:103F5000A0E0B0E0EEEAFFE10C94E723EC017B0186
:103F60006115710519F0DB018D939C938E010F5F34
:103F70001F4F7880872D90E00E94DD21892B11F062
:103F8000E801F4CFBDE27B1205C00F5F1F4F7980BF
:103F9000C1E008C0EBE27E1204C08E010E5F1F4F2D
:103FA0007980C0E06801F1E0CF1AD10843E050E029
:103FB00060E770E0C6010E94E621892BF1F46801F8
:103FC00022E0C20ED11C45E050E06BE670E0C60175
:103FD0000E94E621892B21F4680187E0C80ED11CDC
:103FE000E114F10419F0D701CD92DC92C111FFC0A8
:103FF00060E070E080E89FE703C143E050E068E6DE
:1040000070E0C6010E94E621892B51F4E114F1040D
:1040100009F4F2C00E5F1F4FF70111830083ECC05B
:10402000680160E070E0CB0100E010E0F601D0ED47
:10403000D70DDA3058F52C2F2260622E2C2F2870E5
:10404000C2FF05C0211128C00F5F1F4F25C02223CA
:1040500011F001501109A5E0B0E09B01AC010E94F4
:10406000D8234B015C01880C991CAA1CBB1CC50100
:10407000B4016D0F711D811D911D6839A9E97A0781
:104080008A07A9E19A0740F0C66005C0DE3F51F4F7
:10409000C3FD44C0C8606C2EBFEFCB1ADB0A708032
:1040A000C62DC4CF2D2F2F7D2531C1F540814D3236
:1040B00011F4C06106C04B3221F0319621E030E0AE
:1040C00006C03296D60111964C9122E030E0A0ED68
:1040D000A40FAA3018F0E21BF30B20C040E050E020
:1040E0004038BCE05B075CF49A01220F331F220FBB
:1040F000331F420F531F440F551F4A0F511D319656
:10410000DF0111972C91A0EDA20FAA3048F3C4FF54
:1041100003C0519541955109040F151FC1FF07C0F8
:10412000E114F10421F03197D701ED93FC930E9443
:10413000B622C370C33019F06B017C0106C06B015D
:104140007C01F7FAF094F7F8F09420E030E0A90150
:10415000C701B6010E94B122882309F445C017FFA8
:1041600006C0119501951109C7E8D0E002C0CFE95A
:10417000D0E05E01B8E1AB1AB1084601BE2DAF2D0B
:1041800090E2E92EF12C0E151F0584F0FE01259119
:10419000359145915491B4018B2F9A2F0E9417238A
:1041A0004B01B82FA92F0E191F09EDCF2497F594B5
:1041B000E794CA15DB0539F76401EB2EFA2E8E2D34
:1041C000880F8F2D881F8F3F49F020E030E0A90134
:1041D000C701B6010E94B122811106C082E290E0BF
:1041E0009093A4048093A304C701B60109C060E0C2
:1041F00070E080E89FEF04C060E070E080EC9FE733
:10420000CDB7DEB7EEE00C940324283008F027E0A9
:104210003327DA01990F311D87FD91600096610502
:10422000710539F432602E5F3D9330E32A95E1F752
:1042300008959F3F30F080387105610509F03C5FBB
:104240003C5F3D93913008F08068911DDF93CF93E0
:104250001F930F93FF92EF92192F987F9695E92F56
:1042600096959695E90FFF27E350FF4F992733273F
:10427000EE24FF24A701E70105900894079428F491
:10428000360FE71EF81E491F511D660F771F881F46
:10429000991F0694A1F70590079428F4E70EF81EDD
:1042A000491F561FC11D770F881F991F661F06944F
:1042B000A1F70590079428F4F80E491F561FC71F51
:1042C000D11D880F991F661F771F0694A1F70590CF
:1042D000079420F4490F561FC71FD81F990F661F58
:1042E000771F881F0694A9F784911095177041F0E5
:1042F000D695C79557954795F794E7941A95C1F7C2
:10430000E3EAF0E0689415901591359165919591E7
:1043100005907FE27395E118F10A430B560BC90B28
:10432000D009C0F7E10CF11E431F561FC91FD01D55
:104330007EF4703311F48A95E6CFE894015030F0A2
:10434000080F0AF40027021708F4202F2395022FE4
:104350007A3328F079E37D932A95E9F710C07D93AD
:104360002A9589F60694979567953795179517942A
:10437000E118F10A430B560BC90BD00998F02395AD
:104380007E9173957A3308F070E37C932013B8F72D
:104390007E9170617D9330F0839571E37D9370E33E
:1043A0002A95E1F71124EF90FF900F911F91CF9183
:1043B000DF91992787FD9095089591110C9484239E
:1043C000803219F089508550C8F70895FB01DC014F
:1043D0004150504088F08D9181341CF08B350CF4A5
:1043E000805E659161341CF06B350CF4605E861B59
:1043F000611171F3990B0895881BFCCFFC010590A6
:10440000615070400110D8F7809590958E0F9F1FD6
:104410000895DC0101C06D9341505040E0F70895CC
:10442000FC016150704001900110D8F78095909583
:104430008E0F9F1F08950F931F93CF93DF93FB0160
:10444000238121FD03C08FEF9FEF28C022FF16C0FC
:1044500046815781248135814217530744F4A08156
:10446000B1819D012F5F3F4F318320838C93268143
:1044700037812F5F3F4F3783268310C0EB01092F11
:10448000182F0084F185E02D0995892BE1F68E81A6
:104490009F8101969F838E83812F902FDF91CF91F3
:1044A0001F910F910895FA01AA27283051F1203168
:1044B00081F1E8946F936E7F6E5F7F4F8F4F9F4FB8
:1044C000AF4FB1E03ED0B4E03CD0670F781F891FFA
:1044D0009A1FA11D680F791F8A1F911DA11D6A0FC8
:1044E000711D811D911DA11D20D009F468943F917B
:1044F0002AE0269F11243019305D3193DEF6CF017A
:104500000895462F4770405D4193B3E00FD0C9F73F
:10451000F6CF462F4F70405D4A3318F0495D31FDAC
:104520004052419302D0A9F7EACFB4E0A6959795FF
:10453000879577956795BA95C9F7009761057105D5
:1045400008959B01AC010A2E06945795479537951F
:104550002795BA95C9F7620F731F841F951FA01D79
:1045600008950E94F32208F481E00895E89409C0B8
:1045700097FB3EF490958095709561957F4F8F4F96
:104580009F4F9923A9F0F92F96E9BB279395F695AC
:10459000879577956795B795F111F8CFFAF4BB0F2A
:1045A00011F460FF1BC06F5F7F4F8F4F9F4F16C08E
:1045B000882311F096E911C0772321F09EE8872F18
:1045C000762F05C0662371F096E8862F70E060E0D4
:1045D0002AF09A95660F771F881FDAF7880F96954D
:1045E000879597F90895990F0008550FAA0BE0E8F1
:1045F000FEEF16161706E807F907C0F012161306A5
:10460000E407F50798F0621B730B840B950B39F4E4
:104610000A2661F0232B242B252B21F408950A264A
:1046200009F4A140A6958FEF811D811D08950E9478
:104630002A230C949E230E94902338F00E949723F3
:1046400020F0952311F00C9487230C948D231124D2
:104650000C94D2230E94AF2370F3959FC1F3950F62
:1046600050E0551F629FF001729FBB27F00DB11DF6
:10467000639FAA27F00DB11DAA1F649F6627B00D86
:10468000A11D661F829F2227B00DA11D621F739F6F
:10469000B00DA11D621F839FA00D611D221F749F7D
:1046A0003327A00D611D231F849F600D211D822FC4
:1046B000762F6A2F11249F5750409AF0F1F08823EB
:1046C0004AF0EE0FFF1FBB1F661F771F881F915018
:1046D0005040A9F79E3F510580F00C9487230C941D
:1046E000D2235F3FE4F3983ED4F3869577956795A0
:1046F000B795F795E7959F5FC1F7FE2B880F911D42
:104700009695879597F9089599278827089597F999
:104710009F6780E870E060E008959FEF80EC089567
:1047200000240A9416161706180609060895002490
:104730000A9412161306140605060895092E03940A
:10474000000C11F4882352F0BB0F40F4BF2B11F47E
:1047500060FF04C06F5F7F4F8F4F9F4F089557FDDD
:104760009058440F551F59F05F3F71F04795880FDF
:1047700097FB991F61F09F3F79F087950895121676
:1047800013061406551FF2CF4695F1DF08C0161622
:1047900017061806991FF1CF8695710561050894D3
:1047A0000895E894BB2766277727CB0197F90895EA
:1047B0000E941A24A59F900DB49F900DA49F800D78
:1047C000911D112408952F923F924F925F926F9204
:1047D0007F928F929F92AF92BF92CF92DF92EF9291
:1047E000FF920F931F93CF93DF93CDB7DEB7CA1B12
:1047F000DB0B0FB6F894DEBF0FBECDBF09942A883D
:10480000398848885F846E847D848C849B84AA84E4
:10481000B984C884DF80EE80FD800C811B81AA8171
:10482000B981CE0FD11D0FB6F894DEBF0FBECDBF3C
:10483000ED010895A29FB001B39FC001A39F700D29
:10484000811D1124911DB29F700D811D1124911D98
:1048500008950E943D240C949E230E94972358F0B3
:104860000E94902340F029F45F3F29F00C948723A5
:1048700051110C94D2230C948D230E94AF2368F322
:104880009923B1F3552391F3951B550BBB27AA2709
:1048900062177307840738F09F5F5F4F220F331F43
:1048A000441FAA1FA9F335D00E2E3AF0E0E832D00B
:1048B00091505040E695001CCAF72BD0FE2F29D00E
:1048C000660F771F881FBB1F261737074807AB07E0
:1048D000B0E809F0BB0B802DBF01FF2793585F4F55
:1048E0003AF09E3F510578F00C9487230C94D22324
:1048F0005F3FE4F3983ED4F3869577956795B79537
:10490000F7959F5FC9F7880F911D9695879597F941
:104910000895E1E0660F771F881FBB1F62177307BA
:104920008407BA0720F0621B730B840BBA0BEE1FCF
:1049300088F7E0950895A1E21A2EAA1BBB1BFD0182
:104940000DC0AA1FBB1FEE1FFF1FA217B307E4076E
:10495000F50720F0A21BB30BE40BF50B661F771FC6
:10496000881F991F1A9469F76095709580959095A6
:104970009B01AC01BD01CF010895EE0FFF1F059013
:10498000F491E02D099481E090E0F8940C94F924DE
:10499000FB01DC014150504030F08D9101908019B5
:1049A00019F40020B9F7881B990B0895AEE0B0E028
:1049B000ECEDF4E20C94F1230D891E8986E08C83E2
:1049C0001A8309838FEF9FE79E838D83AE01475E35
:1049D0005F4F6F89788DCE0101960E942C1C2F812C
:1049E0003885F801E20FF31F10822E96E4E00C9454
:1049F0000D2411E0CBE0D1E004C0FE010E94BD24F3
:0C4A00002196CC30D107C9F7F894FFCF05
:104A0C000000A504800000000000000000009702D8
:104A1C0019055F02450244024D023601E5034302CB
:104A2C00420200000000AB03B303810219055F02D0
:104A3C00450241044D026202E503430242020000BA
:104A4C0000009605D10200000000C40CC10B000050
:104A5C0000006102D30200000000AD02C7022C006E
:104A6C00000000AF0AC50B00000000AE0AC30B1813
:104A7C00000000000000000000E8FFE8FF0000005C
:104A8C0000000014000000000000000000ECFFEC2F
:104A9C00FF00000000000000000000CF013801679B
:104AAC00011602980176018A01060000000000C977
:104ABC000BCB0BFAFFFAFF0000CA0BCD0B18000052
:104ACC00000000EA0B010CE8FFE8FF0000F70B0BFD
:104ADC000CC30175017F01CD0100000000BA0EC7A7
:104AEC000BC00BBD0BBA0BB70BB40B2B0B270B244A
:104AFC000B0E0B2E0BB20AB00A02000000000017BE
:104B0C000C190CFEFFFEFF0000180C1B0C00000023
:104B1C00006608FC0700000000BB0E150CC00BBDA6
:104B2C000BBA0BB70BB40BA80B620B490B300B2E4B
:104B3C000B460C250C140000000000990CB00CEC7A
:104B4C00FFECFF0000A60CBA0C3B02890193014557
:104B5C0002000000008206D50200000000450E4D48
:104B6C000E000000000000000036010000000000F4
:104B7C00000000360100000000010AE315FB07E805
:104B8C0015FEFF0000E215E515FD1731302F00333F
:104B9C00353000382F003230000D0A00415464309B
:104BAC003D282900535550003F00415438313D28D1
:104BBC0025642C25642C25732900415438333D2859
:104BCC0025642C25642C2573290041542B25730056
:104BDC004254004856005345545300534554005416
:104BEC004C530054425A0041434B00485631005339
:104BFC0052310048563200535232004154006B5629
:024C0C000000A6
:00000001FF
