:100000000C9449020C9471020C9471020C94D60861
:100010000C94D6080C94D6080C9471020C947102BE
:100020000C9471020C9471020C9471020C94710284
:100030000C9471020C9471020C9471020C94710274
:100040000C94E9180C9471020C94C7120C94A11230
:100050000C9471020C9471020C9471020C94710254
:100060000C9471020C9471025B1DED1E6F1DED1E50
:100070002F1EED1EED1EED1EED1EED1E2F1E861D0C
:10008000E51DED1EED1EED1EED1EED1EED1EED1E21
:10009000ED1E421EED1EED1ED81EBD1FDC20C11F31
:1000A000DA1FF51FDC20DC20DC20DC20DC204420F3
:1000B0001020282041204420DC20DC20DC20DC2013
:1000C000DC20BB205C20DC20782093204E414E4970
:1000D0004E495459494E46CDCCCC3D0AD7233C1706
:1000E000B7D13877CC2B329595E6241FB14F0A0053
:1000F0000020410000C84200401C4620BCBE4CCA43
:100100001B0E5AAEC59D7400407A10F35A00A072BF
:100110004E18090010A5D4E80000E8764817000042
:10012000E40B54020000CA9A3B000000E1F5050010
:100130000080969800000040420F000000A0860159
:10014000000000102700000000E803000000006429
:1001500000000000000A0000000000010000000094
:10016000002C76D888DC674F0823DFC1DFAE59E169
:10017000B1B796E5E3E453C63AE651997696E8E6D8
:10018000C28426EB898C9B62ED407C6FFCEFBC9CAB
:100190009F40F2BAA56FA5F490055A2AF75C936BBD
:1001A0006CF9676DC11BFCE0E40D47FEF520E6B578
:1001B00000D0ED902E0300943577050080841E0852
:1001C0000000204E0A000000C80C333333330F9870
:1001D0006E12831141EF8D2114893BE65516CFFE37
:1001E000E6DB18D1844B381BF77C1D901DA4BBE4C3
:1001F00024203284725E228100C9F124ECA1E53D05
:100200002769643D25640076696E3D2564266C7619
:100210003D256426616C3D2564007372633D256451
:100220002663683D256C7526736C3D2564266474D1
:100230003D256C750047455420257325733F257374
:1002400020485454502F312E310D0A486F73743AA0
:100250002025730D0A0D0A00000102030405111286
:10026000131415160A0B0C0D0E0F526164696F20E2
:10027000506F776572557000467265652052414D2A
:10028000203D20005354415254004672656520526F
:10029000414D203D200053454E443A20002D2D2055
:1002A00052656365697665643A200035021A020773
:1002B00002010241542B43495053454E443D0041F5
:1002C000542B434950434C4F5345004F4E204D5300
:1002D000523A20004F4E204D53533A200052455180
:1002E0005545535420504F535445442C20504F50A3
:1002F000002D3E0052414D3D2000556E69783A2058
:1003000000000000080002010000030407000000D4
:10031000000000000000000000250028002B000065
:10032000000000230026002900040404040404043F
:100330000402020202020203030303030301020494
:100340000810204080010204081020010204081057
:100350002069643D25640076696E3D2564266C76CF
:100360003D256426616C3D2564007372633D256400
:100370002663683D256C7526736C3D256426647480
:100380003D256C750047455420257325733F257323
:1003900020485454502F312E310D0A486F73743A4F
:1003A0002025730D0A0D0A0069643D2564007669F5
:1003B0006E3D2564266C763D256426616C3D256482
:1003C000007372633D25642663683D256C75267352
:1003D0006C3D25642664743D256C750047455420AA
:1003E000257325733F257320485454502F312E31E7
:1003F0000D0A486F73743A2025730D0A0D0A0085A3
:10040000036A0357035103DC03C103AE03A803418E
:10041000542B525354002420467265652052414D9E
:10042000203D200069643D25640076696E3D2564A9
:10043000266C763D256426616C3D256400737263ED
:100440003D25642663683D256C7526736C3D2564E7
:100450002664743D256C750047455420257325732B
:100460003F257320485454502F312E310D0A486FC8
:1004700073743A2025730D0A0D0A0058043D042AAE
:1004800004240400000000240027002A0000522455
:100490004A2811241FBECFEFD8E0DEBFCDBF13E046
:1004A000A0E0B1E0E0EAF9E602C005900D92AC3AB6
:1004B000B107D9F725E0ACEAB3E001C01D92AE3137
:1004C000B207E1F712E0C8E4D2E004C02197FE01D0
:1004D0000E944633C734D107C9F70E9433190C94E0
:1004E000C3340C9400002091D7033091D80328170F
:1004F000390771F49091D5038091D603981741F094
:10050000E091D503F0E0EB54FC4F808190E008953A
:100510008FEF9FEF089508951F93CF93DF93DC0132
:100520005C962D913C915D972115310539F481E060
:1005300090E013969C938E9312973DC05196ED9147
:10054000FC91529750969C915097892F80951FB798
:100550005E964C915E9741FB772770F941FD60955F
:10056000F8944081772311F0492B01C04823408340
:10057000E9012197F1F748E0508160FF02C0592B53
:1005800001C058235083E9012197F1F76695415046
:1005900099F7772321F090818923808303C080819C
:1005A000982B90831FBF5C968D919C915D970197CE
:1005B000F1F721E030E0C901DF91CF911F9108955B
:1005C0002091D7033091D8032817390769F4809117
:1005D000D6032091D50390E08096821B910960E2BA
:1005E00070E00E941033089580E090E0089520911B
:1005F000D7033091D80328173907B9F49091D50360
:100600008091D603981789F0E091D503F0E0EB5480
:10061000FC4F80812091D50330E02F5F3F4F2F7139
:1006200033272093D50390E008958FEF9FEF08952F
:10063000089580E090E008950F931F93CF938C016D
:1006400020E030E040E450E4DC0150966D917D9173
:100650008D919C9153970E940B33C1E0181674F052
:1006600020E030E040E450E4F8016489758986892F
:1006700097890E940B3318160CF0C0E0D8015896E9
:100680008C9158978C17A1F05896CC9358971A963E
:10069000ED91FC911B97E35AFF4F8081CC2321F011
:1006A000882331F0108204C0813011F081E0808312
:1006B000CF911F910F9108952F923F924F925F9289
:1006C0006F927F928F929F92AF92BF92CF92DF9262
:1006D000EF92FF920F931F93CF93DF93CDB7DEB7C7
:1006E000C756D1090FB6F894DEBF0FBECDBF7C014F
:1006F0006B962FAF6B976C963FAF6C976D964FAF25
:100700006D976E965FAF6E976F966FAF6F97A0966F
:100710007FAFA0972DB73EB7A8963FAF2EAFA89753
:10072000A0960EAD1FADA0976C966EAC7FAC6C978B
:100730006E964EAD5FAD6E97A6965FAF4EAFA69725
:10074000DC0116968D919C9117976816790609F031
:1007500001C3CA0199278B35910581F08D3591052B
:1007600009F0F8C264ED72E08BE494E00E94F711A6
:10077000B8018BE494E00E947912ECC26BEC72E059
:100780008BE494E00E94F711B8018BE494E00E949E
:10079000791262E173E0CE018D5A9F4F0E94DB1106
:1007A0005E01B9E1AB0EB11C88E1F50111928A95A9
:1007B000E9F79501AE01475A5F4FBE016D5A7F4F71
:1007C000C8010E94060C6DE273E09E012F5F3F4F4F
:1007D0006901C9010E94DB11B601CE018D5A9F4FFC
:1007E0000E941B118C01C6010E94BC11012B09F44F
:1007F0000CC261E373E0C6010E94DB11B601CE01B9
:100800008D5A9F4F0E941B118C01C6010E94BC1182
:10081000012B09F096C0C5010E949F2920E030E01D
:100820004AE754E40E946A321B012C019B01AC018F
:10083000D70150966D917D918D919C9153970E9417
:10084000DC30882309F4E1C1F701208A318A428A29
:10085000538AC7010E941C03D70150962D903D90EA
:100860004D905C9053971E96ED91FC911F97A29628
:10087000FFAFEEAFA297A2019101658176818781DA
:1008800090850E94DC30882309F4BFC1A296AEADEA
:10089000BFADA29715962D923D924D925C921897FE
:1008A0004E01B1E38B0E911C86E0F40111928A9502
:1008B000E9F7840122E042E0C201B1010E9452281E
:1008C00020E030E040E251E4C201B1010E94DC309E
:1008D00087FF17C09F928F9285E393E09F938F933A
:1008E0001F9288E08F93DF92CF920E9470342DB7D1
:1008F0003EB7285F3F4F0FB6F8943EBF0FBE2DBFE7
:1009000016C09F928F9286E393E09F938F931F92DE
:1009100088E08F93DF92CF920E9470344DB75EB71C
:10092000485F5F4F0FB6F8945EBF0FBE4DBF40E00B
:1009300050E0BE016F5F7F4FA296AEADBFADA297F4
:10094000D7C06BE373E0C6010E94DB11B601CE0194
:100950008D5A9F4F0E941B118C01C6010E94BC1131
:10096000012B89F5C5010E949F29A4966CAF7DAF2C
:100970008EAF9FAFA497CE0181960E949F291B0145
:100980002C01CE0189960E949F290E94DC3269AB1E
:100990007AAB8BAB9CAB81E08DABA4966CAD7DAD9F
:1009A0008EAD9FADA4970E94DC326EAB7FAB88AF5B
:1009B00099AFC201B1010E94DC327BAF6AAFBE01C8
:1009C0006F5C7F4FE3C06FE373E0C6010E94DB11F1
:1009D000B601CE018D5A9F4F0E941B118C01C6019A
:1009E0000E94BC11012B09F08AC0C5010E949F29F9
:1009F00020E030E04AE754E40E946A321B012C01F7
:100A00009B01AC01D70154966D917D918D919C9184
:100A100057970E94DC30882309F4F7C0F701248A35
:100A2000358A468A578AC7010E941C03D70154960B
:100A30002D903D904D905C9057971E960D911C9176
:100A40001F97A2019101F8016185728583859485C4
:100A50000E94DC30882309F4D8C0D80119962D9261
:100A60003D924D925C921C974E01B1E38B0E911C0E
:100A700086E0F40111928A95E9F720E030E040E247
:100A800051E4C201B1010E94DC3087FF17C09F9280
:100A90008F9285E393E09F938F931F9288E08F93CB
:100AA000DF92CF920E9470342DB73EB7285F3F4F40
:100AB0000FB6F8943EBF0FBE2DBF16C09F928F9207
:100AC00086E393E09F938F931F9288E08F93DF924A
:100AD000CF920E9470344DB75EB7485F5F4F0FB63C
:100AE000F8945EBF0FBE4DBF42E050E0B601D801A2
:100AF00012968D919C9113970E94D72786C063E42C
:100B000073E0C6010E94DB11B601CE018D5A9F4FE2
:100B10000E941B118C01C6010E94BC11012BE1F542
:100B2000C5010E949F29A4966CAF7DAF8EAF9FAF89
:100B3000A497CE0181960E949F291B012C01CE0112
:100B400089960E949F290E94DC326CAF7DAF8EAFE8
:100B50009FAF82E021968FAF2197A4966CAD7DADBB
:100B60008EAD9FADA4970E94DC3225966CAF7DAF11
:100B70008EAF9FAF2597C201B1010E94DC3227964C
:100B80007FAF6EAF2797BE01645C7F4FF701808512
:100B900091850E94800B39C067E473E0C6010E9412
:100BA000DB11B601CE018D5A9F4F0E941B118C01A3
:100BB000C6010E94BC11012B41F5C5010E949F296D
:100BC00020E030E048EC52E40E946A321B012C0124
:100BD0009B01AC01D70159966D917D918D919C91AE
:100BE0005C970E94DC30882329F0F701218E328E39
:100BF000438E548EC5010E949F29CE0181960E948A
:100C00009F29CE0189960E949F296A961FAD6A97F7
:100C1000112309F49AC0198E19A219A668E473E089
:100C2000CE01835B9F4F0E94DB116BE2CE01835BA1
:100C30009F4F0E94791164E872E0CE01835B9F4F61
:100C40000E948C111F921F938BE493E09F938F93CC
:100C50001F9284E08F938E01095B1F4F1F930F93A8
:100C60000E9470346BE2CE01835B9F4F0E9479112A
:100C7000B801C6010E94DB114D815E8169817A81D4
:100C8000CE01835B9F4F0E944B11C6010E94BC1195
:100C900062E173E0C8010E94DB112DB73EB7285F07
:100CA0003F4F0FB6F8943EBF0FBE2DBF898D8823EE
:100CB00021F0B501C8010E948C1189A1882351F04F
:100CC0006CE2C8010E947911BE016F5D7F4FC801BF
:100CD0000E948C1189A5882351F06CE2C8010E9402
:100CE0007911BE01675D7F4FC8010E948C11D80148
:100CF00014968D919C911597892B81F06DE3CE010F
:100D0000835B9F4F0E947911F80144815581608176
:100D10007181CE01835B9F4F0E944B1162964FAD54
:100D20006297B6012F968EAD9FAD2F970E94EB0B69
:100D3000C8010E94BC11CE01835B9F4F0E94BC1171
:100D40000E940A0BB6010E944A13CE018D5A9F4F92
:100D50000E94BC11D7011A968D919C911B97681621
:100D6000790609F01EC1A5961FADA5976EE473E044
:100D70008BE494E00E941B12412F50E060E070E091
:100D80002AE08BE494E00E94301260E173E08BE48F
:100D900094E00E941B1281E01E3008F480E0F7010D
:100DA000958D9813858F123409F0FBC0D7011A96E0
:100DB000ED91FC911B978281938126813781283C9C
:100DC000310509F0EEC0CDB6DEB6DF01A85BBF4F3E
:100DD0002C91215030E0A901415051096DB77EB7E7
:100DE000621B730B0FB6F8947EBF0FBE6DBF0DB7BD
:100DF0001EB70F5F1F4F3996D80161E070E0621790
:100E000073072CF4B190BD926F5F7F4FF8CFF8015C
:100E1000E40FF51F1082DC01ED91FC910480F58157
:100E2000E02D0995823009F4B2C018F4813041F008
:100E3000B3C0833009F44BC0843009F482C0ACC025
:100E4000C8010E94C1296130710581059105A9F58C
:100E5000F70100851185D80113968C91139788238B
:100E600009F1823080F012966C916F5FC8010E9488
:100E7000600BF80193818FEF890F813498F49817F4
:100E800089F083830CC060E0C8010E94600BD80128
:100E900013968C911397882329F013961C92C801FE
:100EA0000E94460BF701828593850E94620E6DEDCC
:100EB00072E08BE494E00E948D120E94DD18D7014D
:100EC00097966D937D938D939C939A9765C0C80177
:100ED0000E94C1294B015C012AE0AB01BC018BE4FB
:100EE00094E00E94301260E173E08BE494E00E9491
:100EF0001B1281149104A104B104E9F00E94DD18D1
:100F000028EE33E040E050E00E9424332093B10308
:100F10003093B2034093B3035093B403F2E08F0EC7
:100F2000911CA11CB11C8092AD039092AE03A092C3
:100F3000AF03B092B003D7011A968D919C911B9785
:100F400029C0C8010E94C1294B015C01672B682B95
:100F5000692BE9F00E94DD1828EE33E040E050E014
:100F60000E9424332093B1033093B2034093B30320
:100F70005093B403B2E08B0E911CA11CB11C809263
:100F8000AD039092AE03A092AF03B092B003F7010D
:100F9000828593850E94620E0FB6F894DEBE0FBE66
:100FA000CDBED70112968D919C9113976816790644
:100FB00009F0A6C0F30187819085009709F454C019
:100FC000039709F09DC087E090E00E9472286C01B1
:100FD000DC0112961C92129784E592E011969C9384
:100FE0008E938FE191E014969C938E93139783E0F8
:100FF00015968C93159781E016968C938EE090E071
:101000000E9472288C01FC01128280E692E091839A
:10101000808382E49EE8A1EBB1E083839483A5837F
:10102000B68382E0878384EF93E3A0E0B0E080871B
:101030009187A287B38785E793E095878487B60178
:10104000D7011A968D919C911B970E944C0FB80165
:10105000F701828593850E944C0F61EF72E08BE46B
:1010600094E00E948D124CC06AEF72E08BE494E031
:101070000E94F711C090B103D090B203E090B30387
:10108000F090B403C114D104E104F104E1F08090C4
:10109000AD039090AE03A090AF03B090B0030E9458
:1010A000DD18A50194012C193D094E095F0969015C
:1010B0007A0128EE33E040E050E00E942433C20E73
:1010C000D31EE41EF51E2AE0B701A6018BE494E0CE
:1010D0000E94301260E173E08BE494E00E941B12E6
:1010E00064EF72E08BE494E00E94F7112091120506
:1010F00030911305CE010196821B930B0E9451097A
:10110000A8962EAD3FADA8970FB6F8943EBF0FBE80
:101110002DBFC959DF4F0FB6F894DEBF0FBECDBF4C
:10112000DF91CF911F910F91FF90EF90DF90CF90C3
:10113000BF90AF909F908F907F906F905F904F90F7
:101140003F902F9008950C940729FC012081318154
:10115000828193812817390719F0822F0C94D009C6
:101160000895CF93DF93EC019CB59F7D9CBD9CB50A
:10117000937F9CBD9CB59C7F9CBD9DB591609DBDA2
:101180008A810E94D0098C899D89DF91CF910C942E
:10119000981861E00C94B10860E00C94B1088EBD21
:1011A00000000DB407FEFDCF8EB508951F920F927B
:1011B0000FB60F9211242F933F934F935F936F932A
:1011C0007F938F939F93AF93BF93EF93FF93E091A0
:1011D000D703F091D803309709F451C0968DA685B6
:1011E000B785858591FF04C09C91892329F447C068
:1011F0009C91892309F043C0A389B4899C91858976
:10120000809589238C93868997890197F1F7608D62
:10121000718DA685B785558538E020E0CB01019713
:10122000F1F7822F90E095958795282F4C914523D3
:1012300009F02068315091F7868D81FD20958091CD
:10124000D60390E001968F7199273091D503381716
:1012500049F0A091D603B0E0AB54BC4F2C938093DF
:10126000D60303C0868D8160868F828D938D019712
:10127000F1F7A389B4899C918589892B8C93FF917F
:10128000EF91BF91AF919F918F917F916F915F91FE
:101290004F913F912F910F900FBE0F901F90189577
:1012A0000895CF92DF92EF92FF92CF93DF936C017C
:1012B000990FEE08FF08F7FE16C06DE28BE494E08C
:1012C0000E94F011EC0144275527BA014C195D0921
:1012D0006E097F092AE08BE494E00E9430127C01C1
:1012E000EC0EFD1E08C02AE0B701A6018BE494E0D5
:1012F0000E9430127C0160E173E08BE494E00E9474
:101300001B128E0D9F1DDF91CF91FF90EF90DF900C
:10131000CF900895CF93DF9383E090E00E947228EE
:1013200024E431E0FC01318320832EEF2283C0EFDF
:10133000D3E0BC018A859B850E944C0F0E94DD187A
:101340006BA37CA38DA39EA3DF91CF9108958330DF
:1013500081F028F4813099F08230A1F0089587302F
:10136000A9F08830B9F08430D1F4809180008F7D6D
:1013700003C0809180008F7780938000089584B5AA
:101380008F7702C084B58F7D84BD08958091B000B1
:101390008F7703C08091B0008F7D8093B000089557
:1013A0001F93CF93DF93282F30E0F901EF5FFC4FBD
:1013B0008491F901E35CFC4FD491F901E75DFC4FA6
:1013C000C491CC23C9F0162F81110E94A709EC2FDC
:1013D000F0E0EE0FFF1FEB5EFC4FA591B4918FB7CD
:1013E000F894111105C09C91ED2FE095E92302C0FE
:1013F000EC91ED2BEC938FBFDF91CF911F9108956E
:10140000089581E00895089582E008950C940729D5
:101410000C9407290C9407290C9407290C9407298C
:101420000C940729CF92DF92EF92FF920F931F93B4
:10143000CF93DF93CDB7DEB7E0970FB6F894DEBF5A
:101440000FBECDBF8C017B01E9E0F4E065917491A2
:101450009E012F5F3F4F6901C9010E94E829F801F1
:1014600086818F9385818F9384818F9383818F93DE
:1014700085858F9384858F9383858F9382858F93C2
:1014800081858F9380858F9387811F928F93DF92C1
:10149000CF921F9280E38F93FF92EF920E9470345D
:1014A000F701E80FF11D10820FB6F894DEBF0FBEF2
:1014B000CDBFE0960FB6F894DEBF0FBECDBFDF9173
:1014C000CF911F910F91FF90EF90DF90CF900895F3
:1014D000CF92DF92EF92FF920F931F93CF93DF9300
:1014E000CDB7DEB7E0970FB6F894DEBF0FBECDBF25
:1014F0007C018B01E3E0F4E0659174919E012F5F24
:101500003F4F6901C9010E94E829F70186811F92B6
:101510008F9385811F928F9384818F9383818F9383
:10152000DF92CF921F9280E38F931F930F930E94BD
:101530007034F801E80FF11D10820FB6F894DEBF89
:101540000FBECDBFE0960FB6F894DEBF0FBECDBF85
:10155000DF91CF911F910F91FF90EF90DF90CF908F
:1015600008950F931F93CF93DF93FC01248D2230B6
:1015700018F0258D222311F080E047C08C01EC018A
:101580002296CE010E941E1860E0CE010E94C31771
:10159000482F416060E0CE010E94681740E767E095
:1015A000CE010E94681761E0CE010E94A508F801F3
:1015B0008385882351F0F8012089A801455F5F4F9A
:1015C0006AE0CE010E948C1714C062E0CE010E9436
:1015D000C317E8E5F2E0E49121E030E001C0220F1A
:1015E000EA95EAF72095422F482362E0CE010E9457
:1015F00068176DE1CE010E94C31781FF03C0CE01C1
:101600000E94561781E0F801858FDF91CF911F91DD
:101610000F9108958091E1039091E203892B89F560
:101620008EE390E00E947228FC018CE692E09183A8
:10163000808389E090E0938382838AE090E09583C1
:101640008483108680E28187128685E0808B85E026
:1016500090E0A0E0B0E0868B978BA08FB18F1386CF
:10166000128E81E0838F148E158E168E178E10A227
:1016700011A212A213AE15AE14AEF093E203E093E2
:10168000E1038091E1039091E2030895CF93DF930A
:101690001F92CDB7DEB7FC0163818DE391E06983D2
:1016A0000E9403326981681739F08DE391E00F9051
:1016B000DF91CF910C940B320F90DF91CF91089571
:1016C000CF93DF931F92CDB7DEB7603408F06F730E
:1016D000FC012281261779F062838EE391E0698311
:1016E0000E9403326981681721F08EE391E00E9425
:1016F0000B3281E001C080E00F90DF91CF9108951F
:10170000BF92CF92DF92EF92FF920F931F93CF93EE
:10171000DF9300D0CDB7DEB78C01C62EFC018381EC
:10172000B280803418F52B2D280F203408F02F7349
:101730008F5FF8018383C80129837A830E94460B57
:101740006BE02981269FE02C11240C2D7A81172F24
:10175000F12CF80161918F018F2D8E0D90E00E9488
:101760000B32F394FBE0FF12F4CF26C08BE0B89E5F
:10177000D02C1124E62EF72EC12CF70161917F01A8
:101780008C2D8D0D90E00E940B32C394FBE0CF12A4
:10179000F4CF61E06B0D603408F060E0C8010F9099
:1017A0000F90DF91CF911F910F91FF90EF90DF90FD
:1017B000CF90BF900C94600B8BE00F900F90DF9157
:1017C000CF911F910F91FF90EF90DF90CF90BF903E
:1017D000089508950895FC01DC010D900020E9F7BB
:1017E0009F938F9385E693E09F938F93AE1B1F92F9
:1017F000AF937F936F930E9470348DB79EB7089616
:101800000FB6F8949EBF0FBE8DBF08955F926F9282
:101810007F928F929F92AF92BF92CF92DF92EF9280
:10182000FF920F931F93CF93DF93CDB7DEB72D9722
:101830000FB6F894DEBF0FBECDBF6C014B015A014D
:101840008901FA01108262E173E0CE0107960E94DD
:10185000DB1162E173E0CE0101960E94DB11F6011B
:1018600061917F0188E4C82E83E0D82E20E090E2C9
:10187000592E5C0C3801F8E06F0E711C61110EC01E
:101880008B859C85892B09F466C08F8198852D876F
:101890000E94A329F50180832D855DC06A3081F304
:1018A0005C1471F32230C9F028F4222349F021306E
:1018B00071F04AC0243041F1A8F02530B9F144C09C
:1018C0006B32E9F1F60180816817F1F156C06B3295
:1018D000C1F16D33C1F1C4012DC06D33A1F1CE0151
:1018E000079628C06C3221F54D81442329F0B801B8
:1018F00089819A810E94EB0B62E173E0CE0101962F
:101900000E949B1124E020C06C3291F44D8144234D
:1019100029F0B30189819A810E94EB0B62E173E0A7
:10192000CE0101960E949B1125E00EC06C3261F041
:10193000CE0101962D870E9479112D8505C021E0E9
:1019400003C022E001C023E0F70161917F01FFEFB6
:10195000CF1ADF0A93CF4D81442389F089819A8180
:10196000B801233039F0243019F4685F7F4F02C08A
:10197000605F7F4F0E94EB0B02C010E001C011E0DE
:10198000CE0101960E94BC11CE0107960E94BC11A7
:10199000812F2D960FB6F894DEBF0FBECDBFDF911D
:1019A000CF911F910F91FF90EF90DF90CF90BF905C
:1019B000AF909F908F907F906F905F900895CF929F
:1019C000DF92EF92FF920F931F93CF93DF93CDB7E8
:1019D000DEB72D970FB6F894DEBF0FBECDBF7C01EA
:1019E0002EE5E20EF11CD7012C91261709F47FC0D9
:1019F0008C016C9386E0FE013796DF01282F1D9243
:101A00002A95E9F718870F8370E07A876987DE01E6
:101A1000119601900D928A95E1F7F801E553FF4F79
:101A200080819181009769F0DC01ED91FC91048047
:101A3000F581E02D29813A814B815C816D817E8128
:101A40000995F7018081980127593F4F6901D80115
:101A5000AF59BF4F7D018D3081F028F4843051F0B3
:101A60008A30E9F025C0873169F08831C1F08E30C5
:101A7000F9F415C080E29EE407C06AE0C8010E9444
:101A8000DF0C0DC080E395E7F601918380830E940F
:101A9000DD18D7016D937D938D939C9313970E94CE
:101AA000DD18F801EB59FF4F6083718382839383C4
:101AB00066E174E08BE494E00E94F711CE010D968C
:101AC0002091120530911305821B930B0E9451093E
:101AD00082E390E0F601918380830E94DD18D701B4
:101AE0006D937D938D939C93139781E001C080E06B
:101AF0002D960FB6F894DEBF0FBECDBFDF91CF910C
:101B00001F910F91FF90EF90DF90CF900895CF93AA
:101B1000DF93EC016BE00E94DF0CFE01E75BFF4FFF
:101B200068E673E0808191810E9479120E94DD183D
:101B3000CF59DF4F688379838A839B83DF91CF916D
:101B40000895EF92FF920F931F93CF93DF93CDB73A
:101B5000DEB7C054D1090FB6F894DEBF0FBECDBFBB
:101B60008C0189EF92E09F938F9382E793E09F939C
:101B70008F93CE0101967C019F938F930E94A03496
:101B8000F801E75BFF4FB701808191810E947912D4
:101B900065E1C8010E94DF0C0E94DD18F801EF59D1
:101BA000FF4F60837183828393830F900F900F9018
:101BB0000F900F900F90C05CDF4F0FB6F894DEBF10
:101BC0000FBECDBFDF91CF911F910F91FF90EF908E
:101BD0000895EF92FF920F931F93CF93DF93CDB7AA
:101BE000DEB7C054D1090FB6F894DEBF0FBECDBF2B
:101BF0008C018CE893E09F938F9387E992E09F9309
:101C00008F9385E993E09F938F93CE0101967C019A
:101C10009F938F930E94A034F801E75BFF4FB701B9
:101C2000808191810E9479126CE0C8010E94DF0CD2
:101C30000E94DD18F801EF59FF4F608371838283A2
:101C400093830FB6F894DEBF0FBECDBFC05CDF4FED
:101C50000FB6F894DEBF0FBECDBFDF91CF911F91BD
:101C60000F91FF90EF9008950F931F93CF93DF9301
:101C7000EC01FC01E75BFF4F6FE074E08081918134
:101C80000E948D12FE01E759FF4F80ED97E091838E
:101C900080830E94DD188E010F591F4FF801608369
:101CA0007183828393830E94DD18F80160837183BE
:101CB0008283938362E0CE01DF91CF911F910F91D8
:101CC0000C94DF0CCF93DF93DC01BC01655B7F4F8D
:101CD000FB015081552331F1EC01C45ADF4F48819B
:101CE0009C01240F311D240F311DF901E45BFF4FCE
:101CF00080819181118210824F5F483010F44883B7
:101D000001C018825150FB01508313961C921E9201
:101D10001297FD01E85BFF4F108217961C921E92EE
:101D2000169702C080E090E0DF91CF910895EF9286
:101D3000FF920F931F93CF93DF93CDB7DEB72C970E
:101D40000FB6F894DEBF0FBECDBF7C012FE5E20ECB
:101D5000F11CD7012C91261709F490C08C016C93CB
:101D600086E0FE013796DF01282F1D922A95E9F7BC
:101D700018870F8370E07A876987DE0111960190DA
:101D80000D928A95E1F7F801E553FF4F808191812B
:101D9000009769F0DC01ED91FC910480F581E02D64
:101DA00029813A814B815C816D817E810995F701A2
:101DB00080818D33D9F140F48633C1F18C33B1F198
:101DC000843309F059C032C08234E1F018F48E3304
:101DD00069F152C0803581F1813509F04DC00E9412
:101DE000DD18F801EB59FF4F608371838283938381
:101DF00063E3C8010E94970EF801E759FF4F88E896
:101E000093E12FC063E3C8010E94970EF801E759E0
:101E1000FF4F88EC90E0918380830E94DD18F801E9
:101E2000EF59FF4F60837183828393830E94DD1893
:101E3000F801EB59FF4F1CC00E94DD18F801EB5967
:101E4000FF4F6083718382839383C8010E94620E77
:101E500063E3C8010E94970EF801E759FF4F88EE2F
:101E600093E0918380830E94DD18F801EF59FF4FC2
:101E7000608371838283938381E001C080E02C962C
:101E80000FB6F894DEBF0FBECDBFDF91CF911F918B
:101E90000F91FF90EF900895EF92FF920F931F9391
:101EA000CF93DF93AC01DC01A55BBF4F2C91EC011C
:101EB000C45ADF4F283088F49881920F983008F088
:101EC0009770E92FF0E0B696EE0FFF1FE40FF51FB5
:101ED000718360832F5F2C932BC08B017C018881E1
:101EE0009A01280F311D280F311DD901A45BBF4F66
:101EF0008D919C9111971D921C92009739F0DC01F5
:101F0000ED91FC910280F381E02D09958881282FC5
:101F100030E02A5D3F4F220F331FF701E20FF31F1E
:101F2000118300838F5F883010F4888301C018828A
:101F300081E0DF91CF911F910F91FF90EF90089575
:101F40000895CF92DF92EF92FF920F931F93CF935A
:101F5000DF936C017A018B01C0E0D0E0CE15DF0584
:101F600089F0D8016D918D01D601ED91FC91019020
:101F7000F081E02DC6010995892B11F47E0102C084
:101F80002196ECCFC701DF91CF911F910F91FF9068
:101F9000EF90DF90CF900895FC01538D448D252F55
:101FA00030E0842F90E0821B930B541710F0CF96F3
:101FB000089501970895FC01918D828D981761F025
:101FC000828DDF01A80FB11D5D968C91928D9F5F70
:101FD0009F73928F90E008958FEF9FEF0895FC011B
:101FE000918D828D981731F0828DE80FF11D858DCE
:101FF00090E008958FEF9FEF0895FC01918D228D61
:10200000892F90E0805C9F4F821B91098F739927E5
:1020100008958BE494E00E94FD0F21E0892B09F4E0
:1020200020E0822F0895FC01848DDF01A80FB11DEF
:10203000A35ABF4F2C91848D90E001968F739927FE
:10204000848FA689B7892C93A089B1898C918064EB
:102050008C93938D848D981306C00288F389E02DAC
:1020600080818F7D80830895EF92FF920F931F935D
:10207000CF93DF93EC0181E0888F9B8D8C8D98133B
:1020800005C0E889F989808185FD24C0F62E0B8D75
:1020900010E00F5F1F4F0F731127E02E8C8DE81299
:1020A0000CC00FB607FCFACFE889F989808185FF5B
:1020B000F5CFCE010E941310F1CF8B8DFE01E80FFA
:1020C000F11DE35AFF4FF0820B8FEA89FB89808173
:1020D000806207C0EE89FF896083E889F989808181
:1020E0008064808381E090E0DF91CF911F910F9118
:1020F000FF90EF900895CF93DF93EC01888D8823B4
:10210000C9F0EA89FB89808185FD05C0A889B98964
:102110008C9186FD0FC00FB607FCF5CF808185FF3F
:10212000F2CFA889B9898C9185FFEDCFCE010E94AD
:102130001310E7CFDF91CF91089580E090E0892BD5
:1021400029F00E94091081110C94000008950E944A
:102150002A340C9407290C9407290C9407290F930F
:102160001F93CF93DF93EC0188819981009729F029
:102170002A813B812617370788F48B016F5F7F4FD9
:102180000E946033009761F0998388831B830A83E0
:102190002C813D81232B11F4FC01108281E001C0D0
:1021A00080E0DF91CF911F910F910895EF92FF9200
:1021B0000F931F93CF93DF93EC017B018A01BA0148
:1021C0000E94AF102881398181110DC02115310580
:1021D00019F0C9010E940729198218821D821C82E8
:1021E0001B821A8206C01D830C83B701C9010E949D
:1021F0004134CE01DF91CF911F910F91FF90EF906D
:102200000895CF93DF93FC0124813581232B71F056
:10221000FB01DC01CD91DC9160817181CE010E94D6
:102220005634009719F08C1B9D0B02C08FEF9FEF67
:10223000DF91CF910895CF93DF93DC01ED91FC9175
:10224000EB01A881B981309711F01097C9F410976C
:1022500059F0EB012C813D81232B31F08C9190E0E2
:1022600091958195910914C0309781F0DC01149605
:102270008D919C911597892B49F0808190E008C041
:10228000BD01CF01DF91CF910C94383480E090E014
:10229000DF91CF910895EF92FF920F931F93CF9309
:1022A000DF93FC01248135816115710511F480E013
:1022B00019C041155105A9F07B01EC018A01020FFB
:1022C000131FB8010E94AF10882389F32881398138
:1022D0008C819D81B701820F931F0E9441341D8321
:1022E0000C8381E0DF91CF911F910F91FF90EF90D0
:1022F0000895CF93DF9300D0CDB7DEB769831A82FC
:1023000041E050E0BE016F5F7F4F0E944B110F9084
:102310000F90DF91CF9108956115710551F0FB0188
:1023200001900020E9F73197AF01461B570B0C9441
:102330004B1180E00895CF93DF93EC016115710597
:1023400059F0FB0101900020E9F73197AF01461BDE
:10235000570B0E94D6100CC088819981009711F00C
:102360000E940729198218821D821C821B821A82F0
:10237000CE01DF91CF910895FC01808191810C9471
:102380000729FB01DC0111961C921E9213961C92E8
:102390001E92129715961C921E92149786179707F5
:1023A00049F0608171816115710521F04481558189
:1023B0000C94D6100895FC011182108213821282AF
:1023C000158214826115710551F0FB010190002006
:1023D000E9F73197AF01461B570B0C94D6100895BF
:1023E000DC01ED91FC910190F081E02D0994EF92D8
:1023F000FF920F931F93CF93DF938C017B01C0E07B
:10240000D0E0F701EC0FFD1F6491662361F0D80165
:10241000ED91FC910190F081E02DC8010995892B87
:1024200011F02196EECFCE01DF91CF911F910F9148
:10243000FF90EF9008956115710579F0FB0101900F
:102440000020E9F73197AF01461B570BDC01ED91F6
:10245000FC910280F381E02D099480E090E00895E2
:102460004F925F926F927F92EF92FF920F931F9322
:10247000CF93DF93CDB7DEB7A1970FB6F894DEBF49
:102480000FBECDBF7C01FA01CB0119A2223008F4A6
:102490002AE08E010F5D1F4F422E512C612C712CB2
:1024A000BF01A30192010E942433F901CA01015026
:1024B00011096A3014F4605D01C0695CD8016C9345
:1024C000232B242B252B61F7B801C7010E941B1277
:1024D000A1960FB6F894DEBF0FBECDBFDF91CF91AE
:1024E0001F910F91FF90EF907F906F905F904F90B2
:1024F00008950F931F93CF93DF93EC010E941B125B
:102500008C0160E173E0CE010E941B12800F911FCD
:10251000DF91CF911F910F9108950F931F93CF9348
:10252000DF93EC010E94F7118C0160E173E0CE01B2
:102530000E941B12800F911FDF91CF911F910F916D
:1025400008951F920F920FB60F9211242F933F936D
:102550004F935F936F937F938F939F93AF93BF93AB
:10256000EF93FF938BE494E00E941310FF91EF919F
:10257000BF91AF919F918F917F916F915F914F919B
:102580003F912F910F900FBE0F901F9018951F92A3
:102590000F920FB60F9211242F938F939F93EF9367
:1025A000FF93E0915B04F0915C048081E091610411
:1025B000F091620482FD12C09081809164048F5F6B
:1025C0008F7320916504821751F0E0916404F0E06C
:1025D000E55BFB4F958F8093640401C08081FF9180
:1025E000EF919F918F912F910F900FBE0F901F90A1
:1025F0001895CF93DF9300D000D000D0CDB7DEB7D1
:10260000FC01818592850097B1F02E2FFA83E98332
:10261000628170E0462F7C836B8337966E2FFE833A
:10262000ED83DC01ED91FC910480F581E02D3A8190
:102630005C817E81099526960FB6F894DEBF0FBEA9
:10264000CDBFDF91CF910895089508950895CF9358
:10265000DF93DB01EC018CAD9DAD0097C1F0EC0187
:10266000E881F9810480F581E02D2C9111963C914F
:10267000119712964C91129713965C91139714969A
:102680006C91149715967C91DF91CF910994DF910D
:10269000CF9108956F927F929F92AF92BF92CF9207
:1026A000DF92EF92FF920F931F93CF93DF9300D0AF
:1026B00000D000D0CDB7DEB77C015B01DC015A96BB
:1026C0009C905A97992009F4AFC05B969C905B97B9
:1026D000992009F4A9C05C968C91823010F4912C59
:1026E000A3C0D7015D968C9187010E5F1F4F8111AA
:1026F00064C0F50101900020E9F7D7011996DC903C
:10270000CE2ECA18DC1408F4CD2CF7018285811175
:1027100002C0DC1801C0D12CC8010E94CC0880EA9C
:102720000E94CF083501CA0CC61431F0D3018D9137
:102730003D010E94CF08F8CFDD2029F080E00E9403
:10274000CF08DA94F9CFC8010E94C90861E0C80136
:102750000E94A508C8010E94CC088FEF0E94CF08F4
:10276000D82EC8010E94C9088D2D807399F360E0AE
:10277000C8010E94A50840E767E0C8010E946817E9
:1027800084FF04C0C8010E945617912CBE016F5FE0
:102790007F4F86E0FB0111928A95E9F78DE590E085
:1027A0009C838B83FA82E982BE82AD82C7010E943C
:1027B0002713C7010E94B10A37C060E0C8010E9418
:1027C000A508F701828993890E9498186DE1C801D4
:1027D0000E94C31781FF08C0F701828993890E9474
:1027E0009818C8010E94561760E0C8010E94C317DC
:1027F000482F4E7F60E0C8010E94681762E0C80160
:102800000E94C317E8E5F2E0E49141E050E001C026
:10281000440FEA95EAF7482B62E0C8010E94681766
:10282000D7015D961C9265CF892D26960FB6F89438
:10283000DEBF0FBECDBFDF91CF911F910F91FF90F3
:10284000EF90DF90CF90BF90AF909F907F906F9070
:1028500008950F931F93CF93DF9300D000D000D043
:10286000CDB7DEB78C01BE016F5F7F4F86E0FB0105
:1028700011928A95E9F78AE590E09C838B831A830D
:102880000983C8014C969E838D83C8010E9427133B
:10289000F801848D8E3119F4F801168E11C095EF70
:1028A000980F9330A8F4F80183A1882331F0B80180
:1028B0006D5D7F4FC8010E944A1381E0F801868F49
:1028C0000E94DD18F801678F70A381A392A302C054
:1028D0008A3011F326960FB6F894DEBF0FBECDBF37
:1028E000DF91CF911F910F91089583E00895CB015F
:1028F00008957F928F929F92AF92BF92CF92DF9274
:10290000EF92FF920F931F93CF93DF93EC01490156
:102910005A018B01C12CD12C7601C814D904EA04C8
:10292000FB0484F5F80171908F018F8580FF0BC047
:10293000E881F9810084F185E02D20E144E060E048
:1029400070E0CE010995EB85FC858D859E85E817A5
:10295000F90738F470828B859C8501969C878B875C
:102960000BC0E881F981672D70E0028CF38DE02DBA
:10297000CE010995019649F02FEFC21AD20AE20A58
:10298000F20ACBCFB401C50102C0B601C701DF9185
:10299000CF911F910F91FF90EF90DF90CF90BF905C
:1029A000AF909F908F907F900895CF93DF93EC012D
:1029B000E881F9810288F389E02D09958F3F2FEF97
:1029C000920731F02D813E812F5F3F4F3E832D8353
:1029D000DF91CF9108958FEF9FEF089560E070E051
:1029E000CB01089580E090E00895CB010895CF9346
:1029F000DF93EC0188899989DC01ED91FC910084D9
:102A0000F185E02D0995892BA9F388899989DC0145
:102A1000ED91FC910284F385E02DDF91CF91099433
:102A2000CF93DF93EC0188899989DC01ED91FC91CA
:102A30000084F185E02D0995892BA9F3888999896E
:102A4000DC01ED91FC910484F585E02DDF91CF91BF
:102A50000994AF92BF92CF92DF92EF92FF920F93C1
:102A60001F93CF93DF9300D000D0CDB7DEB78C019A
:102A70005B01C12CD12C7601F80180899189DC01A0
:102A8000ED91FC910284F385E02D29833A834B83F9
:102A90005C83099529813A814B815C818F3F71F07C
:102AA000C216D306E406F5064CF4D5018D935D01FC
:102AB000BFEFCB1ADB0AEB0AFB0ADECFC701B60178
:102AC0000F900F900F900F90DF91CF911F910F916A
:102AD000FF90EF90DF90CF90BF90AF900895DC0112
:102AE00050968D919C915197DC01ED91FC91008461
:102AF000F185E02D099480E090E0089580E090E079
:102B0000089580E090E0089580E090E008950895B1
:102B1000CF93DF93C0911B04D0911C04E881F9810D
:102B20000084F185E02DCE010995892BB9F3E88168
:102B3000F9810284F385E02DCE01DF91CF910994D4
:102B40001F93CF93DF93182FC0911B04D0911C04C7
:102B50008A3041F4E881F9810190F081E02D6DE047
:102B6000CE010995E881F9810190F081E02D612F76
:102B7000CE01099521E030E0019711F420E030E02A
:102B8000C901DF91CF911F9108950C9407290C94EE
:102B900007290C940729089508950C940729DC014E
:102BA000ED91FC91369720813181820F931F0C9417
:102BB000CD15FB0120813181FC0131832083FB0194
:102BC00042815381F901369720813181FC01E20F66
:102BD000F31F51834083089528E731E0FC013183DE
:102BE000208322E831E0318F208F68E871E00C9477
:102BF000D915DC01ED91FC91369720813181820F4E
:102C0000931F0C94EC15CF93DF93EC010E94EC150D
:102C1000CE01DF91CF910C940729DC01ED91FC915D
:102C2000369720813181820F931F0C9403160C94E8
:102C30000729089508950C940729DC01ED91FC9172
:102C4000369720813181820F931F0C941B16FB0154
:102C500020813181FC0131832083FB01428153813A
:102C6000F901369720813181FC01E20FF31F518376
:102C70004083089520EF31E0FC01318320832AEF67
:102C800031E0358B248B60E072E00C942716DC0178
:102C9000ED91FC91369720813181820F931F0C9426
:102CA0003A16CF93DF93EC010E943A16CE01DF91E2
:102CB000CF910C940729DC01ED91FC91369720818E
:102CC0003181820F931F0C9451160C940729CF92D7
:102CD000DF92EF92FF920F931F93CF93DF93CDB7C5
:102CE000DEB7E0970FB6F894DEBF0FBECDBF6C0124
:102CF0008B01E1E8F4E0659174919E012F5F3F4FF5
:102D00007901C9010E94E829F60182811F928F93FF
:102D1000FF92EF921F9280E38F931F930F930E9475
:102D20007034F801E80FF11D10820FB6F894DEBF81
:102D30000FBECDBFE0960FB6F894DEBF0FBECDBF7D
:102D4000DF91CF911F910F91FF90EF90DF90CF9087
:102D500008950F931F93CF93DF938C01EB016F3F87
:102D60008FEF780719F480E090E00FC06A3031F4FB
:102D70006DE0F801808991890E94F0116C2FF801B3
:102D8000808991890E94F011CE01DF91CF911F912E
:102D90000F9108958F929F92BF92CF92DF92EF9200
:102DA000FF920F931F93CF93DF9300D000D0CDB746
:102DB000DEB78C014B01C12CD12C7601C216D30693
:102DC000E406F50644F5F401B1904F01FAE0BF12B4
:102DD0000EC06DE0F8018089918929833A834B8385
:102DE0005C830E94F0115C814B813A8129816B2DBB
:102DF000F8018089918929833A834B835C830E94FF
:102E0000F011FFEFCF1ADF0AEF0AFF0A5C814B8156
:102E10003A812981D3CFCA01B9010F900F900F9049
:102E20000F90DF91CF911F910F91FF90EF90DF9066
:102E3000CF90BF909F908F9008950895FF920F9329
:102E40001F93CF93DF939C01DC01AC5BBF4F9C9140
:102E500040E4491BFB018481481708F4842FFB01DF
:102E6000C081D18140E050E0682F70E0092F10E070
:102E70004617570754F4F990FA01E00FF11FE20FDB
:102E8000F31FF4824F5F5F4FF3CF980F9C93F901CC
:102E9000E90FF11D1482DF91CF911F910F91FF90E7
:102EA0000895089508950895089508951F93CF9360
:102EB000DF93EC010E94CC0881EE0E94CF08182F0E
:102EC000CE010E94C908812FDF91CF911F910895F3
:102ED000EF92FF921F93CF93DF9300D0CDB7DEB771
:102EE0007C014A8369830E94CC086981862F8F7197
:102EF00080620E94CF08182F4A81842F0E94CF0839
:102F0000C7010E94C908812F0F900F90DF91CF91C8
:102F10001F91FF90EF900895CF92DF92EF92FF9272
:102F20000F931F93CF93DF9300D01F92CDB7DEB7DF
:102F30007C01142F2A835B8369830E94CC086981FA
:102F4000862F8F7180620E94CF08082FC12E5B816F
:102F5000D52E2A81120F1C1531F0F60181916F01D7
:102F60000E94CF08F8CFC7010E94C908802F0F9098
:102F70000F900F90DF91CF911F910F91FF90EF90E5
:102F8000DF90CF900895EF92FF921F93CF93DF933E
:102F90001F92CDB7DEB77C0169830E94CC0869819E
:102FA000862F8F710E94CF088FEF0E94CF08182FB5
:102FB000C7010E94C908812F0F90DF91CF911F9107
:102FC000FF90EF900895EF92FF920F931F93CF938E
:102FD0008C017B0166E00E94C317C82FC77D82E089
:102FE000E816F10431F4C0628BE990E0A0E0B0E0B3
:102FF0000DC0EA94EF2829F085E590E0A0E0B0E06C
:1030000005C0C86081E490E0A0E0B0E0F801808BEA
:10301000918BA28BB38B4C2F66E0C8010E9468177E
:1030200066E0C8010E94C31791E08C1390E0892FDD
:10303000CF911F910F91FF90EF900895CF93DF9361
:10304000EC0160E00E94C31781FD0EC0482F426072
:1030500060E0CE010E94681765E070E080E090E0DB
:10306000DF91CF910C94A318DF91CF9108953FB7D2
:10307000F8948091E8039091E903A091EA03B0915C
:10308000EB0326B5A89B05C02F3F19F00196A11DA3
:10309000B11D3FBFBA2FA92F982F8827820F911DEE
:1030A000A11DB11DBC01CD0142E0660F771F881F35
:1030B000991F4A95D1F70895CF93DF9390E0FC01D3
:1030C000E35CFC4F2491FC01E75DFC4F8491882375
:1030D00061F190E0880F991FFC01ED57FB4FC591FE
:1030E000D491FC01EB5EFC4FA591B491611109C034
:1030F0009FB7F8948881209582238883EC912E23B2
:103100000BC0623061F49FB7F8943881822F8095AC
:1031100083238883EC912E2B2C939FBF06C08FB7FF
:10312000F894E8812E2B28838FBFDF91CF910895EB
:103130008230910538F0880F991F880F991F0597E5
:103140000197F1F708958F929F92AF92BF92CF921D
:10315000DF92EF92FF926B017C010E9437184B01C6
:103160005C01C114D104E104F104F1F00E943718AC
:10317000DC01CB0188199909AA09BB09883E934053
:10318000A105B10570F321E0C21AD108E108F108E8
:1031900088EE880E83E0981EA11CB11CC114D104D6
:1031A000E104F10419F7DDCFFF90EF90DF90CF90AD
:1031B000BF90AF909F908F9008952FB7F894609133
:1031C000E4037091E5038091E6039091E7032FBF3C
:1031D00008951F920F920FB60F9211242F933F93D1
:1031E0008F939F93AF93BF938091E4039091E503F6
:1031F000A091E603B091E7033091E30323E0230FAE
:103200002D3720F40196A11DB11D05C026E8230F1E
:103210000296A11DB11D2093E3038093E4039093D4
:10322000E503A093E603B093E7038091E803909150
:10323000E903A091EA03B091EB030196A11DB11D32
:103240008093E8039093E903A093EA03B093EB0320
:10325000BF91AF919F918F913F912F910F900FBE92
:103260000F901F901895CF93DF93CDB7DEB7C95756
:10327000D1090FB6F894DEBF0FBECDBF789484B5E8
:10328000826084BD84B5816084BD85B5826085BD62
:1032900085B5816085BD80916E00816080936E00F0
:1032A00010928100809181008260809381008091E2
:1032B0008100816080938100809180008160809393
:1032C00080008091B10084608093B1008091B00053
:1032D00081608093B00080917A00846080937A004E
:1032E00080917A00826080937A0080917A00816078
:1032F00080937A0080917A00806880937A0010929F
:10330000C10061E085E00E945C1861E087E00E94F6
:103310005C1861E086E00E945C18E0915B04F0912B
:103320005C0482E08083E0915704F091580410829D
:10333000E0915904F0915A0480E180831092630473
:10334000E0915F04F091600486E08083E0915D0489
:10335000F0915E04808180618083E0915D04F09152
:103360005E04808188608083E0915D04F0915E045A
:10337000808180688083E0915D04F0915E048081AB
:103380008F7D8083E091F203F091F303309721F079
:1033900080EF93E0928781870091F6031091F70305
:1033A0000115110539F080EF93E0D801DD969C936B
:1033B0008E93DC97E091FA03F091FB03309759F07C
:1033C000E553FF4F80819181805F934021F080EF32
:1033D00093E091838083E090F803F090F9038DE30C
:1033E00091E00E940332F70183838EE391E00E9413
:1033F0000332D70112968C93F801828D882341F015
:10340000848D823028F0838D882311F40C943C2223
:10341000E090F603F090F70387010E5F1F4FD7018E
:1034200012968D919C91139714962D913C9115971E
:103430008217930719F061E00E945C18F7018481FC
:103440009581228133812817390719F061E00E94A4
:103450005C18DFB6F8948091AC03811127C0E3E3D8
:10346000F3E08491E7E4F3E09491E82FF0E0EE0FCD
:10347000FF1FED57FB4FA591B491EC91E92321F487
:1034800061E08AE00E94D00961E08AE00E945C1855
:103490008CB580618CBD8CB580648CBD61E08DE0A5
:1034A0000E945C1861E08BE00E945C188091AC0384
:1034B0008F5F8093AC03DFBE60E0C8010E94A50867
:1034C00061E0C8010E94B10865E070E080E090E032
:1034D0000E94A3184CE060E0C8010E9468174FE505
:1034E00064E0C8010E94681762E070E0C8010E94B1
:1034F000E317882321F081E0D70118968C9366E0CA
:10350000C8010E94C317D82E60E070E0C8010E9475
:10351000E317C8010E94CC0880E50E94CF0883E72A
:103520000E94CF08C8010E94C90840E06DE1C801AF
:103530000E94681740E06CE1C8010E946817F7011B
:10354000128640E767E0C8010E9468174CE465E016
:10355000C8010E946817C8010E94CC0882EE0E9430
:10356000CF08C8010E94C908C8010E945617C801A7
:103570000E941E1860E0C8010E94C317482F4E7FAA
:1035800060E0C8010E9468178FEF8D0D8E3F08F034
:103590009FC044EA64E0C8010E94681740E06DE102
:1035A000C8010E94681740E06CE1C8010E946817DA
:1035B000D7011A961C921A9788E119968C9319973D
:1035C00081E062968FAF629763961FAE63976496B1
:1035D0001FAE649765961FAE659766961FAE669799
:1035E00067961FAE679768961FAE689769961FAE7D
:1035F000699750962C91AE014F5A5F4F6AE0C8010F
:103600000E948C17F7012089AE014F5A5F4F60E18D
:10361000C8010E948C17D70119964C9161E1C8012D
:103620000E94681742E0D42E2A96DFAE2A972B9686
:103630001FAE2B972C961FAE2C972D961FAE2D9755
:103640002E961FAE2E972F961FAE2F9760961FAE09
:10365000609761961FAE6197E5E6F2E06491F7012D
:103660002089AE01475B5F4FC8010E948C17EFE5D0
:10367000F2E06491D70119964C91C8010E94681735
:1036800062E0C8010E94C317E9E5F2E0E49141E07D
:1036900050E001C0440FEA95EAF7482B62E0C80108
:1036A0000E94681766E0C8010E94C317887F482FF0
:1036B000436066E0C8010E94681762E070E0C801DC
:1036C0000E94E317F701848D823071F0D48E09C017
:1036D000D7015C968C915C97813031F081E05C96EB
:1036E0008C93C7010E9429148091F6039091F703EF
:1036F0000E94B10AE091F603F091F703828D8111E7
:1037000002C081E0828F8091FA039091FB03FC015B
:10371000E35AFF4F2081213011F021E02083FC018A
:10372000E15AFF4F2081233318F463E30E94970E80
:103730000E948A0961E085E00E94D00961E087E08B
:103740000E94D00961E086E00E94D0096AEF70E033
:1037500080E090E00E94A31860E085E00E94D0091C
:1037600060E087E00E94D00960E086E00E94D00916
:1037700064E872E08BE494E00E948D1268E772E0E6
:103780008BE494E00E94F71180911205909113054B
:10379000FE0131965F019F01281B390BC9010E9470
:1037A00051098E010F5C1F4FCE018B599F4FAE9672
:1037B0009FAF8EAFAE97E090F603F090F703D7017E
:1037C0005A968C915A97882309F46AC05C968C911A
:1037D000823008F465C04701B2E08B0E911C67E1AE
:1037E000C4010E94C31780FF57C62DC0C4010E94A8
:1037F000C90840E767E0C4010E9468172A961FAE17
:103800002A9786E0AE96EEADFFADAE9711928A95FF
:10381000E9F78BE590E0A9969FAF8EAFA997A796A1
:10382000FFAEEEAEA797AB961FAF0EAFAB97BE0144
:103830006B597F4FC7010E942713D7015C968C916B
:10384000823008F052C6D7015C968C915C9795EF58
:10385000980F943028F55E969C919130C1F40E94A7
:10386000DD18F701478C50A061A072A0DC01CB01EC
:1038700084199509A609B70981389105A105B105F3
:1038800078F0848D8D3060F482E0868F09C09230AC
:1038900039F48F5FD7015C968C93C7010E9429147D
:1038A000E090FA03F090FB039701275B3F4FE0960F
:1038B0003FAF2EAFE097D9018D919C91DC01ED9146
:1038C000FC910084F185E02D0995892B09F40DC345
:1038D0009701225A3F4FE4963FAF2EAFE4972F5FF8
:1038E0003F4FE6963FAF2EAFE697245F3F4FE296FD
:1038F0003FAF2EAFE29722503109E8963FAF2EAF8F
:10390000E89728503109EA963FAF2EAFEA971701A2
:1039100030E6230E311CE096AEADBFADE0978D9141
:103920009C91DC01ED91FC910084F185E02D0995DD
:10393000181619060CF0D9C2E096EEADFFADE0976F
:10394000808091803501C12CD12C0E94DD18D401DA
:1039500018966D937D938D939C931B97D401ED9155
:10396000FC910284F385E02DC401099597FD04C004
:103970008A309105C1F421C00E94DD18F401208530
:10398000318542855385DC01CB01821B930BA40B4F
:10399000B50B248135814681578182179307A4078F
:1039A000B507E0F20AC0D3018D933D01BFEFCB1AFA
:1039B000DB0AE0E3CE16D10441F6CD2809F4ABCF03
:1039C000B501CE01875A9F4F0E94DB116B966EACFA
:1039D0007FAC6B976114710409F448C06F96CEAC4C
:1039E000DFAC6F97C114D10409F440C02301420138
:1039F000FFEF4F1A5F0AD4018C91082E000C990B2F
:103A00000E940830892B99F7B1E0CB1AD108C60C77
:103A1000D71CD6018C91082E000C990B0E940830FF
:103A2000892B91F4BFEFCB1ADB0AA601481959097B
:103A30006F965FAF4EAF6F976814790460F4B4016E
:103A4000C3010E942F3407C0C814D90458F3E1E021
:103A5000CE1AD108DECF6B96EEADFFAD6B976F96A9
:103A60008EAD9FAD6F97E80FF91F10826F968EADE8
:103A70009FAD6F97892B09F42DC26DE972E08BE43D
:103A800094E00E94F7116B966EAD7FAD6B978BE45F
:103A900094E00E947912E496AEADBFADE497EC914C
:103AA0008E2F90E08931910508F097C1FC01EC5C04
:103AB000FF4F0C94463361EF72E0C8010E94DB11A6
:103AC000B801CE01875A9F4F0E941B116C01C8019B
:103AD0000E94BC11CD2809F0FDC161E013C061EF67
:103AE00072E0C8010E94DB11B801CE01875A9F4FD6
:103AF0000E941B116C01C8010E94BC11CD2809F065
:103B0000E9C164E0C7010E94DF0CE4C161EF72E02B
:103B1000C8010E94DB11B801CE01875A9F4F0E9455
:103B20001B116C01C8010E94BC11CD2861F4F10188
:103B300080818F3411F46EE001C06AE0C7010E94F9
:103B4000DF0CD1011C926FE872E0C8010E94DB110A
:103B5000B801CE01875A9F4F0E9401116C01C80124
:103B60000E94BC11D7FC18C067E972E0C8010E942E
:103B7000DB11B801CE01875A9F4F0E9401116C01E1
:103B8000C8010E94BC111C141D0414F48FE464C00D
:103B900086E4D1018C939EC168EA72E0C8010E945C
:103BA000DB11B801CE01875A9F4F0E9401116C01B1
:103BB000C8010E94BC11D7FC8DC16AE0C7010E94F8
:103BC000DF0CC7010E94E90D85C161EF72E0C801F9
:103BD0000E94DB11B801CE01875A9F4F0E941B1132
:103BE000892B31F4DD24D394F1018081893409F0EB
:103BF000D12CC8010E94BC11DD2039F06EE0C70154
:103C00000E94DF0CD1011C9215C06AEC72E0C80161
:103C10000E94DB11B801CE01875A9F4F0E9401110B
:103C20006C01C8010E94BC11D7FC04C06DE0C70143
:103C30000E94DF0C68E872E0C8010E94DB11B80145
:103C4000CE01875A9F4F0E9401116C01C8010E944A
:103C5000BC11D7FC3FC189E4F10180833BC168E816
:103C600072E0C8010E94DB11B801CE01875A9F4F54
:103C70000E9401116C01C8010E94BC11D7FC2AC12D
:103C80006EE040CFD1018C91893199F461EF72E0FF
:103C9000C8010E94DB11B801CE01875A9F4F0E94D4
:103CA0001B116C01C8010E94BC11CD2811F468E100
:103CB00012C06FEA72E0C8010E94DB11B801CE01A8
:103CC000875A9F4F0E941B116C01C8010E94BC11B2
:103CD000CD2829F464E1C7010E94DF0C3CC066EBEB
:103CE00072E0C8010E94DB11B801CE01875A9F4FD4
:103CF0000E9401116C01C8010E94BC11D7FC02C0D6
:103D000088E127C06AEB72E0C8010E94DB11B801AC
:103D1000CE01875A9F4F0E941B116C01C8010E945F
:103D2000BC11CD2821F489E1D1018C9314C062EC3F
:103D300072E0C8010E94DB11B801CE01875A9F4F83
:103D40000E9401116C01C8010E94BC11D7FC03C084
:103D50008AE1F10180836FEC72E0C8010E94DB11FF
:103D60004DA95EA96F968EAD9FAD6F97841795078D
:103D700088F06B968EAD9FAD6B97009759F069A94F
:103D80007AA96115710531F00E944834DD24D3947D
:103D9000892B09F0D12CC8010E94BC11DD20E9F06B
:103DA000D1018C91883111F468E114C067E112C02F
:103DB0006FEA72E0C8010E94DB11B801CE01875A98
:103DC0009F4F0E941B116C01C8010E94BC11CD289D
:103DD00021F464E1C7010E94DF0CE496EEADFFAD73
:103DE000E49780818E3038F168E872E0C8010E9463
:103DF000DB11B801CE01875A9F4F0E941B116C0145
:103E0000C8010E94BC11CD28B1F46EE0C7010E9428
:103E1000DF0C8AEF90E0E896AEADBFADE8978D93EA
:103E20009C930E94DD18EA96EEADFFADEA976083A1
:103E300071838283938363ED72E0C8010E94DB117A
:103E4000B801CE01875A9F4F0E9401116C01C80131
:103E50000E94BC11D7FC04C06AE0C7010E94DF0CBD
:103E6000E696AEADBFADE6978C919DEC980F9F3076
:103E700070F494EC980F943108F009C48D3309F470
:103E8000B9C38E3309F4E2C38C3309F45CC364EF25
:103E900072E0C8010E94DB11B801CE01875A9F4F22
:103EA0000E9401116C01C8010E94BC11D7FC12C014
:103EB00080ED97E0E896AEADBFADE8978D939C930B
:103EC0000E94DD18EA96EEADFFADEA97608371833C
:103ED0008283938380E3D5011D928A95E9F7CE0111
:103EE000875A9F4F0E94BC1116CDF701E35AFF4F2E
:103EF0008081882309F49AC26701B9E6CB0ED11CF0
:103F0000F60180819181892B39F10E94DD184701EA
:103F1000F1E68F0E911CD4014D905D906D907C90D8
:103F2000AB01BC014419550966097709F601808186
:103F30009181A0E0B0E084179507A607B70708F0C5
:103F400075C20E94DD18D4016D937D938D939C936F
:103F50001397F601118210824701FEE58F0E911C26
:103F6000D401EC918E2F90E08931910508F024C1A5
:103F7000FC01E35BFF4F0C944633C7010E94340EF3
:103F80001BC10E94DD183701B1E66B0E711CF301F5
:103F90002081318142815381DC01CB01821B930B53
:103FA000A40BB50B813A9F40A105B10508F404C1EB
:103FB00063E09AC00E94DD183701B1E66B0E711CF8
:103FC000F3012081318142815381DC01CB01821BCD
:103FD000930BA40BB50B813A9F40A105B10508F4E2
:103FE000EBC0C7010E94340EDFC00E94DD1837010C
:103FF000B1E66B0E711CF301208131814281538146
:10400000DC01CB01821B930BA40BB50B81349F41C8
:10401000A105B10508F4D0C0C7010E94E90DC4C0D4
:104020000E94DD183701B1E66B0E711CF30120818F
:10403000318142815381DC01CB01821B930BA40BA4
:10404000B50B89389341A105B10508F4B5C0ACC0E2
:104050000E94DD183701B1E66B0E711CF30120815F
:10406000318142815381DC01CB01821B930BA40B74
:10407000B50B80389E43A105B10508F49DC06DE0E5
:1040800033C00E94DD1898C00E94DD183701B1E6E8
:104090006B0E711CF3012081318142815381DC015F
:1040A000CB01821B930BA40BB50B80339547A10565
:1040B000B10508F481C075C00E94DD183701B1E672
:1040C0006B0E711CF3012081318142815381DC012F
:1040D000CB01821B930BA40BB50B80319742A1053A
:1040E000B10508F469C067E1C7010E94DF0C5CC03C
:1040F0000E94DD183701B5E66B0E711CF3012081BB
:10410000318142815381DC01CB01821B930BA40BD3
:10411000B50B80339547A105B10508F44DC0C70123
:104120000E94A10D41C00E94DD183701B5E66B0E5B
:10413000711CF3012081318142815381DC01CB016B
:10414000821B930BA40BB50B80319742A105B105DF
:1041500098F16FEB72E0E096AEADBFADE0978D9158
:104160009C910E948D120E94DD18F301608371837F
:104170008283938321C00E94DD183701F1E66F0E20
:10418000711CD3012D913D914D915C91DC01CB01CE
:10419000821B930BA40BB50B80339547A105B1058A
:1041A00058F0C7010E94870D0E94DD18D3016D935E
:1041B0007D938D939C931397F701E15AFF4F808174
:1041C000853309F4D2C018F4833341F02FC186330C
:1041D00009F4E3C08C3309F403C128C1F701E55B9E
:1041E000FF4F8081882309F421C1F4018081883147
:1041F00009F0B1C0F701E45AFF4FE081F0E0B69654
:10420000EE0FFF1FEE0DFF1D808091808114910441
:1042100009F49BC0D70113969C928E921297F701D6
:10422000E559FF4FC70185539F4F6F0120E321934D
:10423000E817F907E1F7D401ED91FC910680F781C9
:10424000E02DB501C4010995582ED401ED91FC91E2
:104250000480F581E02DC40109958150833048F434
:10426000E82FF0E0EE0FFF1FEA5FFE4F4080318045
:1042700002C0412C312C6DB67EB6EDB7FEB7E056CC
:10428000F1090FB6F894FEBF0FBEEDBF2DB73EB7D4
:104290002F5F3F4F4901EBEAF2E065917491C9014C
:1042A0000E94E829BF92AF921F925F9289EF92E03D
:1042B0009F938F93BF92AF923F924F9286E093E08D
:1042C0009F938F939F928F921F9280E68F93DF929E
:1042D000CF920E947034982EF601E80FF11D1082E3
:1042E0000FB6F8947EBE0FBE6DBE62E070E080E057
:1042F00090E00E94A31863EB72E0E096AEADBFAD14
:10430000E0978D919C910E94F711E096EEADFFAD84
:10431000E097C080D180492D50E060E070E02AE055
:10432000C6010E94301260E173E0C6010E941B12B8
:1043300065E3C7010E94970E0E94DD18F701EB5953
:10434000FF4F60837183828393830E94DD18F7019E
:10435000EB59FF4F67C0873109F468C08E3008F40D
:1043600065C0C7010E94A10D61C00E94DD186701F0
:10437000F5E6CF0ED11CD6014D905D906D907C90EE
:10438000DC01CB0184199509A609B70989399A433B
:10439000A105B10508F44AC016C00E94DD186701E6
:1043A000B5E6CB0ED11CF60140805180628073804F
:1043B000DC01CB0184199509A609B70989399A430B
:1043C000A105B10598F163E3C7010E94970E0E9411
:1043D000DD18D6016D937D938D939C93139726C022
:1043E0000E94DD18F701EB59FF4F40805180628039
:1043F0007380DC01CB0184199509A609B7098131C5
:104400009742A105B10590F061E5C7010E94970EA2
:1044100088EE93E0D6018D939C930E94DD18F701FE
:10442000EF59FF4F6083718382839383E090F2039F
:10443000F090F303F701228130E0F901EF5FFC4FC8
:104440008491F901E35CFC4FC490F901E75DFC4FF6
:10445000D490DD2009F49EC181110E94A709ED2DA1
:10446000F0E0EE0FFF1FE15EFC4FA591B491EC91DF
:10447000CE2209F48FC172C1C80102960E941E1893
:1044800081E0D8015B968C936AE672E08BE494E05D
:104490000E948D120C94081AF7019185983108F446
:1044A00050C038E1C32EF7018285811103C0D92E97
:1044B000DC1801C0D12CC4010E94CC0881E60E9406
:1044C000CF083801CA94BFEFCB1639F08FEF0E94A6
:1044D000CF08D3018D933D01F5CFDD2009F486C9C6
:1044E0008FEF0E94CF08DA94F8CF62E173E0CE013B
:1044F000815A9F4F0E94DB1188E1F50111928A9544
:10450000E9F780E38B839501AE0145595F4FBE010A
:10451000615A7F4FC8010E94060C882361F064E84D
:1045200072E0CE01875A9F4F0E94DB11CE01875A5D
:104530009F4F0E94BC11CE01815A9F4F0E94BC1117
:1045400082C9C92EB0CF6DED72E0C8010E94DB11A7
:10455000B801CE01875A9F4F0E9401116C01C8011A
:104560000E94BC11D7FC93CC89E08C0D90E06C01CB
:10457000B3E0CB0ED11C4C01C814D90410F4460191
:104580006C0162E173E0C8010E94DB116F968EAD91
:104590009FAD6F9788169906E8F48C159D0508F471
:1045A0006C016B96EEADFFAD6B97EC0DFD1D708051
:1045B00010826B966EAD7FAD6B97680D791DC8014B
:1045C0000E949B116B968EAD9FAD6B97FC01EC0D1D
:1045D000FD1D708289A99AA90E94A3299927F70134
:1045E000978386836DE3C7010E94970EC8010E94DE
:1045F000BC114DCC66EE72E0C8010E94DB11B8011F
:10460000CE01875A9F4F0E9401116C01C8010E9480
:10461000BC11D7FC12C0BE01675A7F4FC8010E946F
:10462000C111B801C70104960E941E17C8010E945B
:10463000BC116EE3C7010E94970EE696AEADBFAD0A
:10464000E6978C918E3309F022CC0EC0BE01675ADA
:104650007F4FC8010E94C111B801C70104960E9492
:104660001E17C8010E94BC1168EE72E0C8010E94CA
:10467000DB11B801CE01875A9F4F0E9401116C01D6
:10468000C8010E94BC11D7FC02CC62E463C0853330
:1046900021F0863309F44BC0FACB6AEE72E0C80110
:1046A0000E94DB11B801CE01875A9F4F0E94011171
:1046B0006C01C8010E94BC11D7FCE9CB66E3C701BD
:1046C0000E94970EF70182819381892BD1F066E9D0
:1046D00072E08BE494E00E948D12E2966EAD7FADA5
:1046E000E2978BE494E00E947912E2966EAD7FAD82
:1046F000E297E096AEADBFADE0978D919C910E94A0
:104700001B12E296EEADFFADE29710826AE872E00E
:104710008BE494E00E94F7118091120590911305AB
:104720009801281B390BC9010E945109B0CB6CEECE
:1047300072E0C8010E94DB11B801CE01875A9F4F79
:104740000E941B116C01C8010E94BC11CD2809F008
:104750009ECB6CE3C7010E94970E99CBD7011796A9
:104760008D919C911897019779F10E94DD18D701DE
:1047700013964D905D906D907C901697DC01CB0167
:1047800084199509A609B709C397A105B10508F0D1
:1047900064C01AC0F70187819085009709F040C076
:1047A0000E94DD18D70113964D905D906D907C901E
:1047B0001697DC01CB0184199509A609B709883E33
:1047C0009340A105B105D8F40E94DD18C0901304F0
:1047D000D0901404E0901504F0901604DC01CB0195
:1047E0008C199D09AE09BF0981309749A944B14090
:1047F00010F00E948A090E949D100C94DB1BD701C7
:1048000017968D919C9118970397F1F283E090E0B1
:1048100018969C938E931797C7010E94F912D4CFD4
:10482000019791F60E94DD18F7014380548065805E
:104830007680DC01CB0184199509A609B709C397D5
:10484000A105B10508F287819085892B19F1D7015F
:1048500018961C921E9217971AC0F70187819085AF
:10486000892B41F482E090E0F70190878783C701AC
:104870000E94F912D70117968D919C911897019774
:1048800049F081E090E018969C938E931797C701AA
:104890000E94F9120E94DD18F701638374838583F7
:1048A000968392CFCF92DF92EF92FF920F931F9356
:1048B000CF93DF938BE494E010924E0410924D045A
:1048C00048EE53E060E070E040934F045093500492
:1048D000609351047093520420E531E030934C040E
:1048E00020934B0425EC30E0309358042093570478
:1048F00024EC30E030935A042093590420EC30E04B
:1049000030935C0420935B0421EC30E030935E0430
:1049100020935D0422EC30E03093600420935F0428
:1049200026EC30E03093620420936104109264041A
:1049300010926504109266041092670461E270E0C0
:10494000709300056093FF04109201051092020518
:104950001092030526E0C22ED12CE12CF12CC0923E
:104960000405D0920505E0920605F0920705109225
:1049700008051092090510920A0510920B0540E2F5
:1049800040930C0510920E0510920D051092110522
:104990002AEE34E03093100520930F0520EF31E02C
:1049A0003093E9042093E8042AEF31E03093FD04CA
:1049B0002093FC041092EE041092ED041092F00487
:1049C0001092EF041092F2041092F1041092F40489
:1049D0001092F3041092F6041092F5041092F80469
:1049E0001092F7042EEC31E03093EB042093EA04AC
:1049F0009093FB048093FA0450E15093F904709370
:104A000039046093380410923A0410923B041092D7
:104A10003C04C0923D04D0923E04E0923F04F092E8
:104A200040041092410410924204109243041092E8
:104A30004404409345041092470410924604109297
:104A40004A0410921F041092200410922104109224
:104A5000220443E254E0509349044093480448E759
:104A600051E050931E0440931D0442E851E05093DE
:104A700036044093350410922704109226041092B5
:104A800029041092280410922B0410922A041092E8
:104A90002D0410922C0410922F0410922E041092C8
:104AA0003104109230043093240420932304909313
:104AB00034048093330428E02093320490931C0440
:104AC00080931B0468E875E180EA95E10E940C2A56
:104AD0008EE792E09093F1038093F0038BE090E0F7
:104AE0000E947228EC018AE092E0998388831B82FD
:104AF0001C821D821E8281E090E098878F831A8637
:104B0000198684E08A8360E00E945C18D093F303E6
:104B1000C093F2038091D9039091DA03892B81F439
:104B200083E090E00E94722822E132E0DC011196DD
:104B30003C932E9312961C929093DA038093D903A0
:104B40008091D9039091DA039093F5038093F40355
:104B50000E940A0B9093F7038093F6038091DB0386
:104B60009091DC03892B79F484E090E00E94722814
:104B7000FC018AE192E09183808312821382F09398
:104B8000DC03E093DB038091DB039091DC039093E3
:104B9000F9038093F8038091DD039091DE03892B64
:104BA00009F041C18DEC90E00E947228EC018CE389
:104BB00092E09983888382E292E09D838C8384E9EA
:104BC00091E09F838E83FE01E85BFF4F10828FE1AF
:104BD00090E00E9472288C01FC011382128288EE00
:104BE00093E0A0E0B0E084839583A683B7838AE254
:104BF00092E091838083178A168A118E108E138E0D
:104C0000128E158E148E668D6E7F6D7F668F669503
:104C1000617081E0682783E00E94D00961E083E051
:104C20000E945C18E0E4F3E0E491D8015096EC9324
:104C3000ECE2F3E0E491F0E0EE0FFF1FEB5EFC4FDF
:104C400085919491F801928B818B60E082E00E94C3
:104C50005C18D8015E968C9181FD04C061E082E011
:104C60000E94D00982E0F8018487EFE3F3E0E49149
:104C7000D8011D96EC93EBE2F3E0E491F0E0EE0F47
:104C8000FF1FE15EFC4F85919491F801978786871D
:104C90007E01F9E4EF0EF11CD7010D931C93FE0188
:104CA000E55BFF4F10828E01045A1F4FF8011082FE
:104CB0003196108231961082319610823196108290
:104CC0000E94DD18FE01EF59FF4F608371838283DC
:104CD00093830E94DD18FE01EB59FF4F60837183BF
:104CE00082839383349611821082EE59FF4F118292
:104CF0001082EF57F10911921192E017F107D9F7DD
:104D000060E0CE010E94DF0CD701ED91FC91138E83
:104D1000128E118E108E178A168A8DE991E0958F6A
:104D2000848F8485863108F04DC02DEB30E0378BC1
:104D3000268B2BE931E0318F208F2CE231E0338F4D
:104D4000228F90916800883050F021E08E3008F476
:104D500020E081E001C0880F2A95EAF701C084E0D5
:104D6000892B809368009485983038F09E3040F00D
:104D7000963148F020E030E008C02DE630E005C074
:104D80002BE630E002C02CE630E0348B238B9830E9
:104D900030F481E001C0880F9A95EAF70EC0292F00
:104DA00030E09E3018F42850310902C02E503109ED
:104DB00081E001C0880F2A95EAF7858B848D958D57
:104DC0000197F1F7828D938D892B49F14091D7039B
:104DD0005091D8034E175F0711F14115510571F03D
:104DE000DA0153962D913C915497D9019C91DA01A7
:104DF00055968C9180958923D9018C93868D8E7FD1
:104E0000868F1092D6031092D503F093D803E093C7
:104E1000D703A389B4899C918589892B8C93D093DE
:104E2000DE03C093DD038091DD039091DE03909358
:104E3000FB038093FA038091DF039091E003892BB9
:104E400009F042C082E090E00E947228FC0184E4F4
:104E500092E091838083A0915B04B0915C0482E036
:104E60008C93A0915704B09158041C92A0915904BE
:104E7000B0915A048FEC8C9310926304A0915F045C
:104E8000B091600486E08C93A0915D04B0915E04C3
:104E90009C9190619C93A0915D04B0915E049C9163
:104EA00098609C93A0915D04B0915E049C91906881
:104EB0009C93A0915D04B0915E049C919F7D9C9316
:104EC000F093E003E093DF03C091DF03D091E003B0
:104ED000D093FD03C093FC0380E190E00E94722810
:104EE000FC018CE492E091838083D383C28381E0D0
:104EF0008483158216821782108611861286138685
:104F00001486158616861786F093FF03E093FE033A
:104F100010920004109201041092020410920304F3
:104F200010920404109205041092060410920704D3
:104F3000109208041092090410920A0410920B04B3
:104F400010920C0410920D0410920E040E94DD18B1
:104F500060930F04709310048093110490931204D3
:104F60000E94DD1860931304709314048093150459
:104F7000909316040E94DD18609317047093180430
:104F80008093190490931A040E94DD186093EC0337
:104F90007093ED038093EE039093EF03DF91CF9135
:104FA0001F910F91FF90EF90DF90CF9008958F9217
:104FB0009F92AF92BF92EF92FF920F931F93CF9366
:104FC000DF93CDB7DEB7EDB6FEB6DB010D90002066
:104FD000E9F7CD01861B970B0C962DB73EB7281B22
:104FE000390B0FB6F8943EBF0FBE2DBF0DB71EB7DD
:104FF0000F5F1F4F7F936F931F9283E08F935F9399
:105000004F931F928F9384E593E09F938F931F9309
:105010000F930E94A034B8018BE494E00E941B120D
:105020000E94DD184B015C018DB79EB70C960FB640
:10503000F8949EBF0FBE8DBF10E08BE494E00E94F9
:10504000DB0F8534910581F011110EC00E94DD182F
:10505000DC01CB0188199909AA09BB0911E08897DD
:10506000A105B10550F7E8CF61E070E080E090E085
:105070000E94A3180FB6F894FEBE0FBEEDBEDF91DE
:10508000CF911F910F91FF90EF90BF90AF909F90A5
:105090008F9008958DE194E00E94EC1588EE94E0E5
:1050A0000C943A16EF920F931F93CF93DF93E8017E
:1050B00047FD02C034E001C034E1E42F440FFF0B90
:1050C000F7FF03C0F195E195F109E32E022F2E2F92
:1050D000AE010E94452CCE01DF91CF911F910F911F
:1050E000EF900895CF93DF938230910510F482E022
:1050F00090E0E0911405F091150520E030E0C0E06B
:10510000D0E0309711F14081518148175907C0F024
:105110004817590761F482819381209719F09B8386
:105120008A832BC0909315058093140526C0211502
:10513000310519F04217530718F49A01BE01DF0137
:10514000EF010280F381E02DDCCF2115310509F15B
:10515000281B390B2430310590F412968D919C91C7
:1051600013976115710521F0FB019383828304C0BD
:105170009093150580931405FD01329644C0FD01FE
:10518000E20FF31F81939193225031092D933C93A9
:105190003AC02091120530911305232B41F4209140
:1051A00002013091030130931305209312052091E1
:1051B0000001309101012115310541F42DB73EB7B1
:1051C0004091040150910501241B350BE09112051B
:1051D000F0911305E217F307A0F42E1B3F0B2817DD
:1051E000390778F0AC014E5F5F4F2417350748F060
:1051F0004E0F5F1F509313054093120581939193B7
:1052000002C0E0E0F0E0CF01DF91CF9108950F936D
:105210001F93CF93DF93009709F48CC0FC01329762
:1052200013821282009114051091150501151105C4
:1052300081F420813181820F931F209112053091DA
:1052400013052817390779F5F0931305E093120534
:1052500071C0D80140E050E0AE17BF0750F412967D
:105260002D913C911397AD012115310509F1D9011B
:10527000F3CF9D01DA013383228360817181860F30
:10528000971F8217930769F4EC0128813981260F53
:10529000371F2E5F3F4F318320838A819B81938309
:1052A0008283452B29F4F0931505E093140542C041
:1052B0001396FC93EE931297ED01499159919E013B
:1052C000240F351FE217F30771F480819181840F59
:1052D000951F029611969C938E93828193811396CB
:1052E0009C938E931297E0E0F0E0D80112968D9196
:1052F0009C911397009719F0F8018C01F6CF8D91CE
:105300009C9198012E5F3F4F820F931F20911205B1
:10531000309113052817390769F4309729F4109252
:1053200015051092140502C0138212821093130502
:1053300000931205DF91CF911F910F910895662779
:1053400077270C94D32DFC0188279927E894219185
:105350002032E9F3293010F02E30C8F32B3241F01F
:105360002D3239F4689404C00E94042A820F911DE2
:10537000219120532A30C0F31EF4909581959F4FC0
:1053800008951F93FC0199278827BC01E894119187
:105390001032E9F3193010F01E30C8F31B3251F00F
:1053A0001D3249F4689406C00E94EF29610F711DF7
:1053B000811D911D119110531A30B0F33EF4909558
:1053C0008095709561957F4F8F4F9F4F1F910895E6
:1053D000FB01DC0105900D920020E1F70895592FA3
:1053E000482F372F262F660F771F881F991F660FAC
:1053F000771F881F991F620F731F841F951F660FE9
:10540000771F881F991F08957AE0979F902D879F97
:10541000802D910D112408950F931F93CF93DF9347
:10542000009731F46115710519F480E090E03AC0FD
:105430008B01EC016EE070E081E090E00E94292C8D
:10544000FC01892B91F380E883830115110571F02C
:105450001387028781E88383809116059091170551
:10546000892B21F4F0931705E09316052097C9F0D6
:10547000D187C08783818260838380911805909152
:105480001905892B71F4F0931905E09318058091A3
:105490001A0590911B05892B21F4F0931B05E093CD
:1054A0001A05CF01DF91CF911F910F910895ACE0C4
:1054B000B0E0EDE5FAE20C9424327C016B018A0144
:1054C000FC0117821682838181FFBDC1CE01019646
:1054D0004C01F7019381F60193FD859193FF819132
:1054E0006F01882309F4ABC1853239F493FD8591AE
:1054F00093FF81916F01853229F4B70190E00E94FA
:105500004630E7CF512C312C20E02032A0F48B32F2
:1055100069F030F4803259F0833269F420612CC094
:105520008D3239F0803339F4216026C02260246046
:1055300023C0286021C027FD27C030ED380F3A3046
:1055400078F426FF06C0FAE05F9E300D1124532E3A
:1055500013C08AE0389E300D1124332E20620CC017
:105560008E3221F426FD6BC1206406C08C3611F406
:10557000206802C0883641F4F60193FD859193FFBF
:1055800081916F018111C1CF982F9F7D95549330E8
:1055900028F40C5F1F4FFFE3F9830DC0833631F011
:1055A000833771F0833509F05BC022C0F801808138
:1055B00089830E5F1F4F44244394512C540115C01E
:1055C0003801F2E06F0E711CF801A080B18026FF57
:1055D00003C0652D70E002C06FEF7FEFC5012C871F
:1055E0000E943B302C0183012C852F77222E17C07F
:1055F0003801F2E06F0E711CF801A080B18026FF27
:1056000003C0652D70E002C06FEF7FEFC5012C87EE
:105610000E9429302C012C852068222E830123FC36
:105620001BC0832D90E048165906B0F4B70180E204
:1056300090E00E9446303A94F4CFF50127FC859122
:1056400027FE81915F01B70190E00E944630311042
:105650003A94F1E04F1A51084114510471F7E5C032
:10566000843611F0893639F5F80127FF07C06081CB
:105670007181828193810C5F1F4F08C060817181AD
:10568000072E000C880B990B0E5F1F4F2F76722E82
:1056900097FF09C090958095709561957F4F8F4FCA
:1056A0009F4F2068722E2AE030E0A4010E947E30D5
:1056B000A82EA81844C0853729F42F7EB22E2AE0E0
:1056C00030E025C0F22FF97FBF2E8F36C1F018F4DD
:1056D000883579F0B4C0803719F0883721F0AFC031
:1056E0002F2F2061B22EB4FE0DC08B2D8460B82EFA
:1056F00009C024FF0AC09F2F9660B92E06C028E07B
:1057000030E005C020E130E002C020E132E0F801E5
:10571000B7FE07C060817181828193810C5F1F4F4A
:1057200006C06081718180E090E00E5F1F4FA40190
:105730000E947E30A82EA818FB2DFF777F2E76FEC4
:105740000BC0372D3E7FA51450F474FE0AC072FCC6
:1057500008C0372D3E7E05C0BA2C372D03C0BA2CA9
:1057600001C0B52C34FF0DC0FE01EA0DF11D808192
:10577000803311F4397E09C032FF06C0B394B3946C
:1057800004C0832F867809F0B39433FD13C030FF33
:1057900006C05A2CB31418F4530C5B18B32CB31472
:1057A00068F4B70180E290E03C870E944630B394F1
:1057B0003C85F5CFB31410F43B1801C0312C34FFF5
:1057C00012C0B70180E390E03C870E9446303C85E0
:1057D00032FF17C031FD03C088E790E002C088E5C2
:1057E00090E0B7010CC0832F867859F031FF02C0DA
:1057F0008BE201C080E237FD8DE2B70190E00E94AC
:105800004630A51438F4B70180E390E00E9446309A
:105810005A94F7CFAA94F401EA0DF11D8081B701E3
:1058200090E00E944630A110F5CF332009F451CE0C
:10583000B70180E290E00E9446303A94F6CFF7013B
:105840008681978102C08FEF9FEF2C96E2E10C9446
:1058500040320F931F93CF93DF93869F8001879FE2
:10586000100D969F100D1124C8010E947228EC01A2
:10587000009729F0A80160E070E00E943430CE016A
:10588000DF91CF911F910F9108954F925F926F9288
:105890007F929F92AF92BF92CF92DF92EF92FF9250
:1058A0000F931F93CF93DF93CDB7DEB729970FB632
:1058B000F894DEBF0FBECDBF6A01122FB02E2BE3CE
:1058C000201720F0FF24F394F00E02C0BCE3FB2E5F
:1058D0000F2D27E0AE014F5F5F4F0E94302FAC01CC
:1058E0008981982F9970913031F0E1FC06C0E0FE7B
:1058F00006C090E205C09DE203C09BE201C090E0BB
:10590000EE2DE07183FF3CC0911102C083E001C025
:1059100084E0811718F4212F281B01C020E0E11139
:105920000BC0F601822F30E2882319F031938150A9
:10593000FBCFC20ED11C20E0992329F0D6019C9305
:10594000F60131966F01C6010396E2FE0AC03EE4FD
:10595000D6013C9341E411964C93119712963C93D7
:1059600006C03EE6F601308341E641833283FC0106
:10597000322F40E2332309F442C041933150FACF31
:1059800082FF44C0911102C083E001C084E081170E
:1059900018F4212F281B01C020E0E1110BC0F601F3
:1059A000822F30E2882319F031938150FBCFC20E51
:1059B000D11C20E0992329F0D6019C93F601319661
:1059C0006F01C6010396E2FE0BC039E4D6013C9399
:1059D0003EE411963C93119736E412963C9307C02F
:1059E00039E6F60130833EE6318336E63283FC0148
:1059F000322F40E2332319F041933150FBCFFC01A9
:105A0000E20FF11D10828EEF9FEFB7C0F1E0911110
:105A100001C0F0E06F2F70E01416150624F49A010F
:105A20002F5F3F4F02C021E030E0260F371FBB2021
:105A300029F06B2D70E06F5F7F4F02C060E070E077
:105A4000260F371F612F70E0261737071CF4121B33
:105A5000212F01C020E03E2D387159F4D601322F9C
:105A600060E2332319F06D933150FBCFC20ED11C8D
:105A700020E0FF2331F0D6019C93B6016F5F7F4F8A
:105A80006B01E1110BC0F601922F30E3992319F05D
:105A900031939150FBCFC20ED11C20E09F2D940F6B
:105AA0003A81782F7071A72E84FF03C0313309F437
:105AB0009150191624F4993018F098E001C091E043
:105AC000E42F852F57FF02C0E0E080E06E2F782F93
:105AD000E0E0F0E0AEE29A2E3A01691A71082A017C
