:100000000C941A010C9442010C9442010C9442018C
:100010000C9442010C9442010C9442010C94420154
:100020000C9442010C9442010C9442010C94420144
:100030000C9442010C9442010C9442010C94420134
:100040000C94B2100C9442010C946E040C9448046D
:100050000C9442010C9442010C9442010C94420114
:100060000C9442010C9442014E414E494E49545960
:10007000494E46CDCCCC3D0AD7233C17B7D1387773
:10008000CC2B329595E6241FB14F0A000020410089
:1000900000C84200401C4620BCBE4CCA1B0E5AAED3
:1000A000C59D7400407A10F35A00A0724E180900E2
:1000B00010A5D4E80000E87648170000E40B5402CD
:1000C0000000CA9A3B000000E1F505000080969808
:1000D00000000040420F000000A086010000001058
:1000E0002700000000E8030000000064000000009A
:1000F000000A00000000000100000000002C76D87B
:1001000088DC674F0823DFC1DFAE59E1B1B796E560
:10011000E3E453C63AE651997696E8E6C28426EBC4
:10012000898C9B62ED407C6FFCEFBC9C9F40F2BAD7
:10013000A56FA5F490055A2AF75C936B6CF9676D6F
:10014000C11BFCE0E40D47FEF520E6B500D0ED90C4
:100150002E0300943577050080841E080000204E91
:100160000A000000C80C333333330F986E1283112A
:1001700041EF8D2114893BE65516CFFEE6DB18D101
:10018000844B381BF77C1D901DA4BBE424203284D3
:10019000725E228100C9F124ECA1E53D2700010235
:1001A0000304051112131415160A0B0C0D0E0F5231
:1001B000656365697665643A200054696D65206FF2
:1001C000757400536C617665205246204D657373DB
:1001D0006167652052656365697665643A20000051
:1001E000000000250028002B00000000002400274C
:1001F000002A0004040404040404040202020202AB
:1002000002030303030303010204081020408001DA
:100210000204081020010204081020000000080059
:1002200002010000030407000000000000000000BD
:10023000A517D91911241FBECFEFD8E0DEBFCDBF5F
:1002400013E0A0E0B1E0EAE2F8E402C005900D920C
:10025000A032B107D9F724E0A0E2B3E001C01D92BB
:10026000AB3AB207E1F711E0C9E1D1E004C0219750
:10027000FE010E94CC23C831D107C9F70E94FC10AF
:100280000C9408240C940000CF92DF92EF92FF921E
:100290000F931F93CF93DF936C017A018B01C0E022
:1002A000D0E0CE15DF0589F0D8016D918D01D60122
:1002B000ED91FC910190F081E02DC6010995892B0B
:1002C00011F47E0102C02196ECCFC701DF91CF91DE
:1002D0001F910F91FF90EF90DF90CF9008950895B8
:1002E00080E090E00895FC01538D448D252F30E08F
:1002F000842F90E0821B930B541710F0CF96089533
:1003000001970895FC01918D828D981761F0828D7F
:10031000DF01A80FB11D5D968C91928D9F5F9F7339
:10032000928F90E008958FEF9FEF0895FC01918DDB
:10033000828D981731F0828DE80FF11D858D90E048
:1003400008958FEF9FEF0895FC01918D228D892FE5
:1003500090E0805C9F4F821B91098F7399270895CD
:1003600084E893E00E94A40121E0892B09F420E0B5
:10037000822F0895FC01848DDF01A80FB11DA35ABF
:10038000BF4F2C91848D90E001968F739927848FB5
:10039000A689B7892C93A089B1898C9180648C93AC
:1003A000938D848D981306C00288F389E02D808197
:1003B0008F7D80830895EF92FF920F931F93CF93C9
:1003C000DF93EC0181E0888F9B8D8C8D981305C0A5
:1003D000E889F989808185FD24C0F62E0B8D10E017
:1003E0000F5F1F4F0F731127E02E8C8DE8120CC08A
:1003F0000FB607FCFACFE889F989808185FFF5CF30
:10040000CE010E94BA01F1CF8B8DFE01E80FF11DE4
:10041000E35AFF4FF0820B8FEA89FB89808180626B
:1004200007C0EE89FF896083E889F989808180644B
:10043000808381E090E0DF91CF911F910F91FF9039
:10044000EF900895CF93DF93EC01888D8823C9F056
:10045000EA89FB89808185FD05C0A889B9898C91CD
:1004600086FD0FC00FB607FCF5CF808185FFF2CF68
:10047000A889B9898C9185FFEDCFCE010E94BA0180
:10048000E7CFDF91CF91089580E090E0892B29F0AC
:100490000E94B00181110C94000008950895089500
:1004A0000895FC019285915081E0923008F080E03F
:1004B0000895DC011A962C91261759F0FC016287E9
:1004C0000190F081E02D0688F789E02D099581E003
:1004D000089580E008950396089508950E94D22318
:1004E000CF93DF93EC010E944D0BFC0111860E941B
:1004F000370A61E085E00E94AA0F61E087E00E9470
:10050000AA0F61E086E00E94AA0F0E943B106D874F
:100510007E878F87988B82E0DF91CF9108950F932C
:100520001F93CF93DF931F92CDB7DEB78C01AE013F
:100530004F5F5F4F65EC72E00E94D70EC8010F90CD
:10054000DF91CF911F910F9108950F931F93CF9338
:10055000DF931F92CDB7DEB78C01AE014F5F5F4FC7
:1005600069EC72E00E94D70EC8010F90DF91CF9125
:100570001F910F910895CF93DF93EC0182E591E0F5
:10058000998388838091230390912403009739F005
:10059000DC01ED91FC910280F381E02D09958A81C7
:1005A0009B81DF91CF910C94C61ACF93DF93EC011E
:1005B0000E94BB02CE01DF91CF910C94C61A0C941D
:1005C000C61A0C94C61A0C94C61AAF92BF92CF9258
:1005D000DF92EF92FF920F931F93CF93DF93FC0173
:1005E000248135816217730708F56B01EC0187E000
:1005F000869F5001879FB00C11248B01E12CF12CB8
:100600008C819D810817190778F4C7018A0D9B1DFD
:1006100028813981820F931F0E94240E0F5F1F4F84
:10062000F7E0EF0EF11CECCFDD82CC82DF91CF91B1
:100630001F910F91FF90EF90DF90CF90BF90AF9000
:1006400008952F923F924F925F926F927F928F9276
:100650009F92AF92BF92CF92DF92EF92FF920F9351
:100660001F93CF93DF9300D01F92CDB7DEB77C01ED
:100670007B836A831C0123E0220E311C60E070E062
:10068000C1010E94E502EA81FB8180809180EA81BC
:10069000FB8124813581F7E0F29FC001F39F900D2B
:1006A0001124EA81FB8120813181820F931F8816FA
:1006B000990609F483C0F701878190856C01FFEFEB
:1006C000CF1ADF0A8C159D0508F070C0F70125814F
:1006D00036812C153D05F0F5099628173907D0F518
:1006E000638074809683858347E09C01429FC001AC
:1006F000439F900D11240E94311AF7019483838344
:100700005301412C512CF7018781908548165906D9
:10071000F0F4F70123813481C50186199709820F0E
:10072000931F009751F08E010F5F1F4F2FEF3FEF88
:1007300040E050E0B5010E948B0EC5010E94240EDE
:10074000FFEF4F1A5F0A27E0A20EB11CDCCFC301F6
:100750000E94C61AF701A780B084F7E0FA9D200135
:10076000FB9D500C1124612C712CF701AC14BD04BD
:10077000D0F423813481C301840D951D820F931F12
:10078000009751F08E010F5F1F4F2FEF3FEF40E0BA
:1007900050E0B4010E948B0EFFEFAF1ABF0A27E0B2
:1007A000620E711CE2CFD086C78204C0B601C101BF
:1007B0000E94E502F7E08F0E911C69CF0F900F9019
:1007C0000F90DF91CF911F910F91FF90EF90DF90ED
:1007D000CF90BF90AF909F908F907F906F905F90E1
:1007E0004F903F902F900895DC01ED91FC91019086
:1007F000F081E02D0994EF92FF920F931F93CF9316
:10080000DF938C017B01C0E0D0E0F701EC0FFD1F0E
:100810006491662361F0D801ED91FC910190F08123
:10082000E02DC8010995892B11F02196EECFCE015C
:10083000DF91CF911F910F91FF90EF900895611577
:10084000710579F0FB0101900020E9F73197AF01C4
:10085000461B570BDC01ED91FC910280F381E02DEA
:10086000099480E090E008950F931F93CF93DF9356
:10087000EC010E941F048C016AEB72E0CE010E9421
:100880001F04800F911FDF91CF911F910F91089549
:100890001F920F920FB60F9211242F933F934F93F5
:1008A0005F936F937F938F939F93AF93BF93EF93D8
:1008B000FF9384E893E00E94BA01FF91EF91BF910A
:1008C000AF919F918F917F916F915F914F913F91E8
:1008D0002F910F900FBE0F901F9018951F920F929F
:1008E0000FB60F9211242F938F939F93EF93FF9343
:1008F000E0919403F09195038081E0919A03F09147
:100900009B0382FD12C0908180919D038F5F8F7346
:1009100020919E03821751F0E0919D03F0E0EC5787
:10092000FC4F958F80939D0301C08081FF91EF91D3
:100930009F918F912F910F900FBE0F901F90189540
:100940002AE031E0FC013183208303960C94440EAD
:10095000CF93DF93EC010E94A004CE01DF91CF91F1
:100960000C94C61ACF93DF938091230390912403B4
:10097000892BC9F489E090E00E94311AEC0182E5EC
:1009800091E09983888388E090E09D838C831F8227
:100990001E8280E190E00E94311A9B838A83D0936B
:1009A0002403C09323038091230390912403DF91B8
:1009B000CF910895EF92FF920F931F93CF93DF9300
:1009C000EC01E881F9810684F785E02D63E0099563
:1009D0000E94B204DC0112968D919C911397169699
:1009E0002D913C911797A901440F551F480F591F8E
:1009F000BC01FB016417750741F06E5F7F4F0081FA
:100A000011810C171D07A9F702C0E0E0F0E0CD2B23
:100A100031F1E81BF90BAF0155954795C9010197D5
:100A2000BF016E5F7F4F4817590790F41296ED9003
:100A3000FC9013974F5F5F4F8701060F171FE80168
:100A400008811981EE0DFF1D11830083FB01E8CFA2
:100A50008217930720F417969C938E931697DF9135
:100A6000CF911F910F91FF90EF9008950F931F93D7
:100A7000CF93DF93EC010E943B100D851E852F85DF
:100A80003889DC01CB01801B910BA20BB30B853F96
:100A90009140A105B105B8F060E085E00E94AA0F81
:100AA00060E087E00E94AA0F60E086E00E94AA0F43
:100AB0000E94830B0E944710CE01DF91CF911F91BE
:100AC0000F910C94DA04DF91CF911F910F9108954B
:100AD000CF92DF92EF92FF920F931F93CF93DF930A
:100AE0001F92CDB7DEB78C01FB01E480F580E416E0
:100AF000F50610F40E94D223E41AF50A2E153F05DC
:100B000008F47901C080D180C40ED51E88E090E041
:100B1000F80193838283158214820E94311AF801AE
:100B200091838083FFEFEF16FF0621F3F6018081AA
:100B3000181684F41982AE014F5F5F4FB701C801E8
:100B40000E94EA0DF80144815581B60180819181AE
:100B50000E94680EC8010F90DF91CF911F910F91F5
:100B6000FF90EF90DF90CF9008950895CF93DF939B
:100B70006115710509F45FC0FB01C081CF3F11F41D
:100B800061E003C0C11104C060E0FC0182814FC07C
:100B9000FC01D2818D2F0E943C0FED2FF0E0E55E2D
:100BA000FD4FE491E33009F148F4E130C9F0E2305F
:100BB000C1F584B5806284BDC8BD3DC0E73009F190
:100BC000E83039F1E43069F58091800080628093EB
:100BD00080008C2F90E090938B0080938A002BC034
:100BE00084B5806884BDC7BD26C0809180008068C0
:100BF000809380008C2F90E09093890080938800F0
:100C00001AC08091B00080688093B000C093B30098
:100C100012C08091B00080628093B000C093B40095
:100C20000AC0C03810F460E001C061E08D2FDF9190
:100C3000CF910C94AA0FDF91CF9108958F929F923C
:100C4000AF92BF92CF92DF92EF92FF920F931F93DA
:100C5000CF93DF93FC012189223009F065C0EC01BC
:100C60000E943B102D853E856901E12CF12C098500
:100C70001A852B853C8546015701801A910AA20AE4
:100C8000B30ADC01CB01880D991DAA1DBB1DEF85A0
:100C9000F8894181528160E070E084179507A607CA
:100CA000B70708F441C01E861D860E943B10698765
:100CB0007A878B879C87EF85F889638174816115BA
:100CC000710579F48F819885019698878F832D819E
:100CD0003E816B817C812115310519F082179307C4
:100CE0008CF4788B6F87CE01DF91CF911F910F919C
:100CF000FF90EF90DF90CF90BF90AF909F908F903C
:100D00000C94B605198A788B6F871E861D8660E065
:100D10008A810E94AA0F2F8138858D819E81281794
:100D2000390711F418861F82DF91CF911F910F911F
:100D3000FF90EF90DF90CF90BF90AF909F908F90FB
:100D40000895EF92FF920F931F93CF93DF93CDB748
:100D5000DEB72F970FB6F894DEBF0FBECDBF7C0174
:100D6000FC0165817681878190858E010F5F1F4F21
:100D700022E042E00E94111AAE01485F5F4FBC01C1
:100D8000C8010E94D70EC8010E94800F025F1F4F4A
:100D90002FEF3FEF40E050E0BE016F5F7F4FCE018D
:100DA00008960E948B0E00E123E030E040E050E026
:100DB000BE01685F7F4FF701828193810E946409C1
:100DC000CE0108960E94240ECE0101960E94240EA8
:100DD0002F960FB6F894DEBF0FBECDBFDF91CF9137
:100DE0001F910F91FF90EF9008950895CF92DF9299
:100DF000EF92FF92CF93DF9384E893E00E941F0469
:100E0000D82F0E943B106B017C01C0E084E893E086
:100E10000E9482018534910589F0C1110FC00E94A2
:100E20003B10AB01BC014C195D096E097F09C1E0A3
:100E3000483251056105710548F7E7CF61E070E080
:100E400080E090E00E940110CC2361F06AEB71E039
:100E500084E893E00E94FB036AEB72E084E893E08D
:100E60000E941F0481E0D11101C080E0DF91CF9189
:100E7000FF90EF90DF90CF90089508950895089522
:100E8000CB0108957F928F929F92AF92BF92CF92A3
:100E9000DF92EF92FF920F931F93CF93DF93EC01BA
:100EA00049015A018B01C12CD12C7601C814D904F7
:100EB000EA04FB0484F5F80171908F018F8580FFAF
:100EC0000BC0E881F9810084F185E02D20E144E048
:100ED00060E070E0CE010995EB85FC858D859E85EF
:100EE000E817F90738F470828B859C8501969C87FA
:100EF0008B870BC0E881F981672D70E0028CF38D40
:100F0000E02DCE010995019649F02FEFC21AD20AC1
:100F1000E20AF20ACBCFB401C50102C0B601C70193
:100F2000DF91CF911F910F91FF90EF90DF90CF90C5
:100F3000BF90AF909F908F907F900895CF93DF9355
:100F4000EC01E881F9810288F389E02D09958F3F52
:100F50002FEF920731F02D813E812F5F3F4F3E836F
:100F60002D83DF91CF9108958FEF9FEF089560E07B
:100F700070E0CB01089580E090E00895CB010895E2
:100F8000CF93DF93EC0188899989DC01ED91FC9185
:100F90000084F185E02D0995892BA9F38889998929
:100FA000DC01ED91FC910284F385E02DDF91CF917E
:100FB0000994CF93DF93EC0188899989DC01ED9145
:100FC000FC910084F185E02D0995892BA9F388898E
:100FD0009989DC01ED91FC910484F585E02DDF9188
:100FE000CF910994AF92BF92CF92DF92EF92FF928E
:100FF0000F931F93CF93DF9300D000D0CDB7DEB710
:101000008C015B01C12CD12C7601F801808991897A
:10101000DC01ED91FC910284F385E02D29833A8374
:101020004B835C83099529813A814B815C818F3F99
:1010300071F0C216D306E406F5064CF4D5018D9383
:101040005D01BFEFCB1ADB0AEB0AFB0ADECFC7015B
:10105000B6010F900F900F900F90DF91CF911F91DD
:101060000F91FF90EF90DF90CF90BF90AF900895D9
:10107000DC0150968D919C915197DC01ED91FC9192
:101080000084F185E02D099480E090E0089580E0EF
:1010900090E0089580E090E0089580E090E0089569
:1010A00008950C94C61A0C94C61A0C94C61A0C9483
:1010B000C61A089508950C94C61ADC01ED91FC91AE
:1010C000369720813181820F931F0C945B08FB01BE
:1010D00020813181FC0131832083FB0142815381D6
:1010E000F901369720813181FC01E20FF31F518312
:1010F0004083089523EC31E0FC01318320832DEC03
:1011000031E0318F208F63ED71E00C946708DC01D2
:10111000ED91FC91369720813181820F931F0C94C1
:101120007A08CF93DF93EC010E947A08CE01DF9119
:10113000CF910C94C61ADC01ED91FC913697208179
:101140003181820F931F0C9491080C94C61A0F934F
:101150001F93CF93DF938C01EB016F3F8FEF7807E5
:1011600019F480E090E00FC06A3031F46DE0F801CE
:10117000808991890E94F4036C2FF80180899189FC
:101180000E94F403CE01DF91CF911F910F9108953A
:101190008F929F92BF92CF92DF92EF92FF920F9326
:1011A0001F93CF93DF9300D000D0CDB7DEB78C0173
:1011B0004B01C12CD12C7601C216D306E406F506EC
:1011C00044F5F401B1904F01FAE0BF120EC06DE09A
:1011D000F8018089918929833A834B835C830E943B
:1011E000F4035C814B813A8129816B2DF801808960
:1011F000918929833A834B835C830E94F403FFEF38
:10120000CF1ADF0AEF0AFF0A5C814B813A812981FC
:10121000D3CFCA01B9010F900F900F900F90DF91BB
:10122000CF911F910F91FF90EF90DF90CF90BF90E3
:101230009F908F9008952BE332E0FC01318320834F
:1012400025E432E0358B248B6BE472E00C947E0C49
:10125000DC01ED91FC91369720813181820F931F43
:101260000C941B09CF93DF93EC010E941B09CE0164
:10127000DF91CF910C94C61ADC01ED91FC91369769
:1012800020813181820F931F0C943209DC01ED9192
:10129000FC91369720813181820F931F0C94260C8C
:1012A000CF93DF93EC010E94260CCE01DF91CF910A
:1012B0000C94C61ADC01ED91FC91369720813181A6
:1012C000820F931F0C9450097F928F929F92AF923E
:1012D000BF92CF92DF92EF92FF920F931F93CF9323
:1012E000DF93CDB7DEB75C01CB01142F952E822E94
:1012F000732ECDB6DEB6DB011496ED91FC911597F9
:101300003D962DB73EB72E1B3F0B0FB6F8943EBF50
:101310000FBE2DBFADB7BEB711967D010031D0F421
:101320000E94290E9F938F937F928F929F921F937B
:101330008BEC92E09F938F93FF92EF920E94E523B4
:101340002DB73EB7265F3F4F0FB6F8943EBF0FBE96
:101350002DBF18C00E94290E9F938F937F928F926A
:101360009F921F938BED92E09F938F93FF92EF924A
:101370000E94E5238DB79EB70A960FB6F8949EBFDC
:101380000FBE8DBFB701C5010E94F6060FB6F894D7
:10139000DEBE0FBECDBEDF91CF911F910F91FF90AA
:1013A000EF90DF90CF90BF90AF909F908F907F9005
:1013B0000895CF93DF938091290390912A03892B7D
:1013C00079F482E090E00E94311AEC018AE691E023
:1013D000998388830E94140FD0932A03C093290312
:1013E0008091290390912A03DF91CF910895CF93A3
:1013F000DF93CDB7DEB72A970FB6F894DEBF0FBEE6
:10140000CDBFFC0183859485009741F1DB01FC0190
:1014100020813181F9014481558122E431E03A8310
:10142000298312962D913C9113973C832B8314961C
:101430002D913C9115973E832D8316962D913C91CD
:10144000179738872F8318962D913C9119973A87D3
:101450002987BE016F5F7F4FFA0109952A960FB663
:10146000F894DEBF0FBECDBFDF91CF910895CF932B
:10147000DF93EC010E943B106D837E838F839887FE
:10148000DF91CF9108956F927F929F92AF92BF921A
:10149000CF92DF92EF92FF920F931F93CF93DF9340
:1014A000CDB7DEB72A970FB6F894DEBF0FBECDBF1B
:1014B000FC019284992009F49DC05B016C010281BA
:1014C000138160E0C8010E94920CF8018089918923
:1014D0000E94F60F6DE1C8010E94300D81FF08C027
:1014E000F801808991890E94F60FC8010E94C30CFF
:1014F00060E0C8010E94300D482F4E7F60E0C801B7
:101500000E94D50C62E0C8010E94300DEDE9F1E0C7
:10151000E49141E050E001C0440FEA95EAF7482B1E
:1015200062E0C8010E94D50CF60102811381F80126
:101530009781E92E913110F080E1E82EF801808545
:10154000811103C0F92EFE1801C0F12CC8010E94C0
:10155000B90C80EA0E94BC0C3501EA94FFEFEF164B
:1015600031F0F30181913F010E94BC0CF6CFFF20C6
:1015700029F080E00E94BC0CFA94F9CFC8010E94C7
:10158000B60C61E0C8010E94920CC8010E94B90C1F
:101590008FEF0E94BC0CF82EC8010E94B60C8F2D54
:1015A000807399F360E0C8010E94920C40E767E005
:1015B000C8010E94D50C84FF04C0C8010E94C30C5E
:1015C000912C82E491E09A8389831A861986DC82C1
:1015D000CB828CE590E098878F83AD82BE82BE017E
:1015E0006F5F7F4FC6010E94F709F60182819381E8
:1015F0000E94A40D892D2A960FB6F894DEBF0FBE67
:10160000CDBFDF91CF911F910F91FF90EF90DF90B1
:10161000CF90BF90AF909F907F906F900895EF9282
:10162000FF920F931F93CF93DF93CDB7DEB76497ED
:101630000FB6F894DEBF0FBECDBF7C0181E493E40A
:10164000ABE4B0E0898B9A8BAB8BBC8B9E012F5E99
:101650003F4F3F932F932BEE32E03F932F938E011A
:101660000F5F1F4F1F930F930E94E523B801C7011F
:101670000E94430A0F900F900F900F900F900F90C1
:1016800064960FB6F894DEBF0FBECDBFDF91CF9149
:101690001F910F91FF90EF900895809127039091F3
:1016A0002803892BC9F48DE090E00E94311AFC01D7
:1016B00082E691E0918380831382128214821582E4
:1016C00016821782108684E081871286148613861C
:1016D000F0932803E0932703809127039091280338
:1016E00008952DE532E0FC0121933193CF010C9454
:1016F000240ECF93DF93EC010E94710BCE01DF919A
:10170000CF910C94C61A0F931F93CF93DF938091C0
:10171000250390912603892B09F04FC089E390E0BF
:101720000E94311AEC018AE591E0998388831A823C
:101730000AE411E01C830B8385E08D831F821E82E7
:10174000198618861B861A861C861D861E861F868D
:10175000198A188A1B8A1A8A1C8A0E943C0F1E8BBF
:101760000D8B87E08F8B198E188E1B8E1A8E1D8E17
:101770001C8E1E8E1F8E18A219A21BA21AA21DA2B9
:101780001CA21EA20E943C0F18A70FA386E089A7E7
:101790001BA61AA61DA61CA61FA61EA618AA19AA35
:1017A0001AAA1BAA1DAA1CAA1FAA1EAA18AE0E942A
:1017B0003C0FD0932603C09325038091250390917D
:1017C0002603DF91CF911F910F91089508950895F9
:1017D000CF93DF93C0915203D0915303E881F981F5
:1017E0000084F185E02DCE010995892BB9F3E881BC
:1017F000F9810284F385E02DCE01DF91CF91099428
:101800001F93CF93DF93182FC0915203D0915303AE
:101810008A3041F4E881F9810190F081E02D6DE09A
:10182000CE010995E881F9810190F081E02D612FC9
:10183000CE01099521E030E0019711F420E030E07D
:10184000C901DF91CF911F910895089508950C94D7
:10185000C61A0F931F93CF93DF93EC01CB0108813E
:1018600019817B836A830E94311A9983888320E0DF
:1018700030E08C819D812817390770F4E881F98167
:10188000E20FF31F309729F0D801A20FB31F8C91FC
:1018900080832F5F3F4FEDCFC801DF91CF911F9124
:1018A0000F910C94C61A0F931F93CF93DF93FC01F3
:1018B00004811581FB01C481D581AE010C171D0780
:1018C00008F4A801FB0160817181FC018081918194
:1018D0000E94D723009769F481E090E0C017D107F8
:1018E00040F00C171D0710F080E090E09195819575
:1018F0009109DF91CF911F910F910895FB012081F4
:101900003181FC0131832083FB0142815381F90144
:10191000369720813181FC01E20FF31F5183408310
:1019200008950895FC0120813181828193812817D7
:10193000390719F0822F0C94AA0F0895CF93DF93E3
:10194000EC019CB59F7D9CBD9CB5937F9CBD9CB5D7
:101950009C7F9CBD9DB591609DBD8A810E94AA0F10
:101960008C899D89DF91CF910C94F60F61E00C94E6
:101970009E0C60E00C949E0C8EBD00000DB407FE22
:10198000FDCF8EB508951F93CF93DF93EC010E9496
:10199000B90C81EE0E94BC0C182FCE010E94B60C2F
:1019A000812FDF91CF911F910895EF92FF921F93A6
:1019B000CF93DF9300D0CDB7DEB77C014A83698334
:1019C0000E94B90C6981862F8F7180620E94BC0CC5
:1019D000182F4A81842F0E94BC0CC7010E94B60CAC
:1019E000812F0F900F90DF91CF911F91FF90EF907B
:1019F0000895CF92DF92EF92FF920F931F93CF93B0
:101A0000DF9300D01F92CDB7DEB77C01142F2A835D
:101A10005B8369830E94B90C6981862F8F71806214
:101A20000E94BC0C082FC12E5B81D52E2A81120F7B
:101A30001C1531F0F60181916F010E94BC0CF8CFAA
:101A4000C7010E94B60C802F0F900F900F90DF916E
:101A5000CF911F910F91FF90EF90DF90CF9008955D
:101A6000EF92FF921F93CF93DF931F92CDB7DEB714
:101A70007C0169830E94B90C6981862F8F710E9455
:101A8000BC0C8FEF0E94BC0C182FC7010E94B60C33
:101A9000812F0F90DF91CF911F91FF90EF900895CC
:101AA000EF92FF920F931F93CF938C017B0166E01F
:101AB0000E94300DC82FC77D82E0E816F10431F492
:101AC000C0628BE990E0A0E0B0E00DC0EA94EF289E
:101AD00029F085E590E0A0E0B0E005C0C86081E4B1
:101AE00090E0A0E0B0E0F801808B918BA28BB38BEB
:101AF0004C2F66E0C8010E94D50C66E0C8010E9428
:101B0000300D91E08C1390E0892FCF911F910F91B0
:101B1000FF90EF900895CF93DF93EC0160E00E9477
:101B2000300D81FD0EC0482F426060E0CE010E9462
:101B3000D50C65E070E080E090E0DF91CF910C94EF
:101B40000110DF91CF910895CF93DF93EC010E94B4
:101B50008B0D60E0CE010E94300D482F416060E0A7
:101B6000CE010E94D50C40E767E0CE010E94D50C63
:101B700061E0CE010E94920C8985882349F02E8570
:101B8000AE01475F5F4F6AE0CE010E94F90C14C0BE
:101B900062E0CE010E94300DEDE9F1E0E49121E038
:101BA00030E001C0220FEA95EAF72095422F482342
:101BB00062E0CE010E94D50C6DE1CE010E94300D95
:101BC00081FF05C0CE01DF91CF910C94C30CDF9152
:101BD000CF910895EF92FF920F931F93CF93DF93CE
:101BE000EC018C819D818617970710F57A018B0196
:101BF0008A819B818617970740F4685F7F4F86171D
:101C0000970718F4CE010E94290C8C819D818017C2
:101C1000910758F4E881F981E80FF91F309719F01E
:101C2000D7012C9120830196F2CF1D830C8305C030
:101C30006817790710F47D836C83DF91CF911F9132
:101C40000F91FF90EF900895FC01808191810C9499
:101C5000C61ACF93DF93EC016C817D816F5F7F4F5C
:101C60008A819B818617970718F4CE010E94290C60
:101C7000E881F9818C819D81E80FF91F10828881AC
:101C80009981DF91CF910895EF92FF920F931F9367
:101C9000CF93DF937C0100E010E0C0E0D0E0F701DB
:101CA0002481358180819181C217D30740F4800F50
:101CB000911F0E94240E2196095F1F4FF0CFDF91E4
:101CC000CF911F910F91FF90EF900C94C61A089539
:101CD000CF92DF92EF92FF920F931F93FB01DC01F3
:101CE00000E010E098016A01E12CF12C0C151D05B3
:101CF0002E053F0538F461916D930F5F1F4F2F4FF5
:101D00003F4FF4CF840F951F1F910F91FF90EF90DD
:101D1000DF90CF900895AF92BF92CF92DF92EF9273
:101D2000FF920F931F93CF93DF931F92CDB7DEB730
:101D30008C016B017A01590188E090E0F8019383EE
:101D40008283158214820E94311AF8019183808364
:101D5000F601848195818E159F0510F40E94D2238F
:101D60001982BC016E197F09A616B70608F4B501E1
:101D7000AE014F5F5F4FC8010E94EA0DF801448138
:101D80005581F601608171816E0D7F1DF8018081A2
:101D900091810E94680E0F90DF91CF911F910F915A
:101DA000FF90EF90DF90CF90BF90AF900895CF92CB
:101DB000DF92EF92FF920F931F93CF93DF931F92C7
:101DC000CDB7DEB77C016B0188E090E0F70193832B
:101DD0008283158214820E94311AF70191838083D5
:101DE000C114D104B9F0F60101900020E9F7319750
:101DF0008F010C191D091982AE014F5F5F4FB801A9
:101E0000C7010E94EA0DA801B601F7018081918106
:101E10000E94680E0F90DF91CF911F910F91FF905C
:101E2000EF90DF90CF900895E4E8F3E0A089B189C6
:101E300082E08C93A485B5851C92A685B78580E148
:101E40008C93108EA489B58986E08C93A289B3897E
:101E50008C9180618C93A289B3898C9188608C93DA
:101E6000A289B3898C9180688C930288F389E02DD4
:101E700080818F7D8083089590E0FC01E95FFD4FB4
:101E80002491FC01ED50FE4F8491882399F090E05D
:101E9000880F991FFC01E751FE4FA591B491FC01F9
:101EA000E152FE4F859194918FB7F894EC91E22B1B
:101EB000EC938FBF08953FB7F894809132039091CF
:101EC0003303A0913403B091350326B5A89B05C018
:101ED0002F3F19F00196A11DB11D3FBFBA2FA92FA9
:101EE000982F8827820F911DA11DB11DBC01CD0126
:101EF00042E0660F771F881F991F4A95D1F7089512
:101F0000EF92FF920F931F93CF93DF931F92CDB762
:101F1000DEB78C01FC01E480F5801982B7016E5FA9
:101F20007F4FAE014F5F5F4F0E94EA0DF801808145
:101F3000918142E050E06CE173E08E0D9F1D0E94A4
:101F4000680EC8010F90DF91CF911F910F91FF9004
:101F5000EF90089590E0FC01E55EFD4F3491FC01A7
:101F6000E95FFD4F2491FC01ED50FE4FE491EE231B
:101F700009F43BC0332339F1333091F038F4313078
:101F8000A9F0323001F584B58F7D12C0373091F061
:101F90003830A1F03430B9F4809180008F7D03C0D7
:101FA000809180008F77809380000DC084B58F77FB
:101FB00084BD09C08091B0008F7703C08091B000CC
:101FC0008F7D8093B000F0E0EE0FFF1FE152FE4FD7
:101FD000A591B4918FB7F894EC91611103C020954D
:101FE0002E2301C02E2B2C938FBF08958230910594
:101FF00038F0880F991F880F991F05970197F1F7FF
:1020000008958F929F92AF92BF92CF92DF92EF92FC
:10201000FF926B017C010E945B0F4B015C01C114BC
:10202000D104E104F104F1F00E945B0FDC01CB016B
:1020300088199909AA09BB09883E9340A105B105F1
:1020400070F321E0C21AD108E108F10888EE880E89
:1020500083E0981EA11CB11CC114D104E104F10459
:1020600019F7DDCFFF90EF90DF90CF90BF90AF904A
:102070009F908F9008952FB7F89460912E037091E0
:102080002F0380913003909131032FBF0895EF9279
:10209000FF920F931F93CF93DF93EC019A8192FDF0
:1020A0005AC094609A8397FD56C01C8A8E819F8186
:1020B0009B8B8A8B198A188A60E08D810E94AA0FF7
:1020C00085E090E00E94311A7C01FC0110821482AC
:1020D00013828CE79BE09283818385E090E00E94ED
:1020E000311A8C018FEFF801808384E190E09283B4
:1020F0008183F482E38285E090E00E94311AFC0142
:1021000083E0808388E290E0928381831483038359
:10211000FF83EE83FB8BEA8BEF2BE9F08C89823017
:10212000D1F0811104C0198A188A1B861A860E9470
:102130003B106C877D878E879F8782E08C8B6A89B6
:102140007B89CE010396DF91CF911F910F91FF9074
:10215000EF900C94B605DF91CF911F910F91FF90F6
:10216000EF9008951F920F920FB60F9211242F93A4
:102170003F938F939F93AF93BF9380912E03909142
:102180002F03A0913003B091310330912D0323E050
:10219000230F2D3720F40196A11DB11D05C026E89F
:1021A000230F0296A11DB11D20932D0380932E03B2
:1021B00090932F03A0933003B093310380913203A7
:1021C00090913303A0913403B09135030196A11D82
:1021D000B11D8093320390933303A0933403B093E3
:1021E0003503BF91AF919F918F913F912F910F90A8
:1021F0000FBE0F901F901895CF93DF93CDB7DEB72A
:10220000C155D1090FB6F894DEBF0FBECDBF78948B
:1022100084B5826084BD84B5816084BD85B58260EB
:1022200085BD85B5816085BD80916E00816080939C
:102230006E00109281008091810082608093810005
:102240008091810081608093810080918000816015
:10225000809380008091B10084608093B100809170
:10226000B00081608093B00080917A008460809398
:102270007A0080917A00826080937A0080917A005F
:10228000816080937A0080917A00806880937A00E0
:102290001092C10085E00E943C0F87E00E943C0F35
:1022A00086E00E943C0F0E94140F20914803309159
:1022B000490398E0EDEBF2E0AE014F5F5F4F3A016A
:1022C000DA0101900D929A95E1F7BA01C9010E94D5
:1022D000F60689E090E09A8389838AE090E09C8307
:1022E0008B831F8280E28887198685E08F8785E04F
:1022F00090E0A0E0B0E08D8B9E8BAF8BB88F1A86FC
:1023000000914C0310914D03D80113967C926E926C
:10231000129789E00E943C0F8B819C8129813A8130
:102320002817390711F00E943C0FFFB6F8948091EE
:102330002003811124C0EDEFF1E08491E1E1F2E0AE
:102340009491E82FF0E0EE0FFF1FE751FE4FA591AB
:10235000B491EC91E92321F461E08AE00E94AA0F94
:102360008AE00E943C0F8CB580618CBD8CB5806486
:102370008CBD8DE00E943C0F8BE00E943C0F809151
:1023800020038F5F80932003FFBE60E0C3010E94A3
:10239000920C61E0C3010E949E0C65E070E080E059
:1023A00090E00E9401104CE060E0C3010E94D50C57
:1023B0004FE564E0C3010E94D50C62E070E0C30108
:1023C0000E94500D882311F081E08F8366E0C301E5
:1023D0000E94300DF82E60E070E0C3010E94500DA5
:1023E000C3010E94B90C80E50E94BC0C83E70E94E7
:1023F000BC0CC3010E94B60C40E06DE1C3010E9419
:10240000D50C40E06CE1C3010E94D50C198640E771
:1024100067E0C3010E94D50C4CE465E0C3010E9453
:10242000D50CC3010E94B90C82EE0E94BC0CC30102
:102430000E94B60CC3010E94C30CC3010E948B0D05
:1024400060E0C3010E94300D482F4E7F60E0C30161
:102450000E94D50C8FEF8F0D8E3F08F081C04FEF9B
:1024600064E0C3010E94D50C40E06DE1C3010E940D
:10247000D50C40E06CE1C3010E94D50C198680E1C7
:102480008887FF24F394FFAE21961FAE21972296F2
:102490001FAE229723961FAE239724961FAE249734
:1024A00025961FAE259726961FAE269727961FAE18
:1024B00027972F85AE01415C5F4F6AE0C3010E9400
:1024C000F90C2F85AE01415C5F4F60E1C3010E94B2
:1024D000F90C488561E1C3010E94D50C82E08FAB05
:1024E00018AE19AE1AAE1BAE1CAE1DAE1EAEEAEA99
:1024F000F1E064912F85AE01495C5F4FC3010E94FA
:10250000F90CE4EAF1E064914885C3010E94D50C1E
:1025100062E0C3010E94300DEEE9F1E0E49141E098
:1025200050E001C0440FEA95EAF7482B62E0C3018E
:102530000E94D50C66E0C3010E94300D887F482FB1
:10254000416066E0C3010E94D50C60E070E0C30109
:102550000E94500DC3010E94A40DF801F28603C031
:10256000D8011A961C92C8010E94370AE0914003D4
:10257000F0914103309721F08CE393E094878387B7
:1025800080913E0390913F03009711F00E94471005
:10259000E0904403F09045031E01B7E42B0E311C7C
:1025A0002E01E2E24E0E511CA1016BE872E0C20165
:1025B0000E94D70E08E020E030E040E050E0B20199
:1025C000D70112968D919C9113970E946409C201C4
:1025D0000E94240EA1016FE872E0C2010E94D70E92
:1025E00020E030E041E050E0B201F70182819381C8
:1025F0000E946409C2010E94240EA10163E972E0F5
:10260000C2010E94D70E20E030E042E050E0B2016B
:10261000D70112968D919C9113970E946409C20173
:102620000E94240EA10166E972E0C2010E94D70E49
:1026300020E030E043E050E0B201F7018281938175
:102640000E946409C2010E94240EC7010E94A106D3
:10265000D70119966D917D918D919C911C97820166
:1026600022E042E00E94111AA201BC01C1010E94B5
:10267000D70EC1010E94800F045D1F4F2FEF3FEF67
:1026800040E050E0B101C2010E948B0E00E123E066
:1026900030E042E050E0B201F701828193810E9474
:1026A0006409C2010E94240EC1010E94240EA101EE
:1026B00069E972E0C2010E94D70E08E02EE030E026
:1026C00040E050E0B201D70112968D919C91139792
:1026D0000E946409C2010E94240EA1016CE972E00B
:1026E000C2010E94D70E2EE030E042E050E0B2017D
:1026F000F701828193810E946409C2010E94240E25
:10270000D70112960D911C9113971F9281E08F9320
:102710001F928FE08F931F9290E69F931F928F934B
:102720001F921F922FE932E03F932F935F924F92B7
:102730000E94E523B201C8010E94F60681E190E003
:102740000E94311A8C01FC01128288E090E096838D
:1027500085831086178288E390E00E94311AD801A1
:1027600014969C938E9313971A961C921A978091A5
:1027700021039091220301969093220380932103D9
:102780001C969C938E931B9786E291E08D939C936D
:10279000F801158616861786108A65EB72E084E8C4
:1027A00093E00E943404D801ED91FC910684F785F2
:1027B000E02D61E0C8010995D801ED91FC910088F8
:1027C000F189E02DC80109950FB6F894DEBF0FBE60
:1027D000CDBF823009F070C00E94B2047C010115A7
:1027E000110509F47AC0DC011696AD90BC901797DC
:1027F0006501BFEFCB1ADB0AAC14BD0408F053C06F
:10280000FC01248135812C153D0578F5C50109961B
:102810002817390750F58280938095838483880F29
:10282000991F0E94311AD70113969C938E93129789
:10283000D40140E050E04A155B05A1F0F701828128
:1028400093819A01220F331FFC01E20FF31F30978F
:1028500029F08D919C911197918380834F5F5F4FF9
:102860001296E9CFC4010E94C61AD70116968D911F
:102870009C9117979C01220F331F8C159D0578F4AE
:10288000D7011296ED91FC911397E20FF31F309749
:1028900011F01183008301962E5F3F4FEECFF701B9
:1028A000D782C6821AC0CA14DB04B8F4DC011796BA
:1028B000DC92CE92169711C0D801ED91FC91813037
:1028C00031F40288F389E02DC801099506C0048817
:1028D000F589E02D63E0C80109952AE0822E912C4C
:1028E000A12CB12C0E943B10009150031091510378
:1028F000C80103960E941E06C80145960E941E0646
:10290000C80187960E941E06E0904E03F0904F0388
:1029100084E893E00E94A401181619060CF075C013
:1029200084E893E00E948201F701668177818A3012
:1029300019F08D3009F056C0672B09F45FC0820191
:102940002FEF3FEF40E050E0B7016E5F7F4FC301D4
:102950000E948B0E6FEA71E084E893E00E94FB0313
:10296000C3010E94290E8C01BC0184E893E00E94FF
:1029700034040E944D0BB8010E94430AC3010E9417
:10298000240ED70116962D913C91179740E050E008
:1029900019A28E010F5D1F4FCA01B901A501940153
:1029A0000E94AA23605DF80162938F012115310511
:1029B0004105510589F7BF0184E893E00E941F0497
:1029C0006AEB72E084E893E00E941F04D701169638
:1029D0008D919C911797892B89F017961C921E92C6
:1029E00016970CC060968FAF60976F5F7F4FAE01F8
:1029F000415B5F4FC70102960E94EA0DF701868195
:102A00009781419710F0178216826AE070E080E0AB
:102A100090E00E94011000914C0310914D03D801E9
:102A20001A968C911A97882309F4C0C067E1129610
:102A30008D919C9113970E94300D80FFD5C03EC0B0
:102A4000C6010E94B60C40E767E0C6010E94D50CA3
:102A5000C8010E94370A24E0F8012187848181118E
:102A60001BC031E034832F963FAF2F9742E451E0F3
:102A70005BA34AA31BA61AA61DA30CA38AE590E09C
:102A800099A788A7AEE4B0E0AC0FBD1FBFA3AEA36B
:102A9000B201C8010E94F709E2E4F1E0FBA3EAA356
:102AA0001BA61AA61DA30CA32BE530E039A728A767
:102AB0007FA26EA2B201C8010E94F7090E943B10DA
:102AC000D8011596CD90DD90ED90FC9018971A9650
:102AD0002C911A97222309F469C09B01AC012C198F
:102AE0003D094E095F0969017A0119968C9181119E
:102AF00002C060E01CC0813091F4293E33404105A2
:102B0000510508F442C061E0C8010E940F0BC801E2
:102B10000E94370AF80181858F5F818736C0823035
:102B200051F4293E33404105510578F162E0C80176
:102B30000E940F0B20C0833041F5293E33404105F0
:102B4000510518F1F80184818823A9F01482D1017C
:102B50001C92E2E4F1E0FA83E9831A8619861C8369
:102B60000B832AE530E038872F833E822D82B30124
:102B7000C8010E94F709C8010E94370AD8011996B6
:102B80008C9119978F5F19968C93F8018185843009
:102B900069F4F1E1CF16F7E2DF06E104F10430F069
:102BA000D80119961C92C8010E94370AE0914A0385
:102BB000F0914B03E280F38006811781000F111F13
:102BC0000E0D1F1DE016F10661F0F7018191919144
:102BD0007F01DC01ED91FC910484F585E02D0995E0
:102BE000F1CF0E9444027ECEF801C280D380D6018C
:102BF00017968C91803280F190E2E92EF601908553
:102C0000911103C0F82EFE1801C0F12CC6010E94DC
:102C1000B90C81E60E94BC0C9301EA94BFEFEB165D
:102C200099F08FEF61962FAF619762963FAF6297F1
:102C30000E94BC0C61962FAD619762963FAD629782
:102C4000D9018D939D01E9CFFF2009F4F9CE8FEFD3
:102C50000E94BC0CFA94F8CFE82ED0CF08950C94C3
:102C6000C61A02970C942F168F929F92AF92BF9222
:102C7000CF92DF92EF92FF920F931F93CF93DF9348
:102C8000CDB7DEB7E4970FB6F894DEBF0FBECDBF69
:102C9000FB012681378162817381DC0116964D919B
:102CA0005C9117976417750709F039C133272A35E6
:102CB000310509F4D0C02B35310509F030C16C0164
:102CC0000481158163EC71E084E893E00E94FB03CA
:102CD000B80184E893E00E943404FE0131967F013C
:102CE000AF01B801CE018D960E94D70E08E010E02A
:102CF00019A708A71BA61AA688E090E00E94311A1F
:102D00009FA38EA31AA309A31CA21BA288E390E091
:102D10000E94311A98A38F8F0DA51EA580904F0495
:102D200090905004E0914B04F0914C04CF01880D39
:102D3000991DD801E817F90709F4A0C031912D9128
:102D40003217C1F31DC08D3009F49FC06AA57BA561
:102D50006F5F7F4FA701CE0186960E94EA0DA40106
:102D6000400F511F0A151B0509F48FC0D8018D9122
:102D70008D0189838D3339F74115510509F088C0DC
:102D80006EE674E0CE0186960E94530C892B01F505
:102D900081E493E4A2E5B0E0898B9A8BAB8BBC8B8A
:102DA000CE0141969F938F938BEE92E09F938F93EA
:102DB000FF92EF920E94E5230E944D0BB7010E9403
:102DC000430A0F900F900F900F900F900F9036C006
:102DD00067E674E0CE0186960E94530C892B71F54C
:102DE0006F8D78A18E010F5E1F4F2FEF3FEF40E0F8
:102DF00050E0C7010E948B0EC7010E94290E0E945D
:102E00005E1B4B015C01F601028513859B01AC0141
:102E1000D80115966D917D918D919C9118970E9486
:102E20003222882341F0F80185829682A782B086FB
:102E3000C8010E94A106C7010E94240ECE014F9630
:102E40000E94440ECE0186960E94240ECE018D96DD
:102E50000E94240E64C0DC0114962D913C911597BC
:102E60000480F581E02D9081F9018281911103C0E8
:102E70008061828354C08F7E828351C0A9A8BAA882
:102E8000A00EB11E801A910A6ACF40E050E074CFC4
:102E900029A93AA9215031094F5F5F4FBE01635DF7
:102EA0007F4FCE0148960E946805AE014C5C5F4F93
:102EB0006EE671E0CE0141960E94D70E2D893E89C3
:102EC0008C8D9D8D8217930748F4CE0141960E9408
:102ED000240ECE0148960E94240E52CF01968C01FA
:102EE000021B130BA12CB12CA016B10671F32D8976
:102EF0003E89A501BE01685E7F4FC7010E9468053B
:102F0000B701CE0141960E94530C4C01C7010E94AB
:102F1000240E8928D1F2BFEFAB1ABB0AE5CFE496A5
:102F20000FB6F894DEBF0FBECDBFDF91CF911F91DA
:102F30000F91FF90EF90DF90CF90BF90AF909F9058
:102F40008F90089502970C943416CF92DF92EF92EF
:102F5000FF920F931F93CF93DF931F92CDB7DEB7EE
:102F600004E813E0109287031092860388EE93E042
:102F7000A0E0B0E08093880390938903A0938A0334
:102F8000B0938B038BE991E0909385038093840346
:102F900085EC90E0909391038093900384EC90E013
:102FA000909393038093920380EC90E09093950329
:102FB0008093940381EC90E0909397038093960321
:102FC00082EC90E0909399038093980386EC90E0D4
:102FD00090939B0380939A0310929D0310929E03FB
:102FE00010929F031092A003AE014F5F5F4F69E9FB
:102FF00072E088E994E00E94D70EAE014F5F5F4F08
:1030000061EF72E081E994E00E94D70EAE014F5F5C
:103010005F4F64EF72E08AE894E00E94D70EAE0141
:103020004F5F5F4F69EF72E083E894E00E94D70E34
:10303000AE014F5F5F4F6DEF72E08CE794E00E944E
:10304000D70EAE014F5F5F4F61E073E085E794E01C
:103050000E94D70EAE014F5F5F4F65E073E08EE6D2
:1030600094E00E94D70EAE014F5F5F4F69E073E0BE
:1030700087E694E00E94D70EAE014F5F5F4F6DE090
:1030800073E080E694E00E94D70EAE014F5F5F4F81
:1030900061E173E089E594E00E94D70EAE014F5FD5
:1030A0005F4F65E173E082E594E00E94D70EAE01C8
:1030B0004F5F5F4F69E173E08BE494E00E94D70EAD
:1030C000E1E2F0E0F0933904E093380410923A041E
:1030D00010923B0410923C0446E050E060E070E047
:1030E00040933D0450933E0460933F04709340042A
:1030F000109241041092420410924304109244042E
:1031000020E2209345041092470410924604109246
:103110004A0483E294E090934904809348048BE34B
:1031200092E0909322048093210485E492E09093AE
:1031300036048093350410922704109226041092CE
:1031400029041092280410922B0410922A04109241
:103150002D0410922C0410922F0410922E04109221
:1031600031041092300489E192E09093240480931A
:103170002304109334040093330430E13093320479
:10318000F0937203E093710310927303109274032F
:1031900010927503409376035093770360937803FE
:1031A0007093790310927A0310927B0310927C0340
:1031B00010927D0320937E031092800310927F0370
:1031C00010928303109258031092590310925A03DD
:1031D00010925B032CE533E030938203209381034C
:1031E00023EC31E030935703209356032DEC31E06C
:1031F00030936F0320936E031092600310925F036D
:1032000010926203109261031092640310926303A0
:103210001092660310926503109268031092670380
:1032200010926A031092690390935D0380935C038C
:1032300010936D0300936C0388E080936B031092EE
:10324000550310925403109353030093520368EEF6
:103250007BE080E09CE00E94621B9093550380938A
:1032600054030E94830B90935103809350038091E9
:103270002B0390912C03892BC9F489E090E00E94E4
:10328000311A8C018DE592E0F8019183808388E00A
:1032900090E095838483178216820E94311AF80188
:1032A0009383828310932C0300932B0380912B0331
:1032B00090912C0390934F0380934E030E944D0BEB
:1032C00090934D0380934C030E94B20490934B0360
:1032D00080934A030E94D9098C01909349038093FB
:1032E000480380E190E00E94311AFC0185E5C82E78
:1032F00082E0D82ED182C0821383028311E014832E
:1033000015821682178210861186128613861486FD
:10331000158616861786F0934703E093460389E7E0
:1033200092E090933B0380933A0385E892E0909378
:103330003D0380933C0310923F0310923E030E9492
:103340004D0B90934103809340030E94D9097C0167
:10335000909343038093420380E190E00E94311AEE
:10336000FC01D182C082F382E2821483158216822C
:103370001782108611861286138614861586168685
:10338000178690934503809344030E943B106093FB
:1033900036037093370380933803909339030F906B
:1033A000DF91CF911F910F91FF90EF90DF90CF9021
:1033B000089586E593E00E947A0881E294E00E94F5
:1033C0001B098BE494E00E94240E82E594E00E94A5
:1033D000240E89E594E00E94240E80E694E00E9489
:1033E000240E87E694E00E94240E8EE694E00E946C
:1033F000240E85E794E00E94240E8CE794E00E945E
:10340000240E83E894E00E94240E8AE894E00E944F
:10341000240E81E994E00E94240E88E994E00C9443
:10342000240EEF920F931F93CF93DF93E80147FD94
:1034300002C034E001C034E1E42F440FFF0BF7FF7A
:1034400003C0F195E195F109E32E022F2E2FAE0175
:103450000E949B1DCE01DF91CF911F910F91EF90A4
:103460000895CF93DF938230910510F482E090E0CD
:10347000E091A104F091A20420E030E0C0E0D0E0AF
:10348000309711F14081518148175907C0F0481712
:10349000590761F482819381209719F09B838A8375
:1034A0002BC09093A2048093A10426C0211531055E
:1034B00019F04217530718F49A01BE01DF01EF011A
:1034C0000280F381E02DDCCF2115310509F1281BA5
:1034D000390B2430310590F412968D919C911397FD
:1034E0006115710521F0FB019383828304C09093E1
:1034F000A2048093A104FD01329644C0FD01E20FB5
:10350000F31F81939193225031092D933C933AC03C
:1035100020919F043091A004232B41F420910201BB
:10352000309103013093A00420939F042091000167
:10353000309101012115310541F42DB73EB740917D
:10354000040150910501241B350BE0919F04F0917B
:10355000A004E217F307A0F42E1B3F0B281739072E
:1035600078F0AC014E5F5F4F2417350748F04E0FDF
:103570005F1F5093A00440939F048193919302C0D6
:10358000E0E0F0E0CF01DF91CF9108950F931F931A
:10359000CF93DF93009709F48CC0FC01329713821C
:1035A00012820091A1041091A2040115110581F469
:1035B00020813181820F931F20919F043091A004BC
:1035C0002817390779F5F093A004E0939F0471C0A0
:1035D000D80140E050E0AE17BF0750F412962D918D
:1035E0003C911397AD012115310509F1D901F3CFB4
:1035F0009D01DA013383228360817181860F971FD9
:103600008217930769F4EC0128813981260F371F4F
:103610002E5F3F4F318320838A819B8193838283F6
:10362000452B29F4F093A204E093A10442C0139621
:10363000FC93EE931297ED01499159919E01240F4D
:10364000351FE217F30771F480819181840F951F74
:10365000029611969C938E938281938113969C93EC
:103660008E931297E0E0F0E0D80112968D919C9134
:103670001397009719F0F8018C01F6CF8D919C916A
:1036800098012E5F3F4F820F931F20919F0430912E
:10369000A0042817390769F4309729F41092A2047E
:1036A0001092A10402C0138212821093A00400930E
:1036B0009F04DF91CF911F910F910895662777277F
:1036C0000C94291F0F931F93CF93DF93009731F42E
:1036D0006115710519F480E090E03AC08B01EC01AE
:1036E0006EE070E081E090E00E947F1DFC01892B7C
:1036F00091F380E883830115110571F01387028728
:1037000081E883838091A3049091A404892B21F400
:10371000F093A404E093A3042097C9F0D187C08755
:103720008381826083838091A5049091A604892B74
:1037300071F4F093A604E093A5048091A7049091FE
:10374000A804892B21F4F093A804E093A704CF01E7
:10375000DF91CF911F910F910895ACE0B0E0E3EBC2
:10376000FBE10C9464237C016B018A01FC0117824C
:103770001682838181FFBDC1CE0101964C01F70104
:103780009381F60193FD859193FF81916F018823C9
:1037900009F4ABC1853239F493FD859193FF819192
:1037A0006F01853229F4B70190E00E949C21E7CF98
:1037B000512C312C20E02032A0F48B3269F030F40F
:1037C000803259F0833269F420612CC08D3239F097
:1037D000803339F4216026C02260246023C0286031
:1037E00021C027FD27C030ED380F3A3078F426FF8E
:1037F00006C0FAE05F9E300D1124532E13C08AE0FC
:10380000389E300D1124332E20620CC08E3221F4EC
:1038100026FD6BC1206406C08C3611F4206802C0FE
:10382000883641F4F60193FD859193FF81916F01F4
:103830008111C1CF982F9F7D9554933028F40C5F50
:103840001F4FFFE3F9830DC0833631F0833771F0EA
:10385000833509F05BC022C0F801808189830E5F47
:103860001F4F44244394512C540115C03801F2E0F9
:103870006F0E711CF801A080B18026FF03C0652D7A
:1038800070E002C06FEF7FEFC5012C870E9491218D
:103890002C0183012C852F77222E17C03801F2E0EE
:1038A0006F0E711CF801A080B18026FF03C0652D4A
:1038B00070E002C06FEF7FEFC5012C870E947F216F
:1038C0002C012C852068222E830123FC1BC0832D14
:1038D00090E048165906B0F4B70180E290E00E94EB
:1038E0009C213A94F4CFF50127FC859127FE819124
:1038F0005F01B70190E00E949C2131103A94F1E001
:103900004F1A51084114510471F7E5C0843611F083
:10391000893639F5F80127FF07C0608171818281FE
:1039200093810C5F1F4F08C060817181072E000CCE
:10393000880B990B0E5F1F4F2F76722E97FF09C0D1
:1039400090958095709561957F4F8F4F9F4F206820
:10395000722E2AE030E0A4010E94D421A82EA818DB
:1039600044C0853729F42F7EB22E2AE030E025C0EE
:10397000F22FF97FBF2E8F36C1F018F4883579F019
:10398000B4C0803719F0883721F0AFC02F2F2061E5
:10399000B22EB4FE0DC08B2D8460B82E09C024FF5A
:1039A0000AC09F2F9660B92E06C028E030E005C0FF
:1039B00020E130E002C020E132E0F801B7FE07C0AC
:1039C00060817181828193810C5F1F4F06C060818D
:1039D000718180E090E00E5F1F4FA4010E94D4210E
:1039E000A82EA818FB2DFF777F2E76FE0BC0372D53
:1039F0003E7FA51450F474FE0AC072FC08C0372D37
:103A00003E7E05C0BA2C372D03C0BA2C01C0B52CA0
:103A100034FF0DC0FE01EA0DF11D8081803311F4E9
:103A2000397E09C032FF06C0B394B39404C0832F1B
:103A3000867809F0B39433FD13C030FF06C05A2CCA
:103A4000B31418F4530C5B18B32CB31468F4B70117
:103A500080E290E03C870E949C21B3943C85F5CFA6
:103A6000B31410F43B1801C0312C34FF12C0B7015D
:103A700080E390E03C870E949C213C8532FF17C088
:103A800031FD03C088E790E002C088E590E0B7010F
:103A90000CC0832F867859F031FF02C08BE201C041
:103AA00080E237FD8DE2B70190E00E949C21A514D1
:103AB00038F4B70180E390E00E949C215A94F7CF3C
:103AC000AA94F401EA0DF11D8081B70190E00E94F3
:103AD0009C21A110F5CF332009F451CEB70180E22B
:103AE00090E00E949C213A94F6CFF701868197815D
:103AF00002C08FEF9FEF2C96E2E10C9480230F938E
:103B00001F93CF93DF93869F8001879F100D969F11
:103B1000100D1124C8010E94311AEC01009729F000
:103B2000A80160E070E00E948A21CE01DF91CF9170
:103B30001F910F9108954F925F926F927F929F9283
:103B4000AF92BF92CF92DF92EF92FF920F931F93AB
:103B5000CF93DF93CDB7DEB729970FB6F894DEBFCA
:103B60000FBECDBF6A01122FB02E2BE3201720F01D
:103B7000FF24F394F00E02C0BCE3FB2E0F2D27E0D0
:103B8000AE014F5F5F4F0E948620AC018981982F64
:103B90009970913031F0E1FC06C0E0FE06C090E281
:103BA00005C09DE203C09BE201C090E0EE2DE071F4
:103BB00083FF3CC0911102C083E001C084E0811703
:103BC00018F4212F281B01C020E0E1110BC0F601E1
:103BD000822F30E2882319F031938150FBCFC20E3F
:103BE000D11C20E0992329F0D6019C93F60131964F
:103BF0006F01C6010396E2FE0AC03EE4D6013C9383
:103C000041E411964C93119712963C9306C03EE600
:103C1000F601308341E641833283FC01322F40E2DA
:103C2000332309F442C041933150FACF82FF44C09C
:103C3000911102C083E001C084E0811718F4212FA4
:103C4000281B01C020E0E1110BC0F601822F30E2F9
:103C5000882319F031938150FBCFC20ED11C20E094
:103C6000992329F0D6019C93F60131966F01C60184
:103C70000396E2FE0BC039E4D6013C933EE4119674
:103C80003C93119736E412963C9307C039E6F6014F
:103C900030833EE6318336E63283FC01322F40E248
:103CA000332319F041933150FBCFFC01E20FF11D9A
:103CB00010828EEF9FEFB7C0F1E0911101C0F0E0EC
:103CC0006F2F70E01416150624F49A012F5F3F4FF2
:103CD00002C021E030E0260F371FBB2029F06B2DFA
:103CE00070E06F5F7F4F02C060E070E0260F371F0B
:103CF000612F70E0261737071CF4121B212F01C01B
:103D000020E03E2D387159F4D601322F60E2332382
:103D100019F06D933150FBCFC20ED11C20E0FF2370
:103D200031F0D6019C93B6016F5F7F4F6B01E111BB
:103D30000BC0F601922F30E3992319F03193915083
:103D4000FBCFC20ED11C20E09F2D940F3A81782F1B
:103D50007071A72E84FF03C0313309F491501916F6
:103D600024F4993018F098E001C091E0E42F852FF9
:103D700057FF02C0E0E080E06E2F782FE0E0F0E037
:103D8000AEE29A2E3A01691A71082A01461A570AB8
:103D90000B2D10E01195019511096F3F8FEF7807FA
:103DA00029F4D6019C92C60101966C01461757076B
:103DB00084F0661677066CF47F01E40CF51CA1E034
:103DC000B0E0AC0FBD1FEA0EFB1ED7011196BC90F0
:103DD00002C090E3B92E615071093196C601019677
:103DE0007C016017710724F0D601BC926C01D5CF1D
:103DF0006417750741F4363320F4353321F4A110EC
:103E000002C081E3B82EF601B082F701822F90E262
:103E1000882319F091938150FBCFF701E20FF11D38
:103E2000108280E090E029960FB6F894DEBF0FBEB6
:103E3000CDBFDF91CF911F910F91FF90EF90DF9059
:103E4000CF90BF90AF909F907F906F905F904F907A
:103E50000895A0E0B0E0EFE2FFE10C946823EC01EC
:103E60007B016115710519F0DB018D939C938E0127
:103E70000F5F1F4F7880872D90E00E945E21892B75
:103E800011F0E801F4CFBDE27B1205C00F5F1F4FB8
:103E90007980C1E008C0EBE27E1204C08E010E5FA3
:103EA0001F4F7980C0E06801F1E0CF1AD10843E0EC
:103EB00050E060E770E0C6010E946721892BF1F4B1
:103EC000680122E0C20ED11C45E050E06BE670E0D4
:103ED000C6010E946721892B21F4680187E0C80E82
:103EE000D11CE114F10419F0D701CD92DC92C1117B
:103EF000FFC060E070E080E89FE703C143E050E06E
:103F000068E670E0C6010E946721892B51F4E11434
:103F1000F10409F4F2C00E5F1F4FF7011183008313
:103F2000ECC0680160E070E0CB0100E010E0F60159
:103F3000D0EDD70DDA3058F52C2F2260622E2C2FC1
:103F40002870C2FF05C0211128C00F5F1F4F25C078
:103F5000222311F001501109A5E0B0E09B01AC0152
:103F60000E9459234B015C01880C991CAA1CBB1CA4
:103F7000C501B4016D0F711D811D911D6839A9E93D
:103F80007A078A07A9E19A0740F0C66005C0DE3FBC
:103F900051F4C3FD44C0C8606C2EBFEFCB1ADB0ADE
:103FA0007080C62DC4CF2D2F2F7D2531C1F54081C6
:103FB0004D3211F4C06106C04B3221F0319621E040
:103FC00030E006C03296D60111964C9122E030E0E6
:103FD000A0EDA40FAA3018F0E21BF30B20C040E0C4
:103FE00050E04038BCE05B075CF49A01220F331FBD
:103FF000220F331F420F531F440F551F4A0F511DED
:104000003196DF0111972C91A0EDA20FAA3048F351
:10401000C4FF03C0519541955109040F151FC1FFFD
:1040200007C0E114F10421F03197D701ED93FC931F
:104030000E943722C370C33019F06B017C0106C0A7
:104040006B017C01F7FAF094F7F8F09420E030E08F
:10405000A901C701B6010E943222882309F445C094
:1040600017FF06C0119501951109C7E8D0E002C0FD
:10407000CFE9D0E05E01B8E1AB1AB1084601BE2D30
:10408000AF2D90E2E92EF12C0E151F0584F0FE01F4
:104090002591359145915491B4018B2F9A2F0E940F
:1040A00098224B01B82FA92F0E191F09EDCF249785
:1040B000F594E794CA15DB0539F76401EB2EFA2E67
:1040C0008E2D880F8F2D881F8F3F49F020E030E024
:1040D000A901C701B6010E943222811106C082E205
:1040E00090E09093AA048093A904C701B60109C087
:1040F00060E070E080E89FEF04C060E070E080EC7A
:104100009FE7CDB7DEB7EEE00C948423283008F0AB
:1041100027E03327DA01990F311D87FD9160009662
:104120006105710539F432602E5F3D9330E32A95C5
:10413000E1F708959F3F30F080387105610509F07F
:104140003C5F3C5F3D93913008F08068911DDF93A8
:10415000CF931F930F93FF92EF92192F987F96950D
:10416000E92F96959695E90FFF27E350FF4F992782
:104170003327EE24FF24A701E70105900894079454
:1041800028F4360FE71EF81E491F511D660F771FD2
:10419000881F991F0694A1F70590079428F4E70E4D
:1041A000F81E491F561FC11D770F881F991F661FD4
:1041B0000694A1F70590079428F4F80E491F561F9E
:1041C000C71FD11D880F991F661F771F0694A1F77F
:1041D0000590079420F4490F561FC71FD81F990F49
:1041E000661F771F881F0694A9F784911095177092
:1041F00041F0D695C79557954795F794E7941A954A
:10420000C1F7E3EAF0E06894159015913591659156
:10421000959105907FE27395E118F10A430B560BD7
:10422000C90BD009C0F7E10CF11E431F561FC91F6F
:10423000D01D7EF4703311F48A95E6CFE8940150D6
:1042400030F0080F0AF40027021708F4202F2395F6
:10425000022F7A3328F079E37D932A95E9F710C08D
:104260007D932A9589F606949795679537951795C6
:104270001794E118F10A430B560BC90BD00998F0BB
:1042800023957E9173957A3308F070E37C93201325
:10429000B8F77E9170617D9330F0839571E37D93E3
:1042A00070E32A95E1F71124EF90FF900F911F9191
:1042B000CF91DF91992787FD9095089591110C94E6
:1042C0000523803219F089508550C8F70895FB0105
:1042D000DC014150504088F08D9181341CF08B35C9
:1042E0000CF4805E659161341CF06B350CF4605EFB
:1042F000861B611171F3990B0895881BFCCFFC019B
:104300000590615070400110D8F7809590958E0F00
:104310009F1F0895DC0101C06D9341505040E0F7AC
:104320000895FC016150704001900110D8F780950C
:1043300090958E0F9F1F08950F931F93CF93DF9338
:10434000FB01238121FD03C08FEF9FEF28C022FFD7
:1043500016C046815781248135814217530744F4A2
:10436000A081B1819D012F5F3F4F318320838C93CA
:10437000268137812F5F3F4F3783268310C0EB01A3
:10438000092F182F0084F185E02D0995892BE1F67E
:104390008E819F8101969F838E83812F902FDF9145
:1043A000CF911F910F910895FA01AA27283051F15A
:1043B000203181F1E8946F936E7F6E5F7F4F8F4F56
:1043C0009F4FAF4FB1E03ED0B4E03CD0670F781FB5
:1043D000891F9A1FA11D680F791F8A1F911DA11D9A
:1043E0006A0F711D811D911DA11D20D009F46894D3
:1043F0003F912AE0269F11243019305D3193DEF67B
:10440000CF010895462F4770405D4193B3E00FD030
:10441000C9F7F6CF462F4F70405D4A3318F0495D1B
:1044200031FD4052419302D0A9F7EACFB4E0A695FE
:104430009795879577956795BA95C9F70097610520
:10444000710508959B01AC010A2E06945795479576
:1044500037952795BA95C9F7620F731F841F951F6B
:10446000A01D08950E94742208F481E00895E89444
:1044700009C097FB3EF490958095709561957F4FAC
:104480008F4F9F4F9923A9F0F92F96E9BB2793955A
:10449000F695879577956795B795F111F8CFFAF46A
:1044A000BB0F11F460FF1BC06F5F7F4F8F4F9F4F9B
:1044B00016C0882311F096E911C0772321F09EE8F9
:1044C000872F762F05C0662371F096E8862F70E05F
:1044D00060E02AF09A95660F771F881FDAF7880F39
:1044E0009695879597F90895990F0008550FAA0B8F
:1044F000E0E8FEEF16161706E807F907C0F01216F7
:104500001306E407F50798F0621B730B840B950BF9
:1045100039F40A2661F0232B242B252B21F408954E
:104520000A2609F4A140A6958FEF811D811D0895EB
:104530000E94AB220C941F230E94112338F00E948A
:10454000182320F0952311F00C9408230C940E23CB
:1045500011240C9453230E94302370F3959FC1F3D0
:10456000950F50E0551F629FF001729FBB27F00D21
:10457000B11D639FAA27F00DB11DAA1F649F662776
:10458000B00DA11D661F829F2227B00DA11D621FC5
:10459000739FB00DA11D621F839FA00D611D221F7F
:1045A000749F3327A00D611D231F849F600D211D63
:1045B000822F762F6A2F11249F5750409AF0F1F0E6
:1045C00088234AF0EE0FFF1FBB1F661F771F881F4F
:1045D00091505040A9F79E3F510580F00C9408235C
:1045E0000C9453235F3FE4F3983ED4F3869577957C
:1045F0006795B795F795E7959F5FC1F7FE2B880FF5
:10460000911D9695879597F908959927882708957C
:1046100097F99F6780E870E060E008959FEF80EC75
:10462000089500240A941616170618060906089518
:1046300000240A9412161306140605060895092E7E
:104640000394000C11F4882352F0BB0F40F4BF2BED
:1046500011F460FF04C06F5F7F4F8F4F9F4F08952D
:1046600057FD9058440F551F59F05F3F71F0479523
:10467000880F97FB991F61F09F3F79F08795089508
:10468000121613061406551FF2CF4695F1DF08C027
:10469000161617061806991FF1CF86957105610544
:1046A00008940895E894BB2766277727CB0197F9EC
:1046B00008950E949B23A59F900DB49F900DA49FE9
:1046C000800D911D112408952F923F924F925F9279
:1046D0006F927F928F929F92AF92BF92CF92DF9212
:1046E000EF92FF920F931F93CF93DF93CDB7DEB777
:1046F000CA1BDB0B0FB6F894DEBF0FBECDBF09940B
:104700002A88398848885F846E847D848C849B8461
:10471000AA84B984C884DF80EE80FD800C811B816F
:10472000AA81B981CE0FD11D0FB6F894DEBF0FBE9E
:10473000CDBFED010895A29FB001B39FC001A39F1B
:10474000700D811D1124911DB29F700D811D1124CA
:10475000911D0895A1E21A2EAA1BBB1BFD010DC0DD
:10476000AA1FBB1FEE1FFF1FA217B307E407F50721
:1047700020F0A21BB30BE40BF50B661F771F881FFD
:10478000991F1A9469F760957095809590959B0193
:10479000AC01BD01CF010895EE0FFF1F0590F4910C
:1047A000E02D099481E090E0F8940C940824FB013A
:1047B000DC014150504030F08D910190801919F486
:1047C0000020B9F7881B990B0895AEE0B0E0EBEE3E
:1047D000F3E20C9472230D891E8986E08C831A8380
:1047E00009838FEF9FE79E838D83AE01475E5F4F06
:1047F0006F89788DCE0101960E94AD1B2F8138857F
:10480000F801E20FF31F10822E96E4E00C948E2341
:1048100011E0C9E1D1E004C0FE010E94CC23219641
:0A482000CA31D107C9F7F894FFCFA1
:10482A000000AB0480000000000000000000A502A8
:10483A0021036B025102500259026E02DA044F023E
:10484A004E0200000000A004A8048F0221036B029C
:10485A005102360559027002DA044F024E02000074
:10486A000000B505DF02000000006D02E102000051
:10487A000000BB02D502000000003F0755080000F7
:10488A0000003E075308000000003D0751082C189D
:10489A00000000000000000000E8FFE8FF00000040
:1048AA0000000014000000000000000000ECFFEC13
:1048BA00FF00000000000000000000DB014401735B
:1048CA00012202A40182019601060000000000599B
:1048DA00085B08FAFFFAFF00005A085D0818000092
:1048EA000000007A089108E8FFE8FF000087089BAB
:1048FA0008C30175017F01CD0100000000E60B57D6
:10490A000850084D084A0847084408BB07B707B4C7
:10491A00079E07BE07420740070200000000002664
:10492A000C5009FEFFFEFF000046095A090000006C
:10493A0000910C270C00000000E70BA50850084D59
:10494A00084A08470844083808F207D907C007BECA
:10495A0007C808A7081400000000001B093209EC68
:10496A00FFECFF000028093C093B0289019301453D
:10497A000200000000F506E30200000000710B7956
:10498A000B00000000000000006E020000000000A2
:10499A000000006E0200000000670E2F16250C347E
:1049AA0016FEFF00002E163116A21731302F0033E3
:1049BA00353000382F003230004254004E43004157
:1049CA005439303D2825642C25642C25642C256413
:1049DA002C2564290054657374000D0A004154643F
:1049EA00303D282900535550003F00415438313D8D
:1049FA002825642C25642C25732900415438333D1D
:104A0A002825642C25642C2573290041542B2573F1
:104A1A0000485600534554530053455400544C53D0
:104A2A000054425A0041434B004856310053523118
:104A3A000048563200535232004154006B5600006F
:00000001FF
