:100000000C94DC020C9404030C9404030C94170568
:100010000C9417050C9417050C9404030C9404031A
:100020000C9404030C9404030C9404030C94040334
:100030000C9404030C9404030C9404030C94040324
:100040000C94CA130C9404030C9408090C94E20851
:100050000C9404030C9404030C9404030C94040304
:100060000C9404030C9404032C182F18321838181D
:100070003518711871187118711871183B183E18DD
:1000800041184418471871187118711871187118AF
:100090004A18711850184D185318711871187118A2
:1000A0007118711871187118711871187118711808
:1000B00071187118711871187118711871187118F8
:1000C000711871187118711871187118561859181B
:1000D0005C185F186218651868186B184E414E4915
:1000E0004E495459494E46CDCCCC3D0AD7233C17F6
:1000F000B7D13877CC2B329595E6241FB14F0A0043
:100100000020410000C84200401C4620BCBE4CCA32
:100110001B0E5AAEC59D7400407A10F35A00A072AF
:100120004E18090010A5D4E80000E8764817000032
:10013000E40B54020000CA9A3B000000E1F5050000
:100140000080969800000040420F000000A0860149
:10015000000000102700000000E803000000006419
:1001600000000000000A0000000000010000000084
:10017000002C76D888DC674F0823DFC1DFAE59E159
:10018000B1B796E5E3E453C63AE651997696E8E6C8
:10019000C28426EB898C9B62ED407C6FFCEFBC9C9B
:1001A0009F40F2BAA56FA5F490055A2AF75C936BAD
:1001B0006CF9676DC11BFCE0E40D47FEF520E6B568
:1001C00000D0ED902E0300943577050080841E0842
:1001D0000000204E0A000000C80C333333330F9860
:1001E0006E12831141EF8D2114893BE65516CFFE27
:1001F000E6DB18D1844B381BF77C1D901DA4BBE4B3
:1002000024203284725E228100C9F124ECA1E53DF4
:1002100027536C617665205246204D657373616784
:10022000652052656365697665643A20004F4E200B
:100230005246204D4553534147452053454E443A7D
:1002400020004F4E205246204D45535341474520F4
:1002500053454E44204552524F523A20005749468A
:1002600049205245515545535420504F535445440D
:10027000204552524F520057494649205245515548
:1002800045535420504F5354454400574946492044
:1002900057414954494E47205245512052455350E9
:1002A0004F4E5345005749464920524551554553F5
:1002B000542053454E440057494649205245515514
:1002C00045535420495320504F5354494E470057EB
:1002D00049464920504F5354494E472052454144C6
:1002E00059005749464920535441525420504F53C6
:1002F00054494E4700574946492053544F502050C7
:100300004F5354494E47005749464920534552568A
:10031000455220434F4E4E454354454400574946AD
:10032000492053455256455220434F4E4E45435463
:10033000494E470057494649205345525645522099
:100340004552524F5200574946492053455256454F
:100350005220444953434F4E4E4543544544005761
:1003600049464920574C414E20434F4E4E45435439
:100370004544005749464920574C414E20434F4E73
:100380004E454354494E47204641494C0057494643
:100390004920574C414E20434F4E4E454354494E01
:1003A00047005749464920574C414E204348454352
:1003B0004B005749464920574C414E20444953432E
:1003C0004F4E4E4543544544005749464920494EF7
:1003D000495449414C495A494E47204552524F527F
:1003E000005749464920494E495449414C495A45CC
:1003F00044005749464920494E495449414C495ABD
:10040000494E47005749464920424C55444544000F
:1004100057494649204F464600467265652052417D
:100420004D2042543D2000425546464552207369B6
:100430007A653A20004255464645522073697A65EE
:100440003A20000001020304051112131415160AC4
:100450000B0C0D0E0F526164696F20506F7765723F
:10046000557000467265652052414D203D20005375
:100470005441525400467265652052414D203D2042
:1004800000467265652052414D2041465445523D1B
:1004900020003D3D3D3E205055534820524551558A
:1004A000455354530000000000250028002B000095
:1004B00000000023002600290004040404040404AE
:1004C0000402020202020203030303030301020403
:1004D00008102040800102040810200102040810C6
:1004E00020474554202573257320485454502F31FC
:1004F0002E310D0A486F73743A2025730D0A0D0AC8
:100500000076696E3D2564266C763D256426616C17
:100510003D2564007372633D25642663683D256C48
:100520007526736C3D25642664743D6C75004745E3
:1005300054202573257320485454502F312E310DEB
:100540000A486F73743A2025730D0A0D0A00766904
:100550006E3D2564266C763D256426616C3D2564E0
:10056000007372633D25642663683D256C752673B0
:100570006C3D25642664743D6C750014050105E12D
:100580000461054E052E0524204672656520524102
:100590004D203D200000000000240027002A00001C
:1005A0000000080002010000030407000000000032
:1005B00000000000381ECF2211241FBECFEFD8E06C
:1005C000DEBFCDBF12E0A0E0B1E0EAEEFDE502C083
:1005D00005900D92A63FB107D9F724E0A6EFB2E04F
:1005E00001C01D92AC35B207E1F712E0CBEDD2E0CD
:1005F00004C02197FE010E94932DCA3DD107C9F77F
:100600000E948E180C94E82E0C940000CF93DF9378
:10061000C0915903D0915A03E881F9810084F18592
:10062000E02DCE010995892BB9F3E881F981028487
:10063000F385E02DCE01DF91CF9109941F93CF93E5
:10064000DF93182FC0915903D0915A038A3041F497
:10065000E881F9810190F081E02D6DE0CE010995EE
:10066000E881F9810190F081E02D612FCE0109959B
:1006700021E030E0019711F420E030E0C901DF9182
:10068000CF911F9108952091190330911A032817D3
:10069000390771F49091170380911803981741F06E
:1006A000E0911703F0E0EA50FD4F808190E008955B
:1006B0008FEF9FEF089508951F93CF93DF93DC0191
:1006C0005C962D913C915D972115310539F481E0BF
:1006D00090E013969C938E9312973DC05196ED91A6
:1006E000FC91529750969C915097892F80951FB7F7
:1006F0005E964C915E9741FB772770F941FD6095BE
:10070000F8944081772311F0492B01C0482340839E
:10071000E9012197F1F748E0508160FF02C0592BB1
:1007200001C058235083E9012197F1F766954150A4
:1007300099F7772321F090818923808303C08081FA
:10074000982B90831FBF5C968D919C915D9701972C
:10075000F1F721E030E0C901DF91CF911F910895B9
:100760002091190330911A032817390769F48091F1
:1007700018032091170390E08096821B910960E294
:1007800070E00E945D2D089580E090E00895209132
:10079000190330911A0328173907B9F490911703F8
:1007A00080911803981789F0E0911703F0E0EA5060
:1007B000FD4F80812091170330E02F5F3F4F2F7155
:1007C00033272093170390E008958FEF9FEF08954C
:1007D000089580E090E008950895089508950C9498
:1007E0009023FB0120813181FC0131832083FB01B7
:1007F00042815381F901369720813181FC01E20F5A
:10080000F31F5183408308950895FC0120813181B5
:10081000828193812817390719F0822F0C940D13C8
:100820000895CF93DF93EC019CB59F7D9CBD9CB553
:10083000937F9CBD9CB59C7F9CBD9DB591609DBDEB
:100840008A810E940D138C899D89DF91CF910C9430
:10085000791361E00C94110460E00C9411048EBDD6
:1008600000000DB407FEFDCF8EB508951F93CF9302
:10087000DF93EC010E942C0481EE0E942F04182FBC
:10088000CE010E942904812FDF91CF911F910895FD
:10089000EF92FF921F93CF93DF9300D0CDB7DEB7D7
:1008A0007C014A8369830E942C046981862F8F71A1
:1008B00080620E942F04182F4A81842F0E942F04E7
:1008C000C7010E942904812F0F900F90DF91CF91D3
:1008D0001F91FF90EF900895CF92DF92EF92FF92D9
:1008E0000F931F93CF93DF9300D01F92CDB7DEB746
:1008F0007C01142F2A835B8369830E942C04698105
:10090000862F8F7180620E942F04082FC12E5B8179
:10091000D52E2A81120F1C1531F0F60181916F013D
:100920000E942F04F8CFC7010E942904802F0F9046
:100930000F900F90DF91CF911F910F91FF90EF904B
:10094000DF90CF900895EF92FF921F93CF93DF93A4
:100950001F92CDB7DEB77C0169830E942C046981A8
:10096000862F8F710E942F048FEF0E942F04182F63
:10097000C7010E942904812F0F90DF91CF911F9111
:10098000FF90EF900895EF92FF920F931F93CF93F4
:100990008C017B0166E00E94A304C82FC77D82E022
:1009A000E816F10431F4C0628BE990E0A0E0B0E019
:1009B0000DC0EA94EF2829F085E590E0A0E0B0E0D2
:1009C00005C0C86081E490E0A0E0B0E0F801808B51
:1009D000918BA28BB38B4C2F66E0C8010E94480418
:1009E00066E0C8010E94A30491E08C1390E0892F77
:1009F000CF911F910F91FF90EF900895CF93DF93C8
:100A0000EC0160E00E94A30481FD0EC0482F42600B
:100A100060E0CE010E94480465E070E080E090E074
:100A2000DF91CF910C948413DF91CF9108951F92A1
:100A30000F920FB60F9211242F933F934F935F9312
:100A40006F937F938F939F93AF93BF93EF93FF9396
:100A5000E0911903F0911A03309709F451C0968D73
:100A6000A685B785858591FF04C09C91892329F4CB
:100A700047C09C91892309F043C0A389B4899C9104
:100A80008589809589238C93868997890197F1F7C9
:100A9000608D718DA685B785558538E020E0CB0146
:100AA0000197F1F7822F90E095958795282F4C912B
:100AB000452309F02068315091F7868D81FD2095FE
:100AC0008091180390E001968F7199273091170358
:100AD000381749F0A0911803B0E0AA50BD4F2C93ED
:100AE0008093180303C0868D8160868F828D938DDD
:100AF0000197F1F7A389B4899C918589892B8C93FF
:100B0000FF91EF91BF91AF919F918F917F916F91E5
:100B10005F914F913F912F910F900FBE0F901F90BB
:100B20001895CF92DF92EF92FF920F931F93CF937E
:100B3000DF938C016B01770FEE08FF08F7FE12C000
:100B40006DE20E944508EC0144275527BA014C1973
:100B50005D096E097F092AE0C8010E948508C80F57
:100B6000D91F06C02AE0B701A6010E948508EC0142
:100B70006AEB72E0C8010E9470088C0F9D1FDF9124
:100B8000CF911F910F91FF90EF90DF90CF9008953C
:100B9000CF93DF93BC0189E893E00E947008EC01D9
:100BA0006AEB72E089E893E00E9470088C0F9D1F49
:100BB000DF91CF910895CF92DF92EF92FF920F9342
:100BC0001F93CF93DF936C017A018B01C0E0D0E0DB
:100BD000CE15DF0589F0D8016D918D01D601ED911B
:100BE000FC910190F081E02DC6010995892B11F44B
:100BF0007E0102C02196ECCFC701DF91CF911F91FA
:100C00000F91FF90EF90DF90CF900895FC01538DEE
:100C1000448D252F30E0842F90E0821B930B5417D6
:100C200010F0CF96089501970895FC01918D828D63
:100C3000981761F0828DDF01A80FB11D5D968C9130
:100C4000928D9F5F9F73928F90E008958FEF9FEF3B
:100C50000895FC01918D828D981731F0828DE80FF7
:100C6000F11D858D90E008958FEF9FEF0895FC01B1
:100C7000918D228D892F90E0805C9F4F821B91097E
:100C80008F739927089589E893E00E94370621E041
:100C9000892B09F420E0822F0895FC01848DDF0167
:100CA000A80FB11DA35ABF4F2C91848D90E00196DF
:100CB0008F739927848FA689B7892C93A089B189CE
:100CC0008C9180648C93938D848D981306C00288D8
:100CD000F389E02D80818F7D80830895EF92FF92CC
:100CE0000F931F93CF93DF93EC0181E0888F9B8D4F
:100CF0008C8D981305C0E889F989808185FD24C011
:100D0000F62E0B8D10E00F5F1F4F0F731127E02E93
:100D10008C8DE8120CC00FB607FCFACFE889F98970
:100D2000808185FFF5CFCE010E944D06F1CF8B8DDE
:100D3000FE01E80FF11DE35AFF4FF0820B8FEA89A5
:100D4000FB898081806207C0EE89FF896083E88922
:100D5000F98980818064808381E090E0DF91CF9188
:100D60001F910F91FF90EF900895CF93DF93EC01C7
:100D7000888D8823C9F0EA89FB89808185FD05C0BB
:100D8000A889B9898C9186FD0FC00FB607FCF5CFF5
:100D9000808185FFF2CFA889B9898C9185FFEDCF3D
:100DA000CE010E944D06E7CFDF91CF91089580E0FC
:100DB00090E0892B29F00E94430681110C940000D9
:100DC000089508950E94772E0C9490230C949023FC
:100DD0000C9490230C9490230C9490230C949023C7
:100DE0000F931F93CF93DF93EC0188819981009734
:100DF00029F02A813B812617370788F48B016F5F22
:100E00007F4F0E94AD2D009761F0998388831B83EB
:100E10000A832C813D81232B11F4FC01108281E097
:100E200001C080E0DF91CF911F910F910895CF9382
:100E3000DF936115710509F460C0FB01C081CF3FEC
:100E400011F461E003C0C11104C060E0FC018281C3
:100E500050C0FC01D28161E08D2F0E943D13ED2F27
:100E6000F0E0E156FA4FE491E33009F148F4E13063
:100E7000C9F0E230C1F584B5806284BDC8BD3DC013
:100E8000E73009F1E83039F1E43069F5809180000C
:100E90008062809380008C2F90E090938B008093F1
:100EA0008A002BC084B5806884BDC7BD26C08091F0
:100EB00080008068809380008C2F90E09093890060
:100EC000809388001AC08091B00080688093B00041
:100ED000C093B30012C08091B00080628093B000D4
:100EE000C093B4000AC0C03810F460E001C061E0F3
:100EF0008D2FDF91CF910C940D13DF91CF91089539
:100F0000CF93DF93DC01ED91FC91EB01A881B981D6
:100F1000309711F01097C9F4109759F0EB012C811C
:100F20003D81232B31F08C9190E091958195910931
:100F300014C0309781F0DC0114968D919C91159727
:100F4000892B49F0808190E008C0BD01CF01DF917D
:100F5000CF910C94852E80E090E0DF91CF910895A1
:100F6000EF92FF920F931F93CF93DF93FC012481A5
:100F700035816115710511F480E019C041155105E5
:100F8000A9F07B01EC018A01020F131FB8010E9436
:100F9000F006882389F3288139818C819D81B701EE
:100FA000820F931F0E948E2E1D830C8381E0DF91A0
:100FB000CF911F910F91FF90EF900895CF93DF9302
:100FC00000D0CDB7DEB769831A8241E050E0BE01A0
:100FD0006F5F7F4F0E94B0070F900F90DF91CF910E
:100FE00008956115710551F0FB0101900020E9F7AA
:100FF0003197AF01461B570B0C94B00780E0089562
:10100000EF92FF920F931F93CF93DF93EC017B013D
:101010008A01BA010E94F0062881398181110DC030
:101020002115310519F0C9010E94902319821882F7
:101030001D821C821B821A8206C01D830C83B7018D
:10104000C9010E948E2ECE01DF91CF911F910F9189
:10105000FF90EF900895FC01808191810C94902382
:10106000FC01118210821382128215821482611592
:10107000710551F0FB0101900020E9F73197AF01B4
:10108000461B570B0C9400080895DC01ED91FC9170
:101090000190F081E02D0994EF92FF920F931F933E
:1010A000CF93DF938C017B01C0E0D0E0F701EC0F20
:1010B000FD1F6491662361F0D801ED91FC910190D0
:1010C000F081E02DC8010995892B11F02196EECF12
:1010D000CE01DF91CF911F910F91FF90EF90089576
:1010E0006115710579F0FB0101900020E9F7319756
:1010F000AF01461B570BDC01ED91FC910280F3819F
:10110000E02D099480E090E008954F925F926F92F5
:101110007F92EF92FF920F931F93CF93DF93CDB700
:10112000DEB7A1970FB6F894DEBF0FBECDBF7C012E
:10113000FA01CB0119A2223008F42AE08E010F5DDA
:101140001F4F422E512C612C712CBF01A301920123
:101150000E94712DF901CA01015011096A3014F47D
:10116000605D01C0695CD8016C93232B242B252B77
:1011700061F7B801C7010E947008A1960FB6F894F4
:10118000DEBF0FBECDBFDF91CF911F910F91FF90BA
:10119000EF907F906F905F904F9008950F931F9303
:1011A000CF93DF93EC010E944C088C016AEB72E054
:1011B000CE010E947008800F911FDF91CF911F9187
:1011C0000F9108951F920F920FB60F9211242F9333
:1011D0003F934F935F936F937F938F939F93AF93BF
:1011E000BF93EF93FF9389E893E00E944D06FF9130
:1011F000EF91BF91AF919F918F917F916F915F918F
:101200004F913F912F910F900FBE0F901F90189507
:101210001F920F920FB60F9211242F938F939F93CB
:10122000EF93FF93E0919903F0919A038081E0910D
:101230009F03F091A00382FD12C090818091A203D0
:101240008F5F8F732091A303821751F0E091A20367
:10125000F0E0E757FC4F958F8093A20301C0808197
:10126000FF91EF919F918F912F910F900FBE0F9053
:101270001F9018950F931F93CF93DF93CDB7DEB7D1
:1012800027970FB6F894DEBF0FBECDBFDC011996CD
:101290008D919C911A970097C1F012962C911297FC
:1012A000FC0140815181FA01048115814EEA52E02E
:1012B0005A834983BC83AB832D831796BF83AE8348
:1012C000BE016F5F7F4FF801099527960FB6F8941E
:1012D000DEBF0FBECDBFDF91CF911F910F9108955B
:1012E000089508958F929F92AF92BF92CF92DF920E
:1012F000EF92FF920F931F93CF93DF93FC0121890D
:10130000223009F065C0EC010E94BE132D853E8598
:101310006901E12CF12C09851A852B853C85460154
:101320005701801A910AA20AB30ADC01CB01880D89
:10133000991DAA1DBB1DEF85F8894181528160E08E
:1013400070E084179507A607B70708F441C01E860A
:101350001D860E94BE1369877A878B879C87EF85DD
:10136000F889638174816115710579F48F8198859D
:10137000019698878F832D813E816B817C81211519
:10138000310519F0821793078CF4788B6F87CE01A3
:10139000DF91CF911F910F91FF90EF90DF90CF9051
:1013A000BF90AF909F908F900C941707198A788BFD
:1013B0006F871E861D8660E08A810E940D132F8133
:1013C00038858D819E812817390711F418861F8270
:1013D000DF91CF911F910F91FF90EF90DF90CF9011
:1013E000BF90AF909F908F9008950895FC018081E9
:1013F00091810C949023AF92BF92CF92DF92EF92A3
:10140000FF920F931F93CF93DF931F92CDB7DEB759
:101410008C016B017A01590188E090E0D8011396A4
:101420009C938E93129715961C921E9214970E946D
:10143000FB22F80191838083D6011496ED91FC91F3
:101440001597EE15FF0510F40E94772EBF016E1957
:101450007F09A616B70608F4B50119826115710552
:1014600031F0AE014F5F5F4FC8010E94B512F80125
:1014700084819581D601ED91FC91EE0EFF1EF8015D
:101480002081318140E050E0BA01A0E0B0E048178F
:1014900059076A077B0758F4F70111917F01F90199
:1014A00011939F014F5F5F4F6F4F7F4FF0CF0F90B2
:1014B000DF91CF911F910F91FF90EF90DF90CF9030
:1014C000BF90AF90089508950F931F93CF93DF932C
:1014D000EC01CB01088119817B836A830E94FB2286
:1014E0009983888320E030E08C819D81281739071B
:1014F00070F4E881F981E20FF31F309729F0D801E9
:10150000A20FB31F8C9180832F5F3F4FEDCFC80197
:10151000DF91CF911F910F910C949023089508951E
:10152000FB01108281E0089580E008950C949023DF
:101530000C9490230C9490230C949023CF93DF93DE
:10154000CDB7DEB72A970FB6F894DEBF0FBECDBF7A
:10155000FC0184AD95AD009741F1DB01FC012081D8
:101560003181F901448155812AE331E03A832983AD
:1015700012962D913C9113973C832B8314962D91B9
:101580003C9115973E832D8316962D913C9117978C
:1015900038872F8318962D913C9119973A87298780
:1015A000BE016F5F7F4FFA0109952A960FB6F89436
:1015B000DEBF0FBECDBFDF91CF9108950F931F9374
:1015C000CF93DF93FC01248D223018F0258D222348
:1015D00011F080E047C08C01EC012296CE010E9400
:1015E000FE0460E0CE010E94A304482F416060E049
:1015F000CE010E94480440E767E0CE010E94480403
:1016000061E0CE010E940504F8018385882351F032
:10161000F8012089A801455F5F4F6AE0CE010E9472
:101620006C0414C062E0CE010E94A304E3E4F4E081
:10163000E49121E030E001C0220FEA95EAF720951D
:10164000422F482362E0CE010E9448046DE1CE01A2
:101650000E94A30481FF03C0CE010E94360481E0F2
:10166000F801858FDF91CF911F910F9108956F92AF
:101670007F929F92AF92BF92CF92DF92EF92FF92B2
:101680000F931F93CF93DF93CDB7DEB72A970FB693
:10169000F894DEBF0FBECDBF7C015B01DC015A9622
:1016A0009C905A97992009F4B1C05B969C905B97E7
:1016B000992009F4ABC05C968C91823010F4912C87
:1016C000A5C0F701858D87010E5F1F4F811165C091
:1016D000F50101900020E9F7D7011996DC90CE2E94
:1016E000CA18DC1408F4CD2CF7018285811102C0E0
:1016F000DC1801C0D12CC8010E942C0480EA0E9491
:101700002F043501CA0CC61431F0D3018D913D016F
:101710000E942F04F8CFDD2029F080E00E942F04E2
:10172000DA94F9CFC8010E94290461E0C8010E943F
:101730000504C8010E942C048FEF0E942F04D82EAC
:10174000C8010E9429048D2D807399F360E0C801BF
:101750000E94050440E767E0C8010E94480484FF36
:1017600004C0C8010E943604912C8AE391E09A8358
:101770008983FC82EB828DE590E09E838D831886C1
:101780001F82BA86A986BE016F5F7F4FC7010E9484
:101790009E0AC7010E94DE0A39C060E0C8010E94AB
:1017A0000504D70152968D919C9153970E9479130D
:1017B0006DE1C8010E94A30481FF08C0F70182897E
:1017C00093890E947913C8010E94360460E0C80121
:1017D0000E94A304482F4E7F60E0C8010E94480485
:1017E00062E0C8010E94A304E3E4F4E0E49141E074
:1017F00050E001C0440FEA95EAF7482B62E0C801C7
:101800000E944804D7015D961C9262CF892D2A96CA
:101810000FB6F894DEBF0FBECDBFDF91CF911F9101
:101820000F91FF90EF90DF90CF90BF90AF909F907F
:101830007F906F9008950F931F93CF93DF93CDB751
:10184000DEB72A970FB6F894DEBF0FBECDBFFC01FE
:10185000248D2617E1F18C01648F8AE391E09A834D
:101860008983FC83EB838AE590E09E838D831886D1
:101870001F82CF014C969A878987BE016F5F7F4F89
:10188000CF010E949E0AF801848D8E3119F4F8016F
:10189000168E11C095EF980F9330A8F4F80183A12C
:1018A000882331F0B8016D5D7F4FC8010E94370B6E
:1018B00081E0F801868F0E94BE13F801678F70A344
:1018C00081A392A302C08A3011F381E001C080E0BD
:1018D0002A960FB6F894DEBF0FBECDBFDF91CF9131
:1018E0001F910F9108958091230390912403892BD8
:1018F00089F58EE390E00E94FB22FC0186EB92E0EA
:101900009183808389E090E0938382838AE090E0F2
:1019100095838483108680E28187128685E0808BA0
:1019200085E090E0A0E0B0E0868B978BA08FB18F30
:101930001386128E81E0838F148E158E168E178E6D
:1019400010A211A212A213AE15AE14AEF09324038E
:10195000E093230380912303909124030895CF9370
:10196000DF931F92CDB7DEB7FC0163818DE391E079
:1019700069830E94502C6981681739F08DE391E0EA
:101980000F90DF91CF910C94582C0F90DF91CF9155
:101990000895CF93DF931F92CDB7DEB7FC0162812C
:1019A0008EE391E069830E94502C6981681739F0B9
:1019B0008EE391E00F90DF91CF910C94582C0F9013
:1019C000DF91CF910895BF92CF92DF92EF92FF9275
:1019D0000F931F93CF93DF9300D01F92CDB7DEB745
:1019E0008C01FC018381B280803428F52B2D280FD7
:1019F000203408F02F738F5FF8018383C801298397
:101A00006A837B830E94AF0C8BE02981289FE02CA6
:101A100011246A81062F7B81172FF12CF801619127
:101A20008F018F2D8E0D90E00E94582CF394FBE0D7
:101A3000FF12F4CF27C08BE0B89ED02C11247B017D
:101A4000C12CF70161917F018C2D8D0D90E00E94DA
:101A5000582CC394FBE0CF12F4CF91E09B0DF8011A
:101A60008281903420F4891759F0928304C088232E
:101A700039F0F8011282C8010E94C90C81E001C04E
:101A800080E0F82E8F2D0F900F900F90DF91CF9167
:101A90001F910F91FF90EF90DF90CF90BF9008952E
:101AA00008950895FC01DC010D900020E9F79F9353
:101AB0008F9382EF92E09F938F93AE1B1F92AF9311
:101AC0007F936F930E94952E8DB79EB708960FB6A1
:101AD000F8949EBF0FBE8DBF08955F926F927F9264
:101AE0008F929F92AF92BF92CF92DF92EF92FF922E
:101AF0000F931F93CF93DF93CDB7DEB72D970FB61C
:101B0000F894DEBF0FBECDBF6C014B015A018901B5
:101B1000FA0110826CEB72E0CE0107960E94300849
:101B20006CEB72E0CE0101960E943008F6016191E3
:101B30007F0187EDC82E82E0D82E20E090E2592E5A
:101B40005C0C3801F8E06F0E711C61110EC08B85C2
:101B50009C85892B09F46CC08F8198852D870E9404
:101B60002C24F50180832D8563C06A3081F35C14D9
:101B700071F32230D9F028F4222349F0213081F08A
:101B800050C0243061F1B8F02530E9F14AC06B3221
:101B900009F442C0F6018081681709F442C05AC0B6
:101BA0006B32E1F16D33E1F1C40131C06D33C1F14C
:101BB000CE0107962CC06C3241F54D81442329F0AB
:101BC000B80189819A810E94520D40E050E06CEB8F
:101BD00072E0CE0101960E94000824E022C06C321F
:101BE000A1F44D81442329F0B30189819A810E9497
:101BF000520D40E050E06CEB72E0CE0101960E9485
:101C0000000825E00EC06C3261F0CE0101962D87F0
:101C10000E94DE072D8505C021E003C022E001C03F
:101C200023E0F70161917F01FFEFCF1ADF0A8DCF2B
:101C30004D81442389F089819A81B801233039F09C
:101C4000243019F4685F7F4F02C0605F7F4F0E94AD
:101C5000520D02C010E001C011E0CE0101960E94B9
:101C60002B08CE0107960E942B08812F2D960FB6C8
:101C7000F894DEBF0FBECDBFDF91CF911F910F91C2
:101C8000FF90EF90DF90CF90BF90AF909F908F909C
:101C90007F906F905F9008950895CF93DF93CDB7B5
:101CA000DEB72A970FB6F894DEBF0FBECDBFFC019A
:101CB000EA58FF4F80819181009741F1DB01FC01DF
:101CC00020813181F901448155812AE331E03A8351
:101CD000298312962D913C9113973C832B83149664
:101CE0002D913C9115973E832D8316962D913C9115
:101CF000179738872F8318962D913C9119973A871B
:101D00002987BE016F5F7F4FFA0109952A960FB6AA
:101D1000F894DEBF0FBECDBFDF91CF91089581E073
:101D2000089582E00895CB0108957F928F929F924B
:101D3000AF92BF92CF92DF92EF92FF920F931F93D9
:101D4000CF93DF93EC0149015A018B01C12CD12CB7
:101D50007601C814D904EA04FB0484F5F8017190F3
:101D60008F018F8580FF0BC0E881F9810084F185A8
:101D7000E02D20E144E060E070E0CE010995EB85C4
:101D8000FC858D859E85E817F90738F470828B8570
:101D90009C8501969C878B870BC0E881F981672D14
:101DA00070E0028CF38DE02DCE010995019649F08B
:101DB0002FEFC21AD20AE20AF20ACBCFB401C50150
:101DC00002C0B601C701DF91CF911F910F91FF9023
:101DD000EF90DF90CF90BF90AF909F908F907F90CB
:101DE0000895CF93DF93EC01E881F9810288F389AC
:101DF000E02D09958F3F2FEF920731F02D813E8125
:101E00002F5F3F4F3E832D83DF91CF9108958FEF5A
:101E10009FEF089560E070E0CB01089580E090E0CE
:101E20000895CB010895CF93DF93EC0188899989B8
:101E3000DC01ED91FC910084F185E02D0995892B61
:101E4000A9F388899989DC01ED91FC910284F385DD
:101E5000E02DDF91CF910994CF93DF93EC01888936
:101E60009989DC01ED91FC910084F185E02D0995C3
:101E7000892BA9F388899989DC01ED91FC9104846F
:101E8000F585E02DDF91CF910994AF92BF92CF926B
:101E9000DF92EF92FF920F931F93CF93DF9300D0C7
:101EA00000D0CDB7DEB78C015B01C12CD12C7601FF
:101EB000F80180899189DC01ED91FC910284F38520
:101EC000E02D29833A834B835C83099529813A81EC
:101ED0004B815C818F3F71F0C216D306E406F50694
:101EE0004CF4D5018D935D01BFEFCB1ADB0AEB0AF1
:101EF000FB0ADECFC701B6010F900F900F900F9035
:101F0000DF91CF911F910F91FF90EF90DF90CF90D5
:101F1000BF90AF900895DC0150968D919C915197A0
:101F2000DC01ED91FC910084F185E02D099480E0C5
:101F300090E0089580E090E0089580E090E00895BA
:101F400080E090E0089508950C9490230C949023E1
:101F50000C9490230C949023089508950C9490234E
:101F6000DC01ED91FC91369720813181820F931F26
:101F70000C94AE0FFB0120813181FC013183208361
:101F8000FB0142815381F901369720813181FC01A7
:101F9000E20FF31F51834083089522E931E0FC01F1
:101FA000318320832CE931E0318F208F62EA71E0A8
:101FB0000C94BA0FDC01ED91FC91369720813181B0
:101FC000820F931F0C94CD0FCF93DF93EC010E94EF
:101FD000CD0FCE01DF91CF910C949023DC01ED91D8
:101FE000FC91369720813181820F931F0C94E40F6E
:101FF0000C949023CF92DF92EF92FF920F931F9356
:10200000CF93DF93CDB7DEB7A6970FB6F894DEBFB8
:102010000FBECDBF8C017B01E1E8F5E065917491C5
:102020009E012F5F3F4F6901C9010E944A24F801B8
:1020300084858F9383858F9382858F9381858F93FA
:1020400080858F9387818F9386811F928F93DF92F4
:10205000CF921F9286E28F93FF92EF920E94952E6D
:10206000F70115A20FB6F894DEBF0FBECDBFA6963E
:102070000FB6F894DEBF0FBECDBFDF91CF911F9199
:102080000F91FF90EF90DF90CF900895CF92DF9265
:10209000EF92FF920F931F93CF93DF93CDB7DEB7ED
:1020A000A6970FB6F894DEBF0FBECDBF8C017B01A3
:1020B000EDE7F5E0659174919E012F5F3F4F690157
:1020C000C9010E944A24F80185811F928F9384815F
:1020D0001F928F9383818F9382818F93DF92CF9210
:1020E0001F9286E28F93FF92EF920E94952EF70146
:1020F00015A20FB6F894DEBF0FBECDBFA6960FB6E1
:10210000F894DEBF0FBECDBFDF91CF911F910F912D
:10211000FF90EF90DF90CF9008950F931F93CF9390
:10212000DF938C01EB016F3F8FEF780719F480E0AC
:1021300090E00FC06A3031F46DE0F8018089918938
:102140000E9445086C2FF801808991890E944508FA
:10215000CE01DF91CF911F910F9108958F929F92A1
:10216000BF92CF92DF92EF92FF920F931F93CF9384
:10217000DF9300D000D0CDB7DEB78C014B01C12C6E
:10218000D12C7601C216D306E406F50644F5F40117
:10219000B1904F01FAE0BF120EC06DE0F8018089E6
:1021A000918929833A834B835C830E9445085C8133
:1021B0004B813A8129816B2DF8018089918929838E
:1021C0003A834B835C830E944508FFEFCF1ADF0AF6
:1021D000EF0AFF0A5C814B813A812981D3CFCA0182
:1021E000B9010F900F900F900F90DF91CF911F9139
:1021F0000F91FF90EF90DF90CF90BF909F908F90C6
:1022000008952AE032E0FC013183208324E132E0AA
:10221000358B248B6AE172E00C94F103DC01ED91C3
:10222000FC91369720813181820F931F0C9401110C
:10223000CF93DF93EC010E940111CE01DF91CF918A
:102240000C949023DC01ED91FC9136972081318133
:10225000820F931F0C941811DC01ED91FC913697BD
:1022600020813181820F931F0C94EE03CF93DF9373
:10227000EC010E94EE03CE01DF91CF910C949023EC
:10228000DC01ED91FC91369720813181820F931F03
:102290000C9436110F931F93CF93DF93CDB7DEB716
:1022A0002A970FB6F894DEBF0FBECDBF8C01FC019C
:1022B000808D90E02AE331E03A8329831C830B83ED
:1022C0009E838D8318861F821A861986BE016F5FD2
:1022D0007F4FC8010E944D0EF801808D873359F061
:1022E00028F4843341F0863331F04FC0883359F0FD
:1022F000893381F14AC00E94BE13F801668F778F3F
:1023000080A391A342C00E94BE13F801668F778F0D
:1023100080A391A39481992389F08589E80FF11D09
:10232000E80FF11D168215828F5FF801883010F4D6
:10233000858B01C0158A9150F8019483F801808D36
:10234000833329F083E3808FC8010E944A1188EE0D
:1023500093E011C00E94BE13F801668F778F80A3AF
:1023600091A3808D833329F083E3808FC8010E947D
:102370004A1188E893E1F80193A382A30E94BE1357
:10238000F801628F738F848F958F2A960FB6F89419
:10239000DEBF0FBECDBFDF91CF911F910F9108958A
:1023A000EF92FF920F931F93CF93DF93CDB7DEB7DA
:1023B0002A970FB6F894DEBF0FBECDBF8C01FC018B
:1023C000878990E02AE331E03A8329831C830B83D9
:1023D0009E838D8318861F821A861986CE010196E8
:1023E0007C01BC01C8010E944D0EF80187898D3027
:1023F00081F028F4843051F08A30F1F024C0873124
:1024000079F08831C9F08E30F1F416C080E29EE494
:1024100009C08AE0F801878BC8010E94D0110CC066
:1024200080E395E7F80193A382A30E94BE13F8010D
:10243000628F738F848F958F0E94BE13F801668F11
:10244000778F80A391A367E875E089E893E00E9405
:102450004C088091500490915104B701681B790B8E
:1024600089E893E00E94910582E390E0F80193A34C
:1024700082A30E94BE13F801628F738F848F958FA1
:102480002A960FB6F894DEBF0FBECDBFDF91CF9175
:102490001F910F91FF90EF9008950F931F93CF938B
:1024A000DF93EC018C819D89883070F4980F98300F
:1024B00008F09770FE01E90FF11DE90FF11D768319
:1024C00065838F5F8C8321C08B01FE01E90FF11DB5
:1024D000E90FF11D8581968116821582009739F0EA
:1024E000DC01ED91FC910280F381E02D09958D894D
:1024F000FE01E80FF11DE80FF11D168305838F5FC4
:10250000883010F48D8B01C01D8A81E0DF91CF915E
:102510001F910F91089508950895089508950895BD
:102520003FB7F89480912A0390912B03A0912C033C
:10253000B0912D0326B5A89B05C02F3F19F0019639
:10254000A11DB11D3FBFBA2FA92F982F8827820F39
:10255000911DA11DB11DBC01CD0142E0660F771F89
:10256000881F991F4A95D1F70895EF92FF920F9314
:102570001F93CF93DF93EC018B017A018A819B81BA
:102580008617970740F4685F7F4F8617970718F400
:10259000CE010E94640A8C819D818017910758F4B6
:1025A000E881F981E80FF91F309719F0D7012C91D4
:1025B00020830196F2CF1D830C83DF91CF911F9171
:1025C0000F91FF90EF900895833081F028F48130CF
:1025D00099F08230A1F008958730A9F08830B9F0E1
:1025E0008430D1F4809180008F7D03C08091800081
:1025F0008F7780938000089584B58F7702C084B56B
:102600008F7D84BD08958091B0008F7703C0809145
:10261000B0008F7D8093B00008951F93CF93DF9318
:10262000282F30E0F901E156FA4F8491F901E35384
:10263000FB4FD491F901E754FB4FC491CC23C9F06F
:10264000162F81110E94E412EC2FF0E0EE0FFF1F15
:10265000EB55FB4FA591B4918FB7F894111105C0BC
:102660009C91ED2FE095E92302C0EC91ED2BEC93CA
:102670008FBFDF91CF911F910895CF93DF9390E0AB
:10268000FC01E353FB4F2491FC01E754FB4F849181
:10269000882361F190E0880F991FFC01EB56FA4FF7
:1026A000C591D491FC01EB55FB4FA591B4916111FB
:1026B00009C09FB7F8948881209582238883EC9184
:1026C0002E230BC0623061F49FB7F8943881822FBB
:1026D000809583238883EC912E2B2C939FBF06C07B
:1026E0008FB7F894E8812E2B28838FBFDF91CF918D
:1026F00008958230910538F0880F991F880F991F2F
:1027000005970197F1F708958F929F92AF92BF922C
:10271000CF92DF92EF92FF926B017C010E949012A8
:102720004B015C01C114D104E104F104F1F00E94F9
:102730009012DC01CB0188199909AA09BB09883ECE
:102740009340A105B10570F321E0C21AD108E10858
:10275000F10888EE880E83E0981EA11CB11CC114FC
:10276000D104E104F10419F7DDCFFF90EF90DF9081
:10277000CF90BF90AF909F908F9008952FB7F8940F
:10278000609126037091270380912803909129037B
:102790002FBF08951F920F920FB60F9211242F93FF
:1027A0003F938F939F93AF93BF9380912603909114
:1027B0002703A0912803B09129033091250323E03A
:1027C000230F2D3720F40196A11DB11D05C026E869
:1027D000230F0296A11DB11D20932503809326038C
:1027E00090932703A0932803B093290380912A0391
:1027F00090912B03A0912C03B0912D030196A11D64
:10280000B11D80932A0390932B03A0932C03B093C4
:102810002D03BF91AF919F918F913F912F910F9079
:102820000FBE0F901F901895089508950C94902353
:1028300002970C94161404970C941614EF92FF92BE
:102840000F931F93CF93DF931F92CDB7DEB7DB01BA
:102850001296ED91FC911397DC0116962D913C9107
:102860001797E217F30709F066C08C0187819085FE
:10287000009719F0039779F15EC067E274E089E888
:1028800093E00E944C08D8011C96ED91FC911D9795
:10289000438150E060E070E02AE089E893E00E9424
:1028A00085086AEB72E089E893E00E94700869E1AC
:1028B00074E089E893E00E944C0880915004909164
:1028C0005104BE016F5F7F4F681B790B89E893E06D
:1028D0000E94910530C0FD01E484F584D701139670
:1028E0008C911397882329F013961C92C7010E949C
:1028F000AF0CF7018281882321F01282C7010E9468
:10290000C90C65E374E089E893E00E944C08D801A3
:102910001C96ED91FC911D97438150E060E070E0C2
:102920002AE089E893E00E9485086AEB72E089E872
:1029300093E00E9470080F90DF91CF911F910F914B
:10294000FF90EF90089504970C941E142F923F92DD
:102950004F925F926F927F928F929F92AF92BF92AF
:10296000CF92DF92EF92FF920F931F93CF93DF935B
:10297000CDB7DEB7CF55D1090FB6F894DEBF0FBE85
:10298000CDBF7C01FB01228133816C963FAF2EAF1E
:102990006C97C480D580DC011A968D919C911B9711
:1029A0002817390709F041C3C60199278D359105CC
:1029B00009F42BC38E35910509F42CC38B35910591
:1029C00009F033C38084918461E172E089E893E087
:1029D0000E944C08C4010E94C8056CEB72E0CE0155
:1029E0008D5A9F4F0E9430085E01B9E1AB0EB11CB9
:1029F00088E1F50111928A95E9F79501AE01475AF0
:102A00005F4FBE016D5A7F4FC4010E946D0D6DEB8B
:102A100072E0CE0101960E943008BE016F5F7F4FC9
:102A2000CE018D5A9F4F0E9480074C01CE01019626
:102A30000E942B08892809F43FC261EC72E0CE01A4
:102A400001960E943008BE016F5F7F4FCE018D5A04
:102A50009F4F0E9480074C01CE0101960E942B08D7
:102A6000892809F0A3C0C5010E94282420E030E095
:102A70004AE754E40E94B72C1B012C019B01AC01D6
:102A8000D70154966D917D918D919C9157970E949D
:102A9000292B882309F410C2F701248A358A468A33
:102AA000578A20E030E040E450E4C201B1010E94C6
:102AB000582D11E0181684F020E030E040E450E496
:102AC000D70158966D917D918D919C915B970E9455
:102AD000582D18160CF010E0F701848D8113148F17
:102AE000D70152966D907C905397A2019101F3010A
:102AF00065817681878190850E94292B882309F43E
:102B0000DBC1D30115962D923D924D925C921897A0
:102B10004E01BCE38B0E911C86E0F40111928A9564
:102B2000E9F7840122E042E0C201B1010E94DB2208
:102B300088E090E09CAB8BAB1EAA1DAA0E94FB22F2
:102B40009AAB89AB20E030E040E251E4C201B10130
:102B50000E94292B87FF06C065EC72E0CE01C1966A
:102B60000E947722B401CE01C1960E94772267ECC1
:102B700072E0CE01C1960E9477228E01095B1F4F41
:102B80002FEF3FEF40E050E0BE016F5C7F4FCE0182
:102B900001960E94FB0940E050E0BE016F5F7F4F4D
:102BA000D30112968D919C911397FEC06AEC72E04E
:102BB000CE0101960E943008BE016F5F7F4FCE01AB
:102BC0008D5A9F4F0E9480074C01CE0101960E94B2
:102BD0002B088928A1F5C5010E942824A0966CAF76
:102BE0007DAF8EAF9FAFA097CE0181960E94282423
:102BF0002B013C01CE0189960E9428240E94292D98
:102C000069AB7AAB8BAB9CAB81E08DABA0966CAD26
:102C10007DAD8EAD9FADA0970E94292D6EAB7FAB91
:102C200088AF99AFC301B2010E94292D7BAF6AAF73
:102C3000BE016F5C7F4FF7018485958508C16EECFE
:102C400072E0CE0101960E943008BE016F5F7F4F97
:102C5000CE018D5A9F4F0E9480074C01CE010196F4
:102C60000E942B08892809F0AAC0C5010E942824C7
:102C700020E030E04AE754E40E94B72C1B012C010D
:102C80009B01AC01D70158966D917D918D919C91DE
:102C90005B970E94292B882309F40EC1F701208E2F
:102CA000318E428E538E20E030E040E450E464895F
:102CB0007589868997890E94582D11E018165CF055
:102CC00020E030E040E450E4C201B1010E94582D00
:102CD00018160CF010E0D7015C968C915C97811768
:102CE00011F05C961C93F70162887388A201910130
:102CF000D30119966D917D918D919C911C970E94A5
:102D0000292B882309F4D8C0F30121863286438613
:102D100054864E01FCE38F0E911C86E0D4011D9277
:102D20008A95E9F7840122E042E0C201B1010E94E4
:102D3000DB2288E090E09CAB8BAB1EAA1DAA0E9410
:102D4000FB229AAB89AB20E030E040E251E4C201C3
:102D5000B1010E94292B87FF06C065EC72E0CE010D
:102D6000C1960E947722B401CE01C1960E947722BB
:102D700067EC72E0CE01C1960E9477228E01095B5A
:102D80001F4F2FEF3FEF40E050E0BE016F5C7F4FE1
:102D9000CE0101960E94FB0942E050E0BE016F5F48
:102DA0007F4FF301828193810E94DD21CE01019644
:102DB0000E94F609CE01C1960E94F6097DC062ED1F
:102DC00072E0CE0101960E943008BE016F5F7F4F16
:102DD000CE018D5A9F4F0E9480074C01CE01019673
:102DE0000E942B088928B1F5C5010E9428243B01C7
:102DF0004C01CE0181960E9428241B012C01CE019A
:102E000089960E9428240E94292D6CAF7DAF8EAF39
:102E10009FAF82E021968FAF2197C401B3010E943A
:102E2000292D25966CAF7DAF8EAF9FAF2597C20140
:102E3000B1010E94292D27967FAF6EAF2797BE0163
:102E4000645C7F4FD7011C968D919C911D970E94C9
:102E5000E30C32C066ED72E0CE0101960E943008AC
:102E6000BE016F5F7F4FCE018D5A9F4F0E9480073A
:102E70004C01CE0101960E942B088928E9F4C50176
:102E80000E94282420E030E048EC52E40E94B72C55
:102E90001B012C019B01AC01F701658D768D878D9F
:102EA00090A10E94292B882339F0D7015D962D929D
:102EB0003D924D925C9290976A961FAD6A9711234E
:102EC00009F49DC0198E19A219A667ED72E0CE0112
:102ED000835B9F4F0E9430086BE2CE01835B9F4F64
:102EE0000E94DE076AED72E0CE01835B9F4F0E9475
:102EF000F1071F921F938EED92E09F938F931F9285
:102F000084E08F934E01B7E48B0E911C9F928F92B9
:102F10000E94952E6BE2CE01835B9F4F0E94DE07DD
:102F2000B401CE0101960E9430084D815E81698115
:102F30007A81CE01835B9F4F0E94B007CE0101963C
:102F40000E942B086CEB72E0C4010E9430080FB69F
:102F5000F894DEBF0FBECDBF898D882321F0B50167
:102F6000C4010E94F10789A1882351F06CE2C401D9
:102F70000E94DE07BE016F5D7F4FC4010E94F10712
:102F800089A5882351F06CE2C4010E94DE07BE01CE
:102F9000675D7F4FC4010E94F107D40114968D91A3
:102FA0009C911597892B81F06DE3CE01835B9F4F38
:102FB0000E94DE07F4014481558160817181CE0158
:102FC000835B9F4F0E94B00762964FAD6297BE0130
:102FD0006F5F7F4F2F968EAD9FAD2F970E94520D42
:102FE000C4010E942B08CE01835B9F4F0E942B08D7
:102FF0000E94730CBE016F5F7F4F0E94370BCE01A2
:103000008D5A9F4F0E942B0810C0A084B1846DE29E
:1030100072E004C0A084B18462E472E089E893E0C5
:103020000E944C08C5010E94C805D7011E968D91CB
:103030009C911F976C96EEADFFAD6C97E817F90762
:1030400009F04FC0F601FF27EA33F10508F049C047
:10305000EC5CFF4F0C94932D60E174E03EC064E0A3
:1030600074E03BC062EF73E038C061EE73E035C0DE
:1030700069EC73E032C062EB73E02FC062EA73E088
:103080002CC06DE873E029C063E773E026C06FE5EC
:1030900073E023C066E473E020C064E373E01DC006
:1030A0006DE173E01AC067E073E017C065EF72E08E
:1030B00014C062EE72E011C06FEC72E00EC067EBFC
:1030C00072E00BC065EA72E008C06BE872E005C010
:1030D00067E772E002C06DE572E089E893E00E9464
:1030E000CE08C15ADF4F0FB6F894DEBF0FBECDBF7A
:1030F000DF91CF911F910F91FF90EF90DF90CF90D4
:10310000BF90AF909F908F907F906F905F904F9007
:103110003F902F90089502970C94A614CF93DF93BD
:10312000CDB7DEB7CC55D1090FB6F894DEBF0FBED0
:10313000CDBF789484B5826084BD84B5816084BD40
:1031400085B5826085BD85B5816085BD80916E0045
:10315000816080936E001092810080918100826076
:1031600080938100809181008160809381008091B3
:1031700080008160809380008091B10084608093A2
:10318000B1008091B00081608093B00080917A009E
:10319000846080937A0080917A00826080937A00C4
:1031A00080917A00816080937A0080917A008068B3
:1031B00080937A001092C10061E085E00E943D1387
:1031C00061E087E00E943D1361E086E00E943D13CC
:1031D000E0919903F0919A0382E08083E091950356
:1031E000F09196031082E0919703F091980380E1AB
:1031F00080831092A103E0919D03F0919E0386E0ED
:103200008083E0919B03F0919C03808180618083A7
:10321000E0919B03F0919C03808188608083E09122
:103220009B03F0919C03808180688083E0919B03E5
:10323000F0919C0380818F7D8083E0913803F09131
:103240003903309721F086E393E0928781870091DC
:103250003C0310913D030115110539F084E393E01F
:10326000D801DD969C938E93DC97E0914003F0911A
:103270004103309759F0EA58FF4F80819181845380
:10328000934021F084E393E091838083E0903E03B8
:10329000F0903F038DE391E00E94502CF70183836F
:1032A0008EE391E00E94502CD70112968C93F80186
:1032B000828D882339F0848D823020F0838D88239D
:1032C00009F4A9C2E0903C03F0903D0387010E5F32
:1032D0001F4FD70112968D919C91139714962D91A3
:1032E0003C9115978217930719F061E00E943D13F6
:1032F000F70184819581228133812817390719F0DC
:1033000061E00E943D13DFB6F894809116038111AD
:1033100027C0E3ECF4E08491E7EDF4E09491E82F2A
:10332000F0E0EE0FFF1FEB56FA4FA591B491EC9130
:10333000E92321F461E08AE00E940D1361E08AE054
:103340000E943D138CB580618CBD8CB580648CBDB2
:1033500061E08DE00E943D1361E08BE00E943D132F
:10336000809116038F5F80931603DFBE60E0C80173
:103370000E94050461E0C8010E94110465E070E04C
:1033800080E090E00E9484134CE060E0C8010E945D
:1033900048044FE564E0C8010E94480462E070E020
:1033A000C8010E94C304882321F081E0D701189648
:1033B0008C9366E0C8010E94A304D82E60E070E000
:1033C000C8010E94C304C8010E942C0480E50E9429
:1033D0002F0483E70E942F04C8010E94290440E0C3
:1033E0006DE1C8010E94480440E06CE1C8010E9400
:1033F0004804F701128640E767E0C8010E944804CC
:103400004CE465E0C8010E944804C8010E942C04F5
:1034100082EE0E942F04C8010E942904C8010E9464
:103420003604C8010E94FE0460E0C8010E94A304A3
:10343000482F4E7F60E0C8010E9448048FEF8D0D39
:103440008E3F08F09AC044EA64E0C8010E94480434
:1034500040E06DE1C8010E94480440E06CE1C80111
:103460000E944804D7011A961C921A9788E119966F
:103470008C93199781E02E968FAF2E972F961FAEC3
:103480002F9760961FAE609761961FAE6197629608
:103490001FAE629763961FAE639764961FAE6497E4
:1034A00065961FAE659750962C91AE01435B5F4FBA
:1034B0006AE0C8010E946C04F7012089AE01435BF9
:1034C0005F4F60E1C8010E946C04D70119964C91CE
:1034D00061E1C8010E94480482E026968FAF2697DA
:1034E00027961FAE279728961FAE289729961FAEBE
:1034F00029972A961FAE2A972B961FAE2B972C96AC
:103500001FAE2C972D961FAE2D97E0E5F4E0649149
:10351000F7012089AE014B5B5F4FC8010E946C042C
:10352000EAE4F4E06491D70119964C91C8010E9435
:10353000480462E0C8010E94A304E4E4F4E0E491DA
:1035400041E050E001C0440FEA95EAF7482B62E001
:10355000C8010E94480466E0C8010E94A304887F55
:10356000482F436066E0C8010E94480462E070E0B2
:10357000C8010E94C30462E001C061E0C7010E946B
:103580001B0C80913C0390913D030E94DE0AE09168
:103590003C03F0913D03828D811102C081E0828F56
:1035A000E0914003F09141038689813011F081E080
:1035B000868B808D833328F483E3808FCF010E9434
:1035C0004A1161E085E00E940D1361E087E00E94EE
:1035D0000D1361E086E00E940D136AEF70E080E059
:1035E00090E00E94841360E085E00E940D1360E08B
:1035F00087E00E940D1360E086E00E940D1365E7EE
:1036000074E089E893E00E944C0880915004909106
:103610005104FE0131967F01BF01681B790B89E8D7
:1036200093E00E9491056FE674E089E893E00E94C0
:10363000CE0863E674E089E893E00E944C0880912C
:10364000500490915104B701681B790B89E893E00D
:103650000E9491056E01F9E1CF0ED11C2E012BE5E0
:10366000420E511C4EE2242E41E0342E0E94BE1325
:1036700000912E0310912F032091300330913103DC
:10368000DC01CB01801B910BA20BB30B803D97405B
:10369000A105B10554F00E94BE1360932E037093F0
:1036A0002F03809330039093310300913C031091DA
:1036B0003D03D8015A968C915A97882309F484C007
:1036C0005C968C91823008F47FC05801B2E0AB0E5A
:1036D000B11C67E1C5010E94A30480FFABC02AC0F2
:1036E000C5010E94290440E767E0C5010E94480423
:1036F00019AA2AE3A22E21E0B22EBCAEABAE1EAFB9
:103700000DAF8BE590E021969FAF8EAF219723966A
:103710001FAE1EAE23972596DFAECEAE2597BE0117
:10372000655C7F4FC8010E949E0AF801848D82303B
:1037300008F0A9C0F801648D85EF860F843008F089
:1037400043C0868D8130D1F50E94BE13D8015F96AB
:103750008D909D90AD90BC909297DC01CB01881923
:103760009909AA09BB0981389105A105B10560F144
:10377000F801848D8D30F0F083AD898F8AE391E07C
:103780009A8389831C830B8380E690E09E838D83DC
:10379000D886CF82C80183969A878987B701C801E6
:1037A0000E949E0AD80193961C929397DB961C92D6
:1037B0006AE007C082E0F801868F06C0823021F4FB
:1037C0006F5FC8010E941B0C0091380310913903F0
:1037D000D80112962C9130E0F901E156FA4F84910C
:1037E000F901E353FB4FB490F901E754FB4FA49068
:1037F000AA2009F4DCC081110E94E412EA2DF0E055
:10380000EE0FFF1FE155FB4FA591B491EC91BE2245
:1038100009F4CDC0B0C0C80102960E94FE0481E048
:10382000D8015B968C9365E574E089E893E00E948B
:10383000CE0848CDF8018185883108F49AC038E176
:10384000632EF8019285911103C0782E761801C07D
:10385000712CC5010E942C0481E60E942F044601B0
:103860006A94BFEF6B1639F08FEF0E942F04D401DA
:103870008D934D01F5CF772009F432CF8FEF0E9461
:103880002F047A94F8CF6CEB72E0CE018B5A9F4FE5
:103890000E94300888E1D7011D928A95E9F780E3FC
:1038A0008B839701AE01445A5F4FBE016B5A7F4F25
:1038B000C6010E946D0D882309F455C06AED72E0BF
:1038C000CE01C1960E943008BE016F5C7F4FCE01D1
:1038D0008B5A9F4F0E9480074C01CE01C1960E94D7
:1038E0002B08892809F03FC06D968FAD6D97F201C6
:1038F0008083BAAAA9AA1CAB0BAB8CE590E09EAB67
:103900008DAB58AE4FAADAAEC9AEBE016F5C7F4F29
:10391000C8010E949E0A6D969FAD6D97992319F17B
:10392000D801DB968C9189131EC0F2018083BAAA5C
:10393000A9AA1CAB0BAB8FE590E09EAB8DAB58AE4C
:103940004FAADAAEC9AEBE016F5C7F4FC8010E94BC
:103950009E0AD80193961C929397DB961C926EE177
:10396000C8010E941B0CCE018B5A9F4F0E942B084E
:10397000E1CE682E66CFD80117968D919C9118974D
:10398000019771F10E94BE13D80113968D909D90FE
:10399000AD90BC901697DC01CB0188199909AA0952
:1039A000BB09C397A105B10508F02CC119C0F801E6
:1039B00087819085009709F006C10E94BE13F80127
:1039C00083809480A580B680DC01CB018819990999
:1039D000AA09BB09883E9340A105B10508F0E1C0E2
:1039E00000913A0310913B03C80103960E947209AB
:1039F000C80145960E947209C80187960E94720903
:103A000080915303811196C00E94BE13009154030C
:103A1000109155032091560330915703DC01CB01DF
:103A2000801B910BA20BB30B89389341A105B10503
:103A300008F480C062E974E089E893E00E94CE084F
:103A400084E0882E912C82E090E00E94FB223C01D1
:103A5000DC012D923C928DE090E00E94FB228C01D3
:103A600026E131E0FC013183208380E492EEA1E085
:103A7000B0E082839383A483B58321E0268380EA28
:103A800096E8A1E0B0E087839087A187B28728EE0F
:103A900033E03487238786E090E00E94FB225C01BC
:103AA000EAE0F1E0DC011196FC93EE932FE931E0BE
:103AB00013963C932E93129738EC14963C931497DC
:103AC00015961C92B30180914003909141030E948E
:103AD0004D12B80180914003909141030E944D1214
:103AE000B50180914003909141030E944D1281E005
:103AF000881A910809F0A7CF61E874E089E893E09B
:103B00000E944C088091500490915104B701681BA9
:103B1000790B89E893E00E9491050E94BE1360939F
:103B2000540370935503809356039093570381E099
:103B300080935303809153038130B1F40E94BE13EC
:103B4000009154031091550320915603309157036F
:103B5000DC01CB01801B910BA20BB30B813A9F4080
:103B6000A105B10508F073C0109153031230B1F4F0
:103B70000E94BE138090540390905503A09056036A
:103B8000B0905703DC01CB0188199909AA09BB0938
:103B900089399A43A105B10508F05DC00E94D70696
:103BA00065CDD80117968D919C911897039709F4CC
:103BB00017CF83E090E018969C938E931797C801D7
:103BC0000E943A090DCF019709F00ACF0E94BE1357
:103BD000F80183809480A580B680DC01CB01881930
:103BE0009909AA09BB09C397A105B10508F4F8CE44
:103BF00087819085892B19F1D80118961C921E9205
:103C000017971AC0F80187819085892B41F482E0CB
:103C100090E0F80190878783C8010E943A09D80193
:103C200017968D919C911897019749F081E090E04B
:103C300018969C938E931797C8010E943A090E9488
:103C4000BE13F8016383748385839683C9CE82E0B3
:103C50008093530389CF0E94BE13609354037093E3
:103C6000550380935603909357031093530396CFB5
:103C7000CF92DF92EF92FF920F931F93CF93DF9338
:103C800089E893E010928C0310928B0348EE53E086
:103C900060E070E040938D0350938E0360938F0338
:103CA000709390032AE631E030938A0320938903CE
:103CB00025EC30E0309396032093950324EC30E01C
:103CC000309398032093970320EC30E030939A03CD
:103CD0002093990321EC30E030939C0320939B03C5
:103CE00022EC30E030939E0320939D0326EC30E0DD
:103CF0003093A00320939F031092A2031092A3037A
:103D00001092A4031092A50361E270E070933E0448
:103D100060933D0410923F041092400410924104BD
:103D200026E0C22ED12CE12CF12CC0924204D0927C
:103D30004304E0924404F092450410924604109229
:103D40004704109248041092490440E240934A0408
:103D500010924C0410924B0410924F0428E234E06D
:103D600030934E0420934D042AE032E03093270430
:103D70002093260424E132E030933B0420933A045C
:103D800010922C0410922B0410922E0410922D04E9
:103D90001092300410922F041092320410923104C9
:103DA00010923404109233041092360410923504A9
:103DB00028EE31E0309329042093280490933904AD
:103DC0008093380450E150933704709377036093E5
:103DD0007603109278031092790310927A03C092BE
:103DE0007B03D0927C03E0927D03F0927E031092DD
:103DF0007F031092800310928103109282034093FC
:103E0000830310928503109284031092880310920A
:103E10005D0310925E0310925F031092600341E60F
:103E200053E0509387034093860342E951E0509357
:103E30005C0340935B034CE951E05093740340935F
:103E4000730310926503109264031092670310923B
:103E50006603109269031092680310926B0310922C
:103E60006A0310926D0310926C0310926F0310920C
:103E70006E033093620320936103909372038093E7
:103E8000710328E02093700390935A0380935903A1
:103E900066E073E08EE193E00E94592482E892E0AC
:103EA000909333038093320380E992E0909335033B
:103EB000809334038AE992E090933703809336032A
:103EC0008BE090E00E94FB22EC0188E392E0998372
:103ED00088831B821C821D821E8281E090E098876D
:103EE0008F831A86198684E08A8360E00E943D13DE
:103EF000D0933903C093380380911B0390911C0326
:103F0000892B09F052C089E390E00E94FB22EC016A
:103F100088E492E0998388831A8200E412E01C838B
:103F20000B8385E08D831F821E82198618861B866F
:103F30001A861C861D861E861F86198A188A1B8A69
:103F40001A8A1C8A61E00E943D131E8B0D8B87E04C
:103F50008F8B198E188E1B8E1A8E1D8E1C8E1E8EA8
:103F60001F8E18A219A21BA21AA21DA21CA21EA279
:103F700061E00E943D1318A70FA386E089A71BA646
:103F80001AA61DA61CA61FA61EA618AA19AA1AAA1A
:103F90001BAA1DAA1CAA1FAA1EAA18AE61E00E9495
:103FA0003D13D0931C03C0931B0380911B0390917E
:103FB0001C0390933B0380933A030E94730C9093ED
:103FC0003D0380933C0380911D0390911E03892B38
:103FD00079F484E090E00E94FB22FC0180E592E00D
:103FE0009183808312821382F0931E03E0931D035A
:103FF00080911D0390911E0390933F0380933E0395
:1040000080911F0390912003892B09F026C188E736
:1040100090E00E94FB22EC018AE692E0998388837B
:104020008FE190E00E94FB228C01DC0113961C9230
:104030001E92129788EE93E0A0E0B0E0F80184832E
:104040009583A683B78388E592E091838083178A5E
:10405000168A118E108E138E128E158E148E668D0A
:104060006E7F6D7F668F6695617081E0682783E063
:104070000E940D1361E083E00E943D13E0EDF4E047
:10408000E491D8015096EC93ECEBF4E0E491F0E08D
:10409000EE0FFF1FEB55FB4F85919491F801928B2A
:1040A000818B60E082E00E943D13D8015E968C9186
:1040B00081FD04C061E082E00E940D1382E0F801FE
:1040C0008487EFECF4E0E491D8011D96EC93EBEBE0
:1040D000F4E0E491F0E0EE0FFF1FE155FB4F859116
:1040E0009491F801978786871B830A831C821D8A17
:1040F0001E8A1F8A188E198E0E94BE136A8F7B8FAC
:104100008C8F9D8F0E94BE136E8F7F8F88A399A383
:104110001BA21AA2FE01EA58FF4F11821082E1573A
:10412000F109CE01459611921192E817F907D9F7D6
:104130008F89882321F01F8ACE010E94D011EA8145
:10414000FB81138E128E118E108E178A168A8DE9BE
:1041500091E0958F848F8485863108F04DC02DEBDA
:1041600030E0378B268B2BE931E0318F208F2CE22A
:1041700031E0338F228F90916800883050F021E039
:104180008E3008F420E081E001C0880F2A95EAF71C
:1041900001C084E0892B809368009485983038F0C2
:1041A0009E3040F0963148F020E030E008C02DE627
:1041B00030E005C02BE630E002C02CE630E0348B66
:1041C000238B983030F481E001C0880F9A95EAF78C
:1041D0000EC0292F30E09E3018F42850310902C05B
:1041E0002E50310981E001C0880F2A95EAF7858BAE
:1041F000848D958D0197F1F7828D938D892B49F1EF
:104200004091190350911A034E175F0711F14115A0
:10421000510571F0DA0153962D913C915497D901D3
:104220009C91DA0155968C9180958923D9018C93C4
:10423000868D8E7F868F1092180310921703F0934D
:104240001A03E0931903A389B4899C918589892B6A
:104250008C93D0932003C0931F0380911F039091F0
:104260002003909341038093400380912103909118
:104270002203892B09F042C082E090E00E94FB22D9
:10428000FC0182E792E091838083A0919903B09131
:104290009A0382E08C93A0919503B09196031C92AF
:1042A000A0919703B09198038FEC8C931092A10387
:1042B000A0919D03B0919E0386E08C93A0919B03F7
:1042C000B0919C039C9190619C93A0919B03B091B1
:1042D0009C039C9198609C93A0919B03B0919C033C
:1042E0009C9190689C93A0919B03B0919C039C919E
:1042F0009F7D9C93F0932203E0932103C0912103BF
:10430000D0912203D0934303C093420380E190E015
:104310000E94FB22FC018AE792E091838083D38391
:10432000C28381E0848315821682178210861186EB
:10433000128613861486158616861786F093450313
:10434000E0934403109246031092470310924803EF
:104350001092490310924A0310924B0310924C039F
:1043600010924D0310924E0310924F03109250037F
:104370001092510310925203109253030E94BE13E5
:10438000609354037093550380935603909357039F
:10439000109258030E94BE1360932E0370932F0354
:1043A0008093300390933103DF91CF911F910F9150
:1043B000FF90EF90DF90CF9008958F929F92AF92F1
:1043C000BF92CF92DF92EF92FF920F931F93CF9302
:1043D000DF9300D0CDB7DEB78B01CDB6DEB6DB0103
:1043E00014966D917C911597CB010D96EDB7FEB7A4
:1043F000E81BF90B0FB6F894FEBF0FBEEDBF2DB74B
:104400003EB72F5F3F4F79016F5F7F4F12968D91BF
:104410009C9113978617970738F4C80149835A83EC
:104420000E94640A5A814981D801ED91FC9111974B
:1044300014968D919C911597E80FF91F1082119693
:104440008C9111978F938C918F931F9283E08F9310
:104450005F934F931F928F9381EE92E09F938F9380
:10446000FF92EF920E94C52EB70189E893E00E9467
:1044700070080E94BE134B015C01EDB7FEB73C967D
:104480000FB6F894FEBF0FBEEDBF10E089E893E0D1
:104490000E9415068534910581F011110EC00E940D
:1044A000BE13DC01CB0188199909AA09BB0911E0E7
:1044B0008897A105B10550F7E8CF61E070E080E092
:1044C00090E00E9484130FB6F894DEBE0FBECDBEFE
:1044D0000F900F90DF91CF911F910F91FF90EF9070
:1044E000DF90CF90BF90AF909F908F9008958F9264
:1044F0009F92AF92BF92CF92DF92EF92FF920F9373
:104500001F93CF93DF931F92CDB7DEB76C015B0192
:10451000FB0101900020E9F731978F01061B170B73
:10452000FC01E480F580B8016E0D7F1D1982E6164E
:10453000F70630F4AE014F5F5F4F0E94B51206C020
:104540006E157F0518F4FC0175836483D501F601AF
:1045500080819181FC01EE0DFF1D812C912C540175
:10456000A80160E070E084169506A606B70640F440
:104570008D9181938FEF881A980AA80AB80AF3CF11
:10458000C6010F90DF91CF911F910F91FF90EF9097
:10459000DF90CF90BF90AF909F908F90089582E36F
:1045A00093E00E94ED038BE593E00E94CD0F86E23D
:1045B00094E00C940111EF920F931F93CF93DF932C
:1045C000E80147FD02C034E001C034E1E42F440FAC
:1045D000FF0BF7FF03C0F195E195F109E32E022FE0
:1045E0002E2FAE010E949226CE01DF91CF911F9116
:1045F0000F91EF900895CF93DF938230910510F4DF
:1046000082E090E0E0915204F091530420E030E029
:10461000C0E0D0E0309711F140815181481759072F
:10462000C0F04817590761F482819381209719F0EF
:104630009B838A832BC0909353048093520426C09B
:104640002115310519F04217530718F49A01BE01DC
:10465000DF01EF010280F381E02DDCCF2115310570
:1046600009F1281B390B2430310590F412968D91F5
:104670009C9113976115710521F0FB01938382834F
:1046800004C09093530480935204FD01329644C0B9
:10469000FD01E20FF31F81939193225031092D9375
:1046A0003C933AC02091500430915104232B41F4A3
:1046B0002091020130910301309351042093500462
:1046C00020910001309101012115310541F42DB7F0
:1046D0003EB74091040150910501241B350BE09138
:1046E0005004F0915104E217F307A0F42E1B3F0B86
:1046F0002817390778F0AC014E5F5F4F2417350754
:1047000048F04E0F5F1F5093510440935004819323
:10471000919302C0E0E0F0E0CF01DF91CF910895E6
:104720000F931F93CF93DF93009709F48CC0FC0184
:104730003297138212820091520410915304011592
:10474000110581F420813181820F931F2091500443
:10475000309151042817390779F5F0935104E0930B
:10476000500471C0D80140E050E0AE17BF0750F4CC
:1047700012962D913C911397AD012115310509F148
:10478000D901F3CF9D01DA013383228360817181E6
:10479000860F971F8217930769F4EC0128813981EE
:1047A000260F371F2E5F3F4F318320838A819B81E5
:1047B00093838283452B29F4F0935304E0935204AE
:1047C00042C01396FC93EE931297ED0149915991D3
:1047D0009E01240F351FE217F30771F48081918148
:1047E000840F951F029611969C938E9382819381DC
:1047F00013969C938E931297E0E0F0E0D801129606
:104800008D919C911397009719F0F8018C01F6CFC8
:104810008D919C9198012E5F3F4F820F931F2091A5
:104820005004309151042817390769F4309729F45E
:10483000109253041092520402C0138212821093F9
:10484000510400935004DF91CF911F910F9108956F
:10485000662777270C942028FC0188279927E8945D
:1048600021912032E9F3293010F02E30C8F32B3299
:1048700041F02D3239F4689404C00E945124820F13
:10488000911D219120532A30C0F31EF490958195FB
:104890009F4F0895FB01DC0105900D920020E1F788
:1048A00008957AE0979F902D879F802D910D112478
:1048B00008950F931F93CF93DF93009731F4611501
:1048C000710519F480E090E03AC08B01EC016EE0D4
:1048D00070E081E090E00E947626FC01892B91F344
:1048E00080E883830115110571F01387028781E841
:1048F00083838091540490915504892B21F4F09383
:104900005504E09354042097C9F0D187C087838170
:10491000826083838091560490915704892B71F4AF
:10492000F0935704E09356048091580490915904F1
:10493000892B21F4F0935904E0935804CF01DF91BF
:10494000CF911F910F910895ACE0B0E0EAEAF4E254
:104950000C94712C7C016B018A01FC011782168278
:10496000838181FFBDC1CE0101964C01F701938186
:10497000F60193FD859193FF81916F01882309F4DE
:10498000ABC1853239F493FD859193FF81916F011D
:10499000853229F4B70190E00E94932AE7CF512C89
:1049A000312C20E02032A0F48B3269F030F48032D8
:1049B00059F0833269F420612CC08D3239F0803394
:1049C00039F4216026C02260246023C0286021C001
:1049D00027FD27C030ED380F3A3078F426FF06C0A7
:1049E000FAE05F9E300D1124532E13C08AE0389EEA
:1049F000300D1124332E20620CC08E3221F426FD9E
:104A00006BC1206406C08C3611F4206802C0883661
:104A100041F4F60193FD859193FF81916F0181111E
:104A2000C1CF982F9F7D9554933028F40C5F1F4F72
:104A3000FFE3F9830DC0833631F0833771F083359E
:104A400009F05BC022C0F801808189830E5F1F4F8F
:104A500044244394512C540115C03801F2E06F0EE8
:104A6000711CF801A080B18026FF03C0652D70E0A5
:104A700002C06FEF7FEFC5012C870E94882A2C01AE
:104A800083012C852F77222E17C03801F2E06F0E9C
:104A9000711CF801A080B18026FF03C0652D70E075
:104AA00002C06FEF7FEFC5012C870E94762A2C0190
:104AB0002C852068222E830123FC1BC0832D90E0CF
:104AC00048165906B0F4B70180E290E00E94932A9C
:104AD0003A94F4CFF50127FC859127FE81915F017F
:104AE000B70190E00E94932A31103A94F1E04F1AF6
:104AF00051084114510471F7E5C0843611F089362C
:104B000039F5F80127FF07C06081718182819381A7
:104B10000C5F1F4F08C060817181072E000C880B4D
:104B2000990B0E5F1F4F2F76722E97FF09C090953D
:104B30008095709561957F4F8F4F9F4F2068722EA3
:104B40002AE030E0A4010E94CB2AA82EA81844C075
:104B5000853729F42F7EB22E2AE030E025C0F22FCF
:104B6000F97FBF2E8F36C1F018F4883579F0B4C0C4
:104B7000803719F0883721F0AFC02F2F2061B22E77
:104B8000B4FE0DC08B2D8460B82E09C024FF0AC06E
:104B90009F2F9660B92E06C028E030E005C020E1C6
:104BA00030E002C020E132E0F801B7FE07C06081CA
:104BB0007181828193810C5F1F4F06C0608171817A
:104BC00080E090E00E5F1F4FA4010E94CB2AA82E28
:104BD000A818FB2DFF777F2E76FE0BC0372D3E7F6A
:104BE000A51450F474FE0AC072FC08C0372D3E7E36
:104BF00005C0BA2C372D03C0BA2C01C0B52C34FF28
:104C00000DC0FE01EA0DF11D8081803311F4397E63
:104C100009C032FF06C0B394B39404C0832F8678D2
:104C200009F0B39433FD13C030FF06C05A2CB314FF
:104C300018F4530C5B18B32CB31468F4B70180E27A
:104C400090E03C870E94932AB3943C85F5CFB3143F
:104C500010F43B1801C0312C34FF12C0B70180E3BF
:104C600090E03C870E94932A3C8532FF17C031FDBB
:104C700003C088E790E002C088E590E0B7010CC06F
:104C8000832F867859F031FF02C08BE201C080E2A9
:104C900037FD8DE2B70190E00E94932AA51438F405
:104CA000B70180E390E00E94932A5A94F7CFAA9428
:104CB000F401EA0DF11D8081B70190E00E94932A72
:104CC000A110F5CF332009F451CEB70180E290E076
:104CD0000E94932A3A94F6CFF7018681978102C009
:104CE0008FEF9FEF2C96E2E10C948D2C0F931F9386
:104CF000CF93DF93869F8001879F100D969F100DA5
:104D00001124C8010E94FB22EC01009729F0A801A0
:104D100060E070E00E94812ACE01DF91CF911F9167
:104D20000F9108954F925F926F927F929F92AF92F0
:104D3000BF92CF92DF92EF92FF920F931F93CF9388
:104D4000DF93CDB7DEB729970FB6F894DEBF0FBE5D
:104D5000CDBF6A01122FB02E2BE3201720F0FF24C5
:104D6000F394F00E02C0BCE3FB2E0F2D27E0AE0142
:104D70004F5F5F4F0E947D29AC018981982F997008
:104D8000913031F0E1FC06C0E0FE06C090E205C0C3
:104D90009DE203C09BE201C090E0EE2DE07183FF35
:104DA0003CC0911102C083E001C084E0811718F477
:104DB000212F281B01C020E0E1110BC0F601822F3A
:104DC00030E2882319F031938150FBCFC20ED11C01
:104DD00020E0992329F0D6019C93F60131966F01CA
:104DE000C6010396E2FE0AC03EE4D6013C9341E4CC
:104DF00011964C93119712963C9306C03EE6F6012D
:104E0000308341E641833283FC01322F40E2332379
:104E100009F442C041933150FACF82FF44C091114E
:104E200002C083E001C084E0811718F4212F281B01
:104E300001C020E0E1110BC0F601822F30E288238F
:104E400019F031938150FBCFC20ED11C20E0992381
:104E500029F0D6019C93F60131966F01C6010396A5
:104E6000E2FE0BC039E4D6013C933EE411963C933C
:104E7000119736E412963C9307C039E6F601308369
:104E80003EE6318336E63283FC01322F40E23323A3
:104E900019F041933150FBCFFC01E20FF11D10825C
:104EA0008EEF9FEFB7C0F1E0911101C0F0E06F2FDE
:104EB00070E01416150624F49A012F5F3F4F02C0CC
:104EC00021E030E0260F371FBB2029F06B2D70E06A
:104ED0006F5F7F4F02C060E070E0260F371F612FC9
:104EE00070E0261737071CF4121B212F01C020E0A9
:104EF0003E2D387159F4D601322F60E2332319F078
:104F00006D933150FBCFC20ED11C20E0FF2331F056
:104F1000D6019C93B6016F5F7F4F6B01E1110BC00F
:104F2000F601922F30E3992319F031939150FBCF82
:104F3000C20ED11C20E09F2D940F3A81782F707102
:104F4000A72E84FF03C0313309F49150191624F4BD
:104F5000993018F098E001C091E0E42F852F57FFB9
:104F600002C0E0E080E06E2F782FE0E0F0E0AEE2FB
:104F70009A2E3A01691A71082A01461A570A0B2D0E
:104F800010E01195019511096F3F8FEF780729F413
:104F9000D6019C92C60101966C014617570784F012
:104FA000661677066CF47F01E40CF51CA1E0B0E016
:104FB000AC0FBD1FEA0EFB1ED7011196BC9002C0BC
:104FC00090E3B92E615071093196C60101967C01BA
:104FD0006017710724F0D601BC926C01D5CF64171D
:104FE000750741F4363320F4353321F4A11002C0A3
:104FF00081E3B82EF601B082F701822F90E2882378
:1050000019F091938150FBCFF701E20FF11D10824F
:1050100080E090E029960FB6F894DEBF0FBECDBFBA
:10502000DF91CF911F910F91FF90EF90DF90CF9084
:10503000BF90AF909F907F906F905F904F9008953A
:10504000A0E0B0E0E6E2F8E20C94752CEC017B0104
:105050006115710519F0DB018D939C938E010F5F33
:105060001F4F7880872D90E00E94552A892B11F0E0
:10507000E801F4CFBDE27B1205C00F5F1F4F7980BE
:10508000C1E008C0EBE27E1204C08E010E5F1F4F2C
:105090007980C0E06801F1E0CF1AD10843E050E028
:1050A00064EE70E0C6010E945E2A892BF1F468016B
:1050B00022E0C20ED11C45E050E06FED70E0C60169
:1050C0000E945E2A892B21F4680187E0C80ED11C5A
:1050D000E114F10419F0D701CD92DC92C111FFC0A7
:1050E00060E070E080E89FE703C143E050E06CEDD2
:1050F00070E0C6010E945E2A892B51F4E114F1048C
:1051000009F4F2C00E5F1F4FF70111830083ECC05A
:10511000680160E070E0CB0100E010E0F601D0ED46
:10512000D70DDA3058F52C2F2260622E2C2F2870E4
:10513000C2FF05C0211128C00F5F1F4F25C02223C9
:1051400011F001501109A5E0B0E09B01AC010E94F3
:10515000662C4B015C01880C991CAA1CBB1CC50168
:10516000B4016D0F711D811D911D6839A9E97A0780
:105170008A07A9E19A0740F0C66005C0DE3F51F4F6
:10518000C3FD44C0C8606C2EBFEFCB1ADB0A708031
:10519000C62DC4CF2D2F2F7D2531C1F540814D3235
:1051A00011F4C06106C04B3221F0319621E030E0AD
:1051B00006C03296D60111964C9122E030E0A0ED67
:1051C000A40FAA3018F0E21BF30B20C040E050E01F
:1051D0004038BCE05B075CF49A01220F331F220FBA
:1051E000331F420F531F440F551F4A0F511D319655
:1051F000DF0111972C91A0EDA20FAA3048F3C4FF54
:1052000003C0519541955109040F151FC1FF07C0F7
:10521000E114F10421F03197D701ED93FC930E9442
:105220002E2BC370C33019F06B017C0106C06B01DB
:105230007C01F7FAF094F7F8F09420E030E0A9014F
:10524000C701B6010E94292B882309F445C017FF26
:1052500006C0119501951109CBEFD0E002C0C3E162
:10526000D1E05E01B8E1AB1AB1084601BE2DAF2D09
:1052700090E2E92EF12C0E151F0584F0FE01259118
:10528000359145915491B4018B2F9A2F0E948F2B09
:105290004B01B82FA92F0E191F09EDCF2497F594B4
:1052A000E794CA15DB0539F76401EB2EFA2E8E2D33
:1052B000880F8F2D881F8F3F49F020E030E0A90133
:1052C000C701B6010E94292B811106C082E290E03D
:1052D00090935B0480935A04C701B60109C060E053
:1052E00070E080E89FEF04C060E070E080EC9FE732
:1052F000CDB7DEB7EEE00C94912C283008F027E013
:105300003327DA01990F311D87FD91600096610501
:10531000710539F432602E5F3D9330E32A95E1F751
:1053200008959F3F30F080387105610509F03C5FBA
:105330003C5F3D93913008F08068911DDF93CF93DF
:105340001F930F93FF92EF92192F987F9695E92F55
:1053500096959695E90FFF27EF58FE4F992733272B
:10536000EE24FF24A701E70105900894079428F490
:10537000360FE71EF81E491F511D660F771F881F45
:10538000991F0694A1F70590079428F4E70EF81EDC
:10539000491F561FC11D770F881F991F661F06944E
:1053A000A1F70590079428F4F80E491F561FC71F50
:1053B000D11D880F991F661F771F0694A1F70590CE
:1053C000079420F4490F561FC71FD81F990F661F57
:1053D000771F881F0694A9F784911095177041F0E4
:1053E000D695C79557954795F794E7941A95C1F7C1
:1053F000E7E1F1E0689415901591359165919591EB
:1054000005907FE27395E118F10A430B560BC90B27
:10541000D009C0F7E10CF11E431F561FC91FD01D54
:105420007EF4703311F48A95E6CFE894015030F0A1
:10543000080F0AF40027021708F4202F2395022FE3
:105440007A3328F079E37D932A95E9F710C07D93AC
:105450002A9589F606949795679537951795179429
:10546000E118F10A430B560BC90BD00998F02395AC
:105470007E9173957A3308F070E37C932013B8F72C
:105480007E9170617D9330F0839571E37D9370E33D
:105490002A95E1F71124EF90FF900F911F91CF9182
:1054A000DF91992787FD9095089591110C94FC2B1D
:1054B000803219F089508550C8F70895FB01DC014E
:1054C0004150504088F08D9181341CF08B350CF4A4
:1054D000805E659161341CF06B350CF4605E861B58
:1054E000611171F3990B0895881BFCCFFC010590A5
:1054F000615070400110D8F7809590958E0F9F1FD6
:105500000895DC0101C06D9341505040E0F70895CB
:10551000FC016150704001900110D8F78095909582
:105520008E0F9F1F08950F931F93CF93DF93FB015F
:10553000238121FD03C08FEF9FEF28C022FF16C0FB
:1055400046815781248135814217530744F4A08155
:10555000B1819D012F5F3F4F318320838C93268142
:1055600037812F5F3F4F3783268310C0EB01092F10
:10557000182F0084F185E02D0995892BE1F68E81A5
:105580009F8101969F838E83812F902FDF91CF91F2
:105590001F910F910895FA01AA27283051F1203167
:1055A00081F1E8946F936E7F6E5F7F4F8F4F9F4FB7
:1055B000AF4FB1E03ED0B4E03CD0670F781F891FF9
:1055C0009A1FA11D680F791F8A1F911DA11D6A0FC7
:1055D000711D811D911DA11D20D009F468943F917A
:1055E0002AE0269F11243019305D3193DEF6CF0179
:1055F0000895462F4770405D4193B3E00FD0C9F73F
:10560000F6CF462F4F70405D4A3318F0495D31FDAB
:105610004052419302D0A9F7EACFB4E0A6959795FE
:10562000879577956795BA95C9F7009761057105D4
:1056300008959B01AC010A2E06945795479537951E
:105640002795BA95C9F7620F731F841F951FA01D78
:1056500008950E946B2B08F481E00895E89409C036
:1056600097FB3EF490958095709561957F4F8F4F95
:105670009F4F9923A9F0F92F96E9BB279395F695AB
:10568000879577956795B795F111F8CFFAF4BB0F29
:1056900011F460FF1BC06F5F7F4F8F4F9F4F16C08D
:1056A000882311F096E911C0772321F09EE8872F17
:1056B000762F05C0662371F096E8862F70E060E0D3
:1056C0002AF09A95660F771F881FDAF7880F96954C
:1056D000879597F90895990F0008550FAA0BE0E8F0
:1056E000FEEF16161706E807F907C0F012161306A4
:1056F000E407F50798F0621B730B840B950B39F4E4
:105700000A2661F0232B242B252B21F408950A2649
:1057100009F4A140A6958FEF811D811D08950E9477
:10572000A22B0C94162C0E94082C38F00E940F2CEF
:1057300020F0952311F00C94FF2B0C94052C1124D0
:105740000C944A2C0E94272C70F3959FC1F3950F5F
:1057500050E0551F629FF001729FBB27F00DB11DF5
:10576000639FAA27F00DB11DAA1F649F6627B00D85
:10577000A11D661F829F2227B00DA11D621F739F6E
:10578000B00DA11D621F839FA00D611D221F749F7C
:105790003327A00D611D231F849F600D211D822FC3
:1057A000762F6A2F11249F5750409AF0F1F08823EA
:1057B0004AF0EE0FFF1FBB1F661F771F881F915017
:1057C0005040A9F79E3F510580F00C94FF2B0C949C
:1057D0004A2C5F3FE4F3983ED4F38695779567951E
:1057E000B795F795E7959F5FC1F7FE2B880F911D41
:1057F0009695879597F9089599278827089597F999
:105800009F6780E870E060E008959FEF80EC089566
:1058100000240A941616170618060906089500248F
:105820000A9412161306140605060895092E039409
:10583000000C11F4882352F0BB0F40F4BF2B11F47D
:1058400060FF04C06F5F7F4F8F4F9F4F089557FDDC
:105850009058440F551F59F05F3F71F04795880FDE
:1058600097FB991F61F09F3F79F087950895121675
:1058700013061406551FF2CF4695F1DF08C0161621
:1058800017061806991FF1CF8695710561050894D2
:105890000895E894BB2766277727CB0197F90895E9
:1058A000F999FECF92BD81BDF89A992780B50895E8
:1058B000262FF999FECF1FBA92BD81BD20BD0FB62C
:1058C000F894FA9AF99A0FBE019608950E94A82CAE
:1058D000A59F900DB49F900DA49F800D911D112444
:1058E00008952F923F924F925F926F927F928F9284
:1058F0009F92AF92BF92CF92DF92EF92FF920F935F
:105900001F93CF93DF93CDB7DEB7CA1BDB0B0FB668
:10591000F894DEBF0FBECDBF09942A883988488825
:105920005F846E847D848C849B84AA84B984C884BB
:10593000DF80EE80FD800C811B81AA81B981CE0FB2
:10594000D11D0FB6F894DEBF0FBECDBFED01089597
:10595000A29FB001B39FC001A39F700D811D1124B0
:10596000911DB29F700D811D1124911D08950E94FB
:10597000CB2C0C94162C0E940F2C58F00E94082C53
:1059800040F029F45F3F29F00C94FF2B51110C9447
:105990004A2C0C94052C0E94272C68F39923B1F310
:1059A000552391F3951B550BBB27AA276217730745
:1059B000840738F09F5F5F4F220F331F441FAA1FD9
:1059C000A9F335D00E2E3AF0E0E832D09150504095
:1059D000E695001CCAF72BD0FE2F29D0660F771F43
:1059E000881FBB1F261737074807AB07B0E809F029
:1059F000BB0B802DBF01FF2793585F4F3AF09E3FAE
:105A0000510578F00C94FF2B0C944A2C5F3FE4F383
:105A1000983ED4F3869577956795B795F7959F5FF0
:105A2000C9F7880F911D9695879597F90895E1E03C
:105A3000660F771F881FBB1F621773078407BA079B
:105A400020F0621B730B840BBA0BEE1F88F7E095F6
:105A500008950E942F2C88F09F5798F0B92F99270E
:105A6000B751B0F0E1F0660F771F881F991F1AF049
:105A7000BA95C9F714C0B13091F00E94492CB1E039
:105A800008950C94492C672F782F8827B85F39F038
:105A9000B93FCCF3869577956795B395D9F73EF4E2
:105AA00090958095709561957F4F8F4F9F4F08958A
:105AB0000E946B2B08F48FEF089597FB072E16F4C6
:105AC000009407D077FD09D00E94992D07FC05D0DE
:105AD0003EF4909581959F4F0895709561957F4F05
