:100000000C941A010C9442010C9442010C9442018C
:100010000C9442010C9442010C9442010C94420154
:100020000C9442010C9442010C9442010C94420144
:100030000C9442010C9442010C9442010C94420134
:100040000C945B0D0C9442010C94DC070C94B607E5
:100050000C9442010C9442010C9442010C94420114
:100060000C9442010C9442014E414E494E49545960
:10007000494E46CDCCCC3D0AD7233C17B7D1387773
:10008000CC2B329595E6241FB14F0A000020410089
:1000900000C84200401C4620BCBE4CCA1B0E5AAED3
:1000A000C59D7400407A10F35A00A0724E180900E2
:1000B00010A5D4E80000E87648170000E40B5402CD
:1000C0000000CA9A3B000000E1F505000080969808
:1000D00000000040420F000000A086010000001058
:1000E0002700000000E8030000000064000000009A
:1000F000000A00000000000100000000002C76D87B
:1001000088DC674F0823DFC1DFAE59E1B1B796E560
:10011000E3E453C63AE651997696E8E6C28426EBC4
:10012000898C9B62ED407C6FFCEFBC9C9F40F2BAD7
:10013000A56FA5F490055A2AF75C936B6CF9676D6F
:10014000C11BFCE0E40D47FEF520E6B500D0ED90C4
:100150002E0300943577050080841E080000204E91
:100160000A000000C80C333333330F986E1283112A
:1001700041EF8D2114893BE65516CFFEE6DB18D101
:10018000844B381BF77C1D901DA4BBE424203284D3
:10019000725E228100C9F124ECA1E53D27536C6118
:1001A0007665205246204D65737361676520526500
:1001B0006365697665643A20000001020304051155
:1001C00012131415160A0B0C0D0E0F526563656998
:1001D0007665643A200054696D65206F757400007F
:1001E000000000250028002B00000000002400274C
:1001F000002A0004040404040404040202020202AB
:1002000002030303030303010204081020408001DA
:100210000204081020010204081020000000080059
:1002200002010000030407000000000000000000BD
:10023000EB139F1611241FBECFEFD8E0DEBFCDBF5A
:1002400012E0A0E0B1E0E6EBF1E402C005900D920F
:10025000AC3DB107D9F724E0ACEDB2E001C01D928E
:10026000A536B207E1F711E0C9E1D1E004C021975A
:10027000FE010E949220C831D107C9F70E94210FC8
:100280000C94CE200C9400007F928F929F92AF929C
:10029000BF92CF92DF92EF92FF920F931F93CF9373
:1002A000DF93EC0149015A018B01C12CD12C76015D
:1002B000C814D904EA04FB0484F5F80171908F0195
:1002C0008F8580FF0BC0E881F9810084F185E02DE6
:1002D00020E144E060E070E0CE010995EB85FC850B
:1002E0008D859E85E817F90738F470828B859C858B
:1002F00001969C878B870BC0E881F981672D70E0A0
:10030000028CF38DE02DCE010995019649F02FEF77
:10031000C21AD20AE20AF20ACBCFB401C50102C066
:10032000B601C701DF91CF911F910F91FF90EF9020
:10033000DF90CF90BF90AF909F908F907F90089567
:10034000CF93DF93EC01E881F9810288F389E02DF6
:1003500009958F3F2FEF920731F02D813E812F5F5E
:100360003F4F3E832D83DF91CF9108958FEF9FEF15
:10037000089560E070E0CB01089580E090E008957A
:10038000CB010895CF93DF93EC0188899989DC0133
:10039000ED91FC910084F185E02D0995892BA9F35D
:1003A00088899989DC01ED91FC910284F385E02D27
:1003B000DF91CF910994CF93DF93EC0188899989DC
:1003C000DC01ED91FC910084F185E02D0995892BEC
:1003D000A9F388899989DC01ED91FC910484F58564
:1003E000E02DDF91CF910994AF92BF92CF92DF922F
:1003F000EF92FF920F931F93CF93DF9300D000D023
:10040000CDB7DEB78C015B01C12CD12C7601F80190
:1004100080899189DC01ED91FC910284F385E02DC6
:1004200029833A834B835C83099529813A814B81E7
:100430005C818F3F71F0C216D306E406F5064CF4DA
:10044000D5018D935D01BFEFCB1ADB0AEB0AFB0AE6
:10045000DECFC701B6010F900F900F900F90DF9184
:10046000CF911F910F91FF90EF90DF90CF90BF90B1
:10047000AF900895DC0150968D919C915197DC01CD
:10048000ED91FC910084F185E02D099480E090E0ED
:10049000089580E090E0089580E090E0089580E085
:1004A00090E008950895CF93DF93C0910303D09116
:1004B0000403E881F9810084F185E02DCE010995DE
:1004C000892BB9F3E881F9810284F385E02DCE010F
:1004D000DF91CF9109941F93CF93DF93182FC09191
:1004E0000303D09104038A3041F4E881F98101903B
:1004F000F081E02D6DE0CE010995E881F981019050
:10050000F081E02D612FCE01099521E030E00197C7
:1005100011F420E030E0C901DF91CF911F910895DF
:1005200008950F931F93CF93DF938C01EB016F3FDF
:100530008FEF780719F480E090E00FC06A3031F453
:100540006DE0F801808991890E9476076C2FF8018F
:10055000808991890E947607CE01DF91CF911F910A
:100560000F9108958F929F92BF92CF92DF92EF9258
:10057000FF920F931F93CF93DF9300D000D0CDB79E
:10058000DEB78C014B01C12CD12C7601C216D306EB
:10059000E406F50644F5F401B1904F01FAE0BF120C
:1005A0000EC06DE0F8018089918929833A834B83DD
:1005B0005C830E9476075C814B813A8129816B2D97
:1005C000F8018089918929833A834B835C830E9457
:1005D0007607FFEFCF1ADF0AEF0AFF0A5C814B8133
:1005E0003A812981D3CFCA01B9010F900F900F90A2
:1005F0000F90DF91CF911F910F91FF90EF90DF90BF
:10060000CF90BF909F908F9008950C948C17089571
:1006100008950C948C17DC01ED91FC9136972081A4
:100620003181820F931F0C940903FB0120813181DA
:10063000FC0131832083FB0142815381F90136970C
:1006400020813181FC01E20FF31F51834083089523
:1006500023E731E0FC01318320832DE731E0318F46
:10066000208F63E871E00C941503DC01ED91FC919F
:10067000369720813181820F931F0C942803CF93EA
:10068000DF93EC010E942803CE01DF91CF910C94FF
:100690008C17DC01ED91FC91369720813181820F1E
:1006A000931F0C943F030C948C17089508950C9499
:1006B0008C17DC01ED91FC91369720813181820FFE
:1006C000931F0C945703FB0120813181FC0131837E
:1006D0002083FB0142815381F901369720813181CA
:1006E000FC01E20FF31F5183408308952BEE31E0AC
:1006F000FC013183208325EF31E0358B248B6BEFB8
:1007000071E00C946303DC01ED91FC91369720813C
:100710003181820F931F0C947603CF93DF93EC010A
:100720000E947603CE01DF91CF910C948C17DC01EF
:10073000ED91FC91369720813181820F931F0C94AB
:100740008D030C948C170F931F93CF93DF93EC01C1
:10075000CB01088119817B836A830E94F7169983F4
:10076000888320E030E08C819D812817390770F460
:10077000E881F981E20FF31F309729F0D801A20F29
:10078000B31F8C9180832F5F3F4FEDCFC801DF9166
:10079000CF911F910F910C948C170F931F93CF93B0
:1007A000DF93FC0104811581FB01C481D581AE0179
:1007B0000C171D0708F4A801FB0160817181FC0181
:1007C000808191810E949D20009769F481E090E0F2
:1007D000C017D10740F00C171D0710F080E090E023
:1007E000919581959109DF91CF911F910F91089576
:1007F000089508950895FC012081318182819381BB
:100800002817390719F0822F0C94BE0C0895CF9346
:10081000DF93EC019CB59F7D9CBD9CB5937F9CBDF7
:100820009CB59C7F9CBD9DB591609DBD8A810E94B9
:10083000BE0C8C899D89DF91CF910C940A0D61E0EB
:100840000C94070460E00C9407048EBD00000DB406
:1008500007FEFDCF8EB508951F93CF93DF93EC0174
:100860000E94220481EE0E942504182FCE010E94CE
:100870001F04812FDF91CF911F910895EF92FF9276
:100880001F93CF93DF9300D0CDB7DEB77C014A83AF
:1008900069830E9422046981862F8F7180620E9481
:1008A0002504182F4A81842F0E942504C7010E9425
:1008B0001F04812F0F900F90DF91CF911F91FF9018
:1008C000EF900895CF92DF92EF92FF920F931F93D4
:1008D000CF93DF9300D01F92CDB7DEB77C01142FEA
:1008E0002A835B8369830E9422046981862F8F712A
:1008F00080620E942504082FC12E5B81D52E2A819B
:10090000120F1C1531F0F60181916F010E94250430
:10091000F8CFC7010E941F04802F0F900F900F90F7
:10092000DF91CF911F910F91FF90EF90DF90CF90CB
:100930000895EF92FF921F93CF93DF931F92CDB74D
:10094000DEB77C0169830E9422046981862F8F7142
:100950000E9425048FEF0E942504182FC7010E94D2
:100960001F04812F0F90DF91CF911F91FF90EF9087
:100970000895EF92FF920F931F93CF938C017B0109
:1009800066E00E949904C82FC77D82E0E816F10452
:1009900031F4C0628BE990E0A0E0B0E00DC0EA94D1
:1009A000EF2829F085E590E0A0E0B0E005C0C86040
:1009B00081E490E0A0E0B0E0F801808B918BA28B05
:1009C000B38B4C2F66E0C8010E943E0466E0C8016C
:1009D0000E94990491E08C1390E0892FCF911F9190
:1009E0000F91FF90EF900895CF93DF93EC0160E0BB
:1009F0000E94990481FD0EC0482F426060E0CE0144
:100A00000E943E0465E070E080E090E0DF91CF91CD
:100A10000C94150DDF91CF910895CF93DF93EC01E6
:100A20000E94F40460E0CE010E949904482F4160C6
:100A300060E0CE010E943E0440E767E0CE010E94E4
:100A40003E0461E0CE010E94FB038985882349F0C2
:100A50002E85AE01475F5F4F6AE0CE010E946204BF
:100A600014C062E0CE010E949904E9EBF1E0E49148
:100A700021E030E001C0220FEA95EAF72095422FED
:100A8000482362E0CE010E943E046DE1CE010E9447
:100A9000990481FF05C0CE01DF91CF910C942C0405
:100AA000DF91CF910895EF92FF920F931F93CF9311
:100AB000DF93EC018C819D818617970710F57A01F1
:100AC0008B018A819B818617970740F4685F7F4F6F
:100AD0008617970718F4CE010E94A3038C819D818D
:100AE0008017910758F4E881F981E80FF91F3097D2
:100AF00019F0D7012C9120830196F2CF1D830C832E
:100B000005C06817790710F47D836C83DF91CF915E
:100B10001F910F91FF90EF900895FC0180819181CA
:100B20000C948C17CF93DF93EC016C817D816F5F08
:100B30007F4F8A819B818617970718F4CE010E9408
:100B4000A303E881F9818C819D81E80FF91F108250
:100B500088819981DF91CF9108950895CF92DF9296
:100B6000EF92FF920F931F93FB01DC0100E010E076
:100B700098016A01E12CF12C0C151D052E053F058D
:100B800038F461916D930F5F1F4F2F4F3F4FF4CF9C
:100B9000840F951F1F910F91FF90EF90DF90CF90E2
:100BA0000895AF92BF92CF92DF92EF92FF920F9390
:100BB0001F93CF93DF931F92CDB7DEB78C016B01EC
:100BC0007A01590188E090E0F801938382831582CD
:100BD00014820E94F716F80191838083F6018481C4
:100BE00095818E159F0510F40E9498201982BC01F2
:100BF0006E197F09A616B70608F4B501AE014F5F5E
:100C00005F4FC8010E945305F80144815581F601E8
:100C1000608171816E0D7F1DF801808191810E943C
:100C2000AE050F90DF91CF911F910F91FF90EF9044
:100C3000DF90CF90BF90AF900895CF92DF92EF9268
:100C4000FF920F931F93CF93DF931F92CDB7DEB721
:100C50007C016B0188E090E0F70193838283158229
:100C600014820E94F716F70191838083C114D10486
:100C7000B9F0F60101900020E9F731978F010C19C6
:100C80001D091982AE014F5F5F4FB801C7010E9475
:100C90005305A801B601F701808191810E94AE053C
:100CA0000F90DF91CF911F910F91FF90EF90DF9008
:100CB000CF9008950E949820CF92DF92EF92FF92FA
:100CC0000F931F93CF93DF936C017A018B01C0E0E8
:100CD000D0E0CE15DF0589F0D8016D918D01D601E8
:100CE000ED91FC910190F081E02DC6010995892BD1
:100CF00011F47E0102C02196ECCFC701DF91CF91A4
:100D00001F910F91FF90EF90DF90CF90089508957D
:100D100080E090E00895FC01538D448D252F30E054
:100D2000842F90E0821B930B541710F0CF960895F8
:100D300001970895FC01918D828D981761F0828D45
:100D4000DF01A80FB11D5D968C91928D9F5F9F73FF
:100D5000928F90E008958FEF9FEF0895FC01918DA1
:100D6000828D981731F0828DE80FF11D858D90E00E
:100D700008958FEF9FEF0895FC01918D228D892FAB
:100D800090E0805C9F4F821B91098F739927089593
:100D900085E393E00E94BC0621E0892B09F420E062
:100DA000822F0895FC01848DDF01A80FB11DA35A85
:100DB000BF4F2C91848D90E001968F739927848F7B
:100DC000A689B7892C93A089B1898C9180648C9372
:100DD000938D848D981306C00288F389E02D80815D
:100DE0008F7D80830895EF92FF920F931F93CF938F
:100DF000DF93EC0181E0888F9B8D8C8D981305C06B
:100E0000E889F989808185FD24C0F62E0B8D10E0DC
:100E10000F5F1F4F0F731127E02E8C8DE8120CC04F
:100E20000FB607FCFACFE889F989808185FFF5CFF5
:100E3000CE010E94D206F1CF8B8DFE01E80FF11D8D
:100E4000E35AFF4FF0820B8FEA89FB898081806231
:100E500007C0EE89FF896083E889F9898081806411
:100E6000808381E090E0DF91CF911F910F91FF90FF
:100E7000EF900895CF93DF93EC01888D8823C9F01C
:100E8000EA89FB89808185FD05C0A889B9898C9193
:100E900086FD0FC00FB607FCF5CF808185FFF2CF2E
:100EA000A889B9898C9185FFEDCFCE010E94D20629
:100EB000E7CFDF91CF91089580E090E0892B29F072
:100EC0000E94C80681110C940000089508950895A9
:100ED000CB0108950C948C170C948C170C948C17E0
:100EE0000C948C170C948C170C948C17DC01ED91DE
:100EF000FC910190F081E02D0994EF92FF920F9305
:100F00001F93CF93DF938C017B01C0E0D0E0F7010A
:100F1000EC0FFD1F6491662361F0D801ED91FC9107
:100F20000190F081E02DC8010995892B11F02196DF
:100F3000EECFCE01DF91CF911F910F91FF90EF90F7
:100F400008956115710579F0FB0101900020E9F722
:100F50003197AF01461B570BDC01ED91FC910280EC
:100F6000F381E02D099480E090E008951F920F92A4
:100F70000FB60F9211242F933F934F935F936F936C
:100F80007F938F939F93AF93BF93EF93FF9385E3EB
:100F900093E00E94D206FF91EF91BF91AF919F9194
:100FA0008F917F916F915F914F913F912F910F9012
:100FB0000FBE0F901F9018951F920F920FB60F92B1
:100FC00011242F938F939F93EF93FF93E091450309
:100FD000F09146038081E0914B03F0914C0382FD38
:100FE00012C0908180914E038F5F8F7320914F03C9
:100FF000821751F0E0914E03F0E0EB5CFC4F958FCF
:1010000080934E0301C08081FF91EF919F918F915A
:101010002F910F900FBE0F901F901895CF93DF93D5
:10102000EC018DE092E0998388838091E1029091B8
:10103000E202009739F0DC01ED91FC910280F3812E
:10104000E02D09958A819B81DF91CF910C948C17BB
:10105000CF93DF93EC010E940E08CE01DF91CF9178
:101060000C948C17CF92DF92EF92FF920F931F9305
:10107000CF93DF931F92CDB7DEB78C01FB01E480E5
:10108000F580E416F50610F40E949820E41AF50A9B
:101090002E153F0508F47901C080D180C40ED51EFD
:1010A00088E090E0F80193838283158214820E9485
:1010B000F716F80191838083FFEFEF16FF0621F307
:1010C000F6018081181684F41982AE014F5F5F4FDC
:1010D000B701C8010E945305F80144815581B6014A
:1010E000808191810E94AE05C8010F90DF91CF9160
:1010F0001F910F91FF90EF90DF90CF90089508958A
:10110000CF93DF936115710509F45FC0FB01C081C6
:10111000CF3F11F461E003C0C11104C060E0FC01E5
:1011200082814FC0FC01D2818D2F0E94500CED2F87
:10113000F0E0E55EFD4FE491E33009F148F4E13081
:10114000C9F0E230C1F584B5806284BDC8BD3DC040
:10115000E73009F1E83039F1E43069F58091800039
:101160008062809380008C2F90E090938B0080931E
:101170008A002BC084B5806884BDC7BD26C080911D
:1011800080008068809380008C2F90E0909389008D
:10119000809388001AC08091B00080688093B0006E
:1011A000C093B30012C08091B00080628093B00001
:1011B000C093B4000AC0C03810F460E001C061E020
:1011C0008D2FDF91CF910C94BE0CDF91CF910895BC
:1011D0008F929F92AF92BF92CF92DF92EF92FF9247
:1011E0000F931F93CF93DF93FC012189223009F0E5
:1011F00065C0EC010E944F0D2D853E856901E12CF3
:10120000F12C09851A852B853C8546015701801AEA
:10121000910AA20AB30ADC01CB01880D991DAA1D0F
:10122000BB1DEF85F8894181528160E070E0841731
:101230009507A607B70708F441C01E861D860E94C1
:101240004F0D69877A878B879C87EF85F889638143
:1012500074816115710579F48F819885019698875D
:101260008F832D813E816B817C812115310519F0A1
:10127000821793078CF4788B6F87CE01DF91CF9123
:101280001F910F91FF90EF90DF90CF90BF90AF90A4
:101290009F908F900C948008198A788B6F871E8698
:1012A0001D8660E08A810E94BE0C2F8138858D8169
:1012B0009E812817390711F418861F82DF91CF917C
:1012C0001F910F91FF90EF90DF90CF90BF90AF9064
:1012D0009F908F90089508950895CF92DF92EF9296
:1012E000FF92CF93DF9385E393E00E94A107D82F6D
:1012F0000E944F0D6B017C01C0E085E393E00E94EA
:101300009A068534910589F0C1110FC00E944F0DD6
:10131000AB01BC014C195D096E097F09C1E048327F
:1013200051056105710548F7E7CF61E070E080E0A5
:1013300090E00E94150DCC2361F066ED71E085E32D
:1013400093E00E947D0763E572E085E393E00E94ED
:10135000A10781E0D11101C080E0DF91CF91FF9022
:10136000EF90DF90CF9008957F928F929F92AF92EF
:10137000BF92CF92DF92EF92FF920F931F93CF9382
:10138000DF93CDB7DEB75C01CB01142F952E822EF3
:10139000732ECDB6DEB6DB011496ED91FC91159758
:1013A0003D962DB73EB72E1B3F0B0FB6F8943EBFB0
:1013B0000FBE2DBFADB7BEB711967D010031D0F481
:1013C0000E9492059F938F937F928F929F921F937B
:1013D0008EE892E09F938F93FF92EF920E94AB2052
:1013E0002DB73EB7265F3F4F0FB6F8943EBF0FBEF6
:1013F0002DBF18C00E9492059F938F937F928F926A
:101400009F921F938EE992E09F938F93FF92EF92AA
:101410000E94AB208DB79EB70A960FB6F8949EBF78
:101420000FBE8DBFB701C5010E946D090FB6F894BC
:10143000DEBE0FBECDBEDF91CF911F910F91FF9009
:10144000EF90DF90CF90BF90AF909F908F907F9064
:101450000895EF92FF920F931F93CF93DF93CDB731
:10146000DEB72F970FB6F894DEBF0FBECDBF7C015D
:10147000FC0165817681878190858E010F5F1F4F0A
:1014800022E042E00E94D716AE01485F5F4FBC01E8
:10149000C8010E941D06C8010E94940C025F1F4FE4
:1014A0002FEF3FEF40E050E0BE016F5F7F4FCE0176
:1014B00008960E94D10500E123E030E040E050E0D2
:1014C000BE01685F7F4FF701828193810E94B4095A
:1014D000CE0108960E948D05CE0101960E948D05D1
:1014E0002F960FB6F894DEBF0FBECDBFDF91CF9120
:1014F0001F910F91FF90EF900895CF93DF9380910C
:10150000DF029091E002892B79F482E090E00E9462
:10151000F716EC018BE191E0998388830E94280CF7
:10152000D093E002C093DF028091DF029091E0024D
:10153000DF91CF910895CF93DF93CDB7DEB72A9790
:101540000FB6F894DEBF0FBECDBFFC018385948536
:10155000009741F1DB01FC0120813181F9014481D7
:1015600055812BE031E03A83298312962D913C91ED
:1015700013973C832B8314962D913C9115973E83B2
:101580002D8316962D913C91179738872F831896A7
:101590002D913C9119973A872987BE016F5F7F4F44
:1015A000FA0109952A960FB6F894DEBF0FBECDBF9B
:1015B000DF91CF910895CF93DF93EC010E944F0DFF
:1015C0006D837E838F839887DF91CF9108956F928B
:1015D0007F929F92AF92BF92CF92DF92EF92FF9253
:1015E0000F931F93CF93DF93CDB7DEB72A970FB634
:1015F000F894DEBF0FBECDBFFC019284992009F4A0
:101600009DC05B016C010281138160E0C8010E94F2
:10161000FB03F801808991890E940A0D6DE1C801E0
:101620000E94990481FF08C0F801808991890E9475
:101630000A0DC8010E942C0460E0C8010E949904B0
:10164000482F4E7F60E0C8010E943E0462E0C8015E
:101650000E949904E9EBF1E0E49141E050E001C01F
:10166000440FEA95EAF7482B62E0C8010E943E0465
:10167000F60102811381F8019781E92E913110F072
:1016800080E1E82EF8018085811103C0F92EFE1853
:1016900001C0F12CC8010E94220480EA0E942504A6
:1016A0003501EA94FFEFEF1631F0F30181913F012C
:1016B0000E942504F6CFFF2029F080E00E94250437
:1016C000FA94F9CFC8010E941F0461E0C8010E948A
:1016D000FB03C8010E9422048FEF0E942504F82E0C
:1016E000C8010E941F048F2D807399F360E0C80128
:1016F0000E94FB0340E767E0C8010E943E0484FFAC
:1017000004C0C8010E942C04912C8BE091E09A83C4
:1017100089831A861986DC82CB828CE590E09887D3
:101720008F83AD82BE82BE016F5F7F4FC6010E9474
:101730009B0AF601828193810E940D05892D2A96CC
:101740000FB6F894DEBF0FBECDBFDF91CF911F91D2
:101750000F91FF90EF90DF90CF90BF90AF909F9050
:101760007F906F900895EF92FF920F931F93CF9306
:10177000DF93CDB7DEB764970FB6F894DEBF0FBE28
:10178000CDBF7C0181E493E4ABE4B0E0898B9A8B1C
:10179000AB8BBC8B9E012F5E3F4F3F932F9326E573
:1017A00032E03F932F938E010F5F1F4F1F930F93D4
:1017B0000E94AB20B801C7010E94E70A0F900F906A
:1017C0000F900F900F900F9064960FB6F894DEBFB5
:1017D0000FBECDBFDF91CF911F910F91FF90EF9082
:1017E00008958091DD029091DE02892BC9F48DE08D
:1017F00090E00E94F716FC0183E191E091838083E1
:10180000138212821482158216821782108684E057
:101810008187128614861386F093DE02E093DD0240
:101820008091DD029091DE02089525E132E0FC0115
:1018300021933193CF010C948D05CF93DF93EC016D
:101840000E94150CCE01DF91CF910C948C17089556
:10185000E5E3F3E0A089B18982E08C93A485B585A6
:101860001C92A685B78580E18C93108EA489B589DA
:1018700086E08C93A289B3898C9180618C93A28934
:10188000B3898C9188608C93A289B3898C9180688C
:101890008C930288F389E02D80818F7D8083089569
:1018A00090E0FC01E95FFD4F2491FC01ED50FE4FFB
:1018B0008491882399F090E0880F991FFC01E751EB
:1018C000FE4FA591B491FC01E152FE4F8591949198
:1018D0008FB7F894EC91E22BEC938FBF08953FB74C
:1018E000F8948091550490915604A0915704B091BA
:1018F000580426B5A89B05C02F3F19F00196A11DDD
:10190000B11D3FBFBA2FA92F982F8827820F911D95
:10191000A11DB11DBC01CD0142E0660F771F881FDC
:10192000991F4A95D1F70895EF92FF920F931F9355
:10193000CF93DF931F92CDB7DEB78C01FC01E4801B
:10194000F5801982B7016E5F7F4FAE014F5F5F4F29
:101950000E945305F8018081918142E050E069EDD9
:1019600072E08E0D9F1D0E94AE05C8010F90DF91A1
:10197000CF911F910F91FF90EF90089590E0FC019F
:10198000E55EFD4F3491FC01E95FFD4F2491FC01C0
:10199000ED50FE4FE491EE2309F43BC0332339F1BF
:1019A000333091F038F43130A9F0323001F584B59C
:1019B0008F7D12C0373091F03830A1F03430B9F457
:1019C000809180008F7D03C0809180008F7780930D
:1019D00080000DC084B58F7784BD09C08091B000B0
:1019E0008F7703C08091B0008F7D8093B000F0E0CE
:1019F000EE0FFF1FE152FE4FA591B4918FB7F894FF
:101A0000EC91611103C020952E2301C02E2B2C9345
:101A10008FBF08958230910538F0880F991F880F85
:101A2000991F05970197F1F708958F929F92AF92B2
:101A3000BF92CF92DF92EF92FF926B017C010E94E6
:101A40006F0C4B015C01C114D104E104F104F1F00D
:101A50000E946F0CDC01CB0188199909AA09BB0906
:101A6000883E9340A105B10570F321E0C21AD10868
:101A7000E108F10888EE880E83E0981EA11CB11CD5
:101A8000C114D104E104F10419F7DDCFFF90EF9008
:101A9000DF90CF90BF90AF909F908F9008952FB719
:101AA000F894609151047091520480915304909184
:101AB00054042FBF08951F920F920FB60F92112456
:101AC0002F933F938F939F93AF93BF938091510434
:101AD00090915204A0915304B09154043091500459
:101AE00023E0230F2D3720F40196A11DB11D05C061
:101AF00026E8230F0296A11DB11D20935004809368
:101B0000510490935204A0935304B09354048091D1
:101B1000550490915604A0915704B0915804019631
:101B2000A11DB11D8093550490935604A0935704B2
:101B3000B0935804BF91AF919F918F913F912F9196
:101B40000F900FBE0F901F90189508950C948C174E
:101B500002970C94A60D4F925F926F927F928F9294
:101B60009F92AF92BF92CF92DF92EF92FF920F932C
:101B70001F93CF93DF93CDB7DEB7AD970FB6F89431
:101B8000DEBF0FBECDBFFB0126813781628173812D
:101B9000DC0116964D915C9117976417750709F053
:101BA00036C133272A35310509F4CDC02B3531052F
:101BB00009F02DC16C01048115816DE971E085E3A7
:101BC00093E00E947D07B80185E393E00E94A1079E
:101BD00063E572E085E393E00E94A107FE01319680
:101BE0007F01AF01B801CE0186960E941D0688E0F4
:101BF00090E09AA389A31CA21BA20E94F71698A3A7
:101C00008F8F88E390E00E94F7164C010EA11FA170
:101C1000A0900004B0900104E091FC03F091FD035A
:101C2000CF018A0D9B1DD801E817F90709F49EC062
:101C300031912D913217C1F31DC08D3009F49DC033
:101C40006BA17CA16F5F7F4FA701CE014F960E94D1
:101C50005305A501400F511F0615170509F48DC046
:101C6000D8018D918D0189838D3339F74115510547
:101C700009F086C06FE174E0CE014F960E94CD035B
:101C8000892B01F581E493E4A2E5B0E0898B9A8B7E
:101C9000AB8BBC8BCE0141969F938F9386E592E0F0
:101CA0009F938F93FF92EF920E94AB200E94F10BC3
:101CB000B7010E94E70A0F900F900F900F900F90BE
:101CC0000F9035C068E174E0CE014F960E94CD03BD
:101CD000892B69F58E010F5E1F4F2FEF3FEF40E01C
:101CE00050E0B401C7010E94D105C7010E949205CE
:101CF0000E9424182B013C01F601028513859B01EB
:101D0000AC01D80115966D917D918D919C9118979C
:101D10000E94F81E882341F0F801458256826782AE
:101D20007086C8010E94290AC7010E948D05C4015E
:101D30000E948C17CE014F960E948D05CE0186968B
:101D40000E948D0564C0DC0114962D913C9115977D
:101D50000480F581E02D9081F9018281911103C009
:101D60008061828354C08F7E828351C06AA47BA429
:101D7000600E711EA01AB10A6CCF40E050E076CF21
:101D80002AA53BA5215031094F5F5F4FBE016A5D17
:101D90007F4FCE0148960E943208AE01435D5F4FEF
:101DA00066E071E0CE0141960E941D062D893E89B4
:101DB0008C8D9D8D8217930748F4CE0141960E9429
:101DC0008D05CE0148960E948D0554CF01968C0159
:101DD000021B130BA12CB12CA016B10671F32D8997
:101DE0003E89A501BE01685E7F4FC7010E9432088F
:101DF000B701CE0141960E94CD033C01C7010E946C
:101E00008D056728D1F2BFEFAB1ABB0AE5CFAD96BF
:101E10000FB6F894DEBF0FBECDBFDF91CF911F91FB
:101E20000F91FF90EF90DF90CF90BF90AF909F9079
:101E30008F907F906F905F904F90089502970C94D1
:101E4000AB0DCF93DF93CDB7DEB7CF54D1090FB62B
:101E5000F894DEBF0FBECDBF789484B5826084BD98
:101E600084B5816084BD85B5826085BD85B581609E
:101E700085BD80916E00816080936E00109281001C
:101E800080918100826080938100809181008160D7
:101E90008093810080918000816080938000809198
:101EA000B10084608093B1008091B0008160809324
:101EB000B00080917A00846080937A0080917A00EB
:101EC000826080937A0080917A00816080937A00AA
:101ED00080917A00806880937A001092C10085E03A
:101EE0000E94500C87E00E94500C86E00E94500C2B
:101EF0000E94280C2091F9023091FA0298E0E6E85D
:101F0000F2E0AE014F5F5F4F7A01DA0101900D926E
:101F10009A95E1F7BA01C9010E946D0989E090E044
:101F20009A8389838AE090E09C838B831F8280E27E
:101F30008887198685E08F8785E090E0A0E0B0E093
:101F40008D8B9E8BAF8BB88F1A86C090FD02D09080
:101F5000FE02D6011396FC92EE92129789E00E943F
:101F6000500C8B819C8129813A812817390711F007
:101F70000E94500C1FB7F8948091DC02811124C09C
:101F8000EDEFF1E08491E1E1F2E09491E82FF0E0EF
:101F9000EE0FFF1FE751FE4FA591B491EC91E9239D
:101FA00021F461E08AE00E94BE0C8AE00E94500C9D
:101FB0008CB580618CBD8CB580648CBD8DE00E9439
:101FC000500C8BE00E94500C8091DC028F5F80935C
:101FD000DC021FBF60E0C7010E94FB0361E0C70194
:101FE0000E94070465E070E080E090E00E94150D1B
:101FF0004CE060E0C7010E943E044FE564E0C70189
:102000000E943E0462E070E0C7010E94B904882388
:1020100011F081E08F8366E0C7010E949904182FB8
:1020200060E070E0C7010E94B904C7010E94220469
:1020300080E50E94250483E70E942504C7010E94D1
:102040001F0440E06DE1C7010E943E0440E06CE1E6
:10205000C7010E943E04198640E767E0C7010E945D
:102060003E044CE465E0C7010E943E04C7010E94A3
:10207000220482EE0E942504C7010E941F04C701AA
:102080000E942C04C7010E94F40460E0C7010E9472
:102090009904482F4E7F60E0C7010E943E04115012
:1020A0001E3F08F080C04FEF64E0C7010E943E046D
:1020B00040E06DE1C7010E943E0440E06CE1C701D1
:1020C0000E943E04198680E1888711E01FAF2196A7
:1020D0001FAE219722961FAE229723961FAE2397FD
:1020E00024961FAE249725961FAE259726961FAEE1
:1020F000269727961FAE27972F85AE01415C5F4F2D
:102100006AE0C7010E9462042F85AE01415C5F4F07
:1021100060E1C7010E946204488561E1C7010E9435
:102120003E0482E08FAB18AE19AE1AAE1BAE1CAEE9
:102130001DAE1EAEE6ECF1E064912F85AE01495C68
:102140005F4FC7010E946204E0ECF1E064914885B2
:10215000C7010E943E0462E0C7010E949904EAEBB5
:10216000F1E0E49141E050E001C0440FEA95EAF764
:10217000482B62E0C7010E943E0466E0C7010E944E
:102180009904887F482F416066E0C7010E943E04A1
:1021900060E070E0C7010E94B904C7010E940D050C
:1021A000F601128703C0D6011A961C92C6010E943E
:1021B000DB0AE091F102F091F202309721F08DEE0E
:1021C00092E094878387C090EF02D090F002C11410
:1021D000D10409F475C0F601828182FD71C084606A
:1021E000828387FD6DC05601F3E0AF0EB11CD601AE
:1021F00054961C92549716968D919C9117975396CE
:102200009C938E93529751961C921E92509760E029
:1022100015968C910E94BE0C85E090E00E94F71606
:102220004C01FC011082148213828CE79BE09283A4
:10223000818385E090E00E94F7168C018FEFD80132
:102240008C9384E190E012969C938E931197149650
:102250009C928E92139785E090E00E94F716FC0105
:1022600083E0808388E290E09283818314830383F8
:10227000D6011796FC93EE9316975396FC93EE9324
:102280005297EF2BE9F054968C9154978230C1F01D
:10229000811108C051961C921E9250971B961C9259
:1022A0001E921A970E944F0DF601648775878687E4
:1022B000978782E0848B62897389C5010E948008B8
:1022C000C090F502D090F6024E01F7E48F0E911CFB
:1022D0005E0122E2A20EB11CA4016CE572E0C50110
:1022E0000E941D0608E020E030E040E050E0B5012B
:1022F000D60112968D919C9113970E94B409C50145
:102300000E948D05A40160E672E0C5010E941D06D1
:1023100020E030E041E050E0B501F6018281938198
:102320000E94B409C5010E948D05A40164E672E013
:10233000C5010E941D0620E030E042E050E0B501FA
:10234000D60112968D919C9113970E94B409C501F4
:102350000E948D05A40167E672E0C5010E941D067A
:1023600020E030E043E050E0B501F6018281938146
:102370000E94B409C5010E948D05C6010E94290A68
:10238000D60119966D917D918D919C911C97850137
:1023900022E042E00E94D716A501BC01C4010E94C0
:1023A0001D06C4010E94940C1E01BEE42B0E311CBC
:1023B00081012FEF3FEF40E050E0B401C5010E94E2
:1023C000D10500E123E030E042E050E0B501F60144
:1023D000828193810E94B409C5010E948D05C401C8
:1023E0000E948D05A4016AE672E0C5010E941D06E7
:1023F00008E02EE030E040E050E0B501D601129652
:102400008D919C9113970E94B409C5010E948D057E
:10241000A4016DE672E0C5010E941D062EE030E0C9
:1024200042E050E0B501F601828193810E94B40937
:10243000C5010E948D05D60112960D911C9113972E
:102440001F9281E08F931F928FE08F931F9290E6EF
:102450009F931F928F931F921F9220E732E03F932A
:102460002F93BF92AF920E94AB20B501C8010E948A
:102470006D090FB6F894DEBF0FBECDBF0E944F0DA1
:102480000091010310910203C80103960E94E8081D
:10249000C80145960E94E808C80187960E94E8088E
:1024A000C090FF02D090000385E393E00E94BC0639
:1024B000181619060CF07DC085E393E00E949A0679
:1024C000D60116966D917C9117978A3019F08D3050
:1024D00009F058C0672B09F461C085012FEF3FEF69
:1024E00040E050E0B6016E5F7F4FC7010E94D1050A
:1024F0006BEC71E085E393E00E947D07C7010E94C9
:1025000092058C01BC0185E393E00E94A10763E57D
:1025100072E085E393E00E94A1070E94F10BB801ED
:102520000E94E70AC7010E948D05F60126813781C6
:1025300040E050E019A28E010F5D1F4FCA01B901A2
:102540002AE030E040E050E00E947020605DD80159
:102550006E938D01211531054105510579F7BD01B6
:1025600085E393E00E94A10763E572E085E393E0D1
:102570000E94A107F60186819781892B79F0178245
:1025800016820CC060968FAF60976F5F7F4FAE0171
:10259000415B5F4FC60102960E945305D601169615
:1025A0008D919C911797419720F017961C921E923F
:1025B00016976AE070E080E090E00E94150DC090F0
:1025C000FD02D090FE02F6018285882309F4BAC08C
:1025D00067E1828193810E94990480FFD1C03FC04E
:1025E000C3010E941F0440E767E0C3010E943E044C
:1025F000C6010E94DB0AE4E0D6011996EC93199714
:1026000014968C911497811118C0F1E01496FC93E4
:10261000E1E0D101EC932BE031E03BA32AA31BA620
:102620001AA6DDA2CCA24AE550E059A748A73FA2CE
:102630002EA2B501C6010E949B0A8BE091E09BA3EC
:102640008AA31BA61AA6DDA2CCA2ABE5B0E0B9A76F
:10265000A8A7FFA2EEA2B501C6010E949B0A0E9494
:102660004F0DF601458056806780708422852223B5
:1026700009F468C09B01AC012419350946095709C2
:1026800029013A018185811102C060E01CC08130BE
:1026900091F4293E33404105510508F442C061E000
:1026A000C6010E94B30BC6010E94DB0AF6018185B8
:1026B0008F5F818736C0823051F4293E3340410517
:1026C000510578F162E0C6010E94B30B20C083304F
:1026D00041F5293E33404105510518F1F601848149
:1026E0008823A9F01482D4011C92EBE0F1E0FA8374
:1026F000E9831A861986DC82CB822AE530E03887A6
:102700002F839E828D82B701C6010E949B0AC6015B
:102710000E94DB0AD60119968C9119978F5F199642
:102720008C93F6018185843069F4F1E14F16F7E26C
:102730005F066104710430F0D60119961C92C6013F
:102740000E94DB0AE091FB02F091FC02C280D38080
:1027500006811781000F111F0C0D1D1DC016D1061B
:1027600061F0F601819191916F01DC01ED91FC9195
:102770000484F585E02D0995F1CF0E945C077ECE9B
:10278000F60162807380D30117961C91103108F115
:1027900000E1D30118968C91811102C0101B01C079
:1027A00010E0C3010E94220481E60E942504270153
:1027B000015038F08FEF0E942504F20181932F0120
:1027C000F7CF112309F40CCF8FEF0E94250411508D
:1027D000F8CF012FDECFCF92DF92EF92FF920F93CF
:1027E0001F93CF93DF931F92CDB7DEB705E313E0BE
:1027F000109238031092370388EE93E0A0E0B0E027
:102800008093390390933A03A0933B03B0933C0326
:102810008BE491E0909336038093350385EC90E050
:10282000909342038093410384EC90E0909344039F
:102830008093430380EC90E090934603809345039C
:1028400081EC90E0909348038093470382EC90E002
:1028500090934A038093490386EC90E090934C0355
:1028600080934B0310924E0310924F03109250032B
:1028700010925103AE014F5F5F4F6AE672E089E448
:1028800094E00E941D06AE014F5F5F4F6EEA72E05A
:1028900082E494E00E941D06AE014F5F5F4F61EB42
:1028A00072E08BE394E00E941D06AE014F5F5F4F24
:1028B00066EB72E084E394E00E941D06AE014F5F78
:1028C0005F4F6AEB72E08DE294E00E941D06AE015C
:1028D0004F5F5F4F6EEB72E086E294E00E941D0650
:1028E000AE014F5F5F4F62EC72E08FE194E00E94B7
:1028F0001D06AE014F5F5F4F66EC72E088E194E029
:102900000E941D06AE014F5F5F4F6AEC72E081E1ED
:1029100094E00E941D06AE014F5F5F4F6EEC72E0C7
:102920008AE094E00E941D06AE014F5F5F4F62EDAA
:1029300072E083E094E00E941D06AE014F5F5F4F9E
:1029400066ED72E08CEF93E00E941D06E1E2F0E09C
:10295000F093EA03E093E9031092EB031092EC0387
:102960001092ED0346E050E060E070E04093EE032B
:102970005093EF036093F0037093F1031092F2030E
:102980001092F3031092F4031092F50320E22093C7
:10299000F6031092F8031092F7031092FB0384EDF4
:1029A00093E09093FA038093F9038BEE91E0909378
:1029B000D3038093D20385EF91E09093E703809354
:1029C000E6031092D8031092D7031092DA03109204
:1029D000D9031092DC031092DB031092DE031092F5
:1029E000DD031092E0031092DF031092E2031092D5
:1029F000E10389EC91E09093D5038093D403109385
:102A0000E5030093E40330E13093E303F093230301
:102A1000E0932203109224031092250310922603C0
:102A200040932703509328036093290370932A034C
:102A300010922B0310922C0310922D0310922E0350
:102A400020932F031092310310923003109234031D
:102A50001092090310920A0310920B0310920C03B8
:102A60002DE033E0309333032093320323E731E04A
:102A700030930803209307032DE731E030932003C0
:102A800020931F031092110310921003109213034E
:102A90001092120310921503109214031092170350
:102AA00010921603109219031092180310921B0330
:102AB00010921A0390930E0380930D0310931E033C
:102AC00000931D0388E080931C031092060310926C
:102AD0000503109304030093030363E572E08BE6A0
:102AE00092E00E942818909306038093050380913A
:102AF000E5029091E602892B09F054C089E390E049
:102B00000E94F7168C0185E292E0F80191838083A0
:102B100012829DE1E92E92E0F92EF482E38285E0B3
:102B20008583178216821186108613861286148674
:102B3000158616861786118A108A138A128A148AB5
:102B40000E94500CF801F68AE58A87E0878B118E87
:102B5000108E138E128E158E148E168E178E10A256
:102B600011A213A212A215A214A216A20E94500C26
:102B7000F801F0A6E7A286E081A713A612A615A683
:102B800014A617A616A610AA11AA12AA13AA15AA65
:102B900014AA17AA16AA10AE0E94500C1093E602AF
:102BA0000093E5028091E5029091E6029093020382
:102BB000809301038091E3029091E402892BC9F490
:102BC00089E090E00E94F7168C0185E192E0F8011F
:102BD0009183808388E090E09583848317821682B6
:102BE0000E94F716F801938382831093E402009306
:102BF000E3028091E3029091E402909300038093BA
:102C0000FF020E94F10B9093FE028093FD028091DF
:102C1000E1029091E202892BD9F489E090E00E94D0
:102C2000F7168C018DE092E0F8019183808388E0B3
:102C300090E0958384831782168280E190E00E9461
:102C4000F716F801938382831093E2020093E10266
:102C50008091E1029091E2029093FC028093FB024A
:102C60000E947D0A8C019093FA028093F90280E120
:102C700090E00E94F716FC0185E0C82E82E0D82E75
:102C8000D182C0821383028311E0148315821682DD
:102C9000178210861186128613861486158616866C
:102CA0001786F093F802E093F70281E492E09093A4
:102CB000EC028093EB028DE492E09093EE0280931D
:102CC000ED021092F0021092EF020E94F10B90932D
:102CD000F2028093F1020E947D0A7C019093F4023B
:102CE0008093F30280E190E00E94F716FC01D1820C
:102CF000C082F382E28214831582168217821086C4
:102D0000118612861386148615861686178690936A
:102D1000F6028093F5020E944F0D6093E7027093D4
:102D2000E8028093E9029093EA020F90DF91CF913D
:102D30001F910F91FF90EF90DF90CF90089587E063
:102D400093E00E94280382ED93E00E9476038CEFCB
:102D500093E00E948D0583E094E00E948D058AE057
:102D600094E00E948D0581E194E00E948D0588E148
:102D700094E00E948D058FE194E00E948D0586E22B
:102D800094E00E948D058DE294E00E948D0584E31D
:102D900094E00E948D058BE394E00E948D0582E40F
:102DA00094E00E948D0589E494E00C948D05EF92E7
:102DB0000F931F93CF93DF93E80147FD02C034E0E8
:102DC00001C034E1E42F440FFF0BF7FF03C0F1957E
:102DD000E195F109E32E022F2E2FAE010E94611A18
:102DE000CE01DF91CF911F910F91EF900895CF9376
:102DF000DF938230910510F482E090E0E0915B0473
:102E0000F0915C0420E030E0C0E0D0E0309711F1B8
:102E10004081518148175907C0F04817590761F49C
:102E200082819381209719F09B838A832BC0909392
:102E30005C0480935B0426C02115310519F042170C
:102E4000530718F49A01BE01DF01EF010280F381FC
:102E5000E02DDCCF2115310509F1281B390B243079
:102E6000310590F412968D919C911397611571051F
:102E700021F0FB019383828304C090935C048093D0
:102E80005B04FD01329644C0FD01E20FF31F819304
:102E90009193225031092D933C933AC020915904CB
:102EA00030915A04232B41F4209102013091030107
:102EB00030935A042093590420910001309101016C
:102EC0002115310541F42DB73EB7409104015091D1
:102ED0000501241B350BE0915904F0915A04E217C7
:102EE000F307A0F42E1B3F0B2817390778F0AC012D
:102EF0004E5F5F4F2417350748F04E0F5F1F50930A
:102F00005A04409359048193919302C0E0E0F0E0A9
:102F1000CF01DF91CF9108950F931F93CF93DF934C
:102F2000009709F48CC0FC01329713821282009141
:102F30005B0410915C040115110581F4208131813D
:102F4000820F931F2091590430915A042817390792
:102F500079F5F0935A04E093590471C0D80140E028
:102F600050E0AE17BF0750F412962D913C91139785
:102F7000AD012115310509F1D901F3CF9D01DA0128
:102F80003383228360817181860F971F8217930795
:102F900069F4EC0128813981260F371F2E5F3F4FDE
:102FA000318320838A819B8193838283452B29F4FB
:102FB000F0935C04E0935B0442C01396FC93EE93A1
:102FC0001297ED01499159919E01240F351FE21787
:102FD000F30771F480819181840F951F02961196F9
:102FE0009C938E938281938113969C938E931297D8
:102FF000E0E0F0E0D80112968D919C911397009734
:1030000019F0F8018C01F6CF8D919C9198012E5FFB
:103010003F4F820F931F2091590430915A04281773
:10302000390769F4309729F410925C0410925B041C
:1030300002C01382128210935A0400935904DF9144
:10304000CF911F910F910895662777270C94EF1B5E
:103050000F931F93CF93DF93009731F461157105A0
:1030600019F480E090E03AC08B01EC016EE070E072
:1030700081E090E00E94451AFC01892B91F380E8E1
:1030800083830115110571F01387028781E883831B
:1030900080915D0490915E04892B21F4F0935E048D
:1030A000E0935D042097C9F0D187C0878381826057
:1030B000838380915F0490916004892B71F4F09375
:1030C0006004E0935F048091610490916204892B15
:1030D00021F4F0936204E0936104CF01DF91CF917A
:1030E0001F910F910895ACE0B0E0E9E7F8E10C948E
:1030F0002A207C016B018A01FC01178216828381E0
:1031000081FFBDC1CE0101964C01F7019381F6010B
:1031100093FD859193FF81916F01882309F4ABC1E1
:10312000853239F493FD859193FF81916F0185324A
:1031300029F4B70190E00E94621EE7CF512C312C98
:1031400020E02032A0F48B3269F030F4803259F064
:10315000833269F420612CC08D3239F0803339F428
:10316000216026C02260246023C0286021C027FD82
:1031700027C030ED380F3A3078F426FF06C0FAE069
:103180005F9E300D1124532E13C08AE0389E300DFF
:103190001124332E20620CC08E3221F426FD6BC127
:1031A000206406C08C3611F4206802C0883641F4D1
:1031B000F60193FD859193FF81916F018111C1CF3C
:1031C000982F9F7D9554933028F40C5F1F4FFFE399
:1031D000F9830DC0833631F0833771F0833509F000
:1031E0005BC022C0F801808189830E5F1F4F442499
:1031F0004394512C540115C03801F2E06F0E711C3C
:10320000F801A080B18026FF03C0652D70E002C0E8
:103210006FEF7FEFC5012C870E94571E2C018301A1
:103220002C852F77222E17C03801F2E06F0E711C0B
:10323000F801A080B18026FF03C0652D70E002C0B8
:103240006FEF7FEFC5012C870E94451E2C012C8556
:103250002068222E830123FC1BC0832D90E048169A
:103260005906B0F4B70180E290E00E94621E3A94E1
:10327000F4CFF50127FC859127FE81915F01B7010D
:1032800090E00E94621E31103A94F1E04F1A51080A
:103290004114510471F7E5C0843611F0893639F5CF
:1032A000F80127FF07C060817181828193810C5FE3
:1032B0001F4F08C060817181072E000C880B990B8D
:1032C0000E5F1F4F2F76722E97FF09C09095809545
:1032D000709561957F4F8F4F9F4F2068722E2AE027
:1032E00030E0A4010E949A1EA82EA81844C0853779
:1032F00029F42F7EB22E2AE030E025C0F22FF97F8C
:10330000BF2E8F36C1F018F4883579F0B4C08037FD
:1033100019F0883721F0AFC02F2F2061B22EB4FEF4
:103320000DC08B2D8460B82E09C024FF0AC09F2FCA
:103330009660B92E06C028E030E005C020E130E0FC
:1033400002C020E132E0F801B7FE07C06081718160
:10335000828193810C5F1F4F06C06081718180E084
:1033600090E00E5F1F4FA4010E949A1EA82EA8187D
:10337000FB2DFF777F2E76FE0BC0372D3E7FA514E9
:1033800050F474FE0AC072FC08C0372D3E7E05C0A2
:10339000BA2C372D03C0BA2C01C0B52C34FF0DC098
:1033A000FE01EA0DF11D8081803311F4397E09C0E0
:1033B00032FF06C0B394B39404C0832F867809F01B
:1033C000B39433FD13C030FF06C05A2CB31418F465
:1033D000530C5B18B32CB31468F4B70180E290E08F
:1033E0003C870E94621EB3943C85F5CFB31410F461
:1033F0003B1801C0312C34FF12C0B70180E390E0CC
:103400003C870E94621E3C8532FF17C031FD03C01D
:1034100088E790E002C088E590E0B7010CC0832FF8
:10342000867859F031FF02C08BE201C080E237FD9F
:103430008DE2B70190E00E94621EA51438F4B70136
:1034400080E390E00E94621E5A94F7CFAA94F401A0
:10345000EA0DF11D8081B70190E00E94621EA1106B
:10346000F5CF332009F451CEB70180E290E00E94FD
:10347000621E3A94F6CFF7018681978102C08FEFE2
:103480009FEF2C96E2E10C9446200F931F93CF936D
:10349000DF93869F8001879F100D969F100D11244A
:1034A000C8010E94F716EC01009729F0A80160E01E
:1034B00070E00E94501ECE01DF91CF911F910F91BD
:1034C00008954F925F926F927F929F92AF92BF92B8
:1034D000CF92DF92EF92FF920F931F93CF93DF93E0
:1034E000CDB7DEB729970FB6F894DEBF0FBECDBFBC
:1034F0006A01122FB02E2BE3201720F0FF24F39443
:10350000F00E02C0BCE3FB2E0F2D27E0AE014F5F93
:103510005F4F0E944C1DAC018981982F99709130AA
:1035200031F0E1FC06C0E0FE06C090E205C09DE27D
:1035300003C09BE201C090E0EE2DE07183FF3CC030
:10354000911102C083E001C084E0811718F4212F9B
:10355000281B01C020E0E1110BC0F601822F30E2F0
:10356000882319F031938150FBCFC20ED11C20E08B
:10357000992329F0D6019C93F60131966F01C6017B
:103580000396E2FE0AC03EE4D6013C9341E4119664
:103590004C93119712963C9306C03EE6F601308399
:1035A00041E641833283FC01322F40E2332309F4A8
:1035B00042C041933150FACF82FF44C0911102C002
:1035C00083E001C084E0811718F4212F281B01C07B
:1035D00020E0E1110BC0F601822F30E2882319F0C0
:1035E00031938150FBCFC20ED11C20E0992329F0EA
:1035F000D6019C93F60131966F01C6010396E2FE57
:103600000BC039E4D6013C933EE411963C931197EC
:1036100036E412963C9307C039E6F60130833EE665
:10362000318336E63283FC01322F40E2332319F036
:1036300041933150FBCFFC01E20FF11D10828EEF60
:103640009FEFB7C0F1E0911101C0F0E06F2F70E083
:103650001416150624F49A012F5F3F4F02C021E093
:1036600030E0260F371FBB2029F06B2D70E06F5F15
:103670007F4F02C060E070E0260F371F612F70E0BF
:10368000261737071CF4121B212F01C020E03E2D06
:10369000387159F4D601322F60E2332319F06D935B
:1036A0003150FBCFC20ED11C20E0FF2331F0D601F8
:1036B0009C93B6016F5F7F4F6B01E1110BC0F60168
:1036C000922F30E3992319F031939150FBCFC20E22
:1036D000D11C20E09F2D940F3A81782F7071A72E76
:1036E00084FF03C0313309F49150191624F4993042
:1036F00018F098E001C091E0E42F852F57FF02C039
:10370000E0E080E06E2F782FE0E0F0E0AEE29A2E6D
:103710003A01691A71082A01461A570A0B2D10E05E
:103720001195019511096F3F8FEF780729F4D601A4
:103730009C92C60101966C014617570784F06616E5
:1037400077066CF47F01E40CF51CA1E0B0E0AC0F4F
:10375000BD1FEA0EFB1ED7011196BC9002C090E37C
:10376000B92E615071093196C60101967C0160172E
:10377000710724F0D601BC926C01D5CF6417750790
:1037800041F4363320F4353321F4A11002C081E333
:10379000B82EF601B082F701822F90E2882319F04B
:1037A00091938150FBCFF701E20FF11D108280E071
:1037B00090E029960FB6F894DEBF0FBECDBFDF9123
:1037C000CF911F910F91FF90EF90DF90CF90BF901E
:1037D000AF909F907F906F905F904F900895A0E082
:1037E000B0E0E5EFFBE10C942E20EC017B016115CC
:1037F000710519F0DB018D939C938E010F5F1F4FB4
:103800007880872D90E00E94241E892B11F0E8011A
:10381000F4CFBDE27B1205C00F5F1F4F7980C1E07E
:1038200008C0EBE27E1204C08E010E5F1F4F79804C
:10383000C0E06801F1E0CF1AD10843E050E060E752
:1038400070E0C6010E942D1E892BF1F4680122E070
:10385000C20ED11C45E050E06BE670E0C6010E944C
:103860002D1E892B21F4680187E0C80ED11CE114BC
:10387000F10419F0D701CD92DC92C111FFC060E0D4
:1038800070E080E89FE703C143E050E068E670E045
:10389000C6010E942D1E892B51F4E114F10409F494
:1038A000F2C00E5F1F4FF70111830083ECC0680167
:1038B00060E070E0CB0100E010E0F601D0EDD70D44
:1038C000DA3058F52C2F2260622E2C2F2870C2FF80
:1038D00005C0211128C00F5F1F4F25C0222311F002
:1038E00001501109A5E0B0E09B01AC010E941F202E
:1038F0004B015C01880C991CAA1CBB1CC501B401BE
:103900006D0F711D811D911D6839A9E97A078A071C
:10391000A9E19A0740F0C66005C0DE3F51F4C3FD3F
:1039200044C0C8606C2EBFEFCB1ADB0A7080C62D76
:10393000C4CF2D2F2F7D2531C1F540814D3211F49B
:10394000C06106C04B3221F0319621E030E006C064
:103950003296D60111964C9122E030E0A0EDA40FF2
:10396000AA3018F0E21BF30B20C040E050E04038D2
:10397000BCE05B075CF49A01220F331F220F331F58
:10398000420F531F440F551F4A0F511D3196DF013F
:1039900011972C91A0EDA20FAA3048F3C4FF03C0E9
:1039A000519541955109040F151FC1FF07C0E1143E
:1039B000F10421F03197D701ED93FC930E94FD1E95
:1039C000C370C33019F06B017C0106C06B017C0130
:1039D000F7FAF094F7F8F09420E030E0A901C7017D
:1039E000B6010E94F81E882309F445C017FF06C0DF
:1039F000119501951109C7E8D0E002C0CFE9D0E0E8
:103A00005E01B8E1AB1AB1084601BE2DAF2D90E2C0
:103A1000E92EF12C0E151F0584F0FE01259135913C
:103A200045915491B4018B2F9A2F0E945E1F4B0138
:103A3000B82FA92F0E191F09EDCF2497F594E794FD
:103A4000CA15DB0539F76401EB2EFA2E8E2D880F8F
:103A50008F2D881F8F3F49F020E030E0A901C7017A
:103A6000B6010E94F81E811106C082E290E0909398
:103A7000640480936304C701B60109C060E070E08C
:103A800080E89FEF04C060E070E080EC9FE7CDB776
:103A9000DEB7EEE00C944A20283008F027E0332708
:103AA000DA01990F311D87FD91600096610571055E
:103AB00039F432602E5F3D9330E32A95E1F70895A3
:103AC0009F3F30F080387105610509F03C5F3C5F35
:103AD0003D93913008F08068911DDF93CF931F9341
:103AE0000F93FF92EF92192F987F9695E92F969555
:103AF0009695E90FFF27E350FF4F99273327EE24D0
:103B0000FF24A701E70105900894079428F4360FD5
:103B1000E71EF81E491F511D660F771F881F991F4A
:103B20000694A1F70590079428F4E70EF81E491FA4
:103B3000561FC11D770F881F991F661F0694A1F796
:103B40000590079428F4F80E491F561FC71FD11D72
:103B5000880F991F661F771F0694A1F70590079499
:103B600020F4490F561FC71FD81F990F661F771FD4
:103B7000881F0694A9F784911095177041F0D69587
:103B8000C79557954795F794E7941A95C1F7E3EAD7
:103B9000F0E0689415901591359165919591059097
:103BA0007FE27395E118F10A430B560BC90BD0095C
:103BB000C0F7E10CF11E431F561FC91FD01D7EF434
:103BC000703311F48A95E6CFE894015030F0080F75
:103BD0000AF40027021708F4202F2395022F7A33C6
:103BE00028F079E37D932A95E9F710C07D932A9513
:103BF00089F6069497956795379517951794E11868
:103C0000F10A430B560BC90BD00998F023957E910E
:103C100073957A3308F070E37C932013B8F77E91A4
:103C200070617D9330F0839571E37D9370E32A9505
:103C3000E1F71124EF90FF900F911F91CF91DF9149
:103C4000992787FD9095089591110C94CB1F803290
:103C500019F089508550C8F70895FB01DC014150E7
:103C6000504088F08D9181341CF08B350CF4805ECF
:103C7000659161341CF06B350CF4605E861B61113C
:103C800071F3990B0895881BFCCFFC0105906150DE
:103C900070400110D8F7809590958E0F9F1F089562
:103CA000DC0101C06D9341505040E0F70895FC01E4
:103CB0006150704001900110D8F7809590958E0F5B
:103CC0009F1F08950F931F93CF93DF93FB012381D1
:103CD00021FD03C08FEF9FEF28C022FF16C0468151
:103CE0005781248135814217530744F4A081B18163
:103CF0009D012F5F3F4F318320838C932681378135
:103D00002F5F3F4F3783268310C0EB01092F182FF9
:103D10000084F185E02D0995892BE1F68E819F8144
:103D200001969F838E83812F902FDF91CF911F91DA
:103D30000F910895FA01AA27283051F1203181F11D
:103D4000E8946F936E7F6E5F7F4F8F4F9F4FAF4FA3
:103D5000B1E03ED0B4E03CD0670F781F891F9A1FB6
:103D6000A11D680F791F8A1F911DA11D6A0F711D6A
:103D7000811D911DA11D20D009F468943F912AE076
:103D8000269F11243019305D3193DEF6CF0108955E
:103D9000462F4770405D4193B3E00FD0C9F7F6CF8F
:103DA000462F4F70405D4A3318F0495D31FD405257
:103DB000419302D0A9F7EACFB4E0A69597958795ED
:103DC00077956795BA95C9F70097610571050895CC
:103DD0009B01AC010A2E0694579547953795279578
:103DE000BA95C9F7620F731F841F951FA01D089510
:103DF0000E943A1F08F481E00895E89409C097FBF7
:103E00003EF490958095709561957F4F8F4F9F4FB1
:103E10009923A9F0F92F96E9BB279395F6958795F5
:103E200077956795B795F111F8CFFAF4BB0F11F4B8
:103E300060FF1BC06F5F7F4F8F4F9F4F16C088235F
:103E400011F096E911C0772321F09EE8872F762F95
:103E500005C0662371F096E8862F70E060E02AF0D6
:103E60009A95660F771F881FDAF7880F96958795C2
:103E700097F90895990F0008550FAA0BE0E8FEEF97
:103E800016161706E807F907C0F012161306E4071E
:103E9000F50798F0621B730B840B950B39F40A2617
:103EA00061F0232B242B252B21F408950A2609F4F5
:103EB000A140A6958FEF811D811D08950E94711F5D
:103EC0000C94E51F0E94D71F38F00E94DE1F20F0DF
:103ED000952311F00C94CE1F0C94D41F11240C9434
:103EE00019200E94F61F70F3959FC1F3950F50E0C3
:103EF000551F629FF001729FBB27F00DB11D639F9C
:103F0000AA27F00DB11DAA1F649F6627B00DA11D41
:103F1000661F829F2227B00DA11D621F739FB00DE7
:103F2000A11D621F839FA00D611D221F749F332757
:103F3000A00D611D231F849F600D211D822F762FF0
:103F40006A2F11249F5750409AF0F1F088234AF0CD
:103F5000EE0FFF1FBB1F661F771F881F9150504039
:103F6000A9F79E3F510580F00C94CE1F0C941920A8
:103F70005F3FE4F3983ED4F3869577956795B795C0
:103F8000F795E7959F5FC1F7FE2B880F911D9695DA
:103F9000879597F9089599278827089597F99F6736
:103FA00080E870E060E008959FEF80EC08950024C1
:103FB0000A941616170618060906089500240A948E
:103FC00012161306140605060895092E0394000C14
:103FD00011F4882352F0BB0F40F4BF2B11F460FFA3
:103FE00004C06F5F7F4F8F4F9F4F089557FD9058CC
:103FF000440F551F59F05F3F71F04795880F97FBAD
:10400000991F61F09F3F79F0879508951216130666
:104010001406551FF2CF4695F1DF08C01616170695
:104020001806991FF1CF86957105610508940895CA
:10403000E894BB2766277727CB0197F908950E945C
:104040006120A59F900DB49F900DA49F800D911DA0
:10405000112408952F923F924F925F926F927F9218
:104060008F929F92AF92BF92CF92DF92EF92FF9288
:104070000F931F93CF93DF93CDB7DEB7CA1BDB0B34
:104080000FB6F894DEBF0FBECDBF09942A883988D9
:1040900048885F846E847D848C849B84AA84B984E0
:1040A000C884DF80EE80FD800C811B81AA81B981EC
:1040B000CE0FD11D0FB6F894DEBF0FBECDBFED0100
:1040C0000895A29FB001B39FC001A39F700D811DF1
:1040D0001124911DB29F700D811D1124911D089511
:1040E000A1E21A2EAA1BBB1BFD010DC0AA1FBB1FFC
:1040F000EE1FFF1FA217B307E407F50720F0A21B6E
:10410000B30BE40BF50B661F771F881F991F1A94DA
:1041100069F760957095809590959B01AC01BD0104
:10412000CF010895EE0FFF1F0590F491E02D099443
:1041300081E090E0F8940C94CE20FB01DC0141502A
:10414000504030F08D910190801919F40020B9F79A
:10415000881B990B0895AEE0B0E0E1EBF0E20C941F
:1041600038200D891E8986E08C831A8309838FEF9E
:104170009FE79E838D83AE01475E5F4F6F89788D89
:10418000CE0101960E9473182F813885F801E20F45
:10419000F31F10822E96E4E00C94542011E0C9E144
:1041A000D1E004C0FE010E9492202196CA31D107BD
:0641B000C9F7F894FFCFEF
:1041B6000000650480002C000000007F086A0700EC
:1041C6000000006707720700000000660770071806
:1041D600000000000000000000E8FFE8FF0000000B
:1041E60000000014000000000000000000ECFFECDE
:1041F600FF00000000000000000000F3065C068BD4
:10420600063A07BC069A06AE06060000000000073E
:10421600030903FAFFFAFF000008030B0318000066
:1042260000000028033F03E8FFE8FF0000350349CC
:1042360003730125012F017D0100000000F803052D
:104246000352024F024C0249024602BD01B901B6B1
:1042560001A001C0014401680702000000000055EA
:10426600035703FEFFFEFF0000560359030000003C
:1042760000FA03A10300000000F903530352024FA2
:10428600024C02490246023A02F401DB01C201C0B5
:1042960001B202910214000000000076038D03ECC7
:1042A600FFECFF000083039703EB0139014301F59F
:1042B60001000000006C096E07000000000E0828CF
:1042C6000800000000150C1D0C000000006B096CB6
:1042D6000700000000270C74070000000000000023
:1042E600005A0600000000000000005A0600000008
:1042F60000AD05A60D9002AB0DFEFF0000A50DA8B2
:104306000D1E0F0D0A0041542B25730031302F006E
:1043160033353000382F003230004254004E43000F
:10432600415439303D2825642C25642C25642C25E0
:10433600642C25642900415464303D2829004154E9
:1043460038313D2825642C25642C257329004154D9
:1043560038333D2825642C25642C257329004856BE
:1043660000534554530053455400544C5300544293
:104376005A0041434B0048563100535231004856CB
:0C4386003200535232004154006B5600CC
:00000001FF
