:100000000C94D0020C94F8020C94F8020C94460460
:100010000C9446040C9446040C94F8020C94F802D8
:100020000C94F8020C94F8020C94F8020C94F80268
:100030000C94F8020C94F8020C94F8020C94F80258
:100040000C94EC120C94F8020C942B0E0C94050EEC
:100050000C94F8020C94F8020C94F8020C94F80238
:100060000C94F8020C94F80298173219AC17321954
:100070007118321932193219321932197118C3171D
:100080002618321932193219321932193219321925
:1000900032193219841832191D19611A631B651A35
:1000A0007A1A911A631B631B631B631B631BD41AAD
:1000B000A81ABC1AD11AD41A631B631B631B631BD7
:1000C000631B431B631BE81A001B201BAA20AD20E7
:1000D000B020B620B320BB21BB21BB21BB21BB215B
:1000E000B920BC20BF20C220C520BB21BB21BB2121
:1000F000BB21BB21C820BB21CE20CB20D120BB21DE
:10010000BB21BB21BB21BB21BB21BB21BB21BB210F
:10011000BB21BB21BB21BB21BB21BB21BB21BB21FF
:10012000BB21BB21BB21BB21BB21BB21BB21BB21EF
:10013000D420D720DA20DD20E020E320E620E920CB
:100140004E414E494E495459494E46CDCCCC3D0ABC
:10015000D7233C17B7D13877CC2B329595E6241F9F
:10016000B14F0A000020410000C84200401C462058
:10017000BCBE4CCA1B0E5AAEC59D744745542025C3
:1001800073257320485454502F312E310D0A486F77
:1001900073743A2025730D0A0D0A0076696E3D25A9
:1001A00064266C763D256426616C3D25640073727F
:1001B000633D25642663683D256C7526736C3D257B
:1001C00064000001020304051112131415160A0B32
:1001D0000C0D0E0F526164696F204552524F520050
:1001E000526164696F20426567696E004672656599
:1001F0002052414D203D200053544152540046723C
:1002000065652052414D203D2000242046726565E1
:100210002052414D203D200053656E64696E672E6B
:100220002E2E002D2D2052656365697665643A2077
:1002300000AE019B017B012A2A2A20202041542064
:1002400053454E440041542B43495053454E443D81
:100250000041542B43495053454E443D004F6E20BE
:10026000506F73743A200041542B434950434C4F14
:10027000534500467265652052414D204146544524
:10028000523D20003D3D3D3E2050555348205245B3
:1002900051554553545300536C61766520524620A6
:1002A0004D65737361676520526563656976656442
:1002B0003A20004F4E205246204D4553534147456A
:1002C0002053454E443A2000574946492052455153
:1002D0005545535420504F53544544204552524F96
:1002E00052005749464920524551554553542050D4
:1002F0004F535445440057494649205741495449B2
:100300004E472052455120524553504F4E534500C1
:100310005749464920524551554553542053454E5F
:1003200044005749464920524551554553542049A8
:100330005320504F5354494E470057494649205087
:100340004F5354494E47205245414459005749465E
:100350004920535441525420504F5354494E470062
:10036000574946492053544F5020504F5354494EFB
:100370004700574946492053455256455220434F5E
:100380004E4E454354454400574946492053455233
:1003900056455220434F4E4E454354494E47005711
:1003A00049464920534552564552204552524F52D4
:1003B0000057494649205345525645522044495317
:1003C000434F4E4E454354454400574946492057F4
:1003D0004C414E20434F4E4E4543544544005749EF
:1003E000464920574C414E20434F4E4E45435449B9
:1003F0004E47204641494C005749464920574C41F9
:100400004E20434F4E4E454354494E4700574946B0
:100410004920574C414E20434845434B00574946DD
:100420004920574C414E20444953434F4E4E45437B
:10043000544544005749464920494E495449414C86
:10044000495A494E47204552524F52005749464952
:1004500020494E495449414C495A45440057494660
:100460004920494E495449414C495A494E47005741
:1004700049464920424C5544454400574946492085
:100480004F464600467265652052414D2042543D1C
:100490002000474554202573257320485454502F7D
:1004A000312E310D0A486F73743A2025730D0A0DF1
:1004B0000A0076696E3D2564266C763D25642661CA
:1004C0006C3D2564007372633D25642663683D2599
:1004D0006C7526736C3D25640047455420257325B3
:1004E0007320485454502F312E310D0A486F7374C5
:1004F0003A2025730D0A0D0A0076696E3D256426A3
:100500006C763D256426616C3D2564007372633D05
:1005100025642663683D256C7526736C3D25640053
:10052000C504B20492040C05F904D90441542B52B9
:100530005354002420467265652052414D203D20D1
:100540000000000000240027002A0000000008002E
:10055000020100000304070000000000000000008A
:10056000000000250028002B0000000000230026CA
:100570000029000404040404040404020202020228
:100580000203030303030301020408102040800157
:10059000020408102001020408102000D7218A2537
:1005A00011241FBECFEFD8E0DEBFCDBF13E0A0E027
:1005B000B1E0E2E8FEE502C005900D92A63EB1076B
:1005C000D9F725E0A6EEB3E001C01D92AD3AB2071F
:1005D000E1F712E0CFECD2E004C02197FE010E94C7
:1005E000B72DCE3CD107C9F70E9436130C94342F97
:1005F0000C94000020910B0430910C04281739074B
:1006000071F49091090480910A04981741F0E091E7
:100610000904F0E0E951FC4F808190E008958FEFEC
:100620009FEF089508951F93CF93DF93DC015C96AD
:100630002D913C915D972115310539F481E090E0D1
:1006400013969C938E9312973DC05196ED91FC9119
:10065000529750969C915097892F80951FB75E9620
:100660004C915E9741FB772770F941FD6095F894B6
:100670004081772311F0492B01C048234083E901D1
:100680002197F1F748E0508160FF02C0592B01C06B
:1006900058235083E9012197F1F76695415099F766
:1006A000772321F090818923808303C08081982B58
:1006B00090831FBF5C968D919C915D970197F1F798
:1006C00021E030E0C901DF91CF911F910895209181
:1006D0000B0430910C042817390769F480910A043F
:1006E0002091090490E08096821B910960E270E0FD
:1006F0000E94812D089580E090E0089520910B04E0
:1007000030910C0428173907B9F4909109048091AD
:100710000A04981789F0E0910904F0E0E951FC4FD0
:1007200080812091090430E02F5F3F4F2F713327E4
:100730002093090490E008958FEF9FEF08950895A6
:1007400080E090E00895089508950F931F93CF934C
:10075000DF93EC01CB01088119817B836A830E94BE
:10076000C6259983888320E030E08C819D812817FD
:10077000390770F4E881F981E20FF31F309729F00F
:10078000D801A20FB31F8C9180832F5F3F4FEDCF15
:10079000C801DF91CF911F910F910C945B26CF93ED
:1007A000DF93EC016C817D816F5F7F4F8A819B813C
:1007B0008617970718F4CE010E94A503E881F981F6
:1007C0008C819D81E80FF91F108288819981DF91CA
:1007D000CF9108950F931F93CF93DF93FC01048172
:1007E0001581FB01C481D581AE010C171D0708F4EA
:1007F000A801FB0160817181FC01808191810E94CF
:10080000B92E009769F481E090E0C017D10740F05D
:100810000C171D0710F080E090E0919581959109EB
:10082000DF91CF911F910F910895FC0120813181BB
:10083000828193812817390719F0822F0C940A12AC
:100840000895CF93DF93EC019CB59F7D9CBD9CB533
:10085000937F9CBD9CB59C7F9CBD9DB591609DBDCB
:100860008A810E940A128C899D89DF91CF910C9414
:100870009B1261E00C94210460E00C9421048EBD75
:1008800000000DB407FEFDCF8EB508951F920F92A4
:100890000FB60F9211242F933F934F935F936F9353
:1008A0007F938F939F93AF93BF93EF93FF93E091C9
:1008B0000B04F0910C04309709F451C0968DA68575
:1008C000B785858591FF04C09C91892329F447C091
:1008D0009C91892309F043C0A389B4899C9185899F
:1008E000809589238C93868997890197F1F7608D8C
:1008F000718DA685B785558538E020E0CB0101973D
:10090000F1F7822F90E095958795282F4C914523FC
:1009100009F02068315091F7868D81FD20958091F6
:100920000A0490E001968F719927309109043817D5
:1009300049F0A0910A04B0E0A951BC4F2C938093D8
:100940000A0403C0868D8160868F828D938D019706
:10095000F1F7A389B4899C918589892B8C93FF91A8
:10096000EF91BF91AF919F918F917F916F915F9127
:100970004F913F912F910F900FBE0F901F901895A0
:10098000EF92FF920F931F93CF93DF93EC018C8133
:100990009D818617970710F57A018B018A819B81CB
:1009A0008617970740F4685F7F4F8617970718F4FC
:1009B000CE010E94A5038C819D818017910758F478
:1009C000E881F981E80FF91F309719F0D7012C91D0
:1009D00020830196F2CF1D830C8305C06817790729
:1009E00010F47D836C83DF91CF911F910F91FF9065
:1009F000EF900895FC01808191810C945B26CF9249
:100A0000DF92EF92FF920F931F93FB01DC0100E056
:100A100010E098016A01E12CF12C0C151D052E0542
:100A20003F0538F461916D930F5F1F4F2F4F3F4F7C
:100A3000F4CF840F951F1F910F91FF90EF90DF90DF
:100A4000CF900895AF92BF92CF92DF92EF92FF9234
:100A50000F931F93CF93DF931F92CDB7DEB78C0117
:100A60006B017A01590188E090E0F8019383828359
:100A7000158214820E94C625F80191838083F601B5
:100A8000848195818E159F0510F40E949B2E1982FA
:100A9000BC016E197F09A616B70608F4B501AE01B0
:100AA0004F5F5F4FC8010E94C004F8014481558127
:100AB000F601608171816E0D7F1DF8018081918149
:100AC0000E94FF040F90DF91CF911F910F91FF9033
:100AD000EF90DF90CF90BF90AF900895CF92DF92CC
:100AE000EF92FF920F931F93CF93DF931F92CDB797
:100AF000DEB77C016B0188E090E0F701938382838D
:100B0000158214820E94C625F70191838083C11447
:100B1000D104B9F0F60101900020E9F731978F0177
:100B20000C191D091982AE014F5F5F4FB801C70153
:100B30000E94C004A801B601F701808191810E9442
:100B4000FF040F90DF91CF911F910F91FF90EF90D5
:100B5000DF90CF90089581E0089582E00895CB0161
:100B600008957F928F929F92AF92BF92CF92DF9221
:100B7000EF92FF920F931F93CF93DF93EC01490104
:100B80005A018B01C12CD12C7601C814D904EA0476
:100B9000FB0484F5F80171908F018F8580FF0BC0F5
:100BA000E881F9810084F185E02D20E144E060E0F6
:100BB00070E0CE010995EB85FC858D859E85E81753
:100BC000F90738F470828B859C8501969C878B870A
:100BD0000BC0E881F981672D70E0028CF38DE02D68
:100BE000CE010995019649F02FEFC21AD20AE20A06
:100BF000F20ACBCFB401C50102C0B601C701DF9133
:100C0000CF911F910F91FF90EF90DF90CF90BF9009
:100C1000AF909F908F907F900895CF93DF93EC01DA
:100C2000E881F9810288F389E02D09958F3F2FEF44
:100C3000920731F02D813E812F5F3F4F3E832D8300
:100C4000DF91CF9108958FEF9FEF089560E070E0FE
:100C5000CB01089580E090E00895CB010895CF93F3
:100C6000DF93EC0188899989DC01ED91FC91008486
:100C7000F185E02D0995892BA9F388899989DC01F3
:100C8000ED91FC910284F385E02DDF91CF910994E1
:100C9000CF93DF93EC0188899989DC01ED91FC9178
:100CA0000084F185E02D0995892BA9F3888999891C
:100CB000DC01ED91FC910484F585E02DDF91CF916D
:100CC0000994AF92BF92CF92DF92EF92FF920F936F
:100CD0001F93CF93DF9300D000D0CDB7DEB78C0148
:100CE0005B01C12CD12C7601F80180899189DC014E
:100CF000ED91FC910284F385E02D29833A834B83A7
:100D00005C83099529813A814B815C818F3F71F029
:100D1000C216D306E406F5064CF4D5018D935D01A9
:100D2000BFEFCB1ADB0AEB0AFB0ADECFC701B60125
:100D30000F900F900F900F90DF91CF911F910F9117
:100D4000FF90EF90DF90CF90BF90AF900895DC01BF
:100D500050968D919C915197DC01ED91FC9100840E
:100D6000F185E02D099480E090E0089580E090E026
:100D7000089580E090E0089580E090E0089508955F
:100D8000CF93DF93C0914D04D0914E04E881F98157
:100D90000084F185E02DCE010995892BB9F3E88116
:100DA000F9810284F385E02DCE01DF91CF91099482
:100DB0001F93CF93DF93182FC0914D04D0914E0411
:100DC0008A3041F4E881F9810190F081E02D6DE0F5
:100DD000CE010995E881F9810190F081E02D612F24
:100DE000CE01099521E030E0019711F420E030E0D8
:100DF000C901DF91CF911F9108950C945B260C944B
:100E00005B260C945B260C945B26089508950C9445
:100E10005B26DC01ED91FC91369720813181820FB8
:100E2000931F0C940707FB0120813181FC01318362
:100E30002083FB0142815381F90136972081318162
:100E4000FC01E20FF31F51834083089529EA31E04A
:100E5000FC013183208323EB31E0318F208F69EB5C
:100E600071E00C941307DC01ED91FC913697208121
:100E70003181820F931F0C942607CF93DF93EC01EF
:100E80000E942607CE01DF91CF910C945B26DC01F6
:100E9000ED91FC91369720813181820F931F0C9444
:100EA0003D070C945B26089508950C945B26DC01A5
:100EB000ED91FC91369720813181820F931F0C9424
:100EC0005507FB0120813181FC0131832083FB0127
:100ED00042815381F901369720813181FC01E20F73
:100EE000F31F51834083089521E232E0FC013183F6
:100EF00020832BE232E0358B248B61E372E00C948B
:100F00006107DC01ED91FC91369720813181820FE0
:100F1000931F0C947407CF93DF93EC010E94740726
:100F2000CE01DF91CF910C945B26DC01ED91FC9119
:100F3000369720813181820F931F0C948B070C947C
:100F40005B26CF92DF92EF92FF920F931F93CF9386
:100F5000DF93CDB7DEB7A6970FB6F894DEBF0FBE0E
:100F6000CDBF8C017B01E6E2F5E0659174919E01B5
:100F70002F5F3F4F6901C9010E94F726F801808564
:100F80008F9387818F9386818F9385818F938481BF
:100F90008F9383818F9382811F928F93DF92CF9261
:100FA0001F9286E28F93FF92EF920E94E12EF7014B
:100FB00015A20FB6F894DEBF0FBECDBFA6960FB632
:100FC000F894DEBF0FBECDBFDF91CF911F910F917F
:100FD000FF90EF90DF90CF900895CF92DF92EF9245
:100FE000FF920F931F93CF93DF93CDB7DEB7A697F2
:100FF0000FB6F894DEBF0FBECDBF8C017B01E2E2DD
:10100000F5E0659174919E012F5F3F4F6901C90121
:101010000E94F726F80185811F928F9384811F9289
:101020008F9383818F9382818F93DF92CF921F92D0
:1010300086E28F93FF92EF920E94E12EF70115A2B4
:101040000FB6F894DEBF0FBECDBFA6960FB6F894CC
:10105000DEBF0FBECDBFDF91CF911F910F91FF90EB
:10106000EF90DF90CF9008950F931F93CF93DF936E
:101070008C01EB016F3F8FEF780719F480E090E06F
:101080000FC06A3031F46DE0F801808991890E94C7
:10109000540D6C2FF801808991890E94540DCE0166
:1010A000DF91CF911F910F9108958F929F92BF92E0
:1010B000CF92DF92EF92FF920F931F93CF93DF9324
:1010C00000D000D0CDB7DEB78C014B01C12CD12CA4
:1010D0007601C216D306E406F50644F5F401B19094
:1010E0004F01FAE0BF120EC06DE0F80180899189CE
:1010F00029833A834B835C830E94540D5C814B812E
:101100003A8129816B2DF8018089918929833A835D
:101110004B835C830E94540DFFEFCF1ADF0AEF0A66
:10112000FF0A5C814B813A812981D3CFCA01B90181
:101130000F900F900F900F90DF91CF911F910F9113
:10114000FF90EF90DF90CF90BF909F908F90089589
:101150000F931F93CF93DF93CDB7DEB72A970FB6C8
:10116000F894DEBF0FBECDBFFC01208D261709F419
:1011700067C08C01608F80E491E09A838983FC834F
:10118000EB8370E07E836D8318861F821A86198632
:10119000BE016F5F7F4FCF010E942C11F801808D3F
:1011A0008733C9F028F48433B1F08633A1F046C008
:1011B0008833C9F0893309F041C00E94E012F80178
:1011C000668F778F80A391A363E3C8010E94A8086C
:1011D00088E893E129C00E94E012F801668F778FBA
:1011E00080A391A32BC00E94E012F801668F778F35
:1011F00080A391A39481992389F08589E80FF11D3B
:10120000E80FF11D168215828F5FF801883010F407
:10121000858B01C0158A9150F801948363E3C8015E
:101220000E94A80888EE93E0F80193A382A30E948D
:10123000E012F801628F738F848F958F81E001C077
:1012400080E02A960FB6F894DEBF0FBECDBFDF91C7
:10125000CF911F910F910895EF92FF920F931F93DB
:10126000CF93DF93CDB7DEB72A970FB6F894DEBFE2
:101270000FBECDBFFC012789261709F461C08C0180
:10128000678B80E491E09A838983FC83EB8370E031
:101290007E836D8318861F821A861986CE01019679
:1012A0007C01BC01CF010E942C11F80187898D308F
:1012B00081F028F4843051F08A30E1F022C0873187
:1012C00069F08831B9F08E30E1F414C080E29EE418
:1012D00007C06AE0C8010E942C090CC080E395E7B2
:1012E000F80193A382A30E94E012F801628F738F2A
:1012F000848F958F0E94E012F801668F778F80A30C
:1013000091A363E375E08DE794E00E945B0D80910B
:10131000A1059091A205B701681B790B8DE794E0B8
:101320000E946E1182E390E0F80193A382A30E94D1
:10133000E012F801628F738F848F958F81E001C076
:1013400080E02A960FB6F894DEBF0FBECDBFDF91C6
:10135000CF911F910F91FF90EF900895CF93DF935E
:10136000EC016BE00E942C0964E773E08A819B81A9
:101370000E94DD0D0E94E0126A8F7B8F8C8F9D8F03
:10138000DF91CF910895EF92FF920F931F93CF9328
:10139000DF93CDB7DEB7C054D1090FB6F894DEBFE6
:1013A0000FBECDBF8C0184E193E09F938F938EE7B6
:1013B00093E09F938F93CE0101967C019F938F932F
:1013C0000E94112FB701F801828193810E94DD0DE7
:1013D00066E1C8010E942C090E94E012F801628FA8
:1013E000738F848F958F0F900F900F900F900F90A9
:1013F0000F90C05CDF4F0FB6F894DEBF0FBECDBFBD
:10140000DF91CF911F910F91FF90EF900895EF9290
:10141000FF920F931F93CF93DF93CDB7DEB7C054E6
:10142000D1090FB6F894DEBF0FBECDBF8C0188E99D
:1014300093E09F938F9380EB92E09F938F9381EA49
:1014400093E09F938F93CE0101967C019F938F939E
:101450000E94112FB701F801828193810E94DD0D56
:101460006CE0C8010E942C090E94E012F801628F12
:10147000738F848F958F0FB6F894DEBF0FBECDBFEC
:10148000C05CDF4F0FB6F894DEBF0FBECDBFDF915B
:10149000CF911F910F91FF90EF900895CF93DF931D
:1014A000EC016CE275E08A819B810E94F10D80ED78
:1014B00097E09BA38AA30E94E0126A8F7B8F8C8F98
:1014C0009D8F0E94E0126A8F7B8F8C8F9D8F62E0D0
:1014D000CE01DF91CF910C942C090F931F93CF93E2
:1014E000DF93EC018C819D89883070F4980F9830DF
:1014F00008F09770FE01E90FF11DE90FF11D7683E9
:1015000065838F5F8C8321C08B01FE01E90FF11D84
:10151000E90FF11D8581968116821582009739F0B9
:10152000DC01ED91FC910280F381E02D09958D891C
:10153000FE01E80FF11DE80FF11D168305838F5F93
:10154000883010F48D8B01C01D8A81E0DF91CF912E
:101550001F910F910895089508950895089508958D
:1015600008951F93CF93DF93EC010E943C0481EE1A
:101570000E943F04182FCE010E943904812FDF9171
:10158000CF911F910895EF92FF921F93CF93DF9316
:1015900000D0CDB7DEB77C014A8369830E943C044A
:1015A0006981862F8F7180620E943F04182F4A81C3
:1015B000842F0E943F04C7010E943904812F0F909D
:1015C0000F90DF91CF911F91FF90EF900895CF92F0
:1015D000DF92EF92FF920F931F93CF93DF9300D090
:1015E0001F92CDB7DEB77C01142F2A835B836983FA
:1015F0000E943C046981862F8F7180620E943F04A3
:10160000082FC12E5B81D52E2A81120F1C1531F0B7
:10161000F60181916F010E943F04F8CFC7010E943B
:101620003904802F0F900F900F90DF91CF911F9171
:101630000F91FF90EF90DF90CF900895EF92FF927F
:101640001F93CF93DF931F92CDB7DEB77C016983E1
:101650000E943C046981862F8F710E943F048FEFA6
:101660000E943F04182FC7010E943904812F0F9058
:10167000DF91CF911F91FF90EF900895CF93DF936B
:10168000EC0160E00E941E0B81FD0EC0482F4260FD
:1016900060E0CE010E94C30A65E070E080E090E067
:1016A000DF91CF910C94A612DF91CF910895CF9343
:1016B000DF93EC010E943E0B60E0CE010E941E0B06
:1016C000482F416060E0CE010E94C30A40E767E016
:1016D000CE010E94C30A61E0CE010E9415048985F3
:1016E000882349F02E85AE01475F5F4F6AE0CE0147
:1016F0000E94E70A14C062E0CE010E941E0BE2ECD9
:10170000F1E0E49121E030E001C0220FEA95EAF730
:101710002095422F482362E0CE010E94C30A6DE16A
:10172000CE010E941E0B81FF05C0CE01DF91CF913B
:101730000C94B10ADF91CF910895CF92DF92EF928E
:10174000FF920F931F93CF93DF936C017A018B016C
:10175000C0E0D0E0CE15DF0589F0D8016D918D0194
:10176000D601ED91FC910190F081E02DC601099523
:10177000892B11F47E0102C02196ECCFC701DF91C5
:10178000CF911F910F91FF90EF90DF90CF90089530
:10179000FC01538D448D252F30E0842F90E0821B77
:1017A000930B541710F0CF96089501970895FC01FC
:1017B000918D828D981761F0828DDF01A80FB11D88
:1017C0005D968C91928D9F5F9F73928F90E00895AC
:1017D0008FEF9FEF0895FC01918D828D981731F066
:1017E000828DE80FF11D858D90E008958FEF9FEFBA
:1017F0000895FC01918D228D892F90E0805C9F4F90
:10180000821B91098F73992708958DE794E00E94B8
:10181000F90B21E0892B09F420E0822F0895FC01C7
:10182000848DDF01A80FB11DA35ABF4F2C91848D69
:1018300090E001968F739927848FA689B7892C939E
:10184000A089B1898C9180648C93938D848D981339
:1018500006C00288F389E02D80818F7D8083089502
:10186000EF92FF920F931F93CF93DF93EC0181E0F0
:10187000888F9B8D8C8D981305C0E889F9898081AC
:1018800085FD24C0F62E0B8D10E00F5F1F4F0F73E8
:101890001127E02E8C8DE8120CC00FB607FCFACF92
:1018A000E889F989808185FFF5CFCE010E940F0C70
:1018B000F1CF8B8DFE01E80FF11DE35AFF4FF0824F
:1018C0000B8FEA89FB898081806207C0EE89FF89DE
:1018D0006083E889F98980818064808381E090E079
:1018E000DF91CF911F910F91FF90EF900895CF93CB
:1018F000DF93EC01888D8823C9F0EA89FB89808118
:1019000085FD05C0A889B9898C9186FD0FC00FB6E9
:1019100007FCF5CF808185FFF2CFA889B9898C912A
:1019200085FFEDCFCE010E940F0CE7CFDF91CF9165
:10193000089580E090E0892B29F00E94050C811128
:101940000C940000089508950895FB01108281E031
:10195000089580E008950E949B2E0C945B260C94C1
:101960005B260C945B260C945B260C945B260C94F3
:101970005B26CF93DF93FC0124813581232B71F00B
:10198000FB01DC01CD91DC9160817181CE010E946F
:10199000C72E009719F08C1B9D0B02C08FEF9FEF95
:1019A000DF91CF910895CF93DF93DC01ED91FC910E
:1019B000EB01A881B981309711F01097C9F4109705
:1019C00059F0EB012C813D81232B31F08C9190E07B
:1019D00091958195910914C0309781F0DC0114969E
:1019E0008D919C911597892B49F0808190E008C0DA
:1019F000BD01CF01DF91CF910C94A92E80E090E042
:101A0000DF91CF910895FC01808191810C945B2638
:101A1000EF92FF920F931F93CF93DF93EC01198204
:101A200018821B821A821D821C8261157105A9F120
:101A30007B01FB0101900020E9F731978F01061B24
:101A4000170BB8016F5F7F4F80E090E00E94D12DAF
:101A5000009759F0998388831B830A832C813D81E9
:101A6000232B81F4FC0110820DC08881998100979D
:101A700011F00E945B26198218821D821C821B8233
:101A80001A820BC01D830C83B701DF91CF911F9188
:101A90000F91FF90EF900C94B22EDF91CF911F9198
:101AA0000F91FF90EF900895DC01ED91FC91019072
:101AB000F081E02D0994EF92FF920F931F93CF9343
:101AC000DF938C017B01C0E0D0E0F701EC0FFD1F3C
:101AD0006491662361F0D801ED91FC910190F08151
:101AE000E02DC8010995892B11F02196EECFCE018A
:101AF000DF91CF911F910F91FF90EF9008956115A5
:101B0000710579F0FB0101900020E9F73197AF01F1
:101B1000461B570BDC01ED91FC910280F381E02D17
:101B2000099480E090E008954F925F926F927F92C7
:101B3000EF92FF920F931F93CF93DF93CDB7DEB752
:101B4000A1970FB6F894DEBF0FBECDBF7C01FA019E
:101B5000CB0119A2223008F42AE08E010F5D1F4F3D
:101B6000422E512C612C712CBF01A30192010E94C5
:101B7000952DF901CA01015011096A3014F4605D14
:101B800001C0695CD8016C93232B242B252B61F7B2
:101B9000B801C7010E947F0DA1960FB6F894DEBF71
:101BA0000FBECDBFDF91CF911F910F91FF90EF90AE
:101BB0007F906F905F904F9008950F931F93CF93F6
:101BC000DF93EC010E947F0D8C016CE473E0CE0189
:101BD0000E947F0D800F911FDF91CF911F910F9178
:101BE00008950F931F93CF93DF93EC010E945B0D39
:101BF0008C016CE473E0CE010E947F0D800F911F79
:101C0000DF91CF911F910F9108951F920F920FB600
:101C10000F9211242F933F934F935F936F937F9372
:101C20008F939F93AF93BF93EF93FF938DE794E0D0
:101C30000E940F0CFF91EF91BF91AF919F918F91F7
:101C40007F916F915F914F913F912F910F900FBEB8
:101C50000F901F9018951F920F920FB60F9211249C
:101C60002F938F939F93EF93FF93E0918D04F091C7
:101C70008E048081E0919304F091940482FD12C05F
:101C80009081809196048F5F8F73209197048217C3
:101C900051F0E0919604F0E0E358FB4F958F80936C
:101CA000960401C08081FF91EF919F918F912F91B8
:101CB0000F900FBE0F901F9018950F931F93CF9307
:101CC000DF93CDB7DEB727970FB6F894DEBF0FBE10
:101CD000CDBFDC0119968D919C911A970097C1F0A8
:101CE00012962C911297FC0140815181FA010481D6
:101CF000158141E551E05A834983BC83AB832D8331
:101D00001796BF83AE83BE016F5F7F4FF8010995C1
:101D100027960FB6F894DEBF0FBECDBFDF91CF91EF
:101D20001F910F91089508954F925F926F927F9245
:101D30008F929F92AF92BF92CF92DF92EF92FF92DB
:101D40000F931F93CF93DF931F92CDB7DEB77C0124
:101D50002B01FC01848195816C01FFEFCF1ADF0A12
:101D60008C159D0508F06EC0F701228133812C157A
:101D70003D05F0F5099628173907D0F58080918048
:101D80009383828327E0AC01249FC001259F900D9F
:101D900011240E94C625F701918380835401612C90
:101DA000712CF7018481958168167906F0F4F701AA
:101DB00020813181C50188199909820F931F0097ED
:101DC00051F08E010F5F1F4F2FEF3FEF40E050E0CB
:101DD000B5010E942205C5010E94FA04FFEF6F1AA7
:101DE0007F0A27E0A20EB11CDCCFC4010E945B2653
:101DF000F701A480B58087E08A9D30018B9D700C2F
:101E00001124812C912CF701AC14BD0408F040C0C2
:101E100020813181C401860D971D820F931F009789
:101E200051F08E010F5F1F4F2FEF3FEF40E050E06A
:101E3000B2010E942205FFEFAF1ABF0A27E0820E0F
:101E4000911CE1CFC816D90628F527E0289F30015C
:101E5000299F700C11245601812C912CF7E06F0EF4
:101E6000711CF70184819581A816B90688F4C30115
:101E7000880D991DF70120813181820F931F0E94E7
:101E8000FA04FFEFAF1ABF0A27E0820E911CE9CFD8
:101E9000D582C4820F90DF91CF911F910F91FF9057
:101EA000EF90DF90CF90BF90AF909F908F907F90FA
:101EB0006F905F904F900895CF92DF92EF92FF92D4
:101EC0000F931F93CF93DF931F92CDB7DEB78C0193
:101ED000FB01E480F580E416F50610F40E949B2EC9
:101EE000E41AF50A2E153F0508F47901C080D18067
:101EF000C40ED51E88E090E0F8019383828315829A
:101F000014820E94C625F80191838083FFEFEF16AB
:101F1000FF0621F3F6018081181684F41982AE01C0
:101F20004F5F5F4FB701C8010E94C004F8014481B0
:101F30005581B601808191810E94FF04C8010F90F4
:101F4000DF91CF911F910F91FF90EF90DF90CF9095
:101F5000089508950895CF93DF93CDB7DEB72A97FC
:101F60000FB6F894DEBF0FBECDBFFC01838594850C
:101F7000009741F1DB01FC0120813181F9014481AD
:101F8000558120E431E03A83298312962D913C91CA
:101F900013973C832B8314962D913C9115973E8388
:101FA0002D8316962D913C91179738872F8318967D
:101FB0002D913C9119973A872987BE016F5F7F4F1A
:101FC000FA0109952A960FB6F894DEBF0FBECDBF71
:101FD000DF91CF910895CF93DF93EC010E94E0123F
:101FE0006D837E838F839887DF91CF9108956F9261
:101FF0007F929F92AF92BF92CF92DF92EF92FF9229
:102000000F931F93CF93DF93CDB7DEB72A970FB609
:10201000F894DEBF0FBECDBFFC019284992009F475
:10202000A3C05B016C010281138160E0C8010E94C2
:102030001504F801808991890E949B126DE1C80105
:102040000E941E0B81FF08C0F801808991890E94BF
:102050009B12C8010E94B10A60E0C8010E941E0BD9
:10206000482F4E7F60E0C8010E94C30A62E0C801A9
:102070000E941E0BE2ECF1E0E49141E050E001C06F
:10208000440FEA95EAF7482B62E0C8010E94C30AB0
:10209000F60102811381F8019781E92E913110F048
:1020A00080E1E82EF8018085811103C0F92EFE1829
:1020B00001C0F12CC8010E943C0480EA0E943F0448
:1020C0003501EA94FFEFEF1631F0F30181913F0102
:1020D0000E943F04F6CFFF2029F080E00E943F04D9
:1020E000FA94F9CFC8010E94390461E0C8010E9446
:1020F0001504C8010E943C048FEF0E943F04F82E93
:10210000C8010E9439048F2D807399F360E0C801E3
:102110000E94150440E767E0C8010E94C30A84FFDB
:1021200004C0C8010E94B10A912C61E070E080E017
:1021300090E00E94A61280E491E09A838983DC8279
:10214000CB828CE590E09E838D8318861F82A986C2
:10215000BA86BE016F5F7F4FC6010E94AB0FF601CA
:10216000828193810E94570B892D2A960FB6F8948D
:10217000DEBF0FBECDBFDF91CF911F910F91FF90BA
:10218000EF90DF90CF90BF90AF909F907F906F9037
:102190000895EF92FF920F931F93CF93DF93CDB7E4
:1021A000DEB764970FB6F894DEBF0FBECDBF7C01DB
:1021B00081E493E4ABE4B0E0898B9A8BAB8BBC8B6E
:1021C0009E012F5E3F4F3F932F932EE633E03F93C8
:1021D0002F938E010F5F1F4F1F930F930E94112F9C
:1021E000B801C7010E94F70F0F900F900F900F904A
:1021F0000F900F9064960FB6F894DEBF0FBECDBF60
:10220000DF91CF911F910F91FF90EF9008958091F2
:10221000070490910804892BC9F48DE090E00E9496
:10222000C625FC0189E491E09183808313821282A8
:102230001482158216821782108684E081871286A6
:1022400014861386F0930804E09307048091070432
:102250009091080408950895CF93DF93CDB7DEB72A
:102260002A970FB6F894DEBF0FBECDBFFC01EA5827
:10227000FF4F80819181009741F1DB01FC012081BA
:102280003181F9014481558120E431E03A83298389
:1022900012962D913C9113973C832B8314962D918C
:1022A0003C9115973E832D8316962D913C9117975F
:1022B00038872F8318962D913C9119973A87298753
:1022C000BE016F5F7F4FFA0109952A960FB6F89409
:1022D000DEBF0FBECDBFDF91CF910895CF92DF92C9
:1022E000EF92FF920F931F93CF93DF938C016B01BB
:1022F000770FEE08FF08F7FE12C06DE20E94540D42
:10230000EC0144275527BA014C195D096E097F0974
:102310002AE0C8010E94940DC80FD91F06C02AE008
:10232000B701A6010E94940DEC016CE473E0C801B2
:102330000E947F0D8C0F9D1FDF91CF911F910F91F8
:10234000FF90EF90DF90CF9008950F931F93CF935E
:102350008C0166E085E394E00E941E0BC82FC77DC8
:102360000230110531F4C0628BE990E0A0E0B0E0EA
:102370000DC00130110529F085E590E0A0E0B0E046
:1023800005C0C86081E490E0A0E0B0E0809345041F
:1023900090934604A0934704B09348044C2F66E002
:1023A00085E394E00E94C30A66E085E394E00E941E
:1023B0001E0B91E08C1390E0892FCF911F910F910C
:1023C0000895833081F028F4813099F08230A1F0B3
:1023D00008958730A9F08830B9F08430D1F4809125
:1023E00080008F7D03C0809180008F778093800074
:1023F000089584B58F7702C084B58F7D84BD08951C
:102400008091B0008F7703C08091B0008F7D809362
:10241000B00008951F93CF93DF93282F30E0F90188
:10242000E55BFA4F8491F901E957FA4FD491F9012C
:10243000ED58FA4FC491CC23C9F0162F81110E9498
:10244000E111EC2FF0E0EE0FFF1FE15AFA4FA591DA
:10245000B4918FB7F894111105C09C91ED2FE095C0
:10246000E92302C0EC91ED2BEC938FBFDF91CF916C
:102470001F910895CF93DF9390E0FC01E957FA4F45
:102480002491FC01ED58FA4F8491882361F190E08A
:10249000880F991FFC01EF5BFA4FC591D491FC01A5
:1024A000E15AFA4FA591B491611109C09FB7F89410
:1024B0008881209582238883EC912E230BC0623083
:1024C00061F49FB7F8943881822F809583238883A5
:1024D000EC912E2B2C939FBF06C08FB7F894E88108
:1024E0002E2B28838FBFDF91CF9108953FB7F894AB
:1024F00080919D0590919E05A0919F05B091A005AA
:1025000026B5A89B05C02F3F19F00196A11DB11D4E
:102510003FBFBA2FA92F982F8827820F911DA11D89
:10252000B11DBC01CD0142E0660F771F881F991FC6
:102530004A95D1F708958230910538F0880F991F98
:10254000880F991F05970197F1F708958F929F9231
:10255000AF92BF92CF92DF92EF92FF926B017C011C
:102560000E9476124B015C01C114D104E104F10414
:10257000F1F00E947612DC01CB0188199909AA09B1
:10258000BB09883E9340A105B10570F321E0C21A52
:10259000D108E108F10888EE880E83E0981EA11C9E
:1025A000B11CC114D104E104F10419F7DDCFFF908F
:1025B000EF90DF90CF90BF90AF909F908F90089555
:1025C0002FB7F8946091990570919A0580919B05B9
:1025D00090919C052FBF08951F920F920FB60F92F6
:1025E00011242F933F938F939F93AF93BF93809129
:1025F000990590919A05A0919B05B0919C05309109
:10260000980523E0230F2D3720F40196A11DB11D5D
:1026100005C026E8230F0296A11DB11D2093980541
:102620008093990590939A05A0939B05B0939C0580
:1026300080919D0590919E05A0919F05B091A00568
:102640000196A11DB11D80939D0590939E05A093B9
:102650009F05B093A005BF91AF919F918F913F913E
:102660002F910F900FBE0F901F901895CF93DF936F
:10267000CDB7DEB7CD56D1090FB6F894DEBF0FBE89
:10268000CDBF789484B5826084BD84B5816084BDFB
:1026900085B5826085BD85B5816085BD80916E0000
:1026A000816080936E001092810080918100826031
:1026B000809381008091810081608093810080916E
:1026C00080008160809380008091B100846080935D
:1026D000B1008091B00081608093B00080917A0059
:1026E000846080937A0080917A00826080937A007F
:1026F00080917A00816080937A0080917A0080686E
:1027000080937A001092C10061E085E00E943A1245
:1027100061E087E00E943A1261E086E00E943A128E
:10272000E0918D04F0918E0482E08083E091890431
:10273000F0918A041082E0918B04F0918C0480E186
:10274000808310929504E0919104F091920486E0C8
:102750008083E0918F04F091900480818061808378
:10276000E0918F04F0919004808188608083E091F3
:102770008F04F0919004808180688083E0918F04C1
:10278000F091900480818F7D808300911D041091D1
:102790001E0485E394E0D80113969C938E931297C0
:1027A000809135049091360420913704309138049B
:1027B0008217930719F061E00E943A128091370462
:1027C0009091380420913504309136042817390748
:1027D00019F061E00E943A12FFB6F8948091E60386
:1027E000811127C0EDE7F5E08491E1E9F5E09491EE
:1027F000E82FF0E0EE0FFF1FEF5BFA4FA591B491C9
:10280000EC91E92321F461E08AE00E940A1261E080
:102810008AE00E943A128CB580618CBD8CB58064D0
:102820008CBD61E08DE00E943A1261E08BE00E9475
:102830003A128091E6038F5F8093E603FFBE60E06B
:1028400085E394E00E94150461E085E394E00E9432
:10285000210465E070E080E090E00E94A6124CE068
:1028600060E085E394E00E94C30A4FE564E085E3FD
:1028700094E00E94C30A82E090E00E94A5118823A0
:1028800019F081E080933B0466E085E394E00E94C8
:102890001E0BF82E80E090E00E94A51185E394E0E5
:1028A0000E943C0480E50E943F0483E70E943F04AD
:1028B00085E394E00E94390440E06DE185E394E013
:1028C0000E94C30A40E06CE185E394E00E94C30AE1
:1028D00010923D0440E767E085E394E00E94C30A5C
:1028E0004CE465E085E394E00E94C30A85E394E04C
:1028F0000E943C0482EE0E943F0485E394E00E9423
:10290000390485E394E00E94B10A85E394E00E94D3
:102910003E0B60E085E394E00E941E0B482F4E7F43
:1029200060E085E394E00E94C30A8FEF8F0D8E3F35
:1029300008F0ACC04AEF64E085E394E00E94C30A6B
:1029400040E06DE185E394E00E94C30A40E06CE161
:1029500085E394E00E94C30A10923D0480E18093D5
:102960003C04FF24F3946D96FFAE6D976E961FAEF8
:102970006E976F961FAE6F97A0961FAEA097A19609
:102980001FAEA197A2961FAEA297A3961FAEA397C4
:10299000A4961FAEA49720914304AE01445A5F4F02
:1029A0006AE085E394E00E94E70A20914304AE01C7
:1029B000445A5F4F60E185E394E00E94E70A40914A
:1029C0003C0461E185E394E00E94C30A82E06596DD
:1029D0008FAF659766961FAE669767961FAE67972F
:1029E00068961FAE689769961FAE69976A961FAE84
:1029F0006A976B961FAE6B976C961FAE6C97EFEC59
:102A0000F1E0649120914304AE014C5A5F4F85E39D
:102A100094E00E94E70AE9ECF1E0649140913C0403
:102A200085E394E00E94C30A62E085E394E00E949B
:102A30001E0BE3ECF1E0E49141E050E001C0440FF3
:102A4000EA95EAF7482B62E085E394E00E94C30A26
:102A500066E085E394E00E941E0B887F482F436068
:102A600066E085E394E00E94C30A82E090E00E9461
:102A7000A51185E394E00E94570BF801F28660EE01
:102A800071E08DE794E00E94F10D09C064ED71E002
:102A90008DE794E00E94F10DD8011A961C92C801AE
:102AA0000E94EB0FE0911B04F0911C04309721F081
:102AB00089E194E092878187E0911D04F0911E04E2
:102AC000309721F087E194E094878387E0911F0499
:102AD000F0912004309759F0EA58FF4F808191819E
:102AE0008751944021F087E194E09183808361E0F5
:102AF00085E00E940A1261E087E00E940A1261E00C
:102B000086E00E940A126AEF70E080E090E00E9486
:102B1000A61260E085E00E940A1260E087E00E9451
:102B20000A1260E086E00E940A126EEF71E08DE703
:102B300094E00E945B0D8091A1059091A205FE0199
:102B400031961F01BF01681B790B8DE794E00E944D
:102B50006E1168EF71E08DE794E00E94F10D6CEE6C
:102B600071E08DE794E00E945B0D8091A10590914A
:102B7000A205B101681B790B8DE794E00E946E11EC
:102B80008E010F5C1F4F0E94E012C0901104D09084
:102B90001204E0901304F0901404DC01CB018C19B2
:102BA0009D09AE09BF09803D9740A105B10554F0CC
:102BB0000E94E01260931104709312048093130436
:102BC00090931404E0901D04F0901E04D7011A960F
:102BD0008C911A97882309F4C5C067E112968D91EC
:102BE0009C9113970E941E0B80FFDDC63EC0C6015C
:102BF0000E94390440E767E0C6010E94C30AC7018A
:102C00000E94EB0F84E0F7018187848181111BC052
:102C100081E08483AC968FAFAC9780E491E09AAB6F
:102C200089ABFCAAEBAA8AE590E09EAB8DAB18AE0F
:102C30001FAA2BE630E02C0F3D1F3AAF29AFB80199
:102C4000C7010E94AB0F80E491E09AAB89ABFCAA6C
:102C5000EBAA8BE590E09EAB8DAB18AE1FAA3AAE07
:102C600029AEB801C7010E94AB0F0E94E012D70144
:102C700015968D909D90AD90BC9018971A962C91BA
:102C80001A97222309F46EC09B01AC012819390957
:102C90004A095B0949015A0119968C91811102C0B8
:102CA00060E01CC0813091F4253F31404105510561
:102CB00008F447C061E0C7010E94C910C7010E9423
:102CC000EB0FF70181858F5F81873BC0823051F424
:102CD000253F314041055105A0F162E0C7010E9446
:102CE000C91025C0833069F5253F314041055105A4
:102CF00040F1F70184818823D1F01482AB961FAE96
:102D0000AB9780E491E09A838983FC82EB828AE529
:102D100090E09E838D8318861F822AE630E02C0F78
:102D20003D1F3A872987B101C7010E94AB0FC70138
:102D30000E94EB0FD70119968C9119978F5F199606
:102D40008C93F7018185843069F4F1E48F16FFE1FB
:102D50009F06A104B10430F0D70119961C92C70157
:102D60000E94EB0F80901F0490902004F401828158
:102D70009381DC01ED91FC910084F185E02D0995B2
:102D8000892B09F463C394012C583F4FAE963FAF93
:102D90002EAFAE97340134E2630E711CD40112964B
:102DA0008D919C911397DC01ED91FC910084F1854C
:102DB000E02D0995181619060CF048C3F401E280BD
:102DC000F3805101C12CD12C0E94E012D70118963A
:102DD0006D937D938D939C931B97D701ED91FC91FF
:102DE0000284F385E02DC701099597FD04C08A3060
:102DF0009105C1F421C00E94E012F70120853185C0
:102E000042855385DC01CB01821B930BA40BB50BD0
:102E1000248135814681578182179307A407B5071E
:102E2000E0F20AC0D5018D935D01BFEFCB1ADB0A3A
:102E3000E0E3CE16D10441F6CD2809F4AFCFB101BD
:102E4000CE018C599F4F0E94080DA696CEACDFACE8
:102E5000A697C114D10409F448C0AA96EEACFFAC01
:102E6000AA97E114F10409F440C026015201FFEFD2
:102E70004F1A5F0AD5018C91082E000C990B0E9405
:102E8000942A892B99F7B1E0EB1AF108EC0CFD1CA0
:102E9000D7018C91082E000C990B0E94942A892B43
:102EA00091F4BFEFEB1AFB0AA7014A195B09AA9636
:102EB0005FAF4EAFAA97CA14DB0460F4B501C60138
:102EC0000E94A02E07C0EA14FB0458F3E1E0EE1ABA
:102ED000F108DECFA696EEADFFADA697AA968EAD11
:102EE0009FADAA97E80FF91F1082AA968EAD9FADED
:102EF000AA97892B09F49FC263E272E08DE794E000
:102F00000E945B0DA6966EAD7FADA6978DE794E00F
:102F10000E94DD0DD4015796EC918E2F90E08931FF
:102F2000910508F09FC1FC01EC5CFF4F0C94B72D9C
:102F30006DEF72E0C8010E94080DB801CE018C59F6
:102F40009F4F0E94D30C7C01C8010E94030DEF2803
:102F500009F071C261E013C06DEF72E0C8010E9418
:102F6000080DB801CE018C599F4F0E94D30C7C01F3
:102F7000C8010E94030DEF2809F05DC264E0C4019E
:102F80000E942C0958C26DEF72E0C8010E94080D22
:102F9000B801CE018C599F4F0E94D30C7C01C8010F
:102FA0000E94030DEF2869F4F401818D8F3411F430
:102FB0006EE001C06AE0C4010E942C09D401599658
:102FC0001C9268EA72E0C8010E94080DB801CE01A7
:102FD0008C599F4F0E94B90C7C01C8010E94030DBF
:102FE000F7FC1BC060EB72E0C8010E94080DB8013D
:102FF000CE018C599F4F0E94B90C7C01C8010E94E0
:10300000030D1E141F0424F48FE4F401818F13C2F6
:1030100086E4D40159968C930EC261EC72E0C8012B
:103020000E94080DB801CE018C599F4F0E94B90C27
:103030007C01C8010E94030DF7FCFDC16AE0C401D8
:103040000E942C09C4010E94070AF5C16DEF72E0CD
:10305000C8010E94080DB801CE018C599F4F0E94F3
:10306000D30C892B31F4FF24F394F401818D89343E
:1030700009F0F12CC8010E94030DFF2041F06EE021
:10308000C4010E942C09D40159961C9215C063EE0C
:1030900072E0C8010E94080DB801CE018C599F4F03
:1030A0000E94B90C7C01C8010E94030DF7FC04C00A
:1030B0006DE0C4010E942C0961EA72E0C8010E941F
:1030C000080DB801CE018C599F4F0E94B90C7C01AC
:1030D000C8010E94030DF7FCAEC129E4F401218F61
:1030E000AAC161EA72E0C8010E94080DB801CE01D0
:1030F0008C599F4F0E94B90C7C01C8010E94030D9E
:10310000F7FC99C16EE03BCFD40159968C9189317F
:1031100099F46DEF72E0C8010E94080DB801CE016C
:103120008C599F4F0E94D30C7C01C8010E94030D53
:10313000EF2811F468E112C068EC72E0C8010E9447
:10314000080DB801CE018C599F4F0E94D30C7C0111
:10315000C8010E94030DEF2829F464E1C4010E9414
:103160002C093DC06FEC72E0C8010E94080DB80147
:10317000CE018C599F4F0E94B90C7C01C8010E945E
:10318000030DF7FC04C088E1F401818F28C063EDD2
:1031900072E0C8010E94080DB801CE018C599F4F02
:1031A0000E94D30C7C01C8010E94030DEF2811F48A
:1031B000E9E112C06BED72E0C8010E94080DB80190
:1031C000CE018C599F4F0E94B90C7C01C8010E940E
:1031D000030DF7FC04C0EAE1D4015996EC9368EEC4
:1031E00072E0C8010E94080D4DA95EA9AA968EAD95
:1031F0009FADAA978417950788F0A6968EAD9FADD0
:10320000A697009759F069A97AA96115710531F05F
:103210000E94B92EFF24F394892B09F0F12CC801E8
:103220000E94030DFF20F1F0D40159968C91883152
:1032300011F468E114C067E112C068EC72E0C801E3
:103240000E94080DB801CE018C599F4F0E94D30CEB
:103250007C01C8010E94030DEF2821F464E1C40140
:103260000E942C09F40187898E3028F161EA72E00E
:10327000C8010E94080DB801CE018C599F4F0E94D1
:10328000D30C7C01C8010E94030DEF28A1F46EE06D
:10329000C4010E942C09EAEFF0E0D4019396FC935C
:1032A000EE9392970E94E012D4015A966D937D930B
:1032B0008D939C935D976CEE72E0C8010E94080D9F
:1032C000B801CE018C599F4F0E94B90C7C01C801F6
:1032D0000E94030DF7FC04C06AE0C4010E942C099F
:1032E000F401808D833308F487C0863309F449C024
:1032F000873309F459C0853309F07EC066EF72E068
:10330000C8010E94080DB801CE018C599F4F0E9440
:10331000B90C7C01C8010E94030DF7FC6DC066E387
:10332000C4010E94A808AE96AEADBFADAE978D9118
:103330009C91892B89F068E172E08DE794E00E940E
:10334000F10DB3018DE794E00E94DD0DB301F401AE
:10335000828193810E947F0DD40194961C926AE031
:1033600072E08DE794E00E945B0D8091A105909141
:10337000A205B801681B790B8DE794E00E946E11DD
:103380003BC068EF72E0C8010E94080DB801CE0191
:103390008C599F4F0E94D30C7C01C8010E94030DE1
:1033A000EF2851F567E325C060E073E0C8010E9493
:1033B000080DB801CE018C599F4F0E94B90C7C01B9
:1033C000C8010E94030DF7FC02C068E312C068E068
:1033D00073E0C8010E94080DB801CE018C599F4FBF
:1033E0000E94B90C7C01C8010E94030DF7FC04C0C7
:1033F00069E3C4010E94A8086FE073E0C8010E945D
:10340000080DB801CE018C599F4F0E94B90C7C0168
:10341000C8010E94030DF7FC0EC020ED37E0F40157
:1034200033A322A30E94E012D4015A966D937D9398
:103430008D939C935D9780E3F10111928A95E9F752
:10344000CE018C599F4F0E94030DA8CCF4018689B0
:10345000882309F481C282A193A1892B21F10E94C2
:10346000E012D4015A96CD90DD90ED90FC905D97DE
:10347000AB01BC014C195D096E097F0992968D91D3
:103480009C919397A0E0B0E084179507A607B70733
:1034900008F062C20E94E012F401628F738F848F81
:1034A000958F13A212A2D4015796EC918E2F90E023
:1034B0008931910508F007C1FC01E35BFF4F0C94D3
:1034C000B72DC4010E944E0AFEC00E94E012F40112
:1034D000C28CD38CE48CF58CDC01CB018C199D095A
:1034E000AE09BF09813A9F40A105B10508F4EBC0C0
:1034F00063E082C00E94E012F401C28CD38CE48CA1
:10350000F58CDC01CB018C199D09AE09BF09813A0C
:103510009F40A105B10508F4D6C0C4010E944E0A1F
:10352000C9C00E94E012F401C28CD38CE48CF58CEB
:10353000DC01CB018C199D09AE09BF0981349F4183
:10354000A105B10508F4BFC0C4010E94070AB2C0BA
:103550000E94E012F401C28CD38CE48CF58CDC0167
:10356000CB018C199D09AE09BF0989389341A1058A
:10357000B10508F4A8C09EC00E94E012F401C28CFC
:10358000D38CE48CF58CDC01CB018C199D09AE0940
:10359000BF0980389E43A105B10508F494C06DE0D1
:1035A0002BC00E94E0128FC00E94E012F401C28C76
:1035B000D38CE48CF58CDC01CB018C199D09AE0910
:1035C000BF0980339547A105B10508F47CC06FC0E1
:1035D0000E94E012F401C28CD38CE48CF58CDC01E7
:1035E000CB018C199D09AE09BF0980319742A10515
:1035F000B10508F468C067E1C4010E942C095AC0F3
:103600000E94E012F401C68CD78CE0A0F1A0DC018E
:10361000CB018C199D09AE09BF0980339547A105DF
:10362000B10508F450C0C4010E94C3090E94E01211
:10363000D4015E966D937D938D939C93919743C037
:103640000E94E012F401C68CD78CE0A0F1A0DC014E
:10365000CB018C199D09AE09BF0980319742A105A4
:10366000B10588F167E672E0D40112968D919C91C4
:1036700013970E94F10D0E94E012F401668F778F7C
:1036800080A391A320C00E94E012D4015A96CD904D
:10369000DD90ED90FC905D97DC01CB018C199D09CC
:1036A000AE09BF0980339547A105B10560F0C4019B
:1036B0000E94AE090E94E012D4015A966D937D9348
:1036C0008D939C935D97F401808D853309F4EAC056
:1036D00018F4833341F040C1863309F4F9C08733CD
:1036E00009F416C139C1D4018481882309F434C195
:1036F0008789883109F0CCC08589F401E80FF11D74
:10370000E80FF11DC580D680C114D10409F4B8C0FA
:10371000AC58BF4F1196DC92CE92F401B496EE2EC7
:10372000BF2E80E38193EA17FB07E1F7D601ED9105
:10373000FC910680F781E02DB101C6010995A82E04
:10374000D601ED91FC910480F581E02DC60109952B
:10375000833048F4E82FF0E0EE0FFF1FEA5CFE4FE5
:10376000F080718002C0F12C712CCDB6DEB6EDB7C1
:10377000FEB7E055F1090FB6F894FEBF0FBEEDBFDE
:103780008DB79EB70196E5E3F2E0659174910E94D2
:10379000F72683E2ECE2F3E0D80101900D928A95DE
:1037A000E1F73F922F921F92AF9284E193E09F93B3
:1037B0008F933F922F927F92FF9281E293E09F93AB
:1037C0008F931F930F931F9280E58F93BF92EF9279
:1037D0000E94E12E482EF401ED58FF4F10820FB6E3
:1037E000F894DEBE0FBECDBE6DE572E08DE794E0CD
:1037F0000E94F10D61E572E08DE794E00E945B0D9F
:10380000512C612C712C2AE0B301A2018DE794E0C8
:103810000E94940D6CE473E08DE794E00E947F0DAC
:103820006AE070E080E090E00E94A61265E472E039
:10383000D40112968D919C9113970E945B0DF40117
:10384000E280F3802AE0B301A201C7010E94940D37
:103850006CE473E0C7010E947F0D67E372E08DE7BF
:1038600094E00E94F10D65E3C4010E94A8080E9443
:10387000E012D4015E966D937D938D939C93919706
:103880000E94E012F401668F778F80A391A364C039
:10389000873109F461C08E3008F45EC0C4010E9413
:1038A000C3095AC00E94E012D4015E96CD90DD900B
:1038B000ED90FC909197DC01CB018C199D09AE092C
:1038C000BF0989399A43A105B10508F445C012C062
:1038D0000E94E012F401C68CD78CE0A0F1A0DC01BC
:1038E000CB018C199D09AE09BF0989399A43A105FD
:1038F000B10590F163E3C4010E94A8080E94E012A0
:10390000D4015E966D937D938D939C93919724C083
:103910000E94E012F401C68CD78CE0A0F1A0DC017B
:10392000CB018C199D09AE09BF0981319742A105D0
:10393000B10590F069E3C4010E94A80888EE93E005
:10394000D40193969C938E9392970E94E012F40177
:10395000628F738F848F958FE0901B04F0901C040E
:10396000D70112962C9130E0F901E55BFA4F849172
:10397000F901E957FA4FD490F901ED58FA4FC49084
:10398000CC2009F45BC081110E94E111EC2DF0E024
:10399000EE0FFF1FE759FA4FA591B491EC91DE228B
:1039A00009F44CC02FC0D7011296CD90DC9013972C
:1039B000F6018781803120F150E1852EF601908556
:1039C000911103C0982E981801C0912CC6010E9435
:1039D0003C0481E60E943F0451018A94BFEF8B169C
:1039E00039F08FEF0E943F04D5018D935D01F5CF33
:1039F000992009F4FCC88FEF0E943F049A94F8CFF5
:103A0000882EDCCFD70117968D919C91189701973E
:103A100071F10E94E012D70113968D909D90AD90A8
:103A2000BC901697DC01CB0188199909AA09BB093A
:103A3000C397A105B10508F01CC119C0F701878122
:103A40009085009709F0F6C00E94E012F70183808C
:103A50009480A580B680DC01CB0188199909AA0958
:103A6000BB09883E9340A105B10508F0D1C0809103
:103A70002F04811194C00E94E012C0903004D090B5
:103A80003104E0903204F0903304DC01CB018C1956
:103A90009D09AE09BF0989389341A105B10508F414
:103AA0007EC064E872E08DE794E00E94F10D84E04E
:103AB000482E512C9EE2892E91E0992E26E1A22ECD
:103AC00021E0B22E82E090E00E94C6253C01DC019C
:103AD0008D929C9289E090E00E94C6256C01FC01C9
:103AE000B182A08221E0228380E197E2A0E0B0E0F1
:103AF00083839483A583B68320E137E230872783CD
:103B000086E090E00E94C6257C01EAE0F1E0DC015D
:103B10001196FC93EE932FE931E013963C932E938C
:103B2000129738EC14963C93149715961C92B30197
:103B300080911F04909120040E946D0AB60180912B
:103B40001F04909120040E946D0AB70180911F0408
:103B5000909120040E946D0A41E0441A510809F036
:103B6000B1CF63E772E08DE794E00E945B0D809136
:103B7000A1059091A205B101681B790B8DE794E036
:103B80000E946E110E94E012609330047093310421
:103B9000809332049093330481E080932F048091CA
:103BA0002F048130B1F40E94E012C0903004D09014
:103BB0003104E0903204F0903304DC01CB018C1925
:103BC0009D09AE09BF09813A9F40A105B10508F0E2
:103BD00075C0F0902F0482E0F81216C00E94E01227
:103BE0008090300490903104A0903204B09033045F
:103BF000DC01CB0188199909AA09BB0989399A43C3
:103C0000A105B10508F05EC00E94990C0C94C31583
:103C1000D70117968D919C911897039709F427CF98
:103C200083E090E018969C938E931797C7010E94AB
:103C30005D0E1DCF019709F01ACF0E94E012F70127
:103C400083809480A580B680DC01CB018819990916
:103C5000AA09BB09C397A105B10508F408CF87815C
:103C60009085892B19F1D70118961C921E921797EF
:103C70001AC0F70187819085892B41F482E090E09A
:103C8000F70190878783C7010E945D0ED7011796C1
:103C90008D919C911897019749F081E090E01896DA
:103CA0009C938E931797C7010E945D0E0E94E012AD
:103CB000F7016383748385839683D9CE82E08093F2
:103CC0002F0487CF0E94E012609330047093310478
:103CD0008093320490933304F0922F0495CF08958B
:103CE00008950C945B2602970C94711E04970C9413
:103CF000711E0F931F93CF93DF93CDB7DEB76197FC
:103D00000FB6F894DEBF0FBECDBFDB011296ED916A
:103D1000FC911397DC0116968D919C911797E817EB
:103D2000F90789F587819085039769F58AE693E01D
:103D30009F938F938EE693E09F938F938E010F5FF7
:103D40001F4F1F930F930E94112F0E940711B8015C
:103D50000E94F70F64E874E08DE794E00E945B0D29
:103D6000BE016F5E7F4F8091A1059091A205681BF7
:103D7000790B8DE794E00E946E110F900F900F90D9
:103D80000F900F900F9061960FB6F894DEBF0FBEA4
:103D9000CDBFDF91CF911F910F91089504970C949F
:103DA000791E2F923F924F925F926F927F928F92E5
:103DB0009F92AF92BF92CF92DF92EF92FF920F93BA
:103DC0001F93CF93DF93CDB7DEB7EE970FB6F8947E
:103DD000DEBF0FBECDBF5C01FB0162807380C4807B
:103DE000D580DC0118968D919C91199768167906FB
:103DF00009F09DC1C60199278B35910591F08C354D
:103E0000910509F094C10085118563EB72E08DE79F
:103E100094E00E945B0DB8018DE794E00E94DD0DF7
:103E200086C10085118567E972E08DE794E00E9404
:103E30005B0DB8018DE794E00E94DD0DFE01319627
:103E40007F01AF01B801CE01C4960E946E0508E063
:103E500010E018AB0FA71AAA19AA88E090E00E94F8
:103E6000C6259EA78DA719A708A71BA61AA688E393
:103E700090E00E94C6259FA38EA300914805109153
:103E80004905E0914405F0914505ACA9BDA9CF01D4
:103E9000800F911FE817F90709F4A2C131912D9104
:103EA0003217C1F34EC08CAF6BA17CA16F5F7F4F07
:103EB000AE01445C5F4FCE014F960E94C0040F5F7D
:103EC0001F4F28AD39AD8CA99DA9820F931F88166D
:103ED000990649F0D4018D914D018D3321F70115DB
:103EE000110509F08AC12BA13CA12115310529F149
:103EF0002150310941E050E0BE01615E7F4FC701B2
:103F00000E945C0F09A91AA96D817E81600F711F43
:103F1000198AAE014F5E5F4FCE018D960E94C0049C
:103F20004D815E8169817A818DA59EA5800F911F4B
:103F30000E94FF04C7010E94FA04CE014F960E941E
:103F4000FA0467E675E0CE018D960E94EA03892B9C
:103F5000C1F48AE693E09F938F938EE693E09F935C
:103F60008F93FF92EF920E94112F0E940711B701C9
:103F70000E94F70F0F900F900F900F900F900F90DF
:103F8000B7C060E675E0CE018D960E94EA03892BEA
:103F900099F56EA17FA18E01085E1F4F2FEF3FEFB5
:103FA00040E050E0C7010E942205C7010E94CF03F4
:103FB0000E94F32620E030E04AE754E40E94E02C1F
:103FC0001B012C01D5011E966D917D918D919C91C7
:103FD00051970E946D2BA20191010E94682B8823AA
:103FE00009F483C0C201B1010E94522DF501668718
:103FF0007787808B918B79C069E575E0CE018D96CE
:104000000E94EA03892B09F473C062E575E0CE01D2
:104010008D960E94EA03892B99F56EA17FA18E01EE
:10402000085E1F4F2FEF3FEF40E050E0C7010E94B6
:104030002205C7010E94CF030E94F32620E030E052
:104040004AE754E40E94E02C1B012C01D501529652
:104050006D917D918D919C9155970E946D2BA20140
:1040600091010E94682B882309F43FC0C201B1016D
:104070000E94522DF501628B738B848B958B35C01A
:104080006BE475E0CE018D960E94EA03892B81F1E5
:1040900061E975E0CE018D960E94EA03892B41F516
:1040A0006EA17FA18E01085E1F4F2FEF3FEF40E012
:1040B00050E0C7010E942205C7010E94CF030E9461
:1040C000F3261B012C019B01AC01D50156966D9185
:1040D0007D918D919C9159970E94682B882329F09E
:1040E000F501268A378A408E518EC7010E94FA0454
:1040F000E12CF12C00E010E02AA53BA58EA19FA1A8
:104100000217130750F48E0D9F1D0E94FA040F5FD3
:104110001F4FF7E0EF0EF11CEFCF0E945B26CE01A0
:104120008D960E94FA04CE01C4960E94FA04D5012D
:104130001A968D919C911B976816790609F01BC100
:10414000F601FF27EA33F10508F015C1EA59FF4FE0
:104150000C94B72D6BE774E03EC06FE674E03BC093
:104160006DE574E038C06CE474E035C064E374E07D
:1041700032C06DE174E02FC06DE074E02CC068EFD8
:1041800073E029C06EED73E026C06AEC73E023C0D3
:1041900061EB73E020C06FE973E01DC068E873E075
:1041A0001AC062E773E017C060E673E014C06DE404
:1041B00073E011C06AE373E00EC062E273E00BC00B
:1041C00060E173E008C066EF72E005C062EE72E085
:1041D00002C068EC72E08DE794E00E94F10DCBC064
:1041E000A7016EE473E0CE014F960E946E058CA885
:1041F0009DA8B2E08B0E911C64CE0F5F1F4F215023
:104200003109A801BE016C5C7F4FCE0148960E9427
:104210005C0F1E01B1E12B0E311CAE01455C5F4FFE
:1042200064E471E0C1010E946E058D899E894C8C09
:104230005D8C4816590620F488248A94982C25C051
:10424000EFEF4E1A5E0A481A590A812C912C8414F9
:10425000950491F32D893E89A401BE01685E7F4FCC
:10426000C7010E945C0FB701C1010E94EA039C01D3
:10427000C7012DAF3EAF0E94FA042DAD3EAD232BFA
:1042800021F0FFEF8F1A9F0AE2CFCE0141960E94E4
:10429000FA048920809409F456C08C8D9D8DE88D98
:1042A000F98D00E010E00817190749F021912C3230
:1042B00019F4812C912C15C00F5F1F4FF4CF0FEF15
:1042C0001FEFF7CF0F5F1F4F0217130758F5FC01C1
:1042D000E00FF11F60816C32A9F70F3F8FEF1807D5
:1042E00009F10F3F9FEF190709F440C09801281901
:1042F0003909A401BE01685E7F4FC7010E945C0FAF
:10430000B701CE0186960E94940EC7010E94FA045E
:10431000A8014F5F5F4F4A012C8D3D8D888D998D8F
:104320008A01D2CFBE01685E7F4FC7010E945C0F39
:10433000B701CE0186960E94940EC7010E94FA042E
:104340000FEF1FEFCECF28AD39AD21503109A801B5
:10435000BE016C5C7F4FC7010E945C0FB701CE01AC
:1043600086960E94940EC7010E94FA04CE014896D8
:104370000E94FA04B8CDEE960FB6F894DEBF0FBED9
:10438000CDBFDF91CF911F910F91FF90EF90DF9004
:10439000CF90BF90AF909F908F907F906F905F90E5
:1043A0004F903F902F90089502970C94D11E8F92BA
:1043B0009F92AF92BF92EF92FF920F931F93CF9372
:1043C000DF931F92CDB7DEB72DE7E22E24E0F22E69
:1043D0001092800410927F0438EE832E33E0932EE7
:1043E000A12CB12C8092810490928204A09283042B
:1043F000B092840481E891E090937E0480937D04E0
:1044000085EC90E090938A048093890484EC90E09A
:1044100090938C0480938B0480EC90E090938E04B6
:1044200080938D0481EC90E09093900480938F04AE
:1044300082EC90E0909392048093910486EC90E05B
:10444000909394048093930410929604109297048E
:104450001092980410929904AE014F5F5F4F68EB81
:1044600073E081E995E00E946E05AE014F5F5F4FFA
:104470006BEB73E08AE895E00E946E05AE014F5F3A
:104480005F4F6EEB73E083E895E00E946E05AE012E
:104490004F5F5F4F63EC73E08CE795E00E946E0521
:1044A000AE014F5F5F4F67EC73E085E795E00E94D8
:1044B0006E05AE014F5F5F4F6BEC73E08EE695E0EB
:1044C0000E946E05AE014F5F5F4F6FEC73E087E6B1
:1044D00095E00E946E05AE014F5F5F4F63ED73E0A4
:1044E00080E695E00E946E05AE014F5F5F4F67ED7D
:1044F00073E089E595E00E946E05AE014F5F5F4F66
:104500006BED73E082E595E00E946E05AE014F5FB2
:104510005F4F6FED73E08BE495E00E946E05AE0196
:104520004F5F5F4F63EE73E084E495E00E946E0599
:1045300021E230E0309332052093310510923305AB
:10454000109234051092350546E050E060E070E0CE
:1045500040933605509337056093380570933905BD
:1045600010923A0510923B0510923C0510923D05C1
:1045700010E210933E051092400510923F051092F4
:1045800043058CE195E0909342058093410581E2DB
:1045900092E090931B0580931A058BE292E0909332
:1045A0002F0580932E051092200510921F05109262
:1045B00022051092210510922405109223051092D5
:1045C00026051092250510922805109227051092B5
:1045D0002A05109229058FEF91E090931D05809395
:1045E0001C05F0922D05E0922C05E0E1E0932B05EF
:1045F00030936B0420936A0410926C0410926D0443
:1046000010926E0440936F04509370046093710491
:1046100070937204109273041092740410927504D3
:104620001092760410937704109279041092780413
:1046300010927C0410925104109252041092530470
:104640001092540425E534E030937B0420937A04DF
:1046500029EA31E03093500420934F0423EB31E0FA
:104660003093680420936704109259041092580400
:1046700010925B0410925A0410925D0410925C0434
:1046800010925F0410925E04109261041092600414
:104690001092630410926204909356048093550420
:1046A000F0926604E092650488E080936404F092DE
:1046B0004E04E0924D0460EC76E088ED96E00E94B6
:1046C000FE2689E090E090933604809335048AE0DA
:1046D00090E0909338048093370410923B04109339
:1046E0003C0410923D0485E08093430485E090E013
:1046F000A0E0B0E08093490490934A04A0934B0457
:10470000B0934C0410923E0489E792E09093160413
:104710008093150487E892E090931804809317041F
:1047200081E992E090931A04809319048BE090E061
:104730000E94C6258C018FE492E0D8018D939C9352
:10474000F801138214821582168281E090E090872E
:1047500087831286118684E0828360E00E943A1289
:1047600010931C0400931B040E94071190931E04D5
:1047700080931D0480910D0490910E04892B09F003
:1047800034C188E790E00E94C6258C0189E692E05A
:10479000D8018D939C938FE190E00E94C6257C0107
:1047A000FC011382128284829582A682B78287E5F9
:1047B00092E091838083178A168A118E108E138E51
:1047C000128E158E148E668D6E7F6D7F668F669548
:1047D000617081E0682783E00E940A1261E083E053
:1047E0000E943A12EAE8F5E0E491D7015096EC9382
:1047F000E6E7F5E0E491F0E0EE0FFF1FE15AFA4F33
:1048000085919491F701928B818B60E082E00E9408
:104810003A12D7015E968C9181FD04C061E082E07E
:104820000E940A1282E0F7018487E9E8F5E0E4914A
:10483000D7011D96EC93E5E7F5E0E491F0E0EE0F8B
:10484000FF1FE759FA4F85919491F7019787868763
:10485000D8011396FC92EE92129714961C9214971C
:1048600055961C92559756961C92569757961C92A1
:10487000579758961C92589759961C920E94E0128E
:10488000F801628F738F848F958F0E94E012D80198
:104890005E966D937D938D939C93919793961C92C6
:1048A0001E929297F801EA58FF4F11821082E15749
:1048B000F109C801459611921192E817F907D9F745
:1048C00060E0C8010E942C09D8011296ED91FC917C
:1048D0001397138E128E118E108E178A168A8DE9F9
:1048E00091E0958F848F8485863108F04DC02DEB43
:1048F00030E0378B268B2BE931E0318F208F2CE293
:1049000031E0338F228F90916800883050F021E0A1
:104910008E3008F420E081E001C0880F2A95EAF784
:1049200001C084E0892B809368009485983038F02A
:104930009E3040F0963148F020E030E008C02DE68F
:1049400030E005C02BE630E002C02CE630E0348BCE
:10495000238B983030F481E001C0880F9A95EAF7F4
:104960000EC0292F30E09E3018F42850310902C0C3
:104970002E50310981E001C0880F2A95EAF7858B16
:10498000848D958D0197F1F7828D938D892B49F157
:1049900040910B0450910C044E175F0711F1411523
:1049A000510571F0DA0153962D913C915497D9013C
:1049B0009C91DA0155968C9180958923D9018C932D
:1049C000868D8E7F868F10920A0410920904F093D0
:1049D0000C04E0930B04A389B4899C918589892BED
:1049E0008C9310930E0400930D0480910D0490910C
:1049F0000E049093200480931F0480910F049091E3
:104A00001004892B09F042C082E090E00E94C62584
:104A1000FC0181E792E091838083A0918D04B091A5
:104A20008E0482E08C93A0918904B0918A041C9238
:104A3000A0918B04B0918C048FEC8C931092950410
:104A4000A0919104B091920486E08C93A0918F0480
:104A5000B09190049C9190619C93A0918F04B0912F
:104A600090049C9198609C93A0918F04B0919004C5
:104A70009C9190689C93A0918F04B09190049C911C
:104A80009F7D9C93F0931004E0930F0480910F049A
:104A90009091100490932204809321041092230497
:104AA00010922404109225041092260410922704D8
:104AB000109228041092290410922A0410922B04B8
:104AC00010922C0410922D0410922E0410922F0498
:104AD0000E94E0126093300470933104809332049A
:104AE00090933304109234040E94E01260931104F6
:104AF0007093120480931304909314040F90DF9129
:104B0000CF911F910F91FF90EF90BF90AF909F902A
:104B10008F90089585E194E00E94A4038FE494E0CF
:104B20000E9426078AE195E00E94740784E495E0DC
:104B30000E94FA048BE495E00E94FA0482E595E075
:104B40000E94FA0489E595E00E94FA0480E695E067
:104B50000E94FA0487E695E00E94FA048EE695E04A
:104B60000E94FA0485E795E00E94FA048CE795E03C
:104B70000E94FA0483E895E00E94FA048AE895E02E
:104B80000E94FA0481E995E00C94FA04CF93DF9334
:104B90008230910510F482E090E0E091A305F0915D
:104BA000A40520E030E0C0E0D0E0309711F1408172
:104BB000518148175907C0F04817590761F482819D
:104BC0009381209719F09B838A832BC09093A4052F
:104BD0008093A30526C02115310519F0421753070C
:104BE00018F49A01BE01DF01EF010280F381E02D8C
:104BF000DCCF2115310509F1281B390B2430310593
:104C000090F412968D919C9113976115710521F086
:104C1000FB019383828304C09093A4058093A30532
:104C2000FD01329644C0FD01E20FF31F8193919381
:104C3000225031092D933C933AC02091A105309127
:104C4000A205232B41F420910201309103013093FE
:104C5000A2052093A10520910001309101012115A9
:104C6000310541F42DB73EB7409104015091050143
:104C7000241B350BE091A105F091A205E217F30783
:104C8000A0F42E1B3F0B2817390778F0AC014E5FBC
:104C90005F4F2417350748F04E0F5F1F5093A20552
:104CA0004093A1058193919302C0E0E0F0E0CF0131
:104CB000DF91CF9108950F931F93CF93DF930097C8
:104CC00009F48CC0FC013297138212820091A30573
:104CD0001091A4050115110581F420813181820F05
:104CE000931F2091A1053091A2052817390779F566
:104CF000F093A205E093A10571C0D80140E050E017
:104D0000AE17BF0750F412962D913C911397AD0149
:104D10002115310509F1D901F3CF9D01DA01338362
:104D2000228360817181860F971F8217930769F430
:104D3000EC0128813981260F371F2E5F3F4F3183C9
:104D400020838A819B8193838283452B29F4F0936E
:104D5000A405E093A30542C01396FC93EE9312972B
:104D6000ED01499159919E01240F351FE217F30778
:104D700071F480819181840F951F029611969C9306
:104D80008E938281938113969C938E931297E0E089
:104D9000F0E0D80112968D919C911397009719F02D
:104DA000F8018C01F6CF8D919C9198012E5F3F4FB9
:104DB000820F931F2091A1053091A2052817390772
:104DC00069F4309729F41092A4051092A30502C04B
:104DD000138212821093A2050093A105DF91CF9157
:104DE0001F910F910895662777270C943729FB01AF
:104DF000DC0105900D920020E1F708950F931F93B9
:104E0000CF93DF93009731F46115710519F480E0B9
:104E100090E03AC08B01EC016EE070E081E090E040
:104E20000E941B29FC01892B91F380E883830115E3
:104E3000110571F01387028781E883838091A505AE
:104E40009091A605892B21F4F093A605E093A50582
:104E50002097C9F0D187C087838182608383809146
:104E6000A7059091A805892B71F4F093A805E0930C
:104E7000A7058091A9059091AA05892B21F4F093AB
:104E8000AA05E093A905CF01DF91CF911F910F9162
:104E90000895ACE0B0E0EFE4F7E20C949A2C7C01CA
:104EA0006B018A01FC0117821682838181FFBDC1DB
:104EB000CE0101964C01F7019381F60193FD859196
:104EC00093FF81916F01882309F4ABC1853239F4D6
:104ED00093FD859193FF81916F01853229F4B7018C
:104EE00090E00E94D22AE7CF512C312C20E02032D2
:104EF000A0F48B3269F030F4803259F0833269F4D7
:104F000020612CC08D3239F0803339F4216026C005
:104F10002260246023C0286021C027FD27C030ED17
:104F2000380F3A3078F426FF06C0FAE05F9E300D65
:104F30001124532E13C08AE0389E300D1124332ED5
:104F400020620CC08E3221F426FD6BC1206406C0A5
:104F50008C3611F4206802C0883641F4F60193FDC6
:104F6000859193FF81916F018111C1CF982F9F7D12
:104F70009554933028F40C5F1F4FFFE3F9830DC065
:104F8000833631F0833771F0833509F05BC022C07E
:104F9000F801808189830E5F1F4F44244394512C74
:104FA000540115C03801F2E06F0E711CF801A080A9
:104FB000B18026FF03C0652D70E002C06FEF7FEF68
:104FC000C5012C870E94C72A2C0183012C852F77CD
:104FD000222E17C03801F2E06F0E711CF801A0807C
:104FE000B18026FF03C0652D70E002C06FEF7FEF38
:104FF000C5012C870E94B52A2C012C852068222E01
:10500000830123FC1BC0832D90E048165906B0F4A1
:10501000B70180E290E00E94D22A3A94F4CFF501E1
:1050200027FC859127FE81915F01B70190E00E94E6
:10503000D22A31103A94F1E04F1A51084114510428
:1050400071F7E5C0843611F0893639F5F80127FF8C
:1050500007C060817181828193810C5F1F4F08C0FE
:1050600060817181072E000C880B990B0E5F1F4F1A
:105070002F76722E97FF09C0909580957095619557
:105080007F4F8F4F9F4F2068722E2AE030E0A4019F
:105090000E940A2BA82EA81844C0853729F42F7E19
:1050A000B22E2AE030E025C0F22FF97FBF2E8F36D6
:1050B000C1F018F4883579F0B4C0803719F088371A
:1050C00021F0AFC02F2F2061B22EB4FE0DC08B2D6A
:1050D0008460B82E09C024FF0AC09F2F9660B92EA5
:1050E00006C028E030E005C020E130E002C020E149
:1050F00032E0F801B7FE07C060817181828193813F
:105100000C5F1F4F06C06081718180E090E00E5FF0
:105110001F4FA4010E940A2BA82EA818FB2DFF7771
:105120007F2E76FE0BC0372D3E7FA51450F474FE03
:105130000AC072FC08C0372D3E7E05C0BA2C372D40
:1051400003C0BA2C01C0B52C34FF0DC0FE01EA0D1E
:10515000F11D8081803311F4397E09C032FF06C011
:10516000B394B39404C0832F867809F0B39433FDCD
:1051700013C030FF06C05A2CB31418F4530C5B183C
:10518000B32CB31468F4B70180E290E03C870E942E
:10519000D22AB3943C85F5CFB31410F43B1801C068
:1051A000312C34FF12C0B70180E390E03C870E94AD
:1051B000D22A3C8532FF17C031FD03C088E790E05A
:1051C00002C088E590E0B7010CC0832F867859F0C3
:1051D00031FF02C08BE201C080E237FD8DE2B701F2
:1051E00090E00E94D22AA51438F4B70180E390E041
:1051F0000E94D22A5A94F7CFAA94F401EA0DF11D25
:105200008081B70190E00E94D22AA110F5CF33200F
:1052100009F451CEB70180E290E00E94D22A3A947C
:10522000F6CFF7018681978102C08FEF9FEF2C9612
:10523000E2E10C94B62C0F931F93CF93DF93869FDC
:105240008001879F100D969F100D1124C8010E94A8
:10525000C625EC01009729F0A80160E070E00E94EB
:10526000C02ACE01DF91CF911F910F910895A0E048
:10527000B0E0EDE3F9E20C949E2CEC017B016115AA
:10528000710519F0DB018D939C938E010F5F1F4F09
:105290007880872D90E00E94942A892B11F0E801F4
:1052A000F4CFBDE27B1205C00F5F1F4F7980C1E0D4
:1052B00008C0EBE27E1204C08E010E5F1F4F7980A2
:1052C000C0E06801F1E0CF1AD10843E050E068E4A3
:1052D00071E0C6010E949D2A892BF1F4680122E049
:1052E000C20ED11C45E050E063E471E0C6010E94AB
:1052F0009D2A892B21F4680187E0C80ED11CE11496
:10530000F10419F0D701CD92DC92C111FFC060E029
:1053100070E080E89FE703C143E050E060E471E0A3
:10532000C6010E949D2A892B51F4E114F10409F46D
:10533000F2C00E5F1F4FF70111830083ECC06801BC
:1053400060E070E0CB0100E010E0F601D0EDD70D99
:10535000DA3058F52C2F2260622E2C2F2870C2FFD5
:1053600005C0211128C00F5F1F4F25C0222311F057
:1053700001501109A5E0B0E09B01AC010E948F2C07
:105380004B015C01880C991CAA1CBB1CC501B40113
:105390006D0F711D811D911D6839A9E97A078A0772
:1053A000A9E19A0740F0C66005C0DE3F51F4C3FD95
:1053B00044C0C8606C2EBFEFCB1ADB0A7080C62DCC
:1053C000C4CF2D2F2F7D2531C1F540814D3211F4F1
:1053D000C06106C04B3221F0319621E030E006C0BA
:1053E0003296D60111964C9122E030E0A0EDA40F48
:1053F000AA3018F0E21BF30B20C040E050E0403828
:10540000BCE05B075CF49A01220F331F220F331FAD
:10541000420F531F440F551F4A0F511D3196DF0194
:1054200011972C91A0EDA20FAA3048F3C4FF03C03E
:10543000519541955109040F151FC1FF07C0E11493
:10544000F10421F03197D701ED93FC930E946D2B6D
:10545000C370C33019F06B017C0106C06B017C0185
:10546000F7FAF094F7F8F09420E030E0A901C701D2
:10547000B6010E94682B882309F445C017FF06C0B7
:10548000119501951109CFE5D1E002C0C7E7D1E040
:105490005E01B8E1AB1AB1084601BE2DAF2D90E216
:1054A000E92EF12C0E151F0584F0FE012591359192
:1054B00045915491B4018B2F9A2F0E94CE2B4B0112
:1054C000B82FA92F0E191F09EDCF2497F594E79453
:1054D000CA15DB0539F76401EB2EFA2E8E2D880FE5
:1054E0008F2D881F8F3F49F020E030E0A901C701D0
:1054F000B6010E94682B811106C082E290E0909371
:10550000AC058093AB05C701B60109C060E070E04F
:1055100080E89FEF04C060E070E080EC9FE7CDB7CB
:10552000DEB7EEE00C94BA2C91110C943B2C803237
:1055300019F089508550C8F70895FB01DC014150EE
:10554000504088F08D9181341CF08B350CF4805ED6
:10555000659161341CF06B350CF4605E861B611143
:1055600071F3990B0895881BFCCFFC0105906150E5
:1055700070400110D8F7809590958E0F9F1F089569
:10558000DC0101C06D9341505040E0F70895FC01EB
:105590006150704001900110D8F7809590958E0F62
:1055A0009F1F08950F931F93CF93DF93FB012381D8
:1055B00021FD03C08FEF9FEF28C022FF16C0468158
:1055C0005781248135814217530744F4A081B1816A
:1055D0009D012F5F3F4F318320838C93268137813C
:1055E0002F5F3F4F3783268310C0EB01092F182F01
:1055F0000084F185E02D0995892BE1F68E819F814C
:1056000001969F838E83812F902FDF91CF911F91E1
:105610000F910895FA01AA27283051F1203181F124
:10562000E8946F936E7F6E5F7F4F8F4F9F4FAF4FAA
:10563000B1E03ED0B4E03CD0670F781F891F9A1FBD
:10564000A11D680F791F8A1F911DA11D6A0F711D71
:10565000811D911DA11D20D009F468943F912AE07D
:10566000269F11243019305D3193DEF6CF01089565
:10567000462F4770405D4193B3E00FD0C9F7F6CF96
:10568000462F4F70405D4A3318F0495D31FD40525E
:10569000419302D0A9F7EACFB4E0A69597958795F4
:1056A00077956795BA95C9F70097610571050895D3
:1056B0009B01AC010A2E069457954795379527957F
:1056C000BA95C9F7620F731F841F951FA01D089517
:1056D0000E94AA2B08F481E00895E89409C097FB82
:1056E0003EF490958095709561957F4F8F4F9F4FB9
:1056F0009923A9F0F92F96E9BB279395F6958795FD
:1057000077956795B795F111F8CFFAF4BB0F11F4BF
:1057100060FF1BC06F5F7F4F8F4F9F4F16C0882366
:1057200011F096E911C0772321F09EE8872F762F9C
:1057300005C0662371F096E8862F70E060E02AF0DD
:105740009A95660F771F881FDAF7880F96958795C9
:1057500097F90895990F0008550FAA0BE0E8FEEF9E
:1057600016161706E807F907C0F012161306E40725
:10577000F50798F0621B730B840B950B39F40A261E
:1057800061F0232B242B252B21F408950A2609F4FC
:10579000A140A6958FEF811D811D08950E94E12BE8
:1057A0000C94552C0E94472C38F00E944E2C20F06F
:1057B000952311F00C943E2C0C94442C11240C9441
:1057C000892C0E94662C70F3959FC1F3950F50E0D1
:1057D000551F629FF001729FBB27F00DB11D639FA3
:1057E000AA27F00DB11DAA1F649F6627B00DA11D49
:1057F000661F829F2227B00DA11D621F739FB00DEF
:10580000A11D621F839FA00D611D221F749F33275E
:10581000A00D611D231F849F600D211D822F762FF7
:105820006A2F11249F5750409AF0F1F088234AF0D4
:10583000EE0FFF1FBB1F661F771F881F9150504040
:10584000A9F79E3F510580F00C943E2C0C94892CB6
:105850005F3FE4F3983ED4F3869577956795B795C7
:10586000F795E7959F5FC1F7FE2B880F911D9695E1
:10587000879597F9089599278827089597F99F673D
:1058800080E870E060E008959FEF80EC08950024C8
:105890000A941616170618060906089500240A9495
:1058A00012161306140605060895092E0394000C1B
:1058B00011F4882352F0BB0F40F4BF2B11F460FFAA
:1058C00004C06F5F7F4F8F4F9F4F089557FD9058D3
:1058D000440F551F59F05F3F71F04795880F97FBB4
:1058E000991F61F09F3F79F087950895121613066E
:1058F0001406551FF2CF4695F1DF08C0161617069D
:105900001806991FF1CF86957105610508940895D1
:10591000E894BB2766277727CB0197F908950E9463
:10592000D12CA59F900DB49F900DA49F800D911D2B
:10593000112408952F923F924F925F926F927F921F
:105940008F929F92AF92BF92CF92DF92EF92FF928F
:105950000F931F93CF93DF93CDB7DEB7CA1BDB0B3B
:105960000FB6F894DEBF0FBECDBF09942A883988E0
:1059700048885F846E847D848C849B84AA84B984E7
:10598000C884DF80EE80FD800C811B81AA81B981F3
:10599000CE0FD11D0FB6F894DEBF0FBECDBFED0107
:1059A0000895A29FB001B39FC001A39F700D811DF8
:1059B0001124911DB29F700D811D1124911D089518
:1059C0000E94F42C0C94552C0E944E2C58F00E94EE
:1059D000472C40F029F45F3F29F00C943E2C5111E4
:1059E0000C94892C0C94442C0E94662C68F3992307
:1059F000B1F3552391F3951B550BBB27AA276217CB
:105A00007307840738F09F5F5F4F220F331F441FD7
:105A1000AA1FA9F335D00E2E3AF0E0E832D091500B
:105A20005040E695001CCAF72BD0FE2F29D0660FF8
:105A3000771F881FBB1F261737074807AB07B0E83B
:105A400009F0BB0B802DBF01FF2793585F4F3AF041
:105A50009E3F510578F00C943E2C0C94892C5F3FAE
:105A6000E4F3983ED4F3869577956795B795F795C7
:105A70009F5FC9F7880F911D9695879597F90895AF
:105A8000E1E0660F771F881FBB1F6217730784074B
:105A9000BA0720F0621B730B840BBA0BEE1F88F75A
:105AA000E09508950E946E2C88F09F5798F0B92FCA
:105AB0009927B751B0F0E1F0660F771F881F991F43
:105AC0001AF0BA95C9F714C0B13091F00E94882C31
:105AD000B1E008950C94882C672F782F8827B85F41
