:100000000C94D7010C94FF010C94FF010C94D30FB6
:100010000C94D30F0C94D30F0C94FF010C94FF019C
:100020000C94FF010C94FF010C94FF010C94FF0150
:100030000C94FF010C94FF010C94FF010C94FF0140
:100040000C94970A0C94FF010C9477040C945104BF
:100050000C94FF010C94FF010C94FF010C94FF0120
:100060000C94FF010C94FF012F17F217F2173317AE
:100070009517F217F217F217F217F21780174A17AF
:100080006B17EF17F217F217F217F217F217F217B2
:10009000DD179917B017C7174E414E494E495459AD
:1000A000494E46CDCCCC3D0AD7233C17B7D1387743
:1000B000CC2B329595E6241FB14F0A000020410059
:1000C00000C84200401C4620BCBE4CCA1B0E5AAEA3
:1000D000C59D7400407A10F35A00A0724E180900B2
:1000E00010A5D4E80000E87648170000E40B54029D
:1000F0000000CA9A3B000000E1F5050000809698D8
:1001000000000040420F000000A086010000001027
:100110002700000000E80300000000640000000069
:10012000000A00000000000100000000002C76D84A
:1001300088DC674F0823DFC1DFAE59E1B1B796E530
:10014000E3E453C63AE651997696E8E6C28426EB94
:10015000898C9B62ED407C6FFCEFBC9C9F40F2BAA7
:10016000A56FA5F490055A2AF75C936B6CF9676D3F
:10017000C11BFCE0E40D47FEF520E6B500D0ED9094
:100180002E0300943577050080841E080000204E61
:100190000A000000C80C333333330F986E128311FA
:1001A00041EF8D2114893BE65516CFFEE6DB18D1D1
:1001B000844B381BF77C1D901DA4BBE424203284A3
:1001C000725E228100C9F124ECA1E53D2700010205
:1001D0000304052420467265652052414D203D20D0
:1001E00000574946492053454E44205245515545F4
:1001F0005354005749464920504F535420524551BB
:1002000055455354005749464920535441525420B0
:10021000504F5354494E4700574946492053544F75
:100220005020504F5354494E470057494649205398
:10023000455256455220434F4E4E45435445440087
:10024000574946492053455256455220434F4E4E3A
:10025000454354494E470057494649205345525655
:10026000455220434845434B005749464920574C87
:10027000414E20444953434F4E4E4543544544005C
:100280005749464920574C414E20434F4E4E454317
:10029000544544005749464920574C414E20434F4E
:1002A0004E4E454354494E47005749464920574C06
:1002B000414E20434845434B005749464920574C3F
:1002C000414E20444953434F4E4E4543544544000C
:1002D0005749464920494E495449414C495A454499
:1002E000005749464920494E495449414C495A49C9
:1002F0004E47005749464920424C55444544005713
:10030000494649204F464600467265652052414D98
:10031000203D200041542B43574D4F44453D330071
:1003200047455420526571756573742074657874FF
:100330003A2000467265652052414D203D20005311
:10034000544152540053656E64696E672E2E2E0020
:100350000000000023002600290000000000240007
:1003600027002A0000000000250028002B000404BC
:10037000040404040404020202020202030303034D
:100380000303010204081020408001020408102029
:100390000102040810200000000800020100000310
:1003A00004070000000000000000F819331C1124AD
:1003B0001FBECFEFD8E0DEBFCDBF13E0A0E0B1E0BD
:1003C000E4E2F0E502C005900D92AA38B107D9F732
:1003D00025E0AAE8B3E001C01D92A435B207E1F719
:1003E00011E0C6EDD1E004C02197FE010E94DB269A
:1003F000C53DD107C9F70E94DE150C9405280C9461
:10040000000008950F931F93CF93DF93EC01CB016E
:10041000088119817B836A830E948B1C998388835E
:1004200020E030E08C819D812817390770F4E88145
:10043000F981E20FF31F309729F0D801A20FB31F03
:100440008C9180832F5F3F4FEDCFC801DF91CF911B
:100450001F910F910C94201DEF92FF920F931F9309
:10046000CF93DF93EC018C819D818617970710F560
:100470007A018B018A819B818617970740F4685F18
:100480007F4F8617970718F4CE010E9402028C81D5
:100490009D818017910758F4E881F981E80FF91FD1
:1004A000309719F0D7012C9120830196F2CF1D834C
:1004B0000C8305C06817790710F47D836C83DF9186
:1004C000CF911F910F91FF90EF900895FC018081D3
:1004D00091810C94201DCF93DF93EC0188E090E094
:1004E0009B838A831D821C820E948B1C9983888334
:1004F000DF91CF910895CF93DF93EC016C817D81E3
:100500006F5F7F4F8A819B818617970718F4CE0112
:100510000E940202E881F9818C819D81E80FF91F18
:10052000108288819981DF91CF9108950F931F9355
:10053000CF93DF93FC0104811581FB01C481D58138
:10054000AE010C171D0708F4A801FB016081718141
:10055000FC01808191810E94D427009769F481E099
:1005600090E0C017D10740F00C171D0710F080E095
:1005700090E0919581959109DF91CF911F910F9115
:1005800008950895CF92DF92EF92FF920F931F93F9
:10059000FB01DC0100E010E098016A01E12CF12C84
:1005A0000C151D052E053F0538F461916D930F5F05
:1005B0001F4F2F4F3F4FF4CF840F951F1F910F9167
:1005C000FF90EF90DF90CF9008958F929F92AF921F
:1005D000BF92CF92DF92EF92FF920F931F93CF9330
:1005E000DF931F92CDB7DEB76C015B017A01490141
:1005F000B8010E946B02D5011496ED91FC911597FC
:10060000EE15FF0510F40E94BF271982BF016E1975
:100610007F098616970608F4B401AE014F5F5F4F5D
:10062000C6010E942C02F60144815581D5016D91CD
:100630007C916E0D7F1D808191810E94C2020F907E
:10064000DF91CF911F910F91FF90EF90DF90CF90AE
:10065000BF90AF909F908F900895AF92BF92CF922E
:10066000DF92EF92FF920F931F93CF93DF931F922E
:10067000CDB7DEB76C017B01BA010E946B02E114B9
:10068000F104F1F0F70101900020E9F731978F01B3
:100690000E191F09F601A480B5801982B8016A0DF0
:1006A0007B1DAE014F5F5F4FC6010E942C02F60119
:1006B00080819181A801B7018A0D9B1D0E94C20211
:1006C0000F90DF91CF911F910F91FF90EF90DF90EE
:1006D000CF90BF90AF900895FC01538D448D252F8E
:1006E00030E0842F90E0821B930B541710F0CF96CC
:1006F000089501970895FC01918D828D981761F0FE
:10070000828DDF01A80FB11D5D968C91928D9F5F48
:100710009F73928F90E008958FEF9FEF0895FC01F3
:10072000918D828D981731F0828DE80FF11D858DA6
:1007300090E008958FEF9FEF0895FC01918D228D39
:10074000892F90E0805C9F4F821B91098F739927BE
:1007500008958DE294E00E949D0321E0892B09F425
:1007600020E0822F0895FC01848DDF01A80FB11DC8
:10077000A35ABF4F2C91848D90E001968F739927D7
:10078000848FA689B7892C93A089B1898C918064C4
:100790008C93938D848D981306C00288F389E02D85
:1007A00080818F7D80830895EF92FF920F931F9336
:1007B000CF93DF93EC0181E0888F9B8D8C8D981314
:1007C00005C0E889F989808185FD24C0F62E0B8D4E
:1007D00010E00F5F1F4F0F731127E02E8C8DE81272
:1007E0000CC00FB607FCFACFE889F989808185FF34
:1007F000F5CFCE010E94B303F1CF8B8DFE01E80F40
:10080000F11DE35AFF4FF0820B8FEA89FB8980814B
:10081000806207C0EE89FF896083E889F989808159
:100820008064808381E090E0DF91CF911F910F91F0
:10083000FF90EF900895CF93DF93EC01888D88238C
:10084000C9F0EA89FB89808185FD05C0A889B9893D
:100850008C9186FD0FC00FB607FCF5CF808185FF18
:10086000F2CFA889B9898C9185FFEDCFCE010E9486
:10087000B303E7CFDF91CF91089580E090E0892B1B
:1008800029F00E94A90381110C9400000895089595
:1008900008950C94201D0C94201D0C94201D0C9484
:1008A000201D1F920F920FB60F9211242F933F938A
:1008B0004F935F936F937F938F939F93AF93BF9368
:1008C000EF93FF938DE294E00E94B303FF91EF91C9
:1008D000BF91AF919F918F917F916F915F914F9158
:1008E0003F912F910F900FBE0F901F9018951F9260
:1008F0000F920FB60F9211242F938F939F93EF9324
:10090000FF93E0913D04F0913E048081E091430427
:10091000F091440482FD12C09081809146048F5F63
:100920008F7320914704821751F0E0914604F0E064
:10093000E35DFB4F958F8093460401C08081FF915A
:10094000EF919F918F912F910F900FBE0F901F905D
:1009500018954F925F926F927F928F929F92AF9273
:10096000BF92CF92DF92EF92FF920F931F93CF939C
:10097000DF931F92CDB7DEB77C012B01FC01848190
:1009800095816C01FFEFCF1ADF0A8C159D0508F0E9
:100990006EC0F701228133812C153D05F0F50996D3
:1009A00028173907D0F5808091809383828327E0D0
:1009B000AC01249FC001259F900D11240E948B1C27
:1009C000F701918380835401612C712CF70184819C
:1009D000958168167906F0F4F70120813181C5010F
:1009E00088199909820F931F009751F08E010F5FAC
:1009F0001F4F2FEF3FEF40E050E0B5010E94E502AE
:100A0000C5010E946602FFEF6F1A7F0A27E0A20E5F
:100A1000B11CDCCFC4010E94201DF701A480B58069
:100A200087E08A9D30018B9D700C1124812C912CC4
:100A3000F701AC14BD0408F040C020813181C4012D
:100A4000860D971D820F931F009751F08E010F5F47
:100A50001F4F2FEF3FEF40E050E0B2010E94E50250
:100A6000FFEFAF1ABF0A27E0820E911CE1CFC81634
:100A7000D90628F527E0289F3001299F700C112402
:100A80005601812C912CF7E06F0E711CF7018481C7
:100A90009581A816B90688F4C301880D991DF70140
:100AA00020813181820F931F0E946602FFEFAF1AEF
:100AB000BF0A27E0820E911CE9CFD582C4820F9035
:100AC000DF91CF911F910F91FF90EF90DF90CF902A
:100AD000BF90AF909F908F907F906F905F904F905E
:100AE0000895089508958091900390919103892B22
:100AF000C9F48DE090E00E948B1CFC0183E191E041
:100B00009183808313821282148215821682178247
:100B1000108684E08187128614861386F0939103F1
:100B2000E093900380919003909191030895CF9268
:100B3000DF92EF92FF920F931F93CF93DF9300D03A
:100B4000CDB7DEB76C01FB010481158104171507D1
:100B500010F40E94BF27041B150B2017310708F45F
:100B60008901FB01E080F180E40EF51EBE016E5F9D
:100B70007F4FC6010E946B020F3FFFEF1F0749F333
:100B8000F7018081181684F41982AE014F5F5F4F20
:100B9000B801C6010E942C02F60144815581B701BB
:100BA000808191810E94C202C6010F900F90DF9157
:100BB000CF911F910F91FF90EF90DF90CF9008950C
:100BC000CF92DF92EF92FF920F931F93CF93DF9319
:100BD0001F92CDB7DEB78C017B01FC01C480D580AC
:100BE000FB01648175816C0D7D1D1982AE014F5F23
:100BF0005F4F0E942C02F701448155816081718111
:100C0000F801808191818C0D9D1D0E94C202C80156
:100C10000F90DF91CF911F910F91FF90EF90DF9098
:100C2000CF900895AF92BF92CF92DF92EF92FF9252
:100C30000F931F93CF93DF931F92CDB7DEB77C0145
:100C40006B01FB0101900020E9F731978F01061B32
:100C5000170BFC01A480B5801982B8016A0D7B1DB9
:100C6000AE014F5F5F4F0E942C02F701808191819E
:100C7000A801B6018A0D9B1D0E94C202C7010F90F8
:100C8000DF91CF911F910F91FF90EF90DF90CF9068
:100C9000BF90AF9008950F931F93CF93DF93EB0115
:100CA00009900020E9F72197C61BD70BFC010481AE
:100CB0001581AE010C171D0708F4A801FC01808105
:100CC00091810E94D427009769F481E090E0C017D9
:100CD000D10740F00C171D0710F080E090E09195CF
:100CE00081959109DF91CF911F910F910895EF9216
:100CF000FF920F931F93CF93DF93CDB7DEB7C0540E
:100D0000D1090FB6F894DEBF0FBECDBF8C0184E7CA
:100D100092E09F938F938DE792E09F938F938EE85D
:100D200092E09F938F93CE0101967C019F938F93C6
:100D30000E94E227B701F801828193810E94AA0BE9
:100D40006CE0C8010E94BE060E945B0AF801668F33
:100D5000778F80A391A30FB6F894DEBF0FBECDBFEF
:100D6000C05CDF4F0FB6F894DEBF0FBECDBFDF9182
:100D7000CF911F910F91FF90EF9008958F929F92C6
:100D8000AF92BF92CF92DF92EF92FF920F931F9399
:100D9000CF93DF93CDB7DEB7ED970FB6F894DEBFF4
:100DA0000FBECDBFDC0158962C91261709F424C143
:100DB0007C01FC01608F5E01F5E3AF0EB11CCE013A
:100DC00001966C01BC01C5010E946B02D7015896C7
:100DD0002C91589730E09C968D919C919D9700970F
:100DE000A1F0DC01ED91FC910480F581E02D4BE157
:100DF00051E05A834983FC82EB82BE82AD82388700
:100E00002F831A861986B6010995F701808D8A30DD
:100E100019F4C7010E947706D70158968C91873143
:100E200009F0D7C0B601CE018E960E946B02A601D2
:100E300065EA72E0CE0187960E942D03A60165EB5C
:100E400072E0CE0180960E942D03AE01455F5F4F98
:100E500066EC72E0C6010E942D034701B5E28B0EDD
:100E6000911CC814D904D9F0F70181A592A5892B4A
:100E700011F012A611A66D817E811DAEAE01435CFC
:100E80005F4FC4010E942C024D815E8169817A818D
:100E9000D70195968D919C9196970E94C202C601AA
:100EA0000E94660286012FEF3FEF40E050E0BE0156
:100EB000605E7F4FCE0149960E94E5026BEC72E0C6
:100EC000CE0149960E9412062FEF3FEF40E050E01E
:100ED000BE01675E7F4FCE0142960E94E50267ED3C
:100EE00072E0CE0142960E9412062FEF3FEF40E0E3
:100EF00050E0BE016E5E7F4FCE010B960E94E50270
:100F0000BE01695D7F4FCE010B960E94E0058E0108
:100F1000045C1F4F2FEF3FEF40E050E0BE01655FE4
:100F20007F4FC6010E94E5026EED72E0C6010E948D
:100F30001206B601C4010E94E005C6010E946602C5
:100F4000CE010B960E946602CE0142960E94660276
:100F5000CE0149960E94660260E273E08DE294E061
:100F60000E94BE0B63EE72E0C6010E94E10AF70127
:100F700082819381DC01ED91FC914D815E816981DB
:100F80007A810280F381E02D0995F701C280D38038
:100F900041A552A560E070E02AE0C6010E94610B05
:100FA00060EE72E0C6010E944C0B86E6D7015696B1
:100FB0008C9389819A810E94201DCE0180960E9487
:100FC0006602CE0187960E946602CE018E960E942E
:100FD000660280ED97E0F70193A382A30E945B0A6B
:100FE000D7015E966D937D938D939C939197C501E8
:100FF0000E94660281E001C080E0ED960FB6F89491
:10100000DEBF0FBECDBFDF91CF911F910F91FF903B
:10101000EF90DF90CF90BF90AF909F908F9008950A
:10102000EF92FF920F931F93CF93DF93CDB7DEB76D
:10103000C054D1090FB6F894DEBF0FBECDBF8C01EE
:1010400085EA92E09F938F938FEE92E09F938F9328
:10105000CE0101967C019F938F930E94E227B701F6
:10106000F801828193810E94AA0B66E1C8010E9467
:10107000BE060E945B0AF801668F778F80A391A35A
:101080000F900F900F900F900F900F90C05CDF4F5C
:101090000FB6F894DEBF0FBECDBFDF91CF911F9189
:1010A0000F91FF90EF900895CF93DF93EC0164E1EF
:1010B00073E08A819B810E94BE0B0E945B0A6E8F47
:1010C0007F8F88A399A363E0CE01DF91CF910C9429
:1010D000BE06EF92FF920F931F93CF93DF931F9261
:1010E000CDB7DEB780918E0390918F03892B09F0E5
:1010F000E8C08EE290E00E948B1C8C018BE091E0B6
:10110000D8018D939C938FE190E00E948B1C7C0111
:1011100020E043E062E00E946D0FF801F382E2827A
:101120001482158A168A178A108E118E0E945B0A05
:10113000D8015A966D937D938D939C935D970E94F1
:101140005B0AF801668F778F80A391A313A212A286
:1011500014A2CE0101967C01BC01C80185960E94B3
:101160006B02D8019D961C921E929C9768E073E0DA
:101170008DE294E00E94280B8091480590914905EA
:10118000B701681B790B8DE294E00E944D10F801C5
:101190003596C801459611921192E817F907D9F7CB
:1011A000D8011296ED91FC911397138E128E118E29
:1011B000108E178A168A8DE991E0958F848F848529
:1011C000863108F04DC02DEB30E0378B268B2BE9B4
:1011D00031E0318F208F2CE231E0338F228F9091DC
:1011E0006800883050F021E08E3008F420E081E083
:1011F00001C0880F2A95EAF701C084E0892B80930B
:1012000068009485983038F09E3040F0963148F070
:1012100020E030E008C02DE630E005C02BE630E0ED
:1012200002C02CE630E0348B238B983030F481E020
:1012300001C0880F9A95EAF70EC0292F30E09E3042
:1012400018F42850310902C02E50310981E001C044
:10125000880F2A95EAF7858B848D958D0197F1F794
:10126000828D938D892B49F140918C0350918D0390
:101270004E175F0711F14115510571F0DA015396D0
:101280002D913C915497D9019C91DA0155968C91FE
:1012900080958923D9018C93868D8E7F868F1092BD
:1012A0008B0310928A03F0938D03E0938C03A38940
:1012B000B4899C918589892B8C9310938F0300931B
:1012C0008E0380918E0390918F030F90DF91CF91C9
:1012D0001F910F91FF90EF9008953FB7F894809180
:1012E000990390919A03A0919B03B0919C0326B51A
:1012F000A89B05C02F3F19F00196A11DB11D3FBF4E
:10130000BA2FA92F982F8827820F911DA11DB11DDB
:10131000BC01CD0142E0660F771F881F991F4A95D7
:10132000D1F70895CF92DF92EF92FF920F931F9320
:10133000CF93DF936C017A018B01C0E0D0E0CE1532
:10134000DF0589F0D8016D918D01D601ED91FC91F9
:101350000190F081E02DC6010995892B11F47E01E1
:1013600002C02196ECCFC701DF91CF911F910F9161
:10137000FF90EF90DF90CF9008950E94BF270F93CA
:101380001F93CF93DF93EC0188819981009729F017
:101390002A813B812617370788F48B016F5F7F4FC7
:1013A0000E94F526009761F0998388831B830A8346
:1013B0002C813D81232B11F4FC01108281E001C0BE
:1013C00080E0DF91CF911F910F910895EF92FF92EE
:1013D0000F931F93CF93DF9300D0CDB7DEB78C016F
:1013E00069831A82FC01E480F580FFEFEF1AFF0A9F
:1013F000B7010E94BF09882381F0F8012081318163
:1014000084819581BE016F5F7F4F820F931F0E9481
:10141000CD27F801F582E48281E00F900F90DF91F3
:10142000CF911F910F91FF90EF9008958230910519
:1014300038F0880F991F880F991F05970197F1F7CA
:1014400008958F929F92AF92BF92CF92DF92EF92C8
:10145000FF926B017C010E946D094B015C01C1147C
:10146000D104E104F104F1F00E946D09DC01CB012B
:1014700088199909AA09BB09883E9340A105B105BD
:1014800070F321E0C21AD108E108F10888EE880E55
:1014900083E0981EA11CB11CC114D104E104F10425
:1014A00019F7DDCFFF90EF90DF90CF90BF90AF9016
:1014B0009F908F9008952FB7F89460919503709145
:1014C000960380919703909198032FBF08950F93EF
:1014D0001F93CF93DF93EC010E945B0A68877987A3
:1014E0008A879B87E881F9810284F385E02DCE010C
:1014F000099597FF17C00E945B0A088519852A8500
:101500003B85DC01CB01801B910BA20BB30B0C8143
:101510001D812E813F8180179107A207B30710F329
:101520008FEF9FEFDF91CF911F910F9108951F9241
:101530000F920FB60F9211242F933F938F939F9387
:10154000AF93BF938091950390919603A0919703D9
:10155000B09198033091940323E0230F2D3720F4AA
:101560000196A11DB11D05C026E8230F0296A11DFD
:10157000B11D209394038093950390939603A093B9
:101580009703B09398038091990390919A03A09147
:101590009B03B0919C030196A11DB11D80939903FB
:1015A00090939A03A0939B03B0939C03BF91AF9138
:1015B0009F918F913F912F910F900FBE0F901F9091
:1015C0001895EF92FF920F931F93CF93DF93EC0147
:1015D000198218821B821A821D821C826115710574
:1015E00049F18B01FB0101900020E9F731977F0160
:1015F000E61AF70AB7010E94BF09288139818111D3
:101600000DC02115310519F0C9010E94201D198254
:1016100018821D821C821B821A820CC0FD82EC8201
:10162000B801C901DF91CF911F910F91FF90EF9009
:101630000C94CD27DF91CF911F910F91FF90EF90E8
:101640000895DC01ED91FC910190F081E02D099469
:10165000EF92FF920F931F93CF93DF938C017B0147
:10166000C0E0D0E0F701EC0FFD1F6491662361F04C
:10167000D801ED91FC910190F081E02DC801099510
:10168000892B11F02196EECFCE01DF91CF911F91E2
:101690000F91FF90EF9008956115710579F0FB01AE
:1016A00001900020E9F73197AF01461B570BDC0191
:1016B000ED91FC910280F381E02D099480E090E0AF
:1016C00008954F925F926F927F92EF92FF920F93E5
:1016D0001F93CF93DF93CDB7DEB7A1970FB6F894E2
:1016E000DEBF0FBECDBF7C01FA01CB0119A22230B3
:1016F00008F42AE08E010F5D1F4F422E512C612C01
:10170000712CBF01A30192010E94B926F901CA01FF
:10171000015011096A3014F4605D01C0695CD801A0
:101720006C93232B242B252B61F7B801C7010E9452
:101730004C0BA1960FB6F894DEBF0FBECDBFDF9164
:10174000CF911F910F91FF90EF907F906F905F90DE
:101750004F9008950F931F93CF93DF93EC010E9456
:101760004C0B8C0160EE72E0CE010E944C0B800F9E
:10177000911FDF91CF911F910F9108950F931F93A8
:10178000CF93DF93EC010E94280B8C0160EE72E096
:10179000CE010E944C0B800F911FDF91CF911F91C2
:1017A0000F910895CB0108957F928F929F92AF92EF
:1017B000BF92CF92DF92EF92FF920F931F93CF933E
:1017C000DF93EC0149015A018B01C12CD12C760128
:1017D000C814D904EA04FB0484F5F80171908F0160
:1017E0008F8580FF0BC0E881F9810084F185E02DB1
:1017F00020E144E060E070E0CE010995EB85FC85D6
:101800008D859E85E817F90738F470828B859C8555
:1018100001969C878B870BC0E881F981672D70E06A
:10182000028CF38DE02DCE010995019649F02FEF42
:10183000C21AD20AE20AF20ACBCFB401C50102C031
:10184000B601C701DF91CF911F910F91FF90EF90EB
:10185000DF90CF90BF90AF909F908F907F90089532
:10186000CF93DF93EC01E881F9810288F389E02DC1
:1018700009958F3F2FEF920731F02D813E812F5F29
:101880003F4F3E832D83DF91CF9108958FEF9FEFE0
:10189000089560E070E0CB01089580E090E0089545
:1018A000CB010895CF93DF93EC0188899989DC01FE
:1018B000ED91FC910084F185E02D0995892BA9F328
:1018C00088899989DC01ED91FC910284F385E02DF2
:1018D000DF91CF910994CF93DF93EC0188899989A7
:1018E000DC01ED91FC910084F185E02D0995892BB7
:1018F000A9F388899989DC01ED91FC910484F5852F
:10190000E02DDF91CF910994AF92BF92CF92DF92F9
:10191000EF92FF920F931F93CF93DF9300D000D0ED
:10192000CDB7DEB78C015B01C12CD12C7601F8015B
:1019300080899189DC01ED91FC910284F385E02D91
:1019400029833A834B835C83099529813A814B81B2
:101950005C818F3F71F0C216D306E406F5064CF4A5
:10196000D5018D935D01BFEFCB1ADB0AEB0AFB0AB1
:10197000DECFC701B6010F900F900F900F90DF914F
:10198000CF911F910F91FF90EF90DF90CF90BF907C
:10199000AF900895DC0150968D919C915197DC0198
:1019A000ED91FC910084F185E02D099480E090E0B8
:1019B000089580E090E0089580E090E0089580E050
:1019C00090E008950895CF93DF93C091FD03D091E7
:1019D000FE03E881F9810084F185E02DCE010995AF
:1019E000892BB9F3E881F9810284F385E02DCE01DA
:1019F000DF91CF9109941F93CF93DF93182FC0915C
:101A0000FD03D091FE038A3041F4E881F981019011
:101A1000F081E02D6DE0CE010995E881F98101901A
:101A2000F081E02D612FCE01099521E030E0019792
:101A300011F420E030E0C901DF91CF911F910895AA
:101A400020918C0330918D032817390771F4909100
:101A50008A0380918B03981741F0E0918A03F0E0AC
:101A6000E356FC4F808190E008958FEF9FEF08953B
:101A700008951F93CF93DF93DC015C962D913C91E9
:101A80005D972115310539F481E090E013969C9320
:101A90008E9312973DC05196ED91FC9152975096BE
:101AA0009C915097892F80951FB75E964C915E97B9
:101AB00041FB772770F941FD6095F89440817723C9
:101AC00011F0492B01C048234083E9012197F1F728
:101AD00048E0508160FF02C0592B01C05823508359
:101AE000E9012197F1F76695415099F7772321F0A5
:101AF00090818923808303C08081982B90831FBFAE
:101B00005C968D919C915D970197F1F721E030E013
:101B1000C901DF91CF911F91089520918C033091DD
:101B20008D032817390771F480918B0320918A0364
:101B300090E0805C9F4F821B910960E470E00E94FE
:101B4000A526089580E090E0089520918C033091BF
:101B50008D0328173907B9F490918A0380918B037C
:101B6000981789F0E0918A03F0E0E356FC4F8081FA
:101B700020918A0330E02F5F3F4F2F73332720934C
:101B80008A0390E008958FEF9FEF0895089580E015
:101B900090E008950C94201D089508950C94201D44
:101BA000DC01ED91FC91369720813181820F931FEA
:101BB0000C94CE0DFB0120813181FC013183208307
:101BC000FB0142815381F901369720813181FC016B
:101BD000E20FF31F51834083089523EA31E0FC01B3
:101BE000318320832DEA31E0318F208F63EB71E068
:101BF0000C94DA0DDC01ED91FC9136972081318156
:101C0000820F931F0C94ED0DCF93DF93EC010E9494
:101C1000ED0DCE01DF91CF910C94201DDC01ED91F3
:101C2000FC91369720813181820F931F0C94040E12
:101C30000C94201D089508950C94201DDC01ED9155
:101C4000FC91369720813181820F931F0C941C0EDA
:101C5000FB0120813181FC0131832083FB01428122
:101C60005381F901369720813181FC01E20FF31F86
:101C70005183408308952BE132E0FC0131832083BE
:101C800025E232E0358B248B6BE272E00C94280E57
:101C9000DC01ED91FC91369720813181820F931FF9
:101CA0000C943B0ECF93DF93EC010E943B0ECE01D0
:101CB000DF91CF910C94201DDC01ED91FC913697C2
:101CC00020813181820F931F0C94520E0C94201DA1
:101CD0000F931F93CF93DF938C01EB016F3F8FEF37
:101CE000780719F480E090E00FC06A3031F46DE0BD
:101CF000F801808991890E94210B6C2FF80180895D
:101D000091890E94210BCE01DF91CF911F910F91FC
:101D100008958F929F92BF92CF92DF92EF92FF929F
:101D20000F931F93CF93DF9300D000D0CDB7DEB7D2
:101D30008C014B01C12CD12C7601C216D306E406CE
:101D4000F50644F5F401B1904F01FAE0BF120EC060
:101D50006DE0F8018089918929833A834B835C8304
:101D60000E94210B5C814B813A8129816B2DF80106
:101D70008089918929833A834B835C830E94210B5C
:101D8000FFEFCF1ADF0AEF0AFF0A5C814B813A812D
:101D90002981D3CFCA01B9010F900F900F900F90F6
:101DA000DF91CF911F910F91FF90EF90DF90CF9037
:101DB000BF909F908F9008952BE031E0FC0131831C
:101DC000208385960C946602CF93DF93EC010E94EA
:101DD000DC0ECE01DF91CF910C94201D0895089563
:101DE0000895FC0120813181828193812817390770
:101DF00019F0822F0C945A110895CF93DF93EC01C0
:101E00009CB59F7D9CBD9CB5937F9CBD9CB59C7FE4
:101E10009CBD9DB591609DBD8A810E945A118C899F
:101E20009D89DF91CF910C94160A8EBD00000DB4F0
:101E300007FEFDCF8EB508951F93CF93DF93EC017E
:101E400060E00E94FD0E81EE0E94150F182F61E0E8
:101E5000CE010E94FD0E812FDF91CF911F91089539
:101E6000FF920F931F93CF93DF931F92CDB7DEB7EF
:101E70008C01F62E60E049830E94FD0E8F2D8F713C
:101E800080620E94150FF82E4981842F0E94150F41
:101E900061E0C8010E94FD0E8F2D0F90DF91CF9160
:101EA0001F910F91FF9008951F93CF93DF93EC0143
:101EB000162F60E00E94FD0E812F8F710E94150F7A
:101EC0008FEF0E94150F182F61E0CE010E94FD0ECA
:101ED000812FDF91CF911F9108950F931F93CF937F
:101EE000DF93EC01162F042F1B821A8288EE93E0F9
:101EF000A0E0B0E08C839D83AE83BF8383E291E05A
:101F0000998388831F8A1E8A198E188E1B8E1A8EBB
:101F10001D8E1C8E6E8D6E7F20FB61F96E8F669517
:101F2000617081E06827842F0E945A1161E0802F40
:101F30000E94A611402F50E0FA01EE57FC4FE491A9
:101F4000E88BFA01E259FC4FE491F0E0EE0FFF1F3D
:101F5000EC59FC4F859194919A8B898B60E0812F8D
:101F60000E94A6118E8D81FD04C061E0812F0E9428
:101F70005A111C87612F70E0FB01EE57FC4FE49172
:101F8000ED87FB01E259FC4FE491F0E0EE0FFF1FFB
:101F9000E05BFC4F859194919F878E87DF91CF9175
:101FA0001F910F9108951F920F920FB60F92112457
:101FB0002F933F934F935F936F937F938F939F9351
:101FC000AF93BF93EF93FF93E0918C03F0918D0358
:101FD000309709F451C0968DA685B785858591FF08
:101FE00004C09C91892329F447C09C91892309F05E
:101FF00043C0A389B4899C918589809589238C935A
:10200000868997890197F1F7608D718DA685B785CF
:10201000558538E020E0CB010197F1F7822F90E061
:1020200095958795282F4C91452309F020683150CC
:1020300091F7868D81FD209580918B0390E001962C
:102040008F73992730918A03381749F0A0918B0339
:10205000B0E0A356BC4F2C9380938B0303C0868DB6
:102060008160868F828D938D0197F1F7A389B48962
:102070009C918589892B8C93FF91EF91BF91AF91B2
:102080009F918F917F916F915F914F913F912F9190
:102090000F900FBE0F901F901895CF92DF92EF9286
:1020A000FF920F931F93CF93DF938C016B01770FF8
:1020B000EE08FF08F7FE12C06DE20E94210BEC0152
:1020C00044275527BA014C195D096E097F092AE09A
:1020D000C8010E94610BC80FD91F06C02AE0B701D2
:1020E000A6010E94610BEC0160EE72E0C8010E9443
:1020F0004C0B8C0F9D1FDF91CF911F910F91FF9083
:10210000EF90DF90CF9008958F929F92AF92BF9201
:10211000EF92FF920F931F93CF93DF9300D0CDB731
:10212000DEB7CB01EDB6FEB6FB0124813581235F1E
:102130003F4F6DB77EB7621B730B0FB6F8947EBF2F
:102140000FBE6DBF0DB71EB70F5F1F4F49835A8378
:102150000E947B029F938F931F9283E08F935A81FB
:102160005F9349814F938AE793E09F938F931F93E7
:102170000F930E94E227B8018DE294E00E944C0B7D
:102180000E945B0A4B015C018DB79EB70A960FB6A1
:10219000F8949EBF0FBE8DBF10E08DE294E00E94C8
:1021A0007B038534910581F011110EC00E945B0AFA
:1021B000DC01CB0188199909AA09BB0911E08897AC
:1021C000A105B10550F7E8CF61E070E080E090E054
:1021D0000E94210A0FB6F894FEBE0FBEEDBE0F900E
:1021E0000F90DF91CF911F910F91FF90EF90BF90D3
:1021F000AF909F908F900895AF92BF92CF92DF9251
:10220000EF92FF920F931F93CF93DF93CDB7DEB77B
:102210002F970FB6F894DEBF0FBECDBF6C01AE0195
:10222000415F5F4FCE0108960E942D038C859D85EE
:10223000F601248135812817390718F40FEF1FEFB5
:1022400023C0281B390BC90101967C0100E010E076
:102250000E151F0599F32C853D85A801B601CE0109
:1022600001960E949705BE016F5F7F4FCE010896D1
:102270000E9496025C01CE0101960E946602AB2884
:1022800019F00F5F1F4FE4CFCE0108960E9466023F
:10229000C8012F960FB6F894DEBF0FBECDBFDF91F9
:1022A000CF911F910F91FF90EF90DF90CF90BF9053
:1022B000AF90089590E0FC01EA56FC4F3491FC0188
:1022C000EE57FC4F2491FC01E259FC4FE491EE23C0
:1022D00009F43BC0332339F1333091F038F4313015
:1022E000A9F0323001F584B58F7D12C0373091F0FE
:1022F0003830A1F03430B9F4809180008F7D03C074
:10230000809180008F77809380000DC084B58F7797
:1023100084BD09C08091B0008F7703C08091B00068
:102320008F7D8093B000F0E0EE0FFF1FEC59FC4F63
:10233000A591B4918FB7F894EC91611103C02095E9
:102340002E2301C02E2B2C938FBF0895CF93DF93A4
:1023500090E0FC01EE57FC4F2491FC01E259FC4F48
:102360008491882361F190E0880F991FFC01E65A5F
:10237000FC4FC591D491FC01EC59FC4FA591B4914F
:10238000611109C09FB7F8948881209582238883C2
:10239000EC912E230BC0623061F49FB7F894388122
:1023A000822F809583238883EC912E2B2C939FBFC3
:1023B00006C08FB7F894E8812E2B28838FBFDF915A
:1023C000CF91089508950C94201D02970C94E31169
:1023D0002F923F924F925F926F927F928F929F9235
:1023E000AF92BF92CF92DF92EF92FF920F931F9323
:1023F000CF93DF93CDB7DEB7C054D1090FB6F894B1
:10240000DEBF0FBECDBF6C01FB01A280B380268171
:10241000378121963FAF2EAF2197DC0114968D9125
:102420009C9115979E012F5F3F4F7901A816B90621
:1024300009F097C23FAD3B3509F093C264817581C5
:10244000A701CE01C0960E942D03B701CE01899647
:102450000E946B0288E090E09DA38CA31FA21EA2A5
:1024600088E390E00E948B1C9BA38AA30091F80450
:102470001091F904E091F404F091F504A8A9B9A928
:10248000CF01800F911FE817F90709F404C33191B8
:102490002D913217C1F33BC08EAF6F8D78A16F5F66
:1024A0007F4FAE01425C5F4FCE014B960E942C02E3
:1024B0000F5F1F4F2CA93DA988A999A9820F931FCF
:1024C0008816990649F0D4018D914D018D3321F77D
:1024D0000115110509F0ECC22F8D38A12115310528
:1024E00091F02150310941E050E0BE01655E7F4F1F
:1024F000C7010E949705B701CE0189960E94E005A9
:10250000C7010E946602CE014B960E94660267E1F7
:1025100075E0CE0189960E949602892B09F039C197
:1025200081E493E4A2E5B0E08B8F9C8FAD8FBE8FEA
:10253000CE014B969F938F938BE692E09F938F9360
:10254000FF92EF920E94E2270E9473054C010F90C8
:102550000F900F900F900F900F90DC011A968C91B6
:102560001A97882309F4DEC112960D911C911397D6
:1025700060E0C8010E94F10EF801808991890E94F3
:10258000160A6DE1C8010E94540F81FF0AC0D801EC
:1025900050968D919C9151970E94160AC8010E94F5
:1025A0001C0F60E0C8010E94540F482F4E7F60E06E
:1025B000C8010E94300F62E0C8010E94540FEDEC88
:1025C000F1E0E49141E050E001C0440FEA95EAF700
:1025D000482B62E0C8010E94300FF4010281138190
:1025E000D80117968C91482E813110F090E1492E38
:1025F000F8019085911103C0582E541801C0512C38
:1026000060E0C8010E94FD0E80EA0E94150F3701AC
:102610004A94BFEF4B1631F0D3018D913D010E94DA
:10262000150FF6CF752C772029F080E00E94150F4A
:102630007A94F9CF61E0C8010E94FD0E61E0C80103
:102640000E94F10E60E0C8010E94FD0E8FEF0E9413
:10265000150F782E61E0C8010E94FD0E872D807352
:1026600089F360E0C8010E94F10E40E767E0C8010D
:102670000E94300F84FF03C0C8010E941C0F61E05C
:1026800070E080E090E00E94210AF4018385948547
:102690000097C1F0DC01ED91FC910480F581E02D03
:1026A0002BE131E03A8B298B9C8A8B8AFE8AED8A5A
:1026B0002CE530E0388F2F8B1A8E198EBE016F5E9D
:1026C0007F4F0995F4010281138160E0C8010E94E7
:1026D000540F81FD0CC0482F426060E0C8010E9489
:1026E000300F65E070E080E090E00E94210A60E039
:1026F000C8010E94540F482F416060E0C8010E9449
:10270000300F40E767E0C8010E94300F61E0C80168
:102710000E94F10ED80119968C9119978823D9F04F
:102720001E967C9060E0C8010E94FD0E8AE20E9425
:10273000150F4801B9E08B0E911C780C781431F01C
:10274000F40181914F010E94150FF8CF61E0C8019B
:102750000E94FD0E14C062E0C8010E94540FEDEC0F
:10276000F1E0E49121E030E001C0220FEA95EAF7C0
:102770002095422F482362E0C8010E94300F6DE18E
:10278000C8010E94540F81FFCDC0C8010E941C0FD8
:10279000C9C060E175E0CE0189960E949602892B3E
:1027A00009F082C06AA17BA187012FEF3FEF40E0D3
:1027B00050E0CE014B960E94E502CE014B960E945E
:1027C0007B020E94B81D20E030E04AE754E40E94FA
:1027D00004261B012C01D6011A966D907C901B9744
:1027E0009B01AC01F30165817681878190850E9410
:1027F0008C24882309F455C0D30115962D923D925F
:102800004D925C9218974E01B7E38B0E911C86E0B7
:10281000F40111928A95E9F7840122E042E0C201B5
:10282000B1010E946B1CB701CE0141960E946B0260
:1028300020E030E040E251E4C201B1010E948C246A
:1028400087FF06C06CED72E0CE0141960E94120631
:10285000B401CE0141960E94120661E772E0CE01FA
:1028600041960E9412068E01035C1F4F2FEF3FEF2F
:1028700040E050E0BE016F5E7F4FC7010E94E5025D
:1028800040E050E0B701D30112968D919C911397CF
:102890000E948410C7010E946602CE0141960E94E8
:1028A0006602CE014B963CC069E075E0CE01899688
:1028B0000E949602892BB1F162E075E0CE01899603
:1028C0000E949602892B71F16BEF74E0CE0189961C
:1028D0000E949602892B31F161E475E0CE01899660
:1028E0000E949602892BF1F46AA17BA18E010F5EF2
:1028F0001F4F2FEF3FEF40E050E0C7010E94E5027D
:10290000C7010E947B020E94B81D0E947626D60154
:102910001A96ED91FC911B97858586136587C701F3
:102920000E946602812C912C00E010E02EA13FA1B4
:102930008AA19BA10217130750F4880D991D0E94CC
:1029400066020F5F1F4FB7E08B0E911CEFCF0E9406
:10295000201DCE0189960E946602CE01C0960E947B
:102960006602F60186819781A816B90609F068C04B
:1029700021968EAD9FAD219799278D30910509F451
:102980004AC0D4F484309105E9F164F481309105B2
:1029900099F18330910599F1892B09F051C06FEFBE
:1029A00072E04AC08B30910581F194F50A9709F0E5
:1029B00047C069EB72E040C087319105A9F14CF442
:1029C0008531910559F16CF54497D1F569E672E0CE
:1029D00033C08536910559F134F48436910581F57B
:1029E00068E172E029C08636910521F187369105AC
:1029F00039F561EE71E020C063EF72E01DC061EE59
:102A000072E01AC060ED72E017C069EA72E014C0AB
:102A100064E972E011C060E872E00EC067E572E040
:102A20000BC060E472E008C06AE272E005C065E0D5
:102A300072E002C063EF71E08DE294E00E94BE0B91
:102A400063ED71E08DE294E00E94280B80914805CF
:102A500090914905B701681B790B8DE294E00E94C3
:102A60004D10C05CDF4F0FB6F894DEBF0FBECDBF78
:102A7000DF91CF911F910F91FF90EF90DF90CF905A
:102A8000BF90AF909F908F907F906F905F904F908E
:102A90003F902F900895A70162EE72E0CE014B9611
:102AA0000E942D0388A899A8F2E08F0E911C02CDF8
:102AB0000F5F1F4F21503109A801BE01605D7F4F9C
:102AC000CE0141960E94970566E071E0CE014196E5
:102AD0000E94FC10019609F456C08D899E89E989EF
:102AE000FA8900E010E00817190749F021912C320B
:102AF00019F4812C912C15C00F5F1F4FF4CF0FEFED
:102B00001FEFF7CF0F5F1F4F0217130758F5FC0198
:102B1000E00FF11F60816C32A9F70F3FEFEF1E0746
:102B200009F10F3FFFEF1F0709F440C09801281972
:102B30003909A401BE016F5E7F4FC7010E9497054E
:102B4000B701CE0182960E94A904C7010E946602C5
:102B5000A8014F5F5F4F4A012D893E8989899A8973
:102B60008A01D2CFBE016F5E7F4FC7010E949705D9
:102B7000B701CE0182960E94A904C7010E94660295
:102B80000FEF1FEFCECF2CA93DA921503109A8018D
:102B9000BE01605D7F4FC7010E949705B701CE015E
:102BA00082960E94A904C7010E946602CE01419646
:102BB0000E94660291CC02970C94E811CF93DF93A8
:102BC000CDB7DEB7AA970FB6F894DEBF0FBECDBF64
:102BD000789484B5826084BD84B5816084BD85B5F8
:102BE000826085BD85B5816085BD80916E00816004
:102BF00080936E00109281008091810082608093AA
:102C000081008091810081608093810080918000AB
:102C10008160809380008091B10084608093B100D6
:102C20008091B00081608093B00080917A008460D0
:102C300080937A0080917A00826080937A008091FC
:102C40007A00816080937A0080917A008068809316
:102C50007A001092C10061E085E00E94A61161E057
:102C600087E00E94A61161E086E00E94A611E09133
:102C70003D04F0913E0482E08083E0913904F091BC
:102C80003A041082E0913B04F0913C0480E180839F
:102C900010924504E0914104F091420486E0808363
:102CA000E0913F04F0914004808180618083E09155
:102CB0003F04F0914004808188608083E0913F046C
:102CC000F0914004808180688083E0913F04F0911E
:102CD000400480818F7D8083E091E903F091EA03D5
:102CE000309721F087EE93E094878387E091EB03A0
:102CF000F091EC03309749F084A595A5875E934049
:102D000021F087EE93E095A784A78789813011F0A1
:102D100081E0878B8689811102C081E0868B61E02A
:102D200085E00E945A1161E087E00E945A1161E03B
:102D300086E00E945A116AEF70E080E090E00E9405
:102D4000210A60E085E00E945A1160E087E00E945D
:102D50005A1160E086E00E945A110E94690890931F
:102D60009303809392036FE373E08DE294E00E94FB
:102D7000BE0B63E373E08DE294E00E94280B809128
:102D8000480590914905DE0111965D01BD01681B62
:102D9000790B8DE294E00E944D100E945B0A009135
:102DA000DF031091E0032091E1033091E203DC01A5
:102DB000CB01801B910BA20BB30B803D9740A1056B
:102DC000B10554F00E945B0A6093DF037093E00347
:102DD0008093E1039093E203E0909203F0909303D9
:102DE000D70157968C915797882309F4F9C2929688
:102DF0008D919C919397892B21F10E945B0AF70199
:102E0000068D178D20A131A1AB01BC01401B510BD8
:102E1000620B730B82A193A1A0E0B0E08417950729
:102E2000A607B70708F0DCC20E945B0AD7015E96CE
:102E30006D937D938D939C93919793961C921E9284
:102E40009297D7015896EC918E2F90E0883191059A
:102E500008F0C8C0FC01EC5CFF4F0C94DB26C701F6
:102E60000E945408BFC00E945B0AF701068D178DAF
:102E700020A131A1DC01CB01801B910BA20BB30B74
:102E8000813D9740A105B10508F4ACC0C7010E947F
:102E9000540817C00E945B0AF701068D178D20A108
:102EA00031A1DC01CB01801B910BA20BB30B813A4A
:102EB0009F40A105B10508F495C06AE0C7010E94D2
:102EC000BE060E945B0AD7015E966D937D938D933B
:102ED0009C93919787C00E945B0AF701068D178D1E
:102EE00020A131A1DC01CB01801B910BA20BB30B04
:102EF000803E9E42A105B10508F474C06AE043C05B
:102F00000E945B0AD7015E960D911D912D913C9117
:102F10009197DC01CB01801B910BA20BB30B803E80
:102F20009E42A105B10508F45DC0C7010E94770665
:102F300059C00E945B0AD7015E960D911D912D919B
:102F40003C919197DC01CB01801B910BA20BB30B41
:102F5000883B9B40A105B10508F444C064E1AECFB5
:102F60000E945B0AF701068D178D20A131A1DC01BB
:102F7000CB01801B910BA20BB30B80319742A105B3
:102F8000B10580F164E1C7010E94BE062BC00E941A
:102F90005B0AD7015E960D911D912D913C91919701
:102FA000DC01CB01801B910BA20BB30B803197424C
:102FB000A105B105B8F06BE081CF0E945B0AF70173
:102FC000068D178D20A131A1DC01CB01801B910B57
:102FD000A20BB30B803A9F40A105B10518F0C701C1
:102FE0000E941008D70156968C915697882329F095
:102FF00014968C9181110E945B0AF7018281938162
:10300000DC01ED91FC910084F185E02D0995892B7F
:1030100009F4E6C187E6482E4701B5E28B0E911C04
:1030200096E4592EF70182819381DC01ED91FC91A8
:103030000084F185E02D0995181619060CF0D0C111
:10304000F7010281138162EE72E0CE0183960E9445
:10305000E10AC8010E94670A97FD09C08A309105FC
:1030600031F0682FCE0183960E94E609F2CF6BA063
:103070007CA061147104E1F10FA118A501151105DF
:10308000B9F113016101FFEF2F1A3F0AD6018C91AC
:10309000082E000C990B0E94B823892B99F7015038
:1030A0001109060D171DF8018081082E000C990BDF
:1030B0000E94B823892B79F40F5F1F4FA8014C1988
:1030C0005D0958A74FA36C147D0458F4B601C301E1
:1030D0000E94C42706C00C151D0570F3015011098C
:1030E000E2CFEBA1FCA18FA198A5E80FF91F1082F8
:1030F0008FA198A5892B09F46EC16BA17CA1A501B4
:10310000CE0146960E942D038E01065D1F4F2FEFC4
:103110003FEF40E050E0BE016A5E7F4FCE010F9668
:103120000E94E502D70158968C918B3031F128F43A
:10313000882369F08330B1F0D0C0853109F46AC0CA
:10314000863109F49AC08C3009F0C7C04EC069E4DA
:1031500073E0CE010F960E944B06892B09F0BDC08B
:1031600061E042C169E473E0CE010F960E944B0614
:10317000892B09F0B2C064E037C169E473E0CE0185
:103180000F960E944B06892B51F4F701818D8F34E5
:1031900011F46DE001C06AE0C7010E94BE0669E05B
:1031A00073E0CE010F960E94FC10019669F06DE766
:1031B00072E0CE010F960E94FC10019611F08FE490
:1031C00058C0F701518E89C061E173E0CE010F96BE
:1031D0000E94FC10019609F480C06AE0C7010E94B9
:1031E000BE06C7010E94770678C069E473E0CE018D
:1031F0000F960E944B06892B11F46DE0F5C068E133
:1032000073E0CE010F960E94FC10019609F465C090
:103210006AE0EAC069E473E0CE010F960E944B06B3
:10322000892B91F4D70159968C918253823028F4DE
:1032300067E1C7010E94BE0607C064E1C7010E94A2
:10324000BE06C7010E9410086DE173E0CE010F9623
:103250000E944B06892B21F482E3F701818F3DC048
:1032600066E273E0CE010F960E944B06892BA9F50A
:1032700083E3D70159968C9330C069E473E0CE01A3
:103280000F960E944B06892B11F467E109C06FE28B
:1032900073E0CE010F960E944B06892B29F464E15E
:1032A000C7010E94BE060BC066E373E0CE010F9615
:1032B0000E94FC10019619F088E1F701818FD70177
:1032C00059968C91883149F46CE373E0CE010F96E6
:1032D0000E944B06892B09F086C0F7018689863645
:1032E00019F0873629F16FC062E473E0CE010F96C2
:1032F0000E944B06892B09F066C0D70156964C9266
:1033000065E473E08DE294E00E94BE0BC4010E946C
:103310007B02BC018DE294E00E94AA0BC4010E94D2
:103320007B02BC01F701828193810E944C0B4BC050
:1033300064E473E0CE010F960E944B06892B09F0DE
:1033400042C0F70182819381DC01ED91FC91008400
:10335000F185E02D0995892BB1F1D70112960D91D8
:103360001C91139762EE72E0CE014D960E94E10A25
:10337000C8010E94670A97FD06C0682FCE014D96CE
:103380000E94E609F5CF6D8D7E8DA501CE010896D0
:103390000E942D038E01075D1F4F2FEF3FEF40E08E
:1033A00050E0BE01685F7F4FC5010E94E502C50184
:1033B0000E946602CE0108960E9466028D8D9E8D47
:1033C0000E94201DBECFCE010F960E946602CE0144
:1033D00046960E9466028BA19CA10E94201D22CECF
:1033E0000E943D04DACC67E1C7010E94BE0675CF9A
:1033F0000F931F93CF93DF931F92CDB7DEB70DE2EC
:1034000014E01092300410922F0488EE93E0A0E0B4
:10341000B0E08093310490933204A0933304B093CE
:1034200034048DE591E090932E0480932D0485EC77
:1034300090E090933A048093390484EC90E0909368
:103440003C0480933B0480EC90E090933E04809396
:103450003D0481EC90E09093400480933F0482EC23
:1034600090E0909342048093410486EC90E0909326
:10347000440480934304109246041092470410922F
:10348000480410924904AE014F5F5F4F6CE473E053
:1034900081E495E00E942D03AE014F5F5F4F6FE422
:1034A00073E08AE395E00E942D03AE014F5F5F4F0A
:1034B00062E573E083E395E00E942D03AE014F5F68
:1034C0005F4F67E573E08CE295E00E942D03AE014B
:1034D0004F5F5F4F6BE573E085E295E00E942D033F
:1034E000AE014F5F5F4F6FE573E08EE195E00E94A4
:1034F0002D03AE014F5F5F4F63E673E087E195E018
:103500000E942D03AE014F5F5F4F67E673E080E1DD
:1035100095E00E942D03AE014F5F5F4F6BE673E0B5
:1035200089E095E00E942D03AE014F5F5F4F6FE68B
:1035300073E082E095E00E942D03AE014F5F5F4F84
:1035400063E773E08BEF94E00E942D03AE014F5FC1
:103550005F4F67E773E084EF94E00E942D03E1E2A0
:10356000F0E0F093E204E093E1041092E30410929F
:10357000E4041092E50446E050E060E070E040931F
:10358000E6045093E7046093E8047093E904109212
:10359000EA041092EB041092EC041092ED0420E285
:1035A0002093EE041092F0041092EF041092F304B2
:1035B0008CEC94E09093F2048093F1048BE192E020
:1035C0009093CB048093CA0485E292E09093DF0449
:1035D0008093DE041092D0041092CF041092D20493
:1035E0001092D1041092D4041092D3041092D604F5
:1035F0001092D5041092D8041092D7041092DA04D5
:103600001092D90489EF91E09093CD048093CC047B
:103610001093DD040093DC0430E13093DB04F0937D
:103620001B04E0931A0410921C0410921D041092C3
:103630001E0440931F045093200460932104709350
:103640002204109223041092240410922504109254
:103650002604209327041092290410922804109223
:103660002C04109201041092020410920304109290
:10367000040425E034E030932B0420932A0423EA49
:1036800031E0309300042093FF032DEA31E03093C2
:103690001804209317041092090410920804109241
:1036A0000B0410920A0410920D0410920C04109254
:1036B0000F0410920E041092110410921004109234
:1036C000130410921204909306048093050410933F
:1036D00016040093150488E0809314041093FE03ED
:1036E0000093FD0363EE7CE08BEF9CE00E94BC1D29
:1036F00089E592E09093E6038093E50385E692E006
:103700009093E8038093E7030E9473059093EA0384
:103710008093E9030E9469089093EC038093EB0384
:103720008091DD039091DE03892B09F042C082E095
:1037300090E00E948B1CFC0185E392E091838083E2
:10374000A0913D04B0913E0482E08C93A091390495
:10375000B0913A041C92A0913B04B0913C048FECD0
:103760008C9310924504A0914104B091420486E0EC
:103770008C93A0913F04B09140049C9190619C93E4
:10378000A0913F04B09140049C9198609C93A091BB
:103790003F04B09140049C9190689C93A0913F0499
:1037A000B09140049C919F7D9C93F093DE03E09345
:1037B000DD030091DD031091DE031093EE0300930F
:1037C000ED0380E190E00E948B1CFC018DE392E010
:1037D000918380831383028381E084831582168220
:1037E0001782108611861286138614861586168611
:1037F0001786F093F003E093EF031092F103109219
:10380000F2031092F3031092F4031092F503109256
:10381000F6031092F7031092F8031092F903109236
:10382000FA031092FB031092FC038FE190E00E94D8
:103830008B1C8C0120E043E062E00E946D0F10932E
:10384000E4030093E3030E945B0A6093DF03709339
:10385000E0038093E1039093E2030F90DF91CF9117
:103860001F910F9108958FEF93E00E94ED0D8AEC68
:1038700094E00E943B0E84EF94E00E9466028BEF7E
:1038800094E00E94660282E095E00E94660289E070
:1038900095E00E94660280E195E00E94660287E161
:1038A00095E00E9466028EE195E00E94660285E244
:1038B00095E00E9466028CE295E00E94660283E336
:1038C00095E00E9466028AE395E00E94660281E428
:1038D00095E00C946602EF920F931F93CF93DF93C2
:1038E000E80147FD02C034E001C034E1E42F440F99
:1038F000FF0BF7FF03C0F195E195F109E32E022FCD
:103900002E2FAE010E94F51FCE01DF91CF911F91A6
:103910000F91EF900895CF93DF938230910510F4CB
:1039200082E090E0E0914A05F0914B0520E030E024
:10393000C0E0D0E0309711F140815181481759071C
:10394000C0F04817590761F482819381209719F0DC
:103950009B838A832BC090934B0580934A0526C096
:103960002115310519F04217530718F49A01BE01C9
:10397000DF01EF010280F381E02DDCCF211531055D
:1039800009F1281B390B2430310590F412968D91E2
:103990009C9113976115710521F0FB01938382833C
:1039A00004C090934B0580934A05FD01329644C0B4
:1039B000FD01E20FF31F81939193225031092D9362
:1039C0003C933AC02091480530914905232B41F49E
:1039D000209102013091030130934905209348055D
:1039E00020910001309101012115310541F42DB7DD
:1039F0003EB74091040150910501241B350BE09125
:103A00004805F0914905E217F307A0F42E1B3F0B80
:103A10002817390778F0AC014E5F5F4F2417350740
:103A200048F04E0F5F1F509349054093480581931E
:103A3000919302C0E0E0F0E0CF01DF91CF910895D3
:103A40000F931F93CF93DF93009709F48CC0FC0171
:103A500032971382128200914A0510914B0501158D
:103A6000110581F420813181820F931F2091480537
:103A7000309149052817390779F5F0934905E09306
:103A8000480571C0D80140E050E0AE17BF0750F4C0
:103A900012962D913C911397AD012115310509F135
:103AA000D901F3CF9D01DA013383228360817181D3
:103AB000860F971F8217930769F4EC0128813981DB
:103AC000260F371F2E5F3F4F318320838A819B81D2
:103AD00093838283452B29F4F0934B05E0934A05A9
:103AE00042C01396FC93EE931297ED0149915991C0
:103AF0009E01240F351FE217F30771F48081918135
:103B0000840F951F029611969C938E9382819381C8
:103B100013969C938E931297E0E0F0E0D8011296F2
:103B20008D919C911397009719F0F8018C01F6CFB5
:103B30008D919C9198012E5F3F4F820F931F209192
:103B40004805309149052817390769F4309729F459
:103B500010924B0510924A0502C0138212821093F4
:103B6000490500934805DF91CF911F910F9108956A
:103B7000662777270C9483210F931F93CF93DF93AE
:103B8000009731F46115710519F480E090E03AC0B6
:103B90008B01EC016EE070E081E090E00E94D91FA3
:103BA000FC01892B91F380E883830115110571F0E5
:103BB0001387028781E8838380914C0590914D059E
:103BC000892B21F4F0934D05E0934C052097C9F023
:103BD000D187C08783818260838380914E059091D5
:103BE0004F05892B71F4F0934F05E0934E058091BA
:103BF000500590915105892B21F4F0935105E093E4
:103C00005005CF01DF91CF911F910F910895ACE046
:103C1000B0E0EDE0FEE10C94BE257C016B018A0171
:103C2000FC0117821682838181FFBDC1CE010196FE
:103C30004C01F7019381F60193FD859193FF8191EA
:103C40006F01882309F4ABC1853239F493FD859166
:103C500093FF81916F01853229F4B70190E00E94B2
:103C6000F623E7CF512C312C20E02032A0F48B3208
:103C700069F030F4803259F0833269F420612CC04D
:103C80008D3239F0803339F4216026C022602460FF
:103C900023C0286021C027FD27C030ED380F3A30FF
:103CA00078F426FF06C0FAE05F9E300D1124532EF3
:103CB00013C08AE0389E300D1124332E20620CC0D0
:103CC0008E3221F426FD6BC1206406C08C3611F4BF
:103CD000206802C0883641F4F60193FD859193FF78
:103CE00081916F018111C1CF982F9F7D95549330A1
:103CF00028F40C5F1F4FFFE3F9830DC0833631F0CA
:103D0000833771F0833509F05BC022C0F8018081F0
:103D100089830E5F1F4F44244394512C540115C0D6
:103D20003801F2E06F0E711CF801A080B18026FF0F
:103D300003C0652D70E002C06FEF7FEFC5012C87D7
:103D40000E94EB232C0183012C852F77222E17C094
:103D50003801F2E06F0E711CF801A080B18026FFDF
:103D600003C0652D70E002C06FEF7FEFC5012C87A7
:103D70000E94D9232C012C852068222E830123FC4C
:103D80001BC0832D90E048165906B0F4B70180E2BD
:103D900090E00E94F6233A94F4CFF50127FC859138
:103DA00027FE81915F01B70190E00E94F623311058
:103DB0003A94F1E04F1A51084114510471F7E5C0EB
:103DC000843611F0893639F5F80127FF07C0608184
:103DD0007181828193810C5F1F4F08C06081718166
:103DE000072E000C880B990B0E5F1F4F2F76722E3B
:103DF00097FF09C090958095709561957F4F8F4F83
:103E00009F4F2068722E2AE030E0A4010E942E24E9
:103E1000A82EA81844C0853729F42F7EB22E2AE098
:103E200030E025C0F22FF97FBF2E8F36C1F018F495
:103E3000883579F0B4C0803719F0883721F0AFC0E9
:103E40002F2F2061B22EB4FE0DC08B2D8460B82EB2
:103E500009C024FF0AC09F2F9660B92E06C028E033
:103E600030E005C020E130E002C020E132E0F8019E
:103E7000B7FE07C060817181828193810C5F1F4F03
:103E800006C06081718180E090E00E5F1F4FA40149
:103E90000E942E24A82EA818FB2DFF777F2E76FED9
:103EA0000BC0372D3E7FA51450F474FE0AC072FC7F
:103EB00008C0372D3E7E05C0BA2C372D03C0BA2C62
:103EC00001C0B52C34FF0DC0FE01EA0DF11D80814B
:103ED000803311F4397E09C032FF06C0B394B39425
:103EE00004C0832F867809F0B39433FD13C030FFEC
:103EF00006C05A2CB31418F4530C5B18B32CB3142B
:103F000068F4B70180E290E03C870E94F623B39406
:103F10003C85F5CFB31410F43B1801C0312C34FFAD
:103F200012C0B70180E390E03C870E94F6233C85F5
:103F300032FF17C031FD03C088E790E002C088E57A
:103F400090E0B7010CC0832F867859F031FF02C092
:103F50008BE201C080E237FD8DE2B70190E00E9464
:103F6000F623A51438F4B70180E390E00E94F6230D
:103F70005A94F7CFAA94F401EA0DF11D8081B7019C
:103F800090E00E94F623A110F5CF332009F451CE22
:103F9000B70180E290E00E94F6233A94F6CFF70151
:103FA0008681978102C08FEF9FEF2C96E2E10C94FF
:103FB000DA250F931F93CF93DF93869F8001879F0E
:103FC000100D969F100D1124C8010E948B1CEC014E
:103FD000009729F0A80160E070E00E94E423CE0180
:103FE000DF91CF911F910F9108954F925F926F9241
:103FF0007F929F92AF92BF92CF92DF92EF92FF9209
:104000000F931F93CF93DF93CDB7DEB729970FB6EA
:10401000F894DEBF0FBECDBF6A01122FB02E2BE386
:10402000201720F0FF24F394F00E02C0BCE3FB2E17
:104030000F2D27E0AE014F5F5F4F0E94E022AC01E1
:104040008981982F9970913031F0E1FC06C0E0FE33
:1040500006C090E205C09DE203C09BE201C090E073
:10406000EE2DE07183FF3CC0911102C083E001C0DE
:1040700084E0811718F4212F281B01C020E0E111F2
:104080000BC0F601822F30E2882319F03193815062
:10409000FBCFC20ED11C20E0992329F0D6019C93BE
:1040A000F60131966F01C6010396E2FE0AC03EE4B6
:1040B000D6013C9341E411964C93119712963C9390
:1040C00006C03EE6F601308341E641833283FC01BF
:1040D000322F40E2332309F442C041933150FACFEA
:1040E00082FF44C0911102C083E001C084E08117C7
:1040F00018F4212F281B01C020E0E1110BC0F601AC
:10410000822F30E2882319F031938150FBCFC20E09
:10411000D11C20E0992329F0D6019C93F601319619
:104120006F01C6010396E2FE0BC039E4D6013C9351
:104130003EE411963C93119736E412963C9307C0E7
:1041400039E6F60130833EE6318336E63283FC0100
:10415000322F40E2332319F041933150FBCFFC0161
:10416000E20FF11D10828EEF9FEFB7C0F1E09111C9
:1041700001C0F0E06F2F70E01416150624F49A01C8
:104180002F5F3F4F02C021E030E0260F371FBB20DA
:1041900029F06B2D70E06F5F7F4F02C060E070E030
:1041A000260F371F612F70E0261737071CF4121BEC
:1041B000212F01C020E03E2D387159F4D601322F55
:1041C00060E2332319F06D933150FBCFC20ED11C46
:1041D00020E0FF2331F0D6019C93B6016F5F7F4F43
:1041E0006B01E1110BC0F601922F30E3992319F016
:1041F00031939150FBCFC20ED11C20E09F2D940F24
:104200003A81782F7071A72E84FF03C0313309F4EF
:104210009150191624F4993018F098E001C091E0FB
:10422000E42F852F57FF02C0E0E080E06E2F782F4B
:10423000E0E0F0E0AEE29A2E3A01691A71082A0134
:10424000461A570A0B2D10E01195019511096F3F81
:104250008FEF780729F4D6019C92C60101966C0174
:104260004617570784F0661677066CF47F01E40C56
:10427000F51CA1E0B0E0AC0FBD1FEA0EFB1ED7019C
:104280001196BC9002C090E3B92E6150710931962D
:10429000C60101967C016017710724F0D601BC921B
:1042A0006C01D5CF6417750741F4363320F43533EC
:1042B00021F4A11002C081E3B82EF601B082F7010B
:1042C000822F90E2882319F091938150FBCFF70160
:1042D000E20FF11D108280E090E029960FB6F8946D
:1042E000DEBF0FBECDBFDF91CF911F910F91FF9029
:1042F000EF90DF90CF90BF90AF909F907F906F90A6
:104300005F904F900895A0E0B0E0E9E8F1E20C94EE
:10431000C225EC017B016115710519F0DB018D935C
:104320009C938E010F5F1F4F7880872D90E00E9435
:10433000B823892B11F0E801F4CFBDE27B1205C050
:104340000F5F1F4F7980C1E008C0EBE27E1204C00E
:104350008E010E5F1F4F7980C0E06801F1E0CF1A37
:10436000D10843E050E060EA70E0C6010E94C1233A
:10437000892BF1F4680122E0C20ED11C45E050E027
:104380006BE970E0C6010E94C123892B21F468010A
:1043900087E0C80ED11CE114F10419F0D701CD92C9
:1043A000DC92C111FFC060E070E080E89FE703C1CC
:1043B00043E050E068E970E0C6010E94C123892B08
:1043C00051F4E114F10409F4F2C00E5F1F4FF7013C
:1043D00011830083ECC0680160E070E0CB0100E075
:1043E00010E0F601D0EDD70DDA3058F52C2F226011
:1043F000622E2C2F2870C2FF05C0211128C00F5F2C
:104400001F4F25C0222311F001501109A5E0B0E093
:104410009B01AC010E94B3254B015C01880C991CE7
:10442000AA1CBB1CC501B4016D0F711D811D911D1E
:104430006839A9E97A078A07A9E19A0740F0C660B6
:1044400005C0DE3F51F4C3FD44C0C8606C2EBFEF11
:10445000CB1ADB0A7080C62DC4CF2D2F2F7D2531BE
:10446000C1F540814D3211F4C06106C04B3221F0DC
:10447000319621E030E006C03296D60111964C917B
:1044800022E030E0A0EDA40FAA3018F0E21BF30BFD
:1044900020C040E050E04038BCE05B075CF49A018B
:1044A000220F331F220F331F420F531F440F551F7C
:1044B0004A0F511D3196DF0111972C91A0EDA20FEB
:1044C000AA3048F3C4FF03C0519541955109040F28
:1044D000151FC1FF07C0E114F10421F03197D70186
:1044E000ED93FC930E949124C370C33019F06B01CB
:1044F0007C0106C06B017C01F7FAF094F7F8F094A8
:1045000020E030E0A901C701B6010E948C24882375
:1045100009F445C017FF06C0119501951109C7EBB5
:10452000D0E002C0CFECD0E05E01B8E1AB1AB10838
:104530004601BE2DAF2D90E2E92EF12C0E151F0580
:1045400084F0FE012591359145915491B4018B2F52
:104550009A2F0E94F2244B01B82FA92F0E191F0980
:10456000EDCF2497F594E794CA15DB0539F764017C
:10457000EB2EFA2E8E2D880F8F2D881F8F3F49F03E
:1045800020E030E0A901C701B6010E948C2481110E
:1045900006C082E290E09093530580935205C701D4
:1045A000B60109C060E070E080E89FEF04C060E001
:1045B00070E080EC9FE7CDB7DEB7EEE00C94DE252F
:1045C000283008F027E03327DA01990F311D87FDE5
:1045D000916000966105710539F432602E5F3D935C
:1045E00030E32A95E1F708959F3F30F08038710558
:1045F000610509F03C5F3C5F3D93913008F08068B5
:10460000911DDF93CF931F930F93FF92EF92192F7A
:10461000987F9695E92F96959695E90FFF27E35D8C
:10462000FE4F99273327EE24FF24A701E7010590C9
:104630000894079428F4360FE71EF81E491F511DF1
:10464000660F771F881F991F0694A1F7059007949E
:1046500028F4E70EF81E491F561FC11D770F881F4B
:10466000991F661F0694A1F70590079428F4F80E89
:10467000491F561FC71FD11D880F991F661F771F1F
:104680000694A1F70590079420F4490F561FC71F01
:10469000D81F990F661F771F881F0694A9F784916A
:1046A0001095177041F0D695C79557954795F79493
:1046B000E7941A95C1F7E3EDF0E068941590159131
:1046C00035916591959105907FE27395E118F10A16
:1046D000430B560BC90BD009C0F7E10CF11E431F69
:1046E000561FC91FD01D7EF4703311F48A95E6CF92
:1046F000E894015030F0080F0AF40027021708F47C
:10470000202F2395022F7A3328F079E37D932A9581
:10471000E9F710C07D932A9589F6069497956795D9
:10472000379517951794E118F10A430B560BC90BEF
:10473000D00998F023957E9173957A3308F070E351
:104740007C932013B8F77E9170617D9330F0839550
:1047500071E37D9370E32A95E1F71124EF90FF90C8
:104760000F911F91CF91DF91992787FD9095089523
:1047700091110C945F25803219F089508550C8F74B
:104780000895FB01DC014150504088F08D91813447
:104790001CF08B350CF4805E659161341CF06B3538
:1047A0000CF4605E861B611171F3990B0895881BF0
:1047B000FCCFFC010590615070400110D8F7809546
:1047C00090958E0F9F1F0895DC0101C06D9341509D
:1047D0005040E0F70895FC016150704001900110D5
:1047E000D8F7809590958E0F9F1F08950F931F9374
:1047F000CF93DF93FB01238121FD03C08FEF9FEF58
:1048000028C022FF16C04681578124813581421776
:10481000530744F4A081B1819D012F5F3F4F318345
:1048200020838C93268137812F5F3F4F37832683E8
:1048300010C0EB01092F182F0084F185E02D099598
:10484000892BE1F68E819F8101969F838E83812F34
:10485000902FDF91CF911F910F910895FA01AA2710
:10486000283051F1203181F1E8946F936E7F6E5FB3
:104870007F4F8F4F9F4FAF4FB1E03ED0B4E03CD061
:10488000670F781F891F9A1FA11D680F791F8A1F44
:10489000911DA11D6A0F711D811D911DA11D20D0AB
:1048A00009F468943F912AE0269F11243019305D65
:1048B0003193DEF6CF010895462F4770405D419356
:1048C000B3E00FD0C9F7F6CF462F4F70405D4A33A3
:1048D00018F0495D31FD4052419302D0A9F7EACF6B
:1048E000B4E0A6959795879577956795BA95C9F79A
:1048F00000976105710508959B01AC010A2E06948D
:104900005795479537952795BA95C9F7620F731F45
:10491000841F951FA01D08950E94CE2408F481E0F5
:104920000895E89409C097FB3EF4909580957095A2
:1049300061957F4F8F4F9F4F9923A9F0F92F96E9EB
:10494000BB279395F695879577956795B795F11160
:10495000F8CFFAF4BB0F11F460FF1BC06F5F7F4FFD
:104960008F4F9F4F16C0882311F096E911C077230F
:1049700021F09EE8872F762F05C0662371F096E818
:10498000862F70E060E02AF09A95660F771F881FE7
:10499000DAF7880F9695879597F90895990F00088B
:1049A000550FAA0BE0E8FEEF16161706E807F90701
:1049B000C0F012161306E407F50798F0621B730B9C
:1049C000840B950B39F40A2661F0232B242B252B1D
:1049D00021F408950A2609F4A140A6958FEF811DC0
:1049E000811D08950E9405250C9479250E946B2550
:1049F00038F00E94722520F0952311F00C94622566
:104A00000C94682511240C94AD250E948A2570F31E
:104A1000959FC1F3950F50E0551F629FF001729F63
:104A2000BB27F00DB11D639FAA27F00DB11DAA1F72
:104A3000649F6627B00DA11D661F829F2227B00DBF
:104A4000A11D621F739FB00DA11D621F839FA00D4A
:104A5000611D221F749F3327A00D611D231F849F9A
:104A6000600D211D822F762F6A2F11249F575040F1
:104A70009AF0F1F088234AF0EE0FFF1FBB1F661F6C
:104A8000771F881F91505040A9F79E3F510580F035
:104A90000C9462250C94AD255F3FE4F3983ED4F36B
:104AA000869577956795B795F795E7959F5FC1F7D9
:104AB000FE2B880F911D9695879597F90895992754
:104AC0008827089597F99F6780E870E060E008956F
:104AD0009FEF80EC089500240A9416161706180616
:104AE0000906089500240A941216130614060506F2
:104AF0000895092E0394000C11F4882352F0BB0F83
:104B000040F4BF2B11F460FF04C06F5F7F4F8F4FE5
:104B10009F4F089557FD9058440F551F59F05F3F20
:104B200071F04795880F97FB991F61F09F3F79F0CF
:104B300087950895121613061406551FF2CF469551
:104B4000F1DF08C0161617061806991FF1CF8695D3
:104B50007105610508940895E894BB2766277727B7
:104B6000CB0197F908950E94F525A59F900DB49F5C
:104B7000900DA49F800D911D112408952F923F92B6
:104B80004F925F926F927F928F929F92AF92BF925D
:104B9000CF92DF92EF92FF920F931F93CF93DF9309
:104BA000CDB7DEB7CA1BDB0B0FB6F894DEBF0FBE66
:104BB000CDBF09942A88398848885F846E847D84B3
:104BC0008C849B84AA84B984C884DF80EE80FD80B5
:104BD0000C811B81AA81B981CE0FD11D0FB6F8942B
:104BE000DEBF0FBECDBFED010895A29FB001B39F00
:104BF000C001A39F700D811D1124911DB29F700DE6
:104C0000811D1124911D08950E9418260C94792568
:104C10000E94722558F00E946B2540F029F45F3FF6
:104C200029F00C94622551110C94AD250C94682543
:104C30000E948A2568F39923B1F3552391F3951BBC
:104C4000550BBB27AA2762177307840738F09F5FAD
:104C50005F4F220F331F441FAA1FA9F335D00E2E1A
:104C60003AF0E0E832D091505040E695001CCAF787
:104C70002BD0FE2F29D0660F771F881FBB1F26174A
:104C800037074807AB07B0E809F0BB0B802DBF0121
:104C9000FF2793585F4F3AF09E3F510578F00C94F0
:104CA00062250C94AD255F3FE4F3983ED4F38695DE
:104CB00077956795B795F7959F5FC9F7880F911D11
:104CC0009695879597F90895E1E0660F771F881FFD
:104CD000BB1F621773078407BA0720F0621B730BB0
:104CE000840BBA0BEE1F88F7E09508950E94922579
:104CF00088F09F5798F0B92F9927B751B0F0E1F09D
:104D0000660F771F881F991F1AF0BA95C9F714C04C
:104D1000B13091F00E94AC25B1E008950C94AC251F
:104D2000672F782F8827B85F39F0B93FCCF3869585
:104D300077956795B395D9F73EF4909580957095E2
:104D400061957F4F8F4F9F4F089597FB072E16F465
:104D5000009407D077FD09D00E94E12607FC05D01A
:104D60003EF4909581959F4F0895709561957F4F82
:104D70000895A1E21A2EAA1BBB1BFD010DC0AA1F9C
:104D8000BB1FEE1FFF1FA217B307E407F50720F0B4
:104D9000A21BB30BE40BF50B661F771F881F991F2F
:104DA0001A9469F760957095809590959B01AC0178
:104DB000BD01CF010895EE0FFF1F0590F491E02D86
:104DC0000994AA1BBB1B51E107C0AA1FBB1FA61752
:104DD000B70710F0A61BB70B881F991F5A95A9F7A4
:104DE00080959095BC01CD010895A0E0B0E0EBEF77
:104DF000F6E20C94C225EC01009721F4CB010E944D
:104E00008B1CB8C0FC01E60FF71F9C012250310932
:104E1000E217F30708F4ACC0D9010D911C9111976A
:104E200006171707B0F00530110508F49FC0C80138
:104E300004978617970708F499C002501109061BBA
:104E4000170B019311936D937C93CF010E94201D4A
:104E50008DC05B01A01AB10A4C01800E911EA09179
:104E60004A05B0914B0540E050E0E12CF12C109741
:104E700009F44AC0A815B905D1F56D907C90119739
:104E8000630182E0C80ED11CCA14DB0480F1A301C7
:104E90004A195B096A0182E0C80ED11C1296BC90C7
:104EA00012971396AC91B5E0CB16D10440F0B282C4
:104EB000A38351834083D9016D937C930AC00E5F15
:104EC0001F4FC301800F911FF90191838083EB2D48
:104ED000FA2FE114F10431F0D7011396FC93EE930D
:104EE000129744C0F0934B05E0934A053FC08D9163
:104EF0009C9111974817590708F4AC017D0112964F
:104F00000D90BC91A02DB3CF80914805909149059B
:104F100088159905E1F446175707C8F480910001F8
:104F200090910101009741F48DB79EB74091040123
:104F300050910501841B950BE817F907C8F4F0930D
:104F40004905E0934805F901718360830FC0CB01E7
:104F50000E948B1C7C01009759F0A801BE010E94A1
:104F6000C427CE010E94201DC70104C0CE0102C08B
:104F700080E090E0CDB7DEB7EEE00C94DE2581E076
:104F800090E0F8940C940528FB01DC0102C001902C
:104F90000D9241505040D8F70895FB01DC0101907B
:104FA0000D920020E1F70895FB01DC0141505040D3
:104FB00030F08D910190801919F40020B9F7881B09
:104FC000990B0895AEE0B0E0E8EEF7E20C94CC2542
:104FD0000D891E8986E08C831A8309838FEF9FE7F2
:104FE0009E838D83AE01475E5F4F6F89788DCE01C2
:104FF00001960E94071E2F813885F801E20FF31FEA
:1050000010822E96E4E00C94E82511E0C6EDD1E084
:1050100004C0FE010E94DB262196C73DD107C9F7D7
:04502000F894FFCF32
:105024000000540580002C00000000DC0EE40E009B
:10503400000000480449040000000047044B040039
:10504400000000390D9209C70D380D8D0DA50D20F6
:105054000D18000000000000000000E8FFE8FF0059
:10506400000000000014000000000000000000EC3C
:10507400FFECFF00000000000000000000D40392D9
:10508400096C031B049D037B038F0300000000BD18
:10509400099209C70DC60DBD09BD09BD090000006F
:1050A40000BD099209C70DC60D060000000000CC22
:1050B4000DCE0DFAFFFAFF0000CD0DD00D18000043
:1050C400000000ED0D040EE8FFE8FF0000FA0D0EED
:1050D4000EA30137014101AD0100000000EE0ECA2C
:1050E4000DE20CDF0CDC0CD90CD60C4D0C490C4633
:1050F4000C300C500CD40BD20B0200000000001A30
:105104000E1C0EFEFFFEFF00001B0E1E0E00000014
:1051140000F00E660E00000000EF0E180EE20CDF29
:105124000CDC0CD90CD60CCA0C840C6B0C520C5035
:105134000C890E680E1400000000003B0E520EECA9
:10514400FFECFF0000480E5C0E1B024B01550125CD
:10515400020000000072054F040000000071054DBC
:10516400040000000000000000BD09000000000071
:10517400000000BD0900000000C102E3110102E8C3
:1051840011FEFF0000E211E511DB1541542B2573DC
:10519400006B56007240794C404E212100526179D7
:1051A400636170576946695F4472616D610041547F
:1051B4002B43574A41505F4355523D222573222CBD
:1051C400222573220073796E65742E737974657366
:1051D4002E6E6574002F7375726765732F74657313
:1051E400742E706870004745542000204854545071
:1051F4002F312E310D0A00486F73743A20000D0AC6
:105204000D0A0041542B43495053454E443D00413F
:10521400542B43495053544152543D225443502239
:105224002C222573222C3830002B43574A41503A04
:10523400004E6F2041503A004641494C00535441BE
:105244005455533A32005354415455533A3300435E
:105254004C4F5345440020434F4E4E004552524F4D
:1052640052003E0053454E44204F4B0042540048E8
:105274005600534554530053455400544C53005462
:10528400425A0041434B00485631005352310048C2
:1052940056320053523200415400415438333D28B1
:0A52A40025642C25642C25732900D5
:00000001FF
