:100000000C94D0020C94F8020C94F8020C947C042A
:100010000C947C040C947C040C94F8020C94F8026C
:100020000C94F8020C94F8020C94F8020C94F80268
:100030000C94F8020C94F8020C94F8020C94F80258
:100040000C94AE110C94F8020C94630D0C943D0DBD
:100050000C94F8020C94F8020C94F8020C94F80238
:100060000C94F8020C94F8025A16F4176E16F41752
:100070003317F417F417F417F417F417331785161A
:10008000E816F417F417F417F417F417F417F41725
:10009000F417F4174617F417DF172319251A271931
:1000A0003C195319251A251A251A251A251A9619A5
:1000B0006A197E1993199619251A251A251A251ACF
:1000C000251A051A251AAA19C219E2194020432037
:1000D00046204C20492085208520852085208520AC
:1000E0004F205220552058205B20852085208520D8
:1000F000852085205E208520642061206720852062
:1001000085208520852085208520852085208520C7
:1001100085208520852085208520852085208520B7
:1001200085208520852085208520852085208520A7
:100130006A206D2070207320762079207C207F201B
:100140004E414E494E495459494E46CDCCCC3D0ABC
:10015000D7233C17B7D13877CC2B329595E6241F9F
:10016000B14F0A000020410000C84200401C462058
:10017000BCBE4CCA1B0E5AAEC59D744745542025C3
:1001800073257320485454502F312E310D0A486F77
:1001900073743A2025730D0A0D0A0076696E3D25A9
:1001A00064266C763D256426616C3D25640073727F
:1001B000633D25642663683D256C7526736C3D257B
:1001C00064000001020304051112131415160A0B32
:1001D0000C0D0E0F526164696F204552524F520050
:1001E000526164696F20426567696E004672656599
:1001F0002052414D203D200053544152540046723C
:1002000065652052414D203D2000242046726565E1
:100210002052414D203D200053656E64696E672E6B
:100220002E2E002D2D2052656365697665643A2077
:1002300000AE019B017B012A2A2A20202041542064
:1002400053454E440041542B43495053454E443D81
:100250000041542B43495053454E443D004F6E20BE
:10026000506F73743A200041542B434950434C4F14
:10027000534500467265652052414D204146544524
:10028000523D20003D3D3D3E2050555348205245B3
:1002900051554553545300536C61766520524620A6
:1002A0004D65737361676520526563656976656442
:1002B0003A20004F4E205246204D4553534147456A
:1002C0002053454E443A2000574946492052455153
:1002D0005545535420504F53544544204552524F96
:1002E00052005749464920524551554553542050D4
:1002F0004F535445440057494649205741495449B2
:100300004E472052455120524553504F4E534500C1
:100310005749464920524551554553542053454E5F
:1003200044005749464920524551554553542049A8
:100330005320504F5354494E470057494649205087
:100340004F5354494E47205245414459005749465E
:100350004920535441525420504F5354494E470062
:10036000574946492053544F5020504F5354494EFB
:100370004700574946492053455256455220434F5E
:100380004E4E454354454400574946492053455233
:1003900056455220434F4E4E454354494E47005711
:1003A00049464920534552564552204552524F52D4
:1003B0000057494649205345525645522044495317
:1003C000434F4E4E454354454400574946492057F4
:1003D0004C414E20434F4E4E4543544544005749EF
:1003E000464920574C414E20434F4E4E45435449B9
:1003F0004E47204641494C005749464920574C41F9
:100400004E20434F4E4E454354494E4700574946B0
:100410004920574C414E20434845434B00574946DD
:100420004920574C414E20444953434F4E4E45437B
:10043000544544005749464920494E495449414C86
:10044000495A494E47204552524F52005749464952
:1004500020494E495449414C495A45440057494660
:100460004920494E495449414C495A494E47005741
:1004700049464920424C5544454400574946492085
:100480004F464600467265652052414D2042543D1C
:100490002000474554202573257320485454502F7D
:1004A000312E310D0A486F73743A2025730D0A0DF1
:1004B0000A0076696E3D2564266C763D25642661CA
:1004C0006C3D2564007372633D25642663683D2599
:1004D0006C7526736C3D25640047455420257325B3
:1004E0007320485454502F312E310D0A486F7374C5
:1004F0003A2025730D0A0D0A0076696E3D256426A3
:100500006C763D256426616C3D2564007372633D05
:1005100025642663683D256C7526736C3D25640053
:10052000C504B20492040C05F904D90441542B52B9
:100530005354002420467265652052414D203D20D1
:100540000000000000240027002A0000000008002E
:10055000020100000304070000000000000000008A
:10056000000000250028002B0000000000230026CA
:100570000029000404040404040404020202020228
:100580000203030303030301020408102040800157
:10059000020408102001020408102000A120C72333
:1005A00011241FBECFEFD8E0DEBFCDBF13E0A0E027
:1005B000B1E0E8EEFAE502C005900D92A23DB10768
:1005C000D9F725E0A2EDB3E001C01D92A534B20732
:1005D000E1F712E0CFECD2E004C02197FE010E94C7
:1005E000EA2BCE3CD107C9F70E94F8110C94672D75
:1005F0000C9400002091F7033091F8032817390775
:1006000071F49091F5038091F603981741F0E09111
:10061000F503F0E0ED52FC4F808190E008958FEFFC
:100620009FEF089508951F93CF93DF93DC015C96AD
:100630002D913C915D972115310539F481E090E0D1
:1006400013969C938E9312973DC05196ED91FC9119
:10065000529750969C915097892F80951FB75E9620
:100660004C915E9741FB772770F941FD6095F894B6
:100670004081772311F0492B01C048234083E901D1
:100680002197F1F748E0508160FF02C0592B01C06B
:1006900058235083E9012197F1F76695415099F766
:1006A000772321F090818923808303C08081982B58
:1006B00090831FBF5C968D919C915D970197F1F798
:1006C00021E030E0C901DF91CF911F910895209181
:1006D000F7033091F8032817390769F48091F6037E
:1006E0002091F50390E08096821B910960E270E012
:1006F0000E94B42B089580E090E008952091F703C4
:100700003091F80328173907B9F49091F5038091D7
:10071000F603981789F0E091F503F0E0ED52FC4FF5
:1007200080812091F50330E02F5F3F4F2F713327F9
:100730002093F50390E008958FEF9FEF08950895BB
:1007400080E090E0089508950895FC0180819181F2
:100750000C9468240F931F93CF93DF93EC01CB018C
:10076000088119817B836A830E94D32399838883BC
:1007700020E030E08C819D812817390770F4E881F2
:10078000F981E20FF31F309729F0D801A20FB31FB0
:100790008C9180832F5F3F4FEDCFC801DF91CF91C8
:1007A0001F910F910C946824CF93DF93EC016C811F
:1007B0007D816F5F7F4F8A819B818617970718F431
:1007C000CE010E94AA03E881F9818C819D81E80F06
:1007D000F91F108288819981DF91CF910895EF925E
:1007E000FF920F931F93CF93DF938C017B0188E0DF
:1007F00090E0D80113969C938E93129715961C92B5
:100800001E9214970E94D323E80199838883E114F0
:10081000F10409F43FC0E70109900020E9F72197AE
:10082000CE19DF09F9F0C930D10548F0BE01685F83
:100830007F4F6930710518F0C8010E94AA03F801C2
:10084000848195818C179D0750F4D801ED91FC911E
:10085000E80FF91F309709F010820196F3CFF801E5
:10086000D583C483F701D8012D913C9140E050E03D
:10087000BA01CE01A0E0B0E0481759076A077B072C
:1008800048F41191E90119939E014F5F5F4F6F4F3B
:100890007F4FF2CFDF91CF911F910F91FF90EF909B
:1008A0000895FC01208131818281938128173907C5
:1008B00019F0822F0C94CC100895CF93DF93EC01A4
:1008C0009CB59F7D9CBD9CB5937F9CBD9CB59C7F3A
:1008D0009CBD9DB591609DBD8A810E94CC108C8984
:1008E0009D89DF91CF910C945D118EBD00000DB4F8
:1008F00007FEFDCF8EB508951F920F920FB60F928F
:1009000011242F933F934F935F936F937F938F9314
:100910009F93AF93BF93EF93FF93E091F703F09111
:10092000F803309709F451C0968DA685B785858563
:1009300091FF04C09C91892329F447C09C9189238D
:1009400009F043C0A389B4899C9185898095892346
:100950008C93868997890197F1F7608D718DA685B3
:10096000B785558538E020E0CB010197F1F7822F5C
:1009700090E095958795282F4C91452309F02068A4
:10098000315091F7868D81FD20958091F60390E09E
:1009900001968F7199273091F503381749F0A0918E
:1009A000F603B0E0AD52BC4F2C938093F60303C026
:1009B000868D8160868F828D938D0197F1F7A38953
:1009C000B4899C918589892B8C93FF91EF91BF917C
:1009D000AF919F918F917F916F915F914F913F91D7
:1009E0002F910F900FBE0F901F90189581E00895E2
:1009F00082E00895CB0108957F928F929F92AF92EB
:100A0000BF92CF92DF92EF92FF920F931F93CF93FB
:100A1000DF93EC0149015A018B01C12CD12C7601E5
:100A2000C814D904EA04FB0484F5F80171908F011D
:100A30008F8580FF0BC0E881F9810084F185E02D6E
:100A400020E144E060E070E0CE010995EB85FC8593
:100A50008D859E85E817F90738F470828B859C8513
:100A600001969C878B870BC0E881F981672D70E028
:100A7000028CF38DE02DCE010995019649F02FEF00
:100A8000C21AD20AE20AF20ACBCFB401C50102C0EF
:100A9000B601C701DF91CF911F910F91FF90EF90A9
:100AA000DF90CF90BF90AF909F908F907F900895F0
:100AB000CF93DF93EC01E881F9810288F389E02D7F
:100AC00009958F3F2FEF920731F02D813E812F5FE7
:100AD0003F4F3E832D83DF91CF9108958FEF9FEF9E
:100AE000089560E070E0CB01089580E090E0089503
:100AF000CB010895CF93DF93EC0188899989DC01BC
:100B0000ED91FC910084F185E02D0995892BA9F3E5
:100B100088899989DC01ED91FC910284F385E02DAF
:100B2000DF91CF910994CF93DF93EC018889998964
:100B3000DC01ED91FC910084F185E02D0995892B74
:100B4000A9F388899989DC01ED91FC910484F585EC
:100B5000E02DDF91CF910994AF92BF92CF92DF92B7
:100B6000EF92FF920F931F93CF93DF9300D000D0AB
:100B7000CDB7DEB78C015B01C12CD12C7601F80119
:100B800080899189DC01ED91FC910284F385E02D4F
:100B900029833A834B835C83099529813A814B8170
:100BA0005C818F3F71F0C216D306E406F5064CF463
:100BB000D5018D935D01BFEFCB1ADB0AEB0AFB0A6F
:100BC000DECFC701B6010F900F900F900F90DF910D
:100BD000CF911F910F91FF90EF90DF90CF90BF903A
:100BE000AF900895DC0150968D919C915197DC0156
:100BF000ED91FC910084F185E02D099480E090E076
:100C0000089580E090E0089580E090E0089580E00D
:100C100090E008950895CF93DF93C0913904D09167
:100C20003A04E881F9810084F185E02DCE0109952F
:100C3000892BB9F3E881F9810284F385E02DCE0197
:100C4000DF91CF9109941F93CF93DF93182FC09119
:100C50003904D0913A048A3041F4E881F981019055
:100C6000F081E02D6DE0CE010995E881F9810190D8
:100C7000F081E02D612FCE01099521E030E0019750
:100C800011F420E030E0C901DF91CF911F91089568
:100C90000C9468240C9468240C9468240C946824A4
:100CA000089508950C946824DC01ED91FC91369729
:100CB00020813181820F931F0C945206FB01208109
:100CC0003181FC0131832083FB0142815381F90191
:100CD000369720813181FC01E20FF31F518340835D
:100CE000089528EA31E0FC013183208322EB31E0D2
:100CF000318F208F68EB71E00C945E06DC01ED9182
:100D0000FC91369720813181820F931F0C947106DC
:100D1000CF93DF93EC010E947106CE01DF91CF915A
:100D20000C946824DC01ED91FC913697208131818F
:100D3000820F931F0C9488060C94682408950895DC
:100D40000C946824DC01ED91FC913697208131816F
:100D5000820F931F0C94A006FB0120813181FC01BE
:100D600031832083FB0142815381F9013697208131
:100D70003181FC01E20FF31F51834083089520E28B
:100D800032E0FC01318320832AE232E0358B248B70
:100D900060E372E00C94AC06DC01ED91FC913697B7
:100DA00020813181820F931F0C94BF06CF93DF9374
:100DB000EC010E94BF06CE01DF91CF910C94682414
:100DC000DC01ED91FC91369720813181820F931FD8
:100DD0000C94D6060C946824CF92DF92EF92FF9287
:100DE0000F931F93CF93DF93CDB7DEB7A6970FB6C0
:100DF000F894DEBF0FBECDBF8C017B01E6E2F5E0CB
:100E0000659174919E012F5F3F4F6901C9010E9456
:100E10002225F80180858F9387818F9386818F9318
:100E200085818F9384818F9383818F9382811F9299
:100E30008F93DF92CF921F9286E28F93FF92EF9271
:100E40000E94142DF70115A20FB6F894DEBF0FBE55
:100E5000CDBFA6960FB6F894DEBF0FBECDBFDF9113
:100E6000CF911F910F91FF90EF90DF90CF90089559
:100E7000CF92DF92EF92FF920F931F93CF93DF9366
:100E8000CDB7DEB7A6970FB6F894DEBF0FBECDBFC5
:100E90008C017B01E2E2F5E0659174919E012F5F88
:100EA0003F4F6901C9010E942225F80185811F92E7
:100EB0008F9384811F928F9383818F9382818F93ED
:100EC000DF92CF921F9286E28F93FF92EF920E9461
:100ED000142DF70115A20FB6F894DEBF0FBECDBFDB
:100EE000A6960FB6F894DEBF0FBECDBFDF91CF91AF
:100EF0001F910F91FF90EF90DF90CF9008950F9387
:100F00001F93CF93DF938C01EB016F3F8FEF780737
:100F100019F480E090E00FC06A3031F46DE0F80120
:100F2000808991890E948C0C6C2FF80180899189AD
:100F30000E948C0CCE01DF91CF911F910F910895EB
:100F40008F929F92BF92CF92DF92EF92FF920F9378
:100F50001F93CF93DF9300D000D0CDB7DEB78C01C5
:100F60004B01C12CD12C7601C216D306E406F5063E
:100F700044F5F401B1904F01FAE0BF120EC06DE0EC
:100F8000F8018089918929833A834B835C830E948D
:100F90008C0C5C814B813A8129816B2DF801808911
:100FA000918929833A834B835C830E948C0CFFEFE9
:100FB000CF1ADF0AEF0AFF0A5C814B813A8129814F
:100FC000D3CFCA01B9010F900F900F900F90DF910E
:100FD000CF911F910F91FF90EF90DF90CF90BF9036
:100FE0009F908F900895EF92FF920F931F93CF934E
:100FF000DF93CDB7DEB72A970FB6F894DEBF0FBEEA
:10100000CDBFFC012789261709F461C08C01678BCD
:1010100080E491E09A838983FC83EB8370E07E8394
:101020006D8318861F821A861986CE0101967C016F
:10103000BC01CF010E946A0FF80187898D3081F0D1
:1010400028F4843051F08A30E1F022C0873169F011
:101050008831B9F08E30E1F414C080E29EE407C01C
:101060006AE0C8010E94F3070CC080E395E7F8012D
:1010700093A382A30E94A211F801628F738F848FC1
:10108000958F0E94A211F801668F778F80A391A39C
:1010900063E375E089E694E00E94930C8091390542
:1010A00090913A05B701681B790B89E694E00E949C
:1010B000301082E390E0F80193A382A30E94A21172
:1010C000F801628F738F848F958F81E001C080E07B
:1010D0002A960FB6F894DEBF0FBECDBFDF91CF9139
:1010E0001F910F91FF90EF900895CF93DF93EC0144
:1010F0006BE00E94F3076EE873E08A819B810E9497
:10110000150D0E94A2116A8F7B8F8C8F9D8FDF91AE
:10111000CF910895EF92FF920F931F93CF93DF9398
:10112000CDB7DEB7C054D1090FB6F894DEBF0FBEFD
:10113000CDBF8C0183E193E09F938F9388E993E087
:101140009F938F93CE0101967C019F938F930E9472
:10115000442DB701F801828193810E94150D66E14B
:10116000C8010E94F3070E94A211F801628F738FD9
:10117000848F958F0F900F900F900F900F900F907E
:10118000C05CDF4F0FB6F894DEBF0FBECDBFDF915E
:10119000CF911F910F91FF90EF900895EF92FF92E2
:1011A0000F931F93CF93DF93CDB7DEB7C054D10910
:1011B0000FB6F894DEBF0FBECDBF8C0182EB93E07B
:1011C0009F938F938FEA92E09F938F938BEB93E0A3
:1011D0009F938F93CE0101967C019F938F930E94E2
:1011E000442DB701F801828193810E94150D6CE0B6
:1011F000C8010E94F3070E94A211F801628F738F49
:10120000848F958F0FB6F894DEBF0FBECDBFC05C44
:10121000DF4F0FB6F894DEBF0FBECDBFDF91CF9189
:101220001F910F91FF90EF900895CF93DF93EC0102
:101230006CE275E08A819B810E94290D80ED97E028
:101240009BA38AA30E94A2116A8F7B8F8C8F9D8F94
:101250000E94A2116A8F7B8F8C8F9D8F62E0CE01DE
:10126000DF91CF910C94F3070F931F93CF93DF93EC
:10127000EC018C819D89883070F4980F983008F0CB
:101280009770FE01E90FF11DE90FF11D768365836B
:101290008F5F8C8321C08B01FE01E90FF11DE90FE7
:1012A000F11D8581968116821582009739F0DC0147
:1012B000ED91FC910280F381E02D09958D89FE016D
:1012C000E80FF11DE80FF11D168305838F5F88304D
:1012D00010F48D8B01C01D8A81E0DF91CF911F91A9
:1012E0000F91089508950895089508950895089513
:1012F00061E00C945D0460E00C945D041F93CF9357
:10130000DF93EC010E947B0981EE0E947504182F87
:10131000CE010E947809812FDF91CF911F9108950E
:10132000EF92FF921F93CF93DF9300D0CDB7DEB73C
:101330007C014A8369830E947B096981862F8F71B2
:1013400080620E947504182F4A81842F0E947504C0
:10135000C7010E947809812F0F900F90DF91CF91E4
:101360001F91FF90EF900895CF92DF92EF92FF923E
:101370000F931F93CF93DF9300D01F92CDB7DEB7AB
:101380007C01142F2A835B8369830E947B09698116
:10139000862F8F7180620E947504082FC12E5B8199
:1013A000D52E2A81120F1C1531F0F60181916F01A3
:1013B0000E947504F8CFC7010E947809802F0F9012
:1013C0000F900F90DF91CF911F910F91FF90EF90B1
:1013D000DF90CF900895EF92FF921F93CF93DF930A
:1013E0001F92CDB7DEB77C0169830E947B096981BA
:1013F000862F8F710E9475048FEF0E947504182F3D
:10140000C7010E947809812F0F90DF91CF911F9122
:10141000FF90EF900895CF93DF93EC0160E00E947E
:10142000EB0981FD0EC0482F426060E0CE010E94B2
:10143000900965E070E080E090E0DF91CF910C943E
:101440006811DF91CF910895CF93DF93EC010E9453
:101450000B0A60E0CE010E94EB09482F416060E07A
:10146000CE010E94900940E767E0CE010E949009FA
:1014700061E0CE010E9451048985882349F02E85C0
:10148000AE01475F5F4F6AE0CE010E94B40914C00D
:1014900062E0CE010E94EB09E2ECF1E0E49121E090
:1014A00030E001C0220FEA95EAF72095422F482349
:1014B00062E0CE010E9490096DE1CE010E94EB092D
:1014C00081FF05C0CE01DF91CF910C947E09DF91A1
:1014D000CF910895CF92DF92EF92FF920F931F93D7
:1014E000CF93DF936C017A018B01C0E0D0E0CE1581
:1014F000DF0589F0D8016D918D01D601ED91FC9148
:101500000190F081E02DC6010995892B11F47E012F
:1015100002C02196ECCFC701DF91CF911F910F91AF
:10152000FF90EF90DF90CF900895FC01538D448D94
:10153000252F30E0842F90E0821B930B541710F07E
:10154000CF96089501970895FC01918D828D98178B
:1015500061F0828DDF01A80FB11D5D968C91928D97
:101560009F5F9F73928F90E008958FEF9FEF089594
:10157000FC01918D828D981731F0828DE80FF11D5D
:10158000858D90E008958FEF9FEF0895FC01918D78
:10159000228D892F90E0805C9F4F821B91098F7371
:1015A0009927089589E694E00E94C60A21E0892BD4
:1015B00009F420E0822F0895FC01848DDF01A80F3B
:1015C000B11DA35ABF4F2C91848D90E001968F736B
:1015D0009927848FA689B7892C93A089B1898C918A
:1015E00080648C93938D848D981306C00288F38950
:1015F000E02D80818F7D80830895EF92FF920F937D
:101600001F93CF93DF93EC0181E0888F9B8D8C8DAE
:10161000981305C0E889F989808185FD24C0F62EDC
:101620000B8D10E00F5F1F4F0F731127E02E8C8D75
:10163000E8120CC00FB607FCFACFE889F98980815F
:1016400085FFF5CFCE010E94DC0AF1CF8B8DFE0124
:10165000E80FF11DE35AFF4FF0820B8FEA89FB89F7
:101660008081806207C0EE89FF896083E889F989FB
:1016700080818064808381E090E0DF91CF911F9131
:101680000F91FF90EF900895CF93DF93EC01888D39
:101690008823C9F0EA89FB89808185FD05C0A88976
:1016A000B9898C9186FD0FC00FB607FCF5CF8081FC
:1016B00085FFF2CFA889B9898C9185FFEDCFCE0146
:1016C0000E94DC0AE7CFDF91CF91089580E090E09F
:1016D000892B29F00E94D20A81110C9400000895F0
:1016E00008950895FB01108281E0089580E0089537
:1016F0000E94CE2C0C9468240C9468240C946824CA
:101700000C9468240C9468240C9468240F931F9301
:10171000CF93DF93EC0188819981009729F02A818A
:101720003B812617370788F48B016F5F7F4F0E943C
:10173000042C009761F0998388831B830A832C8192
:101740003D81232B11F4FC01108281E001C080E077
:10175000DF91CF911F910F910895CF93DF93FC01FB
:1017600024813581232B71F0FB01DC01CD91DC91CB
:1017700060817181CE010E94FA2C009719F08C1BB8
:101780009D0B02C08FEF9FEFDF91CF910895CF9314
:10179000DF93DC01ED91FC91EB01A881B9813097D9
:1017A00011F01097C9F4109759F0EB012C813D818D
:1017B000232B31F08C9190E091958195910914C083
:1017C000309781F0DC0114968D919C911597892BAF
:1017D00049F0808190E008C0BD01CF01DF91CF9139
:1017E0000C94DC2C80E090E0DF91CF910895EF9293
:1017F000FF920F931F93CF93DF93FC0124813581D8
:101800006115710511F480E019C041155105A9F069
:101810007B01EC018A01020F131FB8010E94860BA5
:10182000882389F3288139818C819D81B701820FBA
:10183000931F0E94E52C1D830C8381E0DF91CF91E3
:101840001F910F91FF90EF900895CF93DF9300D0F9
:10185000CDB7DEB769831A8241E050E0BE016F5F09
:101860007F4F0E94F70B0F900F90DF91CF9108955B
:101870006115710551F0FB0101900020E9F73197E6
:10188000AF01461B570B0C94F70B80E00895EF92C5
:10189000FF920F931F93CF93DF93EC017B018A019B
:1018A000BA010E94860B2881398181110DC0211552
:1018B000310519F0C9010E946824198218821D821D
:1018C0001C821B821A8206C01D830C83B701C901CA
:1018D0000E94E52CCE01DF91CF911F910F91FF90D7
:1018E000EF900895FC01808191810C946824FC01A3
:1018F0001182108213821282158214826115710581
:1019000051F0FB0101900020E9F73197AF01461B30
:10191000570B0C94470C0895DC01ED91FC9101905C
:10192000F081E02D0994EF92FF920F931F93CF93D4
:10193000DF938C017B01C0E0D0E0F701EC0FFD1FCD
:101940006491662361F0D801ED91FC910190F081E2
:10195000E02DC8010995892B11F02196EECFCE011B
:10196000DF91CF911F910F91FF90EF900895611536
:10197000710579F0FB0101900020E9F73197AF0183
:10198000461B570BDC01ED91FC910280F381E02DA9
:10199000099480E090E008954F925F926F927F9259
:1019A000EF92FF920F931F93CF93DF93CDB7DEB7E4
:1019B000A1970FB6F894DEBF0FBECDBF7C01FA0130
:1019C000CB0119A2223008F42AE08E010F5D1F4FCF
:1019D000422E512C612C712CBF01A30192010E9457
:1019E000C82BF901CA01015011096A3014F4605D75
:1019F00001C0695CD8016C93232B242B252B61F744
:101A0000B801C7010E94B70CA1960FB6F894DEBFCB
:101A10000FBECDBFDF91CF911F910F91FF90EF903F
:101A20007F906F905F904F9008950F931F93CF9387
:101A3000DF93EC010E94B70C8C016BE473E0CE01E4
:101A40000E94B70C800F911FDF91CF911F910F91D2
:101A500008950F931F93CF93DF93EC010E94930C93
:101A60008C016BE473E0CE010E94B70C800F911FD4
:101A7000DF91CF911F910F9108951F920F920FB692
:101A80000F9211242F933F934F935F936F937F9304
:101A90008F939F93AF93BF93EF93FF9389E694E067
:101AA0000E94DC0AFF91EF91BF91AF919F918F91BE
:101AB0007F916F915F914F913F912F910F900FBE4A
:101AC0000F901F9018951F920F920FB60F9211242E
:101AD0002F938F939F93EF93FF93E0917904F0916D
:101AE0007A048081E0917F04F091800482FD12C02D
:101AF0009081809182048F5F8F732091830482177D
:101B000051F0E0918204F0E0E759FB4F958F80930C
:101B1000820401C08081FF91EF919F918F912F915D
:101B20000F900FBE0F901F9018950F931F93CF9398
:101B3000DF93CDB7DEB727970FB6F894DEBF0FBEA1
:101B4000CDBFDC0119968D919C911A970097C1F039
:101B500012962C911297FC0140815181FA01048167
:101B6000158140E551E05A834983BC83AB832D83C3
:101B70001796BF83AE83BE016F5F7F4FF801099553
:101B800027960FB6F894DEBF0FBECDBFDF91CF9181
:101B90001F910F910895089508950895CF93DF93AD
:101BA000CDB7DEB72A970FB6F894DEBF0FBECDBF14
:101BB000FC0183859485009741F1DB01FC012081C4
:101BC0003181F9014481558120E431E03A83298350
:101BD00012962D913C9113973C832B8314962D9153
:101BE0003C9115973E832D8316962D913C91179726
:101BF00038872F8318962D913C9119973A8729871A
:101C0000BE016F5F7F4FFA0109952A960FB6F894CF
:101C1000DEBF0FBECDBFDF91CF910895CF93DF938D
:101C2000EC010E94A2116D837E838F839887DF91E0
:101C3000CF9108956F927F929F92AF92BF92CF9271
:101C4000DF92EF92FF920F931F93CF93DF93CDB765
:101C5000DEB72A970FB6F894DEBF0FBECDBFFC01EA
:101C60009284992009F4A3C05B016C010281138165
:101C700060E0C8010E945104F801808991890E94A6
:101C80005D116DE1C8010E94EB0981FF08C0F801F8
:101C9000808991890E945D11C8010E947E0960E0DF
:101CA000C8010E94EB09482F4E7F60E0C8010E94E6
:101CB000900962E0C8010E94EB09E2ECF1E0E491D6
:101CC00041E050E001C0440FEA95EAF7482B62E09A
:101CD000C8010E949009F60102811381F8019781E1
:101CE000E92E993110F088E1E82EF8018085811104
:101CF00003C0F92EFE1801C0F12CC8010E947B0917
:101D000080EA0E9475043501EA94FFEFEF1631F086
:101D1000F30181913F010E947504F6CFFF2029F065
:101D200080E00E947504FA94F9CFC8010E947809F6
:101D300061E0C8010E945104C8010E947B098FEF35
:101D40000E947504F82EC8010E9478098F2D8073B7
:101D500099F360E0C8010E94510440E767E0C801C0
:101D60000E94900984FF04C0C8010E947E09912C42
:101D700061E070E080E090E00E94681180E491E012
:101D80009A838983DC82CB828CE590E09E838D836D
:101D900018861F82A986BA86BE016F5F7F4FC60173
:101DA0000E94CE0DF601828193810E94240A892D22
:101DB0002A960FB6F894DEBF0FBECDBFDF91CF914C
:101DC0001F910F91FF90EF90DF90CF90BF90AF9059
:101DD0009F907F906F900895EF92FF920F931F93C3
:101DE000CF93DF93CDB7DEB76C970FB6F894DEBF15
:101DF0000FBECDBF7C0181E493E4ABE4B0E0898FFA
:101E00009A8FAB8FBC8F9E01275E3F4F3F932F93DE
:101E10002DE633E03F932F938E010F5F1F4F1F93EB
:101E20000F930E94442DB801C7010E941A0E0F9013
:101E30000F900F900F900F900F906C960FB6F89434
:101E4000DEBF0FBECDBFDF91CF911F910F91FF90ED
:101E5000EF9008958091F3039091F403892BC9F4D6
:101E60008DE090E00E94D323FC0188E491E091830F
:101E70008083138212821482158216821782108642
:101E800084E08187128614861386F093F403E0932E
:101E9000F3038091F3039091F4030895FC01DC01B6
:101EA0000D900020E9F79F938F9380E793E09F9335
:101EB0008F93AE1B1F92AF937F936F930E94142D4D
:101EC0008DB79EB708960FB6F8949EBF0FBE8DBF14
:101ED00008950895CF93DF93CDB7DEB72A970FB655
:101EE000F894DEBF0FBECDBFFC01EA58FF4F8081E2
:101EF0009181009741F1DB01FC0120813181F901E1
:101F00004481558120E431E03A83298312962D9152
:101F10003C9113973C832B8314962D913C911597FC
:101F20003E832D8316962D913C91179738872F83EA
:101F300018962D913C9119973A872987BE016F5FBA
:101F40007F4FFA0109952A960FB6F894DEBF0FBEAF
:101F5000CDBFDF91CF9108950F931F93CF93DF9360
:101F6000CDB7DEB72A970FB6F894DEBF0FBECDBF50
:101F7000FC01208D261709F467C08C01608F80E476
:101F800091E09A838983FC83EB8370E07E836D8389
:101F900018861F821A861986BE016F5F7F4FCF0198
:101FA0000E946A0FF801808D8733C9F028F48433CA
:101FB000B1F08633A1F046C08833C9F0893309F007
:101FC00041C00E94A211F801668F778F80A391A370
:101FD00063E3C8010E94AC0F88E893E129C00E9426
:101FE000A211F801668F778F80A391A32BC00E9466
:101FF000A211F801668F778F80A391A39481992312
:1020000089F08589E80FF11DE80FF11D1682158210
:102010008F5FF801883010F4858B01C0158A9150CC
:10202000F801948363E3C8010E94AC0F88EE93E04B
:10203000F80193A382A30E94A211F801628F738F0B
:10204000848F958F81E001C080E02A960FB6F894C6
:10205000DEBF0FBECDBFDF91CF911F910F910895CD
:10206000CF92DF92EF92FF920F931F93CF93DF9364
:102070008C016B01770FEE08FF08F7FE12C06DE2CE
:102080000E948C0CEC0144275527BA014C195D09BC
:102090006E097F092AE0C8010E94CC0CC80FD91F25
:1020A00006C02AE0B701A6010E94CC0CEC016BE44B
:1020B00073E0C8010E94B70C8C0F9D1FDF91CF9178
:1020C0001F910F91FF90EF90DF90CF9008950F93A5
:1020D0001F93CF938C0166E081E294E00E94EB09AC
:1020E000C82FC77D0230110531F4C0628BE990E042
:1020F000A0E0B0E00DC00130110529F085E590E0C9
:10210000A0E0B0E005C0C86081E490E0A0E0B0E0ED
:102110008093310490933204A0933304B093340439
:102120004C2F66E081E294E00E94900966E081E233
:1021300094E00E94EB0991E08C1390E0892FCF91FD
:102140001F910F910895833081F028F4813099F028
:102150008230A1F008958730A9F08830B9F084303A
:10216000D1F4809180008F7D03C0809180008F77B3
:1021700080938000089584B58F7702C084B58F7DE9
:1021800084BD08958091B0008F7703C08091B00026
:102190008F7D8093B00008951F93CF93DF93282FF6
:1021A00030E0F901E55BFA4F8491F901E957FA4F04
:1021B000D491F901ED58FA4FC491CC23C9F0162FF0
:1021C00081110E94A310EC2FF0E0EE0FFF1FE15AE7
:1021D000FA4FA591B4918FB7F894111105C09C9155
:1021E000ED2FE095E92302C0EC91ED2BEC938FBF2E
:1021F000DF91CF911F910895CF93DF9390E0FC0181
:10220000E957FA4F2491FC01ED58FA4F8491882345
:1022100061F190E0880F991FFC01EF5BFA4FC591C7
:10222000D491FC01E15AFA4FA591B491611109C012
:102230009FB7F8948881209582238883EC912E2380
:102240000BC0623061F49FB7F8943881822F80957B
:1022500083238883EC912E2B2C939FBF06C08FB7CE
:10226000F894E8812E2B28838FBFDF91CF910895BA
:102270003FB7F8948091350590913605A0913705C8
:10228000B091380526B5A89B05C02F3F19F00196DF
:10229000A11DB11D3FBFBA2FA92F982F8827820FEC
:1022A000911DA11DB11DBC01CD0142E0660F771F3C
:1022B000881F991F4A95D1F708958230910538F00B
:1022C000880F991F880F991F05970197F1F70895B7
:1022D0008F929F92AF92BF92CF92DF92EF92FF9236
:1022E0006B017C010E9438114B015C01C114D104C7
:1022F000E104F104F1F00E943811DC01CB018819EE
:102300009909AA09BB09883E9340A105B10570F35C
:1023100021E0C21AD108E108F10888EE880E83E0B6
:10232000981EA11CB11CC114D104E104F10419F7D9
:10233000DDCFFF90EF90DF90CF90BF90AF909F9058
:102340008F9008952FB7F894609131057091320500
:1023500080913305909134052FBF08951F920F92FD
:102360000FB60F9211242F933F938F939F93AF93A8
:10237000BF938091310590913205A0913305B091C2
:1023800034053091300523E0230F2D3720F40196DA
:10239000A11DB11D05C026E8230F0296A11DB11D88
:1023A000209330058093310590933205A093330537
:1023B000B09334058091350590913605A09137058D
:1023C000B09138050196A11DB11D809335059093FC
:1023D0003605A0933705B0933805BF91AF919F9113
:1023E0008F913F912F910F900FBE0F901F901895D6
:1023F000CF93DF93CDB7DEB7CD56D1090FB6F894A2
:10240000DEBF0FBECDBF789484B5826084BD84B535
:10241000816084BD85B5826085BD85B5816085BDDF
:1024200080916E00816080936E0010928100809197
:10243000810082608093810080918100816080931F
:102440008100809180008160809380008091B10044
:1024500084608093B1008091B00081608093B0006F
:1024600080917A00846080937A0080917A00826003
:1024700080937A0080917A00816080937A008091C5
:102480007A00806880937A001092C10061E085E054
:102490000E94FC1061E087E00E94FC1061E086E091
:1024A0000E94FC10E0917904F0917A0482E080832C
:1024B000E0917504F09176041082E0917704F09138
:1024C000780480E1808310928104E0917D04F09192
:1024D0007E0486E08083E0917B04F0917C0480811F
:1024E00080618083E0917B04F0917C04808188602E
:1024F0008083E0917B04F0917C04808180688083FC
:10250000E0917B04F0917C0480818F7D8083009139
:10251000090410910A0481E294E0D80113969C9377
:102520008E9312978091210490912204209123048C
:10253000309124048217930719F061E00E94FC1087
:10254000809123049091240420912104309122044D
:102550002817390719F061E00E94FC10FFB6F894C3
:102560008091D203811127C0EDE7F5E08491E1E984
:10257000F5E09491E82FF0E0EE0FFF1FEF5BFA4FCC
:10258000A591B491EC91E92321F461E08AE00E94E5
:10259000CC1061E08AE00E94FC108CB580618CBD9B
:1025A0008CB580648CBD61E08DE00E94FC1061E020
:1025B0008BE00E94FC108091D2038F5F8093D20346
:1025C000FFBE60E081E294E00E94510461E081E29C
:1025D00094E00E945D0465E070E080E090E00E947D
:1025E00068114CE060E081E294E00E9490094FE5C0
:1025F00064E081E294E00E94900982E090E00E9411
:102600006710882319F081E08093270466E081E257
:1026100094E00E94EB09F82E80E090E00E946710A1
:1026200081E294E00E947B0980E50E94750483E7C3
:102630000E94750481E294E00E94780940E06DE117
:1026400081E294E00E94900940E06CE181E294E034
:102650000E9490091092290440E767E081E294E02B
:102660000E9490094CE465E081E294E00E949009A8
:1026700081E294E00E947B0982EE0E94750481E26F
:1026800094E00E94780981E294E00E947E0981E250
:1026900094E00E940B0A60E081E294E00E94EB0962
:1026A000482F4E7F60E081E294E00E9490098FEF16
:1026B0008F0D8E3F08F0ACC04AEF64E081E294E0F9
:1026C0000E94900940E06DE181E294E00E9490094F
:1026D00040E06CE181E294E00E94900910922904AC
:1026E00088E180932804FF24F3946D96FFAE6D97E4
:1026F0006E961FAE6E976F961FAE6F97A0961FAE29
:10270000A097A1961FAEA197A2961FAEA297A396DF
:102710001FAEA397A4961FAEA49720912F04AE01DD
:10272000445A5F4F6AE081E294E00E94B40920912C
:102730002F04AE01445A5F4F60E181E294E00E94B1
:10274000B4094091280461E181E294E00E9490097B
:1027500082E065968FAF659766961FAE669767961F
:102760001FAE679768961FAE689769961FAE699708
:102770006A961FAE6A976B961FAE6B976C961FAEEC
:102780006C97EFECF1E0649120912F04AE014C5A6C
:102790005F4F81E294E00E94B409E9ECF1E06491BA
:1027A0004091280481E294E00E94900962E081E275
:1027B00094E00E94EB09E3ECF1E0E49141E050E0A9
:1027C00001C0440FEA95EAF7482B62E081E294E009
:1027D0000E94900966E081E294E00E94EB09887F04
:1027E000482F436066E081E294E00E94900982E015
:1027F00090E00E94671081E294E00E94240AF801B0
:10280000F28660EE71E089E694E00E94290D09C02D
:1028100064ED71E089E694E00E94290DD8011A96D2
:102820001C92C8010E940E0EE0910704F09108046A
:10283000309721F085E094E092878187E091090448
:10284000F0910A04309721F083E094E09487838725
:10285000E0910B04F0910C04309759F0EA58FF4FC7
:10286000808191818350944021F083E094E09183B2
:10287000808361E085E00E94CC1061E087E00E94E7
:10288000CC1061E086E00E94CC106AEF70E080E03E
:1028900090E00E94681160E085E00E94CC1060E04A
:1028A00087E00E94CC1060E086E00E94CC106EEFC2
:1028B00071E089E694E00E94930C80913905909133
:1028C0003A05FE0131961F01BF01681B790B89E6AD
:1028D00094E00E94301068EF71E089E694E00E9475
:1028E000290D6CEE71E089E694E00E94930C8091D2
:1028F000390590913A05B101681B790B89E694E09E
:102900000E9430108E010F5C1F4F0E94A211C090D8
:10291000FD03D090FE03E090FF03F0900004DC0183
:10292000CB018C199D09AE09BF09803D9740A105D7
:10293000B10554F00E94A2116093FD037093FE0351
:102940008093FF0390930004E0900904F0900A0440
:10295000D7011A968C911A97882309F4C5C067E1AC
:1029600012968D919C9113970E94EB0980FFDDC612
:102970003EC0C6010E94780940E767E0C6010E9498
:102980009009C7010E940E0E84E0F70181878481BF
:1029900081111BC081E08483AC968FAFAC9780E43B
:1029A00091E09AAB89ABFCAAEBAA8AE590E09EABDA
:1029B0008DAB18AE1FAA2BE630E02C0F3D1F3AAFAF
:1029C00029AFB801C7010E94CE0D80E491E09AAB17
:1029D00089ABFCAAEBAA8BE590E09EAB8DAB18AE61
:1029E0001FAA3AAE29AEB801C7010E94CE0D0E94BF
:1029F000A211D70115968D909D90AD90BC9018971F
:102A00001A962C911A97222309F46EC09B01AC01EF
:102A1000281939094A095B0949015A0119968C910B
:102A2000811102C060E01CC0813091F4253F31402B
:102A30004105510508F447C061E0C7010E94EC0E52
:102A4000C7010E940E0EF70181858F5F81873BC011
:102A5000823051F4253F314041055105A0F162E03B
:102A6000C7010E94EC0E25C0833069F5253F314037
:102A70004105510540F1F70184818823D1F014828A
:102A8000AB961FAEAB9780E491E09A838983FC827A
:102A9000EB828AE590E09E838D8318861F822AE66A
:102AA00030E02C0F3D1F3A872987B101C7010E94F2
:102AB000CE0DC7010E940E0ED70119968C91199761
:102AC0008F5F19968C93F7018185843069F4F1E466
:102AD0008F16FFE19F06A104B10430F0D7011996CB
:102AE0001C92C7010E940E0E80900B0490900C0463
:102AF000F40182819381DC01ED91FC910084F185E8
:102B0000E02D0995892B09F463C394012C583F4F9C
:102B1000AE963FAF2EAFAE97340134E2630E711C18
:102B2000D40112968D919C911397DC01ED91FC914B
:102B30000084F185E02D0995181619060CF048C39C
:102B4000F401E280F3805101C12CD12C0E94A2112A
:102B5000D70118966D937D938D939C931B97D70106
:102B6000ED91FC910284F385E02DC701099597FD55
:102B700004C08A309105C1F421C00E94A211F7015E
:102B80002085318542855385DC01CB01821B930B67
:102B9000A40BB50B24813581468157818217930799
:102BA000A407B507E0F20AC0D5018D935D01BFEF20
:102BB000CB1ADB0AE0E3CE16D10441F6CD2809F4A6
:102BC000AFCFB101CE018C599F4F0E94770CA696D2
:102BD000CEACDFACA697C114D10409F448C0AA96C4
:102BE000EEACFFACAA97E114F10409F440C0260151
:102BF0005201FFEF4F1A5F0AD5018C91082E000C8D
:102C0000990B0E94C728892B99F7B1E0EB1AF108BC
:102C1000EC0CFD1CD7018C91082E000C990B0E9426
:102C2000C728892B91F4BFEFEB1AFB0AA7014A19B9
:102C30005B09AA965FAF4EAFAA97CA14DB0460F493
:102C4000B501C6010E94D32C07C0EA14FB0458F357
:102C5000E1E0EE1AF108DECFA696EEADFFADA69745
:102C6000AA968EAD9FADAA97E80FF91F1082AA967B
:102C70008EAD9FADAA97892B09F49FC263E272E0E3
:102C800089E694E00E94930CA6966EAD7FADA69760
:102C900089E694E00E94150DD4015796EC918E2F91
:102CA00090E08931910508F09FC1FC01EC5CFF4F79
:102CB0000C94EA2B6CEF72E0C8010E94770CB8010B
:102CC000CE018C599F4F0E94C70B7C01C8010E9406
:102CD000720CEF2809F071C261E013C06CEF72E072
:102CE000C8010E94770CB801CE018C599F4F0E94F9
:102CF000C70B7C01C8010E94720CEF2809F05DC26D
:102D000064E0C4010E94F30758C26CEF72E0C8018E
:102D10000E94770CB801CE018C599F4F0E94C70BBF
:102D20007C01C8010E94720CEF2869F4F401818DC6
:102D30008F3411F46EE001C06AE0C4010E94F30711
:102D4000D40159961C9267EA72E0C8010E94770C80
:102D5000B801CE018C599F4F0E94AD0B7C01C80178
:102D60000E94720CF7FC1BC06FEA72E0C8010E945F
:102D7000770CB801CE018C599F4F0E94AD0B7C019E
:102D8000C8010E94720C1E141F0424F48FE4F40185
:102D9000818F13C286E4D40159968C930EC260ECE5
:102DA00072E0C8010E94770CB801CE018C599F4F88
:102DB0000E94AD0B7C01C8010E94720CF7FCFDC1A2
:102DC0006AE0C4010E94F307C4010E94CE08F5C165
:102DD0006CEF72E0C8010E94770CB801CE018C59EB
:102DE0009F4F0E94C70B892B31F4FF24F394F40109
:102DF000818D893409F0F12CC8010E94720CFF20EA
:102E000041F06EE0C4010E94F307D40159961C9270
:102E100015C062EE72E0C8010E94770CB801CE01C5
:102E20008C599F4F0E94AD0B7C01C8010E94720C0F
:102E3000F7FC04C06DE0C4010E94F30760EA72E091
:102E4000C8010E94770CB801CE018C599F4F0E9497
:102E5000AD0B7C01C8010E94720CF7FCAEC129E4E5
:102E6000F401218FAAC160EA72E0C8010E94770CC8
:102E7000B801CE018C599F4F0E94AD0B7C01C80157
:102E80000E94720CF7FC99C16EE03BCFD4015996B9
:102E90008C91893199F46CEF72E0C8010E94770C33
:102EA000B801CE018C599F4F0E94C70B7C01C8010D
:102EB0000E94720CEF2811F468E112C067EC72E016
:102EC000C8010E94770CB801CE018C599F4F0E9417
:102ED000C70B7C01C8010E94720CEF2829F464E141
:102EE000C4010E94F3073DC06EEC72E0C8010E946D
:102EF000770CB801CE018C599F4F0E94AD0B7C011D
:102F0000C8010E94720CF7FC04C088E1F401818FB3
:102F100028C062ED72E0C8010E94770CB801CE01B2
:102F20008C599F4F0E94C70B7C01C8010E94720CF4
:102F3000EF2811F4E9E112C06AED72E0C8010E94C5
:102F4000770CB801CE018C599F4F0E94AD0B7C01CC
:102F5000C8010E94720CF7FC04C0EAE1D401599642
:102F6000EC9367EE72E0C8010E94770C4DA95EA950
:102F7000AA968EAD9FADAA978417950788F0A6965E
:102F80008EAD9FADA697009759F069A97AA96115F2
:102F9000710531F00E94EC2CFF24F394892B09F089
:102FA000F12CC8010E94720CFF20F1F0D401599657
:102FB0008C91883111F468E114C067E112C067ECAC
:102FC00072E0C8010E94770CB801CE018C599F4F66
:102FD0000E94C70B7C01C8010E94720CEF2821F4EB
:102FE00064E1C4010E94F307F40187898E3028F15F
:102FF00060EA72E0C8010E94770CB801CE018C59DA
:103000009F4F0E94C70B7C01C8010E94720CEF28E1
:10301000A1F46EE0C4010E94F307EAEFF0E0D401EE
:103020009396FC93EE9392970E94A211D4015A9624
:103030006D937D938D939C935D976BEE72E0C801C9
:103040000E94770CB801CE018C599F4F0E94AD0BA6
:103050007C01C8010E94720CF7FC04C06AE0C40144
:103060000E94F307F401808D833308F487C0863310
:1030700009F449C0873309F459C0853309F07EC08B
:1030800065EF72E0C8010E94770CB801CE018C593F
:103090009F4F0E94AD0B7C01C8010E94720CF7FC8F
:1030A0006DC066E3C4010E94AC0FAE96AEADBFAD7D
:1030B000AE978D919C91892B89F068E172E089E649
:1030C00094E00E94290DB30189E694E00E94150D59
:1030D000B301F401828193810E94B70CD4019496CC
:1030E0001C926AE072E089E694E00E94930C809161
:1030F000390590913A05B801681B790B89E694E08F
:103100000E9430103BC067EF72E0C8010E94770C4C
:10311000B801CE018C599F4F0E94C70B7C01C8019A
:103120000E94720CEF2851F567E325C06FEF72E043
:10313000C8010E94770CB801CE018C599F4F0E94A4
:10314000AD0B7C01C8010E94720CF7FC02C068E361
:1031500012C067E073E0C8010E94770CB801CE018D
:103160008C599F4F0E94AD0B7C01C8010E94720CCC
:10317000F7FC04C069E3C4010E94AC0F6EE073E089
:10318000C8010E94770CB801CE018C599F4F0E9454
:10319000AD0B7C01C8010E94720CF7FC0EC020ED43
:1031A00037E0F40133A322A30E94A211D4015A965E
:1031B0006D937D938D939C935D9780E3F1011192C4
:1031C0008A95E9F7CE018C599F4F0E94720CA8CCCA
:1031D000F4018689882309F481C282A193A1892BF5
:1031E00021F10E94A211D4015A96CD90DD90ED906C
:1031F000FC905D97AB01BC014C195D096E097F091C
:1032000092968D919C919397A0E0B0E084179507DA
:10321000A607B70708F062C20E94A211F401628FEC
:10322000738F848F958F13A212A2D4015796EC91BD
:103230008E2F90E08931910508F007C1FC01E35B16
:10324000FF4F0C94EA2BC4010E941509FEC00E9496
:10325000A211F401C28CD38CE48CF58CDC01CB017F
:103260008C199D09AE09BF09813A9F40A105B1059E
:1032700008F4EBC063E082C00E94A211F401C28C8A
:10328000D38CE48CF58CDC01CB018C199D09AE0943
:10329000BF09813A9F40A105B10508F4D6C0C40119
:1032A0000E941509C9C00E94A211F401C28CD38CDE
:1032B000E48CF58CDC01CB018C199D09AE09BF09AA
:1032C00081349F41A105B10508F4BFC0C4010E942B
:1032D000CE08B2C00E94A211F401C28CD38CE48C3F
:1032E000F58CDC01CB018C199D09AE09BF09893829
:1032F0009341A105B10508F4A8C09EC00E94A21187
:10330000F401C28CD38CE48CF58CDC01CB018C19DC
:103310009D09AE09BF0980389E43A105B10508F497
:1033200094C06DE02BC00E94A2118FC00E94A21118
:10333000F401C28CD38CE48CF58CDC01CB018C19AC
:103340009D09AE09BF0980339547A105B10508F471
:103350007CC06FC00E94A211F401C28CD38CE48C9B
:10336000F58CDC01CB018C199D09AE09BF098031B8
:103370009742A105B10508F468C067E1C4010E9445
:10338000F3075AC00E94A211F401C68CD78CE0A0AA
:10339000F1A0DC01CB018C199D09AE09BF09803376
:1033A0009547A105B10508F450C0C4010E948A08E0
:1033B0000E94A211D4015E966D937D938D939C9390
:1033C000919743C00E94A211F401C68CD78CE0A053
:1033D000F1A0DC01CB018C199D09AE09BF09803138
:1033E0009742A105B10588F167E672E0D401129613
:1033F0008D919C9113970E94290D0E94A211F401B6
:10340000668F778F80A391A320C00E94A211D40160
:103410005A96CD90DD90ED90FC905D97DC01CB014C
:103420008C199D09AE09BF0980339547A105B105E7
:1034300060F0C4010E9475080E94A211D4015A963E
:103440006D937D938D939C935D97F401808D85336F
:1034500009F4EAC018F4833341F040C1863309F41B
:10346000F9C0873309F416C139C1D4018481882396
:1034700009F434C18789883109F0CCC08589F40109
:10348000E80FF11DE80FF11DC580D680C114D104ED
:1034900009F4B8C0AC58BF4F1196DC92CE92F4013B
:1034A000B496EE2EBF2E80E38193EA17FB07E1F777
:1034B000D601ED91FC910680F781E02DB101C601A6
:1034C0000995A82ED601ED91FC910480F581E02D9F
:1034D000C6010995833048F4E82FF0E0EE0FFF1F96
:1034E000EA5CFE4FF080718002C0F12C712CCDB6E9
:1034F000DEB6EDB7FEB7E055F1090FB6F894FEBFA2
:103500000FBEEDBF8DB79EB70196E5E3F2E0659182
:1035100074910E94222583E2EBE2F3E0D80101904E
:103520000D928A95E1F73F922F921F92AF9283E11D
:1035300093E09F938F933F922F927F92FF9280E22E
:1035400093E09F938F931F930F931F9280E58F9328
:10355000BF92EF920E94142D482EF401ED58FF4FB8
:1035600010820FB6F894DEBE0FBECDBE6DE572E0E0
:1035700089E694E00E94290D61E572E089E694E015
:103580000E94930C512C612C712C2AE0B301A201F2
:1035900089E694E00E94CC0C6BE473E089E694E049
:1035A0000E94B70C6AE070E080E090E00E94681131
:1035B00065E472E0D40112968D919C9113970E945C
:1035C000930CF401E280F3802AE0B301A201C70169
:1035D0000E94CC0C6BE473E0C7010E94B70C67E358
:1035E00072E089E694E00E94290D65E3C4010E941F
:1035F000AC0F0E94A211D4015E966D937D938D93C2
:103600009C9391970E94A211F401668F778F80A3FB
:1036100091A364C0873109F461C08E3008F45EC0A4
:10362000C4010E948A085AC00E94A211D4015E9669
:10363000CD90DD90ED90FC909197DC01CB018C1941
:103640009D09AE09BF0989399A43A105B10508F45E
:1036500045C012C00E94A211F401C68CD78CE0A014
:10366000F1A0DC01CB018C199D09AE09BF09893994
:103670009A43A105B10590F163E3C4010E94AC0F28
:103680000E94A211D4015E966D937D938D939C93BD
:10369000919724C00E94A211F401C68CD78CE0A09F
:1036A000F1A0DC01CB018C199D09AE09BF09813164
:1036B0009742A105B10590F069E3C4010E94AC0FE7
:1036C00088EE93E0D40193969C938E9392970E94F8
:1036D000A211F401628F738F848F958FE09007049D
:1036E000F0900804D70112962C9130E0F901E55BC7
:1036F000FA4F8491F901E957FA4FD490F901ED5846
:10370000FA4FC490CC2009F45BC081110E94A31031
:10371000EC2DF0E0EE0FFF1FE759FA4FA591B491A1
:10372000EC91DE2209F44CC02FC0D7011296CD9047
:10373000DC901397F6018781883120F158E1852EBE
:10374000F6019085911103C0982E981801C0912C14
:10375000C6010E947B0981E60E94750451018A948A
:10376000BFEF8B1639F08FEF0E947504D5018D9352
:103770005D01F5CF992009F4FCC88FEF0E94750414
:103780009A94F8CF882EDCCFD70117968D919C9113
:103790001897019771F10E94A211D70113968D908D
:1037A0009D90AD90BC901697DC01CB0188199909CA
:1037B000AA09BB09C397A105B10508F01CC119C02E
:1037C000F70187819085009709F0F6C00E94A21149
:1037D000F70183809480A580B680DC01CB01881935
:1037E0009909AA09BB09883E9340A105B10508F0D3
:1037F000D1C080911B04811194C00E94A211C0907D
:103800001C04D0901D04E0901E04F0901F04DC0105
:10381000CB018C199D09AE09BF0989389341A105D7
:10382000B10508F47EC064E872E089E694E00E9485
:10383000290D84E0482E512C9EE2892E91E0992E8C
:1038400026E1A22E21E0B22E82E090E00E94D32356
:103850003C01DC018D929C9289E090E00E94D32390
:103860006C01FC01B182A08221E0228380E197E219
:10387000A0E0B0E083839483A583B68320E137E2A0
:103880003087278386E090E00E94D3237C01EAE022
:10389000F1E0DC011196FC93EE932FE931E01396F1
:1038A0003C932E93129738EC14963C9314971596EC
:1038B0001C92B30180910B0490910C040E94340976
:1038C000B60180910B0490910C040E943409B70159
:1038D00080910B0490910C040E94340941E0441A39
:1038E000510809F0B1CF63E772E089E694E00E94E5
:1038F000930C8091390590913A05B101681B790BC1
:1039000089E694E00E9430100E94A21160931C048A
:1039100070931D0480931E0490931F0481E0809394
:103920001B0480911B048130B1F40E94A211C0904D
:103930001C04D0901D04E0901E04F0901F04DC01D4
:10394000CB018C199D09AE09BF09813A9F40A105A1
:10395000B10508F075C0F0901B0482E0F81216C0A3
:103960000E94A21180901C0490901D04A0901E043F
:10397000B0901F04DC01CB0188199909AA09BB0981
:1039800089399A43A105B10508F05EC00E94660B13
:103990000C948514D70117968D919C9118970397D5
:1039A00009F427CF83E090E018969C938E931797A5
:1039B000C7010E94950D1DCF019709F01ACF0E94F3
:1039C000A211F70183809480A580B680DC01CB0131
:1039D00088199909AA09BB09C397A105B10508F47B
:1039E00008CF87819085892B19F1D70118961C92F1
:1039F0001E9217971AC0F70187819085892B41F491
:103A000082E090E0F70190878783C7010E94950DBF
:103A1000D70117968D919C911897019749F081E0F5
:103A200090E018969C938E931797C7010E94950D6E
:103A30000E94A211F7016383748385839683D9CE94
:103A400082E080931B0487CF0E94A21160931C0424
:103A500070931D0480931E0490931F04F0921B0426
:103A600095CF089508950C94682402970C94331D03
:103A700004970C94331D0F931F93CF93DF93CDB70F
:103A8000DEB769970FB6F894DEBF0FBECDBFDB017E
:103A90001296ED91FC911397DC0116968D919C91F5
:103AA0001797E817F90789F587819085039769F5D6
:103AB00089E693E09F938F938DE693E09F938F9396
:103AC0008E010F5F1F4F1F930F930E94442D0E9482
:103AD0002A0FB8010E941A0E64E874E089E694E0A7
:103AE0000E94930CBE01675E7F4F809139059091D3
:103AF0003A05681B790B89E694E00E9430100F901C
:103B00000F900F900F900F900F9069960FB6F8944A
:103B1000DEBF0FBECDBFDF91CF911F910F910895F2
:103B200004970C943B1D3F924F925F926F927F924D
:103B30008F929F92AF92BF92CF92DF92EF92FF92BD
:103B40000F931F93CF93DF93CDB7DEB7C354D10943
:103B50000FB6F894DEBF0FBECDBF7C01FB016280C3
:103B6000738044805580DC0118968D919C91199743
:103B70006816790609F071C2C20199278B35910543
:103B800091F08C35910509F068C20085118563EBD1
:103B900072E089E694E00E94930CB80189E694E013
:103BA0000E94150D5AC28084918467E972E089E60B
:103BB00094E00E94930CB40189E694E00E94150DF4
:103BC0006DE473E0CE01CD960E94770C6E01B9E1F1
:103BD000CB0ED11C88E1F60111928A95E9F78E018E
:103BE0000F5C1F4F6DE473E0C8010E94770C6DE419
:103BF00073E0CE0101960E94770C5401D5016D91BE
:103C00005D018BE8882E83E0982E20E090E2392E2B
:103C1000380C611107C08DA99EA9892B09F06EC0CF
:103C2000B12C77C06A30B9F33814A9F32230F9F017
:103C300028F4222351F0213089F059C0243079F141
:103C4000D0F0253009F441C052C06B3209F44AC0AB
:103C5000F4018081681709F44AC06FC06B3209F41F
:103C600043C06D3309F442C0CE01CD9632C06D33EE
:103C7000E9F1C8012EC06C3251F54D81442329F081
:103C8000B60189819A810E944E0F40E050E06DE4B8
:103C900073E0CE0101960E94470C24E028C06C32EC
:103CA000B1F44D81442339F0BE016F5D7F4F8981AE
:103CB0009A810E944E0F40E050E06DE473E0CE0127
:103CC00001960E94470C25E012C06C3281F0CE01B3
:103CD000019624962FAF24970E94250C24962FAD91
:103CE000249705C021E003C022E001C023E0D501F4
:103CF0006D915D01BFEF8B1A9B0A8BCF89A99AA9A1
:103D000024962FAF24970E940425B82E24962FAD19
:103D100024974D81442391F089819A81233011F4B5
:103D2000B60108C0BE01243019F46F5D7F4F02C098
:103D3000675D7F4F0E944E0F01C0B12CCE010196EE
:103D40000E94720CC8010E94720C63E773E0CE01FE
:103D500001960E94770CBE016F5F7F4FCE01CD961A
:103D60000E94C70B4C01CE0101960E94720C89285B
:103D700009F08AC019A26BE873E0CE01C7960E94D1
:103D8000770C6BE2CE01C7960E94250C69E673E0C2
:103D9000CE01C7960E94380CBB2041F11F92BF9202
:103DA00087E793E09F938F931F9284E08F931F93F5
:103DB0000F930E94142D6BE2CE01C7960E94250C32
:103DC000B801CE0101960E94770C4D815E81698118
:103DD0007A81CE01C7960E94F70BCE0101960E9410
:103DE000720C0FB6F894DEBF0FBECDBF6DE473E06A
:103DF000C8010E94770C898D882321F0B601C80183
:103E00000E94380C89A1882351F06CE2C8010E94FD
:103E1000250CBE016F5D7F4FC8010E94380C89A53B
:103E2000882351F06CE2C8010E94250CBE01675D39
:103E30007F4FC8010E94380C8DA99EA9892B69F07B
:103E40006DE3CE01C7960E94250C4DA95EA969A914
:103E50007AA9CE01C7960E94F70B4BADBE016F5FEA
:103E60007F4F8FA998AD0E944E0FC8010E94720C1F
:103E7000CE01C7960E94720C0E942A0FBE016F5F8E
:103E80007F4F0E941A0EE5C06AE773E0CE010196EB
:103E90000E94770CBE016F5F7F4FCE01CD960E94CE
:103EA000C70B5C01CE0101960E94720CAB2871F524
:103EB000A801B601CE0101960E94EF03CE01019642
:103EC0000E94D4030E94002520E030E04AE754E439
:103ED0000E94132B4B015C01D7011E966D917D91C1
:103EE0008D919C9151970E94A029A50194010E9457
:103EF0009B29882309F4A9C0C501B4010E94852B20
:103F0000F70166877787808B918B9FC06EE773E0A0
:103F1000CE0101960E94770CBE016F5F7F4FCE01EC
:103F2000CD960E94C70B5C01CE0101960E94720CD7
:103F3000AB2809F48EC062E873E0CE0101960E94BE
:103F4000770CBE016F5F7F4FCE01CD960E94C70BED
:103F50005C01CE0101960E94720CAB2871F5A8019C
:103F6000B601CE0101960E94EF03CE0101960E9498
:103F7000D4030E94002520E030E04AE754E40E9488
:103F8000132B4B015C01D70152966D917D918D9160
:103F90009C9155970E94A029A50194010E949B29FC
:103FA000882309F452C0C501B4010E94852BF70192
:103FB000628B738B848B958B48C066E873E0CE016F
:103FC00001960E94770CBE016F5F7F4FCE01CD96A8
:103FD0000E94C70B5C01CE0101960E94720CAB28B7
:103FE000C1F16AE873E0CE0101960E94770CBE0130
:103FF0006F5F7F4FCE01CD960E94C70B5C01CE0153
:1040000001960E94720CAB2821F5A801B601CE01E1
:1040100001960E94EF03CE0101960E94D4030E94F4
:1040200000254B015C019B01AC01D70156966D91B7
:104030007D918D919C9159970E949B29882329F00D
:10404000F701868A978AA08EB18ECE0101960E94D2
:10405000A503CE01CD960E94720CD7011A968D91C0
:104060009C911B976816790609F04FC0F201FF2753
:10407000EA33F10508F049C0EA59FF4F0C94EA2BE6
:104080006BE774E03EC06FE674E03BC06DE574E042
:1040900038C06CE474E035C064E374E032C06DE1B4
:1040A00074E02FC06DE074E02CC068EF73E029C0AD
:1040B0006EED73E026C06AEC73E023C061EB73E041
:1040C00020C06FE973E01DC068E873E01AC062E7C2
:1040D00073E017C060E673E014C06DE473E011C0D4
:1040E0006AE373E00EC062E273E00BC060E173E06C
:1040F00008C066EF72E005C062EE72E002C068ECD4
:1041000072E089E694E00E94290DCD5BDF4F0FB687
:10411000F894DEBF0FBECDBFDF91CF911F910F91FD
:10412000FF90EF90DF90CF90BF90AF909F908F90D7
:104130007F906F905F904F903F90089502970C94FE
:10414000931DCF92DF92EF92FF920F931F93CF9325
:10415000DF9389E694E010926C0410926B0428EED1
:10416000C22E23E0D22EE12CF12CC0926D04D0920D
:104170006E04E0926F04F092700420E831E0309316
:104180006A042093690425EC30E030937604209390
:10419000750424EC30E0309378042093770420EC0D
:1041A00030E030937A042093790421EC30E03093AE
:1041B0007C0420937B0422EC30E030937E04209337
:1041C0007D0426EC30E03093800420937F0410922D
:1041D0008204109283041092840410928504E1E218
:1041E000F0E0F0931E05E0931D0510921F0510925C
:1041F00020051092210546E050E060E070E0409319
:104200002205509323056093240570932505109291
:104210002605109227051092280510922905C0E264
:10422000C0932A0510922C0510922B0510922F0591
:1042300028E035E030932E0520932D0520E232E072
:1042400030930705209306052AE232E030931B05E0
:1042500020931A0510920C0510920B0510920E0572
:1042600010920D051092100510920F051092120574
:104270001092110510921405109213051092160554
:10428000109215052EEF31E03093090520930805B3
:104290009093190580931805A0E1A0931705F0935A
:1042A0005704E09356041092580410925904109247
:1042B0005A0440935B0450935C0460935D047093D4
:1042C0005E0410925F0410926004109261041092D8
:1042D0006204C09363041092650410926404109207
:1042E000680410923D0410923E0410923F04109214
:1042F000400441E454E0509367044093660448EA64
:1043000051E050933C0440933B0442EB51E0509306
:1043100054044093530410924504109244041092A4
:1043200047041092460410924904109248041092D7
:104330004B0410924A0410924D0410924C041092B7
:104340004F0410924E043093420420934104909302
:1043500052048093510428E02093500490933A042F
:10436000809339046BE076E083E296E00E94312589
:1043700089E090E090932204809321048AE090E009
:10438000909324048093230410922704C09328045C
:104390001092290485E080932F0485E090E0A0E04E
:1043A000B0E08093350490933604A0933704B09323
:1043B000380410922A0488E792E0909302048093D4
:1043C000010486E892E0909304048093030480E95A
:1043D00092E090930604809305048BE090E00E94A5
:1043E000D323EC018EE492E0998388831B821C82A4
:1043F0001D821E8281E090E098878F831A8619863D
:1044000084E08A8360E00E94FC10D0930804C0938B
:1044100007040E942A0F90930A0480930904809154
:10442000F9039091FA03892B09F01FC188E790E006
:104430000E94D323EC0188E692E0998388838FE180
:1044400090E00E94D3238C01DC0113961C921E92F3
:104450001297FC01C482D582E682F78286E592E05B
:1044600091838083178A168A118E108E138E128E76
:10447000158E148E668D6E7F6D7F668F669561706A
:1044800081E0682783E00E94CC1061E083E00E9415
:10449000FC10EAE8F5E0E491D8015096EC93E6E7E9
:1044A000F5E0E491F0E0EE0FFF1FE15AFA4F85913D
:1044B0009491F801928B818B60E082E00E94FC1065
:1044C000D8015E968C9181FD04C061E082E00E947B
:1044D000CC1082E0F8018487E9E8F5E0E491D801A6
:1044E0001D96EC93E5E7F5E0E491F0E0EE0FFF1F99
:1044F000E759FA4F85919491F801978786871B8336
:104500000A831C821D8A1E8A1F8A188E198E0E9499
:10451000A2116A8F7B8F8C8F9D8F0E94A2116E8F4C
:104520007F8F88A399A31BA21AA2FE01EA58FF4F0E
:1045300011821082E157F109CE0145961192119234
:10454000E817F907D9F760E0CE010E94F307EA8186
:10455000FB81138E128E118E108E178A168A8DE9AA
:1045600091E0958F848F8485863108F04DC02DEBC6
:1045700030E0378B268B2BE931E0318F208F2CE216
:1045800031E0338F228F90916800883050F021E025
:104590008E3008F420E081E001C0880F2A95EAF708
:1045A00001C084E0892B809368009485983038F0AE
:1045B0009E3040F0963148F020E030E008C02DE613
:1045C00030E005C02BE630E002C02CE630E0348B52
:1045D000238B983030F481E001C0880F9A95EAF778
:1045E0000EC0292F30E09E3018F42850310902C047
:1045F0002E50310981E001C0880F2A95EAF7858B9A
:10460000848D958D0197F1F7828D938D892B49F1DA
:104610004091F7035091F8034E175F0711F14115D0
:10462000510571F0DA0153962D913C915497D901BF
:104630009C91DA0155968C9180958923D9018C93B0
:10464000868D8E7F868F1092F6031092F503F0937D
:10465000F803E093F703A389B4899C918589892B9A
:104660008C93D093FA03C093F9038091F90390914E
:10467000FA0390930C0480930B048091FB039091B8
:10468000FC03892B09F042C082E090E00E94D32312
:10469000FC0180E792E091838083A0917904B0913E
:1046A0007A0482E08C93A0917504B09176041C92F8
:1046B000A0917704B09178048FEC8C9310928104D0
:1046C000A0917D04B0917E0486E08C93A0917B0440
:1046D000B0917C049C9190619C93A0917B04B091DB
:1046E0007C049C9198609C93A0917B04B0917C0485
:1046F0009C9190689C93A0917B04B0917C049C91C8
:104700009F7D9C93F093FC03E093FB038091FB035C
:104710009091FC0390930E0480930D0410920F046B
:1047200010921004109211041092120410921304AB
:10473000109214041092150410921604109217048B
:10474000109218041092190410921A0410921B046B
:104750000E94A21160931C0470931D0480931E0498
:1047600090931F04109220040E94A2116093FD03F5
:104770007093FE038093FF0390930004DF91CF9129
:104780001F910F91FF90EF90DF90CF90089581E0FF
:1047900094E00E94A4038BE394E00E94710686E0FB
:1047A00095E00C94BF06CF93DF938230910510F40F
:1047B00082E090E0E0913B05F0913C0520E030E0A4
:1047C000C0E0D0E0309711F140815181481759077E
:1047D000C0F04817590761F482819381209719F03E
:1047E0009B838A832BC090933C0580933B0526C016
:1047F0002115310519F04217530718F49A01BE012B
:10480000DF01EF010280F381E02DDCCF21153105BE
:1048100009F1281B390B2430310590F412968D9143
:104820009C9113976115710521F0FB01938382839D
:1048300004C090933C0580933B05FD01329644C033
:10484000FD01E20FF31F81939193225031092D93C3
:104850003C933AC02091390530913A05232B41F41D
:10486000209102013091030130933A0520933905DC
:1048700020910001309101012115310541F42DB73E
:104880003EB74091040150910501241B350BE09186
:104890003905F0913A05E217F307A0F42E1B3F0B00
:1048A0002817390778F0AC014E5F5F4F24173507A2
:1048B00048F04E0F5F1F50933A054093390581939E
:1048C000919302C0E0E0F0E0CF01DF91CF91089535
:1048D0000F931F93CF93DF93009709F48CC0FC01D3
:1048E00032971382128200913B0510913C0501150D
:1048F000110581F420813181820F931F20913905A8
:1049000030913A052817390779F5F0933A05E09385
:10491000390571C0D80140E050E0AE17BF0750F430
:1049200012962D913C911397AD012115310509F196
:10493000D901F3CF9D01DA01338322836081718134
:10494000860F971F8217930769F4EC01288139813C
:10495000260F371F2E5F3F4F318320838A819B8133
:1049600093838283452B29F4F0933C05E0933B0528
:1049700042C01396FC93EE931297ED014991599121
:104980009E01240F351FE217F30771F48081918196
:10499000840F951F029611969C938E93828193812A
:1049A00013969C938E931297E0E0F0E0D801129654
:1049B0008D919C911397009719F0F8018C01F6CF17
:1049C0008D919C9198012E5F3F4F820F931F2091F4
:1049D000390530913A052817390769F4309729F4D9
:1049E00010923C0510923B0502C013821282109374
:1049F0003A0500933905DF91CF911F910F910895EA
:104A0000662777270C946A27FC0188279927E89462
:104A100021912032E9F3293010F02E30C8F32B32E7
:104A200041F02D3239F4689404C00E942925820F88
:104A3000911D219120532A30C0F31EF49095819549
:104A40009F4F0895FB01DC0105900D920020E1F7D6
:104A500008957AE0979F902D879F802D910D1124C6
:104A600008950F931F93CF93DF93009731F461154F
:104A7000710519F480E090E03AC08B01EC016EE022
:104A800070E081E090E00E944E27FC01892B91F3B9
:104A900080E883830115110571F01387028781E88F
:104AA000838380913D0590913E05892B21F4F093FD
:104AB0003E05E0933D052097C9F0D187C0878381EB
:104AC0008260838380913F0590914005892B71F42A
:104AD000F0934005E0933F05809141059091420598
:104AE000892B21F4F0934205E0934105CF01DF913A
:104AF000CF911F910F910895ACE0B0E0E2E8F5E2AC
:104B00000C94CD2A7C016B018A01FC01178216826C
:104B1000838181FFBDC1CE0101964C01F7019381D4
:104B2000F60193FD859193FF81916F01882309F42C
:104B3000ABC1853239F493FD859193FF81916F016B
:104B4000853229F4B70190E00E940529E7CF512C66
:104B5000312C20E02032A0F48B3269F030F4803226
:104B600059F0833269F420612CC08D3239F08033E2
:104B700039F4216026C02260246023C0286021C04F
:104B800027FD27C030ED380F3A3078F426FF06C0F5
:104B9000FAE05F9E300D1124532E13C08AE0389E38
:104BA000300D1124332E20620CC08E3221F426FDEC
:104BB0006BC1206406C08C3611F4206802C08836B0
:104BC00041F4F60193FD859193FF81916F0181116D
:104BD000C1CF982F9F7D9554933028F40C5F1F4FC1
:104BE000FFE3F9830DC0833631F0833771F08335ED
:104BF00009F05BC022C0F801808189830E5F1F4FDE
:104C000044244394512C540115C03801F2E06F0E36
:104C1000711CF801A080B18026FF03C0652D70E0F3
:104C200002C06FEF7FEFC5012C870E94FA282C018C
:104C300083012C852F77222E17C03801F2E06F0EEA
:104C4000711CF801A080B18026FF03C0652D70E0C3
:104C500002C06FEF7FEFC5012C870E94E8282C016E
:104C60002C852068222E830123FC1BC0832D90E01D
:104C700048165906B0F4B70180E290E00E94052979
:104C80003A94F4CFF50127FC859127FE81915F01CD
:104C9000B70190E00E94052931103A94F1E04F1AD3
:104CA00051084114510471F7E5C0843611F089367A
:104CB00039F5F80127FF07C06081718182819381F6
:104CC0000C5F1F4F08C060817181072E000C880B9C
:104CD000990B0E5F1F4F2F76722E97FF09C090958C
:104CE0008095709561957F4F8F4F9F4F2068722EF2
:104CF0002AE030E0A4010E943D29A82EA81844C053
:104D0000853729F42F7EB22E2AE030E025C0F22F1D
:104D1000F97FBF2E8F36C1F018F4883579F0B4C012
:104D2000803719F0883721F0AFC02F2F2061B22EC5
:104D3000B4FE0DC08B2D8460B82E09C024FF0AC0BC
:104D40009F2F9660B92E06C028E030E005C020E114
:104D500030E002C020E132E0F801B7FE07C0608118
:104D60007181828193810C5F1F4F06C060817181C8
:104D700080E090E00E5F1F4FA4010E943D29A82E05
:104D8000A818FB2DFF777F2E76FE0BC0372D3E7FB8
:104D9000A51450F474FE0AC072FC08C0372D3E7E84
:104DA00005C0BA2C372D03C0BA2C01C0B52C34FF76
:104DB0000DC0FE01EA0DF11D8081803311F4397EB2
:104DC00009C032FF06C0B394B39404C0832F867821
:104DD00009F0B39433FD13C030FF06C05A2CB3144E
:104DE00018F4530C5B18B32CB31468F4B70180E2C9
:104DF00090E03C870E940529B3943C85F5CFB3141D
:104E000010F43B1801C0312C34FF12C0B70180E30D
:104E100090E03C870E9405293C8532FF17C031FD98
:104E200003C088E790E002C088E590E0B7010CC0BD
:104E3000832F867859F031FF02C08BE201C080E2F7
:104E400037FD8DE2B70190E00E940529A51438F4E2
:104E5000B70180E390E00E9405295A94F7CFAA9405
:104E6000F401EA0DF11D8081B70190E00E9405294F
:104E7000A110F5CF332009F451CEB70180E290E0C4
:104E80000E9405293A94F6CFF7018681978102C0E6
:104E90008FEF9FEF2C96E2E10C94E92A0F931F937A
:104EA000CF93DF93869F8001879F100D969F100DF3
:104EB0001124C8010E94D323EC01009729F0A80116
:104EC00060E070E00E94F328CE01DF91CF911F9146
:104ED0000F910895A0E0B0E0E0E7F7E20C94D12A4A
:104EE000EC017B016115710519F0DB018D939C9339
:104EF0008E010F5F1F4F7880872D90E00E94C7289A
:104F0000892B11F0E801F4CFBDE27B1205C00F5FE1
:104F10001F4F7980C1E008C0EBE27E1204C08E0111
:104F20000E5F1F4F7980C0E06801F1E0CF1AD10811
:104F300043E050E068E471E0C6010E94D028892B6C
:104F4000F1F4680122E0C20ED11C45E050E063E4B8
:104F500071E0C6010E94D028892B21F4680187E006
:104F6000C80ED11CE114F10419F0D701CD92DC92E6
:104F7000C111FFC060E070E080E89FE703C143E03B
:104F800050E060E471E0C6010E94D028892B51F402
:104F9000E114F10409F4F2C00E5F1F4FF701118311
:104FA0000083ECC0680160E070E0CB0100E010E03D
:104FB000F601D0EDD70DDA3058F52C2F2260622E95
:104FC0002C2F2870C2FF05C0211128C00F5F1F4F72
:104FD00025C0222311F001501109A5E0B0E09B018A
:104FE000AC010E94C22A4B015C01880C991CAA1CCE
:104FF000BB1CC501B4016D0F711D811D911D683968
:10500000A9E97A078A07A9E19A0740F0C66005C0B6
:10501000DE3F51F4C3FD44C0C8606C2EBFEFCB1A15
:10502000DB0A7080C62DC4CF2D2F2F7D2531C1F511
:1050300040814D3211F4C06106C04B3221F03196EF
:1050400021E030E006C03296D60111964C9122E064
:1050500030E0A0EDA40FAA3018F0E21BF30B20C043
:1050600040E050E04038BCE05B075CF49A01220F5E
:10507000331F220F331F420F531F440F551F4A0F78
:10508000511D3196DF0111972C91A0EDA20FAA308E
:1050900048F3C4FF03C0519541955109040F151FF2
:1050A000C1FF07C0E114F10421F03197D701ED935E
:1050B000FC930E94A029C370C33019F06B017C01DE
:1050C00006C06B017C01F7FAF094F7F8F09420E049
:1050D00030E0A901C701B6010E949B29882309F489
:1050E00045C017FF06C0119501951109CFE5D1E024
:1050F00002C0C7E7D1E05E01B8E1AB1AB1084601D2
:10510000BE2DAF2D90E2E92EF12C0E151F0584F077
:10511000FE012591359145915491B4018B2F9A2F21
:105120000E94012A4B01B82FA92F0E191F09EDCF9C
:105130002497F594E794CA15DB0539F76401EB2E43
:10514000FA2E8E2D880F8F2D881F8F3F49F020E07B
:1051500030E0A901C701B6010E949B29811106C058
:1051600082E290E09093440580934305C701B60125
:1051700009C060E070E080E89FEF04C060E070E08C
:1051800080EC9FE7CDB7DEB7EEE00C94ED2A9111ED
:105190000C946E2A803219F089508550C8F7089512
:1051A000FB01DC014150504088F08D9181341CF0AE
:1051B0008B350CF4805E659161341CF06B350CF41A
:1051C000605E861B611171F3990B0895881BFCCFFB
:1051D000FC010590615070400110D8F780959095C2
:1051E0008E0F9F1F0895DC0101C06D934150504008
:1051F000E0F70895FC016150704001900110D8F76C
:10520000809590958E0F9F1F08950F931F93CF93B6
:10521000DF93FB01238121FD03C08FEF9FEF28C0A7
:1052200022FF16C0468157812481358142175307DA
:1052300044F4A081B1819D012F5F3F4F31832083D2
:105240008C93268137812F5F3F4F3783268310C091
:10525000EB01092F182F0084F185E02D0995892B8A
:10526000E1F68E819F8101969F838E83812F902FFF
:10527000DF91CF911F910F910895FA01AA2728304D
:1052800051F1203181F1E8946F936E7F6E5F7F4F13
:105290008F4F9F4FAF4FB1E03ED0B4E03CD0670F8F
:1052A000781F891F9A1FA11D680F791F8A1F911DE2
:1052B000A11D6A0F711D811D911DA11D20D009F432
:1052C00068943F912AE0269F11243019305D319374
:1052D000DEF6CF010895462F4770405D4193B3E05D
:1052E0000FD0C9F7F6CF462F4F70405D4A3318F004
:1052F000495D31FD4052419302D0A9F7EACFB4E0B5
:10530000A6959795879577956795BA95C9F700976C
:105310006105710508959B01AC010A2E069457950D
:10532000479537952795BA95C9F7620F731F841F64
:10533000951FA01D08950E94DD2908F481E00895BD
:10534000E89409C097FB3EF490958095709561951F
:105350007F4F8F4F9F4F9923A9F0F92F96E9BB27D5
:105360009395F695879577956795B795F111F8CF51
:10537000FAF4BB0F11F460FF1BC06F5F7F4F8F4FBC
:105380009F4F16C0882311F096E911C0772321F0B2
:105390009EE8872F762F05C0662371F096E8862F4A
:1053A00070E060E02AF09A95660F771F881FDAF7A1
:1053B000880F9695879597F90895990F0008550FCE
:1053C000AA0BE0E8FEEF16161706E807F907C0F08B
:1053D00012161306E407F50798F0621B730B840B93
:1053E000950B39F40A2661F0232B242B252B21F46D
:1053F00008950A2609F4A140A6958FEF811D811D0D
:1054000008950E94142A0C94882A0E947A2A38F05F
:105410000E94812A20F0952311F00C94712A0C949B
:10542000772A11240C94BC2A0E94992A70F3959F24
:10543000C1F3950F50E0551F629FF001729FBB278B
:10544000F00DB11D639FAA27F00DB11DAA1F649F27
:105450006627B00DA11D661F829F2227B00DA11DDA
:10546000621F739FB00DA11D621F839FA00D611D60
:10547000221F749F3327A00D611D231F849F600D81
:10548000211D822F762F6A2F11249F5750409AF0AA
:10549000F1F088234AF0EE0FFF1FBB1F661F771F36
:1054A000881F91505040A9F79E3F510580F00C9401
:1054B000712A0C94BC2A5F3FE4F3983ED4F386959E
:1054C00077956795B795F795E7959F5FC1F7FE2BA1
:1054D000880F911D9695879597F9089599278827A4
:1054E000089597F99F6780E870E060E008959FEF66
:1054F00080EC089500240A9416161706180609066B
:10550000089500240A941216130614060506089539
:10551000092E0394000C11F4882352F0BB0F40F4C1
:10552000BF2B11F460FF04C06F5F7F4F8F4F9F4F01
:10553000089557FD9058440F551F59F05F3F71F083
:105540004795880F97FB991F61F09F3F79F08795EA
:105550000895121613061406551FF2CF4695F1DF73
:1055600008C0161617061806991FF1CF8695710503
:10557000610508940895E894BB2766277727CB0137
:1055800097F908950E94042BA59F900DB49F900D4C
:10559000A49F800D911D112408952F923F924F9248
:1055A0005F926F927F928F929F92AF92BF92CF92B3
:1055B000DF92EF92FF920F931F93CF93DF93CDB7BC
:1055C000DEB7CA1BDB0B0FB6F894DEBF0FBECDBF34
:1055D00009942A88398848885F846E847D848C8405
:1055E0009B84AA84B984C884DF80EE80FD800C810E
:1055F0001B81AA81B981CE0FD11D0FB6F894DEBFF1
:105600000FBECDBFED010895A29FB001B39FC001B1
:10561000A39F700D811D1124911DB29F700D811DDE
:105620001124911D08950E94272B0C94882A0E9412
:10563000812A58F00E947A2A40F029F45F3F29F02D
:105640000C94712A51110C94BC2A0C94772A0E9454
:10565000992A68F39923B1F3552391F3951B550BC0
:10566000BB27AA2762177307840738F09F5F5F4F35
:10567000220F331F441FAA1FA9F335D00E2E3AF074
:10568000E0E832D091505040E695001CCAF72BD08C
:10569000FE2F29D0660F771F881FBB1F26173707DD
:1056A0004807AB07B0E809F0BB0B802DBF01FF270F
:1056B00093585F4F3AF09E3F510578F00C94712A51
:1056C0000C94BC2A5F3FE4F3983ED4F3869577951B
:1056D0006795B795F7959F5FC9F7880F911D9695C8
:1056E000879597F90895E1E0660F771F881FBB1F24
:1056F000621773078407BA0720F0621B730B840BD1
:10570000BA0BEE1F88F7E09508950E94A12A88F051
:105710009F5798F0B92F9927B751B0F0E1F0660F75
:10572000771F881F991F1AF0BA95C9F714C0B130B6
:1057300091F00E94BB2AB1E008950C94BB2A672F18
:10574000782F8827B85F39F0B93FCCF386957795E5
:105750006795B395D9F73EF49095809570956195CE
:105760007F4F8F4F9F4F089597FB072E16F400949D
:1057700007D077FD09D00E94F02B07FC05D03EF43E
:10578000909581959F4F0895709561957F4F0895ED
:10579000A1E21A2EAA1BBB1BFD010DC0AA1FBB1F35
:1057A000EE1FFF1FA217B307E407F50720F0A21BA7
:1057B000B30BE40BF50B661F771F881F991F1A9414
:1057C00069F760957095809590959B01AC01BD013E
:1057D000CF010895EE0FFF1F0590F491E02D09947D
:1057E000AA1BBB1B51E107C0AA1FBB1FA617B70707
:1057F00010F0A61BB70B881F991F5A95A9F7809523
:105800009095BC01CD010895A0E0B0E0EAE0FCE293
:105810000C94D12AEC01009721F4CB010E94D323F0
:10582000B8C0FC01E60FF71F9C0122503109E217B6
:10583000F30708F4ACC0D9010D911C91119706171C
:105840001707B0F00530110508F49FC0C801049790
:105850008617970708F499C002501109061B170B09
:10586000019311936D937C93CF010E9468248DC0A6
:105870005B01A01AB10A4C01800E911EA0913B055C
:10588000B0913C0540E050E0E12CF12C109709F478
:105890004AC0A815B905D1F56D907C9011976301A8
:1058A00082E0C80ED11CCA14DB0480F1A3014A199E
:1058B0005B096A0182E0C80ED11C1296BC90129757
:1058C0001396AC91B5E0CB16D10440F0B282A3831D
:1058D00051834083D9016D937C930AC00E5F1F4FA3
:1058E000C301800F911FF90191838083EB2DFA2F63
:1058F000E114F10431F0D7011396FC93EE93129763
:1059000044C0F0933C05E0933B053FC08D919C91D2
:1059100011974817590708F4AC017D0112960D90B4
:10592000BC91A02DB3CF8091390590913A0588158F
:105930009905E1F446175707C8F48091000190914A
:105940000101009741F48DB79EB740910401509139
:105950000501841B950BE817F907C8F4F0933A0585
:10596000E0933905F901718360830FC0CB010E9478
:10597000D3237C01009759F0A801BE010E94D32CCB
:10598000CE010E946824C70104C0CE0102C080E09D
:1059900090E0CDB7DEB7EEE00C94ED2A81E090E028
:1059A000F8940C94672DFB01DC0102C001900D926C
:1059B00041505040D8F70895FB01DC018D910190D2
:1059C00080190110D9F3990B0895FB01DC010190B6
:1059D0000D920020E1F70895FB01DC014150504099
:1059E00030F08D910190801919F40020B9F7881BCF
:1059F000990B0895FB0151915523A9F0BF01DC01DA
:105A00004D9145174111E1F759F4CD010190002066
:105A100049F04D9140154111C9F3FB014111EFCF00
:105A200081E090E001970895AEE0B0E0EAE1FDE2A8
:105A30000C94DB2A0D891E898F89988D26E02C8392
:105A40001A83098397FF02C080E090E801979E8344
:105A50008D83AE01455E5F4F698D7A8DCE010196D3
:105A60000E947C254D815E8157FD0AC02F813885BB
:105A7000421753070CF49A01F801E20FF31F10824A
:105A80002E96E4E00C94F72AAEE0B0E0EAE4FDE202
:105A90000C94DB2A0D891E8986E08C831A83098386
:105AA0008FEF9FE79E838D83AE01475E5F4F6F89C7
:105AB000788DCE0101960E947C252F813885F801D2
:105AC000E20FF31F10822E96E4E00C94F72A12E006
:105AD000CFECD2E004C0FE010E94EA2B2196C03D2B
