:100000000C94CD020C94F5020C94F5020C943B0474
:100010000C943B040C943B040C94F5020C94F502F4
:100020000C94F5020C94F5020C94F5020C94F50274
:100030000C94F5020C94F5020C94F5020C94F50264
:100040000C9423120C94F5020C94F7080C94D1082C
:100050000C94F5020C94F5020C94F5020C94F50244
:100060000C94F5020C94F502701573158016761534
:100070007C1579157F1580168016801682158515DA
:1000800088158E158B1580168016801680168016A2
:1000900091159415971580169A158016801680165E
:1000A00080168016801680168016801680168016A0
:1000B0008016801680168016801680168016801690
:1000C0008016801680168016801680169D15A01545
:1000D000A315A615A915AC15AF15B2158818741A75
:1000E000741A9B18741AAE18741A741A741A741A43
:1000F0009619E2183C198319741A741A741A741A2E
:10010000741A741A741AA919F519741A601A7A1BD8
:100110007D1C7D1C7E1B7D1CA21B7D1C7D1C7D1CF3
:100120007D1C5D1CBB1BCF1BE71BE41B7D1C7D1CCA
:100130007D1C7D1C7D1C5D1C0E1C221C7D1C3A1C24
:100140004E414E494E495459494E46CDCCCC3D0ABC
:10015000D7233C17B7D13877CC2B329595E6241F9F
:10016000B14F0A000020410000C84200401C462058
:10017000BCBE4CCA1B0E5AAEC59D7400407A10F32B
:100180005A00A0724E18090010A5D4E80000E876C5
:1001900048170000E40B54020000CA9A3B0000001C
:1001A000E1F505000080969800000040420F000035
:1001B00000A08601000000102700000000E80300F6
:1001C0000000006400000000000A000000000001C0
:1001D00000000000002C76D888DC674F0823DFC1C0
:1001E000DFAE59E1B1B796E5E3E453C63AE651997B
:1001F0007696E8E6C28426EB898C9B62ED407C6FA4
:10020000FCEFBC9C9F40F2BAA56FA5F490055A2A5A
:10021000F75C936B6CF9676DC11BFCE0E40D47FE66
:10022000F520E6B500D0ED902E030094357705005B
:1002300080841E080000204E0A000000C80C3333E2
:1002400033330F986E12831141EF8D2114893BE6F1
:100250005516CFFEE6DB18D1844B381BF77C1D907A
:100260001DA4BBE424203284725E228100C9F124E3
:10027000ECA1E53D2700010203040557494649204A
:100280005245515545535420504F535445442045F1
:1002900052524F52005749464920524551554553F5
:1002A0005420504F53544544005749464920574124
:1002B0004954494E472052455120524553504F4EC4
:1002C00053450057494649205245515545535420FE
:1002D00053454E44005749464920524551554553D0
:1002E0005420495320504F5354494E4700574946D4
:1002F0004920504F5354494E4720524541445900DC
:100300005749464920535441525420504F53544961
:100310004E4700574946492053544F5020504F53A1
:1003200054494E4700574946492053455256455275
:1003300020434F4E4E4543544544005749464920BB
:1003400053455256455220434F4E4E454354494E15
:100350004700574946492053455256455220434885
:1003600045434B0057494649205345525645522074
:10037000444953434F4E4E45435445440057494624
:100380004920574C414E20434F4E4E45435445441F
:10039000005749464920574C414E20434F4E4E4549
:1003A0004354494E47204641494C0057494649204D
:1003B000574C414E20434F4E4E454354494E470003
:1003C0005749464920574C414E20434845434B002E
:1003D0005749464920574C414E20444953434F4EBC
:1003E0004E4543544544005749464920494E4954D7
:1003F00049414C495A454420320057494649204911
:100400004E495449414C495A4544005749464920B0
:10041000494E495449414C495A494E4720320057A8
:1004200049464920494E495449414C495A494E4749
:10043000005749464920424C5544454400574946D7
:1004400049204F464600467265652052414D203D89
:100450002000535441525400467265652052414D6C
:10046000203D20002E2E2E20574149542052455326
:10047000502054494D454F555421002D2D20526593
:100480006365697665643A2000506F737420526525
:10049000717565737420746578743A200024204661
:1004A0007265652052414D203D200041542B434947
:1004B00050434C4F53450041542B52535400415428
:1004C0002B43574155544F434F4E4E3D310024204E
:1004D000467265652052414D203D200020467265E0
:1004E000652052414D203D200020706F696E74657B
:1004F000723A002073697A653A002D2020506F709F
:1005000020696E6465783A00204672656520524124
:100510004D203D20002073697A653A0020693D0036
:1005200020706F696E7465723A002B2050555348E5
:1005300020696E6465783A0041540000000000258F
:100540000028002B000000000023002600290004E2
:10055000040404040404040202020202020303036A
:100560000303030102040810204080010204081064
:100570002001020408102000000000240027002AA7
:100580000000000008000201000003040700000052
:10059000000000000000571EEC2111241FBECFEF09
:1005A000D8E0DEBFCDBF14E0A0E0B1E0ECE3FCE5B5
:1005B00002C005900D92A637B107D9F726E0A6E74D
:1005C000B4E001C01D92A234B207E1F712E0CCEC16
:1005D000D2E004C02197FE010E94942CCB3CD107AD
:1005E000C9F70E949D160C94112E0C9400002091C6
:1005F000BA043091BB042817390771F49091B804FC
:100600008091B904981741F0E091B804F0E0EA58FD
:10061000FB4F808190E008958FEF9FEF089508953C
:100620001F93CF93DF93DC015C962D913C915D97F6
:100630002115310539F481E090E013969C938E9357
:1006400012973DC05196ED91FC91529750969C9116
:100650005097892F80951FB75E964C915E9741FB0E
:10066000772770F941FD6095F8944081772311F068
:10067000492B01C048234083E9012197F1F748E065
:10068000508160FF02C0592B01C058235083E901FB
:100690002197F1F76695415099F7772321F09081E2
:1006A0008923808303C08081982B90831FBF5C9631
:1006B0008D919C915D970197F1F721E030E0C901A0
:1006C000DF91CF911F9108952091BA043091BB041E
:1006D0002817390771F48091B9042091B80490E08B
:1006E000805C9F4F821B910960E470E00E945E2C49
:1006F000089580E090E008952091BA043091BB0401
:1007000028173907B9F49091B8048091B904981763
:1007100089F0E091B804F0E0EA58FB4F8081209125
:10072000B80430E02F5F3F4F2F7333272093B80476
:1007300090E008958FEF9FEF0895089580E090E096
:1007400008950895FC0120813181828193812817C9
:10075000390719F0822F0C94D21008950F931F932C
:10076000CF93DF93EC01CB01088119817B836A83EE
:100770000E9444229983888320E030E08C819D810F
:100780002817390770F4E881F981E20FF31F3097D9
:1007900029F0D801A20FB31F8C9180832F5F3F4FA8
:1007A000EDCFC801DF91CF911F910F910C94D92209
:1007B0000F931F93CF93DF93FC0104811581FB01FD
:1007C000C481D581AE010C171D0708F4A801FB01F7
:1007D00060817181FC01808191810E94962D00973A
:1007E00069F481E090E0C017D10740F00C171D07B5
:1007F00010F080E090E0919581959109DF91CF9183
:100800001F910F910895CF93DF93EC019CB59F7DCD
:100810009CBD9CB5937F9CBD9CB59C7F9CBD9DB5AC
:1008200091609DBD8A810E94D2108C899D89DF9143
:10083000CF910C945A118EBD00000DB407FEFDCF70
:100840008EB508951F93CF93DF93EC01162F60E0D0
:100850000E940304812F8F710E941B048FEF0E945E
:100860001B04182F61E0CE010E940304812FDF9149
:10087000CF911F9108951F920F920FB60F921124DE
:100880002F933F934F935F936F937F938F939F9398
:10089000AF93BF93EF93FF93E091BA04F091BB0441
:1008A000309709F451C0968DA685B785858591FF4F
:1008B00004C09C91892329F447C09C91892309F0A5
:1008C00043C0A389B4899C918589809589238C93A1
:1008D000868997890197F1F7608D718DA685B78517
:1008E000558538E020E0CB010197F1F7822F90E0A9
:1008F00095958795282F4C91452309F02068315014
:1009000091F7868D81FD20958091B90490E0019644
:100910008F7399273091B804381749F0A091B90422
:10092000B0E0AA58BB4F2C938093B90403C0868DC6
:100930008160868F828D938D0197F1F7A389B489A9
:100940009C918589892B8C93FF91EF91BF91AF91F9
:100950009F918F917F916F915F914F913F912F91D7
:100960000F900FBE0F901F901895EF92FF920F936C
:100970001F93CF93DF93EC018C819D81861797079E
:1009800010F57A018B018A819B818617970740F4C5
:10099000685F7F4F8617970718F4CE010E94AE0359
:1009A0008C819D818017910758F4E881F981E80FC7
:1009B000F91F309719F0D7012C9120830196F2CFBF
:1009C0001D830C8305C06817790710F47D836C8341
:1009D000DF91CF911F910F91FF90EF900895FC014F
:1009E000808191810C94D922CF93DF93EC016C81AB
:1009F0007D816F5F7F4F8A819B818617970718F4EF
:100A0000CE010E94AE03E881F9818C819D81E80FBF
:100A1000F91F108288819981DF91CF9108950895FF
:100A2000CF92DF92EF92FF920F931F93FB01DC01B5
:100A300000E010E098016A01E12CF12C0C151D0575
:100A40002E053F0538F461916D930F5F1F4F2F4FB7
:100A50003F4FF4CF840F951F1F910F91FF90EF90A0
:100A6000DF90CF900895AF92BF92CF92DF92EF9236
:100A7000FF920F931F93CF93DF931F92CDB7DEB7F3
:100A80008C016B017A01590188E090E0F8019383B1
:100A90008283158214820E944422F801918380830C
:100AA000F601848195818E159F0510F40E94782DA2
:100AB0001982BC016E197F09A616B70608F4B501A4
:100AC000AE014F5F5F4FC8010E94B504F801448139
:100AD0005581F601608171816E0D7F1DF801808165
:100AE00091810E9410050F90DF91CF911F910F917E
:100AF000FF90EF90DF90CF90BF90AF900895CF928E
:100B0000DF92EF92FF920F931F93CF93DF931F9289
:100B1000CDB7DEB77C016B0188E090E0F7019383ED
:100B20008283158214820E944422F701918380837C
:100B3000C114D104B9F0F60101900020E9F7319712
:100B40008F010C191D091982AE014F5F5F4FB8016B
:100B5000C7010E94B504A801B601F7018081918107
:100B60000E9410050F90DF91CF911F910F91FF9080
:100B7000EF90DF90CF900895CF92DF92EF92FF92A7
:100B80000F931F93CF93DF936C017A018B01C0E029
:100B9000D0E0CE15DF0589F0D8016D918D01D60129
:100BA000ED91FC910190F081E02DC6010995892B12
:100BB00011F47E0102C02196ECCFC701DF91CF91E5
:100BC0001F910F91FF90EF90DF90CF900895FC015F
:100BD000538D448D252F30E0842F90E0821B930BA2
:100BE000541710F0CF96089501970895FC01918D48
:100BF000828D981761F0828DDF01A80FB11D5D967F
:100C00008C91928D9F5F9F73928F90E008958FEFEC
:100C10009FEF0895FC01918D828D981731F0828DA0
:100C2000E80FF11D858D90E008958FEF9FEF0895F7
:100C3000FC01918D228D892F90E0805C9F4F821B5B
:100C400091098F73992708958BE195E00E9418060A
:100C500021E0892B09F420E0822F0895FC01848D86
:100C6000DF01A80FB11DA35ABF4F2C91848D90E0D6
:100C700001968F739927848FA689B7892C93A089B1
:100C8000B1898C9180648C93938D848D981306C068
:100C90000288F389E02D80818F7D80830895EF9213
:100CA000FF920F931F93CF93DF93EC0181E0888F26
:100CB0009B8D8C8D981305C0E889F989808185FD0D
:100CC00024C0F62E0B8D10E00F5F1F4F0F731127FE
:100CD000E02E8C8DE8120CC00FB607FCFACFE88925
:100CE000F989808185FFF5CFCE010E942E06F1CFD4
:100CF0008B8DFE01E80FF11DE35AFF4FF0820B8F41
:100D0000EA89FB898081806207C0EE89FF89608360
:100D1000E889F98980818064808381E090E0DF91B7
:100D2000CF911F910F91FF90EF900895CF93DF9394
:100D3000EC01888D8823C9F0EA89FB89808185FDD3
:100D400005C0A889B9898C9186FD0FC00FB607FC34
:100D5000F5CF808185FFF2CFA889B9898C9185FF75
:100D6000EDCFCE010E942E06E7CFDF91CF910895FF
:100D700080E090E0892B29F00E94240681110C94D8
:100D80000000089508950895CF93DF93CDB7DEB79F
:100D90002A970FB6F894DEBF0FBECDBFFC0180A925
:100DA00091A9009741F1DB01FC0120813181F9011A
:100DB0004481558124E331E03A83298312962D91B1
:100DC0003C9113973C832B8314962D913C9115975E
:100DD0003E832D8316962D913C91179738872F834C
:100DE00018962D913C9119973A872987BE016F5F1C
:100DF0007F4FFA0109952A960FB6F894DEBF0FBE11
:100E0000CDBFDF91CF9108950E94782D0C94D92207
:100E10000C94D9220C94D9220C94D9220C94D92266
:100E20000F931F93CF93DF93CDB7DEB7C956D10988
:100E30000FB6F894DEBF0FBECDBFAE01475B5F4F6C
:100E40008DE0EFE2F3E0DA0101900D928A95E1F78F
:100E5000CE018A5A9F4F2BE0ECE3F3E0DC010190D6
:100E60000D922A95E1F79E012F593F4F69E0E7E483
:100E7000F3E0D90101900D926A95E1F75F934F93EA
:100E80003F932F939F938F938FE093E09F938F9344
:100E90008E010F5F1F4F1F930F930E94EE2D0FB611
:100EA000F894DEBF0FBECDBFC801C759DF4F0FB6E4
:100EB000F894DEBF0FBECDBFDF91CF911F910F9190
:100EC0000895CF93DF93FC0124813581232B71F0AA
:100ED000FB01DC01CD91DC9160817181CE010E942A
:100EE000A42D009719F08C1B9D0B02C08FEF9FEF74
:100EF000DF91CF910895FB0144815581FC0124814C
:100F000035812417350778F080819181009759F059
:100F1000FB01608171816115710529F00E94962D98
:100F200021E0892B09F020E0822F0895CF93DF93F1
:100F3000DC01ED91FC91EB01A881B981309711F0B2
:100F40001097C9F4109759F0EB012C813D81232BA8
:100F500031F08C9190E091958195910914C0309772
:100F600081F0DC0114968D919C911597892B49F0A5
:100F7000808190E008C0BD01CF01DF91CF910C943A
:100F8000862D80E090E0DF91CF910895EF92FF925F
:100F90000F931F93CF93DF93EC017B018A0188812C
:100FA0009981009729F02A813B8124173507F8F4AD
:100FB000B8016F5F7F4F0E94AE2C009759F0998364
:100FC00088831B830A832C813D81232B81F4FC01C0
:100FD00010820DC088819981009711F00E94D9225A
:100FE000198218821D821C821B821A8207C01D83EF
:100FF0000C83B701888199810E948F2DCE01DF91EA
:10100000CF911F910F91FF90EF900895FC01808187
:1010100091810C94D922FC011182108213821282D8
:10102000158214826115710551F0FB0101900020B9
:10103000E9F73197AF01461B570B0C94C60708958B
:10104000DC01ED91FC910190F081E02D0994EF928B
:10105000FF920F931F93CF93DF938C017B01C0E02E
:10106000D0E0F701EC0FFD1F6491662361F0D80119
:10107000ED91FC910190F081E02DC8010995892B3B
:1010800011F02196EECFCE01DF91CF911F910F91FC
:10109000FF90EF9008956115710579F0FB010190C3
:1010A0000020E9F73197AF01461B570BDC01ED91AA
:1010B000FC910280F381E02D099480E090E0089596
:1010C0004F925F926F927F92EF92FF920F931F93D6
:1010D000CF93DF93CDB7DEB7A1970FB6F894DEBFFD
:1010E0000FBECDBF7C01FA01CB0119A2223008F45A
:1010F0002AE08E010F5D1F4F422E512C612C712C66
:10110000BF01A30192010E94722CF901CA01015092
:1011100011096A3014F4605D01C0695CD8016C93F8
:10112000232B242B252B61F7B801C7010E944B0804
:10113000A1960FB6F894DEBF0FBECDBFDF91CF9161
:101140001F910F91FF90EF907F906F905F904F9065
:1011500008956CE273E00C944B080F931F93CF93A8
:10116000DF93EC010E944B088C01CE010E94A9087C
:10117000800F911FDF91CF911F910F9108950F93D1
:101180001F93CF93DF93EC010E9427088C01CE01BF
:101190000E94A908800F911FDF91CF911F910F919D
:1011A00008951F920F920FB60F9211242F933F9321
:1011B0004F935F936F937F938F939F93AF93BF935F
:1011C000EF93FF938BE195E00E942E06FF91EF9144
:1011D000BF91AF919F918F917F916F915F914F914F
:1011E0003F912F910F900FBE0F901F9018951F9257
:1011F0000F920FB60F9211242F938F939F93EF931B
:10120000FF93E0912B05F0912C058081E091310551
:10121000F091320582FD12C09081809134058F5F7C
:101220008F7320913505821751F0E0913405F0E07D
:10123000E55EFA4F958F8093340501C08081FF9160
:10124000EF919F918F912F910F900FBE0F901F9054
:1012500018954F925F926F927F928F929F92AF926A
:10126000BF92CF92DF92EF92FF920F931F93CF9393
:10127000DF931F92CDB7DEB77C012B01FC01848187
:1012800095816C01FFEFCF1ADF0A8C159D0508F0E0
:101290006EC0F701228133812C153D05F0F50996CA
:1012A00028173907D0F5808091809383828327E0C7
:1012B000AC01249FC001259F900D11240E9444225F
:1012C000F701918380835401612C712CF701848193
:1012D000958168167906F0F4F70120813181C50106
:1012E00088199909820F931F009751F08E010F5FA3
:1012F0001F4F2FEF3FEF40E050E0B5010E94330554
:10130000C5010E94EF04FFEF6F1A7F0A27E0A20ECB
:10131000B11CDCCFC4010E94D922F701A480B580A2
:1013200087E08A9D30018B9D700C1124812C912CBB
:10133000F701AC14BD0408F040C020813181C40124
:10134000860D971D820F931F009751F08E010F5F3E
:101350001F4F2FEF3FEF40E050E0B2010E943305F6
:10136000FFEFAF1ABF0A27E0820E911CE1CFC8162B
:10137000D90628F527E0289F3001299F700C1124F9
:101380005601812C912CF7E06F0E711CF7018481BE
:101390009581A816B90688F4C301880D991DF70137
:1013A00020813181820F931F0E94EF04FFEFAF1A5B
:1013B000BF0A27E0820E911CE9CFD582C4820F902C
:1013C000DF91CF911F910F91FF90EF90DF90CF9021
:1013D000BF90AF909F908F907F906F905F904F9055
:1013E0000895CF92DF92EF92FF920F931F93CF93C6
:1013F000DF931F92CDB7DEB78C01FB01E480F5804F
:10140000E416F50610F40E94782DE41AF50A2E155C
:101410003F0508F47901C080D180C40ED51E88E054
:1014200090E0F80193838283158214820E94442203
:10143000F80191838083FFEFEF16FF0621F3F60199
:101440008081181684F41982AE014F5F5F4FB70197
:10145000C8010E94B504F80144815581B60180811C
:1014600091810E941005C8010F90DF91CF911F91CB
:101470000F91FF90EF90DF90CF900895AF92BF92C1
:10148000CF92DF92EF92FF920F931F93CF93DF9350
:101490001F92CDB7DEB77C016B01FB0101900020EC
:1014A000E9F731978F01061B170BFC01A480B5806B
:1014B0001982B8016A0D7B1DAE014F5F5F4F0E941C
:1014C000B504F70180819181A801B6018A0D9B1DA9
:1014D0000E941005C7010F90DF91CF911F910F91CE
:1014E000FF90EF90DF90CF90BF90AF900895089558
:1014F00008958091B6049091B704892BC9F48DE0CA
:1015000090E00E944422FC018CE291E09183808370
:10151000138212821482158216821782108684E04A
:101520008187128614861386F093B704E093B6047D
:101530008091B6049091B70408950895CF92DF92F8
:10154000EF92FF920F931F93CF93DF93CDB7DEB748
:101550002A970FB6F894DEBF0FBECDBFFC01208DD9
:10156000261709F4AFC08C01608F84E391E09A8361
:101570008983FC83EB831E821D8270E078876F83F2
:101580001A861986CE0101967C01BC01CF010E940A
:10159000C406F801808D8733C9F028F48433B1F094
:1015A0008633A1F08DC08833C9F0893309F088C033
:1015B0000E949F11F80164A375A386A397A363E318
:1015C000C8010E949E0A88E893E170C00E949F11A2
:1015D000F80164A375A386A397A372C00E949F110C
:1015E000F80164A375A386A397A36AEF74E08BE167
:1015F00095E00E942708F801458950E060E070E01E
:101600002AE08BE195E00E946008F801948199231B
:1016100009F446C08589E80FF11DE80FF11DC5806A
:10162000D680168215828F5FF801883010F4858B82
:1016300001C0158A9150F801948363EF74E08BE147
:1016400095E00E942708F801448150E060E070E0D6
:101650002AE08BE195E00E94600869EE74E08BE17E
:1016600095E00E942708B601DD0C880B990B0E94BB
:1016700069106CED74E08BE195E00E942708809181
:10168000360690913706B701681B790B072E000CC0
:10169000880B990B0E9469108BE195E00E94A908C4
:1016A00063E3C8010E949E0A88EE93E0F80191A7C7
:1016B00080A70E949F11F80160A371A382A393A346
:1016C00081E001C080E02A960FB6F894DEBF0FBE1D
:1016D000CDBFDF91CF911F910F91FF90EF90DF90E1
:1016E000CF900895EF92FF920F931F93CF93DF93C4
:1016F000CDB7DEB72A970FB6F894DEBF0FBECDBFC9
:10170000FC012789261709F451C08C01678B84E3FB
:1017100091E09A838983FC83EB831E821D8270E0B3
:1017200078876F831A8619869E012F5F3F4F790154
:10173000B901CF010E94C406F8018789843031F0D5
:101740008630B1F4C8010E94180F12C06EEB74E02D
:10175000F801828193810E94BF0865E0C8010E9460
:10176000720B0E949F11F80160A371A382A393A33F
:101770006EEC74E08BE195E00E94270880913606BC
:10178000909137069701281B390BC9010E94C010A0
:1017900082E390E0F80191A780A70E949F11F801D1
:1017A00060A371A382A393A381E001C080E02A9685
:1017B0000FB6F894DEBF0FBECDBFDF91CF911F9162
:1017C0000F91FF90EF900895CB0108957F928F9233
:1017D0009F92AF92BF92CF92DF92EF92FF920F93C0
:1017E0001F93CF93DF93EC0149015A018B01C12C68
:1017F000D12C7601C814D904EA04FB0484F5F8015D
:1018000071908F018F8580FF0BC0E881F981008482
:10181000F185E02D20E144E060E070E0CE01099523
:10182000EB85FC858D859E85E817F90738F4708275
:101830008B859C8501969C878B870BC0E881F981FD
:10184000672D70E0028CF38DE02DCE010995019695
:1018500049F02FEFC21AD20AE20AF20ACBCFB40142
:10186000C50102C0B601C701DF91CF911F910F9151
:10187000FF90EF90DF90CF90BF90AF909F908F90B0
:101880007F900895CF93DF93EC01E881F98102887E
:10189000F389E02D09958F3F2FEF920731F02D81CD
:1018A0003E812F5F3F4F3E832D83DF91CF9108957F
:1018B0008FEF9FEF089560E070E0CB01089580E026
:1018C00090E00895CB010895CF93DF93EC018889D0
:1018D0009989DC01ED91FC910084F185E02D099559
:1018E000892BA9F388899989DC01ED91FC91028407
:1018F000F385E02DDF91CF910994CF93DF93EC0135
:1019000088899989DC01ED91FC910084F185E02DB5
:101910000995892BA9F388899989DC01ED91FC91BE
:101920000484F585E02DDF91CF910994AF92BF92A9
:10193000CF92DF92EF92FF920F931F93CF93DF939B
:1019400000D000D0CDB7DEB78C015B01C12CD12C0B
:101950007601F80180899189DC01ED91FC91028486
:10196000F385E02D29833A834B835C830995298194
:101970003A814B815C818F3F71F0C216D306E40639
:10198000F5064CF4D5018D935D01BFEFCB1ADB0A50
:10199000EB0AFB0ADECFC701B6010F900F900F9044
:1019A0000F90DF91CF911F910F91FF90EF90DF90FB
:1019B000CF90BF90AF900895DC0150968D919C918F
:1019C0005197DC01ED91FC910084F185E02D0994A3
:1019D00080E090E0089580E090E0089580E090E05D
:1019E000089580E090E008950895CF93DF93C0912B
:1019F000EB04D091EC04E881F9810084F185E02DBD
:101A0000CE010995892BB9F3E881F9810284F38528
:101A1000E02DCE01DF91CF9109941F93CF93DF93F7
:101A2000182FC091EB04D091EC048A3041F4E88186
:101A3000F9810190F081E02D6DE0CE010995E881FA
:101A4000F9810190F081E02D612FCE01099521E00F
:101A500030E0019711F420E030E0C901DF91CF912F
:101A60001F9108950C94D9220C94D92208950895B9
:101A70000C94D922DC01ED91FC91369720813181C3
:101A8000820F931F0C94380DFB0120813181FC01E2
:101A900031832083FB0142815381F90136972081F4
:101AA0003181FC01E20FF31F5183408308952CE83C
:101AB00031E0FC013183208326E931E0318F208F32
:101AC0006CE971E00C94440DDC01ED91FC913697CA
:101AD00020813181820F931F0C94570DCF93DF9398
:101AE000EC010E94570DCE01DF91CF910C94D922C9
:101AF000DC01ED91FC91369720813181820F931F9B
:101B00000C946E0D0C94D922089508950C94D9224A
:101B1000DC01ED91FC91369720813181820F931F7A
:101B20000C94860DFB0120813181FC0131832083DF
:101B3000FB0142815381F901369720813181FC01FB
:101B4000E20FF31F51834083089524E032E0FC014B
:101B5000318320832EE032E0358B248B64E172E008
:101B60000C94920DDC01ED91FC913697208131812E
:101B7000820F931F0C94A50DCF93DF93EC010E946D
:101B8000A50DCE01DF91CF910C94D922DC01ED910E
:101B9000FC91369720813181820F931F0C94BC0DEC
:101BA0000C94D922FF920F931F93CF93DF93CDB75D
:101BB000DEB7C151D1400FB6F894DEBF0FBECDBF26
:101BC000FC0180858F9387818F9386818F93858198
:101BD0008F9384818F9383818F9382811F928F93C0
:101BE00080E593E09F938F931F9288E28F938E01FD
:101BF0000F531F4F1F930F930E94BE2DBE016650BF
:101C00007F4F2DE0EFE2F3E0DB0101900D922A958A
:101C1000E1F79E01295F3E4F4BE0ECE3F3E0D90191
:101C200001900D924A95E1F7AE0147515F4FE1E116
:101C3000FE2EE3EEF3E0DA0101900D92FA94E1F763
:101C40001F930F9399279F938F937F936F935F9326
:101C50004F933F932F938EE693E09F938F931F9222
:101C600080EC8F93005C11091F930F930E94BE2D8F
:101C70000FB6F894DEBF0FBECDBFC801CF5EDE4FFA
:101C80000FB6F894DEBF0FBECDBFDF91CF911F918D
:101C90000F91FF9008950F931F93CF93DF938C01C3
:101CA000EB016F3F8FEF780719F480E090E00FC0F1
:101CB0006A3031F46DE0F801808991890E94200832
:101CC0006C2FF801808991890E942008CE01DF9154
:101CD000CF911F910F9108958F929F92BF92CF92B3
:101CE000DF92EF92FF920F931F93CF93DF9300D079
:101CF00000D0CDB7DEB78C014B01C12CD12C7601C1
:101D0000C216D306E406F50644F5F401B1904F017E
:101D1000FAE0BF120EC06DE0F80180899189298335
:101D20003A834B835C830E9420085C814B813A811B
:101D300029816B2DF8018089918929833A834B830E
:101D40005C830E942008FFEFCF1ADF0AEF0AFF0A28
:101D50005C814B813A812981D3CFCA01B9010F90AF
:101D60000F900F900F90DF91CF911F910F91FF90E7
:101D7000EF90DF90CF90BF909F908F900895CF937A
:101D8000DF93EC016BE00E94720B64EF73E08A81D9
:101D90009B810E94AD080E949F1168A379A38AA32A
:101DA0009BA3DF91CF910895EF92FF920F931F9322
:101DB000CF93DF93CDB7DEB7C054D1090FB6F894F7
:101DC000DEBF0FBECDBF8C018FE293E09F938F9358
:101DD0008EEF93E09F938F93CE0101967C019F93AA
:101DE0008F930E94EE2DB701F801828193810E94AA
:101DF000AD0866E1C8010E94720B0E949F11F801B4
:101E000060A371A382A393A30F900F900F900F90E4
:101E10000F900F90C05CDF4F0FB6F894DEBF0FBE7F
:101E2000CDBFDF91CF911F910F91FF90EF9008955B
:101E3000EF92FF920F931F93CF93DF93CDB7DEB74F
:101E4000C054D1090FB6F894DEBF0FBECDBF8C01D0
:101E500088E194E09F938F9388E892E09F938F931B
:101E600081E294E09F938F93CE0101967C019F9332
:101E70008F930E94EE2DB701F801828193810E9419
:101E8000AD086CE0C8010E94720B0E949F11F8011E
:101E900060A371A382A393A30FB6F894DEBF0FBE15
:101EA000CDBFC05CDF4F0FB6F894DEBF0FBECDBF15
:101EB000DF91CF911F910F91FF90EF900895CF93F5
:101EC000DF93EC0168E375E08A819B810E94BF0883
:101ED0000E949F1168A379A38AA39BA363E0CE010C
:101EE000DF91CF910C94720BCF92DF92FF920F9300
:101EF0001F93CF93DF931F92CDB7DEB78C016B0199
:101F00006AE275E08BE195E00E942708D8015596BA
:101F10004C9150E060E070E02AE08BE195E00E9497
:101F2000600860E275E08BE195E00E942708B60149
:101F30000D2C000C880B990B0E946910F8019481FC
:101F40008589983050F5F92EF80EF7E0FF1518F452
:101F50008F2D8770F82E6CE175E08BE195E00E9483
:101F600027084F2D50E060E070E02AE08BE195E01B
:101F70000E9460088BE195E00E94A908F801EF0D2E
:101F8000F11DEF0DF11DD682C582D80114968C91FA
:101F900014978F5F14968C9323C0F801E80FF11DFE
:101FA000E80FF11D8581968116821582009739F020
:101FB000DC01ED91FC910280F381E02D0995F8019F
:101FC0008589E80FF11DE80FF11DD682C5828F5F6C
:101FD000883020F4D80155968C9302C0F801158AF8
:101FE00065E175E08BE195E00E942708D801149621
:101FF0004C9150E060E070E02AE08BE195E00E94B7
:10200000600868E075E08BE195E00E942708209168
:10201000360630913706CE010196821B930B0E9443
:10202000C01081E00F90DF91CF911F910F91FF9031
:10203000DF90CF90089520E332E0FC0131832083CC
:102040008A960C940608CF93DF93EC010E941B1034
:10205000CE01DF91CF910C94D9220895089508956F
:1020600008951F93CF93DF93EC0160E00E94030477
:1020700081EE0E941B04182F61E0CE010E94030430
:10208000812FDF91CF911F910895FF920F931F939E
:10209000CF93DF931F92CDB7DEB78C01F62E60E0B1
:1020A00049830E9403048F2D8F7180620E941B045C
:1020B000F82E4981842F0E941B0461E0C8010E9410
:1020C00003048F2D0F90DF91CF911F910F91FF90FF
:1020D0000895CF92DF92EF92FF92CF93DF93AB01FF
:1020E000BC0177FF1DC06A017B016DE28BE195E0C9
:1020F0000E942008EC0144275527BA014C195D09BC
:102100006E097F092AE08BE195E00E9460088C0F40
:102110009D1FDF91CF91FF90EF90DF90CF900895BA
:102120002AE08BE195E0DF91CF91FF90EF90DF9077
:10213000CF900C9460083FB7F8948091C5049091BB
:10214000C604A091C704B091C80426B5A89B05C0D9
:102150002F3F19F00196A11DB11D3FBFBA2FA92F26
:10216000982F8827820F911DA11DB11DBC01CD01A3
:1021700042E0660F771F881F991F4A95D1F708958F
:10218000CF93DF93BC01990F880B990B0E946910C4
:10219000EC018BE195E00E94A9088C0F9D1FDF9157
:1021A000CF91089590E0FC01EF57FA4F3491FC0174
:1021B000ED59FA4F2491FC01E15BFA4FE491EE23D3
:1021C00009F43BC0332339F1333091F038F4313026
:1021D000A9F0323001F584B58F7D12C0373091F00F
:1021E0003830A1F03430B9F4809180008F7D03C085
:1021F000809180008F77809380000DC084B58F77A9
:1022000084BD09C08091B0008F7703C08091B00079
:102210008F7D8093B000F0E0EE0FFF1FE55CFA4F7A
:10222000A591B4918FB7F894EC91611103C02095FA
:102230002E2301C02E2B2C938FBF0895CF93DF93B5
:1022400090E0FC01ED59FA4F2491FC01E15BFA4F5B
:102250008491882361F190E0880F991FFC01E9586F
:10226000FA4FC591D491FC01E55CFA4FA591B49168
:10227000611109C09FB7F8948881209582238883D3
:10228000EC912E230BC0623061F49FB7F894388133
:10229000822F809583238883EC912E2B2C939FBFD4
:1022A00006C08FB7F894E8812E2B28838FBFDF916B
:1022B000CF9108958230910538F0880F991F880FCB
:1022C000991F05970197F1F708958F929F92AF920A
:1022D000BF92CF92DF92EF92FF926B017C010E943E
:1022E0009B104B015C01C114D104E104F104F1F035
:1022F0000E949B10DC01CB0188199909AA09BB092E
:10230000883E9340A105B10570F321E0C21AD108BF
:10231000E108F10888EE880E83E0981EA11CB11C2C
:10232000C114D104E104F10419F7DDCFFF90EF905F
:10233000DF90CF90BF90AF909F908F9008952FB770
:10234000F8946091C1047091C2048091C30490918B
:10235000C4042FBF08958F929F92AF92BF92EF92C5
:10236000FF920F931F93CF93DF9300D0CDB7DEB7CB
:10237000CB01EDB6FEB6FB0124813581235F3F4FD3
:102380006DB77EB7621B730B0FB6F8947EBF0FBE9E
:102390006DBF0DB71EB70F5F1F4F49835A830E9451
:1023A000F4049F938F931F9283E08F935A815F93DE
:1023B00049814F9386E694E09F938F931F930F93E9
:1023C0000E94EE2DB8018BE195E00E944B080E941F
:1023D0009F114B015C018DB79EB70A960FB6F8941A
:1023E0009EBF0FBE8DBF10E08BE195E00E94F60509
:1023F0008534910581F011110EC00E949F11DC01FE
:10240000CB0188199909AA09BB0911E08897A10590
:10241000B10550F7E8CF61E070E080E090E00E9405
:1024200065110FB6F894FEBE0FBEEDBE0F900F9073
:10243000DF91CF911F910F91FF90EF90BF90AF90E0
:102440009F908F9008951F920F920FB60F921124B4
:102450002F933F938F939F93AF93BF938091C1042A
:102460009091C204A091C304B091C4043091C004FF
:1024700023E0230F2D3720F40196A11DB11D05C0C7
:1024800026E8230F0296A11DB11D2093C00480935E
:10249000C1049093C204A093C304B093C404809178
:1024A000C5049091C604A091C704B091C8040196D8
:1024B000A11DB11D8093C5049093C604A093C704C9
:1024C000B093C804BF91AF919F918F913F912F918D
:1024D0000F900FBE0F901F90189508950C94D9225D
:1024E00002970C946E122F923F924F925F926F92CE
:1024F0007F928F929F92AF92BF92CF92DF92EF9294
:10250000FF920F931F93CF93DF93CDB7DEB7C254E3
:10251000D1090FB6F894DEBF0FBECDBF5C01FB0141
:10252000828093808681978123969FAF8EAF239779
:10253000D50114968D919C9115978816990609F0EE
:10254000BBC22296BFAD2297BB3509F0B5C26481EC
:102550007581FE0131967F01AF01CE01C7960E94C1
:102560007F0508E010E01BAB0AAB1DAA1CAA88E09F
:1025700090E00E94442299AB88AB1CA70BA71EA633
:102580001DA688E390E00E9444229AA789A70091A3
:10259000E6051091E705E091E205F091E305AFA9AA
:1025A000B8ADCF01800F911FE817F90709F4E1C218
:1025B00031912D913217C1F350C021968FAF2197E1
:1025C0006EA17FA16F5F7F4FAE01405C5F4FCE0178
:1025D00082960E94B5040F5F1F4F2BAD3CAD8FA9B3
:1025E00098AD820F931FC816D90649F0D6018D9178
:1025F0006D018D3311F70115110509F0C7C22EA128
:102600003FA12115310529F12150310941E050E068
:10261000BE016E5D7F4FC7010E94F1090CA91DA983
:102620006D817E81600F711F1FAEAE01415C5F4FF7
:10263000CE01C0960E94B5044D815E8169817A8188
:1026400088A999A9800F911F0E941005C7010E94B7
:10265000EF04CE0182960E94EF0465E076E0CE01A1
:10266000C0960E94D803892B09F039C181E493E414
:10267000A2E5B0E08B8F9C8FAD8FBE8FCE014B96C5
:102680009F938F938EE692E09F938F93FF92EF92AA
:102690000E94EE2D0E94790A6C010F900F900F900E
:1026A0000F900F900F90DC011A968C911A97882347
:1026B00009F4E3C112960D911C91139760E0C801D3
:1026C0000E94A203F801808991890E945A116DE14C
:1026D000C8010E94220481FF0AC0D80150968D9142
:1026E0009C9151970E945A11C8010E94311060E0DC
:1026F000C8010E942204482F4E7F60E0C8010E945A
:10270000451062E0C8010E942204E5E7F2E0E4918E
:1027100041E050E001C0440FEA95EAF7482B62E03F
:10272000C8010E944510F60102811381D801179655
:102730008C91482E813110F090E1492EF80190855E
:10274000911103C0582E541801C0512C60E0C801EB
:102750000E94030480EA0E941B0437014A94BFEFE1
:102760004B1631F0D3018D913D010E941B04F6CF31
:10277000752C772029F080E00E941B047A94F9CF11
:1027800061E0C8010E94030461E0C8010E94A20345
:1027900060E0C8010E9403048FEF0E941B04782EA2
:1027A00061E0C8010E940304872D807389F360E013
:1027B000C8010E94A20340E767E0C8010E944510DB
:1027C00084FF03C0C8010E94311061E070E080E026
:1027D00090E00E946511F601838594850097C1F011
:1027E000DC01ED91FC910480F581E02D24E331E0E2
:1027F0003A8B298BDC8ACB8AFE8AED8A2CE530E085
:10280000388F2F8B1A8E198EBE016F5E7F4F099500
:10281000F6010281138160E0C8010E94220481FD5B
:102820000CC0482F426060E0C8010E94451065E07E
:1028300070E080E090E00E94651160E0C8010E94B5
:102840002204482F416060E0C8010E94451040E723
:1028500067E0C8010E94451061E0C8010E94A20320
:10286000D80119968C9119978823D9F01E96DC907F
:1028700060E0C8010E9403048AE20E941B04780100
:10288000B9E0EB0EF11CDE0CDE1431F0F7018191A2
:102890007F010E941B04F8CF61E0C8010E9403047D
:1028A00014C062E0C8010E942204E5E7F2E0E4916E
:1028B00021E030E001C0220FEA95EAF72095422F8F
:1028C000482362E0C8010E9445106DE1C8010E94E2
:1028D000220481FFD2C0C8010E943110CEC06EEF29
:1028E00075E0CE01C0960E94D803892B09F087C0FD
:1028F00069A57AA587012FEF3FEF40E050E0CE01B8
:102900004B960E943305CE014B960E94F4040E9420
:10291000712320E030E04AE754E40E94BD2B1B0104
:102920002C01D5011A966D907C901B979B01AC01F0
:10293000F30165817681878190850E94452A8823ED
:1029400009F45AC0D30115962D923D924D925C9296
:1029500018976E01B2E2CB0ED11C86E0F6011192FF
:102960008A95E9F7860122E042E0C201B1010E94A6
:10297000242288E090E09C8B8B8B1E8A1D8A0E940B
:1029800044229A8B898B20E030E040E251E4C2017E
:10299000B1010E94452A87FF06C064E772E0CE01BC
:1029A00041960E943E0AB601CE0141960E943E0A1F
:1029B00066E772E0CE0141960E943E0A8E01025CFB
:1029C0001F4F2FEF3FEF40E050E0BE016F5E7F4FA3
:1029D000C7010E94330540E050E0B701D3011296D1
:1029E0008D919C9113970E94AB11C7010E94EF0437
:1029F000CE0141960E94EF04CE014B963CC067EF9A
:102A000075E0CE01C0960E94D803892BB1F160EF2A
:102A100075E0CE01C0960E94D803892B71F169EE52
:102A200075E0CE01C0960E94D803892B31F16FE288
:102A300076E0CE01C0960E94D803892BF1F469A5F7
:102A40007AA58E010F5E1F4F2FEF3FEF40E050E061
:102A5000C7010E943305C7010E94F4040E9471233C
:102A60000E942F2CD5011A96ED91FC911B9785851C
:102A700086136587C7010E94EF04E12CF12C00E06A
:102A800010E02DA53EA589A59AA50217130750F4BD
:102A90008E0D9F1D0E94EF040F5F1F4FB7E0EB0EDE
:102AA000F11CEFCF0E94D922CE01C0960E94EF0404
:102AB000CE01C7960E94EF04F501868197818816A2
:102AC000990609F01DC12396EEADFFAD2397FF27B0
:102AD000EA33F10508F014C1EC5CFF4F0C94942C20
:102AE0006DE374E041C061E374E03EC06FE174E007
:102AF0003BC06BE074E038C06AEF73E035C067EE4E
:102B000073E032C060ED73E02FC060EC73E02CC066
:102B10006BEA73E029C061E973E026C06DE773E0FA
:102B200023C064E673E020C062E573E01DC06BE380
:102B300073E01AC065E273E017C063E173E014C08C
:102B400060E073E011C06DEE72E00EC065ED72E002
:102B50000BC063EC72E008C069EA72E005C065E989
:102B600072E002C06BE772E08BE195E00E94BF0863
:102B7000C7C0A7016EE273E0CE0182960E947F0576
:102B8000CFA8D8ACF2E0CF0ED11C27CD0F5F1F4FDE
:102B900021503109A801BE01695C7F4FCE014B96DF
:102BA0000E94F1092E01B1E14B0E511CAE01425CB5
:102BB0005F4F66E071E0C2010E947F058D899E89AA
:102BC0006F8C78A06816790620F4CC24CA94DC2C8B
:102BD00021C0EFEF6E1A7E0A681A790AC12CD12C37
:102BE000C614D70491F32D893E89A601BE01655E06
:102BF0007F4FC7010E94F109B701C2010E94D803AB
:102C00001C01C7010E94EF04232821F0FFEFCF1A17
:102C1000DF0AE6CFCE0141960E94EF04CD20C0949A
:102C200009F456C08F8D98A1EB8DFC8D00E010E06B
:102C30000817190749F021912C3219F4C12CD12C15
:102C400015C00F5F1F4FF4CF0FEF1FEFF7CF0F5FD0
:102C50001F4F0217130758F5FC01E00FF11F6081A9
:102C60006C32A9F70F3F8FEF180709F10F3F9FEF65
:102C7000190709F440C098012C193D09A601BE01AD
:102C8000655E7F4FC7010E94F109B701CE018996A9
:102C90000E942909C7010E94EF04A8014F5F5F4FFE
:102CA0006A012F8D38A18B8D9C8D8A01D2CFBE01F8
:102CB000655E7F4FC7010E94F109B701CE01899679
:102CC0000E942909C7010E94EF040FEF1FEFCECF2A
:102CD0002BAD3CAD21503109A801BE01695C7F4F8D
:102CE000C7010E94F109B701CE0189960E94290906
:102CF000C7010E94EF04CE014B960E94EF047FCCE7
:102D0000CE5BDF4F0FB6F894DEBF0FBECDBFDF91B5
:102D1000CF911F910F91FF90EF90DF90CF90BF90D8
:102D2000AF909F908F907F906F905F904F903F906B
:102D30002F90089502970C947312CF93DF93CDB721
:102D4000DEB7EC970FB6F894DEBF0FBECDBF789418
:102D500084B5826084BD84B5816084BD85B58260A0
:102D600085BD85B5816085BD80916E008160809351
:102D70006E001092810080918100826080938100BA
:102D800080918100816080938100809180008160CA
:102D9000809380008091B10084608093B100809125
:102DA000B00081608093B00080917A00846080934D
:102DB0007A0080917A00826080937A0080917A0014
:102DC000816080937A0080917A00806880937A0095
:102DD0001092C10061E085E00E941E1161E087E071
:102DE0000E941E1161E086E00E941E11E0912B05F9
:102DF000F0912C0582E08083E0912705F091280571
:102E00001082E0912905F0912A0580E180831092DB
:102E10003305E0912F05F091300586E08083E09145
:102E20002D05F0912E05808180618083E0912D0534
:102E3000F0912E05808188608083E0912D05F091CE
:102E40002E05808180688083E0912D05F0912E050C
:102E500080818F7D8083E091D104F091D2043097FE
:102E600021F08FEC94E094878387E091D304F09174
:102E7000D404309749F080A991A98F5C944021F047
:102E80008FEC94E091AB80AB8689813011F081E0CA
:102E9000868B808D833320F463E3CF010E949E0AEA
:102EA00061E085E00E94D21061E087E00E94D210CC
:102EB00061E086E00E94D2106AEF70E080E090E06E
:102EC0000E94651160E085E00E94D21060E087E01A
:102ED0000E94D21060E086E00E94D21068E574E0A3
:102EE0008BE195E00E942708809136069091370685
:102EF000DE0111965D01FD01E81BF90BCF010E9477
:102F0000C01062E574E08BE195E00E94BF0866E4C2
:102F100074E08BE195E00E9427088091360690913D
:102F200037069501281B390BC9010E94C0107E018C
:102F300031E3E30EF11C9AEF292E312C0E949F11F0
:102F40000091C9041091CA042091CB043091CC04A3
:102F5000DC01CB01801B910BA20BB30B803D974092
:102F6000A105B10554F00E949F116093C9047093AC
:102F7000CA048093CB049093CC040091D3041091A5
:102F8000D404D80112968D919C911397DC01ED9198
:102F9000FC910084F185E02D0995892B09F46FC31C
:102FA000D80112968D919C911397DC01ED91FC91C3
:102FB0000084F185E02D0995181619060CF05FC301
:102FC000F801C280D3803501812C912C0E949F1181
:102FD000D60118966D937D938D939C931B97D60184
:102FE000ED91FC910284F385E02DC601099597FDD2
:102FF00004C08A309105C1F421C00E949F11F601DE
:103000002085318542855385DC01CB01821B930BE2
:10301000A40BB50B24813581468157818217930714
:10302000A407B507E0F20AC0D3018D933D01BFEFBD
:103030008B1A9B0AE0E38E16910441F6892809F465
:10304000AFCFB501CE01C7960E940B088FA898ACF0
:1030500081149104F1F1CBACDCACC114D104C9F101
:1030600024013201FFEF4F1A5F0AD3018C91082E21
:10307000000C990B0E947129892B99F7B1E0CB1AAA
:10308000D108C80CD91CD6018C91082E000C990BC4
:103090000E947129892B79F4A6014F5F5F4F461971
:1030A00057095CAF4BAF8614970460F4B301C401B9
:1030B0000E947D2D07C0C614D70470F3E1E0CE1A3C
:1030C000D108E1CFEFA9F8AD8BAD9CADE80FF91FAA
:1030D00010828BAD9CAD892B09F4C7C26BE774E0FD
:1030E0008BE195E00E9427086FA978AD8BE195E010
:1030F0000E94AD08D8015796EC918E2F90E089314F
:10310000910508F0F1C1FC01E259FF4F0C94942C99
:1031100065E271E0C7010E940B08B701CE01C796B6
:103120000E9496076C01C7010E940608CD2809F08D
:10313000DBC161E0D6C165E271E0C7010E940B0806
:10314000B701CE01C7960E9496076C01C7010E9485
:103150000608CD2809F0C8C164E0C3C169E772E080
:10316000C7010E940B08B701CE01C7960E946107F4
:103170006C01C7010E940608CD2819F081E4F8010E
:10318000838F65E271E0C7010E940B08B701CE0191
:10319000C7960E949607892B39F4DD24D394D80171
:1031A0005B968C91813409F0D12CC7010E940608EE
:1031B000DD2009F499C166E0C8010E94720BF80194
:1031C000138E92C165E271E0C7010E940B08B7013E
:1031D000CE01C7960E9496076C01C7010E9406089F
:1031E000CD2869F4D8015B968C918F3411F46DE091
:1031F00001C06AE0C8010E94720BF801138E60E8FA
:1032000072E0C7010E940B08B701CE01C7960E9469
:1032100061076C01C7010E940608D7FC15C068E869
:1032200072E0C7010E940B08B701CE01C7960E9449
:1032300061076C01C7010E9406081C141D0414F4E8
:10324000EFE4BCC0E6E4BAC069E972E0C7010E94DD
:103250000B08B701CE01C7960E9461076C01C70138
:103260000E940608D7FC40C16AE0C8010E94720BA8
:10327000C8010E94180F38C165E271E0C7010E94C1
:103280000B08B701CE01C7960E949607892B39F427
:10329000DD24D394D8015B968C91893409F0D12C2C
:1032A000C7010E940608DD2039F06DE0C8010E94C8
:1032B000720BF801138E14C060EA72E0C7010E941D
:1032C0000B08B701CE01C7960E9461076C01C701C8
:1032D0000E940608D7FC04C06EE0C8010E94720B71
:1032E00065EA72E0C7010E940B08B701CE01C796DC
:1032F0000E9496076C01C7010E940608CD2809F0BC
:10330000F3C0E9E45BC061EB72E0C7010E940B0807
:10331000B701CE01C7960E9496076C01C7010E94B3
:103320000608CD2809F0E0C06AE0DBC065EA72E07B
:10333000C7010E940B08B701CE01C7960E949607ED
:103340006C01C7010E940608CD2809F0CDC06DE0D0
:10335000C8C065E271E0C7010E940B08B701CE0149
:10336000C7960E9496076C01C7010E940608CD28E7
:10337000A1F4D8015B968C918253823028F468E1E5
:10338000C8010E94720B07C064E1C8010E94720B61
:10339000C8010E94D40EF801138E61EC72E0C701DF
:1033A0000E940B08B701CE01C7960E9496076C01D8
:1033B000C7010E940608CD2829F4E2E3D8015B96F4
:1033C000EC9392C06AEC72E0C7010E940B08B7014F
:1033D000CE01C7960E9496076C01C7010E9406089D
:1033E000CD2809F081C0E3E3E9CFD8015B968C9149
:1033F000893191F465E271E0C7010E940B08B701C1
:10340000CE01C7960E9496076C01C7010E9406086C
:10341000CD2811F468E111C063ED72E0C7010E948C
:103420000B08B701CE01C7960E9496076C01C70131
:103430000E940608CD2829F464E1C8010E94720B9D
:1034400028C06AED72E0C7010E940B08B701CE01E7
:10345000C7960E947B07D82EC7010E940608DD2070
:1034600021F088E1F801838F14C069EB72E0C70195
:103470000E940B08B701CE01C7960E9461076C013C
:10348000C7010E940608D7FC04C0E9E1D8015B9699
:10349000EC93D8015B968C91883131F56EED72E03A
:1034A000C7010E940B08B701CE01C7960E947B0797
:1034B000D82EC7010E940608DD20B1F068E111C0D6
:1034C00063ED72E0C7010E940B08B701CE01C796F9
:1034D0000E9496076C01C7010E940608CD2821F4BE
:1034E00064E1C8010E94720BF80187898D3000F1F8
:1034F00065EA72E0C7010E940B08B701CE01C796CA
:103500000E9496076C01C7010E940608CD2881F42D
:103510006DE0C8010E94720BD80199963C922E92E0
:1035200098970E949F11F80160A371A382A393A3AF
:10353000D80158968C91833308F497C08633A1F153
:10354000873309F447C0853309F08FC060EE72E01D
:10355000C7010E940B08B701CE01C7960E94610700
:103560006C01C7010E940608D7FC7FC066E3C80152
:103570000E949E0A0E949F11F80164A375A386A36E
:1035800097A382819381DC01ED91FC91D8019E96F5
:103590004D915C919F979A966D917C919B9702803B
:1035A000F381E02D099561C062EE72E0C7010E94CF
:1035B0000B08B701CE01C7960E9496076C01C701A0
:1035C0000E940608CD2809F050C067E3C8010E9498
:1035D0009E0A4BC06AEE72E0C7010E940B08B70159
:1035E000CE01C7960E9461076C01C7010E940608C0
:1035F000D7FC02C068E311C067EF72E0C7010E9408
:103600000B08B701CE01C7960E9461076C01C70184
:103610000E940608D7FC04C069E3C8010E949E0A04
:103620000E949F11F80144A055A066A077A0DC017C
:10363000CB0184199509A609B70981319742A105E3
:10364000B10598F064E674E08BE195E00E94BF0854
:1036500064E3C8010E949E0A0E949F11D8019496BB
:103660006D937D938D939C93979780E3F5011192D1
:103670008A95E9F7CE01C7960E94060891CCF80119
:103680008689882309F444C280A591A5892B21F15C
:103690000E949F11D80190964D905D906D907C9006
:1036A0009397AB01BC0144195509660977099896AF
:1036B0008D919C919997A0E0B0E084179507A6079B
:1036C000B70708F025C20E949F11F80160A371A3FB
:1036D00082A393A311A610A6D8015796EC918E2F22
:1036E00090E08931910508F008C1FC01E957FF4FCE
:1036F0000C94942CC8010E945F0FFFC00E949F1180
:10370000F80140A051A062A073A0DC01CB01841994
:103710009509A609B709813A9F40A105B10508F4AA
:10372000ECC067EB74E0D80112968D919C911397D1
:103730000E94BF080E949F11F80160A371A382A399
:1037400093A3DBC00E949F11D80190964D905D908D
:103750006D907C909397DC01CB0184199509A609A3
:10376000B709893B9B40A105B10508F4C6C0C80153
:103770000E945F0FB9C00E949F11F80140A051A0A4
:1037800062A073A0DC01CB0184199509A609B709D1
:1037900089389341A105B10508F4AFC0A5C00E94C6
:1037A0009F11F80140A051A062A073A0DC01CB01E1
:1037B00084199509A609B70980389E43A105B1056A
:1037C00008F49BC06EE052C00E949F1196C00E94F8
:1037D0009F11F80140A051A062A073A0DC01CB01B1
:1037E00084199509A609B70980339547A105B10544
:1037F00060F0C8010E94BF0E0E949F11D8019096F0
:103800006D937D938D939C939397F801808D833373
:1038100008F473C084818111CCC16FC00E949F11D4
:10382000F80140A051A062A073A0DC01CB01841973
:103830009509A609B709803A9F40A105B10508F48A
:103840005CC013C00E949F11F80140A051A062A06B
:1038500073A0DC01CB0184199509A609B709883842
:103860009341A105B10508F448C064E1C8010E9474
:10387000720B3AC00E949F11F80144A055A066A0A7
:1038800077A0DC01CB0184199509A609B70980311D
:103890009742A105B10588F16BEA74E0D801129650
:1038A0008D919C9113970E94BF080E949F11F8016F
:1038B00064A375A386A397A320C00E949F11D8017B
:1038C00090964D905D906D907C909397DC01CB012C
:1038D00084199509A609B70980339547A105B10553
:1038E00060F0C8010E94BF0E0E949F11D8019096FF
:1038F0006D937D938D939C939397F801808D853381
:1039000009F4ACC018F4833341F002C1863309F4E2
:10391000BBC0873309F4D8C0FBC08481882309F475
:10392000F7C08789883109F092C08589F801E80FCE
:10393000F11DE80FF11DC580D680C114D10409F432
:103940007EC06DE974E08BE195E00E9427088091CC
:10395000360690913706D501A81BB90BCD010E9400
:10396000C010D601ED91FC910480F581E02DC601D7
:103970000995BC01C7010E940B084DA95EA969A960
:103980007AA98BE195E00E94BC058BE195E00E944D
:10399000A90869E874E08BE195E00E9427084DA929
:1039A0005EA960E070E02AE08BE195E00E9460088B
:1039B0008BE195E00E94A90863E073E0C5010E94D5
:1039C0000B08F80182819381DC01ED91FC914D811E
:1039D0005E8169817A810280F381E02D0995F80189
:1039E000C280D3804DA95EA960E070E02AE0C601E4
:1039F0000E946008C6010E94A90865E3C8010E94F0
:103A00009E0A0E949F11D80194966D937D938D9389
:103A10009C939797C8018A968E159F0551F069A9C6
:103A20007AA96115710509F4C8C04DA95EA90E9463
:103A3000C607C5010E940608C7010E9406080E9429
:103A40009F11F80164A375A386A397A361C08D306D
:103A500008F45EC0C8010E94D40E5AC00E949F1193
:103A6000D80194964D905D906D907C909797DC0175
:103A7000CB0184199509A609B70989399A43A1058B
:103A8000B10508F445C012C00E949F11F80144A07E
:103A900055A066A077A0DC01CB0184199509A60981
:103AA000B70989399A43A105B10590F163E3C801CB
:103AB0000E949E0A0E949F11D80194966D937D9357
:103AC0008D939C93979724C00E949F11F80144A066
:103AD00055A066A077A0DC01CB0184199509A60941
:103AE000B70981319742A105B10590F069E3C8019A
:103AF0000E949E0A88EE93E0D80199969C938E933B
:103B000098970E949F11F80160A371A382A393A3C9
:103B10008091E504811116C00E949F110091E60476
:103B20001091E7042091E8043091E904DC01CB0115
:103B3000801B910BA20BB30B813A9F40A105B105ED
:103B400008F050C08091E5048130B1F40E949F11CB
:103B50000091E6041091E7042091E8043091E90413
:103B6000DC01CB01801B910BA20BB30B813A9F4070
:103B7000A105B10508F08AC01091E5041230B1F436
:103B80000E949F114090E6045090E7046090E80482
:103B90007090E904DC01CB0184199509A609B709E5
:103BA00089399A43A105B10508F074C00E94B8068E
:103BB000C5C9C8010E94D40EA0CEF80182A593A564
:103BC000009711F00E94D922D8019B961C921E9258
:103BD0009A979F961C921E929E979D961C921E925B
:103BE0009C9727CF82E090E00E9444226C018FE1F5
:103BF00091E0F6019183808389E090E00E94442265
:103C00008C018BE0882E81E0982ED80111969C9231
:103C10008E9282E012968C9380ED97E0A0E0B0E067
:103C2000F80183839483A583B6831086178289E085
:103C300090E00E944422FC019182808283E0828392
:103C400088EB9BE0A0E0B0E083839483A583B683F8
:103C500010861782B6018091D3049091D4040E94FB
:103C6000740FB8018091D3049091D4040E94740F12
:103C70000E949F116093E6047093E7048093E80428
:103C80009093E90481E08093E5045CCF82E0809327
:103C9000E50472CF0E949F116093E6047093E704DD
:103CA0008093E8049093E9041093E5047FCF8F920A
:103CB0009F92AF92BF92EF92FF920F931F93CF9379
:103CC000DF931F92CDB7DEB70BE115E010921E0512
:103CD00010921D0528EE822E23E0922EA12CB12CED
:103CE00080921F0590922005A0922105B092220596
:103CF00084E691E090931C0580931B0585EC90E091
:103D0000909328058093270584EC90E090932A05F2
:103D10008093290580EC90E090932C0580932B05EF
:103D200081EC90E090932E0580932D0582EC90E03D
:103D30009093300580932F0586EC90E090933205A8
:103D40008093310510923405109235051092360596
:103D500010923705AE014F5F5F4F68E374E08FE26A
:103D600096E00E947F05AE014F5F5F4F6BE374E00A
:103D700088E296E00E947F05AE014F5F5F4F6EE3E1
:103D800074E081E296E00E947F05AE014F5F5F4FD5
:103D900063E474E08AE196E00E947F05AE014F5F24
:103DA0005F4F67E474E083E196E00E947F05AE0117
:103DB0004F5F5F4F6BE474E08CE096E00E947F05FC
:103DC000AE014F5F5F4F6FE474E085E096E00E94C4
:103DD0007F05AE014F5F5F4F63E574E08EEF95E0C6
:103DE0000E947F05AE014F5F5F4F67E574E087EF8C
:103DF00095E00E947F05AE014F5F5F4F6BE574E079
:103E000080EF95E00E947F05AE014F5F5F4F6FE549
:103E100074E089EE95E00E947F05AE014F5F5F4F31
:103E200063E674E082EE95E00E947F05E1E2F0E057
:103E3000F093D005E093CF051092D1051092D205F2
:103E40001092D30546E050E060E070E04093D40566
:103E50005093D5056093D6057093D7051092D80579
:103E60001092D9051092DA051092DB0520E220931A
:103E7000DC051092DE051092DD051092E1058AEB5B
:103E800095E09093E0058093DF0584E092E09093C5
:103E9000B9058093B8058EE092E09093CD058093AC
:103EA000CC051092BE051092BD051092C00510926F
:103EB000BF051092C2051092C1051092C405109260
:103EC000C3051092C6051092C5051092C805109240
:103ED000C70582EE91E09093BB058093BA051093DD
:103EE000CB050093CA0530E13093C905F09309056D
:103EF000E093080510920A0510920B0510920C052C
:103F000040930D0550930E0560930F0570931005B7
:103F100010921105109212051092130510921405BB
:103F200020931505109217051092160510921A0588
:103F30001092EF041092F0041092F1041092F20427
:103F400023EF34E030931905209318052CE831E075
:103F50003093EE042093ED0426E931E0309306051A
:103F6000209305051092F7041092F6041092F904BC
:103F70001092F8041092FB041092FA041092FD04BF
:103F80001092FC041092FF041092FE04109201059E
:103F9000109200059093F4048093F30410930405A9
:103FA0000093030588E0809302051093EC040093CE
:103FB000EB0465EF7CE08DE09DE00E9475238CE5CD
:103FC00092E09093CE048093CD0488E692E09093A3
:103FD000D0048093CF040E94790A9093D2048093F6
:103FE000D1048091BC049091BD04892B09F043C198
:103FF00082E390E00E9444228C0180E392E0D801A9
:104000008D939C938FE190E00E9444227C01FC01FF
:104010001382128284829582A682B7828EE192E018
:1040200091838083178A168A118E108E138E128EBA
:10403000158E148E668D6E7F6D7F668F66956170AE
:1040400081E0682783E00E94D21061E083E00E9453
:104050001E11E6E6F5E0E491D7015096EC93E2E517
:10406000F5E0E491F0E0EE0FFF1FE55CFA4F85917B
:104070009491F701928B818B60E082E00E941E1187
:10408000D7015E968C9181FD04C061E082E00E94C0
:10409000D21082E0F7018487E5E6F5E0E491D701EC
:1040A0001D96EC93E1E5F5E0E491F0E0EE0FFF1FE3
:1040B000EB5BFA4F85919491F70197878687D8013A
:1040C0001396FC92EE92129714961C9214975596A2
:1040D0001C92559756961C92569757961C92579736
:1040E00058961C9258978AE059968C93599784E178
:1040F0005A968C935A975B961C920E949F11F801D6
:10410000648F758F868F978F0E949F11D80190962C
:104110006D937D938D939C9393970E949F11F801CB
:1041200064A375A386A397A311A610A66EE273E0FD
:10413000C8018A960E940B08D801D1961C921E9243
:10414000D097F8013596C801459611921192E8175B
:10415000F907D9F7D8011296ED91FC911397138EB8
:10416000128E118E108E178A168A8DE991E0958F26
:10417000848F8485863108F04DC02DEB30E0378B7D
:10418000268B2BE931E0318F208F2CE231E0338F09
:10419000228F90916800883050F021E08E3008F432
:1041A00020E081E001C0880F2A95EAF701C084E091
:1041B000892B809368009485983038F09E3040F0C9
:1041C000963148F020E030E008C02DE630E005C030
:1041D0002BE630E002C02CE630E0348B238B9830A5
:1041E00030F481E001C0880F9A95EAF70EC0292FBC
:1041F00030E09E3018F42850310902C02E503109A9
:1042000081E001C0880F2A95EAF7858B848D958D12
:104210000197F1F7828D938D892B49F14091BA0472
:104220005091BB044E175F0711F14115510571F014
:10423000DA0153962D913C915497D9019C91DA0162
:1042400055968C9180958923D9018C93868D8E7F8C
:10425000868F1092B9041092B804F093BB04E093D7
:10426000BA04A389B4899C918589892B8C93109376
:10427000BD040093BC048091BC049091BD04909354
:10428000D4048093D3048091BE049091BF04892B01
:1042900009F042C082E090E00E944422FC0188E3E1
:1042A00092E091838083A0912B05B0912C0582E050
:1042B0008C93A0912705B09128051C92A091290507
:1042C000B0912A058FEC8C9310923305A0912F05A5
:1042D000B091300586E08C93A0912D05B0912E050C
:1042E0009C9190619C93A0912D05B0912E059C917D
:1042F00098609C93A0912D05B0912E059C9190689B
:104300009C93A0912D05B0912E059C919F7D9C932F
:10431000F093BF04E093BE040091BE041091BF046B
:104320001093D6040093D50480E190E00E944422CB
:10433000FC0180E492E0918380831383028381E017
:104340008483158216821782108611861286138640
:104350001486158616861786F093D804E093D70442
:104360001092D9041092DA041092DB041092DC044B
:104370001092DD041092DE041092DF041092E0042B
:104380001092E1041092E2041092E3041092E4040B
:104390001092E5040E949F116093E6047093E70475
:1043A0008093E8049093E9041092EA040E949F111C
:1043B0006093C9047093CA048093CB049093CC0497
:1043C0000F90DF91CF911F910F91FF90EF90BF90D1
:1043D000AF909F908F9008958DEE94E00E94570DBE
:1043E00088EB95E00E94A50D82EE95E00E94EF0417
:1043F00089EE95E00E94EF0480EF95E00E94EF04C3
:1044000087EF95E00E94EF048EEF95E00E94EF04A5
:1044100085E096E00E94EF048CE096E00E94EF04B5
:1044200083E196E00E94EF048AE196E00E94EF04A7
:1044300081E296E00E94EF0488E296E00E94EF0499
:104440008FE296E00C94EF04EF920F931F93CF93BB
:10445000DF93E80147FD02C034E001C034E1E42FFE
:10446000440FFF0BF7FF03C0F195E195F109E32E2F
:10447000022F2E2FAE010E94AE25CE01DF91CF91EB
:104480001F910F91EF900895CF93DF9382309105A4
:1044900010F482E090E0E0913806F091390620E0D7
:1044A00030E0C0E0D0E0309711F1408151814817F1
:1044B0005907C0F04817590761F48281938120970A
:1044C00019F09B838A832BC090933906809338061A
:1044D00026C02115310519F04217530718F49A0127
:1044E000BE01DF01EF010280F381E02DDCCF211559
:1044F000310509F1281B390B2430310590F412964F
:104500008D919C9113976115710521F0FB019383A7
:10451000828304C09093390680933806FD01329659
:1045200044C0FD01E20FF31F8193919322503109A2
:104530002D933C933AC02091360630913706232BB9
:1045400041F420910201309103013093370620930A
:10455000360620910001309101012115310541F409
:104560002DB73EB74091040150910501241B350B36
:10457000E0913606F0913706E217F307A0F42E1B00
:104580003F0B2817390778F0AC014E5F5F4F2417B7
:10459000350748F04E0F5F1F50933706409336069D
:1045A0008193919302C0E0E0F0E0CF01DF91CF91E1
:1045B00008950F931F93CF93DF93009709F48CC056
:1045C000FC0132971382128200913806109139064D
:1045D0000115110581F420813181820F931F2091F3
:1045E0003606309137062817390779F5F0933706E4
:1045F000E093360671C0D80140E050E0AE17BF0727
:1046000050F412962D913C911397AD01211531056F
:1046100009F1D901F3CF9D01DA013383228360814F
:104620007181860F971F8217930769F4EC01288127
:104630003981260F371F2E5F3F4F318320838A81B8
:104640009B8193838283452B29F4F0933906E09371
:10465000380642C01396FC93EE931297ED014991F0
:1046600059919E01240F351FE217F30771F48081E1
:104670009181840F951F029611969C938E9382814F
:10468000938113969C938E931297E0E0F0E0D8010B
:1046900012968D919C911397009719F0F8018C0157
:1046A000F6CF8D919C9198012E5F3F4F820F931F03
:1046B00020913606309137062817390769F430976C
:1046C00029F4109239061092380602C01382128221
:1046D0001093370600933606DF91CF911F910F910B
:1046E0000895662777270C943C270F931F93CF9349
:1046F000DF93009731F46115710519F480E090E0C3
:104700003AC08B01EC016EE070E081E090E00E9425
:104710009225FC01892B91F380E883830115110513
:1047200071F01387028781E8838380913A06909124
:104730003B06892B21F4F0933B06E0933A06209741
:10474000C9F0D187C08783818260838380913C06D2
:1047500090913D06892B71F4F0933D06E0933C0661
:1047600080913E0690913F06892B21F4F0933F06FD
:10477000E0933E06CF01DF91CF911F910F910895F5
:10478000ACE0B0E0E6ECF3E20C94772B7C016B013B
:104790008A01FC0117821682838181FFBDC1CE018F
:1047A00001964C01F7019381F60193FD859193FFEA
:1047B00081916F01882309F4ABC1853239F493FDEF
:1047C000859193FF81916F01853229F4B70190E0C3
:1047D0000E94AF29E7CF512C312C20E02032A0F4E9
:1047E0008B3269F030F4803259F0833269F4206101
:1047F0002CC08D3239F0803339F4216026C022601C
:10480000246023C0286021C027FD27C030ED380F69
:104810003A3078F426FF06C0FAE05F9E300D11248E
:10482000532E13C08AE0389E300D1124332E20629F
:104830000CC08E3221F426FD6BC1206406C08C367C
:1048400011F4206802C0883641F4F60193FD859189
:1048500093FF81916F018111C1CF982F9F7D955456
:10486000933028F40C5F1F4FFFE3F9830DC08336AC
:1048700031F0833771F0833509F05BC022C0F80155
:10488000808189830E5F1F4F44244394512C54012F
:1048900015C03801F2E06F0E711CF801A080B180E4
:1048A00026FF03C0652D70E002C06FEF7FEFC501EA
:1048B0002C870E94A4292C0183012C852F77222E7E
:1048C00017C03801F2E06F0E711CF801A080B180B2
:1048D00026FF03C0652D70E002C06FEF7FEFC501BA
:1048E0002C870E9492292C012C852068222E83017E
:1048F00023FC1BC0832D90E048165906B0F4B70185
:1049000080E290E00E94AF293A94F4CFF50127FCB1
:10491000859127FE81915F01B70190E00E94AF2948
:1049200031103A94F1E04F1A51084114510471F7D3
:10493000E5C0843611F0893639F5F80127FF07C044
:1049400060817181828193810C5F1F4F08C06081FB
:104950007181072E000C880B990B0E5F1F4F2F766D
:10496000722E97FF09C090958095709561957F4F45
:104970008F4F9F4F2068722E2AE030E0A4010E94E2
:10498000E729A82EA81844C0853729F42F7EB22E17
:104990002AE030E025C0F22FF97FBF2E8F36C1F01C
:1049A00018F4883579F0B4C0803719F0883721F0D1
:1049B000AFC02F2F2061B22EB4FE0DC08B2D8460AE
:1049C000B82E09C024FF0AC09F2F9660B92E06C0DA
:1049D00028E030E005C020E130E002C020E132E014
:1049E000F801B7FE07C060817181828193810C5FFD
:1049F0001F4F06C06081718180E090E00E5F1F4F05
:104A0000A4010E94E729A82EA818FB2DFF777F2E6E
:104A100076FE0BC0372D3E7FA51450F474FE0AC0FD
:104A200072FC08C0372D3E7E05C0BA2C372D03C05E
:104A3000BA2C01C0B52C34FF0DC0FE01EA0DF11DEA
:104A40008081803311F4397E09C032FF06C0B394EF
:104A5000B39404C0832F867809F0B39433FD13C058
:104A600030FF06C05A2CB31418F4530C5B18B32C47
:104A7000B31468F4B70180E290E03C870E94AF294C
:104A8000B3943C85F5CFB31410F43B1801C0312C1E
:104A900034FF12C0B70180E390E03C870E94AF2949
:104AA0003C8532FF17C031FD03C088E790E002C0AB
:104AB00088E590E0B7010CC0832F867859F031FF6C
:104AC00002C08BE201C080E237FD8DE2B70190E0C9
:104AD0000E94AF29A51438F4B70180E390E00E944A
:104AE000AF295A94F7CFAA94F401EA0DF11D808101
:104AF000B70190E00E94AF29A110F5CF332009F44F
:104B000051CEB70180E290E00E94AF293A94F6CFEF
:104B1000F7018681978102C08FEF9FEF2C96E2E12B
:104B20000C94932B0F931F93CF93DF93869F800159
:104B3000879F100D969F100D1124C8010E944422DA
:104B4000EC01009729F0A80160E070E00E949D2927
:104B5000CE01DF91CF911F910F9108954F925F92F7
:104B60006F927F929F92AF92BF92CF92DF92EF921D
:104B7000FF920F931F93CF93DF93CDB7DEB72997A3
:104B80000FB6F894DEBF0FBECDBF6A01122FB02E54
:104B90002BE3201720F0FF24F394F00E02C0BCE3B7
:104BA000FB2E0F2D27E0AE014F5F5F4F0E9499282B
:104BB000AC018981982F9970913031F0E1FC06C0E9
:104BC000E0FE06C090E205C09DE203C09BE201C08A
:104BD00090E0EE2DE07183FF3CC0911102C083E0B4
:104BE00001C084E0811718F4212F281B01C020E0A8
:104BF000E1110BC0F601822F30E2882319F03193C6
:104C00008150FBCFC20ED11C20E0992329F0D601A0
:104C10009C93F60131966F01C6010396E2FE0AC02D
:104C20003EE4D6013C9341E411964C9311971296C1
:104C30003C9306C03EE6F601308341E64183328371
:104C4000FC01322F40E2332309F442C0419331503A
:104C5000FACF82FF44C0911102C083E001C084E01A
:104C6000811718F4212F281B01C020E0E1110BC08F
:104C7000F601822F30E2882319F031938150FBCF67
:104C8000C20ED11C20E0992329F0D6019C93F60195
:104C900031966F01C6010396E2FE0BC039E4D601DE
:104CA0003C933EE411963C93119736E412963C9364
:104CB00007C039E6F60130833EE6318336E63283BB
:104CC000FC01322F40E2332319F041933150FBCFE6
:104CD000FC01E20FF11D10828EEF9FEFB7C0F1E0F3
:104CE000911101C0F0E06F2F70E01416150624F446
:104CF0009A012F5F3F4F02C021E030E0260F371F9F
:104D0000BB2029F06B2D70E06F5F7F4F02C060E029
:104D100070E0260F371F612F70E0261737071CF44D
:104D2000121B212F01C020E03E2D387159F4D6010D
:104D3000322F60E2332319F06D933150FBCFC20E56
:104D4000D11C20E0FF2331F0D6019C93B6016F5FA8
:104D50007F4F6B01E1110BC0F601922F30E39923D5
:104D600019F031939150FBCFC20ED11C20E09F2D42
:104D7000940F3A81782F7071A72E84FF03C03133CE
:104D800009F49150191624F4993018F098E001C0F4
:104D900091E0E42F852F57FF02C0E0E080E06E2F06
:104DA000782FE0E0F0E0AEE29A2E3A01691A71083D
:104DB0002A01461A570A0B2D10E011950195110989
:104DC0006F3F8FEF780729F4D6019C92C6010196B8
:104DD0006C014617570784F0661677066CF47F015E
:104DE000E40CF51CA1E0B0E0AC0FBD1FEA0EFB1E09
:104DF000D7011196BC9002C090E3B92E61507109A1
:104E00003196C60101967C016017710724F0D60126
:104E1000BC926C01D5CF6417750741F4363320F48A
:104E2000353321F4A11002C081E3B82EF601B0821F
:104E3000F701822F90E2882319F091938150FBCFE4
:104E4000F701E20FF11D108280E090E029960FB685
:104E5000F894DEBF0FBECDBFDF91CF911F910F91B0
:104E6000FF90EF90DF90CF90BF90AF909F907F909A
:104E70006F905F904F900895A0E0B0E0E2E4F7E219
:104E80000C947B2BEC017B016115710519F0DB01A2
:104E90008D939C938E010F5F1F4F7880872D90E03C
:104EA0000E947129892B11F0E801F4CFBDE27B1239
:104EB00005C00F5F1F4F7980C1E008C0EBE27E1292
:104EC00004C08E010E5F1F4F7980C0E06801F1E0E1
:104ED000CF1AD10843E050E068E471E0C6010E94B7
:104EE0007A29892BF1F4680122E0C20ED11C45E039
:104EF00050E063E471E0C6010E947A29892B21F415
:104F0000680187E0C80ED11CE114F10419F0D70143
:104F1000CD92DC92C111FFC060E070E080E89FE7B5
:104F200003C143E050E060E471E0C6010E947A29C9
:104F3000892B51F4E114F10409F4F2C00E5F1F4F04
:104F4000F70111830083ECC0680160E070E0CB01E1
:104F500000E010E0F601D0EDD70DDA3058F52C2F37
:104F60002260622E2C2F2870C2FF05C0211128C09C
:104F70000F5F1F4F25C0222311F001501109A5E03A
:104F8000B0E09B01AC010E946C2B4B015C01880CD2
:104F9000991CAA1CBB1CC501B4016D0F711D811D9C
:104FA000911D6839A9E97A078A07A9E19A0740F0B3
:104FB000C66005C0DE3F51F4C3FD44C0C8606C2E1E
:104FC000BFEFCB1ADB0A7080C62DC4CF2D2F2F7DEB
:104FD0002531C1F540814D3211F4C06106C04B321C
:104FE00021F0319621E030E006C03296D6011196CC
:104FF0004C9122E030E0A0EDA40FAA3018F0E21BA3
:10500000F30B20C040E050E04038BCE05B075CF4AC
:105010009A01220F331F220F331F420F531F440FD9
:10502000551F4A0F511D3196DF0111972C91A0EDAC
:10503000A20FAA3048F3C4FF03C05195419551090E
:10504000040F151FC1FF07C0E114F10421F03197CF
:10505000D701ED93FC930E944A2AC370C33019F024
:105060006B017C0106C06B017C01F7FAF094F7F844
:10507000F09420E030E0A901C701B6010E94452A62
:10508000882309F445C017FF06C011950195110941
:10509000CFE5D1E002C0C7E7D1E05E01B8E1AB1ACD
:1050A000B1084601BE2DAF2D90E2E92EF12C0E1570
:1050B0001F0584F0FE012591359145915491B4016D
:1050C0008B2F9A2F0E94AB2A4B01B82FA92F0E19B4
:1050D0001F09EDCF2497F594E794CA15DB0539F73E
:1050E0006401EB2EFA2E8E2D880F8F2D881F8F3F97
:1050F00049F020E030E0A901C701B6010E94452A2D
:10510000811106C082E290E09093410680934006B0
:10511000C701B60109C060E070E080E89FEF04C0FD
:1051200060E070E080EC9FE7CDB7DEB7EEE00C9476
:10513000972B283008F027E03327DA01990F311D2B
:1051400087FD916000966105710539F432602E5F2C
:105150003D9330E32A95E1F708959F3F30F0803882
:105160007105610509F03C5F3C5F3D93913008F0AB
:105170008068911DDF93CF931F930F93FF92EF925F
:10518000192F987F9695E92F96959695E90FFF2709
:10519000EB52FE4F99273327EE24FF24A701E701A6
:1051A00005900894079428F4360FE71EF81E491F4F
:1051B000511D660F771F881F991F0694A1F7059050
:1051C000079428F4E70EF81E491F561FC11D770FDC
:1051D000881F991F661F0694A1F70590079428F46D
:1051E000F80E491F561FC71FD11D880F991F661F34
:1051F000771F0694A1F70590079420F4490F561FD6
:10520000C71FD81F990F661F771F881F0694A9F71D
:1052100084911095177041F0D695C795579547958D
:10522000F794E7941A95C1F7EBE7F1E068941590CD
:10523000159135916591959105907FE27395E118EF
:10524000F10A430B560BC90BD009C0F7E10CF11E54
:10525000431F561FC91FD01D7EF4703311F48A9569
:10526000E6CFE894015030F0080F0AF40027021747
:1052700008F4202F2395022F7A3328F079E37D93C9
:105280002A95E9F710C07D932A9589F6069497959B
:105290006795379517951794E118F10A430B560B4C
:1052A000C90BD00998F023957E9173957A3308F055
:1052B00070E37C932013B8F77E9170617D9330F09A
:1052C000839571E37D9370E32A95E1F71124EF90C4
:1052D000FF900F911F91CF91DF91992787FD9095B6
:1052E000089591110C94182B803219F08950855033
:1052F000C8F70895FB01DC014150504088F08D91C2
:1053000081341CF08B350CF4805E659161341CF0A7
:105310006B350CF4605E861B611171F3990B089577
:10532000881BFCCFFC010590615070400110D8F73C
:10533000809590958E0F9F1F0895DC0101C06D939D
:1053400041505040E0F70895FC01615070400190D9
:105350000110D8F7809590958E0F9F1F08950F9399
:105360001F93CF93DF93FB01238121FD03C08FEFB8
:105370009FEF28C022FF16C04681578124813581C6
:105380004217530744F4A081B1819D012F5F3F4F25
:10539000318320838C93268137812F5F3F4F378362
:1053A000268310C0EB01092F182F0084F185E02D12
:1053B0000995892BE1F68E819F8101969F838E83CB
:1053C000812F902FDF91CF911F910F910895FA01B6
:1053D000AA27283051F1203181F1E8946F936E7F34
:1053E0006E5F7F4F8F4F9F4FAF4FB1E03ED0B4E025
:1053F0003CD0670F781F891F9A1FA11D680F791F66
:105400008A1F911DA11D6A0F711D811D911DA11D76
:1054100020D009F468943F912AE0269F1124301986
:10542000305D3193DEF6CF010895462F4770405D21
:105430004193B3E00FD0C9F7F6CF462F4F70405DD0
:105440004A3318F0495D31FD4052419302D0A9F72B
:10545000EACFB4E0A6959795879577956795BA9525
:10546000C9F700976105710508959B01AC010A2EEB
:1054700006945795479537952795BA95C9F7620FC2
:10548000731F841F951FA01D08950E94872A08F48A
:1054900081E00895E89409C097FB3EF490958095CB
:1054A000709561957F4F8F4F9F4F9923A9F0F92FEA
:1054B00096E9BB279395F695879577956795B79568
:1054C000F111F8CFFAF4BB0F11F460FF1BC06F5F4E
:1054D0007F4F8F4F9F4F16C0882311F096E911C060
:1054E000772321F09EE8872F762F05C0662371F081
:1054F00096E8862F70E060E02AF09A95660F771F95
:10550000881FDAF7880F9695879597F90895990F70
:105510000008550FAA0BE0E8FEEF16161706E8077D
:10552000F907C0F012161306E407F50798F0621B9E
:10553000730B840B950B39F40A2661F0232B242B73
:10554000252B21F408950A2609F4A140A6958FEF92
:10555000811D811D08950E94BE2A0C94322B0E9449
:10556000242B38F00E942B2B20F0952311F00C9463
:105570001B2B0C94212B11240C94662B0E94432B83
:1055800070F3959FC1F3950F50E0551F629FF00196
:10559000729FBB27F00DB11D639FAA27F00DB11DAF
:1055A000AA1F649F6627B00DA11D661F829F222738
:1055B000B00DA11D621F739FB00DA11D621F839FBF
:1055C000A00D611D221F749F3327A00D611D231F95
:1055D000849F600D211D822F762F6A2F11249F57E3
:1055E00050409AF0F1F088234AF0EE0FFF1FBB1FE6
:1055F000661F771F881F91505040A9F79E3F5105A5
:1056000080F00C941B2B0C94662B5F3FE4F3983EC8
:10561000D4F3869577956795B795F795E7959F5F4E
:10562000C1F7FE2B880F911D9695879597F90895E0
:1056300099278827089597F99F6780E870E060E0D0
:1056400008959FEF80EC089500240A94161617061B
:1056500018060906089500240A9412161306140663
:1056600005060895092E0394000C11F4882352F0C6
:10567000BB0F40F4BF2B11F460FF04C06F5F7F4F7E
:105680008F4F9F4F089557FD9058440F551F59F065
:105690005F3F71F04795880F97FB991F61F09F3F1F
:1056A00079F087950895121613061406551FF2CF48
:1056B0004695F1DF08C0161617061806991FF1CF98
:1056C00086957105610508940895E894BB276627BF
:1056D0007727CB0197F908950E94AE2BA59F900DD7
:1056E000B49F900DA49F800D911D112408952F92B9
:1056F0003F924F925F926F927F928F929F92AF9262
:10570000BF92CF92DF92EF92FF920F931F93CF93AE
:10571000DF93CDB7DEB7CA1BDB0B0FB6F894DEBF45
:105720000FBECDBF09942A88398848885F846E846B
:105730007D848C849B84AA84B984C884DF80EE80B5
:10574000FD800C811B81AA81B981CE0FD11D0FB6BE
:10575000F894DEBF0FBECDBFED010895A29FB0014A
:10576000B39FC001A39F700D811D1124911DB29F95
:10577000700D811D1124911D08950E94D12B0C9450
:10578000322B0E942B2B58F00E94242B40F029F43E
:105790005F3F29F00C941B2B51110C94662B0C9439
:1057A000212B0E94432B68F39923B1F3552391F3E6
:1057B000951B550BBB27AA2762177307840738F080
:1057C0009F5F5F4F220F331F441FAA1FA9F335D0DD
:1057D0000E2E3AF0E0E832D091505040E695001C91
:1057E000CAF72BD0FE2F29D0660F771F881FBB1F4B
:1057F000261737074807AB07B0E809F0BB0B802D29
:10580000BF01FF2793585F4F3AF09E3F510578F054
:105810000C941B2B0C94662B5F3FE4F3983ED4F35F
:10582000869577956795B795F7959F5FC9F7880F28
:10583000911D9695879597F90895E1E0660F771F7A
:10584000881FBB1F621773078407BA0720F0621B0B
:10585000730B840BBA0BEE1F88F7E09508950E9436
:105860004B2B88F09F5798F0B92F9927B751B0F07C
:10587000E1F0660F771F881F991F1AF0BA95C9F7D4
:1058800014C0B13091F00E94652BB1E008950C94E2
:10589000652B672F782F8827B85F39F0B93FCCF395
:1058A000869577956795B395D9F73EF49095809551
:1058B000709561957F4F8F4F9F4F089597FB072EEF
:1058C00016F4009407D077FD09D00E949A2C07FCAB
:1058D00005D03EF4909581959F4F08957095619500
:1058E0007F4F0895A1E21A2EAA1BBB1BFD010DC01C
:1058F000AA1FBB1FEE1FFF1FA217B307E407F50780
:1059000020F0A21BB30BE40BF50B661F771F881F5B
:10591000991F1A9469F760957095809590959B01F1
:10592000AC01BD01CF010895EE0FFF1F0590F4916A
:10593000E02D0994AA1BBB1B51E107C0AA1FBB1F86
:10594000A617B70710F0A61BB70B881F991F5A950B
:10595000A9F780959095BC01CD010895A0E0B0E035
:10596000E4EBFCE20C947B2BEC01009721F4CB01DF
:105970000E944422B8C0FC01E60FF71F9C01225090
:105980003109E217F30708F4ACC0D9010D911C915D
:10599000119706171707B0F00530110508F49FC0DE
:1059A000C80104978617970708F499C00250110997
:1059B000061B170B019311936D937C93CF010E94EB
:1059C000D9228DC05B01A01AB10A4C01800E911E34
:1059D000A0913806B091390640E050E0E12CF12C5E
:1059E000109709F44AC0A815B905D1F56D907C90BF
:1059F0001197630182E0C80ED11CCA14DB0480F148
:105A0000A3014A195B096A0182E0C80ED11C1296F3
:105A1000BC9012971396AC91B5E0CB16D10440F030
:105A2000B282A38351834083D9016D937C930AC0D2
:105A30000E5F1F4FC301800F911FF9019183808377
:105A4000EB2DFA2FE114F10431F0D7011396FC93FA
:105A5000EE93129744C0F0933906E09338063FC0A6
:105A60008D919C9111974817590708F4AC017D015D
:105A700012960D90BC91A02DB3CF809136069091D7
:105A8000370688159905E1F446175707C8F4809141
:105A9000000190910101009741F48DB79EB74091AC
:105AA000040150910501841B950BE817F907C8F410
:105AB000F0933706E0933606F901718360830FC0D7
:105AC000CB010E9444227C01009759F0A801BE013D
:105AD0000E947D2DCE010E94D922C70104C0CE01B3
