:100000000C94A7030C94CF030C94CF030C943016DC
:100010000C9430160C9430160C94CF030C94CF0330
:100020000C94CF030C94CF030C94CF030C94CF0308
:100030000C94CF030C94CF030C94CF030C94CF03F8
:100040000C945C170C94CF030C94FA070C94D4070F
:100050000C94CF030C94CF030C94CF030C94CF03D8
:100060000C94CF030C94CF03491A4C1A4F1A551A0B
:10007000521A561B561B561B561B561B581A5B1AF8
:100080005E1A611A641A561B561B561B561B561BCA
:10009000671A561B6D1A6A1A701A561B561B561B86
:1000A000561B561B561B561B561B561B561B561BC8
:1000B000561B561B561B561B561B561B561B561BB8
:1000C000561B561B561B561B561B561B731A761A6D
:1000D000791A7C1A7F1A821A851A881AB71C3B1E55
:1000E000CA1C3B1E851D3B1E3B1E3B1E3B1E3B1E72
:1000F000851DE01C3C1D3B1E3B1E3B1E3B1E3B1E4C
:100100003B1E3B1E3B1E3B1E971D3B1E271E871F93
:1001100089208B1FA01FB71F892089208920892053
:100120008920FA1FCE1FE21FF71FFA1F892089209E
:10013000892089208920692089200E2026204620B8
:100140004E414E494E495459494E46CDCCCC3D0ABC
:10015000D7233C17B7D13877CC2B329595E6241F9F
:10016000B14F0A000020410000C84200401C462058
:10017000BCBE4CCA1B0E5AAEC59D7400407A10F32B
:100180005A00A0724E18090010A5D4E80000E876C5
:1001900048170000E40B54020000CA9A3B0000001C
:1001A000E1F505000080969800000040420F000035
:1001B00000A08601000000102700000000E80300F6
:1001C0000000006400000000000A000000000001C0
:1001D00000000000002C76D888DC674F0823DFC1C0
:1001E000DFAE59E1B1B796E5E3E453C63AE651997B
:1001F0007696E8E6C28426EB898C9B62ED407C6FA4
:10020000FCEFBC9C9F40F2BAA56FA5F490055A2A5A
:10021000F75C936B6CF9676DC11BFCE0E40D47FE66
:10022000F520E6B500D0ED902E030094357705005B
:1002300080841E080000204E0A000000C80C3333E2
:1002400033330F986E12831141EF8D2114893BE6F1
:100250005516CFFEE6DB18D1844B381BF77C1D907A
:100260001DA4BBE424203284725E228100C9F124E3
:10027000ECA1E53D27536C617665205246204D6523
:1002800073736167652052656365697665643A20BA
:100290000057494649205245515545535420504F27
:1002A00053544544204552524F5200574946492025
:1002B0005245515545535420504F535445440057CF
:1002C0004946492057414954494E472052455120FB
:1002D000524553504F4E53450057494649205245C9
:1002E00051554553542053454E44005749464920E3
:1002F0005245515545535420495320504F5354496A
:100300004E47005749464920504F5354494E4720C5
:10031000524541445900574946492053544152548B
:1003200020504F5354494E47005749464920535493
:100330004F5020504F5354494E470057494649208B
:1003400053455256455220434F4E4E454354454423
:1003500000574946492053455256455220434F4E77
:100360004E454354494E470057494649205345524C
:10037000564552204552524F520057494649205344
:10038000455256455220444953434F4E4E454354DF
:100390004544005749464920574C414E20434F4E53
:1003A0004E4543544544005749464920574C414E19
:1003B00020434F4E4E454354494E47204641494CF9
:1003C000005749464920574C414E20434F4E4E4519
:1003D0004354494E47005749464920574C414E2007
:1003E000434845434B005749464920574C414E200E
:1003F000444953434F4E4E454354454400574946A4
:100400004920494E495449414C495A494E47204593
:1004100052524F52005749464920494E495449418A
:100420004C495A4544005749464920494E49544988
:10043000414C495A494E47005749464920424C557C
:100440004445440057494649204F4646002420462B
:100450007265652052414D203D200053656E6469F0
:100460006E672E2E2E002D2D2052656365697665F0
:10047000643A20002A2A2A20202041542053454E45
:10048000440041542B43495053454E443D00415490
:100490002B43495053454E443D004F6E20506F73DF
:1004A000743A200041542B434950434C4F5345006C
:1004B000467265652052414D2041465445523D20CB
:1004C000003D3D3D3E205055534820524551554535
:1004D000535453002420467265652052414D203DFF
:1004E00020000000000800020100000304070000D3
:1004F00000000000000000000000250028002B0084
:100500000000000023002600290004040404040461
:1005100004040202020202020303030303030102B2
:100520000408102040800102040810200102040881
:10053000102076696E3D2564266C763D2564266123
:100540006C3D2564007372633D25642663683D2518
:100550006C7526736C3D2564000D0A0020307825EB
:1005600030327800255309203D000D0A0025303235
:10057000780020307800255309203D000001020357
:1005800004054505320541542B5253540050415F38
:100590004D41580050415F484947480050415F4C29
:1005A0004F570050415F4D494E003136206269740B
:1005B00073003820626974730044697361626C650A
:1005C00064006E524632344C30312B006E5246324B
:1005D000344C3031003235304B42505300324D42B2
:1005E000505300314D42505300526164696F2045B1
:1005F00052524F52005354415455530909203D2043
:100600003078253032782052585F44523D2578208A
:1006100054585F44533D2578204D41585F52543D16
:1006200025782052585F505F4E4F3D257820545812
:100630005F46554C4C3D25780D0A00504120506FC7
:1006400077657209203D2025530D0A00A3059C05FE
:1006500094058D05435243204C656E6774680920EC
:100660003D2025530D0A00B905B205AA054D6F645A
:10067000656C0909203D2025530D0A00CC05C205F3
:1006800044617461205261746509203D2025530D39
:100690000A00E305DD05D50544594E50442F464573
:1006A000415455524500434F4E4649470900524672
:1006B0005F53455455500052465F43480900454E2C
:1006C0005F52584144445200454E5F414109005237
:1006D000585F50575F50302D360054585F414444A6
:1006E00052090052585F414444525F50322D350048
:1006F00052585F414444525F50302D310011121363
:100700001415160A0B0C0D0E0F526164696F20450B
:1007100052524F5200526164696F20426567696EA0
:1007200000467265652052414D203D2000535441E2
:10073000525400467265652052414D203D20000014
:10074000000000240027002A00000422B225112402
:100750001FBECFEFD8E0DEBFCDBF13E0A0E0B1E019
:10076000E2E2F4E602C005900D92AE3BB107D9F784
:1007700025E0AEEBB3E001C01D92A338B207E1F76C
:1007800013E0C6EAD3E004C02197FE010E9487303F
:10079000C53AD107C9F70E94731B0C9404320C941C
:1007A000000008950F931F93CF93DF93EC01CB01CB
:1007B000088119817B836A830E940A269983888332
:1007C00020E030E08C819D812817390770F4E881A2
:1007D000F981E20FF31F309729F0D801A20FB31F60
:1007E0008C9180832F5F3F4FEDCFC801DF91CF9178
:1007F0001F910F910C949F260F931F93CF93DF931C
:10080000FC0104811581FB01C481D581AE010C1767
:100810001D0708F4A801FB0160817181FC01808142
:1008200091810E948931009769F481E090E0C017BE
:10083000D10740F00C171D0710F080E090E0919573
:1008400081959109DF91CF911F910F910895EF92BA
:10085000FF920F931F93CF93DF93EC018C819D81C7
:100860008617970710F57A018B018A819B8186177D
:10087000970740F4685F7F4F8617970718F4CE01FB
:100880000E94D2038C819D818017910758F4E881E2
:10089000F981E80FF91F309719F0D7012C912083C7
:1008A0000196F2CF1D830C8305C06817790710F4F9
:1008B0007D836C83DF91CF911F910F91FF90EF901B
:1008C0000895FC01808191810C949F26CF93DF9342
:1008D000EC016C817D816F5F7F4F8A819B818617E0
:1008E000970718F4CE010E94D203E881F9818C8128
:1008F0009D81E80FF91F108288819981DF91CF9146
:1009000008950895CF92DF92EF92FF920F931F9375
:10091000FB01DC0100E010E098016A01E12CF12C00
:100920000C151D052E053F0538F461916D930F5F81
:100930001F4F2F4F3F4FF4CF840F951F1F910F91E3
:10094000FF90EF90DF90CF900895AF92BF92CF923B
:10095000DF92EF92FF920F931F93CF93DF931F923B
:10096000CDB7DEB78C016B017A01590188E090E0C8
:10097000F80193838283158214820E940A26F8016B
:1009800091838083F601848195818E159F0510F4F3
:100990000E946B311982BC016E197F09A616B70639
:1009A00008F4B501AE014F5F5F4FC8010E942704F4
:1009B000F80144815581F601608171816E0D7F1DC2
:1009C000F801808191810E9482040F90DF91CF9184
:1009D0001F910F91FF90EF90DF90CF90BF90AF905D
:1009E0000895CF92DF92EF92FF920F931F93CF93D0
:1009F000DF931F92CDB7DEB77C016B0188E090E0FA
:100A0000F70193838283158214820E940A26F701DC
:100A100091838083C114D104B9F0F60101900020C4
:100A2000E9F731978F010C191D091982AE014F5F4B
:100A30005F4FB801C7010E942704A801B601F70162
:100A4000808191810E9482040F90DF91CF911F914C
:100A50000F91FF90EF90DF90CF9008950E946B313F
:100A6000CF93DF93FC0124813581232B71F0FB01AF
:100A7000DC01CD91DC9160817181CE010E949731C2
:100A8000009719F08C1B9D0B02C08FEF9FEFDF9139
:100A9000CF910895CF93DF93DC01ED91FC91EB01B1
:100AA000A881B981309711F01097C9F4109759F0C7
:100AB000EB012C813D81232B31F08C9190E09195BD
:100AC0008195910914C0309781F0DC0114968D91C5
:100AD0009C911597892B49F0808190E008C0BD0159
:100AE000CF01DF91CF910C94793180E090E0DF91DC
:100AF000CF910895CF92DF92EF92FF920F931F93C1
:100B0000CF93DF936C017A018B01C0E0D0E0CE156A
:100B1000DF0589F0D8016D918D01D601ED91FC9131
:100B20000190F081E02DC6010995892B11F47E0119
:100B300002C02196ECCFC701DF91CF911F910F9199
:100B4000FF90EF90DF90CF900895FC01538D448D7E
:100B5000252F30E0842F90E0821B930B541710F068
:100B6000CF96089501970895FC01918D828D981775
:100B700061F0828DDF01A80FB11D5D968C91928D81
:100B80009F5F9F73928F90E008958FEF9FEF08957E
:100B9000FC01918D828D981731F0828DE80FF11D47
:100BA000858D90E008958FEF9FEF0895FC01918D62
:100BB000228D892F90E0805C9F4F821B91098F735B
:100BC0009927089583E594E00E94D60521E0892BBA
:100BD00009F420E0822F0895FC01848DDF01A80F25
:100BE000B11DA35ABF4F2C91848D90E001968F7355
:100BF0009927848FA689B7892C93A089B1898C9174
:100C000080648C93938D848D981306C00288F38939
:100C1000E02D80818F7D80830895EF92FF920F9366
:100C20001F93CF93DF93EC0181E0888F9B8D8C8D98
:100C3000981305C0E889F989808185FD24C0F62EC6
:100C40000B8D10E00F5F1F4F0F731127E02E8C8D5F
:100C5000E8120CC00FB607FCFACFE889F989808149
:100C600085FFF5CFCE010E94EC05F1CF8B8DFE0103
:100C7000E80FF11DE35AFF4FF0820B8FEA89FB89E1
:100C80008081806207C0EE89FF896083E889F989E5
:100C900080818064808381E090E0DF91CF911F911B
:100CA0000F91FF90EF900895CF93DF93EC01888D23
:100CB0008823C9F0EA89FB89808185FD05C0A88960
:100CC000B9898C9186FD0FC00FB607FCF5CF8081E6
:100CD00085FFF2CFA889B9898C9185FFEDCFCE0130
:100CE0000E94EC05E7CFDF91CF91089580E090E07E
:100CF000892B29F00E94E20581110C9400000895CF
:100D000008950895FB01108280E0089580E0089521
:100D1000CF93DF93CDB7DEB72A970FB6F894DEBF37
:100D20000FBECDBFFC0180A591A5009741F1DB016D
:100D3000FC0120813181F9014481558127E331E0B3
:100D40003A83298312962D913C9113973C832B83F0
:100D500014962D913C9115973E832D8316962D91D7
:100D60003C91179738872F8318962D913C911997AE
:100D70003A872987BE016F5F7F4FFA0109952A964E
:100D80000FB6F894DEBF0FBECDBFDF91CF910895AF
:100D90000C949F260C949F260C949F260C949F26BF
:100DA0000C949F26FC01808191810C949F26EF92E8
:100DB000FF920F931F93CF93DF93EC011982188258
:100DC0001B821A821D821C8261157105A9F17B01AB
:100DD000FB0101900020E9F731978F01061B170BEB
:100DE000B8016F5F7F4F80E090E00E94A1300097D4
:100DF00059F0998388831B830A832C813D81232B9F
:100E000081F4FC0110820DC088819981009711F056
:100E10000E949F26198218821D821C821B821A82C0
:100E20000BC01D830C83B701DF91CF911F910F91F0
:100E3000FF90EF900C948231DF91CF911F910F9131
:100E4000FF90EF900895DC01ED91FC910190F0810D
:100E5000E02D0994EF92FF920F931F93CF93DF93AE
:100E60008C017B01C0E0D0E0F701EC0FFD1F649125
:100E7000662361F0D801ED91FC910190F081E02DA5
:100E8000C8010995892B11F02196EECFCE01DF9193
:100E9000CF911F910F91FF90EF900895611571050B
:100EA00079F0FB0101900020E9F73197AF01461B73
:100EB000570BDC01ED91FC910280F381E02D099448
:100EC00080E090E008954F925F926F927F92EF9250
:100ED000FF920F931F93CF93DF93CDB7DEB7A19708
:100EE0000FB6F894DEBF0FBECDBF7C01FA01CB0177
:100EF00019A2223008F42AE08E010F5D1F4F422E06
:100F0000512C612C712CBF01A30192010E9465300C
:100F1000F901CA01015011096A3014F4605D01C081
:100F2000695CD8016C93232B242B252B61F7B80126
:100F3000C7010E944E07A1960FB6F894DEBF0FBE00
:100F4000CDBFDF91CF911F910F91FF90EF907F90D8
:100F50006F905F904F9008950F931F93CF93DF93FF
:100F6000EC010E944E078C016AEB73E0CE010E94F7
:100F70004E07800F911FDF91CF911F910F91089520
:100F80000F931F93CF93DF93EC010E942A078C01EC
:100F90006AEB73E0CE010E944E07800F911FDF9134
:100FA000CF911F910F9108951F920F920FB60F923C
:100FB00011242F933F934F935F936F937F938F935E
:100FC0009F93AF93BF93EF93FF9383E594E00E94C9
:100FD000EC05FF91EF91BF91AF919F918F917F9120
:100FE0006F915F914F913F912F910F900FBE0F9096
:100FF0001F9018951F920F920FB60F9211242F93E6
:101000008F939F93EF93FF93E0916304F0916404B7
:101010008081E0916904F0916A0482FD12C09081A0
:1010200080916C048F5F8F7320916D04821751F053
:10103000E0916C04F0E0ED5AFB4F958F80936C04C7
:1010400001C08081FF91EF919F918F912F910F901F
:101050000FBE0F901F9018954F925F926F927F92E4
:101060008F929F92AF92BF92CF92DF92EF92FF92B8
:101070000F931F93CF93DF931F92CDB7DEB77C0101
:101080002B01FC01848195816C01FFEFCF1ADF0AEF
:101090008C159D0508F06EC0F701228133812C1557
:1010A0003D05F0F5099628173907D0F58080918025
:1010B0009383828327E0AC01249FC001259F900D7C
:1010C00011240E940A26F701918380835401612C28
:1010D000712CF7018481958168167906F0F4F70187
:1010E00020813181C50188199909820F931F0097CA
:1010F00051F08E010F5F1F4F2FEF3FEF40E050E0A8
:10110000B5010E94A504C5010E946104FFEF6F1A9A
:101110007F0A27E0A20EB11CDCCFC4010E949F26EB
:10112000F701A480B58087E08A9D30018B9D700C0B
:101130001124812C912CF701AC14BD0408F040C09F
:1011400020813181C401860D971D820F931F009766
:1011500051F08E010F5F1F4F2FEF3FEF40E050E047
:10116000B2010E94A504FFEFAF1ABF0A27E0820E6A
:10117000911CE1CFC816D90628F527E0289F300139
:10118000299F700C11245601812C912CF7E06F0ED1
:10119000711CF70184819581A816B90688F4C301F2
:1011A000880D991DF70120813181820F931F0E94C4
:1011B0006104FFEFAF1ABF0A27E0820E911CE9CF4E
:1011C000D582C4820F90DF91CF911F910F91FF9034
:1011D000EF90DF90CF90BF90AF909F908F907F90D7
:1011E0006F905F904F900895CF92DF92EF92FF92B1
:1011F0000F931F93CF93DF931F92CDB7DEB78C0170
:10120000FB01E480F580E416F50610F40E946B31D2
:10121000E41AF50A2E153F0508F47901C080D18043
:10122000C40ED51E88E090E0F80193838283158276
:1012300014820E940A26F80191838083FFEFEF1643
:10124000FF0621F3F6018081181684F41982AE019D
:101250004F5F5F4FB701C8010E942704F801448126
:101260005581B601808191810E948204C8010F904E
:10127000DF91CF911F910F91FF90EF90DF90CF9072
:101280000895AF92BF92CF92DF92EF92FF920F93A9
:101290001F93CF93DF931F92CDB7DEB77C016B0115
:1012A000FB0101900020E9F731978F01061B170B16
:1012B000FC01A480B5801982B8016A0D7B1DAE01C6
:1012C0004F5F5F4F0E942704F70180819181A80141
:1012D000B6018A0D9B1D0E948204C7010F90DF9109
:1012E000CF911F910F91FF90EF90DF90CF90BF9023
:1012F000AF900895089508958091BE039091BF0323
:10130000892BC9F48DE090E00E940A26FC018FE24F
:1013100091E0918380831382128214821582168257
:101320001782108684E08187128614861386F093D4
:10133000BF03E093BE038091BE039091BF03089565
:1013400008950F931F93CF93DF93CDB7DEB72A97FE
:101350000FB6F894DEBF0FBECDBFFC01208D26175F
:1013600009F467C08C01608F87E391E09A838983D9
:10137000FC83EB831E821D8270E078876F831A8660
:101380001986BE016F5F7F4FCF010E948806F8016A
:10139000808D8733C9F028F48433B1F08633A1F00F
:1013A00046C08833C9F0893309F041C00E94501704
:1013B000F801668F778F80A391A363E3C8010E9431
:1013C000A10988E893E129C00E945017F801668FAF
:1013D000778F80A391A32BC00E945017F801668FCE
:1013E000778F80A391A39481992389F08589E80F51
:1013F000F11DE80FF11D168215828F5FF80188300C
:1014000010F4858B01C0158A9150F801948363E331
:10141000C8010E94A10988EE93E0F80193A382A37A
:101420000E945017F801628F738F848F958F81E02F
:1014300001C080E02A960FB6F894DEBF0FBECDBF84
:10144000DF91CF911F910F910895EF92FF920F932B
:101450001F93CF93DF93CDB7DEB72A970FB6F894DB
:10146000DEBF0FBECDBFFC012789261709F461C07E
:101470008C01678B87E391E09A838983FC83EB83FC
:101480001E821D8270E078876F831A861986CE01CE
:1014900001967C01BC01CF010E948806F801878972
:1014A0008D3081F028F4843051F08A30E1F022C090
:1014B000873169F08831B9F08E30E1F414C080E2F0
:1014C0009EE407C06AE0C8010E94250A0CC080E3C0
:1014D00095E7F80193A382A30E945017F801628F49
:1014E000738F848F958F0E945017F801668F778FC6
:1014F00080A391A364ED74E083E594E00E942A0741
:101500008091770590917805B701681B790B83E589
:1015100094E00E94470B82E390E0F80193A382A33A
:101520000E945017F801628F738F848F958F81E02E
:1015300001C080E02A960FB6F894DEBF0FBECDBF83
:10154000DF91CF911F910F91FF90EF900895CF936E
:10155000DF93EC016BE00E94250A6DEE72E08A8158
:101560009B810E94AC070E9450176A8F7B8F8C8FE3
:101570009D8FDF91CF910895EF92FF920F931F936C
:10158000CF93DF93CDB7DEB7C054D1090FB6F8942F
:10159000DEBF0FBECDBF8C0187EF92E09F938F938C
:1015A00084E093E09F938F93CE0101967C019F93FB
:1015B0008F930E94E131B701F801828193810E94EB
:1015C000AC0766E1C8010E94250A0E945017F80185
:1015D000628F738F848F958F0F900F900F900F9065
:1015E0000F900F90C05CDF4F0FB6F894DEBF0FBEB8
:1015F000CDBFDF91CF911F910F91FF90EF90089594
:10160000EF92FF920F931F93CF93DF93CDB7DEB787
:10161000C054D1090FB6F894DEBF0FBECDBF8C0108
:101620008EE193E09F938F9389E892E09F938F934D
:1016300087E293E09F938F93CE0101967C019F9365
:101640008F930E94E131B701F801828193810E945A
:10165000AC076CE0C8010E94250A0E945017F801EF
:10166000628F738F848F958F0FB6F894DEBF0FBE95
:10167000CDBFC05CDF4F0FB6F894DEBF0FBECDBF4D
:10168000DF91CF911F910F91FF90EF900895CF922E
:10169000DF92EF92FF920F931F93CF93DF938C0112
:1016A0006B01770FEE08FF08F7FE12C06DE20E9493
:1016B0002307EC0144275527BA014C195D096E092F
:1016C0007F092AE0C8010E946307C80FD91F06C01E
:1016D0002AE0B701A6010E946307EC016AEB73E000
:1016E000C8010E944E078C0F9D1FDF91CF911F9163
:1016F0000F91FF90EF90DF90CF9008950F931F937D
:10170000CF938C0166E08BE094E00E94BC10C82F60
:10171000C77D0230110531F4C0628BE990E0A0E092
:10172000B0E00DC00130110529F085E590E0A0E0A2
:10173000B0E005C0C86081E490E0A0E0B0E0809334
:101740001B0490931C04A0931D04B0931E044C2F03
:1017500066E08BE094E00E94611066E08BE094E02C
:101760000E94BC1091E08C1390E0892FCF911F91C3
:101770000F9108958F929F92AF92BF92EF92FF9236
:101780000F931F93CF93DF9300D0CDB7DEB7CB017C
:10179000EDB6FEB6FB0124813581235F3F4F6DB767
:1017A0007EB7621B730B0FB6F8947EBF0FBE6DBF82
:1017B0000DB71EB70F5F1F4F49835A830E946604FF
:1017C0009F938F931F9283E08F935A815F934981F8
:1017D0004F938CE693E09F938F931F930F930E94F8
:1017E000E131B80183E594E00E944E070E94501752
:1017F0004B015C018DB79EB70A960FB6F8949EBF59
:101800000FBE8DBF10E083E594E00E94B4058534DF
:10181000910581F011110EC00E945017DC01CB011F
:1018200088199909AA09BB0911E08897A105B10592
:1018300050F7E8CF61E070E080E090E00E9416177A
:101840000FB6F894FEBE0FBEEDBE0F900F90DF9165
:10185000CF911F910F91FF90EF90BF90AF909F900D
:101860008F90089590E0FC01EE51FB4F3491FC0104
:10187000E25EFA4F2491FC01E65FFA4FE491EE2319
:1018800009F43BC0332339F1333091F038F431306F
:10189000A9F0323001F584B58F7D12C0373091F058
:1018A0003830A1F03430B9F4809180008F7D03C0CE
:1018B000809180008F77809380000DC084B58F77F2
:1018C00084BD09C08091B0008F7703C08091B000C3
:1018D0008F7D8093B000F0E0EE0FFF1FEA50FB4FCA
:1018E000A591B4918FB7F894EC91611103C0209544
:1018F0002E2301C02E2B2C938FBF089582E00895D4
:10190000CB0108957F928F929F92AF92BF92CF9218
:10191000DF92EF92FF920F931F93CF93DF93EC012F
:1019200049015A018B01C12CD12C7601C814D9046C
:10193000EA04FB0484F5F80171908F018F8580FF24
:101940000BC0E881F9810084F185E02D20E144E0BD
:1019500060E070E0CE010995EB85FC858D859E8564
:10196000E817F90738F470828B859C8501969C876F
:101970008B870BC0E881F981672D70E0028CF38DB5
:10198000E02DCE010995019649F02FEFC21AD20A37
:10199000E20AF20ACBCFB401C50102C0B601C70109
:1019A000DF91CF911F910F91FF90EF90DF90CF903B
:1019B000BF90AF909F908F907F900895CF93DF93CB
:1019C000EC01E881F9810288F389E02D09958F3FC8
:1019D0002FEF920731F02D813E812F5F3F4F3E83E5
:1019E0002D83DF91CF9108958FEF9FEF089560E0F1
:1019F00070E0CB01089580E090E00895CB01089558
:101A0000CF93DF93EC0188899989DC01ED91FC91FA
:101A10000084F185E02D0995892BA9F3888999899E
:101A2000DC01ED91FC910284F385E02DDF91CF91F3
:101A30000994CF93DF93EC0188899989DC01ED91BA
:101A4000FC910084F185E02D0995892BA9F3888903
:101A50009989DC01ED91FC910484F585E02DDF91FD
:101A6000CF910994AF92BF92CF92DF92EF92FF9203
:101A70000F931F93CF93DF9300D000D0CDB7DEB785
:101A80008C015B01C12CD12C7601F80180899189F0
:101A9000DC01ED91FC910284F385E02D29833A83EA
:101AA0004B835C83099529813A814B815C818F3F0F
:101AB00071F0C216D306E406F5064CF4D5018D93F9
:101AC0005D01BFEFCB1ADB0AEB0AFB0ADECFC701D1
:101AD000B6010F900F900F900F90DF91CF911F9153
:101AE0000F91FF90EF90DF90CF90BF90AF9008954F
:101AF000DC0150968D919C915197DC01ED91FC9108
:101B00000084F185E02D099480E090E0089580E064
:101B100090E0089580E090E0089580E090E00895DE
:101B20000895CF93DF93C0912304D0912404E881DA
:101B3000F9810084F185E02DCE010995892BB9F357
:101B4000E881F9810284F385E02DCE01DF91CF9108
:101B500009941F93CF93DF93182FC0912304D09142
:101B600024048A3041F4E881F9810190F081E02D6C
:101B70006DE0CE010995E881F9810190F081E02DB9
:101B8000612FCE01099521E030E0019711F420E0AA
:101B900030E0C901DF91CF911F9108950C949F26E9
:101BA0000C949F260C949F26089508950C949F26CC
:101BB000DC01ED91FC91369720813181820F931FDA
:101BC0000C94D60DFB0120813181FC0131832083EF
:101BD000FB0142815381F901369720813181FC015B
:101BE000E20FF31F5183408308952FE831E0FC0199
:101BF0003183208329E931E0318F208F6FE971E053
:101C00000C94E20DDC01ED91FC913697208131813D
:101C1000820F931F0C94F50DCF93DF93EC010E947C
:101C2000F50DCE01DF91CF910C949F26DC01ED9153
:101C3000FC91369720813181820F931F0C940C0EFA
:101C40000C949F26089508950C949F26DC01ED9135
:101C5000FC91369720813181820F931F0C94240EC2
:101C6000FB0120813181FC0131832083FB01428112
:101C70005381F901369720813181FC01E20FF31F76
:101C800051834083089527E032E0FC0131832083B3
:101C900021E132E0358B248B67E172E00C94300E49
:101CA000DC01ED91FC91369720813181820F931FE9
:101CB0000C94430ECF93DF93EC010E94430ECE01B0
:101CC000DF91CF910C949F26DC01ED91FC9136972A
:101CD00020813181820F931F0C945A0E0C949F2601
:101CE000CF92DF92EF92FF920F931F93CF93DF93E8
:101CF000CDB7DEB7A8970FB6F894DEBF0FBECDBF45
:101D00007C018B01E4E8F5E0659174919E012F5F01
:101D10003F4F6901C9010E943B27F70185811F924E
:101D20008F9384811F928F9383818F9382818F936E
:101D3000DF92CF921F9288E28F931F930F930E949E
:101D4000B131F80117A201900020E9F7CF01019706
:101D50000FB6F894DEBF0FBECDBF801BA8960FB69E
:101D6000F894DEBF0FBECDBFDF91CF911F910F91D1
:101D7000FF90EF90DF90CF9008950F931F93CF9334
:101D8000DF938C01EB016F3F8FEF780719F480E050
:101D900090E00FC06A3031F46DE0F80180899189DC
:101DA0000E9423076C2FF801808991890E942307E4
:101DB000CE01DF91CF911F910F9108958F929F9245
:101DC000BF92CF92DF92EF92FF920F931F93CF9328
:101DD000DF9300D000D0CDB7DEB78C014B01C12C12
:101DE000D12C7601C216D306E406F50644F5F401BB
:101DF000B1904F01FAE0BF120EC06DE0F80180898A
:101E0000918929833A834B835C830E9423075C81F9
:101E10004B813A8129816B2DF80180899189298331
:101E20003A834B835C830E942307FFEFCF1ADF0ABC
:101E3000EF0AFF0A5C814B813A812981D3CFCA0125
:101E4000B9010F900F900F900F90DF91CF911F91DC
:101E50000F91FF90EF90DF90CF90BF909F908F9069
:101E60000895CF93DF93EC0166E875E08A819B814A
:101E70000E94C00780ED97E09BA38AA30E945017A1
:101E80006A8F7B8F8C8F9D8F0E9450176A8F7B8FFC
:101E90008C8F9D8F62E0CE01DF91CF910C94250A4B
:101EA0000F931F93CF93DF93EC018C819D89883032
:101EB00070F4980F983008F09770FE01E90FF11D4B
:101EC000E90FF11D768365838F5F8C8321C08B01C1
:101ED000FE01E90FF11DE90FF11D85819681168242
:101EE0001582009739F0DC01ED91FC910280F381BD
:101EF000E02D09958D89FE01E80FF11DE80FF11D18
:101F0000168305838F5F883010F48D8B01C01D8A86
:101F100081E0DF91CF911F910F9108950895089569
:101F200008950895089561E00C94111660E00C94F2
:101F300011162F923F924F925F926F927F928F92E3
:101F40009F92AF92BF92CF92DF92EF92FF920F9348
:101F50001F93CF93DF9300D01F92CDB7DEB73C0124
:101F6000D42E2DB63EB67F936F9386E795E09F9370
:101F70008F932B830E948D272B812D0D2A830F9009
:101F80000F900F900F9082E7482E85E0582E9DE627
:101F9000A92E95E0B92EFA81DF1609F450C08DB64E
:101FA0009EB6F3012685022F10E08DB79EB7801BE9
:101FB000910B0FB6F8949EBF0FBE8DBFEDB7FEB765
:101FC00031967F01F1E0FD0DF983C3012B830E945F
:101FD000960F8D2D8F710E94291667012B812E0D72
:101FE0002C1549F08FEF2B830E942916F60181935F
:101FF0006F012B81F5CFC3010E94930F5F924F9227
:102000000E948D270E0D1F1D0F900F90015011097A
:102010000E151F0568F0F80180811F928F93BF9203
:10202000AF920E948D270F900F900F900F90EECFE0
:102030000FB6F8949EBE0FBE8DBED980ACCF8AE697
:1020400095E09F938F930E948D270F900F900FB66E
:10205000F8943EBE0FBE2DBE0F900F900F90DF91F3
:10206000CF911F910F91FF90EF90DF90CF90BF9095
:10207000AF909F908F907F906F905F904F903F9028
:102080002F900895EF92FF921F93CF93DF931F92AB
:10209000CDB7DEB77C0169830E94960F6981862FD8
:1020A0000E942916182FC7010E94930F812F0F90AD
:1020B000DF91CF911F91FF90EF90089561EE0C9406
:1020C0004210EF92FF921F93CF93DF9300D0CDB7D2
:1020D000DEB77C014A8369830E94960F6981862F4F
:1020E0008F7180620E942916182F4A81842F0E94C6
:1020F0002916C7010E94930F812F0F900F90DF9137
:10210000CF911F91FF90EF900895CF92DF92EF92C1
:10211000FF920F931F93CF93DF9300D01F92CDB701
:10212000DEB77C01142F2A835B8369830E94960F9C
:102130006981862F8F7180620E942916082FC12E17
:102140005B81D52E2A81120F1C1531F0F601819189
:102150006F010E942916F8CFC7010E94930F802FAC
:102160000F900F900F90DF91CF911F910F91FF90E3
:10217000EF90DF90CF900895EF92FF921F93CF934F
:10218000DF931F92CDB7DEB77C0169830E94960F63
:102190006981862F8F710E9429168FEF0E94291660
:1021A000182FC7010E94930F812F0F90DF91CF91BD
:1021B0001F91FF90EF900895CF93DF93EC0160E0C3
:1021C0000E94BC1081FD0EC0482F426060E0CE012D
:1021D0000E94611065E070E080E090E0DF91CF91B7
:1021E0000C941617DF91CF910895CF93DF93EC01F4
:1021F0000E94DC1060E0CE010E94BC10482F4160BC
:1022000060E0CE010E94611040E767E0CE010E94CD
:10221000611061E0CE010E9405168985882349F08E
:102220002E85AE01475F5F4F6AE0CE010E948510A8
:1022300014C062E0CE010E94BC10ECE7F5E0E4912E
:1022400021E030E001C0220FEA95EAF72095422F05
:10225000482362E0CE010E9461106DE1CE010E9430
:10226000BC1081FF05C0CE01DF91CF910C945E10B0
:10227000DF91CF910895CF92DF92EF92FF920F936B
:102280001F93CF93DF931F92CDB7DEB77C01C22E91
:102290007F936F9324E635E03F932F9349830E9409
:1022A0008D274981C40E0F900F900F900F900CE571
:1022B00015E04C1599F0DD24D394D40E642FC7019A
:1022C0000E94BC101F928F931F930F930E948D2723
:1022D0000F900F900F900F904D2DEBCF89E595E06B
:1022E0009F938F930E948D270F900F900F90DF91F7
:1022F000CF911F910F91FF90EF90DF90CF900895B5
:10230000DF92EF92FF920F931F93CF93DF93CDB79E
:10231000DEB7CF51D1400FB6F894DEBF0FBECDBFB0
:1023200061E085E00E94CF1661E087E00E94CF1651
:1023300061E086E00E94CF16E0916304F0916404AE
:1023400082E08083E0915F04F09160041082E0916C
:102350006104F091620480E1808310926B04E0914B
:102360006704F091680486E08083E0916504F09151
:102370006604808180618083E0916504F091660449
:10238000808188608083E0916504F091660480819B
:1023900080688083E0916504F091660480818F7D80
:1023A0008083E090F103F090F2038BE094E0D7019A
:1023B00013969C938E93129780910B0490910C042A
:1023C00020910D0430910E048217930719F061E0FB
:1023D0000E94CF1680910D0490910E0420910B0461
:1023E00030910C042817390719F061E00E94CF16CC
:1023F0001FB7F8948091C803811127C0E4E1F5E08C
:102400008491E8E2F5E09491E82FF0E0EE0FFF1FF1
:10241000E15CF84FA591B491EC91E92321F461E0DE
:102420008AE00E94320C61E08AE00E94CF168CB5EF
:1024300080618CBD8CB580648CBD61E08DE00E94B4
:10244000CF1661E08BE00E94CF168091C8038F5FAA
:102450008093C8031FBF60E08BE094E00E940516E4
:1024600061E08BE094E00E94111665E070E080E08E
:1024700090E00E9416174CE060E08BE094E00E9430
:1024800061104FE564E08BE094E00E94611082E00F
:1024900090E00E947E0B882319F081E08093110464
:1024A00066E08BE094E00E94BC10182F80E090E082
:1024B0000E947E0B8BE094E00E94960F80E50E94C4
:1024C000291683E70E9429168BE094E00E94930F5F
:1024D00040E06DE18BE094E00E94611040E06CE12F
:1024E0008BE094E00E9461101092130440E767E0D3
:1024F0008BE094E00E9461104CE465E08BE094E096
:102500000E94611062EE8BE094E00E9442108BE02A
:1025100094E00E945E108BE094E00E94DC1060E08A
:102520008BE094E00E94BC10482F4E7F60E08BE06F
:1025300094E00E94611011501E3F08F0BFC14AEFA5
:1025400064E08BE094E00E94611040E06DE18BE07C
:1025500094E00E94611040E06CE18BE094E00E9406
:1025600061101092130480E18093120411E0C85EA0
:10257000DE4F1883C851D140C75EDE4F1882C95163
:10258000D140C65EDE4F1882CA51D140C55EDE4FD3
:102590001882CB51D140C45EDE4F1882CC51D1405D
:1025A000C35EDE4F1882CD51D140C25EDE4F18822D
:1025B000CE51D140C15EDE4F1882CF51D140209123
:1025C0001904AE01485E5E4F6AE08BE094E00E9421
:1025D000851020911904AE01485E5E4F60E18BE0EA
:1025E00094E00E9485104091120461E18BE094E038
:1025F0000E94611082E0C05FDE4F8883C051D140ED
:10260000CF5EDE4F1882C151D140CE5EDE4F1882C0
:10261000C251D140CD5EDE4F1882C351D140CC5E55
:10262000DE4F1882C451D140CB5EDE4F1882C551B7
:10263000D140CA5EDE4F1882C651D140C95EDE4F1E
:102640001882C751D140E4E0F7E064912091190469
:10265000AE01405F5E4F8BE094E00E948510EEEF8C
:10266000F6E06491409112048BE094E00E946110C6
:1026700062E08BE094E00E94BC10EDE7F5E0E491AD
:1026800041E050E001C0440FEA95EAF7482B62E0D0
:102690008BE094E00E94611066E08BE094E00E9481
:1026A000BC10887F482F436066E08BE094E00E9476
:1026B000611082E090E00E947E0B8BE094E00E942B
:1026C000F510F701128765E177E083E594E00E9459
:1026D000C007D7011A968C91811107C069EE75E089
:1026E00083E594E00E94C007F2C0F70102811381E4
:1026F0006FEFC8010E944210282F30E0982F917090
:102700001F929F9335952795277033273F932F93DB
:1027100084FB992790F91F929F9385FB992790F945
:102720001F929F9386FB992790F91F929F931F9268
:102730008F9385EF95E09F938F930E948D2722E0E2
:102740004AE060EF76E0C8010E94990F24E04CE077
:1027500063EE76E0C8010E943B1121E040E16AEDA2
:1027600076E0C8010E94990F26E041E16FEC76E027
:10277000C8010E943B1121E041E068EC76E0C8010D
:102780000E943B1121E042E06EEB76E0C8010E941E
:102790003B1121E045E067EB76E0C8010E943B1168
:1027A00021E046E06EEA76E0C8010E943B1121E09C
:1027B00040E066EA76E0C8010E943B1122E04CE16D
:1027C00068E976E0C8010E943B1166E0C8010E94FA
:1027D000BC1088720FB6F894DEBF0FBECDBF80323A
:1027E00041F021E090E0883009F020E0E22FF92F5D
:1027F00002C0E2E0F0E0EE0FFF1FEE56F94F8591C8
:1028000094919F938F9380E896E09F938F930E947B
:102810008D27D8011696EC91F0E0EE0FFF1FE458DB
:10282000F94F859194919F938F938DE696E09F93B6
:102830008F930E948D2760E0C8010E94BC10D82EA3
:1028400061E0C8010E94BC100FB6F894DEBF0FBE55
:10285000CDBFD3FC02C0882329F0D2FC06C0E1E042
:10286000F0E005C0E0E0F0E002C0E2E0F0E0EE0FF2
:10287000FF1FE959F94F859194919F938F9384E5B8
:1028800096E09F938F930E948D2766E0C8010E9477
:10289000BC108670E82FF0E0E45BF94F85919491CD
:1028A0009F938F938BE396E09F938F930E948D2746
:1028B0000FB6F894DEBF0FBECDBF09C069E077E068
:1028C00083E594E00E94C007D7011A961C920E94EB
:1028D0005017F7016583768387839087E091F10332
:1028E000F091F203309721F08FEE93E09487838785
:1028F000E091F303F091F403309749F080A591A59E
:102900008F5E934021F08FEE93E091A780A761E066
:1029100085E00E94320C61E087E00E94320C61E0A9
:1029200086E00E94320C6AEF70E080E090E00E9446
:10293000161760E085E00E94320C60E087E00E949C
:10294000320C60E086E00E94320C63E377E083E5BE
:1029500094E00E942A0780917705909178058E0176
:102960000F5F1F4FB801681B790B83E594E00E944D
:10297000470B6DE277E083E594E00E94C00761E2D7
:1029800077E083E594E00E942A0780917705909193
:102990007805B801681B790B83E594E00E94470B2A
:1029A00086E090E00E940A262BE031E0DC011196DF
:1029B0003C932E932FE931E013963C932E9312977C
:1029C00028EC14962C93149715961C927E01B5EC66
:1029D000EB0EF11CB7010E94700ED82E6CE773E06D
:1029E00083E594E00E944E074D2D50E060E070E0DA
:1029F0002AE083E594E00E9463076AEB73E083E5D5
:102A000094E00E944E079E0123513F4F83E2EAE982
:102A1000F3E0D90101900D928A95E1F7FF92EF92D0
:102A20001F92DF9287EF92E09F938F93FF92EF9236
:102A300086E893E09F938F938FE893E09F938F9323
:102A40003F932F931F9280E88F931F930F930E94C1
:102A5000B131C058DF4F1882C058D040F801019002
:102A60000020E9F731974E2F401B50E060E070E006
:102A70002AE083E594E00E9463076AEB73E083E554
:102A800094E00E944E07B80183E594E00E94AC07F1
:102A90000FB6F894DEBF0FBECDBFC15EDE4F0FB6DE
:102AA000F894DEBF0FBECDBFDF91CF911F910F9184
:102AB000FF90EF90DF9008952091C2033091C303FF
:102AC0002817390771F49091C0038091C1039817BA
:102AD00041F0E091C003F0E0E753FC4F808190E0CB
:102AE00008958FEF9FEF089508951F93CF93DF937D
:102AF000DC015C962D913C915D972115310539F4EF
:102B000081E090E013969C938E9312973DC051966E
:102B1000ED91FC91529750969C915097892F8095FA
:102B20001FB75E964C915E9741FB772770F941FD88
:102B30006095F8944081772311F0492B01C0482318
:102B40004083E9012197F1F748E0508160FF02C01E
:102B5000592B01C058235083E9012197F1F766955D
:102B6000415099F7772321F090818923808303C016
:102B70008081982B90831FBF5C968D919C915D976F
:102B80000197F1F721E030E0C901DF91CF911F916A
:102B900008952091C2033091C3032817390769F4BF
:102BA0008091C1032091C00390E08096821B91091F
:102BB00060E270E00E945130089580E090E0089556
:102BC0002091C2033091C30328173907B9F49091BB
:102BD000C0038091C103981789F0E091C003F0E031
:102BE000E753FC4F80812091C00330E02F5F3F4FBF
:102BF0002F7133272093C00390E008958FEF9FEF4C
:102C00000895089580E090E00895FC0120813181CD
:102C1000828193812817390719F0822F0C94320C86
:102C20000895CF93DF93EC019CB59F7D9CBD9CB52F
:102C3000937F9CBD9CB59C7F9CBD9DB591609DBDC7
:102C40008A810E94320C8C899D89DF91CF910C94EE
:102C50000B178EBD00000DB407FEFDCF8EB5089595
:102C60001F920F920FB60F9211242F933F934F9301
:102C70005F936F937F938F939F93AF93BF93EF93E4
:102C8000FF93E091C203F091C303309709F451C060
:102C9000968DA685B785858591FF04C09C91892373
:102CA00029F447C09C91892309F043C0A389B489C2
:102CB0009C918589809589238C9386899789019732
:102CC000F1F7608D718DA685B785558538E020E0D8
:102CD000CB010197F1F7822F90E095958795282FEA
:102CE0004C91452309F02068315091F7868D81FD84
:102CF00020958091C10390E001968F7199273091C2
:102D0000C003381749F0A091C103B0E0A753BC4FEE
:102D10002C938093C10303C0868D8160868F828D42
:102D2000938D0197F1F7A389B4899C918589892BAB
:102D30008C93FF91EF91BF91AF919F918F917F9174
:102D40006F915F914F913F912F910F900FBE0F9018
:102D50001F9018953FB7F894809173059091740572
:102D6000A0917505B091760526B5A89B05C02F3FAB
:102D700019F00196A11DB11D3FBFBA2FA92F982FA1
:102D80008827820F911DA11DB11DBC01CD0142E01C
:102D9000660F771F881F991F4A95D1F70895CF9323
:102DA000DF9390E0FC01E25EFA4F2491FC01E65FC4
:102DB000FA4F8491882361F190E0880F991FFC01FC
:102DC000E15CF84FC591D491FC01EA50FB4FA5910D
:102DD000B491611109C09FB7F8948881209582232E
:102DE0008883EC912E230BC0623061F49FB7F89476
:102DF0003881822F809583238883EC912E2B2C930E
:102E00009FBF06C08FB7F894E8812E2B28838FBF11
:102E1000DF91CF9108958230910538F0880F991F86
:102E2000880F991F05970197F1F708958F929F9248
:102E3000AF92BF92CF92DF92EF92FF926B017C0133
:102E40000E94AA164B015C01C114D104E104F104F3
:102E5000F1F00E94AA16DC01CB0188199909AA0990
:102E6000BB09883E9340A105B10570F321E0C21A69
:102E7000D108E108F10888EE880E83E0981EA11CB5
:102E8000B11CC114D104E104F10419F7DDCFFF90A6
:102E9000EF90DF90CF90BF90AF909F908F9008956C
:102EA0002FB7F89460916F0570917005809171054E
:102EB000909172052FBF08951F920F920FB60F9237
:102EC00011242F933F938F939F93AF93BF93809140
:102ED0006F0590917005A0917105B09172053091C8
:102EE0006E0523E0230F2D3720F40196A11DB11D9F
:102EF00005C026E8230F0296A11DB11D20936E0583
:102F000080936F0590937005A0937105B09372053F
:102F10008091730590917405A0917505B091760527
:102F20000196A11DB11D8093730590937405A09324
:102F30007505B0937605BF91AF919F918F913F91A9
:102F40002F910F900FBE0F901F90189508950C941D
:102F50009F2602970C94A7172F923F924F925F9251
:102F60006F927F928F929F92AF92BF92CF92DF9299
:102F7000EF92FF920F931F93CF93DF93CDB7DEB7FE
:102F8000C254D1090FB6F894DEBF0FBECDBF5C01AD
:102F9000FB01828093808681978123969FAF8EAFBD
:102FA0002397D50114968D919C91159788169906B3
:102FB00009F05BC22296BFAD2297BB3509F055C21E
:102FC0000481158165E772E083E594E00E942A0799
:102FD000B80183E594E00E94AC07FE0131967F01C1
:102FE000AF01B801CE01C7960E94F10408E010E0DD
:102FF0001BAB0AAB1DAA1CAA88E090E00E940A261F
:1030000099AB88AB1CA70BA71EA61DA688E390E072
:103010000E940A269AA789A700911E0510911F05F4
:10302000E0911A05F0911B05AFA9B8ADCF01800F53
:10303000911FE817F90709F472C231912D913217E7
:10304000C1F350C021968FAF21976EA17FA16F5F12
:103050007F4FAE01405C5F4FCE0182960E942704F5
:103060000F5F1F4F2BAD3CAD8FA998AD820F931F03
:10307000C816D90649F0D6018D916D018D3311F72F
:103080000115110509F058C22EA13FA121153105E6
:1030900029F12150310941E050E0BE016E5D7F4FC2
:1030A000C7010E94F4080CA91DA96D817E81600FE3
:1030B000711F1FAEAE01415C5F4FCE01C0960E94F2
:1030C00027044D815E8169817A8188A999A9800F41
:1030D000911F0E948204C7010E946104CE01829662
:1030E0000E9461046DE375E0CE01C0960E94FC036E
:1030F000892B09F0CDC081E493E4A2E5B0E08B8F89
:103100009C8FAD8FBE8FCE014B969F938F9381E79F
:1031100092E09F938F93FF92EF920E94E1310E9481
:103120007C096C010F900F900F900F900F900F90F3
:10313000DC011A968C911A97882309F477C11296AC
:103140000D911C91139760E0C8010E940516F801CB
:10315000808991890E940B176DE1C8010E94BC1003
:1031600081FF0AC0D80150968D919C9151970E9481
:103170000B17C8010E945E1060E0C8010E94BC10DD
:10318000482F4E7F60E0C8010E94611062E0C801D4
:103190000E94BC10ECE7F5E0E49141E050E001C092
:1031A000440FEA95EAF7482B62E0C8010E946110DB
:1031B000F60102811381D80117968C91482E813136
:1031C00010F090E1492EF8019085911103C0582E1E
:1031D000541801C0512CC8010E94960F80EA0E9429
:1031E000291637014A94BFEF4B1631F0D3018D9168
:1031F0003D010E942916F6CF752C772029F080E03A
:103200000E9429167A94F9CFC8010E94930F61E0B9
:10321000C8010E9405166FEFC8010E94421080731A
:10322000D1F360E0C8010E94051640E767E0C801DD
:103230000E94611084FF03C0C8010E945E1061E01B
:1032400070E080E090E00E941617F6018385948577
:103250000097C1F0DC01ED91FC910480F581E02D37
:1032600027E331E03A8B298BDC8ACB8AFE8AED8A10
:103270002CE530E0388F2F8B1A8E198EBE016F5ED1
:103280007F4F0995F601828193810E94F510CEC08F
:1032900066E375E0CE01C0960E94FC03892B09F01D
:1032A00087C069A57AA587012FEF3FEF40E050E086
:1032B000CE014B960E94A504CE014B960E94660457
:1032C0000E94372720E030E04AE754E40E94B02F04
:1032D0001B012C01D5011A966D907C901B979B01C8
:1032E000AC01F30165817681878190850E94382E3B
:1032F000882309F45AC0D30115962D923D924D9220
:103300005C9218976E01B2E2CB0ED11C86E0F601FA
:1033100011928A95E9F7860122E042E0C201B101EB
:103320000E94EA2588E090E09C8B8B8B1E8A1D8A88
:103330000E940A269A8B898B20E030E040E251E41B
:10334000C201B1010E94382E87FF06C064E873E015
:10335000CE0141960E944109B601CE0141960E94DC
:10336000410967E772E0CE0141960E9441098E0152
:10337000025C1F4F2FEF3FEF40E050E0BE016F5E59
:103380007F4FC7010E94A50440E050E0B701D30180
:1033900012968D919C9113970E94BA0BC7010E94BF
:1033A0006104CE0141960E946104CE014B963CC05F
:1033B0006FE275E0CE01C0960E94FC03892BB1F14B
:1033C00068E275E0CE01C0960E94FC03892B71F182
:1033D00061E275E0CE01C0960E94FC03892B31F1B9
:1033E00067E675E0CE01C0960E94FC03892BF1F4DC
:1033F00069A57AA58E010F5E1F4F2FEF3FEF40E0CA
:1034000050E0C7010E94A504C7010E9466040E9403
:1034100037270E942230D5011A96ED91FC911B9717
:10342000858586136587C7010E946104E12CF12C14
:1034300000E010E02DA53EA589A59AA50217130767
:1034400050F48E0D9F1D0E9461040F5F1F4FB7E067
:10345000EB0EF11CEFCF0E949F26CE01C0960E947A
:103460006104CE01C7960E946104F50186819781AF
:103470008816990609F01AC12396EEADFFAD239781
:10348000FF27EA33F10508F011C1EC5CFF4F0C9403
:10349000873064E474E03EC068E374E03BC066E2F9
:1034A00074E038C065E174E035C06DEF73E032C0A0
:1034B00066EE73E02FC066ED73E02CC061EC73E044
:1034C00029C067EA73E026C063E973E023C06AE7B6
:1034D00073E020C068E673E01DC061E573E01AC0C8
:1034E0006BE373E017C069E273E014C066E173E058
:1034F00011C063E073E00EC06BEE72E00BC069EDCB
:1035000072E008C06FEB72E005C06BEA72E002C0C7
:1035100061E972E083E594E00E94C007C7C0A7019B
:103520006CEB73E0CE0182960E94F104CFA8D8AC78
:10353000F2E0CF0ED11C96CD0F5F1F4F2150310905
:10354000A801BE01695C7F4FCE014B960E94F40832
:103550002E01B1E14B0E511CAE01425C5F4F66E0A3
:1035600071E0C2010E94F1048D899E896F8C78A060
:103570006816790620F4CC24CA94DC2C21C0EFEF25
:103580006E1A7E0A681A790AC12CD12CC614D70487
:1035900091F32D893E89A601BE01655E7F4FC7016B
:1035A0000E94F408B701C2010E94FC031C01C7017C
:1035B0000E946104232821F0FFEFCF1ADF0AE6CF33
:1035C000CE0141960E946104CD20C09409F456C0FA
:1035D0008F8D98A1EB8DFC8D00E010E00817190786
:1035E00049F021912C3219F4C12CD12C15C00F5F58
:1035F0001F4FF4CF0FEF1FEFF7CF0F5F1F4F0217D3
:10360000130758F5FC01E00FF11F60816C32A9F738
:103610000F3F8FEF180709F10F3F9FEF190709F4CC
:1036200040C098012C193D09A601BE01655E7F4F7F
:10363000C7010E94F408B701CE0189960E942C08A8
:10364000C7010E946104A8014F5F5F4F6A012F8D7F
:1036500038A18B8D9C8D8A01D2CFBE01655E7F4FD4
:10366000C7010E94F408B701CE0189960E942C0878
:10367000C7010E9461040FEF1FEFCECF2BAD3CAD11
:1036800021503109A801BE01695C7F4FC7010E942A
:10369000F408B701CE0189960E942C08C7010E9448
:1036A0006104CE014B960E946104EECCCE5BDF4FED
:1036B0000FB6F894DEBF0FBECDBFDF91CF911F9143
:1036C0000F91FF90EF90DF90CF90BF90AF909F90C1
:1036D0008F907F906F905F904F903F902F900895C4
:1036E00002970C94AC17CF93DF93CDB7DEB7EC976E
:1036F0000FB6F894DEBF0FBECDBF789484B582605C
:1037000084BD84B5816084BD85B5826085BD85B585
:10371000816085BD80916E00816080936E00109203
:10372000810080918100826080938100809181007E
:10373000816080938100809180008160809380000F
:103740008091B10084608093B1008091B00081606D
:103750008093B00080917A00846080937A00809199
:103760007A00826080937A0080917A0081608093F1
:103770007A0080917A00806880937A001092C1006C
:103780000E948011CE0101965C01DE01D1967D017F
:103790000E9450170091E9031091EA032091EB0376
:1037A0003091EC03DC01CB01801B910BA20BB30B1E
:1037B000803D9740A105B10554F00E9450176093D9
:1037C000E9037093EA038093EB039093EC03009179
:1037D000F3031091F403D80112968D919C911397E5
:1037E000DC01ED91FC910084F185E02D0995892B98
:1037F00009F452C38AEF282E312CD80112968D91EC
:103800009C911397DC01ED91FC910084F185E02DF2
:103810000995181619060CF03FC3F801C280D38031
:103820003501812C912C0E945017D60118966D936A
:103830007D938D939C931B97D601ED91FC9102840F
:10384000F385E02DC601099597FD04C08A309105E6
:10385000C1F421C00E945017F601208531854285B0
:103860005385DC01CB01821B930BA40BB50B248188
:1038700035814681578182179307A407B507E0F287
:103880000AC0D3018D933D01BFEF8B1A9B0AE0E381
:103890008E16910441F6892809F4AFCFB501CE0107
:1038A000C7960E94D7066FA878AC6114710409F41A
:1038B0003FC0CBACDCACC114D104D1F12301420137
:1038C000FFEF4F1A5F0AD4018C91082E000C990B60
:1038D0000E94642D892B99F7B1E0CB1AD108C60C50
:1038E000D71CD6018C91082E000C990B0E94642DD8
:1038F000892B81F4BFEFCB1ADB0AA60148195909BD
:103900005CAF4BAF6814790460F4B401C3010E944A
:10391000703107C0C814D90468F3E1E0CE1AD108A9
:10392000E0CFEFA9F8AD8BAD9CADE80FF91F108289
:103930008BAD9CAD892B09F4A5C266E674E083E5E6
:1039400094E00E942A076FA978AD83E594E00E9475
:10395000AC07D8015796EC918E2F90E089319105F4
:1039600008F089C1FC01E259FF4F0C94873066EDE5
:1039700072E0C7010E94D706B701CE01C7960E9428
:103980004A056C01C7010E94D206CD2809F07AC20F
:1039900061E012C066ED72E0C7010E94D706B70170
:1039A000CE01C7960E944A056C01C7010E94D2064B
:1039B000CD2809F067C264E0C8010E94250A62C2EE
:1039C00066ED72E0C7010E94D706B701CE01C79627
:1039D0000E944A056C01C7010E94D206CD2869F4F5
:1039E000F801818D8F3411F46EE001C06AE0C801E6
:1039F0000E94250AD80159961C9261E872E0C7011D
:103A00000E94D706B701CE01C7960E9430056C010F
:103A1000C7010E94D206D7FC17C069E872E0C7014F
:103A20000E94D706B701CE01C7960E9430056C01EF
:103A3000C7010E94D2061C141D0424F48FE4F8016F
:103A4000818F20C2E6E45DC06AE972E0C7010E948E
:103A5000D706B701CE01C7960E9430056C01C70199
:103A60000E94D206D7FC0EC26AE0C8010E94250A55
:103A7000C8010E94000B06C266ED72E0C7010E94F9
:103A8000D706B701CE01C7960E944A05892B39F4A3
:103A9000DD24D394D80159968C91893409F0D12C26
:103AA000C7010E94D206DD2039F06EE0C8010E94F5
:103AB000250AF801118E14C06CEB72E0C7010E9458
:103AC000D706B701CE01C7960E9430056C01C70129
:103AD0000E94D206D7FC04C06DE0C8010E94250AEE
:103AE0006AE772E0C7010E94D706B701CE01C79608
:103AF0000E9430056C01C7010E94D206D7FCC2C1EA
:103B0000E9E4D8015996EC93BDC16AE772E0C701B8
:103B10000E94D706B701CE01C7960E9430056C01FE
:103B2000C7010E94D206D7FCADC16EE045CFD801D7
:103B300059968C91893191F466ED72E0C7010E942B
:103B4000D706B701CE01C7960E944A056C01C7018E
:103B50000E94D206CD2811F468E111C061EA72E03A
:103B6000C7010E94D706B701CE01C7960E944A0539
:103B70006C01C7010E94D206CD2829F464E1C80176
:103B80000E94250A3AC068EA72E0C7010E94D7067F
:103B9000B701CE01C7960E9430056C01C7010E9493
:103BA000D206D7FC04C088E1F801818F26C06CEAF8
:103BB00072E0C7010E94D706B701CE01C7960E94E6
:103BC0004A056C01C7010E94D206CD2811F4E9E133
:103BD00011C064EB72E0C7010E94D706B701CE01A5
:103BE000C7960E9430056C01C7010E94D206D7FC1F
:103BF00004C0EAE1D8015996EC9361EC72E0C70188
:103C00000E94D7064DA95EA98BAD9CAD8417950780
:103C100078F08FA998AD009759F069A97AA9611534
:103C2000710531F00E948931DD24D394892B09F08C
:103C3000D12CC7010E94D206DD20E9F0D8015996A7
:103C40008C91883111F468E113C067E111C061EA19
:103C500072E0C7010E94D706B701CE01C7960E9445
:103C60004A056C01C7010E94D206CD2821F464E107
:103C7000C8010E94250AF80187898E3000F16AE7A1
:103C800072E0C7010E94D706B701CE01C7960E9415
:103C90004A056C01C7010E94D206CD2881F46EE06E
:103CA000C8010E94250AD80193963C922E929297C1
:103CB0000E945017F801628F738F848F958F65EC87
:103CC00072E0C7010E94D706B701CE01C7960E94D5
:103CD00030056C01C7010E94D206D7FC04C06AE01F
:103CE000C8010E94250AD80158968C91833308F4A4
:103CF000ABC0863309F44DC0873309F460C0853307
:103D000009F0A2C06FEC72E0C7010E94D706B701AC
:103D1000CE01C7960E9430056C01C7010E94D206F1
:103D2000D7FC92C066E3C8010E94A109F80186A1F0
:103D300097A1892BB1F06BE574E083E594E00E94D4
:103D4000C007D80194966D917C91959783E594E096
:103D50000E94AC07F80164A175A1828193810E9441
:103D60004E07D8019496ED91FC91959710826DE4E1
:103D700074E083E594E00E942A0780917705909192
:103D80007805B701681B790B83E594E00E94470B27
:103D90005BC061ED72E0C7010E94D706B701CE019A
:103DA000C7960E944A056C01C7010E94D206CD2821
:103DB00009F04AC067E3C8010E94A10945C069ED46
:103DC00072E0C7010E94D706B701CE01C7960E94D4
:103DD00030056C01C7010E94D206D7FC02C068E31F
:103DE00011C061EE72E0C7010E94D706B701CE0193
:103DF000C7960E9430056C01C7010E94D206D7FC0D
:103E000004C069E3C8010E94A1090E945017F8018B
:103E1000468C578C60A071A0DC01CB0184199509F8
:103E2000A609B70981319742A105B10568F064E39D
:103E3000C8010E94A1090E945017D8015E966D9397
:103E40007D938D939C93919768EE72E0C7010E94D9
:103E5000D706B701CE01C7960E9430056C01C70195
:103E60000E94D206D7FC0EC080ED97E0F80193A324
:103E700082A30E945017D8015A966D937D938D931B
:103E80009C935D9780E3F50111928A95E9F7CE0145
:103E9000C7960E94D206B1CCF8018689882309F41E
:103EA00004C282A193A1892B21F10E945017D8014D
:103EB0005A964D905D906D907C905D97AB01BC01E2
:103EC000441955096609770992968D919C919397AB
:103ED000A0E0B0E084179507A607B70708F0E5C192
:103EE0000E945017F801628F738F848F958F13A2F1
:103EF00012A2D8015796EC918E2F90E0893191054E
:103F000008F007C1FC01E957FF4F0C948730C80146
:103F10000E94310FFEC00E945017F801428C538C52
:103F2000648C758CDC01CB0184199509A609B7094D
:103F3000813A9F40A105B10508F4EBC063E082C05F
:103F40000E945017F801428C538C648C758CDC01F4
:103F5000CB0184199509A609B709813A9F40A105AB
:103F6000B10508F4D6C0C8010E94310FC9C00E9433
:103F70005017F801428C538C648C758CDC01CB019A
:103F800084199509A609B70981349F41A105B10596
:103F900008F4BFC0C8010E94000BB2C00E945017B5
:103FA000F801428C538C648C758CDC01CB01841934
:103FB0009509A609B70989389341A105B10508F407
:103FC000A8C09EC00E945017F801428C538C648C8C
:103FD000758CDC01CB0184199509A609B7098038D5
:103FE0009E43A105B10508F494C06DE02BC00E946A
:103FF00050178FC00E945017F801428C538C648C6C
:10400000758CDC01CB0184199509A609B7098033A9
:104010009547A105B10508F47CC06FC00E945017F8
:10402000F801428C538C648C758CDC01CB018419B3
:104030009509A609B70980319742A105B10508F491
:1040400068C067E1C8010E94250A5AC00E94501743
:10405000F801468C578C60A071A0DC01CB0184195B
:104060009509A609B70980339547A105B10508F45C
:1040700050C0C8010E94BC0A0E945017D8015E9629
:104080006D937D938D939C93919743C00E9450179D
:10409000F801468C578C60A071A0DC01CB0184191B
:1040A0009509A609B70980319742A105B10588F1A4
:1040B00064EA74E0D80112968D919C9113970E9446
:1040C000C0070E945017F801668F778F80A391A3D5
:1040D00020C00E945017D8015A964D905D906D9067
:1040E0007C905D97DC01CB0184199509A609B7097D
:1040F00080339547A105B10560F0C8010E94A70A69
:104100000E945017D8015A966D937D938D939C937E
:104110005D97F801808D853309F46DC018F4833301
:1041200041F0C3C0863309F47CC0873309F499C0D9
:10413000BCC08481882309F4B8C08789883109F01C
:1041400050C08589F801E80FF11DE80FF11D858148
:1041500096810097F1F1F80197A386A36AE974E0CC
:1041600083E594E00E94C0076EE874E083E594E084
:104170000E942A0760E070E083E594E00E94470B0C
:104180006AE070E080E090E00E94161762E874E058
:10419000D80112968D919C9113970E942A0760E096
:1041A00070E0F801828193810E94470B64E774E01C
:1041B00083E594E00E94C00765E3C8010E94A1095D
:1041C0000E945017D8015E966D937D938D939C93BA
:1041D00091970E945017F801668F778F80A391A363
:1041E00064C0873109F461C08E3008F45EC0C80134
:1041F0000E94BC0A5AC00E945017D8015E964D908A
:104200005D906D907C909197DC01CB0184199509AC
:10421000A609B70989399A43A105B10508F445C033
:1042200012C00E945017F801468C578C60A071A0F4
:10423000DC01CB0184199509A609B70989399A438C
:10424000A105B10590F163E3C8010E94A1090E9494
:104250005017D8015E966D937D938D939C939197A3
:1042600024C00E945017F801468C578C60A071A0A2
:10427000DC01CB0184199509A609B7098131974260
:10428000A105B10590F069E3C8010E94A10988EE7B
:1042900093E0D80193969C938E9392970E94501727
:1042A000F801628F738F848F958F8091050481113F
:1042B00015C00E9450170091060410910704209128
:1042C000080430910904DC01CB01801B910BA20B87
:1042D000B30B81389E43A105B105B8F58091050463
:1042E0008130B1F40E945017009106041091070428
:1042F0002091080430910904DC01CB01801B910B53
:10430000A20BB30B813A9F40A105B10508F06BC029
:10431000109105041230B1F40E9450174090060429
:10432000509007046090080470900904DC01CB01F0
:1043300084199509A609B70989399A43A105B105D8
:1043400008F055C00E94760623CA61EC74E083E54C
:1043500094E00E94C00782E090E00E940A266C016F
:1043600083E291E0D6018D939C9386E090E00E94D9
:104370000A268C018BE091E0F801918380838FE91C
:1043800091E09383828384E684831582B6018091D1
:10439000F3039091F4030E94500FB8018091F3034E
:1043A0009091F4030E94500F60EB74E083E594E079
:1043B0000E942A078091770590917805B501681BC6
:1043C000790B83E594E00E94470B0E94501760939D
:1043D000060470930704809308049093090481E015
:1043E000809305047BCF82E08093050491CF0E94E7
:1043F0005017609306047093070480930804909309
:104400000904109305049ECF8F929F92AF92BF92A2
:10441000EF92FF920F931F93CF93DF931F92CDB72D
:10442000DEB723E5E22E24E0F22E1092560410921D
:10443000550438EE832E33E0932EA12CB12C8092BC
:10444000570490925804A0925904B0925A0487E6F7
:1044500091E0909354048093530485EC90E0909302
:10446000600480935F0484EC90E0909362048093F6
:10447000610480EC90E0909364048093630481EC89
:1044800090E0909366048093650482EC90E09093B2
:1044900068048093670486EC90E090936A048093AC
:1044A000690410926C0410926D0410926E041092C4
:1044B0006F04AE014F5F5F4F6EE373E087E695E0F8
:1044C0000E94F104AE014F5F5F4F61E473E080E64C
:1044D00095E00E94F104AE014F5F5F4F64E473E02A
:1044E00089E595E00E94F104AE014F5F5F4F69E4FA
:1044F00073E082E595E00E94F104AE014F5F5F4FEB
:104500006DE473E08BE495E00E94F104AE014F5F2F
:104510005F4F61E573E084E495E00E94F104AE0131
:104520004F5F5F4F65E573E08DE395E00E94F10416
:10453000AE014F5F5F4F69E573E086E395E00E944F
:10454000F104AE014F5F5F4F6DE573E08FE295E0E0
:104550000E94F104AE014F5F5F4F61E673E088E2B5
:1045600095E00E94F104AE014F5F5F4F65E673E096
:1045700081E295E00E94F104AE014F5F5F4F69E672
:1045800073E08AE195E00E94F10421E230E030938B
:104590000805209307051092090510920A0510924C
:1045A0000B0546E050E060E070E040930C0550934E
:1045B0000D0560930E0570930F0510921005109273
:1045C0001105109212051092130510E210931405B4
:1045D00010921605109215051092190582EF94E0BD
:1045E000909318058093170587E092E09093F1046B
:1045F0008093F00481E192E0909305058093040597
:104600001092F6041092F5041092F8041092F70438
:104610001092FA041092F9041092FC041092FB0418
:104620001092FE041092FD04109200051092FF04F7
:1046300085EE91E09093F3048093F204F0920305E9
:10464000E0920205E0E1E0930105309341042093FC
:104650004004109242041092430410924404409388
:1046600045045093460460934704709348041092A5
:10467000490410924A0410924B0410924C04109377
:104680004D0410924F0410924E0410925204109256
:104690002704109228041092290410922A042BE275
:1046A00034E030935104209350042FE831E03093EC
:1046B00026042093250429E931E030933E04209319
:1046C0003D0410922F0410922E0410923104109287
:1046D0003004109233041092320410923504109278
:1046E0003404109237041092360410923904109258
:1046F000380490932C0480932B04F0923C04E092B5
:104700003B0488E080933A04F0922404E09223046E
:1047100061E97DE089EA9DE00E94422789E090E01E
:1047200090930C0480930B048AE090E090930E0425
:1047300080930D041092110410931204109213042C
:1047400085E08093190485E090E0A0E0B0E08093DC
:104750001F0490932004A0932104B093220410928C
:1047600014048FE592E09093EE038093ED038BE6C3
:1047700092E09093F0038093EF030E947C09909362
:10478000F2038093F1038091C4039091C503892BB8
:1047900009F037C18AE290E00E940A268C0183E387
:1047A00092E0D8018D939C938FE190E00E940A26BD
:1047B0007C01FC011382128284829582A682B782D8
:1047C00081E292E091838083178A168A118E108E7F
:1047D000138E128E158E148E668D6E7F6D7F668F92
:1047E0006695617081E0682783E00E94320C61E089
:1047F00083E00E94CF16E1E2F5E0E491D701509604
:10480000EC93EDE0F5E0E491F0E0EE0FFF1FEA50ED
:10481000FB4F85919491F701928B818B60E082E050
:104820000E94CF16D7015E968C9181FD04C061E095
:1048300082E00E94320C82E0F7018487E0E2F5E03A
:10484000E491D7011D96EC93ECE0F5E0E491F0E003
:10485000EE0FFF1FE050FB4F85919491F701978772
:104860008687D8011396FC92EE92129714961C92AA
:10487000149755961C92559756961C925697579694
:104880001C92579758961C92589759961C920E94C2
:104890005017F801628F738F848F958F0E94501785
:1048A000D8015E966D937D938D939C93919793968B
:1048B0001C921E92929784EC90E00E940A26F801C6
:1048C00095A384A311A610A63596C801459611920A
:1048D0001192E817F907D9F760E0C8010E94250A8C
:1048E000D8011296ED91FC911397138E128E118EB2
:1048F000108E178A168A8DE991E0958F848F8485B2
:10490000863108F04DC02DEB30E0378B268B2BE93C
:1049100031E0318F208F2CE231E0338F228F909164
:104920006800883050F021E08E3008F420E081E00B
:1049300001C0880F2A95EAF701C084E0892B809393
:1049400068009485983038F09E3040F0963148F0F9
:1049500020E030E008C02DE630E005C02BE630E076
:1049600002C02CE630E0348B238B983030F481E0A9
:1049700001C0880F9A95EAF70EC0292F30E09E30CB
:1049800018F42850310902C02E50310981E001C0CD
:10499000880F2A95EAF7858B848D958D0197F1F71D
:1049A000828D938D892B49F14091C2035091C303AD
:1049B0004E175F0711F14115510571F0DA01539659
:1049C0002D913C915497D9019C91DA0155968C9187
:1049D00080958923D9018C93868D8E7F868F109246
:1049E000C1031092C003F093C303E093C203A389F1
:1049F000B4899C918589892B8C931093C50300936E
:104A0000C4038091C4039091C5039093F4038093F1
:104A1000F3038091C6039091C703892B09F042C02C
:104A200082E090E00E940A26FC018BE392E09183F1
:104A30008083A0916304B091640482E08C93A09180
:104A40005F04B09160041C92A0916104B091620473
:104A50008FEC8C9310926B04A0916704B091680462
:104A600086E08C93A0916504B09166049C9190615E
:104A70009C93A0916504B09166049C9198609C936E
:104A8000A0916504B09166049C9190689C93A0915C
:104A90006504B09166049C919F7D9C93F093C7033D
:104AA000E093C6030091C6031091C7031093F60369
:104AB0000093F50380E190E00E940A26FC0183E464
:104AC00092E0918380831383028381E08483158243
:104AD0001682178210861186128613861486158612
:104AE00016861786F093F803E093F7031092F90304
:104AF0001092FA031092FB031092FC031092FD0334
:104B00001092FE031092FF03109200041092010411
:104B100010920204109203041092040410920504EF
:104B20000E94501760930604709307048093080452
:104B30009093090410920A040E9450176093E903AD
:104B40007093EA038093EB039093EC030F90DF9153
:104B5000CF911F910F91FF90EF90BF90AF909F90DA
:104B60008F90089585E294E00E94F50D80EF94E027
:104B70000E94430E8AE195E00E94610481E295E083
:104B80000E94610488E295E00E9461048FE295E052
:104B90000E94610486E395E00E9461048DE395E044
:104BA0000E94610484E495E00E9461048BE495E036
:104BB0000E94610482E595E00E94610489E595E028
:104BC0000E94610480E695E00E94610487E695E01A
:104BD0000C946104EF920F931F93CF93DF93E8013E
:104BE00047FD02C034E001C034E1E42F440FFF0B65
:104BF000F7FF03C0F195E195F109E32E022F2E2F67
:104C0000AE010E94A129CE01DF91CF911F910F919A
:104C1000EF900895CF93DF938230910510F482E0F6
:104C200090E0E0917905F0917A0520E030E0C0E075
:104C3000D0E0309711F14081518148175907C0F0F9
:104C40004817590761F482819381209719F09B835B
:104C50008A832BC090937A058093790526C021150D
:104C6000310519F04217530718F49A01BE01DF010C
:104C7000EF010280F381E02DDCCF2115310509F130
:104C8000281B390B2430310590F412968D919C919C
:104C900013976115710521F0FB019383828304C092
:104CA00090937A0580937905FD01329644C0FD0109
:104CB000E20FF31F81939193225031092D933C937E
:104CC0003AC02091770530917805232B41F420914B
:104CD00002013091030130937805209377052091EC
:104CE0000001309101012115310541F42DB73EB786
:104CF0004091040150910501241B350BE09177058B
:104D0000F0917805E217F307A0F42E1B3F0B28174C
:104D1000390778F0AC014E5F5F4F2417350748F034
:104D20004E0F5F1F509378054093770581939193C1
:104D300002C0E0E0F0E0CF01DF91CF9108950F9342
:104D40001F93CF93DF93009709F48CC0FC01329737
:104D5000138212820091790510917A0501151105CF
:104D600081F420813181820F931F2091770530914A
:104D700078052817390779F5F0937805E0937705DA
:104D800071C0D80140E050E0AE17BF0750F4129652
:104D90002D913C911397AD012115310509F1D901F0
:104DA000F3CF9D01DA013383228360817181860F05
:104DB000971F8217930769F4EC0128813981260F28
:104DC000371F2E5F3F4F318320838A819B819383DE
:104DD0008283452B29F4F0937A05E093790542C04C
:104DE0001396FC93EE931297ED01499159919E0110
:104DF000240F351FE217F30771F480819181840F2E
:104E0000951F029611969C938E938281938113969F
:104E10009C938E931297E0E0F0E0D80112968D916A
:104E20009C911397009719F0F8018C01F6CF8D91A2
:104E30009C9198012E5F3F4F820F931F2091770521
:104E4000309178052817390769F4309729F41092C2
:104E50007A051092790502C01382128210937805A8
:104E600000937705DF91CF911F910F9108956627E9
:104E700077270C942F2BFB01DC0105900D9200206D
:104E8000E1F708950F931F93CF93DF93009731F4C9
:104E90006115710519F480E090E03AC08B01EC01D6
:104EA0006EE070E081E090E00E948529FC01892B92
:104EB00091F380E883830115110571F01387028750
:104EC00081E8838380917B0590917C05892B21F477
:104ED000F0937C05E0937B052097C9F0D187C087CC
:104EE00083818260838380917D0590917E05892BEB
:104EF00071F4F0937E05E0937D0580917F0590919C
:104F00008005892B21F4F0938005E0937F05CF0184
:104F1000DF91CF911F910F910895A0E0B0E0E3E9F8
:104F2000F7E20C94782FAE01495F5F4FDA016D9183
:104F30007D91AD010BE715E0F80182819381DC01E1
:104F400013962C911397286013962C930E94B327E5
:104F5000D8011296ED91FC9113972381277F23832B
:104F6000E4E00C94942FACE0B0E0E9EBF7E20C94B1
:104F70006A2F7C016B018A01FC01178216828381F2
:104F800081FFBDC1CE0101964C01F7019381F6016D
:104F900093FD859193FF81916F01882309F4ABC143
:104FA000853239F493FD859193FF81916F018532AC
:104FB00029F4B70190E00E94A22DE7CF512C312CAB
:104FC00020E02032A0F48B3269F030F4803259F0C6
:104FD000833269F420612CC08D3239F0803339F48A
:104FE000216026C02260246023C0286021C027FDE4
:104FF00027C030ED380F3A3078F426FF06C0FAE0CB
:105000005F9E300D1124532E13C08AE0389E300D60
:105010001124332E20620CC08E3221F426FD6BC188
:10502000206406C08C3611F4206802C0883641F432
:10503000F60193FD859193FF81916F018111C1CF9D
:10504000982F9F7D9554933028F40C5F1F4FFFE3FA
:10505000F9830DC0833631F0833771F0833509F061
:105060005BC022C0F801808189830E5F1F4F4424FA
:105070004394512C540115C03801F2E06F0E711C9D
:10508000F801A080B18026FF03C0652D70E002C04A
:105090006FEF7FEFC5012C870E94972D2C018301B4
:1050A0002C852F77222E17C03801F2E06F0E711C6D
:1050B000F801A080B18026FF03C0652D70E002C01A
:1050C0006FEF7FEFC5012C870E94852D2C012C8569
:1050D0002068222E830123FC1BC0832D90E04816FC
:1050E0005906B0F4B70180E290E00E94A22D3A94F4
:1050F000F4CFF50127FC859127FE81915F01B7016F
:1051000090E00E94A22D31103A94F1E04F1A51081C
:105110004114510471F7E5C0843611F0893639F530
:10512000F80127FF07C060817181828193810C5F44
:105130001F4F08C060817181072E000C880B990BEE
:105140000E5F1F4F2F76722E97FF09C090958095A6
:10515000709561957F4F8F4F9F4F2068722E2AE088
:1051600030E0A4010E94DA2DA82EA81844C085378B
:1051700029F42F7EB22E2AE030E025C0F22FF97FED
:10518000BF2E8F36C1F018F4883579F0B4C080375F
:1051900019F0883721F0AFC02F2F2061B22EB4FE56
:1051A0000DC08B2D8460B82E09C024FF0AC09F2F2C
:1051B0009660B92E06C028E030E005C020E130E05E
:1051C00002C020E132E0F801B7FE07C060817181C2
:1051D000828193810C5F1F4F06C06081718180E0E6
:1051E00090E00E5F1F4FA4010E94DA2DA82EA81890
:1051F000FB2DFF777F2E76FE0BC0372D3E7FA5144B
:1052000050F474FE0AC072FC08C0372D3E7E05C003
:10521000BA2C372D03C0BA2C01C0B52C34FF0DC0F9
:10522000FE01EA0DF11D8081803311F4397E09C041
:1052300032FF06C0B394B39404C0832F867809F07C
:10524000B39433FD13C030FF06C05A2CB31418F4C6
:10525000530C5B18B32CB31468F4B70180E290E0F0
:105260003C870E94A22DB3943C85F5CFB31410F473
:105270003B1801C0312C34FF12C0B70180E390E02D
:105280003C870E94A22D3C8532FF17C031FD03C030
:1052900088E790E002C088E590E0B7010CC0832F5A
:1052A000867859F031FF02C08BE201C080E237FD01
:1052B0008DE2B70190E00E94A22DA51438F4B70149
:1052C00080E390E00E94A22D5A94F7CFAA94F401B3
:1052D000EA0DF11D8081B70190E00E94A22DA1107E
:1052E000F5CF332009F451CEB70180E290E00E945F
:1052F000A22D3A94F6CFF7018681978102C08FEFF5
:105300009FEF2C96E2E10C94862F0F931F93CF937F
:10531000DF93869F8001879F100D969F100D1124AB
:10532000C8010E940A26EC01009729F0A80160E05C
:1053300070E00E94902DCE01DF91CF911F910F91CF
:1053400008954F925F926F927F929F92AF92BF9219
:10535000CF92DF92EF92FF920F931F93CF93DF9341
:10536000CDB7DEB729970FB6F894DEBF0FBECDBF1D
:105370006A01122FB02E2BE3201720F0FF24F394A4
:10538000F00E02C0BCE3FB2E0F2D27E0AE014F5FF5
:105390005F4F0E948C2CAC018981982F99709130BD
:1053A00031F0E1FC06C0E0FE06C090E205C09DE2DF
:1053B00003C09BE201C090E0EE2DE07183FF3CC092
:1053C000911102C083E001C084E0811718F4212FFD
:1053D000281B01C020E0E1110BC0F601822F30E252
:1053E000882319F031938150FBCFC20ED11C20E0ED
:1053F000992329F0D6019C93F60131966F01C601DD
:105400000396E2FE0AC03EE4D6013C9341E41196C5
:105410004C93119712963C9306C03EE6F6013083FA
:1054200041E641833283FC01322F40E2332309F409
:1054300042C041933150FACF82FF44C0911102C063
:1054400083E001C084E0811718F4212F281B01C0DC
:1054500020E0E1110BC0F601822F30E2882319F021
:1054600031938150FBCFC20ED11C20E0992329F04B
:10547000D6019C93F60131966F01C6010396E2FEB8
:105480000BC039E4D6013C933EE411963C9311974E
:1054900036E412963C9307C039E6F60130833EE6C7
:1054A000318336E63283FC01322F40E2332319F098
:1054B00041933150FBCFFC01E20FF11D10828EEFC2
:1054C0009FEFB7C0F1E0911101C0F0E06F2F70E0E5
:1054D0001416150624F49A012F5F3F4F02C021E0F5
:1054E00030E0260F371FBB2029F06B2D70E06F5F77
:1054F0007F4F02C060E070E0260F371F612F70E021
:10550000261737071CF4121B212F01C020E03E2D67
:10551000387159F4D601322F60E2332319F06D93BC
:105520003150FBCFC20ED11C20E0FF2331F0D60159
:105530009C93B6016F5F7F4F6B01E1110BC0F601C9
:10554000922F30E3992319F031939150FBCFC20E83
:10555000D11C20E09F2D940F3A81782F7071A72ED7
:1055600084FF03C0313309F49150191624F49930A3
:1055700018F098E001C091E0E42F852F57FF02C09A
:10558000E0E080E06E2F782FE0E0F0E0AEE29A2ECF
:105590003A01691A71082A01461A570A0B2D10E0C0
:1055A0001195019511096F3F8FEF780729F4D60106
:1055B0009C92C60101966C014617570784F0661647
:1055C00077066CF47F01E40CF51CA1E0B0E0AC0FB1
:1055D000BD1FEA0EFB1ED7011196BC9002C090E3DE
:1055E000B92E615071093196C60101967C01601790
:1055F000710724F0D601BC926C01D5CF64177507F2
:1056000041F4363320F4353321F4A11002C081E394
:10561000B82EF601B082F701822F90E2882319F0AC
:1056200091938150FBCFF701E20FF11D108280E0D2
:1056300090E029960FB6F894DEBF0FBECDBFDF9184
:10564000CF911F910F91FF90EF90DF90CF90BF907F
:10565000AF909F907F906F905F904F900895A0E0E3
:10566000B0E0E5E3FBE20C946E2FEC017B016115E9
:10567000710519F0DB018D939C938E010F5F1F4F15
:105680007880872D90E00E94642D892B11F0E8012D
:10569000F4CFBDE27B1205C00F5F1F4F7980C1E0E0
:1056A00008C0EBE27E1204C08E010E5F1F4F7980AE
:1056B000C0E06801F1E0CF1AD10843E050E068E4AF
:1056C00071E0C6010E946D2D892BF1F4680122E082
:1056D000C20ED11C45E050E063E471E0C6010E94B7
:1056E0006D2D892B21F4680187E0C80ED11CE114CF
:1056F000F10419F0D701CD92DC92C111FFC060E036
:1057000070E080E89FE703C143E050E060E471E0AF
:10571000C6010E946D2D892B51F4E114F10409F4A6
:10572000F2C00E5F1F4FF70111830083ECC06801C8
:1057300060E070E0CB0100E010E0F601D0EDD70DA5
:10574000DA3058F52C2F2260622E2C2F2870C2FFE1
:1057500005C0211128C00F5F1F4F25C0222311F063
:1057600001501109A5E0B0E09B01AC010E945F2F40
:105770004B015C01880C991CAA1CBB1CC501B4011F
:105780006D0F711D811D911D6839A9E97A078A077E
:10579000A9E19A0740F0C66005C0DE3F51F4C3FDA1
:1057A00044C0C8606C2EBFEFCB1ADB0A7080C62DD8
:1057B000C4CF2D2F2F7D2531C1F540814D3211F4FD
:1057C000C06106C04B3221F0319621E030E006C0C6
:1057D0003296D60111964C9122E030E0A0EDA40F54
:1057E000AA3018F0E21BF30B20C040E050E0403834
:1057F000BCE05B075CF49A01220F331F220F331FBA
:10580000420F531F440F551F4A0F511D3196DF01A0
:1058100011972C91A0EDA20FAA3048F3C4FF03C04A
:10582000519541955109040F151FC1FF07C0E1149F
:10583000F10421F03197D701ED93FC930E943D2EA6
:10584000C370C33019F06B017C0106C06B017C0191
:10585000F7FAF094F7F8F09420E030E0A901C701DE
:10586000B6010E94382E882309F445C017FF06C0F0
:10587000119501951109CFE5D1E002C0C7E7D1E04C
:105880005E01B8E1AB1AB1084601BE2DAF2D90E222
:10589000E92EF12C0E151F0584F0FE01259135919E
:1058A00045915491B4018B2F9A2F0E949E2E4B014B
:1058B000B82FA92F0E191F09EDCF2497F594E7945F
:1058C000CA15DB0539F76401EB2EFA2E8E2D880FF1
:1058D0008F2D881F8F3F49F020E030E0A901C701DC
:1058E000B6010E94382E811106C082E290E09093AA
:1058F000820580938105C701B60109C060E070E0B0
:1059000080E89FEF04C060E070E080EC9FE7CDB7D7
:10591000DEB7EEE00C948A2F283008F027E033271A
:10592000DA01990F311D87FD9160009661057105BF
:1059300039F432602E5F3D9330E32A95E1F7089504
:105940009F3F30F080387105610509F03C5F3C5F96
:105950003D93913008F08068911DDF93CF931F93A2
:105960000F93FF92EF92192F987F9695E92F9695B6
:105970009695E90FFF27EB52FE4F99273327EE2428
:10598000FF24A701E70105900894079428F4360F37
:10599000E71EF81E491F511D660F771F881F991FAC
:1059A0000694A1F70590079428F4E70EF81E491F06
:1059B000561FC11D770F881F991F661F0694A1F7F8
:1059C0000590079428F4F80E491F561FC71FD11DD4
:1059D000880F991F661F771F0694A1F705900794FB
:1059E00020F4490F561FC71FD81F990F661F771F36
:1059F000881F0694A9F784911095177041F0D695E9
:105A0000C79557954795F794E7941A95C1F7EBE733
:105A1000F1E06894159015913591659195910590F7
:105A20007FE27395E118F10A430B560BC90BD009BD
:105A3000C0F7E10CF11E431F561FC91FD01D7EF495
:105A4000703311F48A95E6CFE894015030F0080FD6
:105A50000AF40027021708F4202F2395022F7A3327
:105A600028F079E37D932A95E9F710C07D932A9574
:105A700089F6069497956795379517951794E118C9
:105A8000F10A430B560BC90BD00998F023957E9170
:105A900073957A3308F070E37C932013B8F77E9106
:105AA00070617D9330F0839571E37D9370E32A9567
:105AB000E1F71124EF90FF900F911F91CF91DF91AB
:105AC000992787FD9095089591110C940B2F8032A2
:105AD00019F089508550C8F70895FB01DC01415049
