:100000000C9490000C94B8000C94B8000C943F0829
:100010000C943F080C943F080C94B8000C94B80062
:100020000C94B8000C94B8000C94B8000C94B80070
:100030000C94B8000C94B8000C94B8000C94B80060
:100040000C94B10C0C94B8000C94BF050C94990559
:100050000C94B8000C94B8000C94B8000C94B80040
:100060000C94B8000C94B800550F21102110590FB2
:10007000700F21102110211021102110C40F850FA5
:100080009A0FAF0F211021102110211021102110E3
:100090000A10DD0FF30F41542B43574D4F44453D9C
:1000A000330053746174653A20000000000023009F
:1000B00026002900467265652052414D203D2000F2
:1000C00052656365697665643A200000000000248B
:1000D0000027002A0000000000250028002B000453
:1000E00004040404040404020202020202030303DF
:1000F00003030301020408102040800102040810D9
:100100002001020408102000000008000201000085
:10011000030407000000000000000000F311BB1101
:1001200011241FBECFEFD8E0DEBFCDBF13E0A0E0AB
:10013000B1E0E6E3F2E302C005900D92A639B10703
:10014000D9F725E0A6E9B3E001C01D92A034B207BB
:10015000E1F710E0CFE8D0E004C02197FE010E9453
:10016000E417CE38D107C9F70E94FB0C0C940E1986
:100170000C940000CF92DF92EF92FF920F931F93A7
:10018000CF93DF936C017A018B01C0E0D0E0CE15F4
:10019000DF0589F0D8016D918D01D601ED91FC91BB
:1001A0000190F081E02DC6010995892B11F47E01A3
:1001B00002C02196ECCFC701DF91CF911F910F9123
:1001C000FF90EF90DF90CF900895FC01538D448D08
:1001D000252F30E0842F90E0821B930B541710F0F2
:1001E000CF96089501970895FC01918D828D9817FF
:1001F00061F0828DDF01A80FB11D5D968C91928D0B
:100200009F5F9F73928F90E008958FEF9FEF089507
:10021000FC01918D828D981731F0828DE80FF11DD0
:10022000858D90E008958FEF9FEF0895FC01918DEB
:10023000228D892F90E0805C9F4F821B91098F73E4
:100240009927089584EE93E00E94160121E0892BFE
:1002500009F420E0822F0895FC01848DDF01A80FAE
:10026000B11DA35ABF4F2C91848D90E001968F73DE
:100270009927848FA689B7892C93A089B1898C91FD
:1002800080648C93938D848D981306C00288F389C3
:10029000E02D80818F7D80830895EF92FF920F93F0
:1002A0001F93CF93DF93EC0181E0888F9B8D8C8D22
:1002B000981305C0E889F989808185FD24C0F62E50
:1002C0000B8D10E00F5F1F4F0F731127E02E8C8DE9
:1002D000E8120CC00FB607FCFACFE889F9898081D3
:1002E00085FFF5CFCE010E942C01F1CF8B8DFE0151
:1002F000E80FF11DE35AFF4FF0820B8FEA89FB896B
:100300008081806207C0EE89FF896083E889F9896E
:1003100080818064808381E090E0DF91CF911F91A4
:100320000F91FF90EF900895CF93DF93EC01888DAC
:100330008823C9F0EA89FB89808185FD05C0A889E9
:10034000B9898C9186FD0FC00FB607FCF5CF80816F
:1003500085FFF2CFA889B9898C9185FFEDCFCE01B9
:100360000E942C01E7CFDF91CF91089580E090E0CB
:10037000892B29F00E94220181110C94000008951C
:10038000CB0108957F928F929F92AF92BF92CF92AE
:10039000DF92EF92FF920F931F93CF93DF93EC01C5
:1003A00049015A018B01C12CD12C7601C814D90402
:1003B000EA04FB0484F5F80171908F018F8580FFBA
:1003C0000BC0E881F9810084F185E02D20E144E053
:1003D00060E070E0CE010995EB85FC858D859E85FA
:1003E000E817F90738F470828B859C8501969C8705
:1003F0008B870BC0E881F981672D70E0028CF38D4B
:10040000E02DCE010995019649F02FEFC21AD20ACC
:10041000E20AF20ACBCFB401C50102C0B601C7019E
:10042000DF91CF911F910F91FF90EF90DF90CF90D0
:10043000BF90AF909F908F907F900895CF93DF9360
:10044000EC01E881F9810288F389E02D09958F3F5D
:100450002FEF920731F02D813E812F5F3F4F3E837A
:100460002D83DF91CF9108958FEF9FEF089560E086
:1004700070E0CB01089580E090E00895CB010895ED
:10048000CF93DF93EC0188899989DC01ED91FC9190
:100490000084F185E02D0995892BA9F38889998934
:1004A000DC01ED91FC910284F385E02DDF91CF9189
:1004B0000994CF93DF93EC0188899989DC01ED9150
:1004C000FC910084F185E02D0995892BA9F3888999
:1004D0009989DC01ED91FC910484F585E02DDF9193
:1004E000CF910994AF92BF92CF92DF92EF92FF9299
:1004F0000F931F93CF93DF9300D000D0CDB7DEB71B
:100500008C015B01C12CD12C7601F8018089918985
:10051000DC01ED91FC910284F385E02D29833A837F
:100520004B835C83099529813A814B815C818F3FA4
:1005300071F0C216D306E406F5064CF4D5018D938E
:100540005D01BFEFCB1ADB0AEB0AFB0ADECFC70166
:10055000B6010F900F900F900F90DF91CF911F91E8
:100560000F91FF90EF90DF90CF90BF90AF900895E4
:10057000DC0150968D919C915197DC01ED91FC919D
:100580000084F185E02D099480E090E0089580E0FA
:1005900090E0089580E090E0089580E090E0089574
:1005A0000895CF93DF93C091E003D091E103E881F8
:1005B000F9810084F185E02DCE010995892BB9F3ED
:1005C000E881F9810284F385E02DCE01DF91CF919E
:1005D00009941F93CF93DF93182FC091E003D0911C
:1005E000E1038A3041F4E881F9810190F081E02D46
:1005F0006DE0CE010995E881F9810190F081E02D4F
:10060000612FCE01099521E030E0019711F420E03F
:1006100030E0C901DF91CF911F9108952091D80357
:100620003091D9032817390771F49091D60380913E
:10063000D703981741F0E091D603F0E0EA56FC4F5B
:10064000808190E008958FEF9FEF089508951F93A4
:10065000CF93DF93DC015C962D913C915D97211542
:10066000310539F481E090E013969C938E931297B4
:100670003DC05196ED91FC91529750969C915097A8
:10068000892F80951FB75E964C915E9741FB772727
:1006900070F941FD6095F8944081772311F0492B62
:1006A00001C048234083E9012197F1F748E05081D8
:1006B00060FF02C0592B01C058235083E9012197E4
:1006C000F1F76695415099F7772321F090818923BE
:1006D000808303C08081982B90831FBF5C968D918F
:1006E0009C915D970197F1F721E030E0C901DF911E
:1006F000CF911F9108952091D8033091D9032817E5
:10070000390771F48091D7032091D60390E0805C83
:100710009F4F821B910960E470E00E94AE1708951C
:1007200080E090E008952091D8033091D9032817F4
:100730003907B9F49091D6038091D703981789F0BF
:10074000E091D603F0E0EA56FC4F80812091D60379
:1007500030E02F5F3F4F2F7333272093D60390E075
:1007600008958FEF9FEF0895089580E090E0089539
:100770000C94BD130C94BD13089508950C94BD13EF
:10078000DC01ED91FC91369720813181820F931F1E
:100790000C94BE03FB0120813181FC013183208355
:1007A000FB0142815381F901369720813181FC019F
:1007B000E20FF31F51834083089522E931E0FC01E9
:1007C000318320832CE931E0318F208F62EA71E0A0
:1007D0000C94CA03DC01ED91FC91369720813181A4
:1007E000820F931F0C94DD03CF93DF93EC010E94E3
:1007F000DD03CE01DF91CF910C94BD13DC01ED91AF
:10080000FC91369720813181820F931F0C94F40361
:100810000C94BD13089508950C94BD13DC01ED9163
:10082000FC91369720813181820F931F0C940C0428
:10083000FB0120813181FC0131832083FB01428156
:100840005381F901369720813181FC01E20FF31FBA
:100850005183408308952AE032E0FC0131832083F4
:1008600024E132E0358B248B6AE172E00C941804A9
:10087000DC01ED91FC91369720813181820F931F2D
:100880000C942B04CF93DF93EC010E942B04CE0138
:10089000DF91CF910C94BD13DC01ED91FC91369763
:1008A00020813181820F931F0C9442040C94BD135C
:1008B0000F931F93CF93DF93EC010E94A50C6887E1
:1008C00079878A879B87E881F9810284F385E02D07
:1008D000CE01099597FF17C00E94A50C08851985C0
:1008E0002A853B85DC01CB01801B910BA20BB30B4E
:1008F0000C811D812E813F8180179107A207B307CC
:1009000010F38FEF9FEFDF91CF911F910F9108951B
:10091000DC01ED91FC910190F081E02D09940F93A1
:100920001F93CF93DF938C01EB016F3F8FEF78071D
:1009300019F480E090E00FC06A3031F46DE0F80106
:10094000808991890E9488046C2FF801808991899F
:100950000E948804CE01DF91CF911F910F910895DD
:100960008F929F92BF92CF92DF92EF92FF920F935E
:100970001F93CF93DF9300D000D0CDB7DEB78C01AB
:100980004B01C12CD12C7601C216D306E406F50624
:1009900044F5F401B1904F01FAE0BF120EC06DE0D2
:1009A000F8018089918929833A834B835C830E9473
:1009B00088045C814B813A8129816B2DF801808903
:1009C000918929833A834B835C830E948804FFEFDB
:1009D000CF1ADF0AEF0AFF0A5C814B813A81298135
:1009E000D3CFCA01B9010F900F900F900F90DF91F4
:1009F000CF911F910F91FF90EF90DF90CF90BF901C
:100A00009F908F900895EF92FF920F931F93CF9333
:100A1000DF938C017B01C0E0D0E0F701EC0FFD1FFC
:100A20006491662361F0D801ED91FC910190F08111
:100A3000E02DC8010995892B11F02196EECFCE014A
:100A4000DF91CF911F910F91FF90EF900895611565
:100A5000710579F0FB0101900020E9F73197AF01B2
:100A6000461B570BDC01ED91FC910280F381E02DD8
:100A7000099480E090E008954F925F926F927F9288
:100A8000EF92FF920F931F93CF93DF93CDB7DEB713
:100A9000A1970FB6F894DEBF0FBECDBF7C01FA015F
:100AA000CB0119A2223008F42AE08E010F5D1F4FFE
:100AB000422E512C612C712CBF01A30192010E9486
:100AC000C217F901CA01015011096A3014F4605DBE
:100AD00001C0695CD8016C93232B242B252B61F773
:100AE000B801C7010E942705A1960FB6F894DEBF92
:100AF0000FBECDBFDF91CF911F910F91FF90EF906F
:100B00007F906F905F904F9008950F931F93CF93B6
:100B1000DF93EC010E9427058C0161E572E0CE01B4
:100B20000E942705800F911FDF91CF911F910F9198
:100B300008951F920F920FB60F9211242F933F9397
:100B40004F935F936F937F938F939F93AF93BF93D5
:100B5000EF93FF9384EE93E00E942C01FF91EF91BD
:100B6000BF91AF919F918F917F916F915F914F91C5
:100B70003F912F910F900FBE0F901F9018951F92CD
:100B80000F920FB60F9211242F938F939F93EF9391
:100B9000FF93E091F403F091F5038081E091FA0373
:100BA000F091FB0382FD12C090818091FD038F5F65
:100BB0008F732091FE03821751F0E091FD03F0E066
:100BC000EC51FC4F958F8093FD0301C08081FF9114
:100BD000EF919F918F912F910F900FBE0F901F90CB
:100BE00018950F931F93CF93DF93EB01099000208B
:100BF000E9F72197C61BD70BFC0104811581AE01D3
:100C00000C171D0708F4A801FC01808191810E9446
:100C1000DD18009769F481E090E0C017D10740F03B
:100C20000C171D0710F080E090E0919581959109D7
:100C3000DF91CF911F910F910895AF92BF92CF9204
:100C4000DF92EF92FF920F931F93CF93DF93CDB775
:100C5000DEB7A1970FB6F894DEBF0FBECDBF7C0103
:100C600063E572E0CE014A960E94F90960E272E003
:100C7000CE0144960E94F90960E372E0CE010E961F
:100C80000E94F90965E372E084EE93E00E94850515
:100C90005C01198618861B861A861D861C86BE0175
:100CA000625F7F4FCE0108960E94CA09488D598D18
:100CB0006C897D89CE0108960E947109811104C05A
:100CC000CE0108960E949F0968E472E0CE01089662
:100CD0000E94B10964E572E00E94B1096BE572E01F
:100CE0000E94B10961E572E00E94B1096C014AE01D
:100CF0008E010F5F1F4FB801C5010E945514F80106
:100D000001900020E9F73197AF01401B510BB8016A
:100D1000C6010E947109811103C0C6010E949F098A
:100D2000B601CE010E960E94CA09CE0108960E9415
:100D3000F409CE010E960E94E20A6BE672E0CE0143
:100D400008960E94F909D70112968D919C911397EC
:100D5000DC01ED91FC914C855D856885798502808B
:100D6000F381E02D09956A897B89F701828193815E
:100D70000E94F90A68EE73E080E090E00E946B0C3C
:100D800067E772E0D70112968D919C9113970E94AC
:100D9000340A882309F481C069E772E084EE93E0A5
:100DA0000E948505F70182819381DC01ED91FC9120
:100DB0004A895B896E857F850280F381E02D0995E4
:100DC00063E872E084EE93E00E948505CE014A96C6
:100DD0000E94E20A62E972E084EE93E00E94270535
:100DE0006E8D7F8D84EE93E00E94F90A60EA72E0D6
:100DF00084EE93E00E9427056A897B8984EE93E064
:100E00000E94F90A61EB72E084EE93E00E9485058E
:100E1000CE010E960E94E20A6FEB72E0F70182812A
:100E200093810E94340A8823C1F167EC72E084EE5A
:100E300093E00E948505D70112968D919C9113979E
:100E4000DC01ED91FC910084F185E02D0995F7011D
:100E5000C280D380892BE1F063E572E0C8010E9473
:100E6000F909C6010E94580497FD0BC088A319A276
:100E700041E050E0BE01605E7F4FC8010E947109F1
:100E8000F0CFC8010E94E20AC8010E94F409D3CF42
:100E900063ED72E0C6010E948505CE0108960E94AE
:100EA000F409CE010E960E94F409CE0144960E94E8
:100EB000F409CE014A960E94F409A1960FB6F8945F
:100EC000DEBF0FBECDBFDF91CF911F910F91FF907D
:100ED000EF90DF90CF90BF90AF900895CF93DF93C6
:100EE000FC0127892617C9F0EC01678B62EA70E0E4
:100EF00084EE93E00E9403054F8950E060E070E0CB
:100F00002AE084EE93E00E943C0561E572E084EE05
:100F100093E00E94270581E001C080E0DF91CF913E
:100F20000895EF92FF920F931F93CF93DF93CDB766
:100F3000DEB7C054D1090FB6F894DEBF0FBECDBFE7
:100F40008C018BE592E09F938F938FED92E09F93BE
:100F50008F93CE0101967C019F938F930E94EB1893
:100F6000B701F801828193810E94850566E1C8017D
:100F70000E946E070E94A50CF801658F768F878FFF
:100F800090A30F900F900F900F900F900F90C05C58
:100F9000DF4F0FB6F894DEBF0FBECDBFDF91CF910C
:100FA0001F910F91FF90EF900895EF92FF920F9392
:100FB0001F93CF93DF93CDB7DEB7C054D1090FB6DF
:100FC000F894DEBF0FBECDBF8C0189EF92E09F93F6
:100FD0008F9386E093E09F938F938DE093E09F93B0
:100FE0008F93CE0101967C019F938F930E94EB1803
:100FF000B701F801828193810E9485056CE0C801E8
:101000000E946E070E94A50CF801658F768F878F6E
:1010100090A30FB6F894DEBF0FBECDBFC05CDF4F0C
:101020000FB6F894DEBF0FBECDBFDF91CF911F91F9
:101030000F91FF90EF9008950F931F93CF93DF933D
:10104000EC010A811B8166E970E0C8010E9403057A
:1010500061E572E0C8010E9427050E94A50C6D8F12
:101060007E8F8F8F98A363E0CE01DF91CF911F9188
:101070000F910C946E0708950895089508951F9296
:101080000F920FB60F9211242F933F934F935F93BC
:101090006F937F938F939F93AF93BF93EF93FF9340
:1010A000E091D803F091D903309709F451C0968D9F
:1010B000A685B785858591FF04C09C91892329F475
:1010C00047C09C91892309F043C0A389B4899C91AE
:1010D0008589809589238C93868997890197F1F773
:1010E000608D718DA685B785558538E020E0CB01F0
:1010F0000197F1F7822F90E095958795282F4C91D5
:10110000452309F02068315091F7868D81FD2095A7
:101110008091D70390E001968F7399273091D60381
:10112000381749F0A091D703B0E0AA56BC4F2C93D2
:101130008093D70303C0868D8160868F828D938DC7
:101140000197F1F7A389B4899C918589892B8C93A8
:10115000FF91EF91BF91AF919F918F917F916F918F
:101160005F914F913F912F910F900FBE0F901F9065
:1011700018950F931F93CF93DF93EC01CB01088158
:1011800019817B836A830E9428139983888320E0D6
:1011900030E08C819D812817390770F4E881F9814E
:1011A000E20FF31F309729F0D801A20FB31F8C91E3
:1011B00080832F5F3F4FEDCFC801DF91CF911F910B
:1011C0000F910C94BD13FC01808191810C94BD138F
:1011D000CF92DF92EF92FF920F931F93FB01DC01FE
:1011E00000E010E098016A01E12CF12C0C151D05BE
:1011F0002E053F0538F461916D930F5F1F4F2F4F00
:101200003F4FF4CF840F951F1F910F91FF90EF90E8
:10121000DF90CF900895CF92DF92EF92FF920F93DD
:101220001F93CF93DF931F92CDB7DEB77C016B0185
:1012300088E090E0F70193838283158214820E94F4
:101240002813F70191838083C114D104B9F0F6010A
:1012500001900020E9F731978F010C191D091982BF
:10126000AE014F5F5F4FB801C7010E94A80AA801F5
:10127000B601F701808191810E94E8080F90DF910B
:10128000CF911F910F91FF90EF90DF90CF90089535
:101290000E94C8180F931F93CF93DF93EC018881AE
:1012A0009981009729F02A813B812617370788F416
:1012B0008B016F5F7F4F0E94FE17009761F099834B
:1012C00088831B830A832C813D81232B11F4FC012D
:1012D000108281E001C080E0DF91CF911F910F91DA
:1012E0000895EF92FF920F931F93CF93DF93FC012A
:1012F000248135816115710511F480E019C0411513
:101300005105A9F07B01EC018A01020F131FB801FE
:101310000E944A09882389F3288139818C819D8123
:10132000B701820F931F0E94D6181D830C8381E0A2
:10133000DF91CF911F910F91FF90EF900895CF9380
:10134000DF93EC0188819981009711F00E94BD1311
:10135000198218821D821C821B821A82DF91CF9112
:101360000895CF93DF93EC016115710561F0FB01E6
:1013700001900020E9F73197AF01461B570B0E94FF
:101380007109811103C0CE010E949F09CE01DF9136
:10139000CF910895EF92FF920F931F93CF93DF9316
:1013A000EC01FB0186179707B9F000811181011547
:1013B000110539F0E480F580B7010E944A098111D6
:1013C00004C0CE010E949F0907C0FD82EC82B801D3
:1013D000888199810E94D618CE01DF91CF911F910B
:1013E0000F91FF90EF900895FC01808191810C9402
:1013F000BD13EF92FF920F931F93CF93DF93EC01F6
:10140000198218821B821A821D821C826115710545
:1014100021F18B01FB0101900020E9F731977F0159
:10142000E61AF70AB7010E944A09811109C0CE01E4
:10143000DF91CF911F910F91FF90EF900C949F0936
:10144000FD82EC82B80188819981DF91CF911F9153
:101450000F91FF90EF900C94D618DF91CF911F91D0
:101460000F91FF90EF900895AF92BF92CF92DF92CD
:10147000EF92FF920F931F93CF93DF93FB010190A5
:101480000020E9F731978F01061B170B19F420E0B4
:1014900030E04FC0EB016C01E12CF12CC6010E9441
:1014A000580497FD44C0FE01EE0DFF1D2081022E61
:1014B000000C330B8217930799F1E114F10421F426
:1014C00020E030E07901EACF9701A90141505109AC
:1014D000FE01E40FF51F6081062E000C770B8617C6
:1014E0009707D1F44115510569F3DE01F701E41BBB
:1014F000F50BEC0FFD1F60E070E0AD90B190AB1408
:1015000029F064177507F1F29A01DFCF6F5F7F4F03
:101510006417750790F3F5CF41155105A9F7D0CFA2
:1015200097012F5F3F4F2017310761F6B0CF2FEFA4
:101530003FEF81E0232B09F080E0DF91CF911F91F5
:101540000F91FF90EF90DF90CF90BF90AF900895F4
:10155000EF92FF920F931F93CF93DF93EC018C8157
:101560009D818617970710F57A018B018A819B81EF
:101570008617970740F4685F7F4F8617970718F420
:10158000CE010E94B9088C819D818017910758F483
:10159000E881F981E80FF91F309719F0D7012C91F4
:1015A00020830196F2CF1D830C8305C0681779074D
:1015B00010F47D836C83DF91CF911F910F91FF9089
:1015C000EF900895CF93DF93FC01448155816081B2
:1015D000718184EE93E00E94BA00EC0161E572E053
:1015E00084EE93E00E9427058C0F9D1FDF91CF9121
:1015F00008950F931F93CF93DF93EC01AB0160E04D
:1016000070E02AE00E943C058C0161E572E0CE01A9
:101610000E942705800F911FDF91CF911F910F919D
:1016200008953FB7F8948091320590913305A091C9
:101630003405B091350526B5A89B05C02F3F19F09C
:101640000196A11DB11D3FBFBA2FA92F982F882742
:10165000820F911DA11DB11DBC01CD0142E0660F9D
:10166000771F881F991F4A95D1F708955F926F924F
:101670007F928F929F92AF92BF92CF92DF92EF9222
:10168000FF920F931F93CF93DF93CDB7DEB7609791
:101690000FB6F894DEBF0FBECDBF5C01AE01405F58
:1016A0005F4FCE0108960E940B098C859D85F50140
:1016B000E480F580E816F90618F40FEF1FEF68C014
:1016C0009701281B390BF90131967F0100E010E0EA
:1016D00088E0882E912C0E151F0579F38C859D8549
:1016E000F501648075806016710610F40E94C818B8
:1016F000601A710A8615970508F43C01F501C0804F
:10170000D180C00ED11E9C828B821E821D8288E0F9
:1017100090E00E9428139A838983FFEF6F167F065B
:1017200029F3F6018081181684F41F86AE01415F0B
:101730005F4FB301CE0101960E94A80A4D815E81E0
:10174000B60189819A810E94E8086C847D84CD80ED
:10175000DE80A6016C147D0408F4A30169817A81FE
:10176000888599850E94DD18892B41F4C614D70419
:1017700028F0552453946C147D0408F4512CCE01A8
:1017800001960E94E308511003C00F5F1F4FA3CFC3
:10179000CE0108960E94E308C80160960FB6F8943F
:1017A000DEBF0FBECDBFDF91CF911F910F91FF9094
:1017B000EF90DF90CF90BF90AF909F908F907F90F1
:1017C0006F905F90089590E0FC01E95FFE4F3491C7
:1017D000FC01ED50FF4F2491FC01E152FF4FE491D9
:1017E000EE2309F43BC0332339F1333091F038F460
:1017F0003130A9F0323001F584B58F7D12C0373019
:1018000091F03830A1F03430B9F4809180008F7DB0
:1018100003C0809180008F77809380000DC084B5D5
:101820008F7784BD09C08091B0008F7703C080910D
:10183000B0008F7D8093B000F0E0EE0FFF1FEB5201
:10184000FF4FA591B4918FB7F894EC91611103C04B
:1018500020952E2301C02E2B2C938FBF0895CF935C
:10186000DF9390E0FC01ED50FF4F2491FC01E15229
:10187000FF4F8491882361F190E0880F991FFC014C
:10188000E553FF4FC591D491FC01EB52FF4FA59159
:10189000B491611109C09FB7F89488812095822383
:1018A0008883EC912E230BC0623061F49FB7F894CB
:1018B0003881822F809583238883EC912E2B2C9363
:1018C0009FBF06C08FB7F894E8812E2B28838FBF67
:1018D000DF91CF9108958F929F92AF92BF92CF9256
:1018E000DF92EF92FF926B017C010E94110B4B0182
:1018F0005C01C114D104E104F104F1F00E94110B68
:10190000DC01CB0188199909AA09BB09883E9340DB
:10191000A105B10570F321E0C21AD108E108F10870
:1019200088EE880E83E0981EA11CB11CC114D1045E
:10193000E104F10419F7DDCFFF90EF90DF90CF9035
:10194000BF90AF909F908F9008952FB7F8946091BB
:101950002E0570912F0580913005909131052FBF94
:1019600008951F920F920FB60F9211242F933F9359
:101970008F939F93AF93BF9380912E0590912F05E6
:10198000A0913005B091310530912D0523E0230F52
:101990002D3720F40196A11DB11D05C026E8230FA7
:1019A0000296A11DB11D20932D0580932E059093C5
:1019B0002F05A0933005B0933105809132059091A9
:1019C0003305A0913405B09135050196A11DB11DD7
:1019D0008093320590933305A0933405B093350579
:1019E000BF91AF919F918F913F912F910F900FBE1B
:1019F0000F901F901895CF93DF93CDB7DEB7659703
:101A00000FB6F894DEBF0FBECDBF789484B5826068
:101A100084BD84B5816084BD85B5826085BD85B592
:101A2000816085BD80916E00816080936E00109210
:101A3000810080918100826080938100809181008B
:101A4000816080938100809180008160809380001C
:101A50008091B10084608093B1008091B00081607A
:101A60008093B00080917A00846080937A008091A6
:101A70007A00826080937A0080917A0081608093FE
:101A80007A0080917A00806880937A001092C10079
:101A900061E085E00E942F0C61E087E00E942F0C3E
:101AA00061E086E00E942F0CE091F403F091F503D1
:101AB00082E08083E091F003F091F1031082E091E5
:101AC000F203F091F30380E180831092FC03E09134
:101AD000F803F091F90386E08083E091F603F0913A
:101AE000F703808180618083E091F603F091F70332
:101AF000808188608083E091F603F091F703808114
:101B000080688083E091F603F091F70380818F7DF8
:101B1000808361E085E00E94E30B61E087E00E9442
:101B2000E30B61E086E00E94E30B6AEF70E080E087
:101B300090E00E946B0C60E085E00E94E30B60E0A7
:101B400087E00E94E30B60E086E00E94E30B82E204
:101B500090E00E9428136C018CE191E0D6018D93F6
:101B60009C938FE190E00E9428138C01FC0113826A
:101B7000128288EE93E0A0E0B0E084839583A68390
:101B8000B7838AE091E091838083178A168A118E49
:101B9000108E138E128E158E148E668D6E7F6D7F55
:101BA000668F6695617081E0682783E00E94E30B91
:101BB00061E083E00E942F0CE6EFF0E0E491D801B1
:101BC0005096EC93E2EEF0E0E491F0E0EE0FFF1FB0
:101BD000EB52FF4F85919491F801928B818B60E0DD
:101BE00082E00E942F0CD8015E968C9181FD04C08A
:101BF00061E082E00E94E30B82E0F8018487E5EF78
:101C0000F0E0E491D8011D96EC93E1EEF0E0E49170
:101C1000F0E0EE0FFF1FE655FF4F85919491F8011C
:101C200097878687D60113961C930E931297149666
:101C30001C92149755961C92559756961C9256973F
:101C400057961C92579758961C920E94A50CF60125
:101C5000618F728F838F948F0E94A50CD6015D9641
:101C60006D937D938D939C93909791961C9264EBCA
:101C700070E084EE93E00E94030580913605909118
:101C80003705FE0131967F014F01881A990A092C08
:101C9000000CAA08BB08B7FE0EC06DE284EE93E00C
:101CA0000E94880444275527BA01481959096A092E
:101CB0007B092AE003C02AE0B501A40184EE93E089
:101CC0000E943C0561E572E084EE93E00E942705E6
:101CD000F6013596C601459611921192E817F9075B
:101CE000D9F7D6011296ED91FC911397138E128EAF
:101CF000118E108E178A168A8DE991E0958F848F48
:101D00008485863108F04DC02DEB30E0378B268B73
:101D10002BE931E0318F208F2CE231E0338F228F9D
:101D200090916800883050F021E08E3008F420E077
:101D300081E001C0880F2A95EAF701C084E0892B71
:101D4000809368008485883038F08E3040F086318A
:101D500048F020E030E008C02DE630E005C02BE67A
:101D600030E002C02CE630E0348B238B883030F436
:101D700091E001C0990F8A95EAF70EC0282F30E054
:101D80008E3018F42850310902C02E50310991E0EC
:101D900001C0990F2A95EAF7958B848D958D01974F
:101DA000F1F7828D938D892B49F14091D8035091A1
:101DB000D9034E175F0711F14115510571F0DA0192
:101DC00053962D913C915497D9019C91DA015596E7
:101DD0008C9180958923D9018C93868D8E7F868FF7
:101DE0001092D7031092D603F093D903E093D8034F
:101DF000A389B4899C918589892B8C93D092DB032C
:101E0000C092DA0393E3392E28E0822E912C0E94AF
:101E1000A50C0091DC031091DD032091DE033091CD
:101E2000DF03DC01CB01801B910BA20BB30B803DC8
:101E30009740A105B10554F00E94A50C6093DC0306
:101E40007093DD038093DE039093DF030091DA0348
:101E50001091DB030E94A50CD80159964D905D901E
:101E60006D907C905C97DC01CB0184199509A609E3
:101E7000B709853F9140A105B10548F00E94A50C26
:101E8000D80159966D937D938D939C935C97D8015F
:101E90005796EC918E2F90E08731910508F0D1C0D4
:101EA000FC01EC5CFF4F0C94E417C8010E941C0875
:101EB000C8C00E94A50CF801458C568C678C70A098
:101EC000DC01CB0184199509A609B709813D97402A
:101ED000A105B10508F4B5C0C8010E941C080BC0DB
:101EE00064E273E0F801828193810E9485056BE0D2
:101EF000C8010E946E070E94A50CD8015D966D93E3
:101F00007D938D939C9390979CC00E94A50CF801A3
:101F1000458C568C678C70A0DC01CB018419950927
:101F2000A609B709893B9B40A105B10508F489C002
:101F30006AE0DECF0E94A50CF801458C568C678CB8
:101F400070A0DC01CB0184199509A609B709803E70
:101F50009E42A105B10508F474C06AE057C06EE264
:101F600073E0D80112968D919C9113970E9485057C
:101F700065E1C8010E946E070E94A50CF801658FFB
:101F8000768F878F90A35DC00E94A50CD8015D96C7
:101F90004D905D906D907C909097DC01CB01841901
:101FA0009509A609B709803E9E42A105B10508F42E
:101FB00048C0C8010E94D50744C00E94A50CD801A2
:101FC0005D964D905D906D907C909097DC01CB017B
:101FD00084199509A609B709883B9B40A105B1055D
:101FE00080F164E185CF0E94A50CF801458C568CE8
:101FF000678C70A0DC01CB0184199509A609B7098B
:1020000080319742A105B105E0F064E1C8010E946A
:102010006E0717C00E94A50CD8015D964D905D908B
:102020006D907C909097DC01CB0184199509A609ED
:10203000B709803A9F40A105B10518F0C8010E9478
:102040009107D80156968C915697882329F01496BB
:102050008C9181110E94A50CF80182819381DC0191
:10206000ED91FC910084F185E02D0995892B09F40F
:102070007FC182E3282EF80182819381DC01ED91FA
:10208000FC910084F185E02D0995181619060CF0D5
:102090006FC1F801C280D38063E572E0CE010F9674
:1020A0000E94F909C6010E94580497FD0DC08A30AC
:1020B000910551F089831A8241E050E0B701CE01C9
:1020C0000F960E947109EECF6F84788861147104B5
:1020D00009F43FC0CB88DC88C114D104D1F12301BD
:1020E0005201FFEF4F1A5F0AD5018C91082E000CA8
:1020F000990B0E94A816892B99F7B1E0CB1AD10849
:10210000C60CD71CD6018C91082E000C990B0E948E
:10211000A816892B81F4BFEFCB1ADB0AA6014A1956
:102120005B095C8B4B8B6A147B0460F4B501C301C3
:102130000E94CD1807C0CA14DB0468F3E1E0CE1A90
:10214000D108E0CFEF85F8898B899C89E80FF91FCA
:1021500010828B899C89892B09F405C16F85788948
:10216000A701CE0108960E940B099C828B821E82D9
:102170001D8288E090E00E9428139A8389836C85F1
:102180007D851D8AAE014B5E5F4FC7010E94A80A84
:102190004D815E816885798589819A810E94E808F0
:1021A00060EC70E084EE93E00E9403056D817E8117
:1021B0006F5F7F4F8B819C818617970718F4C7014B
:1021C0000E94B908E981FA818D819E81E80FF91F8B
:1021D000108269817A8184EE93E00E948505F8017E
:1021E00087898B3021F128F4882369F08330A9F0A6
:1021F000B3C0853109F465C0863109F493C08C30D1
:1022000009F0AAC04BC064EC72E0C7010E94F1055E
:10221000892B09F0A1C061E09CC064EC72E0C701A9
:102220000E94F105892B09F097C064E092C064EC2C
:1022300072E0C7010E94F105892B59F4D801589624
:102240008C918F3411F46DE001C06AE0C8010E94E6
:102250006E076BE373E0C7010E94360B019671F0C5
:1022600066E073E0C7010E94360B019611F0EFE4BF
:1022700001C0E6E4D8015896EC936EC063E473E0C5
:10228000C7010E94360B019609F466C06AE0C801D6
:102290000E946E07C8010E94D5075EC064EC72E020
:1022A000C7010E94F105892B11F46DE052C06AE468
:1022B00073E0C7010E94360B019609F44DC06AE035
:1022C00048C064EC72E0C7010E94F105892BA9F4B3
:1022D000D80158968C918253823040F467E1C8014E
:1022E0000E946E07C8010E941D0607C064E1C80174
:1022F0000E946E07C8010E9491076FE473E0C70156
:102300000E94F105892B19F4F801208E25C068E59B
:1023100073E0C7010E94F105892BF1F4D8015896AA
:102320003C921AC064EC72E0C7010E94F105892B4F
:1023300041F467E1C8010E946E07C8010E941D06B2
:102340000BC061E673E0C7010E94F105892B21F4FF
:1023500064E1C8010E946E07C7010E94E308CE0134
:1023600008960E94E308CE010F960E94F40983CEDE
:102370000E94B6014CCD81E894E00E94DD038FEA13
:1023800094E00E942B0489ED94E00E94E30880EE23
:1023900094E00E94E30887EE94E00E94E3088EEE4A
:1023A00094E00E94E30885EF94E00E94E3088CEF3C
:1023B00094E00E94E30883E095E00E94E3088AE04D
:1023C00095E00E94E30881E195E00E94E30888E13E
:1023D00095E00E94E3088FE195E00E94E30886E221
:1023E00095E00C94E308EF92FF920F931F93CF9325
:1023F000DF931F92CDB7DEB704EE13E0F80113822E
:10240000128288EE93E0A0E0B0E084839583A683F7
:10241000B7838CE491E09183808385EC90E095878D
:10242000848784EC90E09787868780EC90E0918B9E
:10243000808B81EC90E0938B828B82EC90E0958B8B
:10244000848B86EC90E0978B868B118E128E138E88
:10245000148EAE014F5F5F4F68E673E086E295E051
:102460000E940B09AE014F5F5F4F6BE673E08FE197
:1024700095E00E940B09AE014F5F5F4F6EE673E07F
:1024800088E195E00E940B09AE014F5F5F4F63E763
:1024900073E081E195E00E940B09AE014F5F5F4F51
:1024A00067E773E08AE095E00E940B09AE014F5F99
:1024B0005F4F6BE773E083E095E00E940B09AE018C
:1024C0004F5F5F4F6FE773E08CEF94E00E940B0962
:1024D000AE014F5F5F4F63E873E085EF94E00E94C9
:1024E0000B09AE014F5F5F4F67E873E08EEE94E03B
:1024F0000E940B09AE014F5F5F4F6BE873E087EE00
:1025000094E00E940B09AE014F5F5F4F6FE873E0EC
:1025100080EE94E00E940B09AE014F5F5F4F63E9CC
:1025200073E089ED94E00E940B09EFEAF4E0A1E288
:10253000B0E0B08FA78B118E128E138E46E050E064
:1025400060E070E0448F558F668F778F10A211A2E4
:1025500012A213A220E224A316A215A211A681EBB7
:1025600094E090A787A38AE092E09183808384E13E
:1025700092E0958B848B16821582108617821286C4
:1025800011861486138616861586108A178688EE9D
:1025900091E093838283138B028B30E1318BE1E8EE
:1025A000F4E0B48FA38F158E168E178E40A351A31F
:1025B00062A373A314A215A216A217A220A712A6A3
:1025C00011A615A6128213821482158227E834E020
:1025D00034A723A722E931E0318320832CE931E0BD
:1025E000318F208F128611861486138616861586E3
:1025F000108A1786128A118A148A138A978386830F
:10260000178B068B88E0858B80EEE82E83E0F82E12
:10261000F701138212821183008361ED72E089EE6B
:1026200092E00E946F14F701938382830E94A50CAD
:102630006093DC037093DD038093DE039093DF03EC
:102640000F90DF91CF911F910F91FF90EF90089520
:10265000CF93DF938230910510F482E090E0E09117
:102660003805F091390520E030E0C0E0D0E0309747
:1026700011F14081518148175907C0F04817590797
:1026800061F482819381209719F09B838A832BC008
:10269000909339058093380526C02115310519F02E
:1026A0004217530718F49A01BE01DF01EF010280BF
:1026B000F381E02DDCCF2115310509F1281B390B01
:1026C0002430310590F412968D919C9113976115E9
:1026D000710521F0FB019383828304C09093390537
:1026E00080933805FD01329644C0FD01E20FF31FCF
:1026F00081939193225031092D933C933AC02091BC
:10270000360530913705232B41F420910201309199
:102710000301309337052093360520910001309155
:1027200001012115310541F42DB73EB74091040157
:1027300050910501241B350BE0913605F0913705CA
:10274000E217F307A0F42E1B3F0B2817390778F088
:10275000AC014E5F5F4F2417350748F04E0F5F1FE7
:1027600050933705409336058193919302C0E0E082
:10277000F0E0CF01DF91CF9108950F931F93CF9396
:10278000DF93009709F48CC0FC0132971382128208
:1027900000913805109139050115110581F420814A
:1027A0003181820F931F209136053091370528170C
:1027B000390779F5F0933705E093360571C0D801F4
:1027C00040E050E0AE17BF0750F412962D913C91B7
:1027D0001397AD012115310509F1D901F3CF9D0101
:1027E000DA013383228360817181860F971F8217FC
:1027F000930769F4EC0128813981260F371F2E5F7A
:102800003F4F318320838A819B8193838283452B31
:1028100029F4F0933905E093380542C01396FC93F0
:10282000EE931297ED01499159919E01240F351FA6
:10283000E217F30771F480819181840F951F02964E
:1028400011969C938E938281938113969C938E9381
:102850001297E0E0F0E0D80112968D919C911397C9
:10286000009719F0F8018C01F6CF8D919C91980199
:102870002E5F3F4F820F931F209136053091370511
:102880002817390769F4309729F410923905109206
:10289000380502C013821282109337050093360563
:1028A000DF91CF911F910F910895BB27FB01552711
:1028B000AA27880F991FAA1FA41710F0A41B83959D
:1028C0005051B9F7A05DAA3308F0A95DA193009714
:1028D00079F7B111B1931192CB010C94CE160F93ED
:1028E0001F93CF93DF93009731F46115710519F4AD
:1028F00080E090E03AC08B01EC016EE070E081E096
:1029000090E00E948C16FC01892B91F380E8838370
:102910000115110571F01387028781E88383809187
:102920003A0590913B05892B21F4F0933B05E09308
:102930003A052097C9F0D187C0878381826083835D
:1029400080913C0590913D05892B71F4F0933D05F4
:10295000E0933C0580913E0590913F05892B21F441
:10296000F0933F05E0933E05CF01DF91CF911F919A
:102970000F910895ACE0B0E0E0ECF4E10C9477172F
:102980007C016B018A01FC0117821682838181FF21
:10299000BDC1CE0101964C01F7019381F60193FD73
:1029A000859193FF81916F01882309F4ABC1853232
:1029B00039F493FD859193FF81916F01853229F45C
:1029C000B70190E00E94DE16E7CF512C312C20E0B9
:1029D0002032A0F48B3269F030F4803259F0833227
:1029E00069F420612CC08D3239F0803339F42160D4
:1029F00026C02260246023C0286021C027FD27C094
:102A000030ED380F3A3078F426FF06C0FAE05F9ECA
:102A1000300D1124532E13C08AE0389E300D11243E
:102A2000332E20620CC08E3221F426FD6BC120644F
:102A300006C08C3611F4206802C0883641F4F601D5
:102A400093FD859193FF81916F018111C1CF982FE3
:102A50009F7D9554933028F40C5F1F4FFFE3F9835B
:102A60000DC0833631F0833771F0833509F05BC0D8
:102A700022C0F801808189830E5F1F4F4424439454
:102A8000512C540115C03801F2E06F0E711CF80191
:102A9000A080B18026FF03C0652D70E002C06FEFFB
:102AA0007FEFC5012C870E94C3162C0183012C8562
:102AB0002F77222E17C03801F2E06F0E711CF8013B
:102AC000A080B18026FF03C0652D70E002C06FEFCB
:102AD0007FEFC5012C870E94B1162C012C85206840
:102AE000222E830123FC1BC0832D90E0481659063B
:102AF000B0F4B70180E290E00E94DE163A94F4CF81
:102B0000F50127FC859127FE81915F01B70190E0D7
:102B10000E94DE1631103A94F1E04F1A5108411428
:102B2000510471F7E5C0843611F0893639F5F801A2
:102B300027FF07C060817181828193810C5F1F4FE5
:102B400008C060817181072E000C880B990B0E5F05
:102B50001F4F2F76722E97FF09C090958095709524
:102B600061957F4F8F4F9F4F2068722E2AE030E093
:102B7000A4010E941617A82EA81844C0853729F46E
:102B80002F7EB22E2AE030E025C0F22FF97FBF2E33
:102B90008F36C1F018F4883579F0B4C0803719F059
:102BA000883721F0AFC02F2F2061B22EB4FE0DC0A8
:102BB0008B2D8460B82E09C024FF0AC09F2F966019
:102BC000B92E06C028E030E005C020E130E002C0A8
:102BD00020E132E0F801B7FE07C060817181828197
:102BE00093810C5F1F4F06C06081718180E090E08F
:102BF0000E5F1F4FA4010E941617A82EA818FB2DC8
:102C0000FF777F2E76FE0BC0372D3E7FA51450F444
:102C100074FE0AC072FC08C0372D3E7E05C0BA2C77
:102C2000372D03C0BA2C01C0B52C34FF0DC0FE01F6
:102C3000EA0DF11D8081803311F4397E09C032FF25
:102C400006C0B394B39404C0832F867809F0B3947C
:102C500033FD13C030FF06C05A2CB31418F4530CC4
:102C60005B18B32CB31468F4B70180E290E03C87A2
:102C70000E94DE16B3943C85F5CFB31410F43B18D4
:102C800001C0312C34FF12C0B70180E390E03C87D3
:102C90000E94DE163C8532FF17C031FD03C088E775
:102CA00090E002C088E590E0B7010CC0832F8678E1
:102CB00059F031FF02C08BE201C080E237FD8DE2A6
:102CC000B70190E00E94DE16A51438F4B70180E346
:102CD00090E00E94DE165A94F7CFAA94F401EA0D10
:102CE000F11D8081B70190E00E94DE16A110F5CFA2
:102CF000332009F451CEB70180E290E00E94DE1645
:102D00003A94F6CFF7018681978102C08FEF9FEF4B
:102D10002C96E2E10C9493170F931F93CF93DF93BC
:102D2000869F8001879F100D969F100D1124C8016A
:102D30000E942813EC01009729F0A80160E070E0E0
:102D40000E94BC16CE01DF91CF911F910F91089583
:102D500091110C947417803219F089508550C8F77E
:102D60000895FC010590615070400110D8F78095DE
:102D700090958E0F9F1F0895DC0101C06D93415007
:102D80005040E0F70895FC0161507040019001103F
:102D9000D8F7809590958E0F9F1F0895DC01FC0158
:102DA000672F71917723E1F7329704C07C916D937F
:102DB00070836291AE17BF07C8F308950F931F93F6
:102DC000CF93DF93FB01238121FD03C08FEF9FEFA2
:102DD00028C022FF16C046815781248135814217C1
:102DE000530744F4A081B1819D012F5F3F4F318390
:102DF00020838C93268137812F5F3F4F3783268333
:102E000010C0EB01092F182F0084F185E02D0995E2
:102E1000892BE1F68E819F8101969F838E83812F7E
:102E2000902FDF91CF911F910F910895FA01AA275A
:102E3000283051F1203181F1E8946F936E7F6E5FFD
:102E40007F4F8F4F9F4FAF4FB1E03ED0B4E03CD0AB
:102E5000670F781F891F9A1FA11D680F791F8A1F8E
:102E6000911DA11D6A0F711D811D911DA11D20D0F5
:102E700009F468943F912AE0269F11243019305DAF
:102E80003193DEF6CF010895462F4770405D4193A0
:102E9000B3E00FD0C9F7F6CF462F4F70405D4A33ED
:102EA00018F0495D31FD4052419302D0A9F7EACFB5
:102EB000B4E0A6959795879577956795BA95C9F7E4
:102EC00000976105710508959B01AC010A2E0694D7
:102ED0005795479537952795BA95C9F7620F731F90
:102EE000841F951FA01D08959927882708952F9264
:102EF0003F924F925F926F927F928F929F92AF928A
:102F0000BF92CF92DF92EF92FF920F931F93CF93D6
:102F1000DF93CDB7DEB7CA1BDB0B0FB6F894DEBF6D
:102F20000FBECDBF09942A88398848885F846E8493
:102F30007D848C849B84AA84B984C884DF80EE80DD
:102F4000FD800C811B81AA81B981CE0FD11D0FB6E6
:102F5000F894DEBF0FBECDBFED01089597FB072E9D
:102F600016F4009407D077FD09D00E94EA1707FCF9
:102F700005D03EF4909581959F4F08957095619589
:102F80007F4F0895A1E21A2EAA1BBB1BFD010DC0A5
:102F9000AA1FBB1FEE1FFF1FA217B307E407F50709
:102FA00020F0A21BB30BE40BF50B661F771F881FE5
:102FB000991F1A9469F760957095809590959B017B
:102FC000AC01BD01CF010895EE0FFF1F0590F491F4
:102FD000E02D0994AA1BBB1B51E107C0AA1FBB1F10
:102FE000A617B70710F0A61BB70B881F991F5A9595
:102FF000A9F780959095BC01CD010895A0E0B0E0BF
:10300000E4E0F8E10C947B17EC01009721F4CB018C
:103010000E942813B8C0FC01E60FF71F9C01225044
:103020003109E217F30708F4ACC0D9010D911C91E6
:10303000119706171707B0F00530110508F49FC067
:10304000C80104978617970708F499C00250110920
:10305000061B170B019311936D937C93CF010E9474
:10306000BD138DC05B01A01AB10A4C01800E911EE8
:10307000A0913805B091390540E050E0E12CF12CE9
:10308000109709F44AC0A815B905D1F56D907C9048
:103090001197630182E0C80ED11CCA14DB0480F1D1
:1030A000A3014A195B096A0182E0C80ED11C12967D
:1030B000BC9012971396AC91B5E0CB16D10440F0BA
:1030C000B282A38351834083D9016D937C930AC05C
:1030D0000E5F1F4FC301800F911FF9019183808301
:1030E000EB2DFA2FE114F10431F0D7011396FC9384
:1030F000EE93129744C0F0933905E09338053FC032
:103100008D919C9111974817590708F4AC017D01E6
:1031100012960D90BC91A02DB3CF80913605909161
:10312000370588159905E1F446175707C8F48091CB
:10313000000190910101009741F48DB79EB7409135
:10314000040150910501841B950BE817F907C8F499
:10315000F0933705E0933605F901718360830FC062
:10316000CB010E9428137C01009759F0A801BE01F1
:103170000E94CD18CE010E94BD13C70104C0CE012C
:1031800002C080E090E0CDB7DEB7EEE00C94971778
:1031900081E090E0F8940C940E19FB01DC0102C070
:1031A00001900D9241505040D8F70895FB01DC0189
:1031B00001900D920020E1F70895FB01DC014150E0
:1031C000504030F08D910190801919F40020B9F72A
:1031D000881B990B0895AEE0B0E0E1EFF8E10C94A4
:1031E00085170D891E8986E08C831A8309838FEFEA
:1031F0009FE79E838D83AE01475E5F4F6F89788D19
:10320000CE0101960E94BA142F813885F801E20F91
:10321000F31F10822E96E4E00C94A11710E0CFE883
:10322000D0E004C0FE010E94E4172196C039D10706
:06323000C9F7F894FFCF7E
:10323600000040058000000000002703BA00B50327
:1032460026037B0393030E03000000003B08B8032C
:1032560018000000000000000000E8FFE8FF000082
:103266000000000014000000000000000000ECFF59
:10327600ECFF000000000000000000004D01BA0055
:10328600E50094011601F400080100000000480959
:10329600BA00B503B403480948094809000000000C
:1032A6004809BA00B503B403060000000000BC03D9
:1032B600BE03FAFFFAFF0000BD03C00318000000BA
:1032C6000000DD03F403E8FFE8FF0000EA03FE0365
:1032D6009201260130019C01000000003C08BA035F
:1032E600D002CD02CA02C702C4023B023702340230
:1032F6001E023E02C201C0010200000000000A04D4
:103306000C04FEFFFEFF00000B040E04000000008C
:103316003E085604000000003D080804D002CD0215
:10332600CA02C702C402B8027202590240023E0231
:10333600B0048F041400000000002B044204ECFFCC
:10334600ECFF000038044C040A023A01440114025E
:103356007375726765732F746573742E7068700069
:10336600474554200047455420526571756573746E
:1033760020746578743A200020485454502F312E1A
:10338600310D0A00486F73743A200073796E6574C4
:103396002E73797465732E6E65740041542B434900
:1033A6005053454E443D003E0053656E64696E675A
:1033B6002E2E004461746120746F2073656E643A2A
:1033C600200044617461206C656E6774683A200061
:1033D60052657175657374206C656E6774683A2002
:1033E60000526571756573742053656E743A0053A7
:1033F600454E44204F4B005061636B6574207365E6
:103406006E740041542B434950434C4F5345004181
:10341600542B43495053544152543D225443502255
:103426002C222573222C38300053796E3132334EDC
:1034360045543738390053796E4E65740041542B24
:1034460043574A41505F4355523D222573222C2251
:103456002573220041542B43574A41503F004154A3
:103466002B434950535441545553002B43574A411B
:10347600503A004E6F2041503A004641494C0053A5
:1034860054415455533A32005354415455533A33E8
:1034960000434C4F534544004254004856005345A0
:1034A60054530053455400544C530054425A00415F
:1034B600434B0048563100535231004856320053B0
:0634C600523200415400E7
:00000001FF
