:100000000C9490000C94B8000C94B8000C944E081A
:100010000C944E080C944E080C94B8000C94B80044
:100020000C94B8000C94B8000C94B8000C94B80070
:100030000C94B8000C94B8000C94B8000C94B80060
:100040000C94600B0C94B8000C941F070C94F906E8
:100050000C94B8000C94B8000C94B8000C94B80040
:100060000C94B8000C94B800FF0DCB0ECB0E030E11
:100070001A0ECB0ECB0ECB0ECB0ECB0E6E0E2F0E62
:10008000440E590ECB0ECB0ECB0ECB0ECB0ECB0EA1
:10009000B40E870E9D0E41542B43574D4F44453DA2
:1000A000330053746174653A20000000000023009F
:1000B00026002900467265652052414D203D2000F2
:1000C00052656365697665643A200000000000248B
:1000D0000027002A0000000000250028002B000453
:1000E00004040404040404020202020202030303DF
:1000F00003030301020408102040800102040810D9
:100100002001020408102000000008000201000085
:10011000030407000000000000000000D4119C113F
:1001200011241FBECFEFD8E0DEBFCDBF13E0A0E0AB
:10013000B1E0E0EEF1E302C005900D92AC39B107F9
:10014000D9F725E0ACE9B3E001C01D92A434B207B1
:10015000E1F710E0CFE8D0E004C02197FE010E9453
:10016000B917CE38D107C9F70E94AA0B0C94E3182F
:100170000C940000CF92DF92EF92FF920F931F93A7
:10018000CF93DF936C017A018B01C0E0D0E0CE15F4
:10019000DF0589F0D8016D918D01D601ED91FC91BB
:1001A0000190F081E02DC6010995892B11F47E01A3
:1001B00002C02196ECCFC701DF91CF911F910F9123
:1001C000FF90EF90DF90CF900895FC01538D448D08
:1001D000252F30E0842F90E0821B930B541710F0F2
:1001E000CF96089501970895FC01918D828D9817FF
:1001F00061F0828DDF01A80FB11D5D968C91928D0B
:100200009F5F9F73928F90E008958FEF9FEF089507
:10021000FC01918D828D981731F0828DE80FF11DD0
:10022000858D90E008958FEF9FEF0895FC01918DEB
:10023000228D892F90E0805C9F4F821B91098F73E4
:100240009927089588EE93E00E94160121E0892BFA
:1002500009F420E0822F0895FC01848DDF01A80FAE
:10026000B11DA35ABF4F2C91848D90E001968F73DE
:100270009927848FA689B7892C93A089B1898C91FD
:1002800080648C93938D848D981306C00288F389C3
:10029000E02D80818F7D80830895EF92FF920F93F0
:1002A0001F93CF93DF93EC0181E0888F9B8D8C8D22
:1002B000981305C0E889F989808185FD24C0F62E50
:1002C0000B8D10E00F5F1F4F0F731127E02E8C8DE9
:1002D000E8120CC00FB607FCFACFE889F9898081D3
:1002E00085FFF5CFCE010E942C01F1CF8B8DFE0151
:1002F000E80FF11DE35AFF4FF0820B8FEA89FB896B
:100300008081806207C0EE89FF896083E889F9896E
:1003100080818064808381E090E0DF91CF911F91A4
:100320000F91FF90EF900895CF93DF93EC01888DAC
:100330008823C9F0EA89FB89808185FD05C0A889E9
:10034000B9898C9186FD0FC00FB607FCF5CF80816F
:1003500085FFF2CFA889B9898C9185FFEDCFCE01B9
:100360000E942C01E7CFDF91CF91089580E090E0CB
:10037000892B29F00E94220181110C94000008951C
:10038000CB0108957F928F929F92AF92BF92CF92AE
:10039000DF92EF92FF920F931F93CF93DF93EC01C5
:1003A00049015A018B01C12CD12C7601C814D90402
:1003B000EA04FB0484F5F80171908F018F8580FFBA
:1003C0000BC0E881F9810084F185E02D20E144E053
:1003D00060E070E0CE010995EB85FC858D859E85FA
:1003E000E817F90738F470828B859C8501969C8705
:1003F0008B870BC0E881F981672D70E0028CF38D4B
:10040000E02DCE010995019649F02FEFC21AD20ACC
:10041000E20AF20ACBCFB401C50102C0B601C7019E
:10042000DF91CF911F910F91FF90EF90DF90CF90D0
:10043000BF90AF909F908F907F900895CF93DF9360
:10044000EC01E881F9810288F389E02D09958F3F5D
:100450002FEF920731F02D813E812F5F3F4F3E837A
:100460002D83DF91CF9108958FEF9FEF089560E086
:1004700070E0CB01089580E090E00895CB010895ED
:10048000CF93DF93EC0188899989DC01ED91FC9190
:100490000084F185E02D0995892BA9F38889998934
:1004A000DC01ED91FC910284F385E02DDF91CF9189
:1004B0000994CF93DF93EC0188899989DC01ED9150
:1004C000FC910084F185E02D0995892BA9F3888999
:1004D0009989DC01ED91FC910484F585E02DDF9193
:1004E000CF910994AF92BF92CF92DF92EF92FF9299
:1004F0000F931F93CF93DF9300D000D0CDB7DEB71B
:100500008C015B01C12CD12C7601F8018089918985
:10051000DC01ED91FC910284F385E02D29833A837F
:100520004B835C83099529813A814B815C818F3FA4
:1005300071F0C216D306E406F5064CF4D5018D938E
:100540005D01BFEFCB1ADB0AEB0AFB0ADECFC70166
:10055000B6010F900F900F900F90DF91CF911F91E8
:100560000F91FF90EF90DF90CF90BF90AF900895E4
:10057000DC0150968D919C915197DC01ED91FC919D
:100580000084F185E02D099480E090E0089580E0FA
:1005900090E0089580E090E0089580E090E0089574
:1005A0000895CF93DF93C091E603D091E703E881EC
:1005B000F9810084F185E02DCE010995892BB9F3ED
:1005C000E881F9810284F385E02DCE01DF91CF919E
:1005D00009941F93CF93DF93182FC091E603D09116
:1005E000E7038A3041F4E881F9810190F081E02D40
:1005F0006DE0CE010995E881F9810190F081E02D4F
:10060000612FCE01099521E030E0019711F420E03F
:1006100030E0C901DF91CF911F9108952091DE0351
:100620003091DF032817390771F49091DC03809132
:10063000DD03981741F0E091DC03F0E0E456FC4F55
:10064000808190E008958FEF9FEF089508951F93A4
:10065000CF93DF93DC015C962D913C915D97211542
:10066000310539F481E090E013969C938E931297B4
:100670003DC05196ED91FC91529750969C915097A8
:10068000892F80951FB75E964C915E9741FB772727
:1006900070F941FD6095F8944081772311F0492B62
:1006A00001C048234083E9012197F1F748E05081D8
:1006B00060FF02C0592B01C058235083E9012197E4
:1006C000F1F76695415099F7772321F090818923BE
:1006D000808303C08081982B90831FBF5C968D918F
:1006E0009C915D970197F1F721E030E0C901DF911E
:1006F000CF911F9108952091DE033091DF032817D9
:10070000390771F48091DD032091DC0390E0805C77
:100710009F4F821B910960E470E00E948317089547
:1007200080E090E008952091DE033091DF032817E8
:100730003907B9F49091DC038091DD03981789F0B3
:10074000E091DC03F0E0E456FC4F80812091DC0373
:1007500030E02F5F3F4F2F7333272093DC0390E06F
:1007600008958FEF9FEF0895089580E090E0089539
:100770000E949D180F931F93CF93DF93EC01888104
:100780009981009729F02A813B812617370788F441
:100790008B016F5F7F4F0E94D317009761F09983A1
:1007A00088831B830A832C813D81232B11F4FC0158
:1007B000108281E001C080E0DF91CF911F910F9105
:1007C00008950C9492130C949213089508950C9428
:1007D0009213DC01ED91FC91369720813181820FDB
:1007E000931F0C94E703FB0120813181FC013183CD
:1007F0002083FB0142815381F901369720813181A9
:10080000FC01E20FF31F51834083089522E931E098
:10081000FC01318320832CE931E0318F208F62EAA3
:1008200071E00C94F303DC01ED91FC91369720818B
:100830003181820F931F0C940604CF93DF93EC0158
:100840000E940604CE01DF91CF910C949213DC013B
:10085000ED91FC91369720813181820F931F0C948A
:100860001D040C949213089508950C949213DC01C6
:10087000ED91FC91369720813181820F931F0C946A
:100880003504FB0120813181FC0131832083FB0190
:1008900042815381F901369720813181FC01E20FB9
:1008A000F31F5183408308952AE032E0FC01318335
:1008B000208324E132E0358B248B6AE172E00C94D2
:1008C0004104DC01ED91FC91369720813181820F4A
:1008D000931F0C945404CF93DF93EC010E945404B3
:1008E000CE01DF91CF910C949213DC01ED91FC913C
:1008F000369720813181820F931F0C946B040C94E6
:100900009213EF92FF920F931F93CF93DF93FC010B
:10091000248135816115710511F480E019C04115FC
:100920005105A9F07B01EC018A01020F131FB801E8
:100930000E94BA03882389F3288139818C819D81A3
:10094000B701820F931F0E94AB181D830C8381E0B7
:10095000DF91CF911F910F91FF90EF900895CF936A
:10096000DF93EC0188819981009711F00E94921326
:10097000198218821D821C821B821A82DF91CF91FC
:100980000895CF93DF93EC016115710561F0FB01D0
:1009900001900020E9F73197AF01461B570B0E94E9
:1009A0008104811103C0CE010E94AF04CE01DF910A
:1009B000CF910895EF92FF920F931F93CF93DF9300
:1009C000EC01FB0186179707B9F000811181011531
:1009D000110539F0E480F580B7010E94BA03811156
:1009E00004C0CE010E94AF0407C0FD82EC82B801B2
:1009F000888199810E94AB18CE01DF91CF911F9120
:100A00000F91FF90EF900895FC01808191810C94EB
:100A10009213EF92FF920F931F93CF93DF93EC010A
:100A2000198218821B821A821D821C82611571052F
:100A300021F18B01FB0101900020E9F731977F0143
:100A4000E61AF70AB7010E94BA03811109C0CE0164
:100A5000DF91CF911F910F91FF90EF900C94AF0415
:100A6000FD82EC82B80188819981DF91CF911F913D
:100A70000F91FF90EF900C94AB18DF91CF911F91E5
:100A80000F91FF90EF9008950F931F93CF93DF93F3
:100A9000EC010E94540B688779878A879B87E881DD
:100AA000F9810284F385E02DCE01099597FF17C0E7
:100AB0000E94540B088519852A853B85DC01CB01F2
:100AC000801B910BA20BB30B0C811D812E813F81EA
:100AD00080179107A207B30710F38FEF9FEFDF9105
:100AE000CF911F910F910895AF92BF92CF92DF9255
:100AF000EF92FF920F931F93CF93DF93FB0101902F
:100B00000020E9F731978F01061B170B19F420E03D
:100B100030E04FC0EB016C01E12CF12CC6010E94CA
:100B2000440597FD44C0FE01EE0DFF1D2081022EFD
:100B3000000C330B8217930799F1E114F10421F4AF
:100B400020E030E07901EACF9701A9014150510935
:100B5000FE01E40FF51F6081062E000C770B86174F
:100B60009707D1F44115510569F3DE01F701E41B44
:100B7000F50BEC0FFD1F60E070E0AD90B190AB1491
:100B800029F064177507F1F29A01DFCF6F5F7F4F8D
:100B90006417750790F3F5CF41155105A9F7D0CF2C
:100BA00097012F5F3F4F2017310761F6B0CF2FEF2E
:100BB0003FEF81E0232B09F080E0DF91CF911F917F
:100BC0000F91FF90EF90DF90CF90BF90AF9008957E
:100BD000DC01ED91FC910190F081E02D09940F93DF
:100BE0001F93CF93DF938C01EB016F3F8FEF78075B
:100BF00019F480E090E00FC06A3031F46DE0F80144
:100C0000808991890E94E8056C2FF801808991897B
:100C10000E94E805CE01DF91CF911F910F910895B9
:100C20008F929F92BF92CF92DF92EF92FF920F939B
:100C30001F93CF93DF9300D000D0CDB7DEB78C01E8
:100C40004B01C12CD12C7601C216D306E406F50661
:100C500044F5F401B1904F01FAE0BF120EC06DE00F
:100C6000F8018089918929833A834B835C830E94B0
:100C7000E8055C814B813A8129816B2DF8018089DF
:100C8000918929833A834B835C830E94E805FFEFB7
:100C9000CF1ADF0AEF0AFF0A5C814B813A81298172
:100CA000D3CFCA01B9010F900F900F900F90DF9131
:100CB000CF911F910F91FF90EF90DF90CF90BF9059
:100CC0009F908F900895EF92FF920F931F93CF9371
:100CD000DF938C017B01C0E0D0E0F701EC0FFD1F3A
:100CE0006491662361F0D801ED91FC910190F0814F
:100CF000E02DC8010995892B11F02196EECFCE0188
:100D0000DF91CF911F910F91FF90EF9008956115A2
:100D1000710579F0FB0101900020E9F73197AF01EF
:100D2000461B570BDC01ED91FC910280F381E02D15
:100D3000099480E090E008954F925F926F927F92C5
:100D4000EF92FF920F931F93CF93DF93CDB7DEB750
:100D5000A1970FB6F894DEBF0FBECDBF7C01FA019C
:100D6000CB0119A2223008F42AE08E010F5D1F4F3B
:100D7000422E512C612C712CBF01A30192010E94C3
:100D80009717F901CA01015011096A3014F4605D26
:100D900001C0695CD8016C93232B242B252B61F7B0
:100DA000B801C7010E948706A1960FB6F894DEBF6E
:100DB0000FBECDBFDF91CF911F910F91FF90EF90AC
:100DC0007F906F905F904F9008950F931F93CF93F4
:100DD000DF93EC010E9487068C0168EE72E0CE0181
:100DE0000E948706800F911FDF91CF911F910F9175
:100DF00008951F920F920FB60F9211242F933F93D5
:100E00004F935F936F937F938F939F93AF93BF9312
:100E1000EF93FF9388EE93E00E942C01FF91EF91F6
:100E2000BF91AF919F918F917F916F915F914F9102
:100E30003F912F910F900FBE0F901F9018951F920A
:100E40000F920FB60F9211242F938F939F93EF93CE
:100E5000FF93E091F803F091F9038081E091FE03A4
:100E6000F091FF0382FD12C09081809101048F5F99
:100E70008F7320910204821751F0E0910104F0E099
:100E8000E851FC4F958F8093010401C08081FF9150
:100E9000EF919F918F912F910F900FBE0F901F9008
:100EA00018950F931F93CF93DF93EB0109900020C8
:100EB000E9F72197C61BD70BFC0104811581AE0110
:100EC0000C171D0708F4A801FC01808191810E9484
:100ED000B218009769F481E090E0C017D10740F0A4
:100EE0000C171D0710F080E090E091958195910915
:100EF000DF91CF911F910F910895CF93DF93FC0164
:100F000027892617C9F0EC01678B62EA70E088EE4A
:100F100093E00E9463064F8950E060E070E02AE0B1
:100F200088EE93E00E949C0668EE72E088EE93E003
:100F30000E94870681E001C080E0DF91CF91089593
:100F4000EF92FF920F931F93CF93DF93CDB7DEB74E
:100F5000C054D1090FB6F894DEBF0FBECDBF8C01CF
:100F600080E292E09F938F938DE292E09F938F9324
:100F7000CE0101967C019F938F930E94C018B70108
:100F8000F801828193810E94E50666E1C8010E9412
:100F90007D070E94540BF801658F768F878F90A391
:100FA0000F900F900F900F900F900F90C05CDF4F3D
:100FB0000FB6F894DEBF0FBECDBFDF91CF911F916A
:100FC0000F91FF90EF900895EF92FF920F931F9370
:100FD000CF93DF93CDB7DEB7C054D1090FB6F894E5
:100FE000DEBF0FBECDBF8C0187E492E09F938F934D
:100FF00080E592E09F938F9381E692E09F938F9399
:10100000CE0101967C019F938F930E94C018B70177
:10101000F801828193810E94E5066CE0C8010E947C
:101020007D070E94540BF801658F768F878F90A300
:101030000FB6F894DEBF0FBECDBFC05CDF4F0FB65A
:10104000F894DEBF0FBECDBFDF91CF911F910F91FE
:10105000FF90EF9008950F931F93CF93DF93EC01D0
:101060000A811B8166E970E0C8010E94630668EE90
:1010700072E0C8010E9487060E94540B6D8F7E8F1C
:101080008F8F98A363E0CE01DF91CF911F910F91D5
:101090000C947D0708950895089508951F920F9266
:1010A0000FB60F9211242F933F934F935F936F933B
:1010B0007F938F939F93AF93BF93EF93FF93E091B1
:1010C000DE03F091DF03309709F451C0968DA685B9
:1010D000B785858591FF04C09C91892329F447C079
:1010E0009C91892309F043C0A389B4899C91858987
:1010F000809589238C93868997890197F1F7608D74
:10110000718DA685B785558538E020E0CB01019724
:10111000F1F7822F90E095958795282F4C914523E4
:1011200009F02068315091F7868D81FD20958091DE
:10113000DD0390E001968F7399273091DC03381717
:1011400049F0A091DD03B0E0A456BC4F2C938093EE
:10115000DD0303C0868D8160868F828D938D01971C
:10116000F1F7A389B4899C918589892B8C93FF9190
:10117000EF91BF91AF919F918F917F916F915F910F
:101180004F913F912F910F900FBE0F901F90189588
:101190000F931F93CF93DF93EC01CB01088119814B
:1011A0007B836A830E94FD129983888320E030E06C
:1011B0008C819D812817390770F4E881F981E20F4D
:1011C000F31F309729F0D801A20FB31F8C918083B1
:1011D0002F5F3F4FEDCFC801DF91CF911F910F914E
:1011E0000C949213FC01808191810C949213CF9204
:1011F000DF92EF92FF920F931F93FB01DC0100E05F
:1012000010E098016A01E12CF12C0C151D052E054A
:101210003F0538F461916D930F5F1F4F2F4F3F4F84
:10122000F4CF840F951F1F910F91FF90EF90DF90E7
:10123000CF900895CF92DF92EF92FF920F931F937A
:10124000CF93DF931F92CDB7DEB77C016B0188E0AF
:1012500090E0F70193838283158214820E94FD122D
:10126000F70191838083C114D104B9F0F601019094
:101270000020E9F731978F010C191D091982AE0181
:101280004F5F5F4FB801C7010E945709A801B6011F
:10129000F701808191810E94F7080F90DF91CF9133
:1012A0001F910F91FF90EF90DF90CF900895EF92F4
:1012B000FF920F931F93CF93DF93EC018C819D815D
:1012C0008617970710F57A018B018A819B81861713
:1012D000970740F4685F7F4F8617970718F4CE0191
:1012E0000E94C8088C819D818017910758F4E8817D
:1012F000F981E80FF91F309719F0D7012C9120835D
:101300000196F2CF1D830C8305C06817790710F48E
:101310007D836C83DF91CF911F910F91FF90EF90B0
:101320000895CF93DF93FC014481558160817181E1
:1013300088EE93E00E94BA00EC0168EE72E088EE5D
:1013400093E00E9487068C0F9D1FDF91CF91089537
:101350000F931F93CF93DF93EC01AB0160E070E03C
:101360002AE00E949C068C0168EE72E0CE010E9489
:101370008706800F911FDF91CF911F910F910895E4
:101380003FB7F8948091360590913705A0913805C4
:10139000B091390526B5A89B05C02F3F19F00196DD
:1013A000A11DB11D3FBFBA2FA92F982F8827820FEB
:1013B000911DA11DB11DBC01CD0142E0660F771F3B
:1013C000881F991F4A95D1F708955F926F927F9277
:1013D0008F929F92AF92BF92CF92DF92EF92FF9245
:1013E0000F931F93CF93DF93CDB7DEB760970FB600
:1013F000F894DEBF0FBECDBF5C01AE01405F5F4F12
:10140000CE0108960E941A098C859D85F501E4801D
:10141000F580E816F90618F40FEF1FEF68C0970182
:10142000281B390BF90131967F0100E010E088E0BC
:10143000882E912C0E151F0579F38C859D85F5015D
:10144000648075806016710610F40E949D18601A01
:10145000710A8615970508F43C01F501C080D1801A
:10146000C00ED11E9C828B821E821D8288E090E07D
:101470000E94FD129A838983FFEF6F167F0629F37E
:10148000F6018081181684F41F86AE01415F5F4F1C
:10149000B301CE0101960E9457094D815E81B601CC
:1014A00089819A810E94F7086C847D84CD80DE80DA
:1014B000A6016C147D0408F4A30169817A818885F2
:1014C00099850E94B218892B41F4C614D70428F0DC
:1014D000552453946C147D0408F4512CCE010196CC
:1014E0000E94F208511003C00F5F1F4FA3CFCE011F
:1014F00008960E94F208C80160960FB6F894DEBF05
:101500000FBECDBFDF91CF911F910F91FF90EF9054
:10151000DF90CF90BF90AF909F908F907F906F9013
:101520005F90089590E0FC01E95FFE4F3491FC016B
:10153000ED50FF4F2491FC01E152FF4FE491EE2367
:1015400009F43BC0332339F1333091F038F43130B2
:10155000A9F0323001F584B58F7D12C0373091F09B
:101560003830A1F03430B9F4809180008F7D03C011
:10157000809180008F77809380000DC084B58F7735
:1015800084BD09C08091B0008F7703C08091B00006
:101590008F7D8093B000F0E0EE0FFF1FEB52FF4F06
:1015A000A591B4918FB7F894EC91611103C0209587
:1015B0002E2301C02E2B2C938FBF0895CF93DF9342
:1015C00090E0FC01ED50FF4F2491FC01E152FF4FF0
:1015D0008491882361F190E0880F991FFC01E55305
:1015E000FF4FC591D491FC01EB52FF4FA591B491EF
:1015F000611109C09FB7F894888120958223888360
:10160000EC912E230BC0623061F49FB7F8943881BF
:10161000822F809583238883EC912E2B2C939FBF60
:1016200006C08FB7F894E8812E2B28838FBFDF91F7
:10163000CF9108958F929F92AF92BF92CF92DF92F7
:10164000EF92FF926B017C010E94C0094B015C018B
:10165000C114D104E104F104F1F00E94C009DC01DD
:10166000CB0188199909AA09BB09883E9340A105B5
:10167000B10570F321E0C21AD108E108F10888EE43
:10168000880E83E0981EA11CB11CC114D104E10492
:10169000F10419F7DDCFFF90EF90DF90CF90BF906E
:1016A000AF909F908F9008952FB7F8946091320576
:1016B0007091330580913405909135052FBF0895C1
:1016C0001F920F920FB60F9211242F933F938F9377
:1016D0009F93AF93BF938091320590913305A09172
:1016E0003405B09135053091310523E0230F2D37B6
:1016F00020F40196A11DB11D05C026E8230F029616
:10170000A11DB11D209331058093320590933305BF
:10171000A0933405B0933505809136059091370537
:10172000A0913805B09139050196A11DB11D809396
:10173000360590933705A0933805B0933905BF91CE
:10174000AF919F918F913F912F910F900FBE0F906E
:101750001F901895CF93DF93CDB7DEB7E6970FB6FE
:10176000F894DEBF0FBECDBF789484B5826084BD8F
:1017700084B5816084BD85B5826085BD85B5816095
:1017800085BD80916E00816080936E001092810013
:1017900080918100826080938100809181008160CE
:1017A000809381008091800081608093800080918F
:1017B000B10084608093B1008091B000816080931B
:1017C000B00080917A00846080937A0080917A00E2
:1017D000826080937A0080917A00816080937A00A1
:1017E00080917A00806880937A001092C10061E055
:1017F00085E00E94DE0A61E087E00E94DE0A61E087
:1018000086E00E94DE0AE091F803F091F90382E09D
:101810008083E091F403F091F5031082E091F603E8
:10182000F091F70380E1808310920004E091FC03C3
:10183000F091FD0386E08083E091FA03F091FB03D1
:10184000808180618083E091FA03F091FB038081C5
:1018500088608083E091FA03F091FB0380818068C7
:101860008083E091FA03F091FB0380818F7D808378
:1018700061E085E00E94920A61E087E00E94920A9E
:1018800061E086E00E94920A6AEF70E080E090E0FA
:101890000E941A0B60E085E00E94920A60E087E0F7
:1018A0000E94920A60E086E00E94920A82E290E042
:1018B0000E94FD127C018CE191E0D7018D939C93F5
:1018C0008FE190E00E94FD128C01FC0113821282D4
:1018D00088EE93E0A0E0B0E084839583A683B7838D
:1018E0008AE091E091838083178A168A118E108E88
:1018F000138E128E158E148E668D6E7F6D7F668FA1
:101900006695617081E0682783E00E94920A61E039
:1019100083E00E94DE0AE6EFF0E0E491D801509601
:10192000EC93E2EEF0E0E491F0E0EE0FFF1FEB52FB
:10193000FF4F85919491F801928B818B60E082E05A
:101940000E94DE0AD8015E968C9181FD04C061E0A0
:1019500082E00E94920A82E0F8018487E5EFF0E0DD
:10196000E491D8011D96EC93E1EEF0E0E491F0E013
:10197000EE0FFF1FE655FF4F85919491F801978771
:101980008687D70113961C930E93129714961C9278
:10199000149755961C92559756961C9256975796A3
:1019A0001C92579758961C920E94540BF701618F16
:1019B000728F838F948F0E94540BD7015D966D9325
:1019C0007D938D939C93909791961C9264EB70E01D
:1019D00088EE93E00E94630680913A0590913B0562
:1019E000FE0131966F014F01881A990A092C000CEB
:1019F000AA08BB08B7FE0EC06DE288EE93E00E9415
:101A0000E80544275527BA01481959096A097B098D
:101A10002AE003C02AE0B501A40188EE93E00E9409
:101A20009C0668EE72E088EE93E00E948706F7015C
:101A30003596C701459611921192E817F907D9F723
:101A4000D7011296ED91FC911397138E128E118E81
:101A5000108E178A168A8DE991E0958F848F848580
:101A6000863108F04DC02DEB30E0378B268B2BE90B
:101A700031E0318F208F2CE231E0338F228F909133
:101A80006800883050F021E08E3008F420E081E0DA
:101A900001C0880F2A95EAF701C084E0892B809362
:101AA00068008485883038F08E3040F0863148F008
:101AB00020E030E008C02DE630E005C02BE630E045
:101AC00002C02CE630E0348B238B883030F491E078
:101AD00001C0990F8A95EAF70EC0282F30E08E30AA
:101AE00018F42850310902C02E50310991E001C08C
:101AF000990F2A95EAF7958B848D958D0197F1F7CB
:101B0000828D938D892B49F14091DE035091DF0343
:101B10004E175F0711F14115510571F0DA01539627
:101B20002D913C915497D9019C91DA0155968C9155
:101B300080958923D9018C93868D8E7F868F109214
:101B4000DD031092DC03F093DF03E093DE03A3894F
:101B5000B4899C918589892B8C93F092E103E09262
:101B6000E0030E94540B0091E2031091E3032091E3
:101B7000E4033091E503DC01CB01801B910BA20B48
:101B8000B30B803D9740A105B10554F00E94540B62
:101B90006093E2037093E3038093E4039093E5037F
:101BA0000091E0031091E1030E94540BD801599673
:101BB0008D909D90AD90BC905C97DC01CB01881915
:101BC0009909AA09BB09853F9140A105B10548F0D3
:101BD0000E94540BD80159966D937D938D939C93DD
:101BE0005C97D8015796EC918E2F90E08731910544
:101BF00008F0D1C0FC01EC5CFF4F0C94B917C80190
:101C00000E942B08C8C00E94540BF801858C968C4A
:101C1000A78CB0A0DC01CB0188199909AA09BB09DE
:101C2000813D9740A105B10508F4B5C0C8010E94E7
:101C30002B080BC068E772E0F801828193810E9453
:101C4000E5066BE0C8010E947D070E94540BD80195
:101C50005D966D937D938D939C9390979CC00E940D
:101C6000540BF801858C968CA78CB0A0DC01CB01BD
:101C700088199909AA09BB09893B9B40A105B105AF
:101C800008F489C06AE0DECF0E94540BF801858C0D
:101C9000968CA78CB0A0DC01CB0188199909AA0900
:101CA000BB09803E9E42A105B10508F474C06AE0FC
:101CB00057C062E872E0D80112968D919C911397FB
:101CC0000E94E50665E1C8010E947D070E94540B51
:101CD000F801658F768F878F90A35DC00E94540BAB
:101CE000D8015D968D909D90AD90BC909097DC0151
:101CF000CB0188199909AA09BB09803E9E42A1051A
:101D0000B10508F448C0C8010E94E40744C00E941D
:101D1000540BD8015D968D909D90AD90BC9090979E
:101D2000DC01CB0188199909AA09BB09883B9B40B2
:101D3000A105B10580F164E185CF0E94540BF80143
:101D4000858C968CA78CB0A0DC01CB0188199909F1
:101D5000AA09BB0980319742A105B105E0F064E111
:101D6000C8010E947D0717C00E94540BD8015D96E0
:101D70008D909D90AD90BC909097DC01CB0188191F
:101D80009909AA09BB09803A9F40A105B10518F03D
:101D9000C8010E94A007D80156968C9156978823B7
:101DA00029F014968C9181110E94540BF8018281C4
:101DB0009381DC01ED91FC910084F185E02D099582
:101DC000892B09F4B6C288E0A82EB12C96E4592ECE
:101DD000D80112968D919C911397DC01ED91FC91A5
:101DE0000084F185E02D0995181619060CF0A1C2A2
:101DF000F801E280F3806AEE72E0CE018E960E94D6
:101E00000905C7010E94440597FD0DC08A30910560
:101E100051F089831A8241E050E0B601CE018E96DE
:101E20000E948104EECF8EA49FA481149104F1F14D
:101E3000EAA8FBA8E114F104C9F114013101FFEF94
:101E40002F1A3F0AD3018C91082E000C990B0E9487
:101E50007D16892B99F7B1E0EB1AF108E80CF91C13
:101E6000D7018C91082E000C990B0E947D16892BAE
:101E700079F4A7014F5F5F4F461957095BAB4AAB37
:101E80008614970460F4B301C4010E94A21807C02D
:101E9000E614F70470F3E1E0EE1AF108E1CFEEA5E5
:101EA000FFA58AA99BA9E80FF91F10828AA99BA9FF
:101EB000892B09F439C26EA57FA5A601CE010F9624
:101EC0000E941A09BB86AA861D861C8688E090E0BF
:101ED0000E94FD12998788876B897C891EAAAE01B2
:101EE0004A5C5F4FCE0108960E9457094C855D857C
:101EF0006F857889888599850E94F70860EC70E085
:101F000088EE93E00E9463066C857D856F5F7F4F4E
:101F10008A859B858617970720F4CE0108960E9434
:101F2000C808E885F9858C859D85E80FF91F108222
:101F30006885798588EE93E00E94E506F801878937
:101F40008B3031F128F4882369F08330B1F0E4C19B
:101F5000853109F46BC0863109F49CC08C3009F0DE
:101F6000DBC14FC06BE473E0CE0108960E945107BD
:101F7000892B09F0D1C161E0CCC16BE473E0CE01E3
:101F800008960E945107892B09F0C6C164E0C1C1BF
:101F90006BE473E0CE0108960E945107892B59F437
:101FA000D80158968C918F3411F46DE001C06AE02D
:101FB000C8010E947D076FE872E0CE0108960E947A
:101FC000E509019669F060E572E0CE0108960E948D
:101FD000E509019611F08FE459C0F801508E9CC1BB
:101FE00067E972E0CE0108960E94E509019609F4BE
:101FF00093C16AE0C8010E947D07C8010E94E407FE
:102000008BC16BE473E0CE0108960E945107892BC7
:1020100011F46DE07EC16EE972E0CE0108960E9477
:10202000E509019609F478C16AE073C16BE473E0D5
:10203000CE0108960E945107892B91F4D801589639
:102040008C918253823028F467E1C8010E947D0799
:1020500007C064E1C8010E947D07C8010E94A00773
:1020600063EA72E0CE0108960E945107892B21F4A1
:1020700082E3F801808F50C16CEA72E0CE010896CD
:102080000E945107892B09F047C183E3D801589674
:102090008C9342C16BE473E0CE0108960E94510715
:1020A000892B09F02DC167E1C8010E947D076AEE06
:1020B00072E0CE0188960E94090565EB72E0CE01C0
:1020C00082960E94090567EC72E0CE014C960E9450
:1020D00009056CEC72E088EE93E00E94E5064C0185
:1020E0001F8A1E8A198E188E1B8E1A8EBE01645E80
:1020F0007F4FCE0146960E94DA044EA15FA16AA1ED
:102100007BA1CE0146960E948104811104C0CE01BC
:1021100046960E94AF046FED72E0CE0146960E9493
:10212000C1046BEE72E00E94C10460E272E00E94A2
:10213000C10468EE72E00E94C1047C014AE0B6016D
:10214000C4010E942A14F60101900020E9F731979A
:10215000AF014C195D09B601C7010E9481048111CC
:1021600003C0C7010E94AF04B701CE014C960E9484
:10217000DA04CE0146960E940405CE014C960E94D8
:10218000910962EF72E0CE0146960E940905F801BE
:1021900082819381DC01ED91FC914A8D5B8D6E898A
:1021A0007F890280F381E02D099568A179A1F8016A
:1021B000828193810E94A80968EE73E080E090E03C
:1021C0000E941A0B6EEF72E0D80112968D919C91CD
:1021D00013970E947405882309F481C060E073E0BE
:1021E00088EE93E00E94E506F80182819381DC018C
:1021F000ED91FC9148A159A16C8D7D8D0280F381F8
:10220000E02D09956AE073E088EE93E00E94E50610
:10221000CE0188960E94910969E173E088EE93E00F
:102220000E9487066CA57DA588EE93E00E94A80910
:1022300067E273E088EE93E00E94870668A179A1C7
:1022400088EE93E00E94A80968E373E088EE93E0CB
:102250000E94E506CE014C960E94910966E473E067
:10226000F801828193810E9474058823C1F16EE494
:1022700073E088EE93E00E94E506D80112968D91F6
:102280009C911397DC01ED91FC910084F185E02D88
:102290000995F801E280F380892BE1F06AEE72E0A3
:1022A000C6010E940905C7010E94440597FD0BC0A5
:1022B0008CAB1DAA41E050E0BE016C5C7F4FC601B3
:1022C0000E948104F0CFC6010E949109C6010E94BC
:1022D0000405D3CF6AE573E0C7010E94E506CE018D
:1022E00046960E940405CE014C960E940405CE013C
:1022F00082960E940405CE0188960E9404050CC0B7
:1023000066E673E0CE0108960E945107892B21F4FE
:1023100064E1C8010E947D07CE0108960E94F20880
:10232000CE010F960E94F208CE018E960E940405FF
:102330004FCD0E94B60115CC85E894E00E940604BA
:1023400083EB94E00E9454048DED94E00E94F20827
:1023500084EE94E00E94F2088BEE94E00E94F20872
:1023600082EF94E00E94F20889EF94E00E94F20864
:1023700080E095E00E94F20887E095E00E94F20874
:102380008EE095E00E94F20885E195E00E94F20857
:102390008CE195E00E94F20883E295E00E94F20849
:1023A0008AE295E00C94F2080F931F93CF93DF938A
:1023B0001F92CDB7DEB708EE13E0F8011382128248
:1023C00088EE93E0A0E0B0E084839583A683B78392
:1023D0008CE491E09183808385EC90E095878487FD
:1023E00084EC90E09787868780EC90E0918B808BDF
:1023F00081EC90E0938B828B82EC90E0958B848BC8
:1024000086EC90E0978B868B118E128E138E148E35
:10241000AE014F5F5F4F6DE673E08AE295E00E9488
:102420001A09AE014F5F5F4F60E773E083E295E00A
:102430000E941A09AE014F5F5F4F63E773E08CE1C2
:1024400095E00E941A09AE014F5F5F4F68E773E0A5
:1024500085E195E00E941A09AE014F5F5F4F6CE77E
:1024600073E08EE095E00E941A09AE014F5F5F4F66
:1024700060E873E087E095E00E941A09AE014F5FC3
:102480005F4F64E873E080E095E00E941A09AE01B6
:102490004F5F5F4F68E873E089EF94E00E941A098C
:1024A000AE014F5F5F4F6CE873E082EF94E00E94F3
:1024B0001A09AE014F5F5F4F60E973E08BEE94E065
:1024C0000E941A09AE014F5F5F4F64E973E084EE2A
:1024D00094E00E941A09AE014F5F5F4F68E973E014
:1024E0008DED94E00E941A09E3EBF4E0A1E2B0E084
:1024F000B08FA78B118E128E138E46E050E060E0F5
:1025000070E0448F558F668F778F10A211A212A2B0
:1025100013A220E224A316A215A211A685EB94E033
:1025200090A787A38AE092E09183808384E192E080
:10253000958B848B168215821086178212861186DF
:102540001486138616861586108A178688EE91E003
:1025500093838283138B028B30E1318BE5E8F4E0C7
:10256000B48FA38F158E168E178E40A351A362A32E
:1025700073A314A215A216A217A220A712A611A631
:1025800015A612821382148215822BE834E034A738
:1025900023A722E931E0318320832CE931E0318F18
:1025A000208F128611861486138616861586108A49
:1025B0001786128A118A148A138A97838683178B47
:1025C000068B88E0858B1093E7030093E60361EDAB
:1025D00072E089EE92E00E9444140E94540B6093D2
:1025E000E2037093E3038093E4039093E5030F9079
:1025F000DF91CF911F910F910895CF93DF93823098
:10260000910510F482E090E0E0913C05F0913D05E9
:1026100020E030E0C0E0D0E0309711F140815181FE
:1026200048175907C0F04817590761F48281938110
:10263000209719F09B838A832BC090933D0580934C
:102640003C0526C02115310519F04217530718F42F
:102650009A01BE01DF01EF010280F381E02DDCCFA2
:102660002115310509F1281B390B2430310590F46F
:1026700012968D919C9113976115710521F0FB01C4
:102680009383828304C090933D0580933C05FD01B4
:10269000329644C0FD01E20FF31F819391932250C3
:1026A00031092D933C933AC020913A0530913B0576
:1026B000232B41F4209102013091030130933B051B
:1026C00020933A0520910001309101012115310537
:1026D00041F42DB73EB74091040150910501241BF0
:1026E000350BE0913A05F0913B05E217F307A0F4B2
:1026F0002E1B3F0B2817390778F0AC014E5F5F4F58
:102700002417350748F04E0F5F1F50933B05409349
:102710003A058193919302C0E0E0F0E0CF01DF91B0
:10272000CF9108950F931F93CF93DF93009709F4F0
:102730008CC0FC0132971382128200913C051091EB
:102740003D050115110581F420813181820F931F10
:1027500020913A0530913B052817390779F5F09318
:102760003B05E0933A0571C0D80140E050E0AE1758
:10277000BF0750F412962D913C911397AD0121158E
:10278000310509F1D901F3CF9D01DA0133832283A9
:1027900060817181860F971F8217930769F4EC019E
:1027A00028813981260F371F2E5F3F4F31832083C9
:1027B0008A819B8193838283452B29F4F0933D0585
:1027C000E0933C0542C01396FC93EE931297ED0103
:1027D000499159919E01240F351FE217F30771F4B7
:1027E00080819181840F951F029611969C938E9300
:1027F0008281938113969C938E931297E0E0F0E090
:10280000D80112968D919C911397009719F0F801B9
:102810008C01F6CF8D919C9198012E5F3F4F820FD6
:10282000931F20913A0530913B052817390769F429
:10283000309729F410923D0510923C0502C0138296
:10284000128210933B0500933A05DF91CF911F91BF
:102850000F910895BB27FB015527AA27880F991FC1
:10286000AA1FA41710F0A41B83955051B9F7A05DBF
:10287000AA3308F0A95DA193009779F7B111B1933C
:102880001192CB010C94A3160F931F93CF93DF9358
:10289000009731F46115710519F480E090E03AC0B9
:1028A0008B01EC016EE070E081E090E00E94611627
:1028B000FC01892B91F380E883830115110571F0E8
:1028C0001387028781E8838380913E0590913F05BD
:1028D000892B21F4F0933F05E0933E052097C9F042
:1028E000D187C087838182608383809140059091E6
:1028F0004105892B71F4F0934105E09340058091E7
:10290000420590914305892B21F4F0934305E09310
:102910004205CF01DF91CF911F910F910895ACE057
:10292000B0E0E5E9F4E10C944C177C016B018A01FD
:10293000FC0117821682838181FFBDC1CE01019601
:102940004C01F7019381F60193FD859193FF8191ED
:102950006F01882309F4ABC1853239F493FD859169
:1029600093FF81916F01853229F4B70190E00E94B5
:10297000B316E7CF512C312C20E02032A0F48B325B
:1029800069F030F4803259F0833269F420612CC050
:102990008D3239F0803339F4216026C02260246002
:1029A00023C0286021C027FD27C030ED380F3A3002
:1029B00078F426FF06C0FAE05F9E300D1124532EF6
:1029C00013C08AE0389E300D1124332E20620CC0D3
:1029D0008E3221F426FD6BC1206406C08C3611F4C2
:1029E000206802C0883641F4F60193FD859193FF7B
:1029F00081916F018111C1CF982F9F7D95549330A4
:102A000028F40C5F1F4FFFE3F9830DC0833631F0CC
:102A1000833771F0833509F05BC022C0F8018081F3
:102A200089830E5F1F4F44244394512C540115C0D9
:102A30003801F2E06F0E711CF801A080B18026FF12
:102A400003C0652D70E002C06FEF7FEFC5012C87DA
:102A50000E9498162C0183012C852F77222E17C0F7
:102A60003801F2E06F0E711CF801A080B18026FFE2
:102A700003C0652D70E002C06FEF7FEFC5012C87AA
:102A80000E9486162C012C852068222E830123FCAF
:102A90001BC0832D90E048165906B0F4B70180E2C0
:102AA00090E00E94B3163A94F4CFF50127FC85918B
:102AB00027FE81915F01B70190E00E94B3163110AB
:102AC0003A94F1E04F1A51084114510471F7E5C0EE
:102AD000843611F0893639F5F80127FF07C0608187
:102AE0007181828193810C5F1F4F08C06081718169
:102AF000072E000C880B990B0E5F1F4F2F76722E3E
:102B000097FF09C090958095709561957F4F8F4F85
:102B10009F4F2068722E2AE030E0A4010E94EB163D
:102B2000A82EA81844C0853729F42F7EB22E2AE09B
:102B300030E025C0F22FF97FBF2E8F36C1F018F498
:102B4000883579F0B4C0803719F0883721F0AFC0EC
:102B50002F2F2061B22EB4FE0DC08B2D8460B82EB5
:102B600009C024FF0AC09F2F9660B92E06C028E036
:102B700030E005C020E130E002C020E132E0F801A1
:102B8000B7FE07C060817181828193810C5F1F4F06
:102B900006C06081718180E090E00E5F1F4FA4014C
:102BA0000E94EB16A82EA818FB2DFF777F2E76FE2D
:102BB0000BC0372D3E7FA51450F474FE0AC072FC82
:102BC00008C0372D3E7E05C0BA2C372D03C0BA2C65
:102BD00001C0B52C34FF0DC0FE01EA0DF11D80814E
:102BE000803311F4397E09C032FF06C0B394B39428
:102BF00004C0832F867809F0B39433FD13C030FFEF
:102C000006C05A2CB31418F4530C5B18B32CB3142D
:102C100068F4B70180E290E03C870E94B316B39459
:102C20003C85F5CFB31410F43B1801C0312C34FFB0
:102C300012C0B70180E390E03C870E94B3163C8548
:102C400032FF17C031FD03C088E790E002C088E57D
:102C500090E0B7010CC0832F867859F031FF02C095
:102C60008BE201C080E237FD8DE2B70190E00E9467
:102C7000B316A51438F4B70180E390E00E94B316B0
:102C80005A94F7CFAA94F401EA0DF11D8081B7019F
:102C900090E00E94B316A110F5CF332009F451CE75
:102CA000B70180E290E00E94B3163A94F6CFF701A4
:102CB0008681978102C08FEF9FEF2C96E2E10C9402
:102CC00068170F931F93CF93DF93869F8001879F91
:102CD000100D969F100D1124C8010E94FD12EC01E9
:102CE000009729F0A80160E070E00E949116CE01E3
:102CF000DF91CF911F910F91089591110C94491775
:102D0000803219F089508550C8F70895FC0105906C
:102D1000615070400110D8F7809590958E0F9F1FDD
:102D20000895DC0101C06D9341505040E0F70895D3
:102D3000FC016150704001900110D8F7809590958A
:102D40008E0F9F1F0895DC01FC01672F719177237F
:102D5000E1F7329704C07C916D9370836291AE1756
:102D6000BF07C8F308950F931F93CF93DF93FB0121
:102D7000238121FD03C08FEF9FEF28C022FF16C0E3
:102D800046815781248135814217530744F4A0813D
:102D9000B1819D012F5F3F4F318320838C9326812A
:102DA00037812F5F3F4F3783268310C0EB01092FF8
:102DB000182F0084F185E02D0995892BE1F68E818D
:102DC0009F8101969F838E83812F902FDF91CF91DA
:102DD0001F910F910895FA01AA27283051F120314F
:102DE00081F1E8946F936E7F6E5F7F4F8F4F9F4F9F
:102DF000AF4FB1E03ED0B4E03CD0670F781F891FE1
:102E00009A1FA11D680F791F8A1F911DA11D6A0FAE
:102E1000711D811D911DA11D20D009F468943F9161
:102E20002AE0269F11243019305D3193DEF6CF0160
:102E30000895462F4770405D4193B3E00FD0C9F726
:102E4000F6CF462F4F70405D4A3318F0495D31FD93
:102E50004052419302D0A9F7EACFB4E0A6959795E6
:102E6000879577956795BA95C9F7009761057105BC
:102E700008959B01AC010A2E069457954795379506
:102E80002795BA95C9F7620F731F841F951FA01D60
:102E900008959927882708952F923F924F925F9225
:102EA0006F927F928F929F92AF92BF92CF92DF925A
:102EB000EF92FF920F931F93CF93DF93CDB7DEB7BF
:102EC000CA1BDB0B0FB6F894DEBF0FBECDBF099453
:102ED0002A88398848885F846E847D848C849B84AA
:102EE000AA84B984C884DF80EE80FD800C811B81B8
:102EF000AA81B981CE0FD11D0FB6F894DEBF0FBEE7
:102F0000CDBFED01089597FB072E16F4009407D06E
:102F100077FD09D00E94BF1707FC05D03EF49095BD
:102F200081959F4F0895709561957F4F0895A1E217
:102F30001A2EAA1BBB1BFD010DC0AA1FBB1FEE1F33
:102F4000FF1FA217B307E407F50720F0A21BB30B7E
:102F5000E40BF50B661F771F881F991F1A9469F7FA
:102F600060957095809590959B01AC01BD01CF0156
:102F70000895EE0FFF1F0590F491E02D0994AA1B10
:102F8000BB1B51E107C0AA1FBB1FA617B70710F054
:102F9000A61BB70B881F991F5A95A9F78095909586
:102FA000BC01CD010895A0E0B0E0E9EDF7E10C949B
:102FB0005017EC01009721F4CB010E94FD12B8C01C
:102FC000FC01E60FF71F9C0122503109E217F307BD
:102FD00008F4ACC0D9010D911C9111970617170781
:102FE000B0F00530110508F49FC0C801049786179A
:102FF000970708F499C002501109061B170B01939B
:1030000011936D937C93CF010E9492138DC05B014D
:10301000A01AB10A4C01800E911EA0913C05B091FE
:103020003D0540E050E0E12CF12C109709F44AC036
:10303000A815B905D1F56D907C901197630182E0D8
:10304000C80ED11CCA14DB0480F1A3014A195B0924
:103050006A0182E0C80ED11C1296BC90129713969A
:10306000AC91B5E0CB16D10440F0B282A38351837A
:103070004083D9016D937C930AC00E5F1F4FC3013B
:10308000800F911FF90191838083EB2DFA2FE114BA
:10309000F10431F0D7011396FC93EE93129744C0DC
:1030A000F0933D05E0933C053FC08D919C911197B5
:1030B0004817590708F4AC017D0112960D90BC9198
:1030C000A02DB3CF80913A0590913B0588159905C5
:1030D000E1F446175707C8F480910001909101016F
:1030E000009741F48DB79EB74091040150910501BE
:1030F000841B950BE817F907C8F4F0933B05E093A0
:103100003A05F901718360830FC0CB010E94FD1263
:103110007C01009759F0A801BE010E94A218CE01BF
:103120000E949213C70104C0CE0102C080E090E06B
:10313000CDB7DEB7EEE00C946C1781E090E0F89428
:103140000C94E318FB01DC0102C001900D92415088
:103150005040D8F70895FB01DC0101900D9200204A
:10316000E1F70895FB01DC014150504030F08D91B2
:103170000190801919F40020B9F7881B990B089564
:10318000AEE0B0E0E6ECF8E10C945A170D891E8928
:1031900086E08C831A8309838FEF9FE79E838D835C
:1031A000AE01475E5F4F6F89788DCE0101960E9418
:1031B0008F142F813885F801E20FF31F10822E96AD
:1031C000E4E00C94761710E0CFE8D0E004C0FE01F4
:1031D0000E94B9172196C039D107C9F7F894FFCFDB
:1031E000000044058000000000002703BA00B5037A
:1031F00026037B0393030E03000000004A08E1034B
:1032000018000000000000000000E8FFE8FF0000D8
:103210000000000014000000000000000000ECFFAF
:10322000ECFF000000000000000000004D01BA00AB
:10323000E50094011601F400080100000000B80345
:10324000BA00B503B403B803B803B8030000000024
:10325000B803BA00B503B403060000000000E5039C
:10326000E703FAFFFAFF0000E603E9031800000095
:10327000000006041D04E8FFE8FF00001304270413
:103280009201260130019C01000000004B08E3037D
:10329000D002CD02CA02C702C4023B023702340286
:1032A0001E023E02C201C001020000000000330401
:1032B0003504FEFFFEFF0000340437040000000068
:1032C0004D087F04000000004C083104D002CD02FC
:1032D000CA02C702C402B8027202590240023E0288
:1032E0001006EF0514000000000054046B04ECFF0E
:1032F000ECFF0000610475040A023A014401140263
:103300003139322E3136382E31312E350041542BA1
:1033100043495053544152543D22544350222C228D
:103320002573222C3830007240794C404E21210008
:10333000526179636170576946695F4472616D617A
:103340000041542B43574A41505F4355523D22257B
:1033500073222C222573220041542B43574A41509B
:103360003F0041542B434950535441545553002B73
:1033700043574A41503A004E6F2041503A0046416F
:10338000494C005354415455533A3200535441541C
:1033900055533A33007375726765726F6F6D2F679F
:1033A00065742E70687000474554200047455420CE
:1033B0005265717565737420746578743A200020C5
:1033C000485454502F312E310D0A00486F73743A0F
:1033D000200041542B43495053454E443D003E008C
:1033E00053656E64696E672E2E00446174612074AB
:1033F0006F2073656E643A200044617461206C65CF
:103400006E6774683A200052657175657374206C3C
:10341000656E6774683A2000526571756573742033
:1034200053656E743A0053454E44204F4B00506133
:10343000636B65742073656E740041542B4349506F
:10344000434C4F534500434C4F53454400425400B6
:10345000485600534554530053455400544C5300B0
:1034600054425A0041434B004856310053523100F8
:0C34700048563200535232004154000014
:00000001FF
