:100000000C9469010C9491010C9491010C94910150
:100010000C9491010C9491010C9491010C94910118
:100020000C9491010C9491010C9491010C94910108
:100030000C9491010C9491010C9491010C949101F8
:100040000C94B4100C9491010C942C0E0C94060E8C
:100050000C9491010C9491010C9491010C949101D8
:100060000C9491010C9491010D0A002030782530F8
:10007000327800255309203D000D0A0025303278E2
:100080000020307800255309203D0050415F4D414C
:10009000580050415F484947480050415F4C4F5716
:1000A0000050415F4D494E00313620626974730043
:1000B0003820626974730044697361626C6564001E
:1000C0006E524632344C30312B006E524632344C34
:1000D0003031003235304B42505300324D42505394
:1000E00000314D42505300526164696F20455252B5
:1000F0004F52005354415455530909203D20307844
:10010000253032782052585F44523D25782054588B
:100110005F44533D2578204D41585F52543D25782A
:100120002052585F505F4E4F3D25782054585F460F
:10013000554C4C3D25780D0A00504120506F776595
:100140007209203D2025530D0A00A1009A0092005B
:100150008B00435243204C656E67746809203D2034
:1001600025530D0A00B700B000A8004D6F64656C00
:100170000909203D2025530D0A00CA00C000446132
:100180007461205261746509203D2025530D0A00D9
:10019000E100DB00D30044594E50442F4645415402
:1001A00055524500434F4E464947090052465F535A
:1001B000455455500052465F43480900454E5F5232
:1001C000584144445200454E5F4141090052585F36
:1001D00050575F50302D360054585F414444520907
:1001E0000052585F414444525F50322D35005258FE
:1001F0005F414444525F50302D310000010203043E
:10020000051112131415160A0B0C0D0E0F52616412
:10021000696F204552524F5200526164696F20420B
:100220006567696E005D002C200020706172616D51
:10023000733A5B0020736F757263653A00206964DE
:100240003A00434D4420004578656375746520008D
:10025000467265652052414D203D20004D4153546A
:100260004552204F4B0052656365697665643A20BC
:100270000000000008000201000003040700000065
:1002800000000000005748495445206368616E67CC
:10029000650000000000250028002B000000000081
:1002A000240027002A0004040404040404040202B5
:1002B00002020202030303030303010204081020E5
:1002C00040800102040810200102040810209E173B
:1002D0007A1711241FBECFEFD8E0DEBFCDBF12E0EA
:1002E000A0E0B1E0EAEDFCE302C005900D92A23F70
:1002F000B107D9F724E0A2EFB2E001C01D92AA36FF
:10030000B207E1F711E0C8E6D1E004C02197FE0191
:100310000E94321EC736D107C9F70E943D110C94C6
:10032000601E0C94000008950895CB0108957F92FB
:100330008F929F92AF92BF92CF92DF92EF92FF92F5
:100340000F931F93CF93DF93EC0149015A018B0167
:10035000C12CD12C7601C814D904EA04FB0484F51D
:10036000F80171908F018F8580FF0BC0E881F981C2
:100370000084F185E02D20E144E060E070E0CE01F2
:100380000995EB85FC858D859E85E817F90738F47E
:1003900070828B859C8501969C878B870BC0E8813A
:1003A000F981672D70E0028CF38DE02DCE01099567
:1003B000019649F02FEFC21AD20AE20AF20ACBCF15
:1003C000B401C50102C0B601C701DF91CF911F91F1
:1003D0000F91FF90EF90DF90CF90BF90AF909F90E4
:1003E0008F907F900895CF93DF93EC01E881F9819E
:1003F0000288F389E02D09958F3F2FEF920731F0A6
:100400002D813E812F5F3F4F3E832D83DF91CF9122
:1004100008958FEF9FEF089560E070E0CB0108959D
:1004200080E090E00895CB010895CF93DF93EC0135
:1004300088899989DC01ED91FC910084F185E02D9A
:100440000995892BA9F388899989DC01ED91FC91A3
:100450000284F385E02DDF91CF910994CF93DF9350
:10046000EC0188899989DC01ED91FC910084F1858A
:10047000E02D0995892BA9F388899989DC01ED91F3
:10048000FC910484F585E02DDF91CF910994AF9222
:10049000BF92CF92DF92EF92FF920F931F93CF9371
:1004A000DF9300D000D0CDB7DEB78C015B01C12C4B
:1004B000D12C7601F80180899189DC01ED91FC91C4
:1004C0000284F385E02D29833A834B835C8309956D
:1004D00029813A814B815C818F3F71F0C216D3062E
:1004E000E406F5064CF4D5018D935D01BFEFCB1A00
:1004F000DB0AEB0AFB0ADECFC701B6010F900F90B3
:100500000F900F90DF91CF911F910F91FF90EF907F
:10051000DF90CF90BF90AF900895DC0150968D9101
:100520009C915197DC01ED91FC910084F185E02DC7
:10053000099480E090E0089580E090E0089580E0E4
:1005400090E0089580E090E008950895CF93DF93C0
:10055000C0912903D0912A03E881F9810084F185B3
:10056000E02DCE010995892BB9F3E881F981028448
:10057000F385E02DCE01DF91CF9109941F93CF93A6
:10058000DF93182FC0912903D0912A038A3041F4B8
:10059000E881F9810190F081E02D6DE0CE010995AF
:1005A000E881F9810190F081E02D612FCE0109955C
:1005B00021E030E0019711F420E030E0C901DF9143
:1005C000CF911F91089508950C942F1A0C942F1A0F
:1005D0000C942F1A0C942F1A089508950C942F1A26
:1005E000DC01ED91FC91369720813181820F931FC0
:1005F0000C94EE02FB0120813181FC0131832083C8
:10060000FB0142815381F901369720813181FC0140
:10061000E20FF31F5183408308952AEA31E0FC0181
:100620003183208324EB31E0318F208F6AEB71E03E
:100630000C94FA02DC01ED91FC9136972081318116
:10064000820F931F0C940D03CF93DF93EC010E9454
:100650000D03CE01DF91CF910C942F1ADC01ED91A7
:10066000FC91369720813181820F931F0C942403D3
:100670000C942F1A089508950C942F1ADC01ED9113
:10068000FC91369720813181820F931F0C943C039B
:10069000FB0120813181FC0131832083FB014281F8
:1006A0005381F901369720813181FC01E20FF31F5C
:1006B00051834083089522E232E0FC01318320839C
:1006C0002CE232E0358B248B62E372E00C94480319
:1006D000DC01ED91FC91369720813181820F931FCF
:1006E0000C945B03CF93DF93EC010E945B03CE017C
:1006F000DF91CF910C942F1ADC01ED91FC9136978C
:1007000020813181820F931F0C9472030C942F1A55
:100710000F931F93CF93DF93EC01CB0108811981D5
:100720007B836A830E949A199983888320E030E052
:100730008C819D812817390770F4E881F981E20FD7
:10074000F31F309729F0D801A20FB31F8C9180833B
:100750002F5F3F4FEDCFC801DF91CF911F910F91D8
:100760000C942F1A0F931F93CF93DF938C01EB01FF
:100770006F3F8FEF780719F480E090E00FC06A3088
:1007800031F46DE0F801808991890E94550D6C2F3C
:10079000F801808991890E94550DCE01DF91CF919A
:1007A0001F910F9108958F929F92BF92CF92DF92E7
:1007B000EF92FF920F931F93CF93DF9300D000D05F
:1007C000CDB7DEB78C014B01C12CD12C7601C216FE
:1007D000D306E406F50644F5F401B1904F01FAE0C2
:1007E000BF120EC06DE0F8018089918929833A8398
:1007F0004B835C830E94550D5C814B813A8129813A
:100800006B2DF8018089918929833A834B835C831E
:100810000E94550DFFEFCF1ADF0AEF0AFF0A5C8135
:100820004B813A812981D3CFCA01B9010F900F9032
:100830000F900F90DF91CF911F910F91FF90EF904C
:10084000DF90CF90BF909F908F9008950895089566
:10085000CF93DF93CDB7DEB72A970FB6F894DEBFFC
:100860000FBECDBFFC0183859485009741F1DB016C
:10087000FC0120813181F9014481558122E531E07B
:100880003A83298312962D913C9113973C832B83B5
:1008900014962D913C9115973E832D8316962D919C
:1008A0003C91179738872F8318962D913C91199773
:1008B0003A872987BE016F5F7F4FFA0109952A9613
:1008C0000FB6F894DEBF0FBECDBFDF91CF91089574
:1008D000CF93DF93EC010E94570A6D837E838F8351
:1008E0009887DF91CF9108958091F4029091F5025D
:1008F000892BC9F48DE090E00E949A19FC0182E1F5
:1009000091E0918380831382128214821582168271
:100910001782108684E08187128614861386F093EE
:10092000F502E093F4028091F4029091F5020895AB
:10093000EF92FF920F931F93CF93DF93EC018C8183
:100940009D818617970710F57A018B018A819B811B
:100950008617970740F4685F7F4F8617970718F44C
:10096000CE010E9488038C819D818017910758F4E5
:10097000E881F981E80FF91F309719F0D7012C9120
:1009800020830196F2CF1D830C8305C06817790779
:1009900010F47D836C83DF91CF911F910F91FF90B5
:1009A000EF900895FC01808191810C942F1ACF93D0
:1009B000DF93EC016C817D816F5F7F4F8A819B812A
:1009C0008617970718F4CE010E948803E881F98101
:1009D0008C819D81E80FF91F108288819981DF91B8
:1009E000CF910895AF92BF92CF92DF92EF92FF9294
:1009F0000F931F93CF93DF931F92CDB7DEB78C0178
:100A00006B017A01590188E090E0D80113969C931C
:100A10008E93129715961C921E9214970E949A1903
:100A2000F80191838083D60114968D919C9115973E
:100A30008E159F0510F40E94381E1982BC016E1994
:100A40007F09A616B70608F4B501AE014F5F5F4FE8
:100A5000C8010E949804F80184819581D601ED9126
:100A6000FC91EE0EFF1EF8012081318140E050E044
:100A7000BA01A0E0B0E0481759076A077B0758F4AD
:100A8000F70111917F01F90111939F014F5F5F4FB2
:100A90006F4F7F4FF0CF0F90DF91CF911F910F914C
:100AA000FF90EF90DF90CF90BF90AF90089524E437
:100AB00032E0FC0121933193CF010C94D204CF9307
:100AC000DF93EC010E945705CE01DF91CF910C948A
:100AD0002F1A0F931F93CF93DF938091F20290917F
:100AE000F302892B09F04FC089E390E00E949A1924
:100AF000EC018AE091E0998388831A8206E712E08C
:100B00001C830B8385E08D831F821E8219861886C5
:100B10001B861A861C861D861E861F86198A188AC1
:100B20001B8A1A8A1C8A0E9443091E8B0D8B87E040
:100B30008F8B198E188E1B8E1A8E1D8E1C8E1E8EFC
:100B40001F8E18A219A21BA21AA21DA21CA21EA2CD
:100B50000E94430918A70FA386E089A71BA61AA61F
:100B60001DA61CA61FA61EA618AA19AA1AAA1BAA69
:100B70001DAA1CAA1FAA1EAA18AE0E944309D09340
:100B8000F302C093F2028091F2029091F302DF919E
:100B9000CF911F910F910895089508950895FC0134
:100BA00020813181828193812817390719F0822FA2
:100BB0000C94C6090895CF93DF93EC019CB59F7DFB
:100BC0009CBD9CB5937F9CBD9CB59C7F9CBD9DB5F9
:100BD00091609DBD8A810E94C6098C899D89DF91A3
:100BE000CF910C94120A61E00C94DB0560E00C9448
:100BF000DB058EBD00000DB407FEFDCF8EB5089558
:100C00002F923F924F925F926F927F928F929F921C
:100C1000AF92BF92CF92DF92EF92FF920F931F930A
:100C2000CF93DF9300D01F92CDB7DEB73C01D42E17
:100C30002DB63EB67F936F9385E890E09F938F9398
:100C40002B830E94121B2B812D0D2A830F900F9056
:100C50000F900F9081E8482E80E0582E9CE7A92E37
:100C600090E0B92EFA81DF1609F450C08DB69EB619
:100C7000F3012685022F10E08DB79EB7801B910BE4
:100C80000FB6F8949EBF0FBE8DBFEDB7FEB731967D
:100C90007F01F1E0FD0DF983C3012B830E94F6056E
:100CA0008D2D8F710E94F90567012B812E0D2C155A
:100CB00049F08FEF2B830E94F905F60181936F01B4
:100CC0002B81F5CFC3010E94F3055F924F920E94E2
:100CD000121B0E0D1F1D0F900F90015011090E15C4
:100CE0001F0568F0F80180811F928F93BF92AF9229
:100CF0000E94121B0F900F900F900F90EECF0FB627
:100D0000F8949EBE0FBE8DBED980ACCF89E790E02F
:100D10009F938F930E94121B0F900F900FB6F89421
:100D20003EBE0FBE2DBE0F900F900F90DF91CF9162
:100D30001F910F91FF90EF90DF90CF90BF90AF90F9
:100D40009F908F907F906F905F904F903F902F90EB
:100D50000895EF92FF921F93CF93DF931F92CDB729
:100D6000DEB77C0169830E94F6056981862F0E94A7
:100D7000F905182FC7010E94F305812F0F90DF910D
:100D8000CF911F91FF90EF90089561EE0C94A9060A
:100D9000EF92FF921F93CF93DF9300D0CDB7DEB7D2
:100DA0007C014A8369830E94F6056981862F8F71D1
:100DB00080620E94F905182F4A81842F0E94F9054C
:100DC000C7010E94F305812F0F900F90DF91CF9103
:100DD0001F91FF90EF900895CF92DF92EF92FF92D4
:100DE0000F931F93CF93DF9300D01F92CDB7DEB741
:100DF0007C01142F2A835B8369830E94F605698135
:100E0000862F8F7180620E94F905082FC12E5B81A9
:100E1000D52E2A81120F1C1531F0F60181916F0138
:100E20000E94F905F8CFC7010E94F305802F0F90AB
:100E30000F900F90DF91CF911F910F91FF90EF9046
:100E4000DF90CF900895EF92FF921F93CF93DF939F
:100E50001F92CDB7DEB77C0169830E94F6056981D8
:100E6000862F8F710E94F9058FEF0E94F905182FC8
:100E7000C7010E94F305812F0F90DF91CF911F9141
:100E8000FF90EF900895CF93DF93EC0160E00E9414
:100E9000230781FD0EC0482F426060E0CE010E9412
:100EA000C80665E070E080E090E0DF91CF910C949F
:100EB0001D0ADF91CF910895CF93DF93EC010E943B
:100EC000430760E0CE010E942307482F416060E0A5
:100ED000CE010E94C80640E767E0CE010E94C80626
:100EE00061E0CE010E94CF058985882349F02E85D7
:100EF000AE01475F5F4F6AE0CE010E94EC0614C06E
:100F000062E0CE010E942307EBEFF1E0E49121E0E3
:100F100030E001C0220FEA95EAF72095422F4823DE
:100F200062E0CE010E94C8066DE1CE010E94230757
:100F300081FF05C0CE01DF91CF910C94C506DF91F2
:100F4000CF9108958F929F92AF92BF92CF92DF92EE
:100F5000EF92FF920F931F93CF93DF93CDB7DEB73E
:100F60002A970FB6F894DEBF0FBECDBF6C015B01B0
:100F7000FC01E280F38060E0C7010E94CF05F70129
:100F8000808991890E94120A6DE1C7010E9423079E
:100F900081FF08C0F701808991890E94120AC70168
:100FA0000E94C50660E0C7010E942307482F4E7FBC
:100FB00060E0C7010E94C80662E0C7010E942307E3
:100FC000EBEFF1E0E49141E050E001C0440FEA951D
:100FD000EAF7482B62E0C7010E94C806F601E280EA
:100FE000F380F7011781012F113108F000E1F701BB
:100FF0008085811102C0101B01C010E0C7010E9452
:10100000F60580EA0E94F9054501015030F0F4012F
:1010100081914F010E94F905F8CF112329F080E05A
:101020000E94F9051150F9CFC7010E94F30561E054
:10103000C7010E94CF056FEFC7010E94A906807308
:10104000D1F360E0C7010E94CF0540E767E0C70128
:101050000E94C80684FF05C0C7010E94C50610E0B3
:1010600001C011E082E591E09A8389831A8619868E
:10107000DC82CB828CE590E098878F83AD82BE8244
:10108000BE016F5F7F4FC6010E942804F601828176
:1010900093810E945C07812F2A960FB6F894DEBFD9
:1010A0000FBECDBFDF91CF911F910F91FF90EF90B9
:1010B000DF90CF90BF90AF909F908F900895EF9268
:1010C000FF920F931F93CF93DF93CDB7DEB7649753
:1010D0000FB6F894DEBF0FBECDBF8C0181E493E460
:1010E000ABE4B0E0898B9A8BAB8BBC8B1F926F9378
:1010F000CE0141969F938F9380EC92E09F938F93C4
:10110000CE0101967C019F938F930E943D1E0FB6E6
:10111000F894DEBF0FBECDBFF8018285882321F091
:10112000B701C8010E94A20764960FB6F894DEBF0B
:101130000FBECDBFDF91CF911F910F91FF90EF9028
:101140000895CF92DF92EF92FF920F931F93CF9368
:10115000DF931F92CDB7DEB77C01C22E7F936F93D2
:1011600023E730E03F932F9349830E94121B49816C
:10117000C40E0F900F900F900F900BE610E04C15DF
:1011800099F0DD24D394D40E642FC7010E94230765
:101190001F928F931F930F930E94121B0F900F901B
:1011A0000F900F904D2DEBCF88E690E09F938F939B
:1011B0000E94121B0F900F900F90DF91CF911F9103
:1011C0000F91FF90EF90DF90CF90089508953FB773
:1011D000F8948091FD029091FE02A091FF02B091DF
:1011E000000326B5A89B05C02F3F19F00196A11D4D
:1011F000B11D3FBFBA2FA92F982F8827820F911DAD
:10120000A11DB11DBC01CD0142E0660F771F881FF3
:10121000991F4A95D1F70895CF92DF92EF92FF92EE
:101220000F931F93CF93DF938C016B01770FEE0821
:10123000FF08F7FE12C06DE20E94550DEC01442735
:101240005527BA014C195D096E097F092AE0C801CA
:101250000E94950DC80FD91F06C02AE0B701A6014C
:101260000E94950DEC0169EC72E0C8010E94800DAE
:101270008C0F9D1FDF91CF911F910F91FF90EF90E9
:10128000DF90CF90089590E0FC01E654FD4F24914B
:10129000FC01EA55FD4F8491882399F090E0880F76
:1012A000991FFC01E456FD4FA591B491FC01EE5647
:1012B000FD4F859194918FB7F894EC91E22BEC93CC
:1012C0008FBF0895EDE2F3E0A089B18982E08C93AD
:1012D000A485B5851C92A685B78580E18C93108E78
:1012E000A489B58986E08C93A289B3898C918061A9
:1012F0008C93A289B3898C9188608C93A289B389DD
:101300008C9180688C930288F389E02D80818F7D99
:10131000808308950F931F93CF938C0166E089E03B
:1013200093E00E942307C82FC77D0230110531F4D6
:10133000C0628BE990E0A0E0B0E00DC00130110583
:1013400029F085E590E0A0E0B0E005C0C86081E448
:1013500090E0A0E0B0E08093190390931A03A0936B
:101360001B03B0931C034C2F66E089E093E00E94BE
:10137000C80666E089E093E00E94230791E08C13A1
:1013800090E0892FCF911F910F91089590E0FC017B
:10139000EF58FD4F3491FC01E654FD4F2491FC01C0
:1013A000EA55FD4FE491EE2309F43BC0332339F1B4
:1013B000333091F038F43130A9F0323001F584B592
:1013C0008F7D12C0373091F03830A1F03430B9F44D
:1013D000809180008F7D03C0809180008F77809303
:1013E00080000DC084B58F7784BD09C08091B000A6
:1013F0008F7703C08091B0008F7D8093B000F0E0C4
:10140000EE0FFF1FEE56FD4FA591B4918FB7F894E4
:10141000EC91611103C020952E2301C02E2B2C933B
:101420008FBF08958230910538F0880F991F880F7B
:10143000991F05970197F1F708958F929F92AF92A8
:10144000BF92CF92DF92EF92FF926B017C010E94DC
:10145000E7084B015C01C114D104E104F104F1F08F
:101460000E94E708DC01CB0188199909AA09BB0988
:10147000883E9340A105B10570F321E0C21AD1085E
:10148000E108F10888EE880E83E0981EA11CB11CCB
:10149000C114D104E104F10419F7DDCFFF90EF90FE
:1014A000DF90CF90BF90AF909F908F9008952FB70F
:1014B000F8946091F9027091FA028091FB02909188
:1014C000FC022FBF0895EF92FF920F931F93CF93CB
:1014D000DF93EC019A8192FD60C094609A8397FD3E
:1014E00050C01C8A8E819F819B8B8A8B198A188A97
:1014F00060E08D810E94C60985E090E00E949A1903
:101500007C01FC011082148213828CE79BE09283A1
:10151000818385E090E00E949A198C018FEFF80199
:10152000808384E190E092838183F482E38285E08A
:1015300090E00E949A19FC0183E0808388E290E0A9
:101540009283818314830383FF83EE83FB8BEA8B77
:10155000EF2BB9F08C898230A1F0811104C0198A77
:10156000188A1B861A860E94570A6C877D878E8789
:101570009F8782E08C8B6A897B89CE0103960E94CB
:10158000C90F65E872E08DE293E0DF91CF911F9182
:101590000F91FF90EF900C94F20DDF91CF911F917E
:1015A0000F91FF90EF900895CF92DF92EF92FF920C
:1015B0000F931F93CF93DF936C017A018B01C0E0EF
:1015C000D0E0CE15DF0589F0D8016D918D01D601EF
:1015D000ED91FC910190F081E02DC6010995892BD8
:1015E00011F47E0102C02196ECCFC701DF91CF91AB
:1015F0001F910F91FF90EF90DF90CF900895089585
:1016000080E090E00895FC01538D448D252F30E05B
:10161000842F90E0821B930B541710F0CF960895FF
:1016200001970895FC01918D828D981761F0828D4C
:10163000DF01A80FB11D5D968C91928D9F5F9F7306
:10164000928F90E008958FEF9FEF0895FC01918DA8
:10165000828D981731F0828DE80FF11D858D90E015
:1016600008958FEF9FEF0895FC01918D228D892FB2
:1016700090E0805C9F4F821B91098F73992708959A
:101680008DE293E00E94340B21E0892B09F420E0E5
:10169000822F0895FC01848DDF01A80FB11DA35A8C
:1016A000BF4F2C91848D90E001968F739927848F82
:1016B000A689B7892C93A089B1898C9180648C9379
:1016C000938D848D981306C00288F389E02D808164
:1016D0008F7D80830895EF92FF920F931F93CF9396
:1016E000DF93EC0181E0888F9B8D8C8D981305C072
:1016F000E889F989808185FD24C0F62E0B8D10E0E4
:101700000F5F1F4F0F731127E02E8C8DE8120CC056
:101710000FB607FCFACFE889F989808185FFF5CFFC
:10172000CE010E944A0BF1CF8B8DFE01E80FF11D17
:10173000E35AFF4FF0820B8FEA89FB898081806238
:1017400007C0EE89FF896083E889F9898081806418
:10175000808381E090E0DF91CF911F910F91FF9006
:10176000EF900895CF93DF93EC01888D8823C9F023
:10177000EA89FB89808185FD05C0A889B9898C919A
:1017800086FD0FC00FB607FCF5CF808185FFF2CF35
:10179000A889B9898C9185FFEDCFCE010E944A0BB3
:1017A000E7CFDF91CF91089580E090E0892B29F079
:1017B0000E94400B81110C94000008950895089533
:1017C0000895FC019285915081E0923008F080E00C
:1017D0000895DC011A962C91261759F0FC016287B6
:1017E0000190F081E02D0688F789E02D099581E0D0
:1017F000089580E00895039608950E94381ECF93BF
:10180000DF93EC010E947404FC0111860E946804BD
:1018100061E085E00E94C60961E087E00E94C60998
:1018200061E086E00E94C6090E94570A6D877E87A4
:101830008F87988B82E0DF91CF910895CF93DF93CC
:10184000EC018EE792E09983888380915D0490910A
:101850005E04009739F0DC01ED91FC910280F38188
:10186000E02D09958A819B81DF91CF910C942F1AED
:10187000CF93DF93EC010E941E0CCE01DF91CF913C
:101880000C942F1A0C942F1A0C942F1AAF92BF920B
:10189000CF92DF92EF92FF920F931F93CF93DF933C
:1018A000FC01248135816217730708F56B01EC0197
:1018B00087E0869F5001879FB00C11248B01E12C9B
:1018C000F12C8C819D810817190778F4C7018A0DC6
:1018D0009B1D28813981820F931F0E94D2040F5FC4
:1018E0001F4FF7E0EF0EF11CECCFDD82CC82DF91D1
:1018F000CF911F910F91FF90EF90DF90CF90BF900D
:10190000AF9008952F923F924F925F926F927F9285
:101910008F929F92AF92BF92CF92DF92EF92FF92FF
:101920000F931F93CF93DF9300D01F92CDB7DEB7F5
:101930007C017B836A831C0123E0220E311C60E062
:1019400070E0C1010E94460CEA81FB818080918099
:10195000EA81FB8124813581F7E0F29FC001F39F8A
:10196000900D1124EA81FB8120813181820F931F28
:101970008816990609F483C0F701878190856C0168
:10198000FFEFCF1ADF0A8C159D0508F070C0F70134
:10199000258136812C153D05F0F509962817390764
:1019A000D0F5638074809683858347E09C01429FD5
:1019B000C001439F900D11240E949A19F70194834E
:1019C00083835301412C512CF70187819085481660
:1019D0005906F0F4F70123813481C501861997096E
:1019E000820F931F009751F08E010F5F1F4F2FEF53
:1019F0003FEF40E050E0B5010E94F204C5010E94B3
:101A0000D204FFEF4F1A5F0A27E0A20EB11CDCCF11
:101A1000C3010E942F1AF701A780B084F7E0FA9D56
:101A20002001FB9D500C1124612C712CF701AC148A
:101A3000BD04D0F423813481C301840D951D820F30
:101A4000931F009751F08E010F5F1F4F2FEF3FEF55
:101A500040E050E0B4010E94F204FFEFAF1ABF0A69
:101A600027E0620E711CE2CFD086C78204C0B601A7
:101A7000C1010E94460CF7E08F0E911C69CF0F90B8
:101A80000F900F90DF91CF911F910F91FF90EF90EA
:101A9000DF90CF90BF90AF909F908F907F906F908E
:101AA0005F904F903F902F900895DC01ED91FC9155
:101AB0000190F081E02D0994EF92FF920F931F9314
:101AC000CF93DF938C017B01C0E0D0E0F701EC0FF6
:101AD000FD1F6491662361F0D801ED91FC910190A6
:101AE000F081E02DC8010995892B11F02196EECFE8
:101AF000CE01DF91CF911F910F91FF90EF9008954C
:101B00006115710579F0FB0101900020E9F731972B
:101B1000AF01461B570BDC01ED91FC910280F38174
:101B2000E02D099480E090E008954F925F926F92CB
:101B30007F92EF92FF920F931F93CF93DF93CDB7D6
:101B4000DEB7A1970FB6F894DEBF0FBECDBF7C0104
:101B5000FA01CB0119A2223008F42AE08E010F5DB0
:101B60001F4F422E512C612C712CBF01A3019201F9
:101B70000E94101EF901CA01015011096A3014F4C3
:101B8000605D01C0695CD8016C93232B242B252B4D
:101B900061F7B801C7010E94800DA1960FB6F894B5
:101BA000DEBF0FBECDBFDF91CF911F910F91FF9090
:101BB000EF907F906F905F904F9008950F931F93D9
:101BC000CF93DF93EC010E94800D8C0169EC72E0F1
:101BD000CE010E94800D800F911FDF91CF911F9148
:101BE0000F9108950F931F93CF93DF93EC010E9401
:101BF0005C0D8C0169EC72E0CE010E94800D800FBB
:101C0000911FDF91CF911F910F9108951F920F9215
:101C10000FB60F9211242F933F934F935F936F93BF
:101C20007F938F939F93AF93BF93EF93FF938DE237
:101C300093E00E944A0BFF91EF91BF91AF919F916A
:101C40008F917F916F915F914F913F912F910F9065
:101C50000FBE0F901F9018951F920F920FB60F9204
:101C600011242F938F939F93EF93FF93E0913D0364
:101C7000F0913E038081E0914303F091440382FDA3
:101C800012C09081809146038F5F8F73209147032C
:101C9000821751F0E0914603F0E0E35DFC4F958F31
:101CA0008093460301C08081FF91EF919F918F91B6
:101CB0002F910F900FBE0F901F901895CF93DF9329
:101CC00080915D0490915E04892BC9F489E090E0D5
:101CD0000E949A19EC018EE792E09983888388E04C
:101CE00090E09D838C831F821E8280E190E00E94A1
:101CF0009A199B838A83D0935E04C0935D0480917C
:101D00005D0490915E04DF91CF910895EF92FF9270
:101D10000F931F93CF93DF93EC01E881F981068441
:101D2000F785E02D63E009950E945E0EDC011296B6
:101D30008D919C91139716962D913C911797A9011F
:101D4000440F551F480F591FBC01FB01641775074D
:101D500041F06E5F7F4F008111810C171D07A9F7BD
:101D600002C0E0E0F0E0CD2B31F1E81BF90BAF0150
:101D700055954795C9010197BF016E5F7F4F481781
:101D8000590790F41296ED90FC9013974F5F5F4FB8
:101D90008701060F171FE80108811981EE0DFF1D4D
:101DA00011830083FB01E8CF8217930720F4179675
:101DB0009C938E931697DF91CF911F910F91FF9077
:101DC000EF9008950F931F93CF93DF93EC010E9440
:101DD000570A0D851E852F853889DC01CB01801BB4
:101DE000910BA20BB30B853F9140A105B105B8F053
:101DF00060E085E00E94C60960E087E00E94C609B5
:101E000060E086E00E94C6090E9469050E94630A9C
:101E1000CE01DF91CF911F910F910C94860EDF912F
:101E2000CF911F910F910895EF92FF920F931F93FF
:101E3000CF93DF937C0100E010E0C0E0D0E0F70139
:101E40002481358180819181C217D30740F4800FAE
:101E5000911F0E94D2042196095F1F4FF0CFDF919E
:101E6000CF911F910F91FF90EF900C942F1A2AE1C0
:101E700031E0FC013183208303960C94140FCF933F
:101E8000DF93EC010E94370FCE01DF91CF910C94CC
:101E90002F1ACF92DF92EF92FF920F931F93CF935F
:101EA000DF931F92CDB7DEB78C016B0188E090E025
:101EB000D80113969C938E93129715961C921E929E
:101EC00014970E949A19F80191838083C114D10458
:101ED00049F1F60101900020E9F731977F01EC18F4
:101EE000FD081982AE014F5F5F4FB701C8010E9424
:101EF0009804D8012D913C9140E050E0BA01C7010F
:101F0000A0E0B0E0481759076A077B0758F4F601CC
:101F100011916F01F90111939F014F5F5F4F6F4F57
:101F20007F4FF0CF0F90DF91CF911F910F91FF90D6
:101F3000EF90DF90CF9008950F931F93CF93DF938F
:101F40001F92CDB7DEB78C01AE014F5F5F4F6BEED6
:101F500072E00E94490FC8010F90DF91CF911F914D
:101F60000F9108950F931F93CF93DF931F92CDB7D7
:101F7000DEB78C01AE014F5F5F4F6FEE72E00E94E3
:101F8000490FC8010F90DF91CF911F910F910895D4
:101F90000895CF93DF936115710509F45FC0FB01CC
:101FA000C081CF3F11F461E003C0C11104C060E003
:101FB000FC0182814FC0FC01D2818D2F0E94430918
:101FC000ED2FF0E0EF58FD4FE491E33009F148F4D4
:101FD000E130C9F0E230C1F584B5806284BDC8BD8E
:101FE0003DC0E73009F1E83039F1E43069F580911E
:101FF00080008062809380008C2F90E090938B0013
:1020000080938A002BC084B5806884BDC7BD26C07C
:10201000809180008068809380008C2F90E0909366
:102020008900809388001AC08091B00080688093F6
:10203000B000C093B30012C08091B0008062809362
:10204000B000C093B4000AC0C03810F460E001C012
:1020500061E08D2FDF91CF910C94C609DF91CF9174
:1020600008958F929F92AF92BF92CF92DF92EF929C
:10207000FF920F931F93CF93DF93FC0121892230AE
:1020800009F065C0EC010E94570A2D853E85690163
:10209000E12CF12C09851A852B853C8546015701D9
:1020A000801A910AA20AB30ADC01CB01880D991D9E
:1020B000AA1DBB1DEF85F8894181528160E070E067
:1020C00084179507A607B70708F441C01E861D862A
:1020D0000E94570A69877A878B879C87EF85F889E2
:1020E000638174816115710579F48F8198850196FA
:1020F00098878F832D813E816B817C8121153105ED
:1021000019F0821793078CF4788B6F87CE01DF91DB
:10211000CF911F910F91FF90EF90DF90CF90BF90E4
:10212000AF909F908F900C94C90F198A788B6F870E
:102130001E861D8660E08A810E94C6092F8138852F
:102140008D819E812817390711F418861F82DF912F
:10215000CF911F910F91FF90EF90DF90CF90BF90A4
:10216000AF909F908F9008951F920F920FB60F928D
:1021700011242F933F938F939F93AF93BF9380919D
:10218000F9029091FA02A091FB02B091FC02309109
:102190005F0423E0230F2D3720F40196A11DB11D0C
:1021A00005C026E8230F0296A11DB11D20935F04F0
:1021B0008093F9029093FA02A093FB02B093FC0281
:1021C0008091FD029091FE02A091FF02B091000368
:1021D0000196A11DB11D8093FD029093FE02A09374
:1021E000FF02B0930003BF91AF919F918F913F91F8
:1021F0002F910F900FBE0F901F90189508950C947B
:102200002F1A02970C94FF10CF93DF93FB01C2812A
:10221000D3818681978199278B359105A1F08C35E3
:102220009105B1F08A35910511F562E872E08DE211
:1022300093E00E94800D6C8170E08DE293E0DF916D
:10224000CF910C940C09C481D58168E972E004C077
:10225000C481D5816EEA72E08DE293E00E94800D28
:10226000BE018DE293E0DF91CF910C94DE0DDF9102
:10227000CF91089502970C940411CF93DF93CDB7BB
:10228000DEB7AE970FB6F894DEBF0FBECDBF789421
:1022900084B5826084BD84B5816084BD85B582606B
:1022A00085BD85B5816085BD80916E00816080931C
:1022B0006E00109281008091810082608093810085
:1022C0008091810081608093810080918000816095
:1022D000809380008091B10084608093B1008091F0
:1022E000B00081608093B00080917A008460809318
:1022F0007A0080917A00826080937A0080917A00DF
:10230000816080937A0080917A00806880937A005F
:102310001092C10085E00E94430987E00E944309B2
:1023200086E00E9443090E9462096CE572E08DE23A
:1023300093E00E94F20DE0902303F090240389E0E3
:1023400093E0D70113969C938E9312974C01990FAB
:10235000AA08BB08B7FE0EC06DE28DE293E00E94B2
:10236000550D44275527BA01481959096A097B09AF
:102370002AE003C02AE0B501A4018DE293E00E94A7
:10238000950D69EC72E08DE293E00E94800D8091E2
:10239000090390910A0320910B0330910C038217DB
:1023A000930711F00E94430980910B0390910C0355
:1023B0002091090330910A032817390711F00E9470
:1023C00043091FB7F8948091F602811124C0E0EB15
:1023D000F2E08491E4ECF2E09491E82FF0E0EE0F6B
:1023E000FF1FE456FD4FA591B491EC91E92321F430
:1023F00061E08AE00E94C6098AE00E9443098CB528
:1024000080618CBD8CB580648CBD8DE00E944309D9
:102410008BE00E9443098091F6028F5F8093F60261
:102420001FBF60E089E093E00E94CF0561E089E092
:1024300093E00E94DB0565E070E080E090E00E94A0
:102440001D0A4CE060E089E093E00E94C8064FE579
:1024500064E089E093E00E94C80682E090E00E9478
:102460008A09882319F081E080930F0366E089E0F0
:1024700093E00E942307182F80E090E00E948A09D1
:1024800089E093E00E94F60580E50E94F90583E764
:102490000E94F90589E093E00E94F30540E06DE1B8
:1024A00089E093E00E94C80640E06CE189E093E097
:1024B0000E94C8061092110340E767E089E093E0AC
:1024C0000E94C8064CE465E089E093E00E94C806DB
:1024D00062EE89E093E00E94A90689E093E00E9401
:1024E000C50689E093E00E94430760E089E093E03D
:1024F0000E942307482F4E7F60E089E093E00E940E
:10250000C80611501E3F08F07FC14FEF64E089E01C
:1025100093E00E94C80640E06DE189E093E00E94EC
:10252000C80640E06CE189E093E00E94C806109282
:10253000110380E18093100311E01BA31CA21DA2D4
:102540001EA21FA218A619A61AA620911703AE0153
:102550004D5D5F4F6AE089E093E00E94EC062091B8
:102560001703AE014D5D5F4F60E189E093E00E948B
:10257000EC064091100361E189E093E00E94C806F7
:1025800082E08B8F1C8E1D8E1E8E1F8E18A219A2AC
:102590001AA2E8E0F2E0649120911703AE01455ED3
:1025A0005F4F89E093E00E94EC06E2E0F2E0649184
:1025B0004091100389E093E00E94C80662E089E040
:1025C00093E00E942307ECEFF1E0E49141E050E05A
:1025D00001C0440FEA95EAF7482B62E089E093E0F6
:1025E0000E94C80666E089E093E00E942307887F86
:1025F000482F416066E089E093E00E94C80680E0D1
:1026000090E00E948A0989E093E00E945C07F7014C
:10261000128769E172E08DE293E00E94F20DD7012A
:102620001A968C91811107C067EE70E08DE293E0FD
:102630000E94F20DF2C0F701028113816FEFC80111
:102640000E94A906282F30E0982F91701F929F9327
:1026500035952795277033273F932F9384FB992730
:1026600090F91F929F9385FB992790F91F929F9352
:1026700086FB992790F91F929F931F928F9383EF68
:1026800090E09F938F930E94121B22E04AE06EEE2F
:1026900071E0C8010E94000624E04CE061EE71E0A8
:1026A000C8010E94A10821E040E168ED71E0C80185
:1026B0000E94000626E041E16DEC71E0C8010E9435
:1026C000A10821E041E066EC71E0C8010E94A10888
:1026D00021E042E06CEB71E0C8010E94A10821E01A
:1026E00045E065EB71E0C8010E94A10821E046E0E9
:1026F0006CEA71E0C8010E94A10821E040E064EAB0
:1027000071E0C8010E94A10822E04CE166E971E095
:10271000C8010E94A10866E0C8010E9423078872D0
:102720000FB6F894DEBF0FBECDBF803241F021E07E
:1027300090E0883009F020E0E22FF92F02C0E2E0BB
:10274000F0E0EE0FFF1FE057FE4F859194919F93AD
:102750008F938EE791E09F938F930E94121BD80175
:102760001696EC91F0E0EE0FFF1FE658FE4F8591B4
:1027700094919F938F938BE691E09F938F930E9408
:10278000121B60E0C8010E942307D82E61E0C80137
:102790000E9423070FB6F894DEBF0FBECDBFD3FC57
:1027A00002C0882329F0D2FC06C0E1E0F0E005C0B9
:1027B000E0E0F0E002C0E2E0F0E0EE0FFF1FEB59D6
:1027C000FE4F859194919F938F9382E591E09F9323
:1027D0008F930E94121B66E0C8010E942307867037
:1027E000E82FF0E0E65BFE4F859194919F938F93E5
:1027F00089E391E09F938F930E94121B0FB6F89488
:10280000DEBF0FBECDBF09C06DE072E08DE293E088
:102810000E94F20DD7011A961C92C7010E9468040B
:10282000E0910703F0910803309721F083E093E0F3
:10283000948783878091050390910603009711F098
:102840000E94630A81E190E00E949A197C01FC01D8
:10285000128288E090E0968385831086178288E351
:1028600090E00E949A19D70114969C938E93139727
:102870001A961C921A978091F7029091F80201968D
:102880009093F8028093F7021C969C938E931B976B
:1028900086E391E08D939C93F70115861686178643
:1028A000108A6CEC72E08DE293E00E94DE0D67E42A
:1028B00072E08DE293E00E945C0D62E472E08DE2D2
:1028C00093E00E945C0DD701ED91FC910480F581AD
:1028D000E02DB7019E012F5F3F4F6901C9010995A6
:1028E000C6010E94D704BC018DE293E00E94800DD6
:1028F000C6010E94D2046DE372E08DE293E00E9473
:102900005C0DD7011B964D915C911C9760E070E0C7
:102910002AE08DE293E00E94950D64E372E08DE27F
:1029200093E00E945C0DF701428150E060E070E0AE
:102930002AE08DE293E00E94950D6AE272E08DE25A
:1029400093E00E945C0DD701ED91FC910084F1852C
:10295000E02DC70109955C01FC01248135813E8B86
:102960002D8B285F3F4F3C8B2B8B87E0F82FF29FFE
:10297000C001F39F900D11240E949A199A8B898BA4
:10298000812C912C612C712C8D899E896816790679
:10299000C8F4D5016D917C91680D791D89899A895A
:1029A000880D991D009739F086012FEF3FEF40E029
:1029B00050E00E94F204BFEF6B1A7B0AE7E08E0E34
:1029C000911CE2CFA988BA88E7E09E2E2D893E8926
:1029D000929EC001939E900D112429893A89820FFD
:1029E000931FA816B90679F18E01055D1F4F2FEFD1
:1029F0003FEF40E050E0B501C6010E94F204C6017D
:102A00000E94D704BC018DE293E00E94800DC601B4
:102A10000E94D2042D893E89929EC001939E900D02
:102A20001124079729893A89820F931FA816B9069E
:102A300031F067E272E08DE293E00E945C0DF7E016
:102A4000AF0EB11CC3CF65E272E08DE293E00E944D
:102A5000F20DCE0141960E94140FD701ED91FC9129
:102A60000684F785E02D61E0C7010995D701ED9156
:102A7000FC910088F189E02DC7010995823009F0A9
:102A800074C00E945E0E8C01E114F10409F47EC052
:102A9000FC01868097805401FFEFAF1ABF0A8A14A9
:102AA0009B0408F059C0DC0114962D913C911597B8
:102AB0002A153B0598F5C40109962817390770F5C2
:102AC00012966C90129713967C90139715969C9380
:102AD0008E931497880F991F0E949A19F801938377
:102AE0008283D30140E050E048155905A1F0F80178
:102AF000828193819A01220F331FFC01E20FF31FA1
:102B0000309729F08D919C911197918380834F5F2D
:102B10005F4F1296E9CFC3010E942F1AD801169673
:102B20008D919C9117979C01220F331F8A159B054D
:102B300078F4D8011296ED91FC911397E20FF31FF0
:102B4000309711F0F182E08201962E5F3F4FEECF79
:102B5000F801B782A6821AC0A814B904B8F4DC013F
:102B60001796BC92AE92169711C0D701ED91FC91C9
:102B7000813031F40288F389E02DC701099506C040
:102B80000488F589E02D63E0C701099560E572E0EE
:102B90008DE293E00E945C0D80916004909161044D
:102BA000B601681B790B8DE293E00E940C0992E557
:102BB000A92E91E0B92E2AE5822E912C1E01BCE2AD
:102BC0002B0E311C0E94570A0091270310912803F5
:102BD000C80103960E943110C80145960E94311029
:102BE000C80187960E943110E0902503F0902603DB
:102BF0008DE293E00E94340B181619060CF065C0A4
:102C00008DE293E00E94120BF701668177818A3092
:102C100019F08D3009F048C0672B09F44FC08E01C0
:102C20000F5E1F4F2FEF3FEF40E050E0B7016E5FA8
:102C30007F4FC6010E94F20466E672E08DE293E0E7
:102C40000E945C0DC6010E94D7048C01BC018DE27C
:102C500093E00E94DE0D0E947404DC011A962C9110
:102C6000222319F0B8010E94A207C6010E94D204D3
:102C7000F7014681578160E070E02AE08DE293E041
:102C80000E94950D69EC72E08DE293E00E94800D48
:102C9000D70116968D919C911797892B79F01796ED
:102CA0001C921E9216970AC08DA76F5F7F4FAE01D0
:102CB000435D5F4FC70102960E949804F701868129
:102CC0009781419710F0178216826AE070E080E0E9
:102CD00090E00E941D0A0091230310912403D80163
:102CE0001A968C911A97882309F4B7C067E1129657
:102CF0008D919C9113970E94230780FFCCC036C012
:102D0000C7010E94F30540E767E0C7010E94C806BB
:102D1000C8010E94680424E0F801218784818111A0
:102D200013C031E034833CA7BA8AA98A1A8E198E5F
:102D30001C8B0B8B988E8F8A3E8A2D8ABE016F5E0C
:102D40007F4FC8010E942804BA8AA98A1A8E198E58
:102D50001C8B0B8B4BE550E0588F4F8BDE8ACD8A56
:102D6000BE016F5E7F4FC8010E9428040E94570A6F
:102D7000D80115964D905D906D907C9018971A969D
:102D80002C911A97222309F468C09B01AC012419E5
:102D900035094609570929013A0119968C91811183
:102DA00002C060E01CC0813091F4293E33404105EF
:102DB000510508F441C061E0C8010E945F08C801E4
:102DC0000E946804F80181858F5F818735C0823059
:102DD00051F4293E33404105510570F162E0C801CC
:102DE0000E945F081FC0833039F5293E33404105FA
:102DF000510510F1F80184818823A1F014821BA6EB
:102E0000BA82A9821A8619861C830B8398868F82C0
:102E10002BE230E02C0F3D1F3E832D83B601C8010D
:102E20000E942804C8010E946804D80119968C9158
:102E300019978F5F19968C93F8018185843069F416
:102E4000F1E14F16F7E25F066104710430F0D8013A
:102E500019961C92C8010E946804E0912103F09128
:102E60002203E280F38006811781000F111F0E0DEF
:102E70001F1DE016F10661F0F701819191917F012C
:102E8000DC01ED91FC910484F585E02D0995F1CFED
:102E90000E94D40B97CEF801E280F380D7011796F9
:102EA0008C91803128F120E1F7019085911103C0C8
:102EB000582E521A01C0512CC7012EA70E94F605A8
:102EC00081E60E94F90536012EA5215040F08FEFD2
:102ED0002EA70E94F905D3018D933D01F5CF752CE6
:102EE000772009F40DCF8FEF0E94F9057A94F8CF7F
:102EF000282FDACF84ED93E00E940D0382E094E066
:102F00000E945B038CE294E00E94D20483E394E08D
:102F10000E94D2048AE394E00E94D20481E494E007
:102F20000E94D20488E494E00E94D2048FE494E0EA
:102F30000E94D20486E594E00C94D2040F931F9370
:102F4000CF93DF931F92CDB7DEB70DE213E010925F
:102F5000300310922F0388EE93E0A0E0B0E080935E
:102F6000310390933203A0933303B093340382E888
:102F700091E090932E0380932D0385EC90E0909345
:102F80003A038093390384EC90E090933C03809360
:102F90003B0380EC90E090933E0380933D0381ECF3
:102FA00090E09093400380933F0382EC90E09093F5
:102FB00042038093410386EC90E090934403809316
:102FC0004303109246031092470310924803109255
:102FD0004903AE014F5F5F4F61ED72E086E594E01B
:102FE0000E94490FAE014F5F5F4F64ED72E08FE4C6
:102FF00094E00E94490FAE014F5F5F4F67ED72E0B2
:1030000088E494E00E94490FAE014F5F5F4F6CED82
:1030100072E081E494E00E94490FAE014F5F5F4F80
:1030200060EE72E08AE394E00E94490FAE014F5FC8
:103030005F4F64EE72E083E394E00E94490FAE01BB
:103040004F5F5F4F68EE72E08CE294E00E94490FA0
:10305000E1E2F0E0F0931A04E093190410921B04EB
:1030600010921C0410921D0446E050E060E070E0F5
:1030700040931E0450931F04609320047093210416
:10308000109222041092230410922404109225041A
:1030900020E2209326041092280410922704109214
:1030A0002B0484E094E090932A048093290482E224
:1030B00092E090930304809302048CE292E0909358
:1030C00017048093160410920804109207041092BB
:1030D0000A041092090410920C0410920B0410922E
:1030E0000E0410920D041092100410920F0410920E
:1030F00012041092110480E092E0909305048093F2
:103100000404109315040093140430E13093130465
:10311000F093F003E093EF031092F1031092F203A7
:103120001092F3034093F4035093F5036093F60376
:103130007093F7031092F8031092F9031092FA03B8
:103140001092FB032093FC031092FE031092FD03E8
:10315000109201041092D6031092D7031092D80354
:103160001092D9032AED33E0309300042093FF033B
:103170002AEA31E03093D5032093D40324EB31E0E5
:103180003093ED032093EC031092DE031092DD03E5
:103190001092E0031092DF031092E2031092E10319
:1031A0001092E4031092E3031092E6031092E503F9
:1031B0001092E8031092E7039093DB038093DA0305
:1031C0001093EB030093EA0388E08093E9031092E5
:1031D0002C0310922B0310932A030093290366EA11
:1031E00072E08EEB92E00E94C71A90932C038093BA
:1031F0002B030E94690590932803809327038091F5
:10320000CC039091CD03892BC9F489E090E00E9412
:103210009A198C0184E492E0F8019183808388E01C
:1032200090E095838483178216820E949A19F80190
:10323000938382831093CD030093CC038091CC03BE
:103240009091CD0390932603809325030E947404EC
:1032500090932403809323030E945E0E9093220395
:103260008093210389E090E090930A0380930903FF
:103270008AE090E090930C0380930B0310920F036D
:1032800080E2809310031092110385E0809317036E
:1032900085E090E0A0E0B0E080931D0390931E03D2
:1032A000A0931F03B0932003109212038091CA03CE
:1032B0009091CB03892B81F482E090E00E949A19CF
:1032C0008C018CE392E0F801918380830E94620973
:1032D0001093CB030093CA038091CA039091CB0350
:1032E0009093D3038093D20380E692E090930203FD
:1032F000809301038CE692E0909304038093030390
:1033000010920603109205030E9474049093080320
:10331000809307030E94570A6093CE037093CF03F4
:103320008093D0039093D1030F90DF91CF911F91A1
:103330000F910895CF93DF938230910510F482E0CE
:1033400090E0E0916204F091630420E030E0C0E09E
:10335000D0E0309711F14081518148175907C0F0F2
:103360004817590761F482819381209719F09B8354
:103370008A832BC0909363048093620426C0211536
:10338000310519F04217530718F49A01BE01DF0105
:10339000EF010280F381E02DDCCF2115310509F129
:1033A000281B390B2430310590F412968D919C9195
:1033B00013976115710521F0FB019383828304C08B
:1033C0009093630480936204FD01329644C0FD0132
:1033D000E20FF31F81939193225031092D933C9377
:1033E0003AC02091600430916104232B41F4209174
:1033F0000201309103013093610420936004209115
:103400000001309101012115310541F42DB73EB77E
:103410004091040150910501241B350BE09160049B
:10342000F0916104E217F307A0F42E1B3F0B28175D
:10343000390778F0AC014E5F5F4F2417350748F02D
:103440004E0F5F1F509361044093600481939193EA
:1034500002C0E0E0F0E0CF01DF91CF9108950F933B
:103460001F93CF93DF93009709F48CC0FC01329730
:1034700013821282009162041091630401151105F8
:1034800081F420813181820F931F2091600430915B
:1034900061042817390779F5F0936104E09360041B
:1034A00071C0D80140E050E0AE17BF0750F412964B
:1034B0002D913C911397AD012115310509F1D901E9
:1034C000F3CF9D01DA013383228360817181860FFE
:1034D000971F8217930769F4EC0128813981260F21
:1034E000371F2E5F3F4F318320838A819B819383D7
:1034F0008283452B29F4F0936304E093620442C075
:103500001396FC93EE931297ED01499159919E0108
:10351000240F351FE217F30771F480819181840F26
:10352000951F029611969C938E9382819381139698
:103530009C938E931297E0E0F0E0D80112968D9163
:103540009C911397009719F0F8018C01F6CF8D919B
:103550009C9198012E5F3F4F820F931F2091600432
:10356000309161042817390769F4309729F41092D3
:1035700063041092620402C01382128210936104E9
:1035800000936004DF91CF911F910F9108950F93E5
:103590001F93CF93DF93009731F46115710519F4F0
:1035A00080E090E03AC08B01EC016EE070E081E0D9
:1035B00090E00E940A1DFC01892B91F380E883832F
:1035C0000115110571F01387028781E883838091CB
:1035D000640490916504892B21F4F0936504E093D1
:1035E00064042097C9F0D187C08783818260838378
:1035F0008091660490916704892B71F4F0936704BD
:10360000E09366048091680490916904892B21F409
:10361000F0936904E0936804CF01DF91CF911F918B
:103620000F910895A0E0B0E0E8E1FBE10C94E71D04
:10363000AE01495F5F4FDA016D917D91AD0104E606
:1036400014E0F80182819381DC0113962C91139789
:10365000286013962C930E94381BD8011296ED9186
:10366000FC9113972381277F2383E4E00C94031EAE
:10367000ACE0B0E0EEE3FBE10C94D91D7C016B0102
:103680008A01FC0117821682838181FFBDC1CE01B0
:1036900001964C01F7019381F60193FD859193FF0B
:1036A00081916F01882309F4ABC1853239F493FD10
:1036B000859193FF81916F01853229F4B70190E0E4
:1036C0000E94431DE7CF512C312C20E02032A0F482
:1036D0008B3269F030F4803259F0833269F4206122
:1036E0002CC08D3239F0803339F4216026C022603D
:1036F000246023C0286021C027FD27C030ED380F8B
:103700003A3078F426FF06C0FAE05F9E300D1124AF
:10371000532E13C08AE0389E300D1124332E2062C0
:103720000CC08E3221F426FD6BC1206406C08C369D
:1037300011F4206802C0883641F4F60193FD8591AA
:1037400093FF81916F018111C1CF982F9F7D955477
:10375000933028F40C5F1F4FFFE3F9830DC08336CD
:1037600031F0833771F0833509F05BC022C0F80176
:10377000808189830E5F1F4F44244394512C540150
:1037800015C03801F2E06F0E711CF801A080B18005
:1037900026FF03C0652D70E002C06FEF7FEFC5010B
:1037A0002C870E94381D2C0183012C852F77222E17
:1037B00017C03801F2E06F0E711CF801A080B180D3
:1037C00026FF03C0652D70E002C06FEF7FEFC501DB
:1037D0002C870E94261D2C012C852068222E830117
:1037E00023FC1BC0832D90E048165906B0F4B701A6
:1037F00080E290E00E94431D3A94F4CFF50127FC4B
:10380000859127FE81915F01B70190E00E94431DE1
:1038100031103A94F1E04F1A51084114510471F7F4
:10382000E5C0843611F0893639F5F80127FF07C065
:1038300060817181828193810C5F1F4F08C060811C
:103840007181072E000C880B990B0E5F1F4F2F768E
:10385000722E97FF09C090958095709561957F4F66
:103860008F4F9F4F2068722E2AE030E0A4010E9403
:103870007B1DA82EA81844C0853729F42F7EB22EB0
:103880002AE030E025C0F22FF97FBF2E8F36C1F03D
:1038900018F4883579F0B4C0803719F0883721F0F2
:1038A000AFC02F2F2061B22EB4FE0DC08B2D8460CF
:1038B000B82E09C024FF0AC09F2F9660B92E06C0FB
:1038C00028E030E005C020E130E002C020E132E035
:1038D000F801B7FE07C060817181828193810C5F1E
:1038E0001F4F06C06081718180E090E00E5F1F4F26
:1038F000A4010E947B1DA82EA818FB2DFF777F2E08
:1039000076FE0BC0372D3E7FA51450F474FE0AC01E
:1039100072FC08C0372D3E7E05C0BA2C372D03C07F
:10392000BA2C01C0B52C34FF0DC0FE01EA0DF11D0B
:103930008081803311F4397E09C032FF06C0B39410
:10394000B39404C0832F867809F0B39433FD13C079
:1039500030FF06C05A2CB31418F4530C5B18B32C68
:10396000B31468F4B70180E290E03C870E94431DE5
:10397000B3943C85F5CFB31410F43B1801C0312C3F
:1039800034FF12C0B70180E390E03C870E94431DE2
:103990003C8532FF17C031FD03C088E790E002C0CC
:1039A00088E590E0B7010CC0832F867859F031FF8D
:1039B00002C08BE201C080E237FD8DE2B70190E0EA
:1039C0000E94431DA51438F4B70180E390E00E94E3
:1039D000431D5A94F7CFAA94F401EA0DF11D80819A
:1039E000B70190E00E94431DA110F5CF332009F4E8
:1039F00051CEB70180E290E00E94431D3A94F6CF89
:103A0000F7018681978102C08FEF9FEF2C96E2E14C
:103A10000C94F51D0F931F93CF93DF93869F800126
:103A2000879F100D969F100D1124C8010E949A19AE
:103A3000EC01009729F0A80160E070E00E94311DC0
:103A4000CE01DF91CF911F910F910895FC01059058
:103A5000615070400110D8F7809590958E0F9F1F90
:103A60000895DC0101C06D9341505040E0F7089586
:103A7000FC016150704001900110D8F7809590953D
:103A80008E0F9F1F08950F931F93CF93DF93FB011A
:103A9000238121FD03C08FEF9FEF28C022FF16C0B6
:103AA00046815781248135814217530744F4A08110
:103AB000B1819D012F5F3F4F318320838C932681FD
:103AC00037812F5F3F4F3783268310C0EB01092FCB
:103AD000182F0084F185E02D0995892BE1F68E8160
:103AE0009F8101969F838E83812F902FDF91CF91AD
:103AF0001F910F910895FA01AA27283051F1203122
:103B000081F1E8946F936E7F6E5F7F4F8F4F9F4F71
:103B1000AF4FB1E03ED0B4E03CD0670F781F891FB3
:103B20009A1FA11D680F791F8A1F911DA11D6A0F81
:103B3000711D811D911DA11D20D009F468943F9134
:103B40002AE0269F11243019305D3193DEF6CF0133
:103B50000895462F4770405D4193B3E00FD0C9F7F9
:103B6000F6CF462F4F70405D4A3318F0495D31FD66
:103B70004052419302D0A9F7EACFB4E0A6959795B9
:103B8000879577956795BA95C9F70097610571058F
:103B900008959B01AC010A2E0694579547953795D9
:103BA0002795BA95C9F7620F731F841F951FA01D33
:103BB00008952F923F924F925F926F927F928F92D1
:103BC0009F92AF92BF92CF92DF92EF92FF920F93AC
:103BD0001F93CF93DF93CDB7DEB7CA1BDB0B0FB6B6
:103BE000F894DEBF0FBECDBF09942A883988488873
:103BF0005F846E847D848C849B84AA84B984C88409
:103C0000DF80EE80FD800C811B81AA81B981CE0FFF
:103C1000D11D0FB6F894DEBF0FBECDBFED010895E4
:103C2000A1E21A2EAA1BBB1BFD010DC0AA1FBB1FC0
:103C3000EE1FFF1FA217B307E407F50720F0A21B32
:103C4000B30BE40BF50B661F771F881F991F1A949F
:103C500069F760957095809590959B01AC01BD01C9
:103C6000CF010895EE0FFF1F0590F491E02D099408
:103C700081E090E0F8940C94601EAEE0B0E0E3E4E4
:103C8000FEE10C94E71D0D891E8986E08C831A8362
:103C900009838FEF9FE79E838D83AE01475E5F4F61
:103CA0006F89788DCE0101960E94381B2F8138854F
:103CB000F801E20FF31F10822E96E4E00C94031E2D
:103CC00011E0C8E6D1E004C0FE010E94321E219638
:0A3CD000C936D107C9F7F894FFCFF9
:103CDA0000006A048000000000009401E80200006D
:103CEA0000009301E6020000000000000000B20F8D
:103CFA00820CFB0BE10BE00BE90BFD0B860EDF0BD5
:103D0A00DE0B00000000370F3F0F9C0F820CFB0BED
:103D1A00E10BE20EE90BFF0B860EDF0BDE0B000058
:103D2A000000C80F420C180000000000000000004C
:103D3A00E8FFE8FF00000000000014000000000097
:103D4A0000000000ECFFECFF000000000000000093
:103D5A0000006B0BD40A030BB20B340B120B260BAD
:103D6A00060000000000EC02EE02FAFFFAFF000073
:103D7A00ED02F0021800000000000D032403E8FF22
:103D8A00E8FF00001A032E03AA015C016601B401D0
:103D9A0000000000CC05EA02A502A2029F029C02D2
:103DAA00990210020C020902F3011302970195010C
:103DBA000200000000003A033C03FEFFFEFF000081
:103DCA003B033E0300000000CE058603000000000E
:103DDA00CD053803A502A2029F029C0299028D0218
:103DEA0047022E0215021302D303B2031400000085
:103DFA0000005B037203ECFFECFF000068037C0326
:103E0A00220270017A012C02000000002704E40259
:103E1A000000000057055F050000000000000000D8
:103E2A00FD0B0000000000000000FD0B0000000078
:103E3A00E608FF10E3020411FEFF0000FE10011164
:103E4A003A11000000002604440C000000001E0C79
:103E5A00380C524620436F6E6E656374696F6E202C
:103E6A0053746174653A20005246204D657373613C
:103E7A0067652052656365697665643A2000524633
:103E8A00204D6573736167652053656E743A20002F
:103E9A0041542B25733D2564000D0A005465737443
:103EAA0000425400485600534554530053455400A9
:103EBA00544C530054425A00415400535550003F49
:023ECA000000F6
:00000001FF
