:100000000C9418020C9440020C9440020C94FB0EC9
:100010000C94FB0E0C94FB0E0C9440020C944002CA
:100020000C9440020C9440020C9440020C94400248
:100030000C9440020C9440020C9440020C94400238
:100040000C943C160C9440020C949C120C94761266
:100050000C9440020C9440020C9440020C94400218
:100060000C9440020C9440029B1A2D1CAF1A2D1CBC
:100070006F1B2D1C2D1C2D1C2D1C2D1C6F1BC61A1F
:10008000251B2D1C2D1C2D1C2D1C2D1C2D1C2D1C31
:100090002D1C2D1C821B2D1C181C051E241F091E27
:1000A000221E3D1E241F241F241F241F241F8C1EBC
:1000B000581E701E891E8C1E241F241F241F241FDF
:1000C000241F031F241FA41EC01EDB1E4E414E49C9
:1000D0004E495459494E46CDCCCC3D0AD7233C1706
:1000E000B7D13877CC2B329595E6241FB14F0A0053
:1000F0000020410000C84200401C4620BCBE4CCA43
:100100001B0E5AAEC59D7400407A10F35A00A072BF
:100110004E18090010A5D4E80000E8764817000042
:10012000E40B54020000CA9A3B000000E1F5050010
:100130000080969800000040420F000000A0860159
:10014000000000102700000000E803000000006429
:1001500000000000000A0000000000010000000094
:10016000002C76D888DC674F0823DFC1DFAE59E169
:10017000B1B796E5E3E453C63AE651997696E8E6D8
:10018000C28426EB898C9B62ED407C6FFCEFBC9CAB
:100190009F40F2BAA56FA5F490055A2AF75C936BBD
:1001A0006CF9676DC11BFCE0E40D47FEF520E6B578
:1001B00000D0ED902E0300943577050080841E0852
:1001C0000000204E0A000000C80C333333330F9870
:1001D0006E12831141EF8D2114893BE65516CFFE37
:1001E000E6DB18D1844B381BF77C1D901DA4BBE4C3
:1001F00024203284725E228100C9F124ECA1E53D05
:100200002769643D25640076696E3D2564266C7619
:100210003D256426616C3D2564007372633D256451
:100220002663683D256C7526736C3D2564266474D1
:100230003D6C750047455420257325733F25732079
:10024000485454502F312E310D0A486F73743A20A0
:1002500025730D0A0D0A0000010203040511121393
:100260001415160A0B0C0D0E0F526164696F2050A5
:100270006F776572557000467265652052414D205A
:100280003D2000535441525400242046726565209D
:1002900052414D203D200053656E64696E672E2EDD
:1002A0002E002D2D2052656365697665643A200025
:1002B00034021A02070201022A2A2A20202041546D
:1002C0002053454E440041542B43495053454E441E
:1002D0003D0041542B434950434C4F534500696402
:1002E0003D25640076696E3D2564266C763D256467
:1002F00026616C3D2564007372633D256426636846
:100300003D256C7526736C3D25642664743D6C75C3
:100310000047455420257325733F257320485454C6
:10032000502F312E310D0A486F73743A2025730D0A
:100330000A0D0A0069643D25640076696E3D2564F6
:10034000266C763D256426616C3D256400737263DE
:100350003D25642663683D256C7526736C3D2564D8
:100360002664743D6C750047455420257325733F02
:10037000257320485454502F312E310D0A486F7385
:10038000743A2025730D0A0D0A001103F702E402E6
:10039000DE0267034D033A03340341542B52535496
:1003A000002420467265652052414D203D20004FBB
:1003B0004E204D53523A20004F4E204D53533A2079
:1003C000002D3E0052414D3D2000556E69783A2087
:1003D0000000000000250028002B00000000002382
:1003E0000026002900040404040404040402020298
:1003F0000202020303030303030102040810204066
:1004000080010204081020010204081020000000EE
:1004100000240027002A000000000800020100005C
:10042000030407000000000000000000E421AD25E7
:1004300011241FBECFEFD8E0DEBFCDBF13E0A0E098
:10044000B1E0ECEDF3E602C005900D92A239B107E0
:10045000D9F724E0A2E9B3E001C01D92A93FB20799
:10046000E1F712E0C7E1D2E004C02197FE010E944B
:100470006430C631D107C9F70E9486160C94E13169
:100480000C94000082E00895089583E00895089593
:10049000CB0108957F928F929F92AF92BF92CF929D
:1004A000DF92EF92FF920F931F93CF93DF93EC01B4
:1004B00049015A018B01C12CD12C7601C814D904F1
:1004C000EA04FB0484F5F80171908F018F8580FFA9
:1004D0000BC0E881F9810084F185E02D20E144E042
:1004E00060E070E0CE010995EB85FC858D859E85E9
:1004F000E817F90738F470828B859C8501969C87F4
:100500008B870BC0E881F981672D70E0028CF38D39
:10051000E02DCE010995019649F02FEFC21AD20ABB
:10052000E20AF20ACBCFB401C50102C0B601C7018D
:10053000DF91CF911F910F91FF90EF90DF90CF90BF
:10054000BF90AF909F908F907F900895CF93DF934F
:10055000EC01E881F9810288F389E02D09958F3F4C
:100560002FEF920731F02D813E812F5F3F4F3E8369
:100570002D83DF91CF9108958FEF9FEF089560E075
:1005800070E0CB01089580E090E00895CB010895DC
:10059000CF93DF93EC0188899989DC01ED91FC917F
:1005A0000084F185E02D0995892BA9F38889998923
:1005B000DC01ED91FC910284F385E02DDF91CF9178
:1005C0000994CF93DF93EC0188899989DC01ED913F
:1005D000FC910084F185E02D0995892BA9F3888988
:1005E0009989DC01ED91FC910484F585E02DDF9182
:1005F000CF910994AF92BF92CF92DF92EF92FF9288
:100600000F931F93CF93DF9300D000D0CDB7DEB709
:100610008C015B01C12CD12C7601F8018089918974
:10062000DC01ED91FC910284F385E02D29833A836E
:100630004B835C83099529813A814B815C818F3F93
:1006400071F0C216D306E406F5064CF4D5018D937D
:100650005D01BFEFCB1ADB0AEB0AFB0ADECFC70155
:10066000B6010F900F900F900F90DF91CF911F91D7
:100670000F91FF90EF90DF90CF90BF90AF900895D3
:10068000DC0150968D919C915197DC01ED91FC918C
:100690000084F185E02D099480E090E0089580E0E9
:1006A00090E0089580E090E0089580E090E0089563
:1006B0000895CF93DF93C091F603D091F703E881BB
:1006C000F9810084F185E02DCE010995892BB9F3DC
:1006D000E881F9810284F385E02DCE01DF91CF918D
:1006E00009940C946A260C946A260C946A260C943D
:1006F0006A260C946A260C946A260C946A2608953D
:1007000008950C946A26DC01ED91FC9136972081C6
:100710003181820F931F0C948103FB012081318171
:10072000FC0131832083FB0142815381F90136971B
:1007300020813181FC01E20FF31F51834083089532
:100740002CE831E0FC013183208326E931E0318F50
:10075000208F6CE971E00C948D03DC01ED91FC912C
:10076000369720813181820F931F0C94A003CF9381
:10077000DF93EC010E94A003CE01DF91CF910C9496
:100780006A26DC01ED91FC91369720813181820F40
:10079000931F0C94B7030C946A26089508950C9443
:1007A0006A26DC01ED91FC91369720813181820F20
:1007B000931F0C94CF03FB0120813181FC01318315
:1007C0002083FB0142815381F901369720813181D9
:1007D000FC01E20FF31F51834083089524E032E0CF
:1007E000FC01318320832EE032E0358B248B64E1E1
:1007F00072E00C94DB03DC01ED91FC9136972081D3
:100800003181820F931F0C94EE03CF93DF93EC01A1
:100810000E94EE03CE01DF91CF910C946A26DC0199
:10082000ED91FC91369720813181820F931F0C94BA
:1008300005040C946A26CF92DF92EF92FF920F93F9
:100840001F93CF93DF93CDB7DEB7A8970FB6F89479
:10085000DEBF0FBECDBF8C017B01E6E9F3E0659101
:1008600074919E012F5F3F4F6901C9010E944B2780
:10087000F80186811F928F9385811F928F938481C7
:100880008F9383818F93DF92CF921F9288E28F9311
:10089000FF92EF920E948E31F70117A20FB6F894E3
:1008A000DEBF0FBECDBFA8960FB6F894DEBF0FBE59
:1008B000CDBFDF91CF911F910F91FF90EF90DF900F
:1008C000CF900895CF92DF92EF92FF920F931F93F4
:1008D000CF93DF93CDB7DEB7A8970FB6F894DEBFFE
:1008E0000FBECDBF6C018B01E0E9F3E0659174911F
:1008F0009E012F5F3F4F7901C9010E944B27F601EE
:1009000082811F928F93FF92EF921F9288E28F93C2
:100910001F930F930E948E31F80117A20FB6F8941F
:10092000DEBF0FBECDBFA8960FB6F894DEBF0FBED8
:10093000CDBFDF91CF911F910F91FF90EF90DF908E
:10094000CF9008950F931F93CF93DF938C01EB010A
:100950006F3F8FEF780719F480E090E00FC06A30A6
:1009600031F46DE0F801808991890E94C5116C2FE6
:10097000F801808991890E94C511CE01DF91CF9144
:100980001F910F9108958F929F92BF92CF92DF9205
:10099000EF92FF920F931F93CF93DF9300D000D07D
:1009A000CDB7DEB78C014B01C12CD12C7601C2161C
:1009B000D306E406F50644F5F401B1904F01FAE0E0
:1009C000BF120EC06DE0F8018089918929833A83B6
:1009D0004B835C830E94C5115C814B813A812981E4
:1009E0006B2DF8018089918929833A834B835C833D
:1009F0000E94C511FFEFCF1ADF0AEF0AFF0A5C81E0
:100A00004B813A812981D3CFCA01B9010F900F9050
:100A10000F900F90DF91CF911F910F91FF90EF906A
:100A2000DF90CF90BF909F908F9008950895089584
:100A3000FC01DC010D900020E9F79F938F9386E184
:100A400093E09F938F93AE1B1F92AF937F936F930F
:100A50000E948E318DB79EB708960FB6F8949EBF50
:100A60000FBE8DBF08955F926F927F928F929F927B
:100A7000AF92BF92CF92DF92EF92FF920F931F93AC
:100A8000CF93DF93CDB7DEB72D970FB6F894DEBFC7
:100A90000FBECDBF6C014B015A018901FA011082D2
:100AA00060E873E0CE0107960E94B01160E873E041
:100AB000CE0101960E94B011F60161917F0188E795
:100AC000C82E83E0D82E20E090E2592E5C0C38012D
:100AD000F8E06F0E711C61110EC08B859C85892B0F
:100AE00009F466C08F8198852D870E940627F5013D
:100AF00080832D855DC06A3081F35C1471F32230F0
:100B0000C9F028F4222349F0213071F04AC0243082
:100B100041F1A8F02530B9F144C06B32E9F1F6019A
:100B200080816817F1F156C06B32C1F16D33C1F1AC
:100B3000C4012DC06D33A1F1CE01079628C06C32DF
:100B400021F54D81442329F0B80189819A810E94C1
:100B5000180560E873E0CE0101960E94701124E050
:100B600020C06C3291F44D81442329F0B301898176
:100B70009A810E94180560E873E0CE0101960E94F8
:100B8000701125E00EC06C3261F0CE0101962D8708
:100B90000E944E112D8505C021E003C022E001C056
:100BA00023E0F70161917F01FFEFCF1ADF0A93CFB6
:100BB0004D81442389F089819A81B801233039F02D
:100BC000243019F4685F7F4F02C0605F7F4F0E943E
:100BD000180502C010E001C011E0CE0101960E948C
:100BE0009111CE0107960E949111812F2D960FB67B
:100BF000F894DEBF0FBECDBFDF91CF911F910F9153
:100C0000FF90EF90DF90CF90BF90AF909F908F902C
:100C10007F906F905F900895EF92FF920F931F93D4
:100C2000CF93DF93CDB7DEB72C970FB6F894DEBF26
:100C30000FBECDBF7C012FE5E20EF11CD7012C9138
:100C4000261709F498C08C016C9386E0FE01379654
:100C5000DF01282F1D922A95E9F7D801A25ABF4F2C
:100C60002C9130E018870F833A872987DE0111968F
:100C700001900D928A95E1F7F801ED53FF4F8081C5
:100C80009181009769F0DC01ED91FC910480F58180
:100C9000E02D29813A814B815C816D817E810995AE
:100CA000F70180818D3339F140F4863321F18C33A3
:100CB00011F1843309F05DC01EC08234E1F018F4F4
:100CC0008E33C9F056C08035E1F0813509F051C04E
:100CD0000E943016F801EB59FF4F608371838283C5
:100CE000938363E3C8010E940C06F801E759FF4FA4
:100CF00088E893E133C00E943016F801EB59FF4FAA
:100D000034C00E943016F801EB59FF4F60837183A5
:100D1000828393839801255B3F4FD9019C9199234E
:100D2000A1F051968C91E82FF0E0B696EE0FFF1FE0
:100D3000E00FF11F118210828F5F883010F48C93C6
:100D400001C01C929150F901908363E3C8010E9495
:100D50000C06F801E759FF4F88EE93E091838083FA
:100D60000E943016F801EF59FF4F60837183828330
:100D7000938381E001C080E02C960FB6F894DEBF2B
:100D80000FBECDBFDF91CF911F910F91FF90EF90DC
:100D90000895CF92DF92EF92FF920F931F93CF931C
:100DA000DF93CDB7DEB72D970FB6F894DEBF0FBE39
:100DB000CDBF7C012EE5E20EF11CD7012C91261748
:100DC00009F47FC08C016C9386E0FE013796DF0149
:100DD000282F1D922A95E9F718870F8370E07A87EC
:100DE0006987DE01119601900D928A95E1F7F8016D
:100DF000ED53FF4F80819181009769F0DC01ED9107
:100E0000FC910480F581E02D29813A814B815C8140
:100E10006D817E810995F7018081980127593F4FA7
:100E20006901D801AF59BF4F7D018D3081F028F4A1
:100E3000843051F08A30E9F025C0873169F088317B
:100E4000C1F08E30F9F415C080E29EE407C06AE07C
:100E5000C8010E94C9060DC080E395E7F6019183A1
:100E600080830E943016D7016D937D938D939C9360
:100E700013970E943016F801EB59FF4F608371837E
:100E80008283938361EA73E086E294E00E94CC114E
:100E9000CE010D962091ED043091EE04821B930B50
:100EA0000E94DF1482E390E0F601918380830E9428
:100EB0003016D7016D937D938D939C93139781E0AA
:100EC00001C080E02D960FB6F894DEBF0FBECDBFF7
:100ED000DF91CF911F910F91FF90EF90DF90CF9016
:100EE0000895CF93DF93EC016BE00E94C906FE01E9
:100EF000E75BFF4F69E173E0808191810E944E12B0
:100F00000E943016CF59DF4F688379838A839B8391
:100F1000DF91CF910895EF92FF920F931F93CF939C
:100F2000DF93CDB7DEB7C054D1090FB6F894DEBF5A
:100F30000FBECDBF8C0185EE92E09F938F9383E22D
:100F400093E09F938F93CE0101967C019F938F93A3
:100F50000E94BE31F801E75BFF4FB70180819181AC
:100F60000E944E1266E1C8010E94C9060E94301616
:100F7000F801EF59FF4F60837183828393830F9051
:100F80000F900F900F900F900F90C05CDF4F0FB637
:100F9000F894DEBF0FBECDBFDF91CF911F910F91AF
:100FA000FF90EF900895EF92FF920F931F93CF93CE
:100FB000DF93CDB7DEB7C054D1090FB6F894DEBFCA
:100FC0000FBECDBF8C018DE393E09F938F9383E899
:100FD00092E09F938F9386E493E09F938F93CE014B
:100FE00001967C019F938F930E94BE31F801E75BCD
:100FF000FF4FB701808191810E944E126CE0C801C1
:101000000E94C9060E943016F801EF59FF4F608315
:101010007183828393830FB6F894DEBF0FBECDBF7A
:10102000C05CDF4F0FB6F894DEBF0FBECDBFDF91BF
:10103000CF911F910F91FF90EF9008950F931F9301
:10104000CF93DF93EC01FC01E75BFF4F6AE973E0AC
:10105000808191810E946212FE01E759FF4F80ED6D
:1010600097E0918380830E9430168E010F591F4FA5
:10107000F80160837183828393830E943016F801A4
:10108000608371838283938362E0CE01DF91CF918D
:101090001F910F910C94C90608950895EF92FF9245
:1010A0000F931F93CF93DF938C017B01FB01C481CE
:1010B0006C2F86E294E00E943D15D801AC5BBF4FD7
:1010C0009C9180E4891B2C2F8C1708F4282FF701A2
:1010D000C081D18140E050E0622F70E0E92EF12C18
:1010E0004617570754F48991FA01EE0DFF1DE00FE2
:1010F000F11F84834F5F5F4FF3CF622F690F6C93B3
:10110000F801E60FF11D148286E294E0DF91CF91A1
:101110001F910F91FF90EF900C943D150895089545
:1011200008951F93CF93DF93182FC091F603D091AA
:10113000F7038A3041F4E881F9810190F081E02DD4
:101140006DE0CE010995E881F9810190F081E02DF3
:10115000612FCE01099521E030E0019711F420E0E4
:1011600030E0C901DF91CF911F9108952091BF0315
:101170003091C0032817390771F49091BD03809115
:10118000BE03981741F0E091BD03F0E0E556FC4F37
:10119000808190E008958FEF9FEF089508951F9349
:1011A000CF93DF93DC015C962D913C915D972115E7
:1011B000310539F481E090E013969C938E93129759
:1011C0003DC05196ED91FC91529750969C9150974D
:1011D000892F80951FB75E964C915E9741FB7727CC
:1011E00070F941FD6095F8944081772311F0492B07
:1011F00001C048234083E9012197F1F748E050817D
:1012000060FF02C0592B01C058235083E901219788
:10121000F1F76695415099F7772321F09081892362
:10122000808303C08081982B90831FBF5C968D9133
:101230009C915D970197F1F721E030E0C901DF91C2
:10124000CF911F9108952091BF033091C0032817BB
:10125000390769F48091BE032091BD0390E0809628
:10126000821B910960E270E00E942E30089580E0B8
:1012700090E008952091BF033091C00328173907EB
:10128000B9F49091BD038091BE03981789F0E09165
:10129000BD03F0E0E556FC4F80812091BD0330E0B6
:1012A0002F5F3F4F2F7133272093BD0390E00895A8
:1012B0008FEF9FEF0895089580E090E008952F92BA
:1012C0003F924F925F926F927F928F929F92AF92D6
:1012D000BF92CF92DF92EF92FF920F931F93CF9323
:1012E000DF93CDB7DEB7CF54D1090FB6F894DEBF88
:1012F0000FBECDBF6C0125962FAF259726963FAF29
:10130000269727964FAF279728965FAF289729965D
:101310006FAF29972A967FAF2A972DB73EB7609671
:101320003FAF2EAF60972A960EAD1FAD2A97269637
:101330006EAC7FAC269728964EAD5FAD28972C9665
:101340005FAF4EAF2C97DC0116968D919C9117974D
:101350006816790609F0A6C2CA0199278B3591054E
:1013600081F08D35910509F09DC268EB73E086E24E
:1013700094E00E94CC11B80186E294E00E944E12E3
:1013800091C26FEA73E086E294E00E94CC11B8014A
:1013900086E294E00E944E1260E873E0CE01CD96A2
:1013A0000E94B0115E01B9E1AB0EB11C88E1F501FC
:1013B00011928A95E9F79501AE014D5B5F4FBE0131
:1013C000635C7F4FC8010E9433056DE573E09E01A9
:1013D0002F5F3F4F7901C9010E94B011B701CE01C3
:1013E000CD960E94F0108C01C7010E949111012B33
:1013F00009F4C5C161E673E0C7010E94B011B701ED
:10140000CE01CD960E94F0108C01C7010E9491116F
:10141000012B09F0ABC0C5010E94022720E030E09B
:101420004AE754E40E94B72F1B012C019B01AC0139
:10143000D6011E966D917D918D919C9151970E9440
:101440003F2E882309F49BC1F60126863786408A01
:10145000518A20E030E040E450E4C201B1010E9432
:10146000293011E0181684F020E030E040E450E428
:10147000D60152966D917D918D919C9155970E94C8
:10148000293018160CF010E0F60186898113168BAE
:10149000D6011C960D90BC91A02D2E96BFAFAEAF7D
:1014A0002E97A201910115966D917D918D919C9140
:1014B00018970E943F2E882309F461C12E96EEAD45
:1014C000FFAD2E9725823682478250864E01F1E38A
:1014D0008F0E911C86E0D4011D928A95E9F7840154
:1014E00022E042E0C201B1010E94B52520E030E0D7
:1014F00040E251E4C201B1010E943F2E00531109A4
:1015000087FF16C09F928F9285E693E09F938F93FB
:101510001F9288E08F931F930F930E948E31EDB737
:10152000FEB738960FB6F894FEBF0FBEEDBF16C0DB
:101530009F928F9286E693E09F938F931F9288E00D
:101540008F931F930F930E948E312DB73EB7285F64
:101550003F4F0FB6F8943EBF0FBE2DBF40E050E0A6
:10156000B8012E96AEADBFAD2E97BAC06BE673E054
:10157000C7010E94B011B701CE01CD960E94F010B4
:101580008C01C7010E949111012B09F4EDC06FE697
:1015900073E0C7010E94B011B701CE01CD960E9441
:1015A000F0108C01C7010E949111012B09F09FC01E
:1015B000C5010E94022720E030E04AE754E40E947F
:1015C000B72F1B012C019B01AC01F60162897389C5
:1015D000848995890E943F2E882309F4D0C0D601C2
:1015E00052962D923D924D925C92559720E030E0BC
:1015F00040E450E41E966D917D918D919C915197A0
:101600000E94293011E018165CF020E030E040E440
:1016100050E4C201B1010E94293018160CF010E00C
:10162000F60186898113168BD6011C960D911C91AB
:101630001D97A2019101F8016185728583859485CA
:101640000E943F2E882309F49AC0D80119962D9242
:101650003D924D925C921C974E01B1E38B0E911C12
:1016600086E0F40111928A95E9F720E030E040E24B
:1016700051E4C201B1010E943F2E87FF17C09F9223
:101680008F9285E693E09F938F931F9288E08F93CC
:10169000FF92EF920E948E312DB73EB7285F3F4FE9
:1016A0000FB6F8943EBF0FBE2DBF16C09F928F920B
:1016B00086E693E09F938F931F9288E08F93FF922B
:1016C000EF920E948E314DB75EB7485F5F4F0FB605
:1016D000F8945EBF0FBE4DBF42E050E0B701D801A5
:1016E00012968D919C9113970E943A2548C063E70A
:1016F00073E0C7010E94B011B701CE01CD960E94E0
:10170000F0108C01C7010E949111012B69F167E76C
:1017100073E0C7010E94B011B701CE01CD960E94BF
:10172000F0108C01C7010E949111012B41F5C501F8
:101730000E94022720E030E048EC52E40E94B72FDC
:101740001B012C019B01AC01F6016789708D818D15
:10175000928D0E943F2E882339F0D60157962D9204
:101760003D924D925C925A97C5010E940227CE018C
:1017700081960E940227CE0189960E940227249614
:101780001FAD2497112309F489C0198E19A219A637
:1017900068E773E0CE01C7960E94B0116BE2CE01FC
:1017A000C7960E944E1160E772E0CE01C7960E9474
:1017B00061111F921F938BE793E09F938F931F926A
:1017C00084E08F938E010F5C1F4F1F930F930E9435
:1017D0008E316BE2CE01C7960E944E11B801C7014F
:1017E0000E94B0114D815E8169817A81CE01C796D8
:1017F0000E942011C7010E94911160E873E0C801A6
:101800000E94B011EDB7FEB738960FB6F894FEBF40
:101810000FBEEDBF898D882321F0B501C8010E945C
:10182000611189A1882351F06CE2C8010E944E1118
:10183000BE016F5D7F4FC8010E94611189A5882399
:1018400051F06CE2C8010E944E11BE01675D7F4FEE
:10185000C8010E9461118DA99EA9892B69F06DE3D1
:10186000CE01C7960E944E114DA95EA969A97AA919
:10187000CE01C7960E9420114BADB7018FA998AD3C
:101880000E941805C8010E949111CE01C7960E94BE
:1018900091110E94A314B7010E947813CE01CD9636
:1018A0000E949111D60118968D919C9119976816F6
:1018B000790609F09CC02B961FAD2B97612F86E20D
:1018C00094E00E943D1561E01E3008F460E0F601EE
:1018D000838D861721F0638F85E00E947F15123477
:1018E00009F085C0D6011896ED91FC911997828177
:1018F0009381EDB6FEB6DF01A85BBF4F2C9121505E
:1019000030E0A901415051096DB77EB7621B730BDE
:101910000FB6F8947EBF0FBE6DBF0DB71EB70F5F39
:101920001F4F3996D80161E070E0621773072CF4FD
:10193000B190BD926F5F7F4FF8CFF801E40FF51FB4
:101940001082DC01ED91FC910480F581E02D099578
:10195000833019F0843001F145C0C8010E9424276A
:101960004B015C01672B682B692BE1F10E9430165B
:1019700028EE33E040E050E00E944230209397038D
:10198000309398034093990350939A03B2E08B0EDF
:10199000911CA11CB11C1EC0C8010E9424274B0130
:1019A0005C01672B682B692BE9F00E94301628EE4A
:1019B00033E040E050E00E944230209397033093A0
:1019C00098034093990350939A03E2E08E0E911C82
:1019D000A11CB11C8092930390929403A092950352
:1019E000B09296030FB6F894FEBE0FBEEDBED601C0
:1019F00012968D919C9113976816790609F0C4C0D0
:101A0000F30187819085009721F0039709F44EC078
:101A1000BBC06AEC73E086E294E00E94CC11C090F7
:101A20009703D0909803E0909903F0909A03C11423
:101A3000D104E104F104E1F08090930390909403C9
:101A4000A0909503B09096030E943016A5019401D2
:101A50002C193D094E095F0969017A0128EE33E02E
:101A600040E050E00E944230C20ED31EE41EF51E3C
:101A70002AE0B701A60186E294E00E9405126EE713
:101A800073E086E294E00E94F01164EC73E086E279
:101A900094E00E94CC112091ED043091EE04CE012F
:101AA0000196821B930B0E94DF146EC083E090E0CE
:101AB0000E94D5258C0180E191E0D80111969C937C
:101AC0008E938EEF12968C9387E090E00E94D5253E
:101AD000FC01128288E291E0918380838BE991E09E
:101AE000948383838CE585831682F601E084F184F8
:101AF000D701A55BBF4F8C919701245A3F4F6901D5
:101B0000883090F4F9012081280F283008F02770E0
:101B100030E02A5D3F4F220F331FF701E20FF31F22
:101B2000118300838F5F26C0D9012C91C701820FDA
:101B3000911D820F911DFC01E45BFF4F808191811B
:101B400011821082009739F0DC01ED91FC91028046
:101B5000F381E02D0995F6018081E82FF0E0B6963B
:101B6000EE0FFF1FEE0DFF1D118300838F5F883086
:101B700018F4D6018C9302C0F601108261EC73E078
:101B800086E294E00E94621260962EAD3FAD6097AF
:101B90000FB6F8943EBF0FBE2DBFC15BDF4F0FB62F
:101BA000F894DEBF0FBECDBFDF91CF911F910F9193
:101BB000FF90EF90DF90CF90BF90AF909F908F906D
:101BC0007F906F905F904F903F902F9008950C946E
:101BD0006A26FC012081318182819381281739078F
:101BE00019F0822F0C947F150895CF93DF93EC01A9
:101BF0009CB59F7D9CBD9CB5937F9CBD9CB59C7FF7
:101C00009CBD9DB591609DBD8A810E947F158C8988
:101C10009D89DF91CF910C94EB1561E00C94F50D4B
:101C200060E00C94F50D8EBD00000DB407FEFDCFF5
:101C30008EB508951F93CF93DF93EC010E94100E91
:101C400081EE0E94130E182FCE010E940D0E812FDF
:101C5000DF91CF911F910895EF92FF921F93CF9341
:101C6000DF9300D0CDB7DEB77C014A8369830E9441
:101C7000100E6981862F8F7180620E94130E182FBB
:101C80004A81842F0E94130EC7010E940D0E812FDE
:101C90000F900F90DF91CF911F91FF90EF900895DB
:101CA000CF92DF92EF92FF920F931F93CF93DF9328
:101CB00000D01F92CDB7DEB77C01142F2A835B833F
:101CC00069830E94100E6981862F8F7180620E9445
:101CD000130E082FC12E5B81D52E2A81120F1C15E1
:101CE00031F0F60181916F010E94130EF8CFC70108
:101CF0000E940D0E802F0F900F900F90DF91CF91CB
:101D00001F910F91FF90EF90DF90CF900895EF9289
:101D1000FF921F93CF93DF931F92CDB7DEB77C0165
:101D200069830E94100E6981862F8F710E94130EA5
:101D30008FEF0E94130E182FC7010E940D0E812FE6
:101D40000F90DF91CF911F91FF90EF900895EF9248
:101D5000FF920F931F93CF938C017B0166E00E944B
:101D6000870EC82FC77D82E0E816F10431F4C06207
:101D70008BE990E0A0E0B0E00DC0EA94EF2829F0F4
:101D800085E590E0A0E0B0E005C0C86081E490E0A7
:101D9000A0E0B0E0F801808B918BA28BB38B4C2F2D
:101DA00066E0C8010E942C0E66E0C8010E94870E02
:101DB00091E08C1390E0892FCF911F910F91FF90AC
:101DC000EF900895CF93DF93EC0160E00E94870EBF
:101DD00081FD0EC0482F426060E0CE010E942C0EB3
:101DE00065E070E080E090E0DF91CF910C94F61513
:101DF000DF91CF9108951F920F920FB60F92112489
:101E00002F933F934F935F936F937F938F939F9302
:101E1000AF93BF93EF93FF93E091BF03F091C003A3
:101E2000309709F451C0968DA685B785858591FFB9
:101E300004C09C91892329F447C09C91892309F00F
:101E400043C0A389B4899C918589809589238C930B
:101E5000868997890197F1F7608D718DA685B78581
:101E6000558538E020E0CB010197F1F7822F90E013
:101E700095958795282F4C91452309F0206831507E
:101E800091F7868D81FD20958091BE0390E00196AB
:101E90008F7199273091BD03381749F0A091BE0387
:101EA000B0E0A556BC4F2C938093BE0303C0868D33
:101EB0008160868F828D938D0197F1F7A389B48914
:101EC0009C918589892B8C93FF91EF91BF91AF9164
:101ED0009F918F917F916F915F914F913F912F9142
:101EE0000F900FBE0F901F9018950895CF92DF921C
:101EF000EF92FF920F931F93CF93DF936C017A01C0
:101F00008B01C0E0D0E0CE15DF0589F0D8016D91DE
:101F10008D01D601ED91FC910190F081E02DC6017B
:101F20000995892B11F47E0102C02196ECCFC701DF
:101F3000DF91CF911F910F91FF90EF90DF90CF90A5
:101F40000895FC01538D448D252F30E0842F90E0BF
:101F5000821B930B541710F0CF96089501970895A4
:101F6000FC01918D828D981761F0828DDF01A80FA1
:101F7000B11D5D968C91928D9F5F9F73928F90E0C3
:101F800008958FEF9FEF0895FC01918D828D981732
:101F900031F0828DE80FF11D858D90E008958FEF6F
:101FA0009FEF0895FC01918D228D892F90E0805C38
:101FB0009F4F821B91098F739927089586E294E0C1
:101FC0000E94D20F21E0892B09F420E0822F08958E
:101FD000FC01848DDF01A80FB11DA35ABF4F2C91C6
:101FE000848D90E001968F739927848FA689B78995
:101FF0002C93A089B1898C9180648C93938D848D6E
:10200000981306C00288F389E02D80818F7D80833C
:102010000895EF92FF920F931F93CF93DF93EC01FC
:1020200081E0888F9B8D8C8D981305C0E889F98994
:10203000808185FD24C0F62E0B8D10E00F5F1F4FB1
:102040000F731127E02E8C8DE8120CC00FB607FC21
:10205000FACFE889F989808185FFF5CFCE010E940A
:10206000E80FF1CF8B8DFE01E80FF11DE35AFF4F12
:10207000F0820B8FEA89FB898081806207C0EE893C
:10208000FF896083E889F98980818064808381E0A9
:1020900090E0DF91CF911F910F91FF90EF90089505
:1020A000CF93DF93EC01888D8823C9F0EA89FB89FF
:1020B000808185FD05C0A889B9898C9186FD0FC0F6
:1020C0000FB607FCF5CF808185FFF2CFA889B989CB
:1020D0008C9185FFEDCFCE010E94E80FE7CFDF9115
:1020E000CF91089580E090E0892B29F00E94DE0FC7
:1020F00081110C94000008950E9448310C946A26C6
:102100000C946A260C946A260F931F93CF93DF9347
:10211000EC0188819981009729F02A813B8126175B
:10212000370788F48B016F5F7F4F0E947E300097E6
:1021300061F0998388831B830A832C813D81232B43
:1021400011F4FC01108281E001C080E0DF91CF91A9
:102150001F910F910895EF92FF920F931F93CF93CA
:10216000DF93EC017B018A01BA010E94841028816F
:10217000398181110DC02115310519F0C9010E9465
:102180006A26198218821D821C821B821A8206C04E
:102190001D830C83B701C9010E945F31CE01DF911D
:1021A000CF911F910F91FF90EF900895CF93DF9300
:1021B000FC0124813581232B71F0FB01DC01CD91E1
:1021C000DC9160817181CE010E947431009719F019
:1021D0008C1B9D0B02C08FEF9FEFDF91CF91089575
:1021E000CF93DF93DC01ED91FC91EB01A881B981E4
:1021F000309711F01097C9F4109759F0EB012C812A
:102200003D81232B31F08C9190E09195819591093E
:1022100014C0309781F0DC0114968D919C91159734
:10222000892B49F0808190E008C0BD01CF01DF918A
:10223000CF910C94563180E090E0DF91CF910895DA
:10224000EF92FF920F931F93CF93DF93FC012481B2
:1022500035816115710511F480E019C041155105F2
:10226000A9F07B01EC018A01020F131FB8010E9443
:102270008410882389F3288139818C819D81B7015D
:10228000820F931F0E945F311D830C8381E0DF91D9
:10229000CF911F910F91FF90EF900895CF93DF930F
:1022A00000D0CDB7DEB769831A8241E050E0BE01AD
:1022B0006F5F7F4F0E9420110F900F90DF91CF91A1
:1022C00008956115710551F0FB0101900020E9F7B7
:1022D0003197AF01461B570B0C94201180E00895F5
:1022E000CF93DF93EC016115710559F0FB0101906B
:1022F0000020E9F73197AF01461B570B0E94AB1046
:102300000CC088819981009711F00E946A26198279
:1023100018821D821C821B821A82CE01DF91CF910E
:102320000895FC01808191810C946A26FB01DC01F7
:1023300011961C921E9213961C921E92129715963D
:102340001C921E9214978617970749F0608171813D
:102350006115710521F0448155810C94AB100895ED
:10236000FC0111821082138212821582148261157F
:10237000710551F0FB0101900020E9F73197AF01A1
:10238000461B570B0C94AB100895DC01ED91FC91AA
:102390000190F081E02D0994EF92FF920F931F932B
:1023A000CF93DF938C017B01C0E0D0E0F701EC0F0D
:1023B000FD1F6491662361F0D801ED91FC910190BD
:1023C000F081E02DC8010995892B11F02196EECFFF
:1023D000CE01DF91CF911F910F91FF90EF90089563
:1023E0006115710579F0FB0101900020E9F7319743
:1023F000AF01461B570BDC01ED91FC910280F3818C
:10240000E02D099480E090E008954F925F926F92E2
:102410007F92EF92FF920F931F93CF93DF93CDB7ED
:10242000DEB7A1970FB6F894DEBF0FBECDBF7C011B
:10243000FA01CB0119A2223008F42AE08E010F5DC7
:102440001F4F422E512C612C712CBF01A301920110
:102450000E944230F901CA01015011096A3014F496
:10246000605D01C0695CD8016C93232B242B252B64
:1024700061F7B801C7010E94F011A1960FB6F89458
:10248000DEBF0FBECDBFDF91CF911F910F91FF90A7
:10249000EF907F906F905F904F9008950F931F93F0
:1024A000CF93DF93EC010E94F0118C016EE773E093
:1024B000CE010E94F011800F911FDF91CF911F91EB
:1024C0000F9108950F931F93CF93DF93EC010E9418
:1024D000CC118C016EE773E0CE010E94F011800FE9
:1024E000911FDF91CF911F910F9108951F920F922D
:1024F0000FB60F9211242F933F934F935F936F93D7
:102500007F938F939F93AF93BF93EF93FF9386E255
:1025100094E00E94E80FFF91EF91BF91AF919F91DE
:102520008F917F916F915F914F913F912F910F907C
:102530000FBE0F901F9018951F920F920FB60F921B
:1025400011242F938F939F93EF93FF93E091360481
:10255000F09137048081E0913C04F0913D0482FDCC
:1025600012C0908180913F048F5F8F73209140044F
:10257000821751F0E0913F04F0E0EA5DFB4F958F48
:1025800080933F0401C08081FF91EF919F918F91D3
:102590002F910F900FBE0F901F901895CF93DF9340
:1025A00000D000D000D0CDB7DEB7FC018185928588
:1025B0000097B1F02E2FFA83E983628170E0462FF5
:1025C0007C836B8337966E2FFE83ED83DC01ED9168
:1025D000FC910480F581E02D3A815C817E81099532
:1025E00026960FB6F894DEBF0FBECDBFDF91CF9118
:1025F0000895089508950895CF93DF93DB01EC01CA
:102600008CAD9DAD0097C1F0EC01E881F9810480AB
:10261000F581E02D2C9111963C91119712964C91D9
:10262000129713965C91139714966C9114971596C4
:102630007C91DF91CF910994DF91CF9108950F9311
:102640001F93CF93DF93FC01248D223018F0258D4A
:10265000222311F080E047C08C01EC012296CE01CC
:102660000E94E20E60E0CE010E94870E482F41607A
:1026700060E0CE010E942C0E40E767E0CE010E9490
:102680002C0E61E0CE010E94E90DF80183858823BC
:1026900051F0F8012089A801455F5F4F6AE0CE0143
:1026A0000E94500E14C062E0CE010E94870EE7E542
:1026B000F2E0E49121E030E001C0220FEA95EAF770
:1026C0002095422F482362E0CE010E942C0E6DE13E
:1026D000CE010E94870E81FF03C0CE010E941A0E18
:1026E00081E0F801858FDF91CF911F910F910895BF
:1026F0006F927F929F92AF92BF92CF92DF92EF92B2
:10270000FF920F931F93CF93DF9300D000D000D0A0
:10271000CDB7DEB77C015B01DC015A969C905A97DD
:10272000992009F4AFC05B969C905B97992009F4BF
:10273000A9C05C968C91823010F4912CA3C0D70173
:102740005D968C9187010E5F1F4F811164C0F5016A
:1027500001900020E9F7D7011996DC90CE2ECA1817
:10276000DC1408F4CD2CF7018285811102C0DC183D
:1027700001C0D12CC8010E94100E80EA0E94130EE5
:102780003501CA0CC61431F0D3018D913D010E9470
:10279000130EF8CFDD2029F080E00E94130EDA94AA
:1027A000F9CFC8010E940D0E61E0C8010E94E90D39
:1027B000C8010E94100E8FEF0E94130ED82EC80180
:1027C0000E940D0E8D2D807399F360E0C8010E9468
:1027D000E90D40E767E0C8010E942C0E84FF04C0A9
:1027E000C8010E941A0E912CBE016F5F7F4F86E0D8
:1027F000FB0111928A95E9F78DE590E09C838B832C
:10280000FA82E982BE82AD82C7010E94FC12C70132
:102810000E941F1337C060E0C8010E94E90DF70154
:10282000828993890E94EB156DE1C8010E94870E91
:1028300081FF08C0F701828993890E94EB15C801C6
:102840000E941A0E60E0C8010E94870E482F4E7F3A
:1028500060E0C8010E942C0E62E0C8010E94870E51
:10286000E7E5F2E0E49141E050E001C0440FEA9571
:10287000EAF7482B62E0C8010E942C0ED7015D9652
:102880001C9265CF892D26960FB6F894DEBF0FBE39
:10289000CDBFDF91CF911F910F91FF90EF90DF900F
:1028A000CF90BF90AF909F907F906F9008950F93BF
:1028B0001F93CF93DF9300D000D000D0CDB7DEB709
:1028C0008C01BE016F5F7F4F86E0FB0111928A95FC
:1028D000E9F78AE590E09C838B831A830983C8011A
:1028E0004C969E838D83C8010E94FC12F801848D52
:1028F0008E3119F4F801168E11C095EF980F9330B0
:10290000A8F4F80183A1882331F0B8016D5D7F4FF1
:10291000C8010E94781381E0F801868F0E9430166A
:10292000F801678F70A381A392A302C08A3011F3CC
:1029300026960FB6F894DEBF0FBECDBFDF91CF91C4
:102940001F910F9108958091BB039091BC03892B37
:1029500089F58EE390E00E94D525FC0184E391E0A7
:102960009183808389E090E0938382838AE090E082
:1029700095838483108680E28187128685E0808B30
:1029800085E090E0A0E0B0E0868B978BA08FB18FC0
:102990001386128E81E0838F148E158E168E178EFD
:1029A00010A211A212A213AE15AE14AEF093BC0386
:1029B000E093BB038091BB039091BC030895CF9239
:1029C000DF92EF92FF92CF93DF936C01990FEE08A5
:1029D000FF08F7FE16C06DE286E294E00E94C51182
:1029E000EC0144275527BA014C195D096E097F098E
:1029F0002AE086E294E00E9405127C01EC0EFD1EA6
:102A000008C02AE0B701A60186E294E00E94051200
:102A10007C016EE773E086E294E00E94F0118E0D77
:102A20009F1DDF91CF91FF90EF90DF90CF900895A1
:102A30003FB7F8948091CC039091CD03A091CE0341
:102A4000B091CF0326B5A89B05C02F3F19F0019682
:102A5000A11DB11D3FBFBA2FA92F982F8827820F24
:102A6000911DA11DB11DBC01CD0142E0660F771F74
:102A7000881F991F4A95D1F708950F931F93CF93FD
:102A8000DF93EC01462F50E060E070E02AE00E9406
:102A900005128C016EE773E0CE010E94F011800FE9
:102AA000911FDF91CF911F910F910895833081F095
:102AB00028F4813099F08230A1F008958730A9F090
:102AC0008830B9F08430D1F4809180008F7D03C0CC
:102AD000809180008F7780938000089584B58F77F0
:102AE00002C084B58F7D84BD08958091B0008F773A
:102AF00003C08091B0008F7D8093B00008951F9334
:102B0000CF93DF93282F30E0F901E95EFB4F8491EA
:102B1000F901E750FC4FD491F901EB51FC4FC491FE
:102B2000CC23C9F0162F81110E945615EC2FF0E02E
:102B3000EE0FFF1FEF52FC4FA591B4918FB7F894A1
:102B4000111105C09C91ED2FE095E92302C0EC9195
:102B5000ED2BEC938FBFDF91CF911F910895CF9311
:102B6000DF9390E0FC01E750FC4F2491FC01EB5116
:102B7000FC4F8491882361F190E0880F991FFC013C
:102B8000E35FFB4FC591D491FC01EF52FC4FA5913F
:102B9000B491611109C09FB7F89488812095822370
:102BA0008883EC912E230BC0623061F49FB7F894B8
:102BB0003881822F809583238883EC912E2B2C9350
:102BC0009FBF06C08FB7F894E8812E2B28838FBF54
:102BD000DF91CF9108958230910538F0880F991FC9
:102BE000880F991F05970197F1F708958F929F928B
:102BF000AF92BF92CF92DF92EF92FF926B017C0176
:102C00000E9418154B015C01C114D104E104F104C8
:102C1000F1F00E941815DC01CB0188199909AA0965
:102C2000BB09883E9340A105B10570F321E0C21AAB
:102C3000D108E108F10888EE880E83E0981EA11CF7
:102C4000B11CC114D104E104F10419F7DDCFFF90E8
:102C5000EF90DF90CF90BF90AF909F908F900895AE
:102C60002FB7F8946091C8037091C9038091CA038B
:102C70009091CB032FBF08951F920F920FB60F9222
:102C800011242F933F938F939F93AF93BF93809182
:102C9000C8039091C903A091CA03B091CB033091AE
:102CA000C70323E0230F2D3720F40196A11DB11D8A
:102CB00005C026E8230F0296A11DB11D2093C7036E
:102CC0008093C8039093C903A093CA03B093CB0326
:102CD0008091CC039091CD03A091CE03B091CF030E
:102CE0000196A11DB11D8093CC039093CD03A093B9
:102CF000CE03B093CF03BF91AF919F918F913F913E
:102D00002F910F900FBE0F901F901895CF93DF93C8
:102D1000CDB7DEB7C957D1090FB6F894DEBF0FBEE5
:102D2000CDBF789484B5826084BD84B5816084BD54
:102D300085B5826085BD85B5816085BD80916E0059
:102D4000816080936E00109281008091810082608A
:102D500080938100809181008160809381008091C7
:102D600080008160809380008091B10084608093B6
:102D7000B1008091B00081608093B00080917A00B2
:102D8000846080937A0080917A00826080937A00D8
:102D900080917A00816080937A0080917A008068C7
:102DA00080937A001092C10061E085E00E94AF1527
:102DB00061E087E00E94AF1561E086E00E94AF15F8
:102DC000E0913604F091370482E08083E091320490
:102DD000F09133041082E0913404F091350480E1E5
:102DE000808310923E04E0913A04F0913B0486E027
:102DF0008083E0913804F091390480818061808380
:102E0000E0913804F0913904808188608083E091FA
:102E10003804F0913904808180688083E09138041F
:102E2000F091390480818F7D8083E091D603F09109
:102E3000D703309721F084ED93E09287818700914A
:102E4000DA031091DB030115110539F084ED93E0ED
:102E5000D801DD969C938E93DC97E091DC03F09192
:102E6000DD03309759F0ED53FF4F80819181845DF0
:102E7000934021F084ED93E091838083F801828D6B
:102E8000882341F0848D823028F0838D882311F4CB
:102E90000C948120E090DA03F090DB0387010E5F51
:102EA0001F4FD70112968D919C91139714962D91D7
:102EB0003C9115978217930719F061E00E94AF15B6
:102EC000F70184819581228133812817390719F010
:102ED00061E00E94AF15DFB6F894809192038111F2
:102EE00027C0EFEEF3E08491E3E0F4E09491E82F63
:102EF000F0E0EE0FFF1FE35FFB4FA591B491EC9163
:102F0000E92321F461E08AE00E947F1561E08AE014
:102F10000E94AF158CB580618CBD8CB580648CBD72
:102F200061E08DE00E94AF1561E08BE00E94AF157B
:102F3000809192038F5F80939203DFBE60E0C801AF
:102F40000E94E90D61E0C8010E94F50D65E070E0A6
:102F500080E090E00E94F6154CE060E0C8010E941D
:102F60002C0E4FE564E0C8010E942C0E62E070E078
:102F7000C8010E94A70E882321F081E0D70118968E
:102F80008C9366E0C8010E94870ED82E60E070E046
:102F9000C8010E94A70EC8010E94100E80E50E9481
:102FA000130E83E70E94130EC8010E940D0E40E02D
:102FB0006DE1C8010E942C0E40E06CE1C8010E9446
:102FC0002C0EF701128640E767E0C8010E942C0E24
:102FD0004CE465E0C8010E942C0EC8010E94100E4E
:102FE00082EE0E94130EC8010E940D0EC8010E94BD
:102FF0001A0EC8010E94E20E60E0C8010E94870E0E
:10300000482F4E7F60E0C8010E942C0E8FEF8D0D7F
:103010008E3F08F09FC044EA64E0C8010E942C0E75
:1030200040E06DE1C8010E942C0E40E06CE1C80157
:103030000E942C0ED7011A961C921A9788E11996B5
:103040008C93199781E062968FAF629763961FAE5B
:10305000639764961FAE649765961FAE65976696F4
:103060001FAE669767961FAE679768961FAE689704
:1030700069961FAE699750962C91AE014F5A5F4FDB
:103080006AE0C8010E94500EF7012089AE014F5A34
:103090005F4F60E1C8010E94500ED70119964C9114
:1030A00061E1C8010E942C0E42E0D42E2A96DFAEC8
:1030B0002A972B961FAE2B972C961FAE2C972D96EA
:1030C0001FAE2D972E961FAE2E972F961FAE2F97C1
:1030D00060961FAE609761961FAE6197E4E6F2E0DE
:1030E0006491F7012089AE01475B5F4FC8010E94E0
:1030F000500EEEE5F2E06491D70119964C91C801AB
:103100000E942C0E62E0C8010E94870EE8E5F2E002
:10311000E49141E050E001C0440FEA95EAF7482B02
:1031200062E0C8010E942C0E66E0C8010E94870E72
:10313000887F482F436066E0C8010E942C0E62E041
:1031400070E0C8010E94A70EF701848D823071F0F3
:10315000D48E09C0D7015C968C915C97813031F098
:1031600081E05C968C93C7010E9457148091DA032A
:103170009091DB030E941F13E091DA03F091DB03CF
:10318000828D811102C081E0828F8091DC03909159
:10319000DD03FC01E35AFF4F2081213011F021E0D3
:1031A0002083FC01E15AFF4F2081233318F463E3AD
:1031B0000E940C0661E085E00E947F1561E087E0D7
:1031C0000E947F1561E086E00E947F156AEF70E043
:1031D00080E090E00E94F61560E085E00E947F1597
:1031E00060E087E00E947F1560E086E00E947F1526
:1031F00063E872E086E294E00E94621267E772E0A0
:1032000086E294E00E94CC118091ED049091EE044E
:10321000FE0131965F019F01281B390BC9010E94F5
:10322000DF148E010F5C1F4FCE018B599F4FAE965E
:103230009FAF8EAFAE97E090DA03F090DB03D7013B
:103240005A968C915A97882309F46AC05C968C919F
:10325000823008F465C04701B2E08B0E911C67E133
:10326000C4010E94870E80FF5CC72DC0C4010E946C
:103270000D0E40E767E0C4010E942C0E2A961FAE97
:103280002A9786E0AE96EEADFFADAE9711928A9585
:10329000E9F78BE590E0A9969FAF8EAFA997A79627
:1032A000FFAEEEAEA797AB961FAF0EAFAB97BE01CA
:1032B0006B597F4FC7010E94FC12D7015C968C911D
:1032C000823008F057C7D7015C968C915C9795EFD8
:1032D000980F943028F55E969C919130C1F40E942D
:1032E0003016F701478C50A061A072A0DC01CB0121
:1032F00084199509A609B70981389105A105B10579
:1033000078F0848D8D3060F482E0868F09C0923031
:1033100039F48F5FD7015C968C93C7010E945714D4
:10332000E090DC03F090DD039701275B3F4FE096D0
:103330003FAF2EAFE097D9018D919C91DC01ED91CB
:10334000FC910084F185E02D0995892B09F415C4C1
:103350009701225A3F4FE4963FAF2EAFE4972F5F7D
:103360003F4FE6963FAF2EAFE697265F3F4FE8967A
:103370003FAF2EAFE89728503109EA963FAF2EAF06
:10338000EA97265F3F4FE2963FAF2EAFE2971701D5
:1033900030E6230E311CE096AEADBFADE0978D91C7
:1033A0009C91DC01ED91FC910084F185E02D099563
:1033B000181619060CF0E1C3E096EEADFFADE097EC
:1033C000808091803501C12CD12C0E943016D4010F
:1033D00018966D937D938D939C931B97D401ED91DB
:1033E000FC910284F385E02DC401099597FD04C08A
:1033F0008A309105C1F421C00E943016F401208565
:10340000318542855385DC01CB01821B930BA40BD4
:10341000B50B248135814681578182179307A40714
:10342000B507E0F20AC0D3018D933D01BFEFCB1A7F
:10343000DB0AE0E3CE16D10441F6CD2809F4ABCF88
:10344000B501CE01875A9F4F0E94B0116B966EACAA
:103450007FAC6B976114710409F448C06F96CEACD1
:10346000DFAC6F97C114D10409F440C023014201BD
:10347000FFEF4F1A5F0AD4018C91082E000C990BB4
:103480000E946B2D892B99F7B1E0CB1AD108C60C9D
:10349000D71CD6018C91082E000C990B0E946B2D25
:1034A000892B91F4BFEFCB1ADB0AA6014819590901
:1034B0006F965FAF4EAF6F976814790460F4B401F4
:1034C000C3010E944D3107C0C814D90458F3E1E08C
:1034D000CE1AD108DECF6B96EEADFFAD6B976F962F
:1034E0008EAD9FAD6F97E80FF91F10826F968EAD6E
:1034F0009FAD6F97892B09F435C362EA72E086E2CB
:1035000094E00E94CC116B966EAD7FAD6B9786E216
:1035100094E00E944E12E496AEADBFADE497EC91FC
:103520008E2F90E08931910508F097C1FC01EC5C89
:10353000FF4F0C9464306DED72E0C8010E94B01131
:10354000B801CE01875A9F4F0E94F0106C01C8014C
:103550000E949111CD2809F005C361E013C06DED03
:1035600072E0C8010E94B011B801CE01875A9F4F86
:103570000E94F0106C01C8010E949111CD2809F041
:10358000F1C264E0C7010E94C906ECC26DED72E0B1
:10359000C8010E94B011B801CE01875A9F4F0E9406
:1035A000F0106C01C8010E949111CD2861F4F10165
:1035B00080818F3411F46EE001C06AE0C7010E947F
:1035C000C906D1011C926BE772E0C8010E94B011DC
:1035D000B801CE01875A9F4F0E94D6106C01C801D6
:1035E0000E949111D7FC18C063E872E0C8010E94E4
:1035F000B011B801CE01875A9F4F0E94D6106C01BE
:10360000C8010E9491111C141D0414F48FE464C0BD
:1036100086E4D1018C93A6C264E972E0C8010E94DD
:10362000B011B801CE01875A9F4F0E94D6106C018D
:10363000C8010E949111D7FC95C26AE0C7010E949F
:10364000C906C7010E94D3078DC26DED72E0C801A3
:103650000E94B011B801CE01875A9F4F0E94F0100E
:10366000892B31F4DD24D394F1018081893409F070
:10367000D12CC8010E949111DD2039F06EE0C70104
:103680000E94C906D1011C9215C066EB72E0C80108
:103690000E94B011B801CE01875A9F4F0E94D610E8
:1036A0006C01C8010E949111D7FC04C06DE0C701F4
:1036B0000E94C90664E772E0C8010E94B011B80117
:1036C000CE01875A9F4F0E94D6106C01C8010E94FC
:1036D0009111D7FC47C289E4F101808343C264E7BA
:1036E00072E0C8010E94B011B801CE01875A9F4F05
:1036F0000E94D6106C01C8010E949111D7FC32C201
:103700006EE040CFD1018C91893199F46DED72E07A
:10371000C8010E94B011B801CE01875A9F4F0E9484
:10372000F0106C01C8010E949111CD2811F468E1DC
:1037300012C06BE972E0C8010E94B011B801CE015D
:10374000875A9F4F0E94F0106C01C8010E9491118E
:10375000CD2829F464E1C7010E94C9063CC062EA91
:1037600072E0C8010E94B011B801CE01875A9F4F84
:103770000E94D6106C01C8010E949111D7FC02C0B2
:1037800088E127C066EA72E0C8010E94B011B80162
:10379000CE01875A9F4F0E94F0106C01C8010E9411
:1037A0009111CD2821F489E1D1018C9314C06EEAE6
:1037B00072E0C8010E94B011B801CE01875A9F4F34
:1037C0000E94D6106C01C8010E949111D7FC03C061
:1037D0008AE1F10180836BEB72E0C8010E94B011B5
:1037E0004DA95EA96F968EAD9FAD6F978417950713
:1037F00088F06B968EAD9FAD6B97009759F069A9D5
:103800007AA96115710531F00E946631DD24D394E7
:10381000892B09F0D12CC8010E949111DD20E9F01B
:10382000D1018C91883111F468E114C067E112C0B4
:103830006BE972E0C8010E94B011B801CE01875A4D
:103840009F4F0E94F0106C01C8010E949111CD2879
:1038500021F464E1C7010E94C906E496EEADFFAD14
:10386000E49780818E3038F164E772E0C8010E94ED
:10387000B011B801CE01875A9F4F0E94F0106C0121
:10388000C8010E949111CD28B1F46EE0C7010E94D9
:10389000C9068AEF90E0E896AEADBFADE8978D938C
:1038A0009C930E943016EA96EEADFFADEA976083D6
:1038B0007183828393836FEB72E0C8010E94B01121
:1038C000B801CE01875A9F4F0E94D6106C01C801E3
:1038D0000E949111D7FC04C06AE0C7010E94C9068A
:1038E000E696AEADBFADE6978C91833308F417C171
:1038F00094EC980F943108F0ADC08D3309F45DC09D
:103900008E3309F486C08C3309F009C169EC72E08A
:10391000C8010E94B011B801CE01875A9F4F0E9482
:10392000D6106C01C8010E949111D7FCF8C089E043
:103930008C0D90E06C01B3E0CB0ED11C4C01C8148F
:10394000D90410F446016C0160E873E0C8010E94DC
:10395000B0116F968EAD9FAD6F9788169906E8F4FB
:103960008C159D0508F46C016B96EEADFFAD6B9761
:10397000EC0DFD1D708010826B966EAD7FAD6B9768
:10398000680D791DC8010E9470116B968EAD9FADB8
:103990006B97FC01EC0DFD1D708289A99AA90E940C
:1039A00006279927F701978386836DE3C7010E9455
:1039B0000C06C8010E949111B2C062ED72E0C8010C
:1039C0000E94B011B801CE01875A9F4F0E94D610B5
:1039D0006C01C8010E949111D7FC12C0BE01675A48
:1039E0007F4FC8010E949611B801C70104960E943A
:1039F0004E08C8010E9491116EE3C7010E940C0697
:103A0000E696AEADBFADE6978C918E3309F087C0D8
:103A10000EC0BE01675A7F4FC8010E949611B801BF
:103A2000C70104960E944E08C8010E94911164EDDE
:103A300072E0C8010E94B011B801CE01875A9F4FB1
:103A40000E94D6106C01C8010E949111D7FC67C07A
:103A500062E462C0853321F0863309F44BC05FC055
:103A600066ED72E0C8010E94B011B801CE01875A1C
:103A70009F4F0E94D6106C01C8010E949111D7FC83
:103A80004EC066E3C7010E940C06F7018281938154
:103A9000892BD1F067E972E086E294E00E9462121D
:103AA000E2966EAD7FADE29786E294E00E944E1200
:103AB000E2966EAD7FADE297E096AEADBFADE0971A
:103AC0008D919C910E94F011E296EEADFFADE297D0
:103AD000108269E872E086E294E00E94CC11809145
:103AE000ED049091EE049801281B390BC9010E9446
:103AF000DF1415C068ED72E0C8010E94B011B80172
:103B0000CE01875A9F4F0E94F0106C01C8010E949D
:103B10009111CD2821F46CE3C7010E940C0660EEE0
:103B200072E0C8010E94B011B801CE01875A9F4FC0
:103B30000E94D6106C01C8010E949111D7FC12C0DE
:103B400080ED97E0E896AEADBFADE8978D939C937E
:103B50000E943016EA96EEADFFADEA97608371835E
:103B60008283938380E3D5011D928A95E9F7CE0184
:103B7000875A9F4F0E9491110ECCF701E35AFF4FD5
:103B80008081882309F497C26701B9E6CB0ED11C66
:103B9000F60180819181892B39F10E94301647010D
:103BA000F1E68F0E911CD4014D905D906D907C904C
:103BB000AB01BC014419550966097709F6018081FA
:103BC0009181A0E0B0E084179507A607B70708F039
:103BD00072C20E943016D4016D937D938D939C9395
:103BE0001397F601118210824701FEE58F0E911C9A
:103BF000D401EC918E2F90E08931910508F024C119
:103C0000FC01E35BFF4F0C946430C7010E941E0867
:103C10001BC10E9430163701B1E66B0E711CF30117
:103C20002081318142815381DC01CB01821B930BC6
:103C3000A40BB50B813A9F40A105B10508F404C15E
:103C400063E09AC00E9430163701B1E66B0E711C1A
:103C5000F3012081318142815381DC01CB01821B40
:103C6000930BA40BB50B813A9F40A105B10508F455
:103C7000EBC0C7010E941E08DFC00E94301637014A
:103C8000B1E66B0E711CF3012081318142815381B9
:103C9000DC01CB01821B930BA40BB50B81349F413C
:103CA000A105B10508F4D0C0C7010E94D307C4C064
:103CB0000E9430163701B1E66B0E711CF3012081B2
:103CC000318142815381DC01CB01821B930BA40B18
:103CD000B50B89389341A105B10508F4B5C0ACC056
:103CE0000E9430163701B1E66B0E711CF301208182
:103CF000318142815381DC01CB01821B930BA40BE8
:103D0000B50B80389E43A105B10508F49DC06DE058
:103D100033C00E94301698C00E9430163701B1E6B9
:103D20006B0E711CF3012081318142815381DC01D2
:103D3000CB01821B930BA40BB50B80339547A105D8
:103D4000B10508F481C075C00E9430163701B1E694
:103D50006B0E711CF3012081318142815381DC01A2
:103D6000CB01821B930BA40BB50B80319742A105AD
:103D7000B10508F469C067E1C7010E94C9065CC0CB
:103D80000E9430163701B5E66B0E711CF3012081DD
:103D9000318142815381DC01CB01821B930BA40B47
:103DA000B50B80339547A105B10508F44DC0C70197
:103DB0000E948B0741C00E9430163701B5E66B0E9A
:103DC000711CF3012081318142815381DC01CB01DF
:103DD000821B930BA40BB50B80319742A105B10553
:103DE00098F162ED72E0E096AEADBFADE0978D91D7
:103DF0009C910E9462120E943016F30160837183CD
:103E00008283938321C00E9430163701F1E66F0E42
:103E1000711CD3012D913D914D915C91DC01CB0141
:103E2000821B930BA40BB50B80339547A105B105FD
:103E300058F0C7010E9471070E943016D3016D939C
:103E40007D938D939C931397F701E15AFF4F8081E7
:103E5000853309F4CFC018F4833341F02CC1863385
:103E600009F4E0C08C3309F400C125C1F701E55B1A
:103E7000FF4F8081882309F41EC1F40180818831BD
:103E800009F0AEC0F701E45AFF4FE081F0E0B696CA
:103E9000EE0FFF1FEE0DFF1DC080D180C114D104B5
:103EA00009F498C0D7011396DC92CE921297F701CD
:103EB000E559FF4FC7018D539F4F7E2E6F2E20E394
:103EC0002193E817F907E1F7D601ED91FC910680FF
:103ED000F781E02DB501C6010995582ED601ED9167
:103EE000FC910480F581E02DC60109958150833055
:103EF00048F4E82FF0E0EE0FFF1FEA5FFE4F40802E
:103F0000318002C0412C312C8DB69EB6EDB7FEB784
:103F1000E855F1090FB6F894FEBF0FBEEDBF2DB7FF
:103F20003EB72F5F3F4F6901E0EBF2E0659174917E
:103F3000C9010E944B27BF92AF921F925F9285EEFC
:103F400092E09F938F93BF92AF923F924F9282EFF6
:103F500092E09F938F93DF92CF921F9288E58F9389
:103F60006F927F920E948E31D82EF701EE53FF4F51
:103F700010820FB6F8949EBE0FBE8DBE62E070E058
:103F800080E090E00E94F61566EC72E0E096AEAD3F
:103F9000BFADE0978D919C910E94CC116D2DE09664
:103FA000EEADFFADE097808191810E943D1568EBF9
:103FB00072E086E294E00E94621265E3C7010E940B
:103FC0000C060E943016F701EB59FF4F6083718396
:103FD000828393830E943016F701EB59FF4F67C02D
:103FE000873109F468C08E3008F465C0C7010E94AB
:103FF0008B0761C00E9430166701F5E6CF0ED11C19
:10400000D6014D905D906D907C90DC01CB018419C0
:104010009509A609B70989399A43A105B10508F49C
:104020004AC016C00E9430166701B5E6CB0ED11CFF
:10403000F6014080518062807380DC01CB018419DD
:104040009509A609B70989399A43A105B10598F1DF
:1040500063E3C7010E940C060E943016D6016D93DF
:104060007D938D939C93139726C00E943016F70181
:10407000EB59FF4F4080518062807380DC01CB019F
:1040800084199509A609B70981319742A105B1059F
:1040900090F061E5C7010E940C0688EE93E0D6011E
:1040A0008D939C930E943016F701EF59FF4F608368
:1040B000718382839383E090D603F090D703F70156
:1040C000228130E0F901E95EFB4F8491F901E7506C
:1040D000FC4FC490F901EB51FC4FD490DD2009F462
:1040E00077C081110E945615ED2DF0E0EE0FFF1FF5
:1040F000E552FC4FA591B491EC91CE2209F468C031
:10410000A9C0C80102960E94E20E81E0D8015B9628
:104110008C9369E672E086E294E00E9462120C944D
:104120004A17F7019185983108F450C038E1C32E41
:10413000F7018285811103C0D92EDC1801C0D12C72
:10414000C4010E94100E81E60E94130E3801CA9429
:10415000BFEFCB1639F08FEF0E94130ED3018D9372
:104160003D01F5CFDD2009F481C88FEF0E94130EC9
:10417000DA94F8CF60E873E0CE01815A9F4F0E9435
:10418000B01188E1F50111928A95E9F780E38B83FC
:104190009501AE0145595F4FBE01615A7F4FC8017D
:1041A0000E943305882361F060E772E0CE01875AF0
:1041B0009F4F0E94B011CE01875A9F4F0E949111CC
:1041C000CE01815A9F4F0E9491117DC8C92EB0CF58
:1041D000D70117968D919C911897009731F50E9401
:1041E0003016D70113964D905D906D907C90169788
:1041F000DC01CB0184199509A609B709883E9340D3
:10420000A105B10508F43FC0D70117968D919C9187
:1042100018970397C1F183E090E018969C938E93D2
:104220001797C7010E94CE122EC0019761F50E9418
:104230003016F7014380548065807680DC01CB0125
:1042400084199509A609B709C397A105B10508F016
:104250006DC019C0F701878190850197A1F00E9478
:104260003016D70113964D905D906D907C90169707
:10427000DC01CB0184199509A609B709C397A105EB
:10428000B10508F05DC08091F003811116C00E9455
:104290003016C090F103D090F203E090F303F09059
:1042A000F403DC01CB018C199D09AE09BF098938E3
:1042B0009341A105B10508F068C08091F0038130F9
:1042C000B1F40E943016C090F103D090F203E09058
:1042D000F303F090F403DC01CB018C199D09AE09C6
:1042E000BF09813A9F40A105B10508F05CC0F0907C
:1042F000F00332E0F31216C00E9430164090F10332
:104300005090F2036090F3037090F403DC01CB0152
:1043100084199509A609B70989399A43A105B105F8
:1043200008F045C00E9472100C941B19878190857B
:10433000892B19F1D70118961C921E9217971AC053
:10434000F70187819085892B41F482E090E0F701A5
:1043500090878783C7010E94CE12D70117968D914F
:104360009C911897019749F081E090E018969C93F2
:104370008E931797C7010E94CE120E943016F70144
:1043800063837483858396837ECF0E943016609307
:10439000F1037093F2038093F3039093F40381E0AD
:1043A0008093F0038ACF82E08093F003A0CF0E9435
:1043B00030166093F1037093F2038093F3039093AC
:1043C000F403F092F003AECFCF92DF92EF92FF9220
:1043D0000F931F93CF93DF9386E294E0109229040A
:1043E0001092280448EE53E060E070E040932A0405
:1043F00050932B0460932C0470932D0424E631E039
:10440000309327042093260425EC30E030933304C6
:104410002093320424EC30E03093350420933404AC
:1044200020EC30E0309337042093360421EC30E068
:10443000309339042093380422EC30E030933B046D
:1044400020933A0426EC30E030933D0420933C0462
:1044500010923F04109240041092410410924204C2
:1044600061E270E07093DB046093DA041092DC0484
:104470001092DD041092DE0426E0C22ED12CE12C35
:10448000F12CC092DF04D092E004E092E104F092BB
:10449000E2041092E3041092E4041092E5041092F6
:1044A000E60440E24093E7041092E9041092E80425
:1044B0001092EC0425EC34E03093EB042093EA04F2
:1044C00024E032E03093C4042093C3042EE032E0B1
:1044D0003093D8042093D7041092C9041092C804D2
:1044E0001092CB041092CA041092CD041092CC0406
:1044F0001092CF041092CE041092D1041092D004E6
:104500001092D3041092D20422EE31E03093C6040C
:104510002093C5049093D6048093D50450E1509322
:10452000D404709314046093130410921504109231
:10453000160410921704C0921804D0921904E09245
:104540001A04F0921B0410921C0410921D04109285
:104550001E0410921F044093200410922204109213
:104560002104109225041092FA031092FB0310927A
:10457000FC031092FD034EEF53E05093240440934C
:1045800023044CE851E05093F9034093F80346E9C3
:1045900051E05093110440931004109202041092C1
:1045A0000104109204041092030410920604109265
:1045B0000504109208041092070410920A04109245
:1045C000090410920C0410920B043093FF03209303
:1045D000FE0390930F0480930E0428E020930D04B3
:1045E0009093F7038093F60369E573E081E998E01F
:1045F0000E946F278AE692E09093D5038093D403BC
:104600008BE090E00E94D525EC018EE192E0998349
:1046100088831B821C821D821E8281E090E0988725
:104620008F831A86198684E08A8360E00E94AF1522
:10463000D093D703C093D6038091C1039091C20356
:10464000892B81F483E090E00E94D52526E232E0B8
:10465000DC0111963C932E9312961C929093C20308
:104660008093C1038091C1039091C2039093D903B9
:104670008093D8030E94A3149093DB038093DA0302
:104680008091C3039091C403892B09F041C185EC4B
:1046900090E00E94D525EC0188E492E0998388831C
:1046A0008EE292E09D838C8384E991E09F838E83E8
:1046B000FE01E85BFF4F10828FE190E00E94D5255C
:1046C0008C01FC011382128288EE93E0A0E0B0E03E
:1046D00084839583A683B78386E392E09183808366
:1046E000178A168A118E108E138E128E158E148EC6
:1046F000668D6E7F6D7F668F6695617081E068273D
:1047000083E00E947F1561E083E00E94AF15ECEF2B
:10471000F3E0E491D8015096EC93E8EEF3E0E491F5
:10472000F0E0EE0FFF1FEF52FC4F85919491F801DE
:10473000928B818B60E082E00E94AF15D8015E967B
:104740008C9181FD04C061E082E00E947F1582E0CF
:10475000F8018487EBEFF3E0E491D8011D96EC9328
:10476000E7EEF3E0E491F0E0EE0FFF1FE552FC4FBF
:1047700085919491F801978786877E01F9E4EF0E81
:10478000F11CD7010D931C93FE01E55BFF4F1082D6
:104790008E01045A1F4FF801108231961082319613
:1047A000108231961082319610820E943016FE01DE
:1047B000EF59FF4F60837183828393830E94301689
:1047C000FE01EB59FF4F608371838283938334969C
:1047D00011821082E65AFF4F11821082E757F109C9
:1047E00011921192E017F107D9F760E0CE010E9413
:1047F000C906D701ED91FC91138E128E118E108E89
:10480000178A168A8DE991E0958F848F8485863189
:1048100008F04DC02DEB30E0378B268B2BE931E0D3
:10482000318F208F2CE231E0338F228F90916800FE
:10483000883050F021E08E3008F420E081E001C0A3
:10484000880F2A95EAF701C084E0892B80936800DD
:104850009485983038F09E3040F0963148F020E052
:1048600030E008C02DE630E005C02BE630E002C0A5
:104870002CE630E0348B238B983030F481E001C09B
:10488000880F9A95EAF70EC0292F30E09E3018F471
:104890002850310902C02E50310981E001C0880F33
:1048A0002A95EAF7858B848D958D0197F1F7828D96
:1048B000938D892B49F14091BF035091C0034E174E
:1048C0005F0711F14115510571F0DA0153962D91F1
:1048D0003C915497D9019C91DA0155968C91809521
:1048E0008923D9018C93868D8E7F868F1092BE038B
:1048F0001092BD03F093C003E093BF03A389B48972
:104900009C918589892B8C93D093C403C093C30356
:104910008091C3039091C4039093DD038093DC03E3
:104920008091C5039091C603892B09F042C082E0B3
:1049300090E00E94D525FC0180E592E09183808380
:10494000A0913604B091370482E08C93A091320498
:10495000B09133041C92A0913404B09135048FECD3
:104960008C9310923E04A0913A04B0913B0486E0EF
:104970008C93A0913804B09139049C9190619C93E0
:10498000A0913804B09139049C9198609C93A091B7
:104990003804B09139049C9190689C93A09138049C
:1049A000B09139049C919F7D9C93F093C603E09352
:1049B000C503C091C503D091C603D093DF03C09354
:1049C000DE0380E190E00E94D525FC0188E592E0BD
:1049D00091838083D383C28381E08483158216828E
:1049E00017821086118612861386148615861686FF
:1049F0001786F093E103E093E0031092E203109234
:104A0000E3031092E4031092E5031092E603109280
:104A1000E7031092E8031092E9031092EA03109260
:104A2000EB031092EC031092ED031092EE03109240
:104A3000EF031092F0030E9430166093F10370931D
:104A4000F2038093F3039093F4031092F5030E9412
:104A500030166093D0037093D1038093D203909368
:104A6000D303DF91CF911F910F91FF90EF90DF90D3
:104A7000CF9008958F929F92AF92BF92EF92FF9244
:104A80000F931F93CF93DF93CDB7DEB7EDB6FEB68E
:104A9000DB010D900020E9F7CD01861B970B0C96EA
:104AA0002DB73EB7281B390B0FB6F8943EBF0FBE8B
:104AB0002DBF0DB71EB70F5F1F4F7F936F931F92D0
:104AC00083E08F935F934F931F928F9381E893E0DE
:104AD0009F938F931F930F930E94BE31B80186E27C
:104AE00094E00E94F0110E9430164B015C018DB7DA
:104AF0009EB70C960FB6F8949EBF0FBE8DBF10E008
:104B000086E294E00E94B00F8534910581F0111186
:104B10000EC00E943016DC01CB0188199909AA0940
:104B2000BB0911E08897A105B10550F7E8CF61E016
:104B300070E080E090E00E94F6150FB6F894FEBE9B
:104B40000FBEEDBEDF91CF911F910F91FF90EF90BF
:104B5000BF90AF909F908F90089588EF93E00E9450
:104B6000A00383EC94E00C94EE03EF920F931F9359
:104B7000CF93DF93E80147FD02C034E001C034E188
:104B8000E42F440FFF0BF7FF03C0F195E195F10906
:104B9000E32E022F2E2FAE010E94A829CE01DF9115
:104BA000CF911F910F91EF900895CF93DF938230B3
:104BB000910510F482E090E0E091EF04F091F004B0
:104BC00020E030E0C0E0D0E0309711F14081518129
:104BD00048175907C0F04817590761F4828193813B
:104BE000209719F09B838A832BC09093F0048093C5
:104BF000EF0426C02115310519F04217530718F4A8
:104C00009A01BE01DF01EF010280F381E02DDCCFCC
:104C10002115310509F1281B390B2430310590F499
:104C200012968D919C9113976115710521F0FB01EE
:104C30009383828304C09093F0048093EF04FD017A
:104C4000329644C0FD01E20FF31F819391932250ED
:104C500031092D933C933AC02091ED043091EE043C
:104C6000232B41F420910201309103013093EE0493
:104C70002093ED04209100013091010121153105AF
:104C800041F42DB73EB74091040150910501241B1A
:104C9000350BE091ED04F091EE04E217F307A0F478
:104CA0002E1B3F0B2817390778F0AC014E5F5F4F82
:104CB0002417350748F04E0F5F1F5093EE044093C2
:104CC000ED048193919302C0E0E0F0E0CF01DF9129
:104CD000CF9108950F931F93CF93DF93009709F41B
:104CE0008CC0FC013297138212820091EF04109164
:104CF000F0040115110581F420813181820F931F89
:104D00002091ED043091EE042817390779F5F093DE
:104D1000EE04E093ED0471C0D80140E050E0AE171E
:104D2000BF0750F412962D913C911397AD012115B8
:104D3000310509F1D901F3CF9D01DA0133832283D3
:104D400060817181860F971F8217930769F4EC01C8
:104D500028813981260F371F2E5F3F4F31832083F3
:104D60008A819B8193838283452B29F4F093F004FD
:104D7000E093EF0442C01396FC93EE931297ED017B
:104D8000499159919E01240F351FE217F30771F4E1
:104D900080819181840F951F029611969C938E932A
:104DA0008281938113969C938E931297E0E0F0E0BA
:104DB000D80112968D919C911397009719F0F801E4
:104DC0008C01F6CF8D919C9198012E5F3F4F820F01
:104DD000931F2091ED043091EE042817390769F4F0
:104DE000309729F41092F0041092EF0402C013825D
:104DF00012821093EE040093ED04DF91CF911F9186
:104E00000F910895662777270C94362BFC0188278D
:104E10009927E89421912032E9F3293010F02E30BF
:104E2000C8F32B3241F02D3239F4689404C00E944B
:104E30006727820F911D219120532A30C0F31EF461
:104E4000909581959F4F08951F93FC01992788277E
:104E5000BC01E89411911032E9F3193010F01E30C2
:104E6000C8F31B3251F01D3249F4689406C00E9409
:104E70005227610F711D811D911D119110531A3020
:104E8000B0F33EF490958095709561957F4F8F4F6C
:104E90009F4F1F910895FB01DC0105900D920020AA
:104EA000E1F70895592F482F372F262F660F771FC8
:104EB000881F991F660F771F881F991F620F731F26
:104EC000841F951F660F771F881F991F08957AE02A
:104ED000979F902D879F802D910D112408950F93FA
:104EE0001F93CF93DF93009731F46115710519F487
:104EF00080E090E03AC08B01EC016EE070E081E070
:104F000090E00E948C29FC01892B91F380E8838337
:104F10000115110571F01387028781E88383809161
:104F2000F1049091F204892B21F4F093F204E093C0
:104F3000F1042097C9F0D187C08783818260838381
:104F40008091F3049091F404892B71F4F093F404AC
:104F5000E093F3048091F5049091F604892B21F4F9
:104F6000F093F604E093F504CF01DF91CF911F9108
:104F70000F910895ACE0B0E0E0ECF7E20C94712FF3
:104F80007C016B018A01FC0117821682838181FFFB
:104F9000BDC1CE0101964C01F7019381F60193FD4D
:104FA000859193FF81916F01882309F4ABC185320C
:104FB00039F493FD859193FF81916F01853229F436
:104FC000B70190E00E94A92DE7CF512C312C20E0B1
:104FD0002032A0F48B3269F030F4803259F0833201
:104FE00069F420612CC08D3239F0803339F42160AE
:104FF00026C02260246023C0286021C027FD27C06E
:1050000030ED380F3A3078F426FF06C0FAE05F9EA4
:10501000300D1124532E13C08AE0389E300D112418
:10502000332E20620CC08E3221F426FD6BC1206429
:1050300006C08C3611F4206802C0883641F4F601AF
:1050400093FD859193FF81916F018111C1CF982FBD
:105050009F7D9554933028F40C5F1F4FFFE3F98335
:105060000DC0833631F0833771F0833509F05BC0B2
:1050700022C0F801808189830E5F1F4F442443942E
:10508000512C540115C03801F2E06F0E711CF8016B
:10509000A080B18026FF03C0652D70E002C06FEFD5
:1050A0007FEFC5012C870E949E2D2C0183012C854A
:1050B0002F77222E17C03801F2E06F0E711CF80115
:1050C000A080B18026FF03C0652D70E002C06FEFA5
:1050D0007FEFC5012C870E948C2D2C012C85206828
:1050E000222E830123FC1BC0832D90E04816590615
:1050F000B0F4B70180E290E00E94A92D3A94F4CF79
:10510000F50127FC859127FE81915F01B70190E0B1
:105110000E94A92D31103A94F1E04F1A5108411420
:10512000510471F7E5C0843611F0893639F5F8017C
:1051300027FF07C060817181828193810C5F1F4FBF
:1051400008C060817181072E000C880B990B0E5FDF
:105150001F4F2F76722E97FF09C0909580957095FE
:1051600061957F4F8F4F9F4F2068722E2AE030E06D
:10517000A4010E94E12DA82EA81844C0853729F467
:105180002F7EB22E2AE030E025C0F22FF97FBF2E0D
:105190008F36C1F018F4883579F0B4C0803719F033
:1051A000883721F0AFC02F2F2061B22EB4FE0DC082
:1051B0008B2D8460B82E09C024FF0AC09F2F9660F3
:1051C000B92E06C028E030E005C020E130E002C082
:1051D00020E132E0F801B7FE07C060817181828171
:1051E00093810C5F1F4F06C06081718180E090E069
:1051F0000E5F1F4FA4010E94E12DA82EA818FB2DC1
:10520000FF777F2E76FE0BC0372D3E7FA51450F41E
:1052100074FE0AC072FC08C0372D3E7E05C0BA2C51
:10522000372D03C0BA2C01C0B52C34FF0DC0FE01D0
:10523000EA0DF11D8081803311F4397E09C032FFFF
:1052400006C0B394B39404C0832F867809F0B39456
:1052500033FD13C030FF06C05A2CB31418F4530C9E
:105260005B18B32CB31468F4B70180E290E03C877C
:105270000E94A92DB3943C85F5CFB31410F43B18CC
:1052800001C0312C34FF12C0B70180E390E03C87AD
:105290000E94A92D3C8532FF17C031FD03C088E76D
:1052A00090E002C088E590E0B7010CC0832F8678BB
:1052B00059F031FF02C08BE201C080E237FD8DE280
:1052C000B70190E00E94A92DA51438F4B70180E33E
:1052D00090E00E94A92D5A94F7CFAA94F401EA0D08
:1052E000F11D8081B70190E00E94A92DA110F5CF9A
:1052F000332009F451CEB70180E290E00E94A92D3D
:105300003A94F6CFF7018681978102C08FEF9FEF25
:105310002C96E2E10C948D2F0F931F93CF93DF9384
:10532000869F8001879F100D969F100D1124C80144
:105330000E94D525EC01009729F0A80160E070E0FB
:105340000E94972DCE01DF91CF911F910F9108956B
:105350004F925F926F927F929F92AF92BF92CF9245
:10536000DF92EF92FF920F931F93CF93DF93CDB70E
:10537000DEB729970FB6F894DEBF0FBECDBF6A0126
:10538000122FB02E2BE3201720F0FF24F394F00E01
:1053900002C0BCE3FB2E0F2D27E0AE014F5F5F4F35
:1053A0000E94932CAC018981982F9970913031F033
:1053B000E1FC06C0E0FE06C090E205C09DE203C02D
:1053C0009BE201C090E0EE2DE07183FF3CC09111A3
:1053D00002C083E001C084E0811718F4212F281B4C
:1053E00001C020E0E1110BC0F601822F30E28823DA
:1053F00019F031938150FBCFC20ED11C20E09923CC
:1054000029F0D6019C93F60131966F01C6010396EF
:10541000E2FE0AC03EE4D6013C9341E411964C936F
:10542000119712963C9306C03EE6F601308341E6A2
:1054300041833283FC01322F40E2332309F442C01E
:1054400041933150FACF82FF44C0911102C083E0F2
:1054500001C084E0811718F4212F281B01C020E02F
:10546000E1110BC0F601822F30E2882319F031934D
:105470008150FBCFC20ED11C20E0992329F0D60128
:105480009C93F60131966F01C6010396E2FE0BC0B4
:1054900039E4D6013C933EE411963C93119736E4EF
:1054A00012963C9307C039E6F60130833EE631831D
:1054B00036E63283FC01322F40E2332319F0419368
:1054C0003150FBCFFC01E20FF11D10828EEF9FEFF8
:1054D000B7C0F1E0911101C0F0E06F2F70E0141639
:1054E000150624F49A012F5F3F4F02C021E030E0FF
:1054F000260F371FBB2029F06B2D70E06F5F7F4FA9
:1055000002C060E070E0260F371F612F70E02617A1
:1055100037071CF4121B212F01C020E03E2D3871EB
:1055200059F4D601322F60E2332319F06D933150D4
:10553000FBCFC20ED11C20E0FF2331F0D6019C939B
:10554000B6016F5F7F4F6B01E1110BC0F601922F27
:1055500030E3992319F031939150FBCFC20ED11C47
:1055600020E09F2D940F3A81782F7071A72E84FF31
:1055700003C0313309F49150191624F4993018F00E
:1055800098E001C091E0E42F852F57FF02C0E0E0D2
:1055900080E06E2F782FE0E0F0E0AEE29A2E3A0144
:1055A000691A71082A01461A570A0B2D10E0119545
:1055B000019511096F3F8FEF780729F4D6019C926E
:1055C000C60101966C014617570784F066167706E8
:1055D0006CF47F01E40CF51CA1E0B0E0AC0FBD1F42
:1055E000EA0EFB1ED7011196BC9002C090E3B92EC3
:1055F000615071093196C60101967C0160177107EF
:1056000024F0D601BC926C01D5CF6417750741F424
:10561000363320F4353321F4A11002C081E3B82ED3
:10562000F601B082F701822F90E2882319F091935E
:105630008150FBCFF701E20FF11D108280E090E076
:1056400029960FB6F894DEBF0FBECDBFDF91CF9184
:105650001F910F91FF90EF90DF90CF90BF90AF9090
:105660009F907F906F905F904F900895A0E0B0E082
:10567000ECE3FBE20C94752FEC017B0161157105E5
:1056800019F0DB018D939C938E010F5F1F4F788083
:10569000872D90E00E946B2D892B11F0E801F4CF4B
:1056A000BDE27B1205C00F5F1F4F7980C1E008C0CB
:1056B000EBE27E1204C08E010E5F1F4F7980C0E0C6
:1056C0006801F1E0CF1AD10843E050E064ED70E0EA
:1056D000C6010E94742D892BF1F4680122E0C20EEC
:1056E000D11C45E050E06FEC70E0C6010E94742DC3
:1056F000892B21F4680187E0C80ED11CE114F10464
:1057000019F0D701CD92DC92C111FFC060E070E0CA
:1057100080E89FE703C143E050E06CEC70E0C60115
:105720000E94742D892B51F4E114F10409F4F2C0A4
:105730000E5F1F4FF70111830083ECC0680160E02A
:1057400070E0CB0100E010E0F601D0EDD70DDA30CB
:1057500058F52C2F2260622E2C2F2870C2FF05C016
:10576000211128C00F5F1F4F25C0222311F00150C7
:105770001109A5E0B0E09B01AC010E94662F4B012E
:105780005C01880C991CAA1CBB1CC501B4016D0FDF
:10579000711D811D911D6839A9E97A078A07A9E160
:1057A0009A0740F0C66005C0DE3F51F4C3FD44C017
:1057B000C8606C2EBFEFCB1ADB0A7080C62DC4CF39
:1057C0002D2F2F7D2531C1F540814D3211F4C0615F
:1057D00006C04B3221F0319621E030E006C032960F
:1057E000D60111964C9122E030E0A0EDA40FAA3032
:1057F00018F0E21BF30B20C040E050E04038BCE062
:105800005B075CF49A01220F331F220F331F420FF4
:10581000531F440F551F4A0F511D3196DF01119739
:105820002C91A0EDA20FAA3048F3C4FF03C05195FC
:1058300041955109040F151FC1FF07C0E114F10480
:1058400021F03197D701ED93FC930E94442EC37051
:10585000C33019F06B017C0106C06B017C01F7FAC3
:10586000F094F7F8F09420E030E0A901C701B60108
:105870000E943F2E882309F445C017FF06C01195EA
:1058800001951109CBEED0E002C0C3E0D1E05E018A
:10589000B8E1AB1AB1084601BE2DAF2D90E2E92E5A
:1058A000F12C0E151F0584F0FE01259135914591CF
:1058B0005491B4018B2F9A2F0E94A52E4B01B82F23
:1058C000A92F0E191F09EDCF2497F594E794CA1557
:1058D000DB0539F76401EB2EFA2E8E2D880F8F2D04
:1058E000881F8F3F49F020E030E0A901C701B601D1
:1058F0000E943F2E811106C082E290E09093F8044E
:105900008093F704C701B60109C060E070E080E849
:105910009FEF04C060E070E080EC9FE7CDB7DEB79A
:10592000EEE00C94912F283008F027E03327DA01BD
:10593000990F311D87FD916000966105710539F45D
:1059400032602E5F3D9330E32A95E1F708959F3F43
:1059500030F080387105610509F03C5F3C5F3D9394
:10596000913008F08068911DDF93CF931F930F93C0
:10597000FF92EF92192F987F9695E92F969596951D
:10598000E90FFF27EF59FE4F99273327EE24FF2415
:10599000A701E70105900894079428F4360FE71E45
:1059A000F81E491F511D660F771F881F991F069407
:1059B000A1F70590079428F4E70EF81E491F561F1B
:1059C000C11D770F881F991F661F0694A1F70590C8
:1059D000079428F4F80E491F561FC71FD11D880FC2
:1059E000991F661F771F0694A1F70590079420F46E
:1059F000490F561FC71FD81F990F661F771F881F93
:105A00000694A9F784911095177041F0D695C79523
:105A100057954795F794E7941A95C1F7E7E0F1E0B9
:105A200068941590159135916591959105907FE257
:105A30007395E118F10A430B560BC90BD009C0F757
:105A4000E10CF11E431F561FC91FD01D7EF4703399
:105A500011F48A95E6CFE894015030F0080F0AF46B
:105A60000027021708F4202F2395022F7A3328F0FD
:105A700079E37D932A95E9F710C07D932A9589F6FD
:105A8000069497956795379517951794E118F10A3D
:105A9000430B560BC90BD00998F023957E91739553
:105AA0007A3308F070E37C932013B8F77E9170612D
:105AB0007D9330F0839571E37D9370E32A95E1F750
:105AC0001124EF90FF900F911F91CF91DF919927B3
:105AD00087FD9095089591110C94122F803219F042
