:100000000C9460030C9488030C9488030C949A0558
:100010000C949A050C949A050C9488030C9488030C
:100020000C9488030C9488030C9488030C94880324
:100030000C9488030C9488030C9488030C94880314
:100040000C942B130C9488030C94800A0C945A0A79
:100050000C9488030C9488030C9488030C948803F4
:100060000C9488030C948803E8161B191B19FC16C2
:100070001B1910171B191B191B191B1907184617D9
:10008000A9171B19F3171B191B191B191B191B196E
:100090001B191B186A181B190619441A341B341B28
:1000A000481A341B6C1A341B341B341B341BB11A12
:1000B000851A991AAE1AB11A341B341B341B341B1F
:1000C000341B141BC51AD91A341BF11A351F381FDB
:1000D00045203B1F411F3E1F441F45204520452012
:1000E000471F4A1F4D1F501F531F452045204520C5
:1000F00045204520561F591F5C1F45205F1F452086
:1001000045204520452045204520452045204520C7
:1001100045204520452045204520452045204520B7
:1001200045204520452045204520452045204520A7
:10013000621F651F681F6B1F6E1F711F741F771F63
:100140004E414E494E495459494E46CDCCCC3D0ABC
:10015000D7233C17B7D13877CC2B329595E6241F9F
:10016000B14F0A000020410000C84200401C462058
:10017000BCBE4CCA1B0E5AAEC59D7400407A10F32B
:100180005A00A0724E18090010A5D4E80000E876C5
:1001900048170000E40B54020000CA9A3B0000001C
:1001A000E1F505000080969800000040420F000035
:1001B00000A08601000000102700000000E80300F6
:1001C0000000006400000000000A000000000001C0
:1001D00000000000002C76D888DC674F0823DFC1C0
:1001E000DFAE59E1B1B796E5E3E453C63AE651997B
:1001F0007696E8E6C28426EB898C9B62ED407C6FA4
:10020000FCEFBC9C9F40F2BAA56FA5F490055A2A5A
:10021000F75C936B6CF9676DC11BFCE0E40D47FE66
:10022000F520E6B500D0ED902E030094357705005B
:1002300080841E080000204E0A000000C80C3333E2
:1002400033330F986E12831141EF8D2114893BE6F1
:100250005516CFFEE6DB18D1844B381BF77C1D907A
:100260001DA4BBE424203284725E228100C9F124E3
:10027000ECA1E53D2700010203040511121314153A
:10028000160A0B0C0D0E0F467265652052414D206B
:100290003D2000535441525400467265652052413E
:1002A0004D203D20002420467265652052414D209E
:1002B0003D200053656E64696E672E2E2E002E2E33
:1002C0002E205741495420524553502054494D4502
:1002D0004F555421002D2D20526563656976656464
:1002E0003A200041542B43495053454E443D004170
:1002F000542B43495053454E443D0041542B4349F0
:1003000050434C4F53450041542B525354005749CE
:100310004649205245515545535420504F5354455A
:1003200044204552524F52005749464920524551A8
:100330005545535420504F5354454400574946495E
:100340002057414954494E47205245512052455368
:10035000504F4E5345005749464920524551554547
:1003600053542053454E4400574946492052455165
:100370005545535420495320504F5354494E47003C
:100380005749464920504F5354494E472052454102
:100390004459005749464920535441525420504F24
:1003A0005354494E4700574946492053544F502013
:1003B000504F5354494E47005749464920534552E0
:1003C00056455220434F4E4E4543544544005749ED
:1003D00046492053455256455220434F4E4E4543C1
:1003E00054494E47005749464920534552564552B5
:1003F00020434845434B00574946492053455256F0
:10040000455220444953434F4E4E454354454400C2
:100410005749464920574C414E20434F4E4E454385
:10042000544544005749464920574C414E20434FBC
:100430004E4E454354494E47204641494C0057498A
:10044000464920574C414E20434F4E4E4543544958
:100450004E47005749464920574C414E2043484596
:10046000434B005749464920574C414E204449537D
:10047000434F4E4E45435445440057494649204951
:100480004E495449414C495A454420320057494647
:100490004920494E495449414C495A45440057491D
:1004A000464920494E495449414C495A494E4720F2
:1004B00032005749464920494E495449414C495A0E
:1004C000494E47005749464920424C55444544004F
:1004D00057494649204F464600766F6C74733D2558
:1004E00064266C6576656C3D256426616C61726D71
:1004F0003D256400736F757263653D2564266368EE
:10050000617267653D256C7526736C6F70653D255E
:100510006400504F53542025732573204854545081
:100520002F312E310D0A486F73743A2025730D0A4E
:100530004163636570743A202A2F2A0D0A436F6E57
:1005400074656E742D4C656E6774683A2025640D71
:100550000A436F6E74656E742D547970653A20612C
:1005600070706C69636174696F6E2F782D7777771F
:100570002D666F726D2D75726C656E636F64656448
:100580000D0A0D0A2573001205F404D90441540024
:1005900041542B43574155544F434F4E4E3D31002C
:1005A0002420467265652052414D203D2000000008
:1005B0000000250028002B0000000000230026007A
:1005C00029000404040404040404020202020202D6
:1005D0000303030303030102040810204080010207
:1005E00004081020010204081020766F6C74733D1B
:1005F0002564266C6576656C3D256426616C6172A8
:100600006D3D256400736F757263653D25642663D7
:1006100068617267653D256C7526736C6F70653D0A
:10062000256400504F53542025732573204854549B
:10063000502F312E310D0A486F73743A2025730DF7
:100640000A4163636570743A202A2F2A0D0A436FAA
:100650006E74656E742D4C656E6774683A202564FF
:100660000D0A436F6E74656E742D547970653A206F
:100670006170706C69636174696F6E2F782D777724
:10068000772D666F726D2D75726C656E636F646524
:10069000640D0A0D0A25730023060506EA0500000D
:1006A0000000240027002A000000000800020100CA
:1006B00000030407000000000000000062200E2478
:1006C00011241FBECFEFD8E0DEBFCDBF13E0A0E006
:1006D000B1E0EEE8F0E602C005900D92AA3EB10747
:1006E000D9F725E0AAEEB3E001C01D92A13DB20703
:1006F000E1F713E0CFE5D3E004C02197FE010E94AB
:10070000BD2ECE35D107C9F70E9475130C943A302F
:100710000C94000020912F043091300428173907E1
:1007200071F490912D0480912E04981741F0E0917E
:100730002D04F0E0E551FC4F808190E008958FEFAB
:100740009FEF089508951F93CF93DF93DC015C968C
:100750002D913C915D972115310539F481E090E0B0
:1007600013969C938E9312973DC05196ED91FC91F8
:10077000529750969C915097892F80951FB75E96FF
:100780004C915E9741FB772770F941FD6095F89495
:100790004081772311F0492B01C048234083E901B0
:1007A0002197F1F748E0508160FF02C0592B01C04A
:1007B00058235083E9012197F1F76695415099F745
:1007C000772321F090818923808303C08081982B37
:1007D00090831FBF5C968D919C915D970197F1F777
:1007E00021E030E0C901DF91CF911F910895209160
:1007F0002F04309130042817390771F480912E04AA
:1008000020912D0490E0805C9F4F821B910960E451
:1008100070E00E94872E089580E090E00895209176
:100820002F043091300428173907B9F490912D0422
:1008300080912E04981789F0E0912D04F0E0E551A5
:10084000FC4F808120912D0430E02F5F3F4F2F73AC
:10085000332720932D0490E008958FEF9FEF0895A4
:10086000089580E090E0089508950F931F93CF932B
:10087000DF93EC01CB01088119817B836A830E949D
:1008800066249983888320E030E08C819D8128173D
:10089000390770F4E881F981E20FF31F309729F0EE
:1008A000D801A20FB31F8C9180832F5F3F4FEDCFF4
:1008B000C801DF91CF911F910F910C94FB240F93EE
:1008C0001F93CF93DF93FC0104811581FB01C48149
:1008D000D581AE010C171D0708F4A801FB0160814A
:1008E0007181FC01808191810E94BF2F009769F482
:1008F00081E090E0C017D10740F00C171D0710F001
:1009000080E090E0919581959109DF91CF911F91C1
:100910000F910895FC0120813181828193812817F4
:10092000390719F0822F0C9452120895CF93DF9358
:10093000EC019CB59F7D9CBD9CB5937F9CBD9CB5F7
:100940009C7F9CBD9DB591609DBD8A810E94521285
:100950008C899D89DF91CF910C94DA1261E00C941F
:1009600096048EBD00000DB407FEFDCF8EB5089530
:100970001F93CF93DF93EC0160E00E94960481EE19
:100980000E94B104182FCE010E94AE04812FDF9186
:10099000CF911F910895FF920F931F93CF93DF93F1
:1009A0001F92CDB7DEB78C01F62E60E049830E941E
:1009B00096048F2D8F7180620E94B104F82E4981B8
:1009C000842F0E94B104C8010E94AE048F2D0F90A5
:1009D000DF91CF911F910F91FF900895CF92DF92F9
:1009E000EF92FF920F931F93CF93DF9300D0CDB779
:1009F000DEB77C01062F142F60E029835A830E9402
:100A00009604802F8F7180620E94B104082FC12E3E
:100A10005A81D52E2981120F1C1531F0F6018191D2
:100A20006F010E94B104F8CFC7010E94AE04802F6D
:100A30000F900F90DF91CF911F910F91FF90EF904A
:100A4000DF90CF9008951F93CF93DF93EC01162F83
:100A500060E00E949604812F8F710E94B1048FEF95
:100A60000E94B104182FCE010E94AE04812FDF91A5
:100A7000CF911F910895CF93DF93EC0160E00E9426
:100A8000230581FD0EC0482F426060E0CE010E9428
:100A9000CB0465E070E080E090E0DF91CF910C94B2
:100AA000E512DF91CF910895CF93DF93EC010E947F
:100AB0003B0560E0CE010E942305482F416060E0C5
:100AC000CE010E94CB0440E767E0CE010E94CB0438
:100AD00061E0CE010E948A048985882349F02E8531
:100AE000AE01475F5F4F6AE0CE010E94EE0414C082
:100AF00062E0CE010E942305E5E7F2E0E49121E007
:100B000030E001C0220FEA95EAF72095422F4823F2
:100B100062E0CE010E94CB046DE1CE010E9423056C
:100B200081FF05C0CE01DF91CF910C94B804DF9115
:100B3000CF9108951F920F920FB60F9211242F9309
:100B40003F934F935F936F937F938F939F93AF9355
:100B5000BF93EF93FF93E0912F04F091300430970F
:100B600009F451C0968DA685B785858591FF04C08F
:100B70009C91892329F447C09C91892309F043C0A3
:100B8000A389B4899C918589809589238C938689D2
:100B900097890197F1F7608D718DA685B785558589
:100BA00038E020E0CB010197F1F7822F90E0959596
:100BB0008795282F4C91452309F02068315091F7F3
:100BC000868D81FD209580912E0490E001968F7393
:100BD000992730912D04381749F0A0912E04B0E0E8
:100BE000A551BC4F2C9380932E0403C0868D816049
:100BF000868F828D938D0197F1F7A389B4899C919B
:100C00008589892B8C93FF91EF91BF91AF919F9133
:100C10008F917F916F915F914F913F912F910F90A5
:100C20000FBE0F901F901895EF92FF920F931F9396
:100C3000CF93DF93EC018C819D818617970710F588
:100C40007A018B018A819B818617970740F4685F40
:100C50007F4F8617970718F4CE010E9435048C81C8
:100C60009D818017910758F4E881F981E80FF91FF9
:100C7000309719F0D7012C9120830196F2CF1D8374
:100C80000C8305C06817790710F47D836C83DF91AE
:100C9000CF911F910F91FF90EF900895FC018081FB
:100CA00091810C94FB24CF93DF93EC016C817D81C7
:100CB0006F5F7F4F8A819B818617970718F4CE015B
:100CC0000E943504E881F9818C819D81E80FF91F2C
:100CD000108288819981DF91CF9108950895CF92F4
:100CE000DF92EF92FF920F931F93FB01DC0100E074
:100CF00010E098016A01E12CF12C0C151D052E0560
:100D00003F0538F461916D930F5F1F4F2F4F3F4F99
:100D1000F4CF840F951F1F910F91FF90EF90DF90FC
:100D2000CF900895AF92BF92CF92DF92EF92FF9251
:100D30000F931F93CF93DF931F92CDB7DEB78C0134
:100D40006B017A01590188E090E0F8019383828376
:100D5000158214820E946624F80191838083F60133
:100D6000848195818E159F0510F40E94A12F198210
:100D7000BC016E197F09A616B70608F4B501AE01CD
:100D80004F5F5F4FC8010E941406F80144815581EE
:100D9000F601608171816E0D7F1DF8018081918166
:100DA0000E946F060F90DF91CF911F910F91FF90DE
:100DB000EF90DF90CF90BF90AF900895CF92DF92E9
:100DC000EF92FF920F931F93CF93DF931F92CDB7B4
:100DD000DEB77C016B0188E090E0F70193838283AA
:100DE000158214820E946624F70191838083C114C6
:100DF000D104B9F0F60101900020E9F731978F0195
:100E00000C191D091982AE014F5F5F4FB801C70170
:100E10000E941406A801B601F701808191810E9409
:100E20006F060F90DF91CF911F910F91FF90EF9080
:100E3000DF90CF900895CF92DF92EF92FF920F93C1
:100E40001F93CF93DF936C017A018B01C0E0D0E058
:100E5000CE15DF0589F0D8016D918D01D601ED9198
:100E6000FC910190F081E02DC6010995892B11F4C8
:100E70007E0102C02196ECCFC701DF91CF911F9177
:100E80000F91FF90EF90DF90CF900895FC01538D6C
:100E9000448D252F30E0842F90E0821B930B541754
:100EA00010F0CF96089501970895FC01918D828DE1
:100EB000981761F0828DDF01A80FB11D5D968C91AE
:100EC000928D9F5F9F73928F90E008958FEF9FEFB9
:100ED0000895FC01918D828D981731F0828DE80F75
:100EE000F11D858D90E008958FEF9FEF0895FC012F
:100EF000918D228D892F90E0805C9F4F821B9109FC
:100F00008F73992708958AEA94E00E94770721E079
:100F1000892B09F420E0822F0895FC01848DDF01E4
:100F2000A80FB11DA35ABF4F2C91848D90E001965C
:100F30008F739927848FA689B7892C93A089B1894B
:100F40008C9180648C93938D848D981306C0028855
:100F5000F389E02D80818F7D80830895EF92FF9249
:100F60000F931F93CF93DF93EC0181E0888F9B8DCC
:100F70008C8D981305C0E889F989808185FD24C08E
:100F8000F62E0B8D10E00F5F1F4F0F731127E02E11
:100F90008C8DE8120CC00FB607FCFACFE889F989EE
:100FA000808185FFF5CFCE010E948D07F1CF8B8D1B
:100FB000FE01E80FF11DE35AFF4FF0820B8FEA8923
:100FC000FB898081806207C0EE89FF896083E889A0
:100FD000F98980818064808381E090E0DF91CF9106
:100FE0001F910F91FF90EF900895CF93DF93EC0145
:100FF000888D8823C9F0EA89FB89808185FD05C039
:10100000A889B9898C9186FD0FC00FB607FCF5CF72
:10101000808185FFF2CFA889B9898C9185FFEDCFBA
:10102000CE010E948D07E7CFDF91CF91089580E038
:1010300090E0892B29F00E94830781110C94000015
:10104000089508950895CF93DF93CDB7DEB72A971B
:101050000FB6F894DEBF0FBECDBFFC0186A197A1ED
:10106000009741F1DB01FC0120813181F9014481CC
:1010700055812EE331E03A83298312962D913C91DC
:1010800013973C832B8314962D913C9115973E83A7
:101090002D8316962D913C91179738872F8318969C
:1010A0002D913C9119973A872987BE016F5F7F4F39
:1010B000FA0109952A960FB6F894DEBF0FBECDBF90
:1010C000DF91CF9108950E94A12F0C94FB240C94E2
:1010D000FB240C94FB240C94FB240C94FB240C9414
:1010E000FB240F931F93CF93DF93CDB7DEB7C95681
:1010F000D1090FB6F894DEBF0FBECDBFAE01475B7E
:101100005F4F8DE0E2E2F3E0DA0101900D928A9503
:10111000E1F7CE018A5A9F4F2BE0EFE2F3E0DC01CA
:1011200001900D922A95E1F79E012F593F4F69E0FA
:10113000EAE3F3E0D90101900D926A95E1F75F933C
:101140004F933F932F939F938F9382E093E09F93CE
:101150008F938E010F5F1F4F1F930F930E941730C5
:101160000FB6F894DEBF0FBECDBFC801C759DF4F21
:101170000FB6F894DEBF0FBECDBFDF91CF911F91A8
:101180000F910895CF92DF92EF92FF920F931F93EA
:10119000CF93DF93CDB7DEB7C05DD1400FB6F894E3
:1011A000DEBF0FBECDBF8C01E9E8F5E0659174911B
:1011B0006E0126E7C21A2EEFD20AC6010E949725B9
:1011C000E7E8F5E0659174917E0181EDE80EF11C90
:1011D000C7010E949725F80180858F9387818F939F
:1011E00086818F9385818F9384818F9383818F9361
:1011F00082811F928F93DF92CF921F9288E38F9309
:101200008E010E5A1E4F1F930F930E94E72F6E01FF
:10121000F7E4CF1AFEEFDF0A2DE0E2E2F3E0D601B9
:1012200001900D922A95E1F7AE014A535E4F2BE0F3
:10123000EFE2F3E0DA0101900D922A95E1F7BE01A9
:1012400068557E4F21E1E3E4F3E0DB0101900D926C
:101250002A95E1F71F930F939C0133273F932F9318
:10126000DF92CF927F936F935F934F93FF92EF92B2
:101270001F9280ED8F93015511401F930F930E9491
:10128000E72F0FB6F894DEBF0FBECDBFC801C05325
:10129000DE4F0FB6F894DEBF0FBECDBFDF91CF910A
:1012A0001F910F91FF90EF90DF90CF900895CF9313
:1012B000DF93FC0124813581232B71F0FB01DC01DC
:1012C000CD91DC9160817181CE010E94CD2F00977C
:1012D00019F08C1B9D0B02C08FEF9FEFDF91CF9118
:1012E0000895CF93DF93DC01ED91FC91EB01A88190
:1012F000B981309711F01097C9F4109759F0EB01AC
:101300002C813D81232B31F08C9190E0919581953A
:10131000910914C0309781F0DC0114968D919C9155
:101320001597892B49F0808190E008C0BD01CF015D
:10133000DF91CF910C94AF2F80E090E0DF91CF91BF
:101340000895FC01808191810C94FB24EF92FF921F
:101350000F931F93CF93DF93EC01198218821B82A6
:101360001A821D821C8261157105A9F17B01FB01A6
:1013700001900020E9F731978F01061B170BB80188
:101380006F5F7F4F80E090E00E94D72E009759F06A
:10139000998388831B830A832C813D81232B81F4CD
:1013A000FC0110820DC088819981009711F00E9484
:1013B000FB24198218821D821C821B821A820BC098
:1013C0001D830C83B701DF91CF911F910F91FF9087
:1013D000EF900C94B82FDF91CF911F910F91FF9058
:1013E000EF900895DC01ED91FC910190F081E02DEA
:1013F0000994EF92FF920F931F93CF93DF938C0189
:101400007B01C0E0D0E0F701EC0FFD1F6491662383
:1014100061F0D801ED91FC910190F081E02DC801BF
:101420000995892B11F02196EECFCE01DF91CF9156
:101430001F910F91FF90EF9008956115710579F05C
:10144000FB0101900020E9F73197AF01461B570BD4
:10145000DC01ED91FC910280F381E02D099480E0A4
:1014600090E008950F931F93CF93DF93EC010E94B8
:101470001D0A8C016FE173E0CE010E941D0A800FEE
:10148000911FDF91CF911F910F9108950F931F939B
:10149000CF93DF93EC010E94F9098C016FE173E0B7
:1014A000CE010E941D0A800F911FDF91CF911F91E5
:1014B0000F9108951F920F920FB60F9211242F9340
:1014C0003F934F935F936F937F938F939F93AF93CC
:1014D000BF93EF93FF938AEA94E00E948D07FF91F8
:1014E000EF91BF91AF919F918F917F916F915F919C
:1014F0004F913F912F910F900FBE0F901F90189515
:101500001F920F920FB60F9211242F938F939F93D8
:10151000EF93FF93E091BA04F091BB048081E091D6
:10152000C004F091C10482FD12C090818091C30477
:101530008F5F8F732091C404821751F0E091C30430
:10154000F0E0E655FB4F958F8093C30401C0808186
:10155000FF91EF919F918F912F910F900FBE0F9060
:101560001F9018954F925F926F927F928F929F92E9
:10157000AF92BF92CF92DF92EF92FF920F931F93A1
:10158000CF93DF931F92CDB7DEB77C012B01FC0117
:10159000848195816C01FFEFCF1ADF0A8C159D05C0
:1015A00008F06EC0F701228133812C153D05F0F55E
:1015B000099628173907D0F580809180938382831C
:1015C00027E0AC01249FC001259F900D11240E94AB
:1015D0006624F701918380835401612C712CF701FB
:1015E0008481958168167906F0F4F70120813181B4
:1015F000C50188199909820F931F009751F08E0138
:101600000F5F1F4F2FEF3FEF40E050E0B5010E940A
:101610009206C5010E944E06FFEF6F1A7F0A27E06F
:10162000A20EB11CDCCFC4010E94FB24F701A480F0
:10163000B58087E08A9D30018B9D700C1124812C30
:10164000912CF701AC14BD0408F040C02081318119
:10165000C401860D971D820F931F009751F08E01D4
:101660000F5F1F4F2FEF3FEF40E050E0B2010E94AD
:101670009206FFEFAF1ABF0A27E0820E911CE1CF5E
:10168000C816D90628F527E0289F3001299F700C3D
:1016900011245601812C912CF7E06F0E711CF7017B
:1016A00084819581A816B90688F4C301880D991D17
:1016B000F70120813181820F931F0E944E06FFEFB8
:1016C000AF1ABF0A27E0820E911CE9CFD582C482EF
:1016D0000F90DF91CF911F910F91FF90EF90DF90CE
:1016E000CF90BF90AF909F908F907F906F905F90C2
:1016F0004F900895CF92DF92EF92FF920F931F9336
:10170000CF93DF931F92CDB7DEB78C01FB01E4804E
:10171000F580E416F50610F40E94A12FE41AF50AEC
:101720002E153F0508F47901C080D180C40ED51E66
:1017300088E090E0F80193838283158214820E94EE
:101740006624F80191838083FFEFEF16FF0621F3F3
:10175000F6018081181684F41982AE014F5F5F4F45
:10176000B701C8010E941406F80144815581B601F1
:10177000808191810E946F06C8010F90DF91CF9107
:101780001F910F91FF90EF90DF90CF900895AF924F
:10179000BF92CF92DF92EF92FF920F931F93CF935E
:1017A000DF931F92CDB7DEB77C016B01FB01019087
:1017B0000020E9F731978F01061B170BFC01A4806D
:1017C000B5801982B8016A0D7B1DAE014F5F5F4F76
:1017D0000E941406F70180819181A801B6018A0D4B
:1017E0009B1D0E946F06C7010F90DF91CF911F9143
:1017F0000F91FF90EF90DF90CF90BF90AF90089542
:101800000895089580912B0490912C04892BC9F49C
:101810008DE090E00E946624FC0186E391E09183D4
:101820008083138212821482158216821782108698
:1018300084E08187128614861386F0932C04E0934B
:101840002B0480912B0490912C04089508950F93FC
:101850001F93CF93DF93CDB7DEB72A970FB6F894D7
:10186000DEBF0FBECDBFFC01208D261709F467C077
:101870008C01608F8EE391E09A838983FC83EB83F4
:101880001E821D8270E078876F831A861986BE01DA
:101890006F5F7F4FCF010E942308F801808D87334F
:1018A000C9F028F48433B1F08633A1F046C0883300
:1018B000C9F0893309F041C00E941F13F801668FF7
:1018C000778F80A391A363E3C8010E94270C88E867
:1018D00093E129C00E941F13F801668F778F80A3C0
:1018E00091A32BC00E941F13F801668F778F80A3EE
:1018F00091A39481992389F08589E80FF11DE80F60
:10190000F11D168215828F5FF801883010F4858BE7
:1019100001C0158A9150F801948363E3C8010E94C5
:10192000270C88EE93E0F80193A382A30E941F1373
:10193000F801628F738F848F958F81E001C080E002
:101940002A960FB6F894DEBF0FBECDBFDF91CF91C0
:101950001F910F910895EF92FF920F931F93CF93D2
:10196000DF93CDB7DEB7C054D1090FB6F894DEBF10
:101970000FBECDBF8C0184E593E09F938F9387E8E2
:1019800092E09F938F938DE593E09F938F93CE0189
:1019900001967C019F938F930E941730B701F80145
:1019A000828193810E94320A6CE0C8010E94F20C8D
:1019B0000E941F13F801628F738F848F958F0FB66B
:1019C000F894DEBF0FBECDBFC05CDF4F0FB6F894FA
:1019D000DEBF0FBECDBFDF91CF911F910F91FF9062
:1019E000EF900895EF92FF920F931F93CF93DF93A1
:1019F000CDB7DEB72A970FB6F894DEBF0FBECDBFC6
:101A0000FC012789261709F457C08C01678B8EE3E8
:101A100091E09A838983FC83EB831E821D8270E0B0
:101A200078876F831A861986CE0101967C01BC01E6
:101A3000CF010E942308F80187898630B1F08D30EC
:101A4000C1F08430D1F460E975E0828193810E9415
:101A5000460A65E0C8010E94F20C0E941F13F801BB
:101A6000628F738F848F958F08C0C8010E94AB0C62
:101A700004C06AE0C8010E94F20C60EA75E08AEADC
:101A800094E00E94F9098091C5059091C605B701BF
:101A9000681B790B8AEA94E00E94170E82E390E0BB
:101AA000F80193A382A30E941F13F801628F738F22
:101AB000848F958F81E001C080E02A960FB6F8945C
:101AC000DEBF0FBECDBFDF91CF911F910F91FF9071
:101AD000EF900895CF93DF93EC016BE00E94F20C3E
:101AE00064E773E08A819B810E94320A0E941F137F
:101AF0006A8F7B8F8C8F9D8FDF91CF910895EF92AE
:101B0000FF920F931F93CF93DF93CDB7DEB7C054EF
:101B1000D1090FB6F894DEBF0FBECDBF8C0182E2B3
:101B200093E09F938F938EE793E09F938F93CE01E3
:101B300001967C019F938F930E941730B701F801A3
:101B4000828193810E94320A66E1C8010E94F20CF0
:101B50000E941F13F801628F738F848F958F0F90EF
:101B60000F900F900F900F900F90C05CDF4F0FB64B
:101B7000F894DEBF0FBECDBFDF91CF911F910F91C3
:101B8000FF90EF900895CF93DF93EC016DE875E03F
:101B90008A819B810E94460A0E941F136A8F7B8F55
:101BA0008C8F9D8F63E0CE01DF91CF910C94F20C6E
:101BB0000F931F93CF93DF93EC018C819D89883025
:101BC00070F4980F983008F09770FE01E90FF11D3E
:101BD000E90FF11D768365838F5F8C8321C08B01B4
:101BE000FE01E90FF11DE90FF11D85819681168235
:101BF0001582009739F0DC01ED91FC910280F381B0
:101C0000E02D09958D89FE01E80FF11DE80FF11D0A
:101C1000168305838F5F883010F48D8B01C01D8A79
:101C200081E0DF91CF911F910F91089508954F9218
:101C30005F926F927F928F929F92AF92BF92CF925C
:101C4000DF92EF92FF920F931F93CF93DF93CDB765
:101C5000DEB7A1970FB6F894DEBF0FBECDBF8C01E3
:101C60006B01770FEE08FF08F7FE2AC06DE20E94B5
:101C7000F2095C0122273327A9012C193D094E09DD
:101C80005F0919A2CE0181967C019AE0492E512C60
:101C9000612C712CCA01B901A30192010E949B2EF3
:101CA000605DF70162937F01211531054105510502
:101CB00089F7BF01C8010E941D0AA80EB91E1FC0E6
:101CC000A701960119A2CE0181967C018AE0882E97
:101CD000912CA12CB12CCA01B901A50194010E943B
:101CE0009B2E605DF70162937F012115310541054F
:101CF000510589F7BF01C8010E941D0A5C016FE10F
:101D000073E0C8010E941D0A8A0D9B1DA1960FB6A3
:101D1000F894DEBF0FBECDBFDF91CF911F910F9121
:101D2000FF90EF90DF90CF90BF90AF909F908F90FB
:101D30007F906F905F904F9008958F929F92AF9297
:101D4000BF92EF92FF920F931F93CF93DF9300D038
:101D5000CDB7DEB7CB01EDB6FEB6FB0124813581F0
:101D6000235F3F4F6DB77EB7621B730B0FB6F894BE
:101D70007EBF0FBE6DBF0DB71EB70F5F1F4F4983EC
:101D80005A830E9453069F938F931F9283E08F93F1
:101D90005A815F9349814F9386EC93E09F938F9391
:101DA0001F930F930E941730B8018AEA94E00E94B3
:101DB0001D0A0E941F134B015C018DB79EB70A9646
:101DC0000FB6F8949EBF0FBE8DBF10E08AEA94E074
:101DD0000E9455078534910581F011110EC00E94B3
:101DE0001F13DC01CB0188199909AA09BB0911E06D
:101DF0008897A105B10550F7E8CF61E070E080E079
:101E000090E00E94E5120FB6F894FEBE0FBEEDBE44
:101E10000F900F90DF91CF911F910F91FF90EF9056
:101E2000BF90AF909F908F900895CB0108957F92BF
:101E30008F929F92AF92BF92CF92DF92EF92FF92DA
:101E40000F931F93CF93DF93EC0149015A018B014C
:101E5000C12CD12C7601C814D904EA04FB0484F502
:101E6000F80171908F018F8580FF0BC0E881F981A7
:101E70000084F185E02D20E144E060E070E0CE01D7
:101E80000995EB85FC858D859E85E817F90738F463
:101E900070828B859C8501969C878B870BC0E8811F
:101EA000F981672D70E0028CF38DE02DCE0109954C
:101EB000019649F02FEFC21AD20AE20AF20ACBCFFA
:101EC000B401C50102C0B601C701DF91CF911F91D6
:101ED0000F91FF90EF90DF90CF90BF90AF909F90C9
:101EE0008F907F900895CF93DF93EC01E881F98183
:101EF0000288F389E02D09958F3F2FEF920731F08B
:101F00002D813E812F5F3F4F3E832D83DF91CF9107
:101F100008958FEF9FEF089560E070E0CB01089582
:101F200080E090E00895CB010895CF93DF93EC011A
:101F300088899989DC01ED91FC910084F185E02D7F
:101F40000995892BA9F388899989DC01ED91FC9188
:101F50000284F385E02DDF91CF910994CF93DF9335
:101F6000EC0188899989DC01ED91FC910084F1856F
:101F7000E02D0995892BA9F388899989DC01ED91D8
:101F8000FC910484F585E02DDF91CF910994AF9207
:101F9000BF92CF92DF92EF92FF920F931F93CF9356
:101FA000DF9300D000D0CDB7DEB78C015B01C12C30
:101FB000D12C7601F80180899189DC01ED91FC91A9
:101FC0000284F385E02D29833A834B835C83099552
:101FD00029813A814B815C818F3F71F0C216D30613
:101FE000E406F5064CF4D5018D935D01BFEFCB1AE5
:101FF000DB0AEB0AFB0ADECFC701B6010F900F9098
:102000000F900F90DF91CF911F910F91FF90EF9064
:10201000DF90CF90BF90AF900895DC0150968D91E6
:102020009C915197DC01ED91FC910084F185E02DAC
:10203000099480E090E0089580E090E0089580E0C9
:1020400090E0089580E090E008950895CF93DF93A5
:10205000C0917A04D0917B04E881F9810084F185F4
:10206000E02DCE010995892BB9F3E881F98102842D
:10207000F385E02DCE01DF91CF9109941F93CF938B
:10208000DF93182FC0917A04D0917B048A3041F4F9
:10209000E881F9810190F081E02D6DE0CE01099594
:1020A000E881F9810190F081E02D612FCE01099541
:1020B00021E030E0019711F420E030E0C901DF9128
:1020C000CF911F9108950C94FB240C94FB240C9445
:1020D000FB24089508950C94FB24DC01ED91FC9100
:1020E000369720813181820F931F0C946B10FB0176
:1020F00020813181FC0131832083FB0142815381A6
:10210000F901369720813181FC01E20FF31F5183E1
:102110004083089526E931E0FC013183208320EAE1
:1021200031E0318F208F66EA71E00C947710DC018A
:10213000ED91FC91369720813181820F931F0C9491
:102140008A10CF93DF93EC010E948A10CE01DF91B9
:10215000CF910C94FB24DC01ED91FC91369720810A
:102160003181820F931F0C94A1100C94FB240895CD
:1021700008950C94FB24DC01ED91FC9136972081AD
:102180003181820F931F0C94B910FB0120813181A2
:10219000FC0131832083FB0142815381F901369791
:1021A00020813181FC01E20FF31F518340830895A8
:1021B0002EE032E0FC013183208328E132E0358BD0
:1021C000248B6EE172E00C94C510DC01ED91FC9162
:1021D000369720813181820F931F0C94D810CF93B2
:1021E000DF93EC010E94D810CE01DF91CF910C94C7
:1021F000FB24DC01ED91FC91369720813181820F27
:10220000931F0C94EF100C94FB24CF92DF92EF926B
:10221000FF920F931F93CF93DF93CDB7DEB7C458D0
:10222000D1400FB6F894DEBF0FBECDBF8C01ECE9F4
:10223000F6E0659174916E0186E9C81A8EEFD80AAE
:10224000C6010E949725E8E9F6E0659174917E0148
:1022500091ECE90EF11CC7010E949725F8018581D8
:102260001F928F9384811F928F9383818F9382819A
:102270008F93DF92CF921F9288E28F938E010E5B35
:102280001E4F1F930F930E94E72F1F930F939C01E4
:1022900033273F932F9382E293E09F938F9386EDB2
:1022A00093E09F938F938FE293E09F938F93FF929E
:1022B000EF921F9280EC8F93015411401F930F9364
:1022C0000E94E72F0FB6F894DEBF0FBECDBFC80146
:1022D000CC57DE4F0FB6F894DEBF0FBECDBFDF91F7
:1022E000CF911F910F91FF90EF90DF90CF900895C5
:1022F0000F931F93CF93DF938C01EB016F3F8FEF11
:10230000780719F480E090E00FC06A3031F46DE096
:10231000F801808991890E94F2096C2FF801808967
:1023200091890E94F209CE01DF91CF911F910F9107
:1023300008958F929F92BF92CF92DF92EF92FF9279
:102340000F931F93CF93DF9300D000D0CDB7DEB7AC
:102350008C014B01C12CD12C7601C216D306E406A8
:10236000F50644F5F401B1904F01FAE0BF120EC03A
:102370006DE0F8018089918929833A834B835C83DE
:102380000E94F2095C814B813A8129816B2DF80111
:102390008089918929833A834B835C830E94F20967
:1023A000FFEFCF1ADF0AEF0AFF0A5C814B813A8107
:1023B0002981D3CFCA01B9010F900F900F900F90D0
:1023C000DF91CF911F910F91FF90EF90DF90CF9011
:1023D000BF909F908F90089508950895089508954F
:1023E00008953FB7F89480913A0490913B04A091EE
:1023F0003C04B0913D0426B5A89B05C02F3F19F0C1
:102400000196A11DB11D3FBFBA2FA92F982F882774
:10241000820F911DA11DB11DBC01CD0142E0660FCF
:10242000771F881F991F4A95D1F708950F931F931F
:10243000CF938C0166E082E694E00E942305C82FCA
:10244000C77D0230110531F4C0628BE990E0A0E055
:10245000B0E00DC00130110529F085E590E0A0E065
:10246000B0E005C0C86081E490E0A0E0B0E08093F7
:10247000720490937304A0937404B09375044C2F6A
:1024800066E082E694E00E94CB0466E082E694E097
:102490000E94230591E08C1390E0892FCF911F912A
:1024A0000F91089590E0FC01E855F94F3491FC013B
:1024B000EA52FA4F2491FC01EE53FA4FE491EE23D5
:1024C00009F43BC0332339F1333091F038F4313023
:1024D000A9F0323001F584B58F7D12C0373091F00C
:1024E0003830A1F03430B9F4809180008F7D03C082
:1024F000809180008F77809380000DC084B58F77A6
:1025000084BD09C08091B0008F7703C08091B00076
:102510008F7D8093B000F0E0EE0FFF1FE255FA4F81
:10252000A591B4918FB7F894EC91611103C02095F7
:102530002E2301C02E2B2C938FBF0895CF93DF93B2
:1025400090E0FC01EA52FA4F2491FC01EE53FA4F5D
:102550008491882361F190E0880F991FFC01E25675
:10256000F94FC591D491FC01E255FA4FA591B49170
:10257000611109C09FB7F8948881209582238883D0
:10258000EC912E230BC0623061F49FB7F894388130
:10259000822F809583238883EC912E2B2C939FBFD1
:1025A00006C08FB7F894E8812E2B28838FBFDF9168
:1025B000CF9108958230910538F0880F991F880FC8
:1025C000991F05970197F1F708958F929F92AF9207
:1025D000BF92CF92DF92EF92FF926B017C010E943B
:1025E000F1114B015C01C114D104E104F104F1F0DB
:1025F0000E94F111DC01CB0188199909AA09BB09D4
:10260000883E9340A105B10570F321E0C21AD108BC
:10261000E108F10888EE880E83E0981EA11CB11C29
:10262000C114D104E104F10419F7DDCFFF90EF905C
:10263000DF90CF90BF90AF909F908F9008952FB76D
:10264000F894609136047091370480913804909129
:1026500039042FBF08951F920F920FB60F921124C5
:102660002F933F938F939F93AF93BF9380913604A3
:1026700090913704A0913804B09139043091350419
:1026800023E0230F2D3720F40196A11DB11D05C0B5
:1026900026E8230F0296A11DB11D209335048093D7
:1026A000360490933704A0933804B0933904809192
:1026B0003A0490913B04A0913C04B0913D040196F2
:1026C000A11DB11D80933A0490933B04A0933C0458
:1026D000B0933D04BF91AF919F918F913F912F9106
:1026E0000F900FBE0F901F901895CF93DF93CDB72B
:1026F000DEB7CC54D1090FB6F894DEBF0FBECDBF04
:10270000789484B5826084BD84B5816084BD85B5CC
:10271000826085BD85B5816085BD80916E008160D8
:1027200080936E001092810080918100826080937E
:102730008100809181008160809381008091800080
:102740008160809380008091B10084608093B100AB
:102750008091B00081608093B00080917A008460A5
:1027600080937A0080917A00826080937A008091D1
:102770007A00816080937A0080917A0080688093EB
:102780007A001092C10061E085E00E949E1261E033
:1027900087E00E949E1261E086E00E949E12E09116
:1027A000BA04F091BB0482E08083E091B604F0911A
:1027B000B7041082E091B804F091B90480E18083FD
:1027C0001092C204E091BE04F091BF0486E08083C1
:1027D000E091BC04F091BD04808180618083E09130
:1027E000BC04F091BD04808188608083E091BC04CA
:1027F000F091BD04808180688083E091BC04F091F9
:10280000BD0480818F7D80830091600410916104FC
:1028100082E694E0D80113969C938E931297809150
:1028200062049091630420916404309165048217DE
:10283000930719F061E00E949E12809164049091C8
:10284000650420916204309163042817390719F058
:1028500061E00E949E12FFB6F8948091EA03811114
:1028600027C0ECECF5E08491E0EEF5E09491E82FE0
:10287000F0E0EE0FFF1FE256F94FA591B491EC91F5
:10288000E92321F461E08AE00E94521261E08AE0CB
:102890000E949E128CB580618CBD8CB580648CBD0D
:1028A00061E08DE00E949E1261E08BE00E949E122A
:1028B0008091EA038F5F8093EA03FFBE60E082E6C7
:1028C00094E00E948A0461E082E694E00E9496040B
:1028D00065E070E080E090E00E94E5124CE060E08E
:1028E00082E694E00E94CB044FE564E082E694E047
:1028F0000E94CB0482E090E00E941612882319F017
:1029000081E08093680466E082E694E00E942305FB
:10291000F82E80E090E00E94161260E082E694E0DB
:102920000E94960480E50E94B10483E70E94B104EE
:1029300082E694E00E94AE0440E06DE182E694E01D
:102940000E94CB0440E06CE182E694E00E94CB045C
:1029500010926A0440E767E082E694E00E94CB04AC
:102960004CE465E082E694E00E94CB0460E082E6FD
:1029700094E00E94960482EE0E94B10482E694E004
:102980000E94AE0482E694E00E94B80482E694E0DD
:102990000E943B0560E082E694E00E942305482FF8
:1029A0004E7F60E082E694E00E94CB048FEF8F0DB3
:1029B0008E3F08F088C04AEF64E082E694E00E940F
:1029C000CB0440E06DE182E694E00E94CB0440E05D
:1029D0006CE182E694E00E94CB0410926A0480E1EC
:1029E00080936904FF24F394F9AE1AAE1BAE1CAEBB
:1029F0001DAE1EAE1FAE21961FAE21972091700412
:102A0000AE01475C5F4F6AE082E694E00E94EE040C
:102A100020917004AE01475C5F4F60E182E694E074
:102A20000E94EE044091690461E182E694E00E9414
:102A3000CB0482E089AB1AAA1BAA1CAA1DAA1EAA53
:102A40001FAA18AEE2E8F2E0649120917004AE0192
:102A50004F5C5F4F82E694E00E94EE04ECE7F2E008
:102A600064914091690482E694E00E94CB0462E0A4
:102A700082E694E00E942305E6E7F2E0E49141E07B
:102A800050E001C0440FEA95EAF7482B62E082E685
:102A900094E00E94CB0466E082E694E00E94230565
:102AA000887F482F436066E082E694E00E94CB0472
:102AB00082E090E00E94161282E694E00E945405A3
:102AC000F801F28603C0D8011A961C920E941F13C7
:102AD000F801658376838783908700916004109165
:102AE0006104D80119961C920E941F13F801658396
:102AF000768387839087E0914604F091470430976E
:102B000021F084E494E094878387E0914804F09175
:102B10004904309749F086A197A18454944021F04C
:102B200084E494E097A386A38689813011F081E044
:102B3000868B808D833320F463E3CF010E94270CC2
:102B400061E085E00E94521261E087E00E9452122B
:102B500061E086E00E9452126AEF70E080E090E04F
:102B60000E94E51260E085E00E94521260E087E07A
:102B70000E94521260E086E00E94521269E972E0FF
:102B80008AEA94E00E94F9098091C5059091C605F2
:102B9000DE0111965D01BD01681B790B8AEA94E0A4
:102BA0000E94170E63E972E08AEA94E00E94460AE6
:102BB00067E872E08AEA94E00E94F9098091C5050D
:102BC0009091C605B501681B790B8AEA94E00E94D2
:102BD000170E7E01B1E4EB0EF11C0E941F13009151
:102BE0003E0410913F042091400430914104DC01E7
:102BF000CB01801B910BA20BB30B803D9740A1052D
:102C0000B10554F00E941F1360933E0470933F047B
:102C1000809340049093410400914804109149042A
:102C2000D80112968D919C911397DC01ED91FC9146
:102C30000084F185E02D0995892B09F4EAC3D801B8
:102C400012968D919C911397DC01ED91FC9100847B
:102C5000F185E02D0995181619060CF0DAC3F80174
:102C6000C280D3801501812C912C0E941F13D601A4
:102C700018966D937D938D939C931B97D601ED9140
:102C8000FC910284F385E02DC601099597FD04C0EF
:102C90008A309105C1F421C00E941F13F6014084BF
:102CA000518462847384DC01CB0184199509A609DF
:102CB000B709448055806680778084159505A60500
:102CC000B705E0F20AC0D1018D931D01BFEF8B1A49
:102CD0009B0AE0E38E16910441F6892809F4AFCFF0
:102CE000B501CE01895B9F4F0E94A60929968EAC43
:102CF0009FAC29978114910409F447C02D96CEAC5E
:102D0000DFAC2D97C114D10409F43FC02401320176
:102D1000FFEF4F1A5F0AD3018C91082E000C990B1C
:102D20000E949A2B892B99F7B1E0CB1AD108C80CD5
:102D3000D91CD6018C91082E000C990B0E949A2B5D
:102D4000892B89F4A6014F5F5F4F461957092D96CD
:102D50005FAF4EAF2D978614970460F4B301C401A2
:102D60000E94A62F07C0C614D70460F3E1E0CE1A74
:102D7000D108DFCF2996EEADFFAD29972D968EAD08
:102D80009FAD2D97E80FF91F10822D968EAD9FAD48
:102D90002D97892B09F432C365ED72E08AEA94E03D
:102DA0000E94F90929966EAD7FAD29978AEA94E0D1
:102DB0000E94320AD8015796EC918E2F90E089310B
:102DC000910508F038C2FC01EC5CFF4F0C94BD2E5D
:102DD0006EE271E0C7010E94A609B701CE01895BCE
:102DE0009F4F0E9471096C01C7010E94A109CD2863
:102DF00009F021C261E01CC26EE271E0C7010E94CD
:102E0000A609B701CE01895B9F4F0E9471096C0131
:102E1000C7010E94A109CD2809F00DC264E008C2D3
:102E200068E772E0C7010E94A609B701CE01895B7D
:102E30009F4F0E9457096C01C7010E94A109CD282C
:102E400019F081E4F801818F6EE271E0C7010E9400
:102E5000A609B701CE01895B9F4F0E947109892B9A
:102E600039F4DD24D394D80159968C91813409F03A
:102E7000D12CC7010E94A109DD2009F4DCC166E064
:102E8000C8010E94F20CF801118ED5C16EE271E00A
:102E9000C7010E94A609B701CE01895B9F4F0E941E
:102EA00071096C01C7010E94A109CD2869F4D801FC
:102EB00059968C918F3411F46EE001C06AE0C8011C
:102EC0000E94F20CF801118E6FE772E0C7010E94B8
:102ED000A609B701CE01895B9F4F0E9457096C017B
:102EE000C7010E94A109D7FC1BC067E872E0C701B7
:102EF0000E94A609B701CE01895B9F4F0E94570926
:102F00006C01C7010E94A1091C141D042CF48FE45C
:102F1000D80159968C938FC126E4F801218F8BC17B
:102F200068E972E0C7010E94A609B701CE01895B7A
:102F30009F4F0E9457096C01C7010E94A109D7FC4D
:102F40007AC16AE0C8010E94F20CC8010E94AB0C71
:102F500072C16EE271E0C7010E94A609B701CE01FD
:102F6000895B9F4F0E947109892B39F4DD24D3942A
:102F7000D80159968C91893409F0D12CC7010E944F
:102F8000A109DD2039F06EE0C8010E94F20CF801C1
:102F9000118E15C066ED72E0C7010E94A609B70147
:102FA000CE01895B9F4F0E9457096C01C7010E94A7
:102FB000A109D7FC04C06DE0C8010E94F20C6FE9C2
:102FC00072E0C7010E94A609B701CE01895B9F4F3D
:102FD0000E9471096C01C7010E94A109CD2809F066
:102FE0002AC1E9E473C066EA72E0C7010E94A6093B
:102FF000B701CE01895B9F4F0E9471096C01C70127
:103000000E94A109CD2809F016C16AE011C16FE93B
:1030100072E0C7010E94A609B701CE01895B9F4FEC
:103020000E9471096C01C7010E94A109CD2809F015
:1030300002C16EE0FDC06EE271E0C7010E94A60908
:10304000B701CE01895B9F4F0E9471096C01C701D6
:103050000E94A109CD28A1F4D80159968C918253E0
:10306000823028F468E1C8010E94F20C07C064E1D4
:10307000C8010E94F20CC8010E947F0DF801118E58
:103080006FEA72E0C7010E94A609B701CE01895B11
:103090009F4F0E9471096C01C7010E94A109CD28B0
:1030A00011F4E2E313C065EB72E0C7010E94A609C8
:1030B000B701CE01895B9F4F0E9471096C01C70166
:1030C0000E94A109CD2809F0B6C0E3E3D8015996C2
:1030D000EC93B1C0D80159968C91893199F46EE284
:1030E00071E0C7010E94A609B701CE01895B9F4F1D
:1030F0000E9471096C01C7010E94A109CD2811F439
:1031000068E112C06BEB72E0C7010E94A609B7012B
:10311000CE01895B9F4F0E9471096C01C7010E941B
:10312000A109CD2829F464E1C8010E94F20C3DC038
:1031300062EC72E0C7010E94A609B701CE01895B6B
:103140009F4F0E9457096C01C7010E94A109D7FC3B
:1031500004C088E1F801818F28C066EC72E0C701E5
:103160000E94A609B701CE01895B9F4F0E94710999
:103170006C01C7010E94A109CD2811F4E9E112C038
:103180006EEC72E0C7010E94A609B701CE01895B0F
:103190009F4F0E9457096C01C7010E94A109D7FCEB
:1031A00004C0EAE1D8015996EC936BED72E0C701D7
:1031B0000E94A609D70114964D915C9115972D9602
:1031C0008EAD9FAD2D978417950788F029968EAD0B
:1031D0009FAD2997009759F06D917C91611571050C
:1031E00031F00E94BF2FDD24D394892B09F0D12C1C
:1031F000C7010E94A109DD20F1F0F801818D88311D
:1032000011F468E115C08A31B1F411C06BEB72E0C2
:10321000C7010E94A609B701CE01895B9F4F0E949A
:1032200071096C01C7010E94A109CD2821F464E154
:10323000C8010E94F20CD80157968C918E3018F17B
:103240006FE972E0C7010E94A609B701CE01895B50
:103250009F4F0E9471096C01C7010E94A109CD28EE
:1032600091F46EE0C8010E94F20C2AEF30E0F80100
:1032700033A322A30E941F13D8015A966D937D9306
:103280008D939C935D97F801808D833308F4B6C0CD
:10329000863309F44DC0873309F461C0853309F0E2
:1032A000ADC06EED72E0C7010E94A609B701CE0164
:1032B000895B9F4F0E9457096C01C7010E94A109B9
:1032C000D7FC9CC066E3C8010E94270CD8019496E5
:1032D0008D919C9195970097C9F0DC01ED91FC913F
:1032E0000480F581E02D09956C0163EB72E08AEAB8
:1032F00094E00E94460AB6018AEA94E00E94320AEB
:10330000B601F801828193810E941D0A65EA72E08C
:103310008AEA94E00E94F9098091C5059091C6055A
:10332000B701681B790B8AEA94E00E94170E66C009
:1033300060EE72E0C7010E94A609B701CE01895B69
:103340009F4F0E9471096C01C7010E94A109CD28FD
:1033500009F054C067E3C8010E94270C4FC068EE13
:1033600072E0C7010E94A609B701CE01895B9F4F99
:103370000E9457096C01C7010E94A109D7FC02C035
:1033800068E312C060EF72E0C7010E94A609B701AE
:10339000CE01895B9F4F0E9457096C01C7010E94B3
:1033A000A109D7FC04C069E3C8010E94270C0E9450
:1033B0001F13D8015E964D905D906D907C90919713
:1033C000DC01CB0184199509A609B709813197421F
:1033D000A105B10598F06EEB72E08AEA94E00E94D4
:1033E000460A64E3C8010E94270C0E941F13D801FB
:1033F0005E966D937D938D939C93919780E3F501F9
:1034000011928A95E9F7CE01895B9F4F0E94A1092D
:1034100016CCF8018689882309F4CDC182A193A135
:10342000892B21F10E941F13D8015A964D905D906F
:103430006D907C905D97AB01BC01441955096609FC
:10344000770992968D919C919397A0E0B0E08417B4
:103450009507A607B70708F0AEC10E941F13F80131
:10346000628F738F848F958F13A212A2D801579603
:10347000EC918E2F90E08931910508F0F5C0FC01A8
:10348000E35BFF4F0C94BD2EC8010E94C30DECC03E
:103490000E941F13F801428C538C648C758CDC01E4
:1034A000CB0184199509A609B709813A9F40A10566
:1034B000B10508F4D9C067E073E0D80112968D9188
:1034C0009C9113970E94460A0E941F13F801628F75
:1034D000738F848F958FC8C00E941F13D8015A968E
:1034E0004D905D906D907C905D97DC01CB018419CF
:1034F0009509A609B709893B9B40A105B10508F4C8
:10350000B3C0C8010E94C30DA6C00E941F13F801DA
:10351000428C538C648C758CDC01CB018419950929
:10352000A609B70989389341A105B10508F49CC0E3
:1035300092C00E941F13F801428C538C648C758CCE
:10354000DC01CB0184199509A609B70980389E438F
:10355000A105B10508F488C06DE03FC00E941F13AB
:1035600083C00E941F13F801428C538C648C758CAD
:10357000DC01CB0184199509A609B7098033954769
:10358000A105B10508F470C063C00E941F13F801C3
:10359000428C538C648C758CDC01CB0184199509A9
:1035A000A609B709803A9F40A105B10508F45CC09F
:1035B00013C00E941F13F801428C538C648C758CCD
:1035C000DC01CB0184199509A609B7098838934114
:1035D000A105B10508F448C064E1C8010E94F20CDD
:1035E0003AC00E941F13F801468C578C60A071A04E
:1035F000DC01CB0184199509A609B70980319742EE
:10360000A105B10588F16BEF72E0D80112968D919A
:103610009C9113970E94460A0E941F13F801668F1F
:10362000778F80A391A320C00E941F13D8015A96C0
:103630004D905D906D907C905D97DC01CB0184197D
:103640009509A609B70980339547A105B10560F032
:10365000C8010E946A0D0E941F13D8015A966D93EB
:103660007D938D939C935D97F801808D853309F44C
:103670005EC018F4833341F09EC0863309F457C00E
:10368000873309F474C097C08481882309F493C0F8
:103690008789883109F044C08589F801E80FF11D58
:1036A000E80FF11D85819681009709F456C0F80155
:1036B00095A384A3DC01ED91FC910480F581E02DBC
:1036C0000995FC0101900020E9F731976F01C81AB4
:1036D000D90A6FEE72E08AEA94E00E94460ADD247D
:1036E000B6018AEA94E00E94170E63EE72E0F801D8
:1036F000828193810E94F909B601D80112968D91B9
:103700009C9113970E94170E65E3C8010E94270C35
:103710000E941F13F801668F778F80A391A31DC0AD
:103720008E3008F448C0C8010E947F0D44C00E943A
:103730001F13F801468C578C60A071A0DC01CB01EF
:1037400084199509A609B70989399A43A105B105D4
:1037500090F163E3C8010E94270C0E941F13D80157
:103760005E966D937D938D939C93919724C00E9458
:103770001F13F801468C578C60A071A0DC01CB01AF
:1037800084199509A609B70981319742A105B105A8
:1037900090F069E3C8010E94270C88EE93E0D801FD
:1037A00093969C938E9392970E941F13F801628FB9
:1037B000738F848F958F80915A04811115C00E9458
:1037C0001F1300915B0410915C0420915D04309103
:1037D0005E04DC01CB01801B910BA20BB30B81318A
:1037E0009742A105B105B8F580915A048130B1F432
:1037F0000E941F1300915B0410915C0420915D04F2
:1038000030915E04DC01CB01801B910BA20BB30B4A
:10381000813A9F40A105B10508F076C010915A0485
:103820001230B1F40E941F1340905B0450905C046E
:1038300060905D0470905E04DC01CB0184199509F1
:10384000A609B70989399A43A105B10508F060C0F6
:103850000E941708C2C982E090E00E9466244C01D1
:1038600088E291E0D4018D939C9389E090E00E94DE
:1038700066246C0184E191E0F601918380837724D2
:103880007394728288EC9FEAA0E0B0E08383948313
:10389000A583B6838BE092E09087878386E090E0F3
:1038A0000E9466248C018AE091E0D80111969C93D5
:1038B0008E9313961C921E92129714961C92149734
:1038C00015961C92B40180914804909149040E947D
:1038D000D80DB60180914804909149040E94D80DFA
:1038E000B80180914804909149040E94D80D0E942B
:1038F0001F1360935B0470935C0480935D0490934A
:103900005E0470925A0470CF82E080935A0486CF8E
:103910000E941F1360935B0470935C0480935D04AA
:1039200090935E0410935A0493CF08950C94FB2453
:1039300002970C94961C2F923F924F925F926F9237
:103940007F928F929F92AF92BF92CF92DF92EF922F
:10395000FF920F931F93CF93DF93CDB7DEB7C2547F
:10396000D1090FB6F894DEBF0FBECDBF5C01FB01DD
:10397000828093808681978123969FAF8EAF239715
:10398000D50114968D919C9115978816990609F08A
:1039900058C22296BFAD2297BB3509F052C264814E
:1039A0007581FE0131967F01AF01CE01C7960E945D
:1039B000DE0608E010E01BAB0AAB1DAA1CAA88E0DB
:1039C00090E00E94662499AB88AB1CA70BA71EA6AB
:1039D0001DA688E390E00E9466249AA789A700911B
:1039E000750510917605E0917105F0917205AFA90A
:1039F000B8ADCF01800F911FE817F90709F47EC217
:103A000031912D913217C1F350C021968FAF21977C
:103A10006EA17FA16F5F7F4FAE01405C5F4FCE0113
:103A200082960E9414060F5F1F4F2BAD3CAD8FA9ED
:103A300098AD820F931FC816D90649F0D6018D9113
:103A40006D018D3311F70115110509F064C22EA126
:103A50003FA12115310529F12150310941E050E004
:103A6000BE016E5D7F4FC7010E947A0B0CA91DA994
:103A70006D817E81600F711F1FAEAE01415C5F4F93
:103A8000CE01C0960E9414064D815E8169817A81C3
:103A900088A999A9800F911F0E946F06C7010E94F3
:103AA0004E06CE0182960E944E0664E975E0CE0174
:103AB000C0960E945F04892B09F0D6C081E493E48C
:103AC000A2E5B0E08B8F9C8FAD8FBE8FCE014B9661
:103AD0009F938F9387EF92E09F938F93FF92EF9244
:103AE0000E9417300E94020C6C010F900F900F90F3
:103AF0000F900F900F90DC011A968C911A978823E3
:103B000009F480C112960D911C91139760E0C801D1
:103B10000E948A04F801808991890E94DA126DE17D
:103B2000C8010E94230581FF0AC0D80150968D91DB
:103B30009C9151970E94DA12C8010E94B80460E07B
:103B4000C8010E942305482F4E7F60E0C8010E94F3
:103B5000CB0462E0C8010E942305E5E7F2E0E491AE
:103B600041E050E001C0440FEA95EAF7482B62E0DB
:103B7000C8010E94CB04F60102811381D801179677
:103B80008C91482E813110F090E1492EF8019085FA
:103B9000911103C0582E541801C0512C60E0C80187
:103BA0000E94960480EA0E94B10437014A94BFEF54
:103BB0004B1631F0D3018D913D010E94B104F6CF37
:103BC000752C772029F080E00E94B1047A94F9CF17
:103BD000C8010E94AE0461E0C8010E948A0460E04E
:103BE000C8010E9496048FEF0E94B104782EC8018C
:103BF0000E94AE04872D807391F360E0C8010E949B
:103C00008A0440E767E0C8010E94CB0484FF03C038
:103C1000C8010E94B80461E070E080E090E00E947A
:103C2000E512F601838594850097C1F0DC01ED91E2
:103C3000FC910480F581E02D2EE331E03A8B298B55
:103C4000DC8ACB8AFE8AED8A2CE530E0388F2F8B18
:103C50001A8E198EBE016F5E7F4F0995F601828123
:103C600093810E945405CEC06DE875E0CE01C096E8
:103C70000E945F04892B09F087C069A57AA5870196
:103C80002FEF3FEF40E050E0CE014B960E949206AE
:103C9000CE014B960E9453060E94932520E030E00F
:103CA0004AE754E40E94E62D1B012C01D5011A9627
:103CB0006D907C901B979B01AC01F301658176812F
:103CC000878190850E946E2C882309F45AC0D30105
:103CD00015962D923D924D925C9218976E01B2E22C
:103CE000CB0ED11C86E0F60111928A95E9F7860188
:103CF00022E042E0C201B1010E94462488E090E047
:103D00009C8B8B8B1E8A1D8A0E9466249A8B898BC2
:103D100020E030E040E251E4C201B1010E946E2C8B
:103D200087FF06C06DEF72E0CE0141960E94C70B7F
:103D3000B601CE0141960E94C70B6FEF72E0CE0133
:103D400041960E94C70B8E01025C1F4F2FEF3FEF81
:103D500040E050E0BE016F5E7F4FC7010E949206B7
:103D600040E050E0B701D30112968D919C911397DA
:103D70000E949D0EC7010E944E06CE0141960E94F0
:103D80004E06CE014B963CC066E875E0CE01C0966B
:103D90000E945F04892BB1F16FE775E0CE01C096F8
:103DA0000E945F04892B71F168E775E0CE01C0962F
:103DB0000E945F04892B31F16EEB75E0CE01C09655
:103DC0000E945F04892BF1F469A57AA58E010F5E2C
:103DD0001F4F2FEF3FEF40E050E0C7010E949206D7
:103DE000C7010E9453060E9493250E94582ED501B8
:103DF0001A96ED91FC911B97858586136587C701FF
:103E00000E944E06E12CF12C00E010E02DA53EA50D
:103E100089A59AA50217130750F48E0D9F1D0E94C5
:103E20004E060F5F1F4FB7E0EB0EF11CEFCF0E9465
:103E3000FB24CE01C0960E944E06CE01C7960E947A
:103E40004E06F501868197818816990609F01DC1F5
:103E50002396EEADFFAD2397FF27EA33F10508F077
:103E600014C1EA59FF4F0C94BD2E60ED74E041C0BF
:103E700064EC74E03EC062EB74E03BC06EE974E059
:103E800038C06DE874E035C06AE774E032C063E6BC
:103E900074E02FC063E574E02CC06EE374E029C0C9
:103EA00064E274E026C060E174E023C067EF73E071
:103EB00020C065EE73E01DC06EEC73E01AC068EBC5
:103EC00073E017C066EA73E014C063E973E011C0E1
:103ED00060E873E00EC068E673E00BC066E573E06F
:103EE00008C06CE373E005C068E273E002C06EE0F6
:103EF00073E08AEA94E00E94460AC7C0A70161E223
:103F000073E0CE0182960E94DE06CFA8D8ACF2E024
:103F1000CF0ED11C8ACD0F5F1F4F21503109A80150
:103F2000BE01695C7F4FCE014B960E947A0B2E0139
:103F3000B1E14B0E511CAE01425C5F4F61E371E099
:103F4000C2010E94DE068D899E896F8C78A068165A
:103F5000790620F4CC24CA94DC2C21C0EFEF6E1A31
:103F60007E0A681A790AC12CD12CC614D70491F3A1
:103F70002D893E89A601BE01655E7F4FC7010E9463
:103F80007A0BB701C2010E945F041C01C7010E94A5
:103F90004E06232821F0FFEFCF1ADF0AE6CFCE012D
:103FA00041960E944E06CD20C09409F456C08F8DD4
:103FB00098A1EB8DFC8D00E010E00817190749F07F
:103FC00021912C3219F4C12CD12C15C00F5F1F4F39
:103FD000F4CF0FEF1FEFF7CF0F5F1F4F021713073D
:103FE00058F5FC01E00FF11F60816C32A9F70F3F1B
:103FF0008FEF180709F10F3F9FEF190709F440C031
:1040000098012C193D09A601BE01655E7F4FC701CD
:104010000E947A0BB701CE0189960E94B20AC701AD
:104020000E944E06A8014F5F5F4F6A012F8D38A195
:104030008B8D9C8D8A01D2CFBE01655E7F4FC701FB
:104040000E947A0BB701CE0189960E94B20AC7017D
:104050000E944E060FEF1FEFCECF2BAD3CAD21508F
:104060003109A801BE01695C7F4FC7010E947A0B2C
:10407000B701CE0189960E94B20AC7010E944E067E
:10408000CE014B960E944E06E2CCCE5BDF4F0FB6C0
:10409000F894DEBF0FBECDBFDF91CF911F910F917E
:1040A000FF90EF90DF90CF90BF90AF909F908F9058
:1040B0007F906F905F904F903F902F900895029760
:1040C0000C949B1C8F929F92AF92BF92EF92FF92A3
:1040D0000F931F93CF93DF931F92CDB7DEB72AEADA
:1040E000E22E24E0F22E1092AD041092AC0438EED1
:1040F000832E33E0932EA12CB12C8092AE049092AB
:10410000AF04A092B004B092B1048EE691E0909317
:10411000AB048093AA0485EC90E09093B70480935D
:10412000B60484EC90E09093B9048093B80480ECDA
:1041300090E09093BB048093BA0481EC90E090935C
:10414000BD048093BC0482EC90E09093BF04809304
:10415000BE0486EC90E09093C1048093C00410925A
:10416000C3041092C4041092C5041092C604AE0198
:104170004F5F5F4F68E973E08EEB95E00E94DE06CB
:10418000AE014F5F5F4F6BE973E087EB95E00E94F4
:10419000DE06AE014F5F5F4F6EE973E080EB95E0A6
:1041A0000E94DE06AE014F5F5F4F63EA73E089EA6B
:1041B00095E00E94DE06AE014F5F5F4F67EA73E055
:1041C00082EA95E00E94DE06AE014F5F5F4F6BEA28
:1041D00073E08BE995E00E94DE06AE014F5F5F4F12
:1041E0006FEA73E084E995E00E94DE06AE014F5F5E
:1041F0005F4F63EB73E08DE895E00E94DE06AE0151
:104200004F5F5F4F67EB73E086E895E00E94DE0644
:10421000AE014F5F5F4F6BEB73E08FE795E00E945D
:10422000DE06AE014F5F5F4F6FEB73E088E795E00E
:104230000E94DE06AE014F5F5F4F63EC73E081E7E3
:1042400095E00E94DE0621E230E030935F05209386
:104250005E0510926005109261051092620546E0BD
:1042600050E060E070E04093630550936405609314
:1042700065057093660510926705109268051092A7
:10428000690510926A0510E210936B0510926D0596
:1042900010926C051092700589E495E090936F057B
:1042A00080936E058EE092E09093480580934705D9
:1042B00088E192E090935C0580935B0510924D0538
:1042C00010924C0510924F0510924E051092510518
:1042D00010925005109253051092520510925505F8
:1042E0001092540510925705109256058CEE91E0ED
:1042F00090934A0580934905F0925A05E09259053A
:10430000E0E1E093580530939804209397041092CD
:10431000990410929A0410929B0440939C04509329
:104320009D0460939E0470939F041092A0041092C9
:10433000A1041092A2041092A3041093A40410925A
:10434000A6041092A5041092A90410927E04109263
:104350007F04109280041092810422E834E03093AC
:10436000A8042093A70426E931E030937D0420932C
:104370007C0420EA31E03093950420939404109259
:10438000860410928504109288041092870410927B
:104390008A041092890410928C0410928B0410925B
:1043A0008E0410928D041092900410928F049093BA
:1043B000830480938204F0929304E092920488E054
:1043C00080939104F0927B04E0927A0466E270E1BB
:1043D0008EE390E10E949E2589E090E09093630433
:1043E000809362048AE090E0909365048093640473
:1043F000109268041093690410926A0485E0809317
:10440000700485E090E0A0E0B0E0809376049093A3
:104410007704A0937804B093790410926B040E94FF
:10442000020C909361048093600486E692E090937E
:1044300043048093420482E792E090934504809382
:1044400044040E94020C9093470480934604809198
:10445000310490913204892B09F02FC188E290E059
:104460000E9466248C018AE392E0D8018D939C938C
:104470008FE190E00E9466247C01FC01138212828D
:1044800084829582A682B78288E292E091838083BB
:10449000178A168A118E108E138E128E158E148E18
:1044A000668D6E7F6D7F668F6695617081E068278F
:1044B00083E00E94521261E083E00E949E12E9EDC7
:1044C000F5E0E491D7015096EC93E5ECF5E0E4914A
:1044D000F0E0EE0FFF1FE255FA4F85919491F7013E
:1044E000928B818B60E082E00E949E12D7015E96E3
:1044F0008C9181FD04C061E082E00E94521282E052
:10450000F7018487E8EDF5E0E491D7011D96EC937F
:10451000E4ECF5E0E491F0E0EE0FFF1FE854FA4F11
:1045200085919491F70197878687D8011396FC921D
:10453000EE92129714961C92149755961C925597CA
:1045400056961C92569757961C92579758961C92BF
:10455000589759961C920E941F13F801628F738F0F
:10456000848F958F0E941F13D8015E966D937D9363
:104570008D939C93919793961C921E9292979796E7
:104580001C921E929697F8013596C8014596119295
:104590001192E817F907D9F7D8011296ED91FC911D
:1045A0001397138E128E118E108E178A168A8DE92C
:1045B00091E0958F848F8485863108F04DC02DEB76
:1045C00030E0378B268B2BE931E0318F208F2CE2C6
:1045D00031E0338F228F90916800883050F021E0D5
:1045E0008E3008F420E081E001C0880F2A95EAF7B8
:1045F00001C084E0892B809368009485983038F05E
:104600009E3040F0963148F020E030E008C02DE6C2
:1046100030E005C02BE630E002C02CE630E0348B01
:10462000238B983030F481E001C0880F9A95EAF727
:104630000EC0292F30E09E3018F42850310902C0F6
:104640002E50310981E001C0880F2A95EAF7858B49
:10465000848D958D0197F1F7828D938D892B49F18A
:1046600040912F04509130044E175F0711F141150E
:10467000510571F0DA0153962D913C915497D9016F
:104680009C91DA0155968C9180958923D9018C9360
:10469000868D8E7F868F10922E0410922D04F093BB
:1046A0003004E0932F04A389B4899C918589892BD8
:1046B0008C931093320400933104809131049091D3
:1046C000320490934904809348048091330490917C
:1046D0003404892B09F042C082E090E00E946624F5
:1046E000FC0182E492E091838083A091BA04B091AE
:1046F000BB0482E08C93A091B604B091B7041C92E5
:10470000A091B804B091B9048FEC8C931092C204BC
:10471000A091BE04B091BF0486E08C93A091BC042C
:10472000B091BD049C9190619C93A091BC04B09108
:10473000BD049C9198609C93A091BC04B091BD0471
:104740009C9190689C93A091BC04B091BD049C91F5
:104750009F7D9C93F0933404E093330400913304E1
:104760001091340410934B0400934A0480E190E0CC
:104770000E946624FC018AE492E091838083138383
:10478000028381E084831582168217821086118647
:10479000128613861486158616861786F0934D04A6
:1047A000E0934C0410924E0410924F041092500467
:1047B0001092510410925204109253041092540417
:1047C00010925504109256041092570410925804F7
:1047D0001092590410925A040E941F1360935B04B4
:1047E00070935C0480935D0490935E0410925F0468
:1047F0000E941F1360933E0470933F048093400413
:10480000909341040F90DF91CF911F910F91FF90F2
:10481000EF90BF90AF909F908F9008958CE794E0B9
:104820000E948A1087E495E00E94D81081E795E005
:104830000E944E0688E795E00E944E068FE795E0BD
:104840000E944E0686E895E00E944E068DE895E0AF
:104850000E944E0684E995E00E944E068BE995E0A1
:104860000E944E0682EA95E00E944E0689EA95E093
:104870000E944E0680EB95E00E944E0687EB95E085
:104880000E944E068EEB95E00C944E06EF920F932D
:104890001F93CF93DF93E80147FD02C034E001C0CE
:1048A00034E1E42F440FFF0BF7FF03C0F195E195CE
:1048B000F109E32E022F2E2FAE010E94D727CE0141
:1048C000DF91CF911F910F91EF900895CF93DF93D8
:1048D0008230910510F482E090E0E091C705F091FC
:1048E000C80520E030E0C0E0D0E0309711F1408111
:1048F000518148175907C0F04817590761F4828160
:104900009381209719F09B838A832BC09093C805CD
:104910008093C70526C02115310519F042175307AA
:1049200018F49A01BE01DF01EF010280F381E02D4E
:10493000DCCF2115310509F1281B390B2430310555
:1049400090F412968D919C9113976115710521F049
:10495000FB019383828304C09093C8058093C705AD
:10496000FD01329644C0FD01E20FF31F8193919344
:10497000225031092D933C933AC02091C5053091C6
:10498000C605232B41F4209102013091030130939D
:10499000C6052093C5052091000130910101211524
:1049A000310541F42DB73EB7409104015091050106
:1049B000241B350BE091C505F091C605E217F307FE
:1049C000A0F42E1B3F0B2817390778F0AC014E5F7F
:1049D0005F4F2417350748F04E0F5F1F5093C605F1
:1049E0004093C5058193919302C0E0E0F0E0CF01D0
:1049F000DF91CF9108950F931F93CF93DF9300978B
:104A000009F48CC0FC013297138212820091C70511
:104A10001091C8050115110581F420813181820FA3
:104A2000931F2091C5053091C6052817390779F5E0
:104A3000F093C605E093C50571C0D80140E050E091
:104A4000AE17BF0750F412962D913C911397AD010C
:104A50002115310509F1D901F3CF9D01DA01338325
:104A6000228360817181860F971F8217930769F4F3
:104A7000EC0128813981260F371F2E5F3F4F31838C
:104A800020838A819B8193838283452B29F4F09331
:104A9000C805E093C70542C01396FC93EE931297A6
:104AA000ED01499159919E01240F351FE217F3073B
:104AB00071F480819181840F951F029611969C93C9
:104AC0008E938281938113969C938E931297E0E04C
:104AD000F0E0D80112968D919C911397009719F0F0
:104AE000F8018C01F6CF8D919C9198012E5F3F4F7C
:104AF000820F931F2091C5053091C60528173907ED
:104B000069F4309729F41092C8051092C70502C0C5
:104B1000138212821093C6050093C505DF91CF91D1
:104B20001F910F910895662777270C946529FB0143
:104B3000DC0105900D920020E1F708950F931F937B
:104B4000CF93DF93009731F46115710519F480E07C
:104B500090E03AC08B01EC016EE070E081E090E003
:104B60000E94BB27FC01892B91F380E88383011508
:104B7000110571F01387028781E883838091C9054D
:104B80009091CA05892B21F4F093CA05E093C905D9
:104B90002097C9F0D187C087838182608383809109
:104BA000CB059091CC05892B71F4F093CC05E09363
:104BB000CB058091CD059091CE05892B21F4F09302
:104BC000CE05E093CD05CF01DF91CF911F910F91DD
:104BD0000895ACE0B0E0EFEEF5E20C94A02D7C017E
:104BE0006B018A01FC0117821682838181FFBDC19E
:104BF000CE0101964C01F7019381F60193FD859159
:104C000093FF81916F01882309F4ABC1853239F498
:104C100093FD859193FF81916F01853229F4B7014E
:104C200090E00E94D82BE7CF512C312C20E020328D
:104C3000A0F48B3269F030F4803259F0833269F499
:104C400020612CC08D3239F0803339F4216026C0C8
:104C50002260246023C0286021C027FD27C030EDDA
:104C6000380F3A3078F426FF06C0FAE05F9E300D28
:104C70001124532E13C08AE0389E300D1124332E98
:104C800020620CC08E3221F426FD6BC1206406C068
:104C90008C3611F4206802C0883641F4F60193FD89
:104CA000859193FF81916F018111C1CF982F9F7DD5
:104CB0009554933028F40C5F1F4FFFE3F9830DC028
:104CC000833631F0833771F0833509F05BC022C041
:104CD000F801808189830E5F1F4F44244394512C37
:104CE000540115C03801F2E06F0E711CF801A0806C
:104CF000B18026FF03C0652D70E002C06FEF7FEF2B
:104D0000C5012C870E94CD2B2C0183012C852F7788
:104D1000222E17C03801F2E06F0E711CF801A0803E
:104D2000B18026FF03C0652D70E002C06FEF7FEFFA
:104D3000C5012C870E94BB2B2C012C852068222EBC
:104D4000830123FC1BC0832D90E048165906B0F464
:104D5000B70180E290E00E94D82B3A94F4CFF5019D
:104D600027FC859127FE81915F01B70190E00E94A9
:104D7000D82B31103A94F1E04F1A510841145104E4
:104D800071F7E5C0843611F0893639F5F80127FF4F
:104D900007C060817181828193810C5F1F4F08C0C1
:104DA00060817181072E000C880B990B0E5F1F4FDD
:104DB0002F76722E97FF09C090958095709561951A
:104DC0007F4F8F4F9F4F2068722E2AE030E0A40162
:104DD0000E94102CA82EA81844C0853729F42F7ED5
:104DE000B22E2AE030E025C0F22FF97FBF2E8F3699
:104DF000C1F018F4883579F0B4C0803719F08837DD
:104E000021F0AFC02F2F2061B22EB4FE0DC08B2D2C
:104E10008460B82E09C024FF0AC09F2F9660B92E67
:104E200006C028E030E005C020E130E002C020E10B
:104E300032E0F801B7FE07C0608171818281938101
:104E40000C5F1F4F06C06081718180E090E00E5FB3
:104E50001F4FA4010E94102CA82EA818FB2DFF772D
:104E60007F2E76FE0BC0372D3E7FA51450F474FEC6
:104E70000AC072FC08C0372D3E7E05C0BA2C372D03
:104E800003C0BA2C01C0B52C34FF0DC0FE01EA0DE1
:104E9000F11D8081803311F4397E09C032FF06C0D4
:104EA000B394B39404C0832F867809F0B39433FD90
:104EB00013C030FF06C05A2CB31418F4530C5B18FF
:104EC000B32CB31468F4B70180E290E03C870E94F1
:104ED000D82BB3943C85F5CFB31410F43B1801C024
:104EE000312C34FF12C0B70180E390E03C870E9470
:104EF000D82B3C8532FF17C031FD03C088E790E016
:104F000002C088E590E0B7010CC0832F867859F085
:104F100031FF02C08BE201C080E237FD8DE2B701B4
:104F200090E00E94D82BA51438F4B70180E390E0FC
:104F30000E94D82B5A94F7CFAA94F401EA0DF11DE0
:104F40008081B70190E00E94D82BA110F5CF3320CB
:104F500009F451CEB70180E290E00E94D82B3A9438
:104F6000F6CFF7018681978102C08FEF9FEF2C96D5
:104F7000E2E10C94BC2D0F931F93CF93DF93869F98
:104F80008001879F100D969F100D1124C8010E946B
:104F90006624EC01009729F0A80160E070E00E940F
:104FA000C62BCE01DF91CF911F910F9108954F92A3
:104FB0005F926F927F929F92AF92BF92CF92DF9259
:104FC000EF92FF920F931F93CF93DF93CDB7DEB78E
:104FD00029970FB6F894DEBF0FBECDBF6A01122F1E
:104FE000B02E2BE3201720F0FF24F394F00E02C024
:104FF000BCE3FB2E0F2D27E0AE014F5F5F4F0E94F9
:10500000C22AAC018981982F9970913031F0E1FC6E
:1050100006C0E0FE06C090E205C09DE203C09BE230
:1050200001C090E0EE2DE07183FF3CC0911102C001
:1050300083E001C084E0811718F4212F281B01C0F0
:1050400020E0E1110BC0F601822F30E2882319F035
:1050500031938150FBCFC20ED11C20E0992329F05F
:10506000D6019C93F60131966F01C6010396E2FECC
:105070000AC03EE4D6013C9341E411964C9311974B
:1050800012963C9306C03EE6F601308341E641832A
:105090003283FC01322F40E2332309F442C04193B2
:1050A0003150FACF82FF44C0911102C083E001C0A9
:1050B00084E0811718F4212F281B01C020E0E111A2
:1050C0000BC0F601822F30E2882319F03193815012
:1050D000FBCFC20ED11C20E0992329F0D6019C936E
:1050E000F60131966F01C6010396E2FE0BC039E46A
:1050F000D6013C933EE411963C93119736E4129608
:105100003C9307C039E6F60130833EE6318336E64C
:105110003283FC01322F40E2332319F041933150A6
:10512000FBCFFC01E20FF11D10828EEF9FEFB7C0A5
:10513000F1E0911101C0F0E06F2F70E01416150638
:1051400024F49A012F5F3F4F02C021E030E0260F88
:10515000371FBB2029F06B2D70E06F5F7F4F02C0BF
:1051600060E070E0260F371F612F70E026173707C9
:105170001CF4121B212F01C020E03E2D387159F480
:10518000D601322F60E2332319F06D933150FBCFFB
:10519000C20ED11C20E0FF2331F0D6019C93B60152
:1051A0006F5F7F4F6B01E1110BC0F601922F30E36F
:1051B000992319F031939150FBCFC20ED11C20E0FE
:1051C0009F2D940F3A81782F7071A72E84FF03C012
:1051D000313309F49150191624F4993018F098E0FD
:1051E00001C091E0E42F852F57FF02C0E0E080E08E
:1051F0006E2F782FE0E0F0E0AEE29A2E3A01691AC5
:1052000071082A01461A570A0B2D10E011950195D5
:1052100011096F3F8FEF780729F4D6019C92C601E0
:1052200001966C014617570784F0661677066CF4F2
:105230007F01E40CF51CA1E0B0E0AC0FBD1FEA0E4D
:10524000FB1ED7011196BC9002C090E3B92E6150AD
:1052500071093196C60101967C016017710724F02F
:10526000D601BC926C01D5CF6417750741F4363373
:1052700020F4353321F4A11002C081E3B82EF601E9
:10528000B082F701822F90E2882319F09193815028
:10529000FBCFF701E20FF11D108280E090E029962C
:1052A0000FB6F894DEBF0FBECDBFDF91CF911F9137
:1052B0000F91FF90EF90DF90CF90BF90AF909F90B5
:1052C0007F906F905F904F900895A0E0B0E0EBE684
:1052D000F9E20C94A42DEC017B016115710519F024
:1052E000DB018D939C938E010F5F1F4F7880872D7C
:1052F00090E00E949A2B892B11F0E801F4CFBDE2D7
:105300007B1205C00F5F1F4F7980C1E008C0EBE240
:105310007E1204C08E010E5F1F4F7980C0E06801CD
:10532000F1E0CF1AD10843E050E068E471E0C60133
:105330000E94A32B892BF1F4680122E0C20ED11C3C
:1053400045E050E063E471E0C6010E94A32B892B85
:1053500021F4680187E0C80ED11CE114F10419F0B2
:10536000D701CD92DC92C111FFC060E070E080E80F
:105370009FE703C143E050E060E471E0C6010E9492
:10538000A32B892B51F4E114F10409F4F2C00E5F50
:105390001F4FF70111830083ECC0680160E070E0EB
:1053A000CB0100E010E0F601D0EDD70DDA3058F572
:1053B0002C2F2260622E2C2F2870C2FF05C02111D5
:1053C00028C00F5F1F4F25C0222311F00150110983
:1053D000A5E0B0E09B01AC010E94952D4B015C0162
:1053E000880C991CAA1CBB1CC501B4016D0F711D52
:1053F000811D911D6839A9E97A078A07A9E19A07F1
:1054000040F0C66005C0DE3F51F4C3FD44C0C86033
:105410006C2EBFEFCB1ADB0A7080C62DC4CF2D2FA8
:105420002F7D2531C1F540814D3211F4C06106C098
:105430004B3221F0319621E030E006C03296D601A1
:1054400011964C9122E030E0A0EDA40FAA3018F0A4
:10545000E21BF30B20C040E050E04038BCE05B07AB
:105460005CF49A01220F331F220F331F420F531F88
:10547000440F551F4A0F511D3196DF0111972C9192
:10548000A0EDA20FAA3048F3C4FF03C05195419587
:105490005109040F151FC1FF07C0E114F10421F0E9
:1054A0003197D701ED93FC930E94732CC370C330E6
:1054B00019F06B017C0106C06B017C01F7FAF094D6
:1054C000F7F8F09420E030E0A901C701B6010E948E
:1054D0006E2C882309F445C017FF06C0119501956D
:1054E0001109CFE5D1E002C0C7E7D1E05E01B8E124
:1054F000AB1AB1084601BE2DAF2D90E2E92EF12C7A
:105500000E151F0584F0FE012591359145915491AA
:10551000B4018B2F9A2F0E94D42C4B01B82FA92FA6
:105520000E191F09EDCF2497F594E794CA15DB05F2
:1055300039F76401EB2EFA2E8E2D880F8F2D881FE0
:105540008F3F49F020E030E0A901C701B6010E9479
:105550006E2C811106C082E290E09093D00580937A
:10556000CF05C701B60109C060E070E080E89FEF99
:1055700004C060E070E080EC9FE7CDB7DEB7EEE0FE
:105580000C94C02D283008F027E03327DA01990F5A
:10559000311D87FD916000966105710539F4326017
:1055A0002E5F3D9330E32A95E1F708959F3F30F059
:1055B00080387105610509F03C5F3C5F3D93913097
:1055C00008F08068911DDF93CF931F930F93FF9294
:1055D000EF92192F987F9695E92F96959695E90F5A
:1055E000FF27EB52FE4F99273327EE24FF24A70114
:1055F000E70105900894079428F4360FE71EF81E7B
:10560000491F511D660F771F881F991F0694A1F728
:105610000590079428F4E70EF81E491F561FC11D78
:10562000770F881F991F661F0694A1F705900794AE
:1056300028F4F80E491F561FC71FD11D880F991F48
:10564000661F771F0694A1F70590079420F4490F71
:10565000561FC71FD81F990F661F771F881F0694F4
:10566000A9F784911095177041F0D695C795579575
:105670004795F794E7941A95C1F7EBE7F1E0689442
:105680001590159135916591959105907FE27395EF
:10569000E118F10A430B560BC90BD009C0F7E10C16
:1056A000F11E431F561FC91FD01D7EF4703311F425
:1056B0008A95E6CFE894015030F0080F0AF40027ED
:1056C000021708F4202F2395022F7A3328F079E36C
:1056D0007D932A95E9F710C07D932A9589F6069463
:1056E00097956795379517951794E118F10A430B2D
:1056F000560BC90BD00998F023957E9173957A3398
:1057000008F070E37C932013B8F77E9170617D936D
:1057100030F0839571E37D9370E32A95E1F71124CE
:10572000EF90FF900F911F91CF91DF91992787FD07
:105730009095089591110C94412D803219F0895063
:105740008550C8F70895FB01DC014150504088F0B6
:105750008D9181341CF08B350CF4805E6591613441
:105760001CF06B350CF4605E861B611171F3990BB4
:105770000895881BFCCFFC0105906150704001101A
:10578000D8F7809590958E0F9F1F0895DC0101C07A
:105790006D9341505040E0F70895FC016150704016
:1057A00001900110D8F7809590958E0F9F1F089556
:1057B0000F931F93CF93DF93FB01238121FD03C040
:1057C0008FEF9FEF28C022FF16C0468157812481AA
:1057D00035814217530744F4A081B1819D012F5FA9
:1057E0003F4F318320838C93268137812F5F3F4F3A
:1057F0003783268310C0EB01092F182F0084F18511
:10580000E02D0995892BE1F68E819F8101969F837A
:105810008E83812F902FDF91CF911F910F9108954B
:10582000FA01AA27283051F1203181F1E8946F93D1
:105830006E7F6E5F7F4F8F4F9F4FAF4FB1E03ED077
:10584000B4E03CD0670F781F891F9A1FA11D680F15
:10585000791F8A1F911DA11D6A0F711D811D911D48
:10586000A11D20D009F468943F912AE0269F1124BD
:105870003019305D3193DEF6CF010895462F477021
:10588000405D4193B3E00FD0C9F7F6CF462F4F707C
:10589000405D4A3318F0495D31FD4052419302D0DA
:1058A000A9F7EACFB4E0A695979587957795679580
:1058B000BA95C9F700976105710508959B01AC0180
:1058C0000A2E06945795479537952795BA95C9F7A7
:1058D000620F731F841F951FA01D08950E94B02C96
:1058E00008F481E00895E89409C097FB3EF4909590
:1058F0008095709561957F4F8F4F9F4F9923A9F0A9
:10590000F92F96E9BB279395F69587957795679537
:10591000B795F111F8CFFAF4BB0F11F460FF1BC07B
:105920006F5F7F4F8F4F9F4F16C0882311F096E90E
:1059300011C0772321F09EE8872F762F05C06623BC
:1059400071F096E8862F70E060E02AF09A95660F75
:10595000771F881FDAF7880F9695879597F908952E
:10596000990F0008550FAA0BE0E8FEEF1616170670
:10597000E807F907C0F012161306E407F50798F0D8
:10598000621B730B840B950B39F40A2661F0232BF1
:10599000242B252B21F408950A2609F4A140A6956D
:1059A0008FEF811D811D08950E94E72C0C945B2DC3
:1059B0000E944D2D38F00E94542D20F0952311F0B7
:1059C0000C94442D0C944A2D11240C948F2D0E947C
:1059D0006C2D70F3959FC1F3950F50E0551F629F9A
:1059E000F001729FBB27F00DB11D639FAA27F00D38
:1059F000B11DAA1F649F6627B00DA11D661F829F5F
:105A00002227B00DA11D621F739FB00DA11D621F43
:105A1000839FA00D611D221F749F3327A00D611D60
:105A2000231F849F600D211D822F762F6A2F112442
:105A30009F5750409AF0F1F088234AF0EE0FFF1F75
:105A4000BB1F661F771F881F91505040A9F79E3FCC
:105A5000510580F00C94442D0C948F2D5F3FE4F39E
:105A6000983ED4F3869577956795B795F795E79522
:105A70009F5FC1F7FE2B880F911D9695879597F92B
:105A8000089599278827089597F99F6780E870E01F
:105A900060E008959FEF80EC089500240A941616A4
:105AA000170618060906089500240A94121613060C
:105AB000140605060895092E0394000C11F488239A
:105AC00052F0BB0F40F4BF2B11F460FF04C06F5FB6
:105AD0007F4F8F4F9F4F089557FD9058440F551F8C
