:100000000C94C6010C94EE010C94EE010C94930335
:100010000C9493030C9493030C94EE010C94EE0156
:100020000C94EE010C94EE010C94EE010C94EE0194
:100030000C94EE010C94EE010C94EE010C94EE0184
:100040000C94A5060C94EE010C9406080C94E007A1
:100050000C94EE010C94EE010C94EE010C94EE0164
:100060000C94EE010C94EE014517F117F1172217CD
:100070003917F117F117F117F117F117731749171E
:100080005E17EE17F117F117F117F117F117F117C6
:10009000DC178C17A317BA174E414E494E495459D5
:1000A000494E46CDCCCC3D0AD7233C17B7D1387743
:1000B000CC2B329595E6241FB14F0A000020410059
:1000C00000C84200401C4620BCBE4CCA1B0E5AAEA3
:1000D000C59D7400407A10F35A00A0724E180900B2
:1000E00010A5D4E80000E87648170000E40B54029D
:1000F0000000CA9A3B000000E1F5050000809698D8
:1001000000000040420F000000A086010000001027
:100110002700000000E80300000000640000000069
:10012000000A00000000000100000000002C76D84A
:1001300088DC674F0823DFC1DFAE59E1B1B796E530
:10014000E3E453C63AE651997696E8E6C28426EB94
:10015000898C9B62ED407C6FFCEFBC9C9F40F2BAA7
:10016000A56FA5F490055A2AF75C936B6CF9676D3F
:10017000C11BFCE0E40D47FEF520E6B500D0ED9094
:100180002E0300943577050080841E080000204E61
:100190000A000000C80C333333330F986E128311FA
:1001A00041EF8D2114893BE65516CFFEE6DB18D1D1
:1001B000844B381BF77C1D901DA4BBE424203284A3
:1001C000725E228100C9F124ECA1E53D2700010205
:1001D0000304052420467265652052414D203D20D0
:1001E00000574946492053454E44205245515545F4
:1001F0005354005749464920504F535420524551BB
:1002000055455354005749464920535441525420B0
:10021000504F5354494E4700574946492053544F75
:100220005020504F5354494E470057494649205398
:10023000455256455220434F4E4E45435445440087
:10024000574946492053455256455220434F4E4E3A
:10025000454354494E470057494649205345525655
:10026000455220434845434B005749464920574C87
:10027000414E20444953434F4E4E4543544544005C
:100280005749464920574C414E20434F4E4E454317
:10029000544544005749464920574C414E20434F4E
:1002A0004E4E454354494E47005749464920574C06
:1002B000414E20434845434B005749464920574C3F
:1002C000414E20444953434F4E4E4543544544000C
:1002D0005749464920494E495449414C495A454499
:1002E000005749464920494E495449414C495A49C9
:1002F0004E47005749464920424C55444544005713
:10030000494649204F4646000000000023002600D1
:10031000290052656365697665643A2000520000E1
:10032000000000240027002A00000000002500280B
:10033000002B000404040404040404020202020268
:100340000203030303030301020408102040800199
:100350000204081020010204081020000000080018
:100360000201000003040700000000000000004636
:100370007265652052414D203D200041542B43576A
:100380004D4F44453D330000091A441C11241FBE43
:10039000CFEFD8E0DEBFCDBF13E0A0E0B1E0E6E4F0
:1003A000F0E502C005900D92A83AB107D9F725E013
:1003B000A8EAB3E001C01D92A237B207E1F711E04D
:1003C000C5ECD1E004C02197FE010E94EC26C43C9C
:1003D000D107C9F70E94D5150C9416280C9400007B
:1003E0002091F7033091F8032817390771F49091A1
:1003F000F5038091F603981741F0E091F503F0E0E2
:10040000E855FC4F808190E008958FEF9FEF0895AD
:1004100008951F93CF93DF93DC015C962D913C915F
:100420005D972115310539F481E090E013969C9396
:100430008E9312973DC05196ED91FC915297509634
:100440009C915097892F80951FB75E964C915E972F
:1004500041FB772770F941FD6095F894408177233F
:1004600011F0492B01C048234083E9012197F1F79E
:1004700048E0508160FF02C0592B01C058235083CF
:10048000E9012197F1F76695415099F7772321F01B
:1004900090818923808303C08081982B90831FBF24
:1004A0005C968D919C915D970197F1F721E030E08A
:1004B000C901DF91CF911F9108952091F7033091E9
:1004C000F8032817390771F48091F6032091F5039A
:1004D00090E0805C9F4F821B910960E470E00E9475
:1004E000B626089580E090E008952091F7033091BA
:1004F000F80328173907B9F49091F5038091F603B2
:10050000981789F0E091F503F0E0E855FC4F808101
:100510002091F50330E02F5F3F4F2F733327209357
:10052000F50390E008958FEF9FEF0895089580E020
:1005300090E008950895FC012081318182819381AA
:100540002817390719F0822F0C94F20808950F9399
:100550001F93CF93DF93EC01CB01088119817B833B
:100560006A830E949C1C9983888320E030E08C8100
:100570009D812817390770F4E881F981E20FF31F94
:10058000309729F0D801A20FB31F8C9180832F5F81
:100590003F4FEDCFC801DF91CF911F910F910C9488
:1005A000311DCF93DF93EC019CB59F7D9CBD9CB525
:1005B000937F9CBD9CB59C7F9CBD9DB591609DBD6E
:1005C0008A810E94F2088C899D89DF91CF910C94D9
:1005D0007A098EBD00000DB407FEFDCF8EB50895DB
:1005E000FF920F931F93CF93DF931F92CDB7DEB788
:1005F0008C01F62E60E049830E94D1028F2D8F710D
:1006000080620E94E902F82E4981842F0E94E9024B
:1006100061E0C8010E94D1028F2D0F90DF91CF9130
:100620001F910F91FF9008951F93CF93DF93EC01DB
:10063000162F60E00E94D102812F8F710E94E90283
:100640008FEF0E94E902182F61E0CE010E94D102D3
:10065000812FDF91CF911F9108950F931F93CF9317
:10066000DF93EC01162F042F1B821A8288EE93E091
:10067000A0E0B0E08C839D83AE83BF838BE091E0EC
:10068000998388831F8A1E8A198E188E1B8E1A8E54
:100690001D8E1C8E6E8D6E7F20FB61F96E8F6695B0
:1006A000617081E06827842F0E94F20861E0802F4A
:1006B0000E943E09402F50E0FA01E95BFC4FE491B3
:1006C000E88BFA01ED5CFC4FE491F0E0EE0FFF1FC8
:1006D000E75DFC4F859194919A8B898B60E0812F27
:1006E0000E943E098E8D81FD04C061E0812F0E9431
:1006F000F2081C87612F70E0FB01E95BFC4FE4917D
:10070000ED87FB01ED5CFC4FE491F0E0EE0FFF1F85
:10071000E85FFC4F859194919F878E87DF91CF9101
:100720001F910F9108951F920F920FB60F921124EF
:100730002F933F934F935F936F937F938F939F93E9
:10074000AF93BF93EF93FF93E091F703F091F8031A
:10075000309709F451C0968DA685B785858591FFA0
:1007600004C09C91892329F447C09C91892309F0F6
:1007700043C0A389B4899C918589809589238C93F2
:10078000868997890197F1F7608D718DA685B78568
:10079000558538E020E0CB010197F1F7822F90E0FA
:1007A00095958795282F4C91452309F02068315065
:1007B00091F7868D81FD20958091F60390E001965A
:1007C0008F7399273091F503381749F0A091F603FC
:1007D000B0E0A855BC4F2C938093F60303C0868DE0
:1007E0008160868F828D938D0197F1F7A389B489FB
:1007F0009C918589892B8C93FF91EF91BF91AF914B
:100800009F918F917F916F915F914F913F912F9128
:100810000F900FBE0F901F901895EF92FF920F93BD
:100820001F93CF93DF93EC018C819D8186179707EF
:1008300010F57A018B018A819B818617970740F416
:10084000685F7F4F8617970718F4CE010E94A702B2
:100850008C819D818017910758F4E881F981E80F18
:10086000F91F309719F0D7012C9120830196F2CF10
:100870001D830C8305C06817790710F47D836C8392
:10088000DF91CF911F910F91FF90EF900895FC01A0
:10089000808191810C94311DCF93DF93EC0188E02E
:1008A00090E09B838A831D821C820E949C1C9983FA
:1008B0008883DF91CF910895CF93DF93EC016C8112
:1008C0007D816F5F7F4F8A819B818617970718F420
:1008D000CE010E94A702E881F9818C819D81E80FF9
:1008E000F91F108288819981DF91CF9108950F932C
:1008F0001F93CF93DF93FC0104811581FB01C48119
:10090000D581AE010C171D0708F4A801FB01608119
:100910007181FC01808191810E94E527009769F433
:1009200081E090E0C017D10740F00C171D0710F0D0
:1009300080E090E0919581959109DF91CF911F9191
:100940000F9108950895CF92DF92EF92FF920F9347
:100950001F93FB01DC0100E010E098016A01E12C2B
:10096000F12C0C151D052E053F0538F461916D9392
:100970000F5F1F4F2F4F3F4FF4CF840F951F1F91D5
:100980000F91FF90EF90DF90CF9008958F929F92FC
:10099000AF92BF92CF92DF92EF92FF920F931F938D
:1009A000CF93DF931F92CDB7DEB76C015B017A0165
:1009B0004901B8010E944C04D5011496ED91FC91B7
:1009C0001597EE15FF0510F40E94D0271982BF017C
:1009D0006E197F098616970608F4B401AE014F5FC1
:1009E0005F4FC6010E940D04F60144815581D50177
:1009F0006D917C916E0D7F1D808191810E94A30479
:100A00000F90DF91CF911F910F91FF90EF90DF90AA
:100A1000CF90BF90AF909F908F900895AF92BF926C
:100A2000CF92DF92EF92FF920F931F93CF93DF93BA
:100A30001F92CDB7DEB76C017B01BA010E944C0456
:100A4000E114F104F1F0F70101900020E9F731978A
:100A50008F010E191F09F601A480B5801982B80113
:100A60006A0D7B1DAE014F5F5F4FC6010E940D04F2
:100A7000F60180819181A801B7018A0D9B1D0E941A
:100A8000A3040F90DF91CF911F910F91FF90EF90F2
:100A9000DF90CF90BF90AF900895CF92DF92EF920A
:100AA000FF920F931F93CF93DF936C017A018B0119
:100AB000C0E0D0E0CE15DF0589F0D8016D918D0141
:100AC000D601ED91FC910190F081E02DC6010995D0
:100AD000892B11F47E0102C02196ECCFC701DF9172
:100AE000CF911F910F91FF90EF90DF90CF900895DD
:100AF000FC01538D448D252F30E0842F90E0821B24
:100B0000930B541710F0CF96089501970895FC01A8
:100B1000918D828D981761F0828DDF01A80FB11D34
:100B20005D968C91928D9F5F9F73928F90E0089558
:100B30008FEF9FEF0895FC01918D828D981731F012
:100B4000828DE80FF11D858D90E008958FEF9FEF66
:100B500008950F931F93CF93DF93EC010E94BF0979
:100B6000688779878A879B87E881F9810284F38582
:100B7000E02DCE01099597FF17C00E94BF09088597
:100B800019852A853B85DC01CB01801B910BA20BCB
:100B9000B30B0C811D812E813F8180179107A20725
:100BA000B30710F38FEF9FEFDF91CF911F910F915C
:100BB00008950E94D0270F931F93CF93DF93EC01EA
:100BC00088819981009729F02A813B812617370770
:100BD00088F48B016F5F7F4F0E940627009761F0BA
:100BE000998388831B830A832C813D81232B11F4F5
:100BF000FC01108281E001C080E0DF91CF911F9164
:100C00000F910895EF92FF920F931F93CF93DF936D
:100C100000D0CDB7DEB78C0169831A82FC01E48075
:100C2000F580FFEFEF1AFF0AB7010E94DB0588236A
:100C300081F0F8012081318184819581BE016F5F4F
:100C40007F4F820F931F0E94DE27F801F582E48216
:100C500081E00F900F90DF91CF911F910F91FF9046
:100C6000EF9008958BE494E00E94CE0D21E0892B53
:100C700009F420E0822F0895EF92FF920F931F93C3
:100C8000CF93DF93EC0181E0888F9B8D8C8D98133F
:100C900005C0E889F989808185FD24C0F62E0B8D79
:100CA00010E00F5F1F4F0F731127E02E8C8DE8129D
:100CB0000CC00FB607FCFACFE889F989808185FF5F
:100CC000F5CFCE010E94EE0DF1CF8B8DFE01E80F26
:100CD000F11DE35AFF4FF0820B8FEA89FB89808177
:100CE000806207C0EE89FF896083E889F989808185
:100CF0008064808381E090E0DF91CF911F910F911C
:100D0000FF90EF900895CF93DF93EC01888D8823B7
:100D1000C9F0EA89FB89808185FD05C0A889B98968
:100D20008C9186FD0FC00FB607FCF5CF808185FF43
:100D3000F2CFA889B9898C9185FFEDCFCE010E94B1
:100D4000EE0DE7CFDF91CF9108951F920F920FB66E
:100D50000F9211242F933F938F939F93AF93BF9341
:100D60008091EB039091EC03A091ED03B091EE0321
:100D70003091EA0323E0230F2D3720F40196A11DC3
:100D8000B11D05C026E8230F0296A11DB11D2093B9
:100D9000EA038093EB039093EC03A093ED03B093ED
:100DA000EE038091EF039091F003A091F103B091D5
:100DB000F2030196A11DB11D8093EF039093F00300
:100DC000A093F103B093F203BF91AF919F918F91E4
:100DD0003F912F910F900FBE0F901F901895EF929B
:100DE000FF920F931F93CF93DF93EC011982188228
:100DF0001B821A821D821C826115710549F18B01CB
:100E0000FB0101900020E9F731977F01E61AF70A0C
:100E1000B7010E94DB052881398181110DC02115A0
:100E2000310519F0C9010E94311D198218821D82F5
:100E30001C821B821A820CC0FD82EC82B801C9019F
:100E4000DF91CF911F910F91FF90EF900C94DE27CF
:100E5000DF91CF911F910F91FF90EF900895DC01EA
:100E6000ED91FC910190F081E02D0994EF92FF92B9
:100E70000F931F93CF93DF938C017B01C0E0D0E0F1
:100E8000F701EC0FFD1F6491662361F0D801ED912D
:100E9000FC910190F081E02DC8010995892B11F09A
:100EA0002196EECFCE01DF91CF911F910F91FF9050
:100EB000EF9008956115710579F0FB010190002014
:100EC000E9F73197AF01461B570BDC01ED91FC911F
:100ED0000280F381E02D099480E090E008954F9224
:100EE0005F926F927F92EF92FF920F931F93CF9337
:100EF000DF93CDB7DEB7A1970FB6F894DEBF0FBE74
:100F0000CDBF7C01FA01CB0119A2223008F42AE0FE
:100F10008E010F5D1F4F422E512C612C712CBF0191
:100F2000A30192010E94CA26F901CA0101501109C8
:100F30006A3014F4605D01C0695CD8016C93232BA6
:100F4000242B252B61F7B801C7010E945A07A196EF
:100F50000FB6F894DEBF0FBECDBFDF91CF911F91CA
:100F60000F91FF90EF907F906F905F904F9008955A
:100F70000F931F93CF93DF93EC010E945A078C01CC
:100F80006CE673E0CE010E945A07800F911FDF913B
:100F9000CF911F910F9108950F931F93CF93DF93DC
:100FA000EC010E9436078C016CE673E0CE010E94D2
:100FB0005A07800F911FDF91CF911F910F910895D4
:100FC0001F920F920FB60F9211242F933F934F93BE
:100FD0005F936F937F938F939F93AF93BF93EF93A1
:100FE000FF938BE494E00E94EE0DFF91EF91BF918F
:100FF000AF919F918F917F916F915F914F913F91B1
:101000002F910F900FBE0F901F9018951F920F9267
:101010000FB60F9211242F938F939F93EF93FF930B
:10102000E0915B04F0915C048081E0916104F091B7
:10103000620482FD12C09081809164048F5F8F737F
:1010400020916504821751F0E0916404F0E0E55BC3
:10105000FB4F958F8093640401C08081FF91EF91D5
:101060009F918F912F910F900FBE0F901F90189509
:101070003FB7F8948091EF039091F003A091F103B2
:10108000B091F20326B5A89B05C02F3F19F0019639
:10109000A11DB11D3FBFBA2FA92F982F8827820FFE
:1010A000911DA11DB11DBC01CD0142E0660F771F4E
:1010B000881F991F4A95D1F70895CF92DF92EF923A
:1010C000FF920F931F93CF93DF938C016B01770FE8
:1010D000EE08FF08F7FE12C06DE20E942F07EC0138
:1010E00044275527BA014C195D096E097F092AE08A
:1010F000C8010E946F07C80FD91F06C02AE0B701B8
:10110000A6010E946F07EC016CE673E0C8010E9423
:101110005A078C0F9D1FDF91CF911F910F91FF9068
:10112000EF90DF90CF900895AF92BF92CF92DF9271
:10113000EF92FF920F931F93CF93DF93CDB7DEB75C
:101140002F970FB6F894DEBF0FBECDBF6C01AE0176
:10115000415F5F4FCE0108960E940E058C859D85EC
:10116000F601248135812817390718F40FEF1FEF96
:1011700023C0281B390BC90101967C0100E010E057
:101180000E151F0599F32C853D85A801B601CE01EA
:1011900001960E94FD0EBE016F5F7F4FCE01089643
:1011A0000E9477045C01CE0101960E944704AB289F
:1011B00019F00F5F1F4FE4CFCE0108960E9447043D
:1011C000C8012F960FB6F894DEBF0FBECDBFDF91DA
:1011D000CF911F910F91FF90EF90DF90CF90BF9034
:1011E000AF90089590E0FC01E55AFC4F3491FC016A
:1011F000E95BFC4F2491FC01ED5CFC4FE491EE2394
:1012000009F43BC0332339F1333091F038F43130F5
:10121000A9F0323001F584B58F7D12C0373091F0DE
:101220003830A1F03430B9F4809180008F7D03C054
:10123000809180008F77809380000DC084B58F7778
:1012400084BD09C08091B0008F7703C08091B00049
:101250008F7D8093B000F0E0EE0FFF1FE75DFC4F45
:10126000A591B4918FB7F894EC91611103C02095CA
:101270002E2301C02E2B2C938FBF0895CF93DF9385
:1012800090E0FC01E95BFC4F2491FC01ED5CFC4F1C
:101290008491882361F190E0880F991FFC01E15E41
:1012A000FC4FC591D491FC01E75DFC4FA591B49131
:1012B000611109C09FB7F8948881209582238883A3
:1012C000EC912E230BC0623061F49FB7F894388103
:1012D000822F809583238883EC912E2B2C939FBFA4
:1012E00006C08FB7F894E8812E2B28838FBFDF913B
:1012F000CF9108958230910538F0880F991F880F9B
:10130000991F05970197F1F708958F929F92AF92D9
:10131000BF92CF92DF92EF92FF926B017C010E940D
:1013200038084B015C01C114D104E104F104F1F06F
:101330000E943808DC01CB0188199909AA09BB0968
:10134000883E9340A105B10570F321E0C21AD1088F
:10135000E108F10888EE880E83E0981EA11CB11CFC
:10136000C114D104E104F10419F7DDCFFF90EF902F
:10137000DF90CF90BF90AF909F908F9008952FB740
:10138000F8946091EB037091EC038091ED039091E0
:10139000EE032FBF08958F929F92AF92BF92EF926C
:1013A000FF920F931F93CF93DF9300D0CDB7DEB79B
:1013B000CB01EDB6FEB6FB0124813581235F3F4FA3
:1013C0006DB77EB7621B730B0FB6F8947EBF0FBE6E
:1013D0006DBF0DB71EB70F5F1F4F49835A830E9421
:1013E0005C049F938F931F9283E08F935A815F9346
:1013F00049814F9381E093E09F938F931F930F93C5
:101400000E94F327B8018BE494E00E945A070E94DF
:10141000BF094B015C018DB79EB70A960FB6F894D1
:101420009EBF0FBE8DBF10E08BE494E00E94870545
:101430008534910581F011110EC00E94BF09DC01B5
:10144000CB0188199909AA09BB0911E08897A10560
:10145000B10550F7E8CF61E070E080E090E00E94D5
:1014600085090FB6F894FEBE0FBEEDBE0F900F902B
:10147000DF91CF911F910F91FF90EF90BF90AF90B0
:101480009F908F900895CB0108957F928F929F92A5
:10149000AF92BF92CF92DF92EF92FF920F931F9382
:1014A000CF93DF93EC0149015A018B01C12CD12C60
:1014B0007601C814D904EA04FB0484F5F80171909C
:1014C0008F018F8580FF0BC0E881F9810084F18551
:1014D000E02D20E144E060E070E0CE010995EB856D
:1014E000FC858D859E85E817F90738F470828B8519
:1014F0009C8501969C878B870BC0E881F981672DBD
:1015000070E0028CF38DE02DCE010995019649F033
:101510002FEFC21AD20AE20AF20ACBCFB401C501F8
:1015200002C0B601C701DF91CF911F910F91FF90CB
:10153000EF90DF90CF90BF90AF909F908F907F9073
:101540000895CF93DF93EC01E881F9810288F38954
:10155000E02D09958F3F2FEF920731F02D813E81CD
:101560002F5F3F4F3E832D83DF91CF9108958FEF03
:101570009FEF089560E070E0CB01089580E090E077
:101580000895CB010895CF93DF93EC018889998961
:10159000DC01ED91FC910084F185E02D0995892B0A
:1015A000A9F388899989DC01ED91FC910284F38586
:1015B000E02DDF91CF910994CF93DF93EC018889DF
:1015C0009989DC01ED91FC910084F185E02D09956C
:1015D000892BA9F388899989DC01ED91FC91048418
:1015E000F585E02DDF91CF910994AF92BF92CF9214
:1015F000DF92EF92FF920F931F93CF93DF9300D070
:1016000000D0CDB7DEB78C015B01C12CD12C7601A7
:10161000F80180899189DC01ED91FC910284F385C8
:10162000E02D29833A834B835C83099529813A8194
:101630004B815C818F3F71F0C216D306E406F5063C
:101640004CF4D5018D935D01BFEFCB1ADB0AEB0A99
:10165000FB0ADECFC701B6010F900F900F900F90DD
:10166000DF91CF911F910F91FF90EF90DF90CF907E
:10167000BF90AF900895DC0150968D919C91519749
:10168000DC01ED91FC910084F185E02D099480E06E
:1016900090E0089580E090E0089580E090E0089563
:1016A00080E090E008950895CF93DF93C0911B04EC
:1016B000D0911C04E881F9810084F185E02DCE01F0
:1016C0000995892BB9F3E881F9810284F385E02D2E
:1016D000CE01DF91CF9109941F93CF93DF93182F01
:1016E000C0911B04D0911C048A3041F4E881F98137
:1016F0000190F081E02D6DE0CE010995E881F9813E
:101700000190F081E02D612FCE01099521E030E0BC
:10171000019711F420E030E0C901DF91CF911F91D2
:1017200008950C94311D089508950C94311DDC0129
:10173000ED91FC91369720813181820F931F0C949B
:10174000950BFB0120813181FC0131832083FB015A
:1017500042815381F901369720813181FC01E20FEA
:10176000F31F5183408308952BE831E0FC0131835E
:10177000208325E931E0318F208F6BE971E00C94F3
:10178000A10BDC01ED91FC91369720813181820F14
:10179000931F0C94B40BCF93DF93EC010E94B40B16
:1017A000CE01DF91CF910C94311DDC01ED91FC91C4
:1017B000369720813181820F931F0C94CB0B0C94B0
:1017C000311D089508950C94311DDC01ED91FC91BB
:1017D000369720813181820F931F0C94E30BFB011C
:1017E00020813181FC0131832083FB0142815381BF
:1017F000F901369720813181FC01E20FF31F5183FB
:101800004083089523E032E0FC01318320832DE002
:1018100032E0358B248B63E172E00C94EF0BDC013A
:10182000ED91FC91369720813181820F931F0C94AA
:10183000020CCF93DF93EC010E94020CCE01DF91EA
:10184000CF910C94311DDC01ED91FC9136972081F4
:101850003181820F931F0C94190C0C94311D2DE2D1
:1018600032E0FC013183208383960C944704CF93AC
:10187000DF93EC010E942F0CCE01DF91CF910C94ED
:10188000311D0F931F93CF93DF938C01EB016F3FBB
:101890008FEF780719F480E090E00FC06A3031F4E0
:1018A0006DE0F801808991890E942F076C2FF80163
:1018B000808991890E942F07CE01DF91CF911F91DE
:1018C0000F9108958F929F92BF92CF92DF92EF92E5
:1018D000FF920F931F93CF93DF9300D000D0CDB72B
:1018E000DEB78C014B01C12CD12C7601C216D30678
:1018F000E406F50644F5F401B1904F01FAE0BF1299
:101900000EC06DE0F8018089918929833A834B8369
:101910005C830E942F075C814B813A8129816B2D6A
:10192000F8018089918929833A834B835C830E94E3
:101930002F07FFEFCF1ADF0AEF0AFF0A5C814B8106
:101940003A812981D3CFCA01B9010F900F900F902E
:101950000F90DF91CF911F910F91FF90EF90DF904B
:10196000CF90BF909F908F900895EF92FF920F932A
:101970001F93CF93DF931F92CDB7DEB78091F9030A
:101980009091FA03892B09F0E6C08CE290E00E9466
:101990009C1C8C018DE292E0D8018D939C938FE189
:1019A00090E00E949C1C7C0120E043E062E00E94E9
:1019B0002D03F801F382E2821482158A168A178AAF
:1019C000108E118E0E94BF09D8015A966D937D9397
:1019D0008D939C935D970E94BF09F801668F778F66
:1019E00080A391A312A2CE0101967C01BC01C80183
:1019F00083960E944C04D8019B961C921E929A9743
:101A00006FE673E08BE494E00E94360780916605F0
:101A100090916705B701681B790B8BE494E00E94F5
:101A20005D08F8013596C801459611921192E817A4
:101A3000F907D9F7D8011296ED91FC911397138EFF
:101A4000128E118E108E178A168A8DE991E0958F6D
:101A5000848F8485863108F04DC02DEB30E0378BC4
:101A6000268B2BE931E0318F208F2CE231E0338F50
:101A7000228F90916800883050F021E08E3008F479
:101A800020E081E001C0880F2A95EAF701C084E0D8
:101A9000892B809368009485983038F09E3040F010
:101AA000963148F020E030E008C02DE630E005C077
:101AB0002BE630E002C02CE630E0348B238B9830EC
:101AC00030F481E001C0880F9A95EAF70EC0292F03
:101AD00030E09E3018F42850310902C02E503109F0
:101AE00081E001C0880F2A95EAF7858B848D958D5A
:101AF0000197F1F7828D938D892B49F14091F7037E
:101B00005091F8034E175F0711F14115510571F01F
:101B1000DA0153962D913C915497D9019C91DA01A9
:101B200055968C9180958923D9018C93868D8E7FD3
:101B3000868F1092F6031092F503F093F803E0936A
:101B4000F703A389B4899C918589892B8C93109381
:101B5000FA030093F9038091F9039091FA030F902F
:101B6000DF91CF911F910F91FF90EF90089508950D
:101B7000089508951F93CF93DF93EC0160E00E94D6
:101B8000D10281EE0E94E902182F61E0CE010E948D
:101B9000D102812FDF91CF911F910895FC01918D8A
:101BA000228D892F90E0805C9F4F821B91098F735B
:101BB0009927089580E090E0892B29F00E94320651
:101BC00081110C9400000895089508950C94311D1E
:101BD0000C94311D0C94311D0C94311DFC01848D2D
:101BE000DF01A80FB11DA35ABF4F2C91848D90E047
:101BF00001968F739927848FA689B7892C93A08922
:101C0000B1898C9180648C93938D848D981306C0D8
:101C10000288F389E02D80818F7D808308954F9223
:101C20005F926F927F928F929F92AF92BF92CF926C
:101C3000DF92EF92FF920F931F93CF93DF931F9248
:101C4000CDB7DEB77C012B01FC01848195816C014D
:101C5000FFEFCF1ADF0A8C159D0508F06EC0F70163
:101C6000228133812C153D05F0F509962817390797
:101C7000D0F5808091809383828327E0AC01249FFC
:101C8000C001259F900D11240E949C1CF701918397
:101C900080835401612C712CF70184819581681631
:101CA0007906F0F4F70120813181C501881999097D
:101CB000820F931F009751F08E010F5F1F4F2FEF80
:101CC0003FEF40E050E0B5010E94C604C5010E940C
:101CD0004704FFEF6F1A7F0A27E0A20EB11CDCCF8A
:101CE000C4010E94311DF701A480B58087E08A9D60
:101CF00030018B9D700C1124812C912CF701AC14B8
:101D0000BD0408F040C020813181C401860D971DBB
:101D1000820F931F009751F08E010F5F1F4F2FEF1F
:101D20003FEF40E050E0B2010E94C604FFEFAF1A5F
:101D3000BF0A27E0820E911CE1CFC816D90628F50C
:101D400027E0289F3001299F700C11245601812C17
:101D5000912CF7E06F0E711CF70184819581A81614
:101D6000B90688F4C301880D991DF70120813181DE
:101D7000820F931F0E944704FFEFAF1ABF0A27E0AC
:101D8000820E911CE9CFD582C4820F90DF91CF9152
:101D90001F910F91FF90EF90DF90CF90BF90AF9089
:101DA0009F908F907F906F905F904F9008950895CF
:101DB00008958091FB039091FC03892BC9F48DE079
:101DC00090E00E949C1CFC0185E392E0918380835B
:101DD000138212821482158216821782108684E082
:101DE0008187128614861386F093FC03E093FB032D
:101DF0008091FB039091FC030895CF92DF92EF92C4
:101E0000FF920F931F93CF93DF9300D0CDB7DEB730
:101E10006C01FB01048115810417150710F40E9461
:101E2000D027041B150B2017310708F48901FB018B
:101E3000E080F180E40EF51EBE016E5F7F4FC601AB
:101E40000E944C040F3FFFEF1F0749F3F701808109
:101E5000181684F41982AE014F5F5F4FB801C601B6
:101E60000E940D04F60144815581B7018081918162
:101E70000E94A304C6010F900F90DF91CF911F9194
:101E80000F91FF90EF90DF90CF900895CF92DF9267
:101E9000EF92FF920F931F93CF93DF931F92CDB7D3
:101EA000DEB78C017B01FC01C480D580FB0164811D
:101EB00075816C0D7D1D1982AE014F5F5F4F0E94D1
:101EC0000D04F7014481558160817181F8018081A1
:101ED00091818C0D9D1D0E94A304C8010F90DF917C
:101EE000CF911F910F91FF90EF90DF90CF900895C9
:101EF000AF92BF92CF92DF92EF92FF920F931F9318
:101F0000CF93DF931F92CDB7DEB77C016B01FB014E
:101F100001900020E9F731978F01061B170BFC0198
:101F2000A480B5801982B8016A0D7B1DAE014F5F98
:101F30005F4F0E940D04F70180819181A801B601D5
:101F40008A0D9B1D0E94A304C7010F90DF91CF91C2
:101F50001F910F91FF90EF90DF90CF90BF90AF90C7
:101F600008950F931F93CF93DF93EB010990002007
:101F7000E9F72197C61BD70BFC0104811581AE013F
:101F80000C171D0708F4A801FC01808191810E94B3
:101F9000E527009769F481E090E0C017D10740F091
:101FA0000C171D0710F080E090E091958195910944
:101FB000DF91CF911F910F910895EF92FF920F93B0
:101FC0001F93CF93DF93CDB7DEB7C054D1090FB6BF
:101FD000F894DEBF0FBECDBF8C0181E193E09F93EB
:101FE0008F938CE792E09F938F938AE193E09F9386
:101FF0008F93CE0101967C019F938F930E94F327CC
:10200000B701F801828193810E94B8076CE0C80192
:102010000E9424100E94BF09F801668F778F80A369
:1020200091A30FB6F894DEBF0FBECDBFC05CDF4FEB
:102030000FB6F894DEBF0FBECDBFDF91CF911F91D9
:102040000F91FF90EF9008958F929F92AF92BF9261
:10205000CF92DF92EF92FF920F931F93CF93DF9374
:10206000CDB7DEB7ED970FB6F894DEBF0FBECDBF8C
:10207000DC0158962C91261709F42EC17C01FC0135
:10208000608F5E01F5E3AF0EB11CCE0101966C01CD
:10209000BC01C5010E944C04D70158962C91589759
:1020A00030E09A968D919C919B970097A1F0DC016E
:1020B000ED91FC910480F581E02D4DE352E05A83CF
:1020C0004983FC82EB82BE82AD8238872F831A86D9
:1020D0001986B6010995F701808D8A3019F4C70178
:1020E0000E94DD0FD70158968C91873109F0EFC01F
:1020F000B601CE018E960E944C04A60161E373E006
:10210000CE0187960E940E05A60161E473E0CE0120
:1021100080960E940E05AE01455F5F4F62E573E059
:10212000C6010E940E054701B3E28B0E911CC81434
:10213000D904D9F0F70187A190A5892B11F010A639
:1021400017A26D817E811DAEAE01435C5F4FC4015D
:102150000E940D044D815E8169817A81D701939639
:102160008D919C9194970E94A304C6010E944704FC
:1021700086012FEF3FEF40E050E0BE01605E7F4FF1
:10218000CE0149960E94C60467E573E0CE014996E8
:102190000E94780F2FEF3FEF40E050E0BE01675EF6
:1021A0007F4FCE0142960E94C60463E673E0CE01E3
:1021B00042960E94780F2FEF3FEF40E050E0BE01C3
:1021C0006E5E7F4FCE010B960E94C604BE01695D14
:1021D0007F4FCE010B960E94460F8E01045C1F4F6D
:1021E0002FEF3FEF40E050E0BE01655F7F4FC6013B
:1021F0000E94C6046AE673E0C6010E94780FB60129
:10220000C4010E94460FC6010E944704CE010B96EE
:102210000E944704CE0142960E944704CE0149968F
:102220000E9447046FE673E08BE494E00E94B807D5
:1022300062E873E08BE494E00E945A07F70147A13B
:1022400050A560E070E02AE08BE494E00E946F0704
:102250006CE673E08BE494E00E945A0762E873E056
:10226000C6010E94EF06D70112968D919C9113979B
:10227000DC01ED91FC914D815E8169817A81028062
:10228000F381E02D0995F701C280D38047A150A5C5
:1022900060E070E02AE0C6010E946F076CE673E020
:1022A000C6010E945A0786E6D70156968C9389810B
:1022B0009A810E94311DCE0180960E944704CE0172
:1022C00087960E944704CE018E960E944704C5015E
:1022D0000E94470481E001C080E0ED960FB6F894BB
:1022E000DEBF0FBECDBFDF91CF911F910F91FF9049
:1022F000EF90DF90CF90BF90AF909F908F90089518
:10230000EF92FF920F931F93CF93DF93CDB7DEB77A
:10231000C054D1090FB6F894DEBF0FBECDBF8C01FB
:1023200081E393E09F938F938EE893E09F938F9345
:10233000CE0101967C019F938F930E94F327B701F2
:10234000F801828193810E94B80766E1C8010E946A
:1023500024100E94BF09F801668F778F80A391A394
:102360000F900F900F900F900F900F90C05CDF4F69
:102370000FB6F894DEBF0FBECDBFDF91CF911F9196
:102380000F91FF90EF900895CF93DF93EC016BE7EF
:1023900073E08A819B810E94CC070E94BF096E8FE7
:1023A0007F8F88A399A363E0CE01DF91CF910C9436
:1023B000241008950C94311D02970C94DA112F9279
:1023C0003F924F925F926F927F928F929F92AF92C5
:1023D000BF92CF92DF92EF92FF920F931F93CF9312
:1023E000DF93CDB7DEB7C054D1090FB6F894DEBF86
:1023F0000FBECDBF6C01FB01A280B3802681378167
:1024000021963FAF2EAF2197DC0114968D919C91C0
:1024100015979E012F5F3F4F7901A816B90609F065
:1024200097C23FAD3B3509F093C264817581A70126
:10243000CE01C0960E940E05B701CE0189960E947A
:102440004C0488E090E09DA38CA31FA21EA288E309
:1024500090E00E949C1C9BA38AA3009116051091FA
:102460001705E0911205F0911305A8A9B9A9CF01AC
:10247000800F911FE817F90709F404C331912D91DA
:102480003217C1F33BC08EAF6F8D78A16F5F7F4F66
:10249000AE01425C5F4FCE014B960E940D040F5F70
:1024A0001F4F2CA93DA988A999A9820F931F8816AF
:1024B000990649F0D4018D914D018D3321F7011515
:1024C000110509F0ECC22F8D38A12115310591F0CD
:1024D0002150310941E050E0BE01655E7F4FC701E8
:1024E0000E94FD0EB701CE0189960E94460FC701DA
:1024F0000E944704CE014B960E94470465E375E0B5
:10250000CE0189960E947704892B09F039C181E4B4
:1025100093E4A2E5B0E08B8F9C8FAD8FBE8FCE0190
:102520004B969F938F938BE692E09F938F93FF92AE
:10253000EF920E94F3270E94D90E4C010F900F904A
:102540000F900F900F900F90DC011A968C911A97B4
:10255000882309F4DEC112960D911C91139760E057
:10256000C8010E949B02F801808991890E947A0922
:102570006DE1C8010E94140381FF0AC0D801509682
:102580008D919C9151970E947A09C8010E94BA0DC1
:1025900060E0C8010E941403482F4E7F60E0C8012C
:1025A0000E94F00262E0C8010E941403EDECF1E029
:1025B000E49141E050E001C0440FEA95EAF7482B6E
:1025C00062E0C8010E94F002F40102811381D80187
:1025D00017968C91482E813110F090E1492EF80128
:1025E0009085911103C0582E541801C0512C60E001
:1025F000C8010E94D10280EA0E94E90237014A9490
:10260000BFEF4B1631F0D3018D913D010E94E902DD
:10261000F6CF752C772029F080E00E94E9027A94A9
:10262000F9CF61E0C8010E94D10261E0C8010E94B7
:102630009B0260E0C8010E94D1028FEF0E94E90274
:10264000782E61E0C8010E94D102872D807389F342
:1026500060E0C8010E949B0240E767E0C8010E9459
:10266000F00284FF03C0C8010E94BA0D61E070E06F
:1026700080E090E00E948509F401838594850097AD
:10268000C1F0DC01ED91FC910480F581E02D2DE39A
:1026900032E03A8B298B9C8A8B8AFE8AED8A2CE564
:1026A00030E0388F2F8B1A8E198EBE016F5E7F4FF0
:1026B0000995F4010281138160E0C8010E941403AE
:1026C00081FD0CC0482F426060E0C8010E94F0020A
:1026D00065E070E080E090E00E94850960E0C8015C
:1026E0000E941403482F416060E0C8010E94F0027C
:1026F00040E767E0C8010E94F00261E0C8010E9463
:102700009B02D80119968C9119978823D9F01E96AF
:102710007C9060E0C8010E94D1028AE20E94E90236
:102720004801B9E08B0E911C780C781431F0F4015B
:1027300081914F010E94E902F8CF61E0C8010E9437
:10274000D10214C062E0C8010E941403EDECF1E074
:10275000E49121E030E001C0220FEA95EAF72095EC
:10276000422F482362E0C8010E94F0026DE1C801D7
:102770000E94140381FFCDC0C8010E94BA0DC9C0D8
:102780006EE275E0CE0189960E947704892B09F0EC
:1027900082C06AA17BA187012FEF3FEF40E050E0AC
:1027A000CE014B960E94C604CE014B960E945C045B
:1027B0000E94C91D20E030E04AE754E40E9415263B
:1027C0001B012C01D6011A966D907C901B979B01E2
:1027D000AC01F30165817681878190850E949D24FB
:1027E000882309F455C0D30115962D923D924D9240
:1027F0005C9218974E01B7E38B0E911C86E0F401B2
:1028000011928A95E9F7840122E042E0C201B10108
:102810000E947C1CB701CE0141960E944C0420E02E
:1028200030E040E251E4C201B1010E949D2487FFE3
:1028300006C068E673E0CE0141960E94780FB401AD
:10284000CE0141960E94780F61E772E0CE01419679
:102850000E94780F8E01035C1F4F2FEF3FEF40E087
:1028600050E0BE016F5E7F4FC7010E94C60440E08A
:1028700050E0B701D30112968D919C9113970E945D
:10288000CB09C7010E944704CE0141960E9447042C
:10289000CE014B963CC067E275E0CE0189960E945E
:1028A0007704892BB1F160E275E0CE0189960E9430
:1028B0007704892B71F169E175E0CE0189960E9458
:1028C0007704892B31F16FE575E0CE0189960E947E
:1028D0007704892BF1F46AA17BA18E010F5E1F4F53
:1028E0002FEF3FEF40E050E0C7010E94C604C70150
:1028F0000E945C040E94C91D0E948726D6011A9678
:10290000ED91FC911B97858586136587C7010E9411
:102910004704812C912C00E010E02EA13FA18AA158
:102920009BA10217130750F4880D991D0E944704BC
:102930000F5F1F4FB7E08B0E911CEFCF0E94311D30
:10294000CE0189960E944704CE01C0960E9447049A
:10295000F60186819781A816B90609F068C021960C
:102960008EAD9FAD219799278D30910509F44AC00E
:10297000D4F484309105E9F164F48130910599F142
:102980008330910599F1892B09F051C06FEF72E006
:102990004AC08B30910581F194F50A9709F047C040
:1029A00069EB72E040C087319105A9F14CF48531A3
:1029B000910559F16CF54497D1F569E672E033C0A1
:1029C0008536910559F134F48436910581F568E135
:1029D00072E029C08636910521F18736910539F5D7
:1029E00061EE71E020C063EF72E01DC061EE72E045
:1029F0001AC060ED72E017C069EA72E014C064E9C1
:102A000072E011C060E872E00EC067E572E00BC0D2
:102A100060E472E008C06AE272E005C065E072E05E
:102A200002C063EF71E08BE494E00E94CC0763ED99
:102A300071E08BE494E00E943607809166059091E6
:102A40006705B701681B790B8BE494E00E945D0871
:102A5000C05CDF4F0FB6F894DEBF0FBECDBFDF9175
:102A6000CF911F910F91FF90EF90DF90CF90BF908B
:102A7000AF909F908F907F906F905F904F903F901E
:102A80002F900895A7016EE673E0CE014B960E9449
:102A90000E0588A899A8F2E08F0E911C02CD0F5F59
:102AA0001F4F21503109A801BE01605D7F4FCE014B
:102AB00041960E94FD0E66E071E0CE0141960E94B3
:102AC0009408019609F456C08D899E89E989FA898E
:102AD00000E010E00817190749F021912C3219F491
:102AE000812C912C15C00F5F1F4FF4CF0FEF1FEFFC
:102AF000F7CF0F5F1F4F0217130758F5FC01E00FC8
:102B0000F11F60816C32A9F70F3FEFEF1E0709F14B
:102B10000F3FFFEF1F0709F440C09801281939093A
:102B2000A401BE016F5E7F4FC7010E94FD0EB70179
:102B3000CE0182960E940F0EC7010E944704A80191
:102B40004F5F5F4F4A012D893E8989899A898A01A1
:102B5000D2CFBE016F5E7F4FC7010E94FD0EB7014D
:102B6000CE0182960E940F0EC7010E9447040FEF0C
:102B70001FEFCECF2CA93DA921503109A801BE01DC
:102B8000605D7F4FC7010E94FD0EB701CE018296A6
:102B90000E940F0EC7010E944704CE0141960E9479
:102BA000470491CC02970C94DF11CF93DF93CDB7FC
:102BB000DEB7AA970FB6F894DEBF0FBECDBF7894EC
:102BC00084B5826084BD84B5816084BD85B5826032
:102BD00085BD85B5816085BD80916E0081608093E3
:102BE0006E0010928100809181008260809381004C
:102BF000809181008160809381008091800081605C
:102C0000809380008091B10084608093B1008091B6
:102C1000B00081608093B00080917A0084608093DE
:102C20007A0080917A00826080937A0080917A00A5
:102C3000816080937A0080917A00806880937A0026
:102C40001092C10061E085E00E943E0961E087E0EA
:102C50000E943E0961E086E00E943E09E0915B042B
:102C6000F0915C0482E08083E0915704F091580475
:102C70001082E0915904F0915A0480E1808310920F
:102C80006304E0915F04F091600486E08083E0914A
:102C90005D04F0915E04808180618083E0915D0439
:102CA000F0915E04808188608083E0915D04F09102
:102CB0005E04808180688083E0915D04F0915E0411
:102CC00080818F7D8083E0910704F0910804309724
:102CD00021F085E094E094878387E0910904F091E6
:102CE0000A04309749F082A593A58550944021F0BD
:102CF00085E094E093A782A78789813011F081E075
:102D0000878B8689811102C081E0868B61E085E036
:102D10000E94F20861E087E00E94F20861E086E02C
:102D20000E94F2086AEF70E080E090E00E9485095E
:102D300060E085E00E94F20860E087E00E94F2080F
:102D400060E086E00E94F2080E94B50C9093E903CF
:102D50008093E8030E94BF090091FD031091FE03D8
:102D60002091FF0330910004DC01CB01801B910B0B
:102D7000A20BB30B803D9740A105B10554F00E9412
:102D8000BF096093FD037093FE038093FF0390934C
:102D90000004E090E803F090E9030E94BF09D70126
:102DA0005A960D911D912D913C915D97DC01CB01BF
:102DB000801B910BA20BB30B853F9140A105B10580
:102DC00078F06DE173E08BE494E00E94CC070E9400
:102DD000BF09D7015A966D937D938D939C935D9710
:102DE000F7018789882309F40CC3818D883CE1F4BD
:102DF0000E94BF09D7015E960D911D912D913C91C6
:102E00009197DC01CB01801B910BA20BB30B8B3F85
:102E10009105A105B10540F00E94BF09F701668F39
:102E2000778F80A391A3118ED7015896EC918E2FA6
:102E300090E08831910508F0D4C0FC01EC5CFF4FB4
:102E40000C94EC260E94BF09F701068D178D20A176
:102E500031A1DC01CB01801B910BA20BB30B813D97
:102E60009740A105B10508F4BCC0C7010E94C41178
:102E700099C088ECF701818F0E94BF09D7015E9647
:102E80006D937D938D939C939197C7010E94C4117C
:102E9000A8C00E94BF09F701068D178D20A131A19E
:102EA000DC01CB01801B910BA20BB30B813A9F403D
:102EB000A105B10508F495C06AE071C00E94BF0980
:102EC000F701068D178D20A131A1DC01CB01801BFC
:102ED000910BA20BB30B803E9E42A105B10508F4F5
:102EE00080C06AE043C00E94BF09D7015E960D9181
:102EF0001D912D913C919197DC01CB01801B910B91
:102F0000A20BB30B803E9E42A105B10508F469C037
:102F1000C7010E94DD0F65C00E94BF09D7015E9600
:102F20000D911D912D913C919197DC01CB01801B5E
:102F3000910BA20BB30B883B9B40A105B10508F494
:102F400050C064E12CC00E94BF09F701068D178DA7
:102F500020A131A1DC01CB01801B910BA20BB30B93
:102F600080319742A105B105E0F164E1C7010E94FB
:102F7000241037C00E94BF09D7015E960D911D91A4
:102F80002D913C919197DC01CB01801B910BA20B01
:102F9000B30B80319742A105B10518F16BE0C70171
:102FA0000E9424100E94BF09D7015E966D937D9305
:102FB0008D939C93919715C00E94BF09F701068DD0
:102FC000178D20A131A1DC01CB01801B910BA20B3D
:102FD000B30B803A9F40A105B10518F0C7010E94CC
:102FE0008011D70156968C915697882329F0149614
:102FF0008C9181110E94BF09F70182819381DC01CC
:10300000ED91FC910084F185E02D0995892B09F45F
:10301000F8C187E6782E5701B3E2AB0EB11CF70179
:1030200082819381DC01ED91FC910084F185E02D9A
:103030000995181619060CF0E4C1F70102811381F5
:103040006EE673E0CE0183960E94EF06C8010E94EF
:10305000A90597FD09C08A30910531F0682FCE018E
:1030600083960E940206F2CF8BA09CA0811491044B
:10307000E1F10FA118A501151105B9F124016201B3
:10308000FFEF4F1A5F0AD6018C91082E000C990BA6
:103090000E94C923892B99F701501109080D191DA8
:1030A000F8018081082E000C990B0E94C923892BFE
:1030B00079F4A8014F5F5F4F4C195D0958A74FA3E2
:1030C0008C149D0458F4B601C4010E94D52706C093
:1030D0000C151D0570F301501109E2CFEBA1FCA105
:1030E0008FA198A5E80FF91F10828FA198A5892BB1
:1030F00009F482C16BA17CA1AE014F5F5F4FCE018D
:1031000046960E940E058E01065D1F4F2FEF3FEF82
:1031100040E050E0BE016A5E7F4FCE010F960E94F4
:10312000C60462E173E08BE494E00E943607CE01AE
:103130000F960E945C04BC018BE494E00E94B807E7
:10314000D70158968C918B3031F128F4882369F09F
:103150008330B1F0CFC0853109F469C0863109F4FC
:1031600099C08C3009F0C6C04DC060ED72E0CE0150
:103170000F960E94B10F892B09F0BCC061E045C1D8
:1031800060ED72E0CE010F960E94B10F892B09F01D
:10319000B1C064E03AC160ED72E0CE010F960E94CA
:1031A000B10F892B51F4F701818D8F3411F46DE04B
:1031B00001C06AE0C7010E94241064E772E0CE01FA
:1031C0000F960E949408019661F06CE772E0CE01C0
:1031D0000F960E949408019611F08FE457C086E480
:1031E00049C06DE872E0CE010F960E9494080196E6
:1031F00009F480C06AE0C7010E942410C7010E9440
:10320000DD0F78C060ED72E0CE010F960E94B10F25
:10321000892B11F46DE0F9C064E972E0CE010F96DC
:103220000E949408019609F465C06AE0EEC060ED62
:1032300072E0CE010F960E94B10F892B91F4D70155
:1032400059968C918253823028F467E1C7010E941D
:10325000241007C064E1C7010E942410C7010E9426
:10326000801169E972E0CE010F960E94B10F892B9F
:1032700021F482E3F701818F3DC062EA72E0CE0162
:103280000F960E94B10F892BA9F583E3D7015996B8
:103290008C9330C060ED72E0CE010F960E94B10FAA
:1032A000892B11F467E109C06BEA72E0CE010F9639
:1032B0000E94B10F892B29F464E1C7010E942410F8
:1032C0000BC062EB72E0CE010F960E94940801964B
:1032D00019F088E1F701818FD70159968C918831D7
:1032E00049F468EB72E0CE010F960E94B10F892B72
:1032F00009F08AC0F7018689863619F0873629F1E8
:1033000073C06EEB72E0CE010F960E94B10F892B55
:1033100009F06AC0D70156967C9260EC72E08BE4AB
:1033200094E00E94B807C5010E945C04BC018BE4D4
:1033300094E00E94B807C5010E945C04BC01F7013B
:10334000828193810E945A074FC06BEC72E0CE01DC
:103350000F960E94B10F892B09F046C0F7018281B8
:103360009381DC01ED91FC910084F185E02D0995BC
:10337000892BD1F1D70112960D911C9113976EE60E
:1033800073E0CE014D960E94EF06C8010E94A90588
:1033900097FD06C0682FCE014D960E940206F5CF1C
:1033A0006D8D7E8DAE014F5F5F4FCE0108960E94FE
:1033B0000E058E01075D1F4F2FEF3FEF40E050E0FD
:1033C000BE01685F7F4FCE0101960E94C604CE0108
:1033D00001960E944704CE0108960E9447048D8DF5
:1033E0009E8D0E94311DBACFCE010F960E944704D8
:1033F000CE0146960E9447048BA19CA10E94311DDC
:103400000ECE0E94DA0DA6CC67E1C7010E942410FF
:1034100071CF0F931F93CF93DF931F92CDB7DEB77A
:103420000BE414E010924E0410924D0488EE93E0E9
:10343000A0E0B0E080934F0490935004A093510417
:10344000B093520485E491E090934C0480934B0434
:1034500085EC90E0909358048093570484EC90E0BE
:1034600090935A048093590480EC90E090935C040C
:1034700080935B0481EC90E090935E0480935D0404
:1034800082EC90E09093600480935F0486EC90E07F
:103490009093620480936104109264041092650416
:1034A0001092660410926704AE014F5F5F4F63EDA8
:1034B00072E08FE595E00E940E05AE014F5F5F4F11
:1034C00066ED72E088E595E00E940E05AE014F5F63
:1034D0005F4F69ED72E081E595E00E940E05AE0157
:1034E0004F5F5F4F6EED72E08AE495E00E940E053B
:1034F000AE014F5F5F4F62EE72E083E495E00E94A1
:103500000E05AE014F5F5F4F66EE72E08CE395E013
:103510000E940E05AE014F5F5F4F6AEE72E085E3D9
:1035200095E00E940E05AE014F5F5F4F6EEE72E0B8
:103530008EE295E00E940E05AE014F5F5F4F62EF95
:1035400072E087E295E00E940E05AE014F5F5F4F8B
:1035500066EF72E080E295E00E940E05AE014F5FDB
:103560005F4F6AEF72E089E195E00E940E05AE01BF
:103570004F5F5F4F6EEF72E082E195E00E940E05B3
:10358000E1E2F0E0F0930005E093FF041092010502
:10359000109202051092030546E050E060E070E0F2
:1035A0004093040550930505609306057093070545
:1035B000109208051092090510920A0510920B0549
:1035C00020E220930C0510920E0510920D0510922A
:1035D00011058AEE94E09093100580930F0583E027
:1035E00092E09093E9048093E8048DE092E0909358
:1035F000FD048093FC041092EE041092ED041092EE
:10360000F0041092EF041092F2041092F104109260
:10361000F4041092F3041092F6041092F504109240
:10362000F8041092F70481EE91E09093EB048093FC
:10363000EA041093FB040093FA0430E13093F90498
:10364000F0933904E093380410923A0410923B044A
:1036500010923C0440933D0450933E0460933F0419
:10366000709340041092410410924204109243045B
:10367000109244042093450410924704109246048B
:1036800010924A0410921F041092200410922104F8
:103690001092220423E234E030934904209348043A
:1036A0002BE831E030931E0420931D0425E931E01E
:1036B0003093360420933504109227041092260488
:1036C000109229041092280410922B0410922A04BC
:1036D00010922D0410922C0410922F0410922E049C
:1036E00010923104109230049093240480932304A8
:1036F000109334040093330488E0809332041093D1
:103700001C0400931B0464E57BE08CE69BE00E94B4
:10371000CD1D89E592E0909304048093030485E62F
:1037200092E090930604809305040E94D90E909332
:103730000804809307040E94B50C90930A048093B8
:1037400009048091F3039091F403892B09F042C09E
:1037500082E090E00E949C1CFC018DE192E091834C
:103760008083A0915B04B0915C0482E08C93A09173
:103770005704B09158041C92A0915904B0915A0476
:103780008FEC8C9310926304A0915F04B09160045D
:1037900086E08C93A0915D04B0915E049C91906151
:1037A0009C93A0915D04B0915E049C9198609C9361
:1037B000A0915D04B0915E049C9190689C93A0914F
:1037C0005D04B0915E049C919F7D9C93F093F40303
:1037D000E093F3030091F3031091F40310930C04AE
:1037E00000930B0480E190E00E949C1CFC0185E2A8
:1037F00092E0918380831383028381E08483158226
:1038000016821782108611861286138614861586F4
:1038100016861786F0930E04E0930D0410920F04A1
:1038200010921004109211041092120410921304BA
:10383000109214041092150410921604109217049A
:10384000109218041092190410921A048FE190E05B
:103850000E949C1C8C0120E043E062E00E942D034A
:1038600010930204009301040E94BF096093FD03BA
:103870007093FE038093FF03909300040F90DF91F9
:10388000CF911F910F9108958DE194E00E94B40BA8
:1038900088EE94E00E94020C82E195E00E944704C9
:1038A00089E195E00E94470480E295E00E94470488
:1038B00087E295E00E9447048EE295E00E9447046B
:1038C00085E395E00E9447048CE395E00E9447045D
:1038D00083E495E00E9447048AE495E00E9447044F
:1038E00081E595E00E94470488E595E00E94470441
:1038F0008FE595E00C944704EF920F931F93CF93BD
:10390000DF93E80147FD02C034E001C034E1E42F59
:10391000440FFF0BF7FF03C0F195E195F109E32E8A
:10392000022F2E2FAE010E940620CE01DF91CF91F3
:103930001F910F91EF900895CF93DF9382309105FF
:1039400010F482E090E0E0916805F091690520E0D4
:1039500030E0C0E0D0E0309711F14081518148174C
:103960005907C0F04817590761F482819381209765
:1039700019F09B838A832BC0909369058093680517
:1039800026C02115310519F04217530718F49A0182
:10399000BE01DF01EF010280F381E02DDCCF2115B4
:1039A000310509F1281B390B2430310590F41296AA
:1039B0008D919C9113976115710521F0FB01938303
:1039C000828304C09093690580936805FD01329657
:1039D00044C0FD01E20FF31F8193919322503109FE
:1039E0002D933C933AC02091660530916705232BB7
:1039F00041F4209102013091030130936705209337
:103A0000660520910001309101012115310541F435
:103A10002DB73EB74091040150910501241B350B91
:103A2000E0916605F0916705E217F307A0F42E1BFD
:103A30003F0B2817390778F0AC014E5F5F4F241712
:103A4000350748F04E0F5F1F50936705409366059A
:103A50008193919302C0E0E0F0E0CF01DF91CF913C
:103A600008950F931F93CF93DF93009709F48CC0B1
:103A7000FC0132971382128200916805109169054A
:103A80000115110581F420813181820F931F20914E
:103A90006605309167052817390779F5F0936705B2
:103AA000E093660571C0D80140E050E0AE17BF0753
:103AB00050F412962D913C911397AD0121153105CB
:103AC00009F1D901F3CF9D01DA01338322836081AB
:103AD0007181860F971F8217930769F4EC01288183
:103AE0003981260F371F2E5F3F4F318320838A8114
:103AF0009B8193838283452B29F4F0936905E0939E
:103B0000680542C01396FC93EE931297ED0149911C
:103B100059919E01240F351FE217F30771F480813C
:103B20009181840F951F029611969C938E938281AA
:103B3000938113969C938E931297E0E0F0E0D80166
:103B400012968D919C911397009719F0F8018C01B2
:103B5000F6CF8D919C9198012E5F3F4F820F931F5E
:103B600020916605309167052817390769F4309769
:103B700029F4109269051092680502C0138212821E
:103B80001093670500936605DF91CF911F910F9108
:103B90000895662777270C9494210F931F93CF9352
:103BA000DF93009731F46115710519F480E090E01E
:103BB0003AC08B01EC016EE070E081E090E00E9481
:103BC000EA1FFC01892B91F380E88383011511051D
:103BD00071F01387028781E8838380916A05909151
:103BE0006B05892B21F4F0936B05E0936A05209710
:103BF000C9F0D187C08783818260838380916C05FF
:103C000090916D05892B71F4F0936D05E0936C052F
:103C100080916E0590916F05892B21F4F0936F05CB
:103C2000E0936E05CF01DF91CF911F910F91089521
:103C3000ACE0B0E0EEE1FEE10C94CF257C016B013D
:103C40008A01FC0117821682838181FFBDC1CE01EA
:103C500001964C01F7019381F60193FD859193FF45
:103C600081916F01882309F4ABC1853239F493FD4A
:103C7000859193FF81916F01853229F4B70190E01E
:103C80000E940724E7CF512C312C20E02032A0F4F1
:103C90008B3269F030F4803259F0833269F420615C
:103CA0002CC08D3239F0803339F4216026C0226077
:103CB000246023C0286021C027FD27C030ED380FC5
:103CC0003A3078F426FF06C0FAE05F9E300D1124EA
:103CD000532E13C08AE0389E300D1124332E2062FB
:103CE0000CC08E3221F426FD6BC1206406C08C36D8
:103CF00011F4206802C0883641F4F60193FD8591E5
:103D000093FF81916F018111C1CF982F9F7D9554B1
:103D1000933028F40C5F1F4FFFE3F9830DC0833607
:103D200031F0833771F0833509F05BC022C0F801B0
:103D3000808189830E5F1F4F44244394512C54018A
:103D400015C03801F2E06F0E711CF801A080B1803F
:103D500026FF03C0652D70E002C06FEF7FEFC50145
:103D60002C870E94FC232C0183012C852F77222E87
:103D700017C03801F2E06F0E711CF801A080B1800D
:103D800026FF03C0652D70E002C06FEF7FEFC50115
:103D90002C870E94EA232C012C852068222E830187
:103DA00023FC1BC0832D90E048165906B0F4B701E0
:103DB00080E290E00E9407243A94F4CFF50127FCBA
:103DC000859127FE81915F01B70190E00E94072451
:103DD00031103A94F1E04F1A51084114510471F72F
:103DE000E5C0843611F0893639F5F80127FF07C0A0
:103DF00060817181828193810C5F1F4F08C0608157
:103E00007181072E000C880B990B0E5F1F4F2F76C8
:103E1000722E97FF09C090958095709561957F4FA0
:103E20008F4F9F4F2068722E2AE030E0A4010E943D
:103E30003F24A82EA81844C0853729F42F7EB22E1F
:103E40002AE030E025C0F22FF97FBF2E8F36C1F077
:103E500018F4883579F0B4C0803719F0883721F02C
:103E6000AFC02F2F2061B22EB4FE0DC08B2D846009
:103E7000B82E09C024FF0AC09F2F9660B92E06C035
:103E800028E030E005C020E130E002C020E132E06F
:103E9000F801B7FE07C060817181828193810C5F58
:103EA0001F4F06C06081718180E090E00E5F1F4F60
:103EB000A4010E943F24A82EA818FB2DFF777F2E77
:103EC00076FE0BC0372D3E7FA51450F474FE0AC059
:103ED00072FC08C0372D3E7E05C0BA2C372D03C0BA
:103EE000BA2C01C0B52C34FF0DC0FE01EA0DF11D46
:103EF0008081803311F4397E09C032FF06C0B3944B
:103F0000B39404C0832F867809F0B39433FD13C0B3
:103F100030FF06C05A2CB31418F4530C5B18B32CA2
:103F2000B31468F4B70180E290E03C870E94072454
:103F3000B3943C85F5CFB31410F43B1801C0312C79
:103F400034FF12C0B70180E390E03C870E94072451
:103F50003C8532FF17C031FD03C088E790E002C006
:103F600088E590E0B7010CC0832F867859F031FFC7
:103F700002C08BE201C080E237FD8DE2B70190E024
:103F80000E940724A51438F4B70180E390E00E9452
:103F900007245A94F7CFAA94F401EA0DF11D808109
:103FA000B70190E00E940724A110F5CF332009F457
:103FB00051CEB70180E290E00E9407243A94F6CFF8
:103FC000F7018681978102C08FEF9FEF2C96E2E187
:103FD0000C94EB250F931F93CF93DF93869F800163
:103FE000879F100D969F100D1124C8010E949C1CE4
:103FF000EC01009729F0A80160E070E00E94F52331
:10400000CE01DF91CF911F910F9108954F925F9252
:104010006F927F929F92AF92BF92CF92DF92EF9278
:10402000FF920F931F93CF93DF93CDB7DEB72997FE
:104030000FB6F894DEBF0FBECDBF6A01122FB02EAF
:104040002BE3201720F0FF24F394F00E02C0BCE312
:10405000FB2E0F2D27E0AE014F5F5F4F0E94F12234
:10406000AC018981982F9970913031F0E1FC06C044
:10407000E0FE06C090E205C09DE203C09BE201C0E5
:1040800090E0EE2DE07183FF3CC0911102C083E00F
:1040900001C084E0811718F4212F281B01C020E003
:1040A000E1110BC0F601822F30E2882319F0319321
:1040B0008150FBCFC20ED11C20E0992329F0D601FC
:1040C0009C93F60131966F01C6010396E2FE0AC089
:1040D0003EE4D6013C9341E411964C93119712961D
:1040E0003C9306C03EE6F601308341E641833283CD
:1040F000FC01322F40E2332309F442C04193315096
:10410000FACF82FF44C0911102C083E001C084E075
:10411000811718F4212F281B01C020E0E1110BC0EA
:10412000F601822F30E2882319F031938150FBCFC2
:10413000C20ED11C20E0992329F0D6019C93F601F0
:1041400031966F01C6010396E2FE0BC039E4D60139
:104150003C933EE411963C93119736E412963C93BF
:1041600007C039E6F60130833EE6318336E6328316
:10417000FC01322F40E2332319F041933150FBCF41
:10418000FC01E20FF11D10828EEF9FEFB7C0F1E04E
:10419000911101C0F0E06F2F70E01416150624F4A1
:1041A0009A012F5F3F4F02C021E030E0260F371FFA
:1041B000BB2029F06B2D70E06F5F7F4F02C060E085
:1041C00070E0260F371F612F70E0261737071CF4A9
:1041D000121B212F01C020E03E2D387159F4D60169
:1041E000322F60E2332319F06D933150FBCFC20EB2
:1041F000D11C20E0FF2331F0D6019C93B6016F5F04
:104200007F4F6B01E1110BC0F601922F30E3992330
:1042100019F031939150FBCFC20ED11C20E09F2D9D
:10422000940F3A81782F7071A72E84FF03C0313329
:1042300009F49150191624F4993018F098E001C04F
:1042400091E0E42F852F57FF02C0E0E080E06E2F61
:10425000782FE0E0F0E0AEE29A2E3A01691A710898
:104260002A01461A570A0B2D10E0119501951109E4
:104270006F3F8FEF780729F4D6019C92C601019613
:104280006C014617570784F0661677066CF47F01B9
:10429000E40CF51CA1E0B0E0AC0FBD1FEA0EFB1E64
:1042A000D7011196BC9002C090E3B92E61507109FC
:1042B0003196C60101967C016017710724F0D60182
:1042C000BC926C01D5CF6417750741F4363320F4E6
:1042D000353321F4A11002C081E3B82EF601B0827B
:1042E000F701822F90E2882319F091938150FBCF40
:1042F000F701E20FF11D108280E090E029960FB6E1
:10430000F894DEBF0FBECDBFDF91CF911F910F910B
:10431000FF90EF90DF90CF90BF90AF909F907F90F5
:104320006F905F904F900895A0E0B0E0EAE9F1E26D
:104330000C94D325EC017B016115710519F0DB01AB
:104340008D939C938E010F5F1F4F7880872D90E097
:104350000E94C923892B11F0E801F4CFBDE27B1242
:1043600005C00F5F1F4F7980C1E008C0EBE27E12ED
:1043700004C08E010E5F1F4F7980C0E06801F1E03C
:10438000CF1AD10843E050E060EA70E0C6010E9415
:10439000D223892BF1F4680122E0C20ED11C45E042
:1043A00050E06BE970E0C6010E94D223892B21F412
:1043B000680187E0C80ED11CE114F10419F0D7019F
:1043C000CD92DC92C111FFC060E070E080E89FE711
:1043D00003C143E050E068E970E0C6010E94D223C7
:1043E000892B51F4E114F10409F4F2C00E5F1F4F60
:1043F000F70111830083ECC0680160E070E0CB013D
:1044000000E010E0F601D0EDD70DDA3058F52C2F92
:104410002260622E2C2F2870C2FF05C0211128C0F7
:104420000F5F1F4F25C0222311F001501109A5E095
:10443000B0E09B01AC010E94C4254B015C01880CDB
:10444000991CAA1CBB1CC501B4016D0F711D811DF7
:10445000911D6839A9E97A078A07A9E19A0740F00E
:10446000C66005C0DE3F51F4C3FD44C0C8606C2E79
:10447000BFEFCB1ADB0A7080C62DC4CF2D2F2F7D46
:104480002531C1F540814D3211F4C06106C04B3277
:1044900021F0319621E030E006C03296D601119627
:1044A0004C9122E030E0A0EDA40FAA3018F0E21BFE
:1044B000F30B20C040E050E04038BCE05B075CF408
:1044C0009A01220F331F220F331F420F531F440F35
:1044D000551F4A0F511D3196DF0111972C91A0ED08
:1044E000A20FAA3048F3C4FF03C05195419551096A
:1044F000040F151FC1FF07C0E114F10421F031972B
:10450000D701ED93FC930E94A224C370C33019F02D
:104510006B017C0106C06B017C01F7FAF094F7F89F
:10452000F09420E030E0A901C701B6010E949D246B
:10453000882309F445C017FF06C01195019511099C
:10454000C7EBD0E002C0CFECD0E05E01B8E1AB1A1F
:10455000B1084601BE2DAF2D90E2E92EF12C0E15CB
:104560001F0584F0FE012591359145915491B401C8
:104570008B2F9A2F0E9403254B01B82FA92F0E19BC
:104580001F09EDCF2497F594E794CA15DB0539F799
:104590006401EB2EFA2E8E2D880F8F2D881F8F3FF2
:1045A00049F020E030E0A901C701B6010E949D2436
:1045B000811106C082E290E09093710580937005AE
:1045C000C701B60109C060E070E080E89FEF04C059
:1045D00060E070E080EC9FE7CDB7DEB7EEE00C94D2
:1045E000EF25283008F027E03327DA01990F311D35
:1045F00087FD916000966105710539F432602E5F88
:104600003D9330E32A95E1F708959F3F30F08038DD
:104610007105610509F03C5F3C5F3D93913008F006
:104620008068911DDF93CF931F930F93FF92EF92BA
:10463000192F987F9695E92F96959695E90FFF2764
:10464000E35DFE4F99273327EE24FF24A701E701FE
:1046500005900894079428F4360FE71EF81E491FAA
:10466000511D660F771F881F991F0694A1F70590AB
:10467000079428F4E70EF81E491F561FC11D770F37
:10468000881F991F661F0694A1F70590079428F4C8
:10469000F80E491F561FC71FD11D880F991F661F8F
:1046A000771F0694A1F70590079420F4490F561F31
:1046B000C71FD81F990F661F771F881F0694A9F779
:1046C00084911095177041F0D695C79557954795E9
:1046D000F794E7941A95C1F7E3EDF0E0689415902C
:1046E000159135916591959105907FE27395E1184B
:1046F000F10A430B560BC90BD009C0F7E10CF11EB0
:10470000431F561FC91FD01D7EF4703311F48A95C4
:10471000E6CFE894015030F0080F0AF400270217A2
:1047200008F4202F2395022F7A3328F079E37D9324
:104730002A95E9F710C07D932A9589F606949795F6
:104740006795379517951794E118F10A430B560BA7
:10475000C90BD00998F023957E9173957A3308F0B0
:1047600070E37C932013B8F77E9170617D9330F0F5
:10477000839571E37D9370E32A95E1F71124EF901F
:10478000FF900F911F91CF91DF91992787FD909511
:10479000089591110C947025803219F0895085503C
:1047A000C8F70895FB01DC014150504088F08D911D
:1047B00081341CF08B350CF4805E659161341CF003
:1047C0006B350CF4605E861B611171F3990B0895D3
:1047D000881BFCCFFC010590615070400110D8F798
:1047E000809590958E0F9F1F0895DC0101C06D93F9
:1047F00041505040E0F70895FC0161507040019035
:104800000110D8F7809590958E0F9F1F08950F93F4
:104810001F93CF93DF93FB01238121FD03C08FEF13
:104820009FEF28C022FF16C0468157812481358121
:104830004217530744F4A081B1819D012F5F3F4F80
:10484000318320838C93268137812F5F3F4F3783BD
:10485000268310C0EB01092F182F0084F185E02D6D
:104860000995892BE1F68E819F8101969F838E8326
:10487000812F902FDF91CF911F910F910895FA0111
:10488000AA27283051F1203181F1E8946F936E7F8F
:104890006E5F7F4F8F4F9F4FAF4FB1E03ED0B4E080
:1048A0003CD0670F781F891F9A1FA11D680F791FC1
:1048B0008A1F911DA11D6A0F711D811D911DA11DD2
:1048C00020D009F468943F912AE0269F11243019E2
:1048D000305D3193DEF6CF010895462F4770405D7D
:1048E0004193B3E00FD0C9F7F6CF462F4F70405D2C
:1048F0004A3318F0495D31FD4052419302D0A9F787
:10490000EACFB4E0A6959795879577956795BA9580
:10491000C9F700976105710508959B01AC010A2E46
:1049200006945795479537952795BA95C9F7620F1D
:10493000731F841F951FA01D08950E94DF2408F493
:1049400081E00895E89409C097FB3EF49095809526
:10495000709561957F4F8F4F9F4F9923A9F0F92F45
:1049600096E9BB279395F695879577956795B795C3
:10497000F111F8CFFAF4BB0F11F460FF1BC06F5FA9
:104980007F4F8F4F9F4F16C0882311F096E911C0BB
:10499000772321F09EE8872F762F05C0662371F0DC
:1049A00096E8862F70E060E02AF09A95660F771FF0
:1049B000881FDAF7880F9695879597F90895990FCC
:1049C0000008550FAA0BE0E8FEEF16161706E807D9
:1049D000F907C0F012161306E407F50798F0621BFA
:1049E000730B840B950B39F40A2661F0232B242BCF
:1049F000252B21F408950A2609F4A140A6958FEFEE
:104A0000811D811D08950E9416250C948A250E94FF
:104A10007C2538F00E94832520F0952311F00C941A
:104A200073250C94792511240C94BE250E949B2596
:104A300070F3959FC1F3950F50E0551F629FF001F1
:104A4000729FBB27F00DB11D639FAA27F00DB11D0A
:104A5000AA1F649F6627B00DA11D661F829F222793
:104A6000B00DA11D621F739FB00DA11D621F839F1A
:104A7000A00D611D221F749F3327A00D611D231FF0
:104A8000849F600D211D822F762F6A2F11249F573E
:104A900050409AF0F1F088234AF0EE0FFF1FBB1F41
:104AA000661F771F881F91505040A9F79E3F510500
:104AB00080F00C9473250C94BE255F3FE4F3983E80
:104AC000D4F3869577956795B795F795E7959F5FAA
:104AD000C1F7FE2B880F911D9695879597F908953C
:104AE00099278827089597F99F6780E870E060E02C
:104AF00008959FEF80EC089500240A941616170677
:104B000018060906089500240A94121613061406BE
:104B100005060895092E0394000C11F4882352F021
:104B2000BB0F40F4BF2B11F460FF04C06F5F7F4FD9
:104B30008F4F9F4F089557FD9058440F551F59F0C0
:104B40005F3F71F04795880F97FB991F61F09F3F7A
:104B500079F087950895121613061406551FF2CFA3
:104B60004695F1DF08C0161617061806991FF1CFF3
:104B700086957105610508940895E894BB2766271A
:104B80007727CB0197F908950E940626A59F900DDF
:104B9000B49F900DA49F800D911D112408952F9214
:104BA0003F924F925F926F927F928F929F92AF92BD
:104BB000BF92CF92DF92EF92FF920F931F93CF930A
:104BC000DF93CDB7DEB7CA1BDB0B0FB6F894DEBFA1
:104BD0000FBECDBF09942A88398848885F846E84C7
:104BE0007D848C849B84AA84B984C884DF80EE8011
:104BF000FD800C811B81AA81B981CE0FD11D0FB61A
:104C0000F894DEBF0FBECDBFED010895A29FB001A5
:104C1000B39FC001A39F700D811D1124911DB29FF0
:104C2000700D811D1124911D08950E9429260C9458
:104C30008A250E94832558F00E947C2540F029F4A3
:104C40005F3F29F00C94732551110C94BE250C94F0
:104C500079250E949B2568F39923B1F3552391F39D
:104C6000951B550BBB27AA2762177307840738F0DB
:104C70009F5F5F4F220F331F441FAA1FA9F335D038
:104C80000E2E3AF0E0E832D091505040E695001CEC
:104C9000CAF72BD0FE2F29D0660F771F881FBB1FA6
:104CA000261737074807AB07B0E809F0BB0B802D84
:104CB000BF01FF2793585F4F3AF09E3F510578F0B0
:104CC0000C9473250C94BE255F3FE4F3983ED4F317
:104CD000869577956795B795F7959F5FC9F7880F84
:104CE000911D9695879597F90895E1E0660F771FD6
:104CF000881FBB1F621773078407BA0720F0621B67
:104D0000730B840BBA0BEE1F88F7E09508950E9491
:104D1000A32588F09F5798F0B92F9927B751B0F085
:104D2000E1F0660F771F881F991F1AF0BA95C9F72F
:104D300014C0B13091F00E94BD25B1E008950C94EB
:104D4000BD25672F782F8827B85F39F0B93FCCF39E
:104D5000869577956795B395D9F73EF490958095AC
:104D6000709561957F4F8F4F9F4F089597FB072E4A
:104D700016F4009407D077FD09D00E94F22607FCB4
:104D800005D03EF4909581959F4F0895709561955B
:104D90007F4F0895A1E21A2EAA1BBB1BFD010DC077
:104DA000AA1FBB1FEE1FFF1FA217B307E407F507DB
:104DB00020F0A21BB30BE40BF50B661F771F881FB7
:104DC000991F1A9469F760957095809590959B014D
:104DD000AC01BD01CF010895EE0FFF1F0590F491C6
:104DE000E02D0994AA1BBB1B51E107C0AA1FBB1FE2
:104DF000A617B70710F0A61BB70B881F991F5A9567
:104E0000A9F780959095BC01CD010895A0E0B0E090
:104E1000ECE0F7E20C94D325EC01009721F4CB01F0
:104E20000E949C1CB8C0FC01E60FF71F9C01225099
:104E30003109E217F30708F4ACC0D9010D911C91B8
:104E4000119706171707B0F00530110508F49FC039
:104E5000C80104978617970708F499C002501109F2
:104E6000061B170B019311936D937C93CF010E9446
:104E7000311D8DC05B01A01AB10A4C01800E911E3C
:104E8000A0916805B091690540E050E0E12CF12C5B
:104E9000109709F44AC0A815B905D1F56D907C901A
:104EA0001197630182E0C80ED11CCA14DB0480F1A3
:104EB000A3014A195B096A0182E0C80ED11C12964F
:104EC000BC9012971396AC91B5E0CB16D10440F08C
:104ED000B282A38351834083D9016D937C930AC02E
:104EE0000E5F1F4FC301800F911FF90191838083D3
:104EF000EB2DFA2FE114F10431F0D7011396FC9356
:104F0000EE93129744C0F0936905E09368053FC0A3
:104F10008D919C9111974817590708F4AC017D01B8
:104F200012960D90BC91A02DB3CF80916605909103
:104F3000670588159905E1F446175707C8F480916D
:104F4000000190910101009741F48DB79EB7409107
:104F5000040150910501841B950BE817F907C8F46B
:104F6000F0936705E0936605F901718360830FC0D4
:104F7000CB010E949C1C7C01009759F0A801BE0146
:104F80000E94D527CE010E94311DC70104C0CE0169
:104F900002C080E090E0CDB7DEB7EEE00C94EF25E4
:104FA00081E090E0F8940C941628FB01DC0102C02B
:104FB00001900D9241505040D8F70895FB01DC015B
:104FC00001900D920020E1F70895FB01DC014150B2
:104FD000504030F08D910190801919F40020B9F7FC
:104FE000881B990B0895AEE0B0E0E9EFF7E20C946E
:104FF000DD250D891E8986E08C831A8309838FEF56
:105000009FE79E838D83AE01475E5F4F6F89788DEA
:10501000CE0101960E94181E2F813885F801E20FFB
:10502000F31F10822E96E4E00C94F92511E0C5ECF4
:10503000D1E004C0FE010E94EC262196C63CD107B7
:06504000C9F7F894FFCF50
:105046000000720580002C0000000009024D059743
:105056000208025D027502F001180000000000005F
:10506600000000E8FFE8FF00000000000014000058
:1050760000000000000000ECFFECFF000000000054
:1050860000000000003C064D0578058306CE0D871E
:10509600059B0500000000D9054D0597029602D92B
:1050A60005D905D90500000000D9054D05970296DA
:1050B60002060000000000930B950BFAFFFAFF00B2
:1050C60000940B970B180000000000B40BCB0BE804
:1050D600FFE8FF0000C10BD50B8B011F01290195CD
:1050E6000100000000B70D910B530B500B4D0B4AFE
:1050F6000B470BBE0ABA0AB70AA10AC10A450A43F8
:105106000A020000000000E10BE30BFEFFFEFF00B9
:1051160000E20BE50B00000000B90D2D0C000000AD
:1051260000B80DDF0B530B500B4D0B4A0B470B3BD7
:105136000BF50ADC0AC30AC10A620C410C14000012
:10514600000000020C190CECFFECFF00000F0C2312
:105156000C030233013D010D0200000000D80EEAE7
:105166000D00000000D70EE80D000000002F0C37E0
:105176000C00000000E50DEC0D00000000E40DE65B
:105186000D0000000000000000D90500000000002E
:10519600000000D90500000000A204DA119A02DF1F
:1051A60011FEFF0000D911DC11D21541542B2573D5
:1051B600006B56002B43574A41503A0052617963BF
:1051C6006170576946695F4472616D61004E6F2078
:1051D60041503A004641494C005354415455533AC4
:1051E60032005354415455533A3300434C4F5345C0
:1051F600440020434F4E4E004552524F52003E004F
:1052060053656E64696E672E2E2E0053454E4420FC
:105216004F4B0042540048560053455453005345E3
:105226005400544C530054425A0041434B004856D4
:105236003100535231004856320053523200415425
:1052460000415438333D2825642C25642C257329C8
:10525600007240794C404E21210041542B43574A5D
:1052660041505F4355523D222573222C222573223D
:105276000073796E65742E73797465732E6E65741A
:10528600002F7375726765732F746573742E70685B
:105296007000474554200020485454502F312E3179
:1052A6000D0A00486F73743A20000D0A0D0A004774
:1052B6004554205265717565737420746578743A27
:1052C600200041542B43495053454E443D00415420
:1052D6002B43495053544152543D22544350222C9F
:0852E600222573222C38300050
:00000001FF
