:100000000C9480000C94A8000C94A8000C94BD06DD
:100010000C94BD060C94BD060C94A8000C94A8008A
:100020000C94A8000C94A8000C94A8000C94A800B0
:100030000C94A8000C94A8000C94A8000C94A800A0
:100040000C9455090C94A8000C94F5050C94CF055C
:100050000C94A8000C94A8000C94A8000C94A80080
:100060000C94A8000C94A80041542B43574D4F44C6
:10007000453D310053746174653A20000000000072
:100080002300260029004154004672656520524134
:100090004D203D200052656365697665643A200015
:1000A000467265652052414D203D20000000000051
:1000B000240027002A0000000000250028002B0053
:1000C00004040404040404040202020202020303FE
:1000D0000303030301020408102040800102040806
:1000E0001020010204081020000000080002010096
:1000F0000003040700000000000000006A0E320E3A
:1001000011241FBECFEFD8E0DEBFCDBF12E0A0E0CC
:10011000B1E0E8E2FBE202C005900D92A03BB1071E
:10012000D9F724E0A0EBB2E001C01D92AC37B207D2
:10013000E1F710E0CFE7D0E004C02197FE010E9474
:100140007114CE37D107C9F70E94120A0C94871593
:100150000C940000CF92DF92EF92FF920F931F93C7
:10016000CF93DF936C017A018B01C0E0D0E0CE1514
:10017000DF0589F0D8016D918D01D601ED91FC91DB
:100180000190F081E02DC6010995892B11F47E01C3
:1001900002C02196ECCFC701DF91CF911F910F9143
:1001A000FF90EF90DF90CF900895FC01538D448D28
:1001B000252F30E0842F90E0821B930B541710F012
:1001C000CF96089501970895FC01918D828D98171F
:1001D00061F0828DDF01A80FB11D5D968C91928D2B
:1001E0009F5F9F73928F90E008958FEF9FEF089528
:1001F000FC01918D828D981731F0828DE80FF11DF1
:10020000858D90E008958FEF9FEF0895FC01918D0B
:10021000228D892F90E0805C9F4F821B91098F7304
:100220009927089585E093E00E94060121E0892B3B
:1002300009F420E0822F0895FC01848DDF01A80FCE
:10024000B11DA35ABF4F2C91848D90E001968F73FE
:100250009927848FA689B7892C93A089B1898C911D
:1002600080648C93938D848D981306C00288F389E3
:10027000E02D80818F7D80830895EF92FF920F9310
:100280001F93CF93DF93EC0181E0888F9B8D8C8D42
:10029000981305C0E889F989808185FD24C0F62E70
:1002A0000B8D10E00F5F1F4F0F731127E02E8C8D09
:1002B000E8120CC00FB607FCFACFE889F9898081F3
:1002C00085FFF5CFCE010E941C01F1CF8B8DFE0181
:1002D000E80FF11DE35AFF4FF0820B8FEA89FB898B
:1002E0008081806207C0EE89FF896083E889F9898F
:1002F00080818064808381E090E0DF91CF911F91C5
:100300000F91FF90EF900895CF93DF93EC01888DCC
:100310008823C9F0EA89FB89808185FD05C0A88909
:10032000B9898C9186FD0FC00FB607FCF5CF80818F
:1003300085FFF2CFA889B9898C9185FFEDCFCE01D9
:100340000E941C01E7CFDF91CF91089580E090E0FB
:10035000892B29F00E94120181110C94000008954C
:10036000CB0108957F928F929F92AF92BF92CF92CE
:10037000DF92EF92FF920F931F93CF93DF93EC01E5
:1003800049015A018B01C12CD12C7601C814D90422
:10039000EA04FB0484F5F80171908F018F8580FFDA
:1003A0000BC0E881F9810084F185E02D20E144E073
:1003B00060E070E0CE010995EB85FC858D859E851A
:1003C000E817F90738F470828B859C8501969C8725
:1003D0008B870BC0E881F981672D70E0028CF38D6B
:1003E000E02DCE010995019649F02FEFC21AD20AED
:1003F000E20AF20ACBCFB401C50102C0B601C701BF
:10040000DF91CF911F910F91FF90EF90DF90CF90F0
:10041000BF90AF909F908F907F900895CF93DF9380
:10042000EC01E881F9810288F389E02D09958F3F7D
:100430002FEF920731F02D813E812F5F3F4F3E839A
:100440002D83DF91CF9108958FEF9FEF089560E0A6
:1004500070E0CB01089580E090E00895CB0108950D
:10046000CF93DF93EC0188899989DC01ED91FC91B0
:100470000084F185E02D0995892BA9F38889998954
:10048000DC01ED91FC910284F385E02DDF91CF91A9
:100490000994CF93DF93EC0188899989DC01ED9170
:1004A000FC910084F185E02D0995892BA9F38889B9
:1004B0009989DC01ED91FC910484F585E02DDF91B3
:1004C000CF910994AF92BF92CF92DF92EF92FF92B9
:1004D0000F931F93CF93DF9300D000D0CDB7DEB73B
:1004E0008C015B01C12CD12C7601F80180899189A6
:1004F000DC01ED91FC910284F385E02D29833A83A0
:100500004B835C83099529813A814B815C818F3FC4
:1005100071F0C216D306E406F5064CF4D5018D93AE
:100520005D01BFEFCB1ADB0AEB0AFB0ADECFC70186
:10053000B6010F900F900F900F90DF91CF911F9108
:100540000F91FF90EF90DF90CF90BF90AF90089504
:10055000DC0150968D919C915197DC01ED91FC91BD
:100560000084F185E02D099480E090E0089580E01A
:1005700090E0089580E090E0089580E090E0089594
:100580000895CF93DF93C0910303D0910403E881D2
:10059000F9810084F185E02DCE010995892BB9F30D
:1005A000E881F9810284F385E02DCE01DF91CF91BE
:1005B00009941F93CF93DF93182FC0910303D09119
:1005C00004038A3041F4E881F9810190F081E02D43
:1005D0006DE0CE010995E881F9810190F081E02D6F
:1005E000612FCE01099521E030E0019711F420E060
:1005F00030E0C901DF91CF911F9108952091F2025F
:100600003091F3022817390771F49091F00280912C
:10061000F102981741F0E091F002F0E0E055FD4F53
:10062000808190E008958FEF9FEF089508951F93C4
:10063000CF93DF93DC015C962D913C915D97211562
:10064000310539F481E090E013969C938E931297D4
:100650003DC05196ED91FC91529750969C915097C8
:10066000892F80951FB75E964C915E9741FB772747
:1006700070F941FD6095F8944081772311F0492B82
:1006800001C048234083E9012197F1F748E05081F8
:1006900060FF02C0592B01C058235083E901219704
:1006A000F1F76695415099F7772321F090818923DE
:1006B000808303C08081982B90831FBF5C968D91AF
:1006C0009C915D970197F1F721E030E0C901DF913E
:1006D000CF911F9108952091F2023091F3022817D3
:1006E000390771F48091F1022091F00290E0805C72
:1006F0009F4F821B910960E470E00E9427140895C7
:1007000080E090E008952091F2023091F3022817E2
:100710003907B9F49091F0028091F102981789F0AD
:10072000E091F002F0E0E055FD4F80812091F00271
:1007300030E02F5F3F4F2F7333272093F00290E07C
:1007400008958FEF9FEF0895089580E090E0089559
:100750000C9460100C9460100C946010089508952F
:100760000C946010DC01ED91FC9136972081318171
:10077000820F931F0C94B003FB0120813181FC0197
:1007800031832083FB0142815381F9013697208117
:100790003181FC01E20FF31F51834083089522E968
:1007A00031E0FC01318320832CE931E0318F208F4F
:1007B00062EA71E00C94BC03DC01ED91FC91369788
:1007C00020813181820F931F0C94CF03CF93DF934D
:1007D000EC010E94CF03CE01DF91CF910C94601009
:1007E000DC01ED91FC91369720813181820F931FBE
:1007F0000C94E6030C946010089508950C94601016
:10080000DC01ED91FC91369720813181820F931F9D
:100810000C94FE03FB0120813181FC013183208394
:10082000FB0142815381F901369720813181FC011E
:10083000E20FF31F5183408308952AE032E0FC0168
:100840003183208324E132E0358B248B6AE172E02E
:100850000C940A04DC01ED91FC91369720813181E2
:10086000820F931F0C941D04CF93DF93EC010E9421
:100870001D04CE01DF91CF910C946010DC01ED914D
:10088000FC91369720813181820F931F0C943404A0
:100890000F931F93CF93DF93EC010E944909688760
:1008A00079878A879B87E881F9810284F385E02D27
:1008B000CE01099597FF17C00E944909088519853F
:1008C0002A853B85DC01CB01801B910BA20BB30B6E
:1008D0000C811D812E813F8180179107A207B307EC
:1008E00010F38FEF9FEFDF91CF911F910F9108953C
:1008F000DC01ED91FC910190F081E02D09940F93C2
:100900001F93CF93DF938C01EB016F3F8FEF78073D
:1009100019F480E090E00FC06A3031F46DE0F80126
:10092000808991890E9478046C2FF80180899189CF
:100930000E947804CE01DF91CF911F910F9108950D
:100940008F929F92BF92CF92DF92EF92FF920F937E
:100950001F93CF93DF9300D000D0CDB7DEB78C01CB
:100960004B01C12CD12C7601C216D306E406F50644
:1009700044F5F401B1904F01FAE0BF120EC06DE0F2
:10098000F8018089918929833A834B835C830E9493
:1009900078045C814B813A8129816B2DF801808933
:1009A000918929833A834B835C830E947804FFEF0B
:1009B000CF1ADF0AEF0AFF0A5C814B813A81298155
:1009C000D3CFCA01B9010F900F900F900F90DF9114
:1009D000CF911F910F91FF90EF90DF90CF90BF903C
:1009E0009F908F900895EF92FF920F931F93CF9354
:1009F000DF938C017B01C0E0D0E0F701EC0FFD1F1D
:100A00006491662361F0D801ED91FC910190F08131
:100A1000E02DC8010995892B11F02196EECFCE016A
:100A2000DF91CF911F910F91FF90EF900895611585
:100A3000710579F0FB0101900020E9F73197AF01D2
:100A4000461B570BDC01ED91FC910280F381E02DF8
:100A5000099480E090E008954F925F926F927F92A8
:100A6000EF92FF920F931F93CF93DF93CDB7DEB733
:100A7000A1970FB6F894DEBF0FBECDBF7C01FA017F
:100A8000CB0119A2223008F42AE08E010F5D1F4F1E
:100A9000422E512C612C712CBF01A30192010E94A6
:100AA0003B14F901CA01015011096A3014F4605D68
:100AB00001C0695CD8016C93232B242B252B61F793
:100AC000B801C7010E941705A1960FB6F894DEBFC2
:100AD0000FBECDBFDF91CF911F910F91FF90EF908F
:100AE0007F906F905F904F9008958F929F92AF92FA
:100AF000BF92CF92DF92EF92FF920F931F93CF930B
:100B0000DF937C018B016C0182E0C80ED11C470190
:100B1000E5E08E0E911CC0E0D0E0F60141916F013E
:100B200050E060E070E02AE0C8010E942C055C0102
:100B30006EE2C8010E9478048A0D9B1DC80FD91F60
:100B4000C814D90451F7F701458150E060E070E026
:100B50002AE0C8010E942C058C0F9D1FDF91CF91C8
:100B60001F910F91FF90EF90DF90CF90BF90AF90CB
:100B70009F908F9008950F931F93CF93DF93EC0175
:100B80000E9417058C0166E272E0CE010E941705F3
:100B9000800F911FDF91CF911F910F9108951F92A8
:100BA0000F920FB60F9211242F933F934F935F93A1
:100BB0006F937F938F939F93AF93BF93EF93FF9325
:100BC00085E093E00E941C01FF91EF91BF91AF91EE
:100BD0009F918F917F916F915F914F913F912F9155
:100BE0000F900FBE0F901F9018951F920F920FB687
:100BF0000F9211242F938F939F93EF93FF93E09184
:100C00001503F09116038081E0911B03F0911C0302
:100C100082FD12C0908180911E038F5F8F7320919F
:100C20001F03821751F0E0911E03F0E0EB5FFC4FD1
:100C3000958F80931E0301C08081FF91EF919F915A
:100C40008F912F910F900FBE0F901F9018950F93BB
:100C50001F93CF93FC0127892617D9F0C62F8C014B
:100C600064E770E085E093E00E94F3044C2F50E0CD
:100C700060E070E02AE085E093E00E942C0566E2E7
:100C800072E085E093E00E941705F801C78B81E0D0
:100C900001C080E0CF911F910F910895EF92FF92D4
:100CA0000F931F93CF93DF93CDB7DEB7C054D10915
:100CB0000FB6F894DEBF0FBECDBF8C0189E292E083
:100CC0009F938F9382E392E09F938F9383E492E0CC
:100CD0009F938F93CE0101967C019F938F930E94E7
:100CE0006415B70185E093E00E94BB05B701F801E8
:100CF000828193810E94BB0563E0C8010E942706A0
:100D00000E944909F801648F758F868F978F0FB6FF
:100D1000F894DEBF0FBECDBFC05CDF4F0FB6F894B6
:100D2000DEBF0FBECDBFDF91CF911F910F91FF901E
:100D3000EF9008950F931F93CF93DF93EC010A81F7
:100D40001B8168E670E0C8010E94F30466E272E06D
:100D5000C8010E9417050E9449096C8F7D8F8E8FF4
:100D60009F8F61E0CE01DF91CF911F910F910C9485
:100D7000270608950895089508951F920F920FB6BB
:100D80000F9211242F933F934F935F936F937F9311
:100D90008F939F93AF93BF93EF93FF93E091F202F2
:100DA000F091F302309709F451C0968DA685B7856E
:100DB000858591FF04C09C91892329F447C09C91AB
:100DC000892309F043C0A389B4899C9185898095C2
:100DD00089238C93868997890197F1F7608D718DAE
:100DE000A685B785558538E020E0CB010197F1F75E
:100DF000822F90E095958795282F4C91452309F0F7
:100E00002068315091F7868D81FD20958091F10207
:100E100090E001968F7399273091F002381749F0CE
:100E2000A091F102B0E0A055BD4F2C938093F10248
:100E300003C0868D8160868F828D938D0197F1F737
:100E4000A389B4899C918589892B8C93FF91EF911B
:100E5000BF91AF919F918F917F916F915F914F91D2
:100E60003F912F910F900FBE0F901F9018950F93E9
:100E70001F93CF93DF93EC01CB01088119817B8312
:100E80006A830E94CB0F9983888320E030E08C81B5
:100E90009D812817390770F4E881F981E20FF31F6B
:100EA000309729F0D801A20FB31F8C9180832F5F58
:100EB0003F4FEDCFC801DF91CF911F910F910C945F
:100EC0006010FC01808191810C946010CF92DF92C0
:100ED000EF92FF920F931F93FB01DC0100E010E003
:100EE00098016A01E12CF12C0C151D052E053F051A
:100EF00038F461916D930F5F1F4F2F4F3F4FF4CF29
:100F0000840F951F1F910F91FF90EF90DF90CF906E
:100F10000895CF92DF92EF92FF920F931F93CF939A
:100F2000DF931F92CDB7DEB77C016B0188E090E0C4
:100F3000F70193838283158214820E94CB0FF701FD
:100F400091838083C114D104B9F0F601019000208F
:100F5000E9F731978F010C191D091982AE014F5F16
:100F60005F4FB801C7010E949F09A801B601F701B0
:100F7000808191810E9466070F90DF91CF911F9130
:100F80000F91FF90EF90DF90CF90089590E0FC01DB
:100F9000E851FF4F3491FC01EC52FF4F2491FC01CA
:100FA000E054FF4FE491EE2309F43BC0332339F1C1
:100FB000333091F038F43130A9F0323001F584B596
:100FC0008F7D12C0373091F03830A1F03430B9F451
:100FD000809180008F7D03C0809180008F77809307
:100FE00080000DC084B58F7784BD09C08091B000AA
:100FF0008F7703C08091B0008F7D8093B000F0E0C8
:10100000EE0FFF1FEA54FF4FA591B4918FB7F894EC
:10101000EC91611103C020952E2301C02E2B2C933F
:101020008FBF0895CF93DF9390E0FC01EC52FF4F08
:101030002491FC01E054FF4F8491882361F190E0FA
:10104000880F991FFC01E455FF4FC591D491FC0115
:10105000EA54FF4FA591B491611109C09FB7F8946C
:101060008881209582238883EC912E230BC06230E7
:1010700061F49FB7F8943881822F80958323888309
:10108000EC912E2B2C939FBF06C08FB7F894E8816C
:101090002E2B28838FBFDF91CF9108953FB7F8940F
:1010A0008091FB029091FC02A091FD02B091FE02A2
:1010B00026B5A89B05C02F3F19F00196A11DB11DB3
:1010C0003FBFBA2FA92F982F8827820F911DA11DEE
:1010D000B11DBC01CD0142E0660F771F881F991F2B
:1010E0004A95D1F708955F926F927F928F929F9267
:1010F000AF92BF92CF92DF92EF92FF920F931F9326
:10110000CF93DF93CDB7DEB760970FB6F894DEBF0D
:101110000FBECDBF5C01AE01405F5F4FCE010896B0
:101120000E9489078C859D85F501E480F580E8168D
:10113000F90618F40FEF1FEF68C09701281B390B51
:10114000F90131967F0100E010E088E0882E912CB3
:101150000E151F0579F38C859D85F50164807580DA
:101160006016710610F40E944115601A710A861506
:10117000970508F43C01F501C080D180C00ED11E56
:101180009C828B821E821D8288E090E00E94CB0FA1
:101190009A838983FFEF6F167F0629F3F60180811A
:1011A000181684F41F86AE01415F5F4FB301CE0174
:1011B00001960E949F094D815E81B60189819A81C5
:1011C0000E9466076C847D84CD80DE80A6016C144D
:1011D0007D0408F4A30169817A81888599850E943C
:1011E0005615892B41F4C614D70428F0552453947E
:1011F0006C147D0408F4512CCE0101960E94610705
:10120000511003C00F5F1F4FA3CFCE0108960E945D
:101210006107C80160960FB6F894DEBF0FBECDBF60
:10122000DF91CF911F910F91FF90EF90DF90CF90C2
:10123000BF90AF909F908F907F906F905F90089538
:101240000E9441150F931F93CF93DF93EC01888188
:101250009981009729F02A813B812617370788F466
:101260008B016F5F7F4F0E947714009761F0998325
:1012700088831B830A832C813D81232B11F4FC017D
:10128000108281E001C080E0DF91CF911F910F912A
:1012900008952FB7F8946091F7027091F802809149
:1012A000F9029091FA022FBF08951F920F920FB684
:1012B0000F9211242F933F938F939F93AF93BF93DC
:1012C0008091F7029091F802A091F902B091FA0290
:1012D0003091F60223E0230F2D3720F40196A11D53
:1012E000B11D05C026E8230F0296A11DB11D209354
:1012F000F6028093F7029093F802A093F902B0935C
:10130000FA028091FB029091FC02A091FD02B09143
:10131000FE020196A11DB11D8093FB029093FC0279
:10132000A093FD02B093FE02BF91AF919F918F9168
:101330003F912F910F900FBE0F901F901895EF9235
:10134000FF920F931F93CF93DF93EC018C819D81CC
:101350008617970710F57A018B018A819B81861782
:10136000970740F4685F7F4F8617970718F4CE0100
:101370000E9437078C819D818017910758F4E8817E
:10138000F981E80FF91F309719F0D7012C912083CC
:101390000196F2CF1D830C8305C06817790710F4FE
:1013A0007D836C83DF91CF911F910F91FF90EF9020
:1013B0000895CF92DF92EF92FF92CF93DF936C016B
:1013C000990FEE08FF08F7FE16C06DE285E093E086
:1013D0000E947804EC0144275527BA014C195D0995
:1013E0006E097F092AE085E093E00E942C057C01CC
:1013F000EC0EFD1E08C02AE0B701A60185E093E0CF
:101400000E942C057C0166E272E085E093E00E9478
:1014100017058E0D9F1DDF91CF91FF90EF90DF900C
:10142000CF900895CF93DF93CDB7DEB765970FB612
:10143000F894DEBF0FBECDBF789484B5826084BDC2
:1014400084B5816084BD85B5826085BD85B58160C8
:1014500085BD80916E00816080936E001092810046
:101460008091810082608093810080918100816001
:1014700080938100809180008160809380008091C2
:10148000B10084608093B1008091B000816080934E
:10149000B00080917A00846080937A0080917A0015
:1014A000826080937A0080917A00816080937A00D4
:1014B00080917A00806880937A001092C10061E088
:1014C00085E00E94120861E087E00E94120861E056
:1014D00086E00E941208E0911503F091160382E065
:1014E0008083E0911103F09112031082E0911303C5
:1014F000F091140380E1808310921D03E0911903A1
:10150000F0911A0386E08083E0911703F0911803AD
:10151000808180618083E0911703F09118038081BE
:1015200088608083E0911703F091180380818068C0
:101530008083E0911703F091180380818F7D808371
:1015400061E085E00E94C60761E087E00E94C6076F
:1015500061E086E00E94C6070E944E084B015C01D4
:101560003AEFC32ED12CE12CF12C0E944E08DC0165
:10157000CB0188199909AA09BB09883E9340A105A6
:10158000B10558F021E0C21AD108E108F10838EE9F
:10159000830E33E0931EA11CB11CC114D104E104DD
:1015A000F10419F760E085E00E94C60760E087E07B
:1015B0000E94C60760E086E00E94C60781E290E0D4
:1015C0000E94CB0F7C018CE191E0D7018D939C931D
:1015D0008FE190E00E94CB0F8C01FC0113821282FC
:1015E00088EE93E0A0E0B0E084839583A683B78380
:1015F0008AE091E091838083178A168A118E108E7B
:10160000138E128E158E148E668D6E7F6D7F668F93
:101610006695617081E0682783E00E94C60761E0FB
:1016200083E00E941208E7EDF0E0E491D8015096C3
:10163000EC93E3ECF0E0E491F0E0EE0FFF1FEA54EE
:10164000FF4F85919491F801928B818B60E082E04D
:101650000E941208D8015E968C9181FD04C061E061
:1016600082E00E94C60782E0F8018487E6EDF0E0A0
:10167000E491D8011D96EC93E2ECF0E0E491F0E007
:10168000EE0FFF1FE458FF4F85919491F801978763
:101690008687D70113961C930E93129714961C926B
:1016A000149755961C92559756961C925697579696
:1016B0001C920E944909F701608F718F828F938F6E
:1016C0000E944909D7015C966D937D938D939C93FD
:1016D0005F9790961C9269E870E085E093E00E9425
:1016E000F3048091720490917304FE0131966F01AE
:1016F0009F01281B390BC9010E94D909F7013596B2
:10170000C701459611921192E817F907D9F7D70149
:101710001296ED91FC911397138E128E118E108EEE
:10172000178A168A8DE991E0958F848F848586319A
:1017300008F04DC02DEB30E0378B268B2BE931E0E4
:10174000318F208F2CE231E0338F228F909168000F
:10175000883050F021E08E3008F420E081E001C0B4
:10176000880F2A95EAF701C084E0892B80936800EE
:101770008485883038F08E3040F0863148F020E0A3
:1017800030E008C02DE630E005C02BE630E002C0B6
:101790002CE630E0348B238B883030F491E001C0AC
:1017A000990F8A95EAF70EC0282F30E08E3018F492
:1017B0002850310902C02E50310991E001C0990F23
:1017C0002A95EAF7958B848D958D0197F1F7828D97
:1017D000938D892B49F14091F2025091F3024E17FB
:1017E0005F0711F14115510571F0DA0153962D9102
:1017F0003C915497D9019C91DA0155968C91809532
:101800008923D9018C93868D8E7F868F1092F10269
:101810001092F002F093F302E093F202A389B489EC
:101820009C918589892B8C93F7010281138166E84D
:1018300070E0C8010E94F30466E272E0C8010E94F1
:101840001705F092F502E092F40288E0A82EB12C80
:101850000E9449090091FF021091000320910103A9
:1018600030910203DC01CB01801B910BA20BB30B67
:10187000803D9740A105B10554F00E94490960934D
:10188000FF02709300038093010390930203009181
:10189000F4021091F5020E944909D80158964D9022
:1018A0005D906D907C905B97DC01CB01841995096C
:1018B000A609B709853F9140A105B10548F00E94EE
:1018C0004909D80158966D937D938D939C935B97AE
:1018D000F8018789823009F46CC028F4882341F02C
:1018E000813051F069C0833049F18530F1F164C035
:1018F000C8010E949A0660C00E944909D8015C96FE
:101900004D905D906D907C905F97DC01CB018419C8
:101910009509A609B709813D9740A105B10508F4CD
:101920004BC0C8010E949A060E944909D8015C96E2
:101930006D937D938D939C935F973EC00E94490960
:10194000F801448C558C668C778CDC01CB018419B2
:101950009509A609B709803E9E42A105B10560F12F
:1019600065E0C8010E94270627C00E944909D801E6
:101970005C964D905D906D907C905F97DC01CB0103
:1019800084199509A609B709803E9E42A105B105B3
:1019900098F060EA70E085E093E00E94F3048091A3
:1019A0007204909173049601281B390BC9010E949F
:1019B000D909C8010E944E06D80156968C915697B7
:1019C000882329F014968C9181110E944909F8010D
:1019D00082819381DC01ED91FC910084F185E02D01
:1019E0000995892B09F43BC1D80112968D919C91E0
:1019F0001397DC01ED91FC910084F185E02D0995B0
:101A0000181619060CF02BC1F801E280F380188A31
:101A10001F861A8A198A1C8A1B8A60E070E0CE0130
:101A20000F960E9422092F85388981110DC021153A
:101A3000310519F0C9010E946010188A1F861C8A9E
:101A40001B8A1A8A198A24C01C8A1B8A68E272E0DF
:101A5000C9010E944F151CC08A309105F1F089839D
:101A60001A828B889C88FFEF8F1A9F0AB401CE01DF
:101A70000F960E942209882359F02F8538898B8977
:101A80009C89B601820F931F0E944F159C8A8B8AF6
:101A9000C7010E94480497FFDFCF8F849888811484
:101AA0009104F1F1EB88FC88E114F104C9F12401FF
:101AB00032012FEF421A520AD3018C91082E000CEA
:101AC000990B0E943113892B99F7B1E0EB1AF108B9
:101AD000E80CF91CD7018C91082E000C990B0E9480
:101AE0003113892B79F4A7014F5F5F4F46195709CE
:101AF0005C8B4B8B8614970460F4B301C4010E9485
:101B0000461507C0E614F70470F3E1E0EE1AF10899
:101B1000E1CFEF85F8898B899C89E80FF91F108246
:101B20008B899C89892B09F495C06F857889A601DA
:101B3000CE0108960E948907BC82AB821E821D825C
:101B400088E090E00E94CB0F9A8389836C857D8525
:101B50001D8AAE014B5E5F4FC6010E949F094D81F9
:101B60005E816885798589819A810E94660765E929
:101B700070E085E093E00E94F3046D817E816F5FE9
:101B80007F4F8B819C818617970718F4C6010E94AE
:101B90003707E981FA818D819E81E80FF91F108254
:101BA00069817A8185E093E00E94BB05F80187890D
:101BB0008130E1F018F0833011F135C0ED80FE8006
:101BC000F2E0EF16F10410F4A70102C042E050E089
:101BD0006AE572E089819A810E945615892B19F570
:101BE00022E0E216F104F9F464E61AC06DE572E051
:101BF000C6010E9473080196B1F062E011C069E667
:101C000072E0C6010E947308019611F064E008C0FA
:101C100065E772E0C6010E947308019621F065E055
:101C2000C8010E9427066AE772E0C6010E94730895
:101C3000019649F0E981FA818781823321F464E0D9
:101C4000C8010E942706C6010E946107CE010896BE
:101C50000E9461078F8598890E946010C5CE0E94FE
:101C6000A601F6CD86EC93E00E94CF0384EF93E0CB
:101C70000E941D048EE194E00E94610785E294E0D9
:101C80000E9461078CE294E00E94610783E394E084
:101C90000E9461078AE394E00E94610781E494E076
:101CA0000E94610788E494E00E9461078FE494E059
:101CB0000E94610786E594E00E9461078DE594E04B
:101CC0000E94610784E694E00E9461078BE694E03D
:101CD0000C946107EF92FF920F931F93CF93DF93C2
:101CE0001F92CDB7DEB7E2EAF3E084E2E82E82E0AD
:101CF000F82EF182E082128213821482158205E0AE
:101D000013E0F8011382128288EE93E0A0E0B0E0C5
:101D100084839583A683B7838CE491E09183808349
:101D200085EC90E09587848784EC90E097878687A0
:101D300080EC90E0918B808B81EC90E0938B828B98
:101D400082EC90E0958B848B86EC90E0978B868B71
:101D5000118E128E138E148EAE014F5F5F4F62E8AC
:101D600072E08BE694E00E948907AE014F5F5F4FFF
:101D700065E872E084E694E00E948907AE014F5F57
:101D80005F4F68E872E08DE594E00E948907AE013C
:101D90004F5F5F4F6DE872E086E594E00E9489072F
:101DA000AE014F5F5F4F61E972E08FE494E00E9403
:101DB0008907AE014F5F5F4F65E972E088E494E008
:101DC0000E948907AE014F5F5F4F69E972E081E4CD
:101DD00094E00E948907AE014F5F5F4F6DE972E0AA
:101DE0008AE394E00E948907AE014F5F5F4F61EA8A
:101DF00072E083E394E00E948907AE014F5F5F4F7A
:101E000065EA72E08CE294E00E948907AE014F5FC0
:101E10005F4F69EA72E085E294E00E948907AE01B3
:101E20004F5F5F4F6DEA72E08EE194E00E94890798
:101E3000E4EFF3E0A1E2B0E0B08FA78B118E128E39
:101E4000138E46E050E060E070E0448F558F668F5F
:101E5000778F10A211A212A213A220E224A316A22D
:101E600015A211A686EF93E090A787A38AE092E0DF
:101E70009183808384E192E0958B848B1682158216
:101E8000108617821286118614861386168615868A
:101E9000108A178688EE91E093838283138B028BDE
:101EA00030E1318BE6ECF3E0B48FA38F158E168E04
:101EB000178E40A351A362A373A314A215A216A266
:101EC00017A220A712A611A615A6128213821482A9
:101ED00015822CEC33E034A723A722E931E03183CB
:101EE00020832CE931E0318F208F128611861486F1
:101EF000138616861586108A1786128A118A148A06
:101F0000138A97838683178B068B88E0858B1093C3
:101F100004030093030361EC72E089ED92E00E94F8
:101F2000F810E8EAF3E0F182E08212821382148270
:101F30001582EEEAF3E0F182E082128213821482CB
:101F40001582E4EBF3E0F182E082128213821482C4
:101F50001582EAEBF3E0F182E082128213821482AE
:101F60001582E0ECF3E0F182E082128213821482A7
:101F700015820E9449096093FF02709300038093C9
:101F80000103909302030F90DF91CF911F910F9166
:101F9000FF90EF900895CF93DF938230910510F476
:101FA00082E090E0E0917404F091750420E030E06C
:101FB000C0E0D0E0309711F14081518148175907B6
:101FC000C0F04817590761F482819381209719F076
:101FD0009B838A832BC0909375048093740426C0DE
:101FE0002115310519F04217530718F49A01BE0163
:101FF000DF01EF010280F381E02DDCCF21153105F7
:1020000009F1281B390B2430310590F412968D917B
:102010009C9113976115710521F0FB0193838283D5
:1020200004C09093750480937404FD01329644C0FB
:10203000FD01E20FF31F81939193225031092D93FB
:102040003C933AC02091720430917304232B41F4E5
:1020500020910201309103013093730420937204A4
:1020600020910001309101012115310541F42DB776
:102070003EB74091040150910501241B350BE091BE
:102080007204F0917304E217F307A0F42E1B3F0BC8
:102090002817390778F0AC014E5F5F4F24173507DA
:1020A00048F04E0F5F1F5093730440937204819366
:1020B000919302C0E0E0F0E0CF01DF91CF9108956D
:1020C0000F931F93CF93DF93009709F48CC0FC010B
:1020D00032971382128200917404109175040115D5
:1020E000110581F420813181820F931F20917204A8
:1020F000309173042817390779F5F0937304E0934E
:10210000720471C0D80140E050E0AE17BF0750F430
:1021100012962D913C911397AD012115310509F1CE
:10212000D901F3CF9D01DA0133832283608171816C
:10213000860F971F8217930769F4EC012881398174
:10214000260F371F2E5F3F4F318320838A819B816B
:1021500093838283452B29F4F0937504E0937404F0
:1021600042C01396FC93EE931297ED014991599159
:102170009E01240F351FE217F30771F480819181CE
:10218000840F951F029611969C938E938281938162
:1021900013969C938E931297E0E0F0E0D80112968C
:1021A0008D919C911397009719F0F8018C01F6CF4F
:1021B0008D919C9198012E5F3F4F820F931F20912C
:1021C0007204309173042817390769F4309729F4A1
:1021D000109275041092740402C01382128210933C
:1021E000730400937204DF91CF911F910F910895B2
:1021F0000F931F93CF93DF93009731F4611571050F
:1022000019F480E090E03AC08B01EC016EE070E0E0
:1022100081E090E00E941513FC01892B91F380E886
:1022200083830115110571F01387028781E8838389
:102230008091760490917704892B21F4F0937704B0
:10224000E09376042097C9F0D187C08783818260AC
:1022500083838091780490917904892B71F4F093B1
:102260007904E093780480917A0490917B04892B1F
:1022700021F4F0937B04E0937A04CF01DF91CF91B6
:102280001F910F910895ACE0B0E0E9E4F1E10C9406
:10229000F0137C016B018A01FC0117821682838195
:1022A00081FFBDC1CE0101964C01F7019381F6017A
:1022B00093FD859193FF81916F01882309F4ABC150
:1022C000853239F493FD859193FF81916F018532B9
:1022D00029F4B70190E00E945713E7CF512C312C1D
:1022E00020E02032A0F48B3269F030F4803259F0D3
:1022F000833269F420612CC08D3239F0803339F497
:10230000216026C02260246023C0286021C027FDF0
:1023100027C030ED380F3A3078F426FF06C0FAE0D7
:102320005F9E300D1124532E13C08AE0389E300D6D
:102330001124332E20620CC08E3221F426FD6BC195
:10234000206406C08C3611F4206802C0883641F43F
:10235000F60193FD859193FF81916F018111C1CFAA
:10236000982F9F7D9554933028F40C5F1F4FFFE307
:10237000F9830DC0833631F0833771F0833509F06E
:102380005BC022C0F801808189830E5F1F4F442407
:102390004394512C540115C03801F2E06F0E711CAA
:1023A000F801A080B18026FF03C0652D70E002C057
:1023B0006FEF7FEFC5012C870E944C132C01830126
:1023C0002C852F77222E17C03801F2E06F0E711C7A
:1023D000F801A080B18026FF03C0652D70E002C027
:1023E0006FEF7FEFC5012C870E943A132C012C85DB
:1023F0002068222E830123FC1BC0832D90E0481609
:102400005906B0F4B70180E290E00E9457133A9465
:10241000F4CFF50127FC859127FE81915F01B7017B
:1024200090E00E94571331103A94F1E04F1A51088E
:102430004114510471F7E5C0843611F0893639F53D
:10244000F80127FF07C060817181828193810C5F51
:102450001F4F08C060817181072E000C880B990BFB
:102460000E5F1F4F2F76722E97FF09C090958095B3
:10247000709561957F4F8F4F9F4F2068722E2AE095
:1024800030E0A4010E948F13A82EA81844C08537FD
:1024900029F42F7EB22E2AE030E025C0F22FF97FFA
:1024A000BF2E8F36C1F018F4883579F0B4C080376C
:1024B00019F0883721F0AFC02F2F2061B22EB4FE63
:1024C0000DC08B2D8460B82E09C024FF0AC09F2F39
:1024D0009660B92E06C028E030E005C020E130E06B
:1024E00002C020E132E0F801B7FE07C060817181CF
:1024F000828193810C5F1F4F06C06081718180E0F3
:1025000090E00E5F1F4FA4010E948F13A82EA81801
:10251000FB2DFF777F2E76FE0BC0372D3E7FA51457
:1025200050F474FE0AC072FC08C0372D3E7E05C010
:10253000BA2C372D03C0BA2C01C0B52C34FF0DC006
:10254000FE01EA0DF11D8081803311F4397E09C04E
:1025500032FF06C0B394B39404C0832F867809F089
:10256000B39433FD13C030FF06C05A2CB31418F4D3
:10257000530C5B18B32CB31468F4B70180E290E0FD
:102580003C870E945713B3943C85F5CFB31410F4E5
:102590003B1801C0312C34FF12C0B70180E390E03A
:1025A0003C870E9457133C8532FF17C031FD03C0A2
:1025B00088E790E002C088E590E0B7010CC0832F67
:1025C000867859F031FF02C08BE201C080E237FD0E
:1025D0008DE2B70190E00E945713A51438F4B701BB
:1025E00080E390E00E9457135A94F7CFAA94F40125
:1025F000EA0DF11D8081B70190E00E945713A110F0
:10260000F5CF332009F451CEB70180E290E00E946B
:1026100057133A94F6CFF7018681978102C08FEF66
:102620009FEF2C96E2E10C940C140F931F93CF9321
:10263000DF93869F8001879F100D969F100D1124B8
:10264000C8010E94CB0FEC01009729F0A80160E0BF
:1026500070E00E944513CE01DF91CF911F910F9141
:10266000089591110C94ED13803219F08950855022
:10267000C8F70895FC010590615070400110D8F72B
:10268000809590958E0F9F1F0895DC0101C06D937A
:1026900041505040E0F70895FC01615070400190B6
:1026A0000110D8F7809590958E0F9F1F08950F9376
:1026B0001F93CF93DF93FB01238121FD03C08FEF95
:1026C0009FEF28C022FF16C04681578124813581A3
:1026D0004217530744F4A081B1819D012F5F3F4F02
:1026E000318320838C93268137812F5F3F4F37833F
:1026F000268310C0EB01092F182F0084F185E02DEF
:102700000995892BE1F68E819F8101969F838E83A7
:10271000812F902FDF91CF911F910F910895FA0192
:10272000AA27283051F1203181F1E8946F936E7F10
:102730006E5F7F4F8F4F9F4FAF4FB1E03ED0B4E001
:102740003CD0670F781F891F9A1FA11D680F791F42
:102750008A1F911DA11D6A0F711D811D911DA11D53
:1027600020D009F468943F912AE0269F1124301963
:10277000305D3193DEF6CF010895462F4770405DFE
:102780004193B3E00FD0C9F7F6CF462F4F70405DAD
:102790004A3318F0495D31FD4052419302D0A9F708
:1027A000EACFB4E0A6959795879577956795BA9502
:1027B000C9F700976105710508959B01AC010A2EC8
:1027C00006945795479537952795BA95C9F7620F9F
:1027D000731F841F951FA01D0895992788270895AA
:1027E0002F923F924F925F926F927F928F929F9221
:1027F000AF92BF92CF92DF92EF92FF920F931F930F
:10280000CF93DF93CDB7DEB7CA1BDB0B0FB6F894BF
:10281000DEBF0FBECDBF09942A88398848885F84FF
:102820006E847D848C849B84AA84B984C884DF8070
:10283000EE80FD800C811B81AA81B981CE0FD11D54
:102840000FB6F894DEBF0FBECDBFED01089597FB24
:10285000072E16F4009407D077FD09D00E945D146E
:1028600007FC05D03EF4909581959F4F0895709593
:1028700061957F4F0895A1E21A2EAA1BBB1BFD0193
:102880000DC0AA1FBB1FEE1FFF1FA217B307E4074F
:10289000F50720F0A21BB30BE40BF50B661F771FA7
:1028A000881F991F1A9469F7609570958095909587
:1028B0009B01AC01BD01CF010895AA1BBB1B51E1D7
:1028C00007C0AA1FBB1FA617B70710F0A61BB70BA0
:1028D000881F991F5A95A9F780959095BC01CD0145
:1028E0000895EE0FFF1F0590F491E02D0994A0E0EC
:1028F000B0E0EDE7F4E10C94F413EC01009721F45F
:10290000CB010E94CB0FB8C0FC01E60FF71F9C0162
:1029100022503109E217F30708F4ACC0D9010D9138
:102920001C91119706171707B0F00530110508F430
:102930009FC0C80104978617970708F499C00250F2
:102940001109061B170B019311936D937C93CF0113
:102950000E9460108DC05B01A01AB10A4C01800E6C
:10296000911EA0917404B091750440E050E0E12CF8
:10297000F12C109709F44AC0A815B905D1F56D904E
:102980007C901197630182E0C80ED11CCA14DB044D
:1029900080F1A3014A195B096A0182E0C80ED11CCB
:1029A0001296BC9012971396AC91B5E0CB16D10459
:1029B00040F0B282A38351834083D9016D937C930D
:1029C0000AC00E5F1F4FC301800F911FF901918351
:1029D0008083EB2DFA2FE114F10431F0D701139627
:1029E000FC93EE93129744C0F0937504E093740443
:1029F0003FC08D919C9111974817590708F4AC017D
:102A00007D0112960D90BC91A02DB3CF80917204E0
:102A10009091730488159905E1F446175707C8F497
:102A20008091000190910101009741F48DB79EB70C
:102A30004091040150910501841B950BE817F9079B
:102A4000C8F4F0937304E0937204F9017183608316
:102A50000FC0CB010E94CB0F7C01009759F0A80159
:102A6000BE010E944615CE010E946010C70104C03D
:102A7000CE0102C080E090E0CDB7DEB7EEE00C946E
:102A8000101481E090E0F8940C948715FB01DC01B0
:102A900002C001900D9241505040D8F70895FB01BB
:102AA000DC0101900D920020E1F70895FB01DC01AB
:102AB0004150504030F08D910190801919F4002060
:102AC000B9F7881B990B0895AEE0B0E0EAE6F5E1AE
:102AD0000C94FE130D891E8986E08C831A8309836A
:102AE0008FEF9FE79E838D83AE01475E5F4F6F89B7
:102AF000788DCE0101960E9443112F813885F8010F
:102B0000E20FF31F10822E96E4E00C941A1410E0EA
:102B1000CFE7D0E004C0FE010E9471142196C038B6
:082B2000D107C9F7F894FFCFBB
:102B280000007C048000000000001703AA00A50331
:102B380016036B038303FE0200000000B906AA0314
:102B480018000000000000000000E8FFE8FF000097
:102B58000000000014000000000000000000ECFF6E
:102B6800ECFF000000000000000000003D01AA008A
:102B7800D50084010601E400F800000000002009E7
:102B8800AA00A503A40320092009200900000000C9
:102B98002009AA00A503A403060000000000AE0354
:102BA800B003FAFFFAFF0000AF03B20318000000F9
:102BB8000000CF03E603E8FFE8FF0000DC03F003B2
:102BC8009201260130019C0100000000BA06AC0306
:102BD800C002BD02BA02B702B4022B0227022402C5
:102BE8000E022E02B201B001020000000000FC0338
:102BF800FE03FEFFFEFF0000FD03000400000000CE
:102C0800BC06A80300000000BB06FA03C002BD0210
:102C1800BA02B702B402A8026202490230022E02C6
:102C2800A0047F041400000000001D043404ECFF1D
:102C3800ECFF00002A043E040A023A01440114028F
:102C48000000000075050D0A007240794C404E21C5
:102C58002100526179636170576946695F44726106
:102C68006D610041542B43574A41505F4355523DD3
:102C7800222573222C22257322004F4B0041542B0E
:102C880043574D4F44453D31005749464920474F2A
:102C980054204950004641494C005354415455531F
:102CA8003A00425400485600534554530053455483
:102CB80000544C530054425A0041434B004856318B
:102CC80000535231004856320053523200415400EA
:00000001FF
