:100000000C9406010C942E010C942E010C942E01DC
:100010000C942E010C942E010C942E010C942E01A4
:100020000C942E010C942E010C942E010C942E0194
:100030000C942E010C942E010C942E010C942E0184
:100040000C9411050C942E010C9488050C946205F7
:100050000C942E010C942E010C942E010C942E0164
:100060000C942E010C942E014E414E494E49545988
:10007000494E46CDCCCC3D0AD7233C17B7D1387773
:10008000CC2B329595E6241FB14F0A000020410089
:1000900000C84200401C4620BCBE4CCA1B0E5AAED3
:1000A000C59D7400407A10F35A00A0724E180900E2
:1000B00010A5D4E80000E87648170000E40B5402CD
:1000C0000000CA9A3B000000E1F505000080969808
:1000D00000000040420F000000A086010000001058
:1000E0002700000000E8030000000064000000009A
:1000F000000A00000000000100000000002C76D87B
:1001000088DC674F0823DFC1DFAE59E1B1B796E560
:10011000E3E453C63AE651997696E8E6C28426EBC4
:10012000898C9B62ED407C6FFCEFBC9C9F40F2BAD7
:10013000A56FA5F490055A2AF75C936B6CF9676D6F
:10014000C11BFCE0E40D47FEF520E6B500D0ED90C4
:100150002E0300943577050080841E080000204E91
:100160000A000000C80C333333330F986E1283112A
:1001700041EF8D2114893BE65516CFFEE6DB18D101
:10018000844B381BF77C1D901DA4BBE424203284D3
:10019000725E228100C9F124ECA1E53D2700010235
:1001A0000304051112131415160A0B0C0D0E0F542F
:1001B000696D65206F757400000000080002010081
:1001C0000003040700000000000000000000000021
:1001D000250028002B0000000000240027002A0032
:1001E00004040404040404040202020202020303DD
:1001F00003030303010204081020408001020408E5
:1002000010200102040810206316D31811241FBE09
:10021000CFEFD8E0DEBFCDBF12E0A0E0B1E0ECE16F
:10022000F7E402C005900D92A63CB107D9F724E08F
:10023000A6ECB2E001C01D92A536B207E1F711E0CD
:10024000C5E0D1E004C02197FE010E944523C430DF
:10025000D107C9F70E946B120C9481230C94000003
:10026000CF93DF93C0910E03D0910F03E881F98102
:100270000084F185E02DCE010995892BB9F3E88141
:10028000F9810284F385E02DCE01DF91CF910994AD
:100290001F93CF93DF93182FC0910E03D0910F03BC
:1002A0008A3041F4E881F9810190F081E02D6DE020
:1002B000CE010995E881F9810190F081E02D612F4F
:1002C000CE01099521E030E0019711F420E030E003
:1002D000C901DF91CF911F910895089508950C945D
:1002E000C019089508950C94C019DC01ED91FC919A
:1002F000369720813181820F931F0C9473010C94E7
:10030000C0190F931F93CF93DF93EC01CB010881AA
:1003100019817B836A830E942B199983888320E04B
:1003200030E08C819D812817390770F4E881F981CC
:10033000E20FF31F309729F0D801A20FB31F8C9161
:1003400080832F5F3F4FEDCFC801DF91CF911F9189
:100350000F910C94C0190F931F93CF93DF93FC015F
:1003600004811581FB01C481D581AE010C171D07E5
:1003700008F4A801FB0160817181FC0180819181F9
:100380000E945023009769F481E090E0C017D107E4
:1003900040F00C171D0710F080E090E091958195DA
:1003A0009109DF91CF911F910F910895FB01208159
:1003B0003181FC0131832083FB0142815381F901AA
:1003C000369720813181FC01E20FF31F5183408376
:1003D00008950895FB0120813181FC013183208340
:1003E000FB0142815381F901369720813181FC0163
:1003F000E20FF31F5183408308950895FC0120818B
:100400003181828193812817390719F0822F0C944A
:100410006E0F0895CF93DF93EC019CB59F7D9CBD3B
:100420009CB5937F9CBD9CB59C7F9CBD9DB5916008
:100430009DBD8A810E946E0F8C899D89DF91CF912D
:100440000C94BA0F61E00C940A0260E00C940A026A
:100450008EBD00000DB407FEFDCF8EB508951F932D
:10046000CF93DF93EC010E94250281EE0E942802C7
:10047000182FCE010E942202812FDF91CF911F9170
:100480000895EF92FF921F93CF93DF9300D0CDB7E3
:10049000DEB77C014A8369830E9425026981862F29
:1004A0008F7180620E942802182F4A81842F0E9437
:1004B0002802C7010E942202812F0F900F90DF9126
:1004C000CF911F91FF90EF900895CF92DF92EF921E
:1004D000FF920F931F93CF93DF9300D01F92CDB75E
:1004E000DEB77C01142F2A835B8369830E94250277
:1004F0006981862F8F7180620E942802082FC12E89
:100500005B81D52E2A81120F1C1531F0F6018191E5
:100510006F010E942802F8CFC7010E942202802F9B
:100520000F900F900F90DF91CF911F910F91FF903F
:10053000EF90DF90CF900895EF92FF921F93CF93AB
:10054000DF931F92CDB7DEB77C0169830E9425023D
:100550006981862F8F710E9428028FEF0E942802E6
:10056000182FC7010E942202812F0F90DF91CF9197
:100570001F91FF90EF900895CF93DF93EC0160E01F
:100580000E949C0281FD0EC0482F426060E0CE01B7
:100590000E94410265E070E080E090E0DF91CF9141
:1005A0000C94C50FDF91CF910895CF93DF93EC01A9
:1005B0000E94BC0260E0CE010E949C02482F416074
:1005C00060E0CE010E94410240E767E0CE010E9458
:1005D000410261E0CE010E94FE018985882349F035
:1005E0002E85AE01475F5F4F6AE0CE010E94650233
:1005F00014C062E0CE010E949C02EDE9F1E0E491BA
:1006000021E030E001C0220FEA95EAF72095422F61
:10061000482362E0CE010E9441026DE1CE010E94BA
:100620009C0281FF05C0CE01DF91CF910C942F0277
:10063000DF91CF910895EF92FF920F931F93CF9385
:10064000DF93EC018C819D818617970710F57A0165
:100650008B018A819B818617970740F4685F7F4FE3
:100660008617970718F4CE010E9481018C819D8125
:100670008017910758F4E881F981E80FF91F309746
:1006800019F0D7012C9120830196F2CF1D830C83A2
:1006900005C06817790710F47D836C83DF91CF91D3
:1006A0001F910F91FF90EF900895FC01808191813F
:1006B0000C94C019CF93DF93EC0188E090E09B830A
:1006C0008A831D821C820E942B1999838883DF9163
:1006D000CF910895CF93DF93EC016C817D816F5FA3
:1006E0007F4F8A819B818617970718F4CE010E945D
:1006F0008101E881F9818C819D81E80FF91F1082C9
:1007000088819981DF91CF9108950895CF92DF92EA
:10071000EF92FF920F931F93FB01DC0100E010E0CA
:1007200098016A01E12CF12C0C151D052E053F05E1
:1007300038F461916D930F5F1F4F2F4F3F4FF4CFF0
:10074000840F951F1F910F91FF90EF90DF90CF9036
:1007500008958F929F92AF92BF92CF92DF92EF92C5
:10076000FF920F931F93CF93DF931F92CDB7DEB706
:100770006C015B017A014901B8010E945A03D5015D
:100780001496ED91FC911597EE15FF0510F40E945B
:100790004B231982BF016E197F098616970608F44C
:1007A000B401AE014F5F5F4FC6010E941B03F6010B
:1007B00044815581D5016D917C916E0D7F1D8081A5
:1007C00091810E9486030F90DF91CF911F910F912D
:1007D000FF90EF90DF90CF90BF90AF909F908F9061
:1007E0000895AF92BF92CF92DF92EF92FF920F9354
:1007F0001F93CF93DF931F92CDB7DEB76C017B01C0
:10080000BA010E945A03E114F104F1F0F7010190DA
:100810000020E9F731978F010E191F09F601A48016
:10082000B5801982B8016A0D7B1DAE014F5F5F4F25
:10083000C6010E941B03F60180819181A801B701C6
:100840008A0D9B1D0E9486030F90DF91CF911F910F
:100850000F91FF90EF90DF90CF90BF90AF900895F1
:10086000CF92DF92EF92FF920F931F93CF93DF937C
:100870006C017A018B01C0E0D0E0CE15DF0589F074
:10088000D8016D918D01D601ED91FC910190F0811F
:10089000E02DC6010995892B11F47E0102C0219635
:1008A000ECCFC701DF91CF911F910F91FF90EF9097
:1008B000DF90CF900895089580E090E00895FC01C6
:1008C000538D448D252F30E0842F90E0821B930BB5
:1008D000541710F0CF96089501970895FC01918D5B
:1008E000828D981761F0828DDF01A80FB11D5D9692
:1008F0008C91928D9F5F9F73928F90E008958FEF00
:100900009FEF0895FC01918D828D981731F0828DB3
:10091000E80FF11D858D90E008958FEF9FEF08950A
:100920000E944B238EE393E00E945E0921E0892B15
:1009300009F420E0822F0895EF92FF920F931F9306
:10094000CF93DF93EC0181E0888F9B8D8C8D981382
:1009500005C0E889F989808185FD24C0F62E0B8DBC
:1009600010E00F5F1F4F0F731127E02E8C8DE812E0
:100970000CC00FB607FCFACFE889F989808185FFA2
:10098000F5CFCE010E947E09F1CF8B8DFE01E80FDD
:10099000F11DE35AFF4FF0820B8FEA89FB898081BA
:1009A000806207C0EE89FF896083E889F9898081C8
:1009B0008064808381E090E0DF91CF911F910F915F
:1009C000FF90EF900895CF93DF93EC01888D8823FB
:1009D000C9F0EA89FB89808185FD05C0A889B989AC
:1009E0008C9186FD0FC00FB607FCF5CF808185FF87
:1009F000F2CFA889B9898C9185FFEDCFCE010E94F5
:100A00007E09E7CFDF91CF9108952FB7F8946091D9
:100A1000C8027091C9028091CA029091CB022FBF87
:100A200008951F920F920FB60F9211242F933F93A8
:100A30008F939F93AF93BF938091C8029091C90207
:100A4000A091CA02B091CB023091C70223E0230FDC
:100A50002D3720F40196A11DB11D05C026E8230FF6
:100A60000296A11DB11D2093C7028093C8029093E6
:100A7000C902A093CA02B093CB028091D202909196
:100A8000D302A091D402B091D5020196A11DB11D4F
:100A90008093D2029093D302A093D402B093D50254
:100AA000BF91AF919F918F913F912F910F900FBE6A
:100AB0000F901F901895DC01ED91FC910190F08151
:100AC000E02D09941F920F920FB60F9211242F93CD
:100AD0003F934F935F936F937F938F939F93AF93C6
:100AE000BF93EF93FF938EE393E00E947E09FF9103
:100AF000EF91BF91AF919F918F917F916F915F9196
:100B00004F913F912F910F900FBE0F901F9018950E
:100B10001F920F920FB60F9211242F938F939F93D2
:100B2000EF93FF93E0914E03F0914F038081E091AA
:100B30005403F091550382FD12C0908180915703B8
:100B40008F5F8F7320915803821751F0E091570304
:100B5000F0E0E25CFC4F958F8093570301C08081E9
:100B6000FF91EF919F918F912F910F900FBE0F905A
:100B70001F90189508950895CB0108957F928F9244
:100B80009F92AF92BF92CF92DF92EF92FF920F931C
:100B90001F93CF93DF93EC0149015A018B01C12CC4
:100BA000D12C7601C814D904EA04FB0484F5F801B9
:100BB00071908F018F8580FF0BC0E881F9810084DF
:100BC000F185E02D20E144E060E070E0CE01099580
:100BD000EB85FC858D859E85E817F90738F47082D2
:100BE0008B859C8501969C878B870BC0E881F9815A
:100BF000672D70E0028CF38DE02DCE0109950196F2
:100C000049F02FEFC21AD20AE20AF20ACBCFB4019E
:100C1000C50102C0B601C701DF91CF911F910F91AD
:100C2000FF90EF90DF90CF90BF90AF909F908F900C
:100C30007F900895CF93DF93EC01E881F9810288DA
:100C4000F389E02D09958F3F2FEF920731F02D8129
:100C50003E812F5F3F4F3E832D83DF91CF910895DB
:100C60008FEF9FEF089560E070E0CB01089580E082
:100C700090E00895CB010895CF93DF93EC0188892C
:100C80009989DC01ED91FC910084F185E02D0995B5
:100C9000892BA9F388899989DC01ED91FC91028463
:100CA000F385E02DDF91CF910994CF93DF93EC0191
:100CB00088899989DC01ED91FC910084F185E02D12
:100CC0000995892BA9F388899989DC01ED91FC911B
:100CD0000484F585E02DDF91CF910994AF92BF9206
:100CE000CF92DF92EF92FF920F931F93CF93DF93F8
:100CF00000D000D0CDB7DEB78C015B01C12CD12C68
:100D00007601F80180899189DC01ED91FC910284E2
:100D1000F385E02D29833A834B835C8309952981F0
:100D20003A814B815C818F3F71F0C216D306E40695
:100D3000F5064CF4D5018D935D01BFEFCB1ADB0AAC
:100D4000EB0AFB0ADECFC701B6010F900F900F90A0
:100D50000F90DF91CF911F910F91FF90EF90DF9057
:100D6000CF90BF90AF900895DC0150968D919C91EB
:100D70005197DC01ED91FC910084F185E02D0994FF
:100D800080E090E0089580E090E0089580E090E0B9
:100D9000089580E090E0089508950C94C0190C9493
:100DA000C0190C94C0190F931F93CF93DF938C013C
:100DB000EB016F3F8FEF780719F480E090E00FC0F0
:100DC0006A3031F46DE0F801808991890E945B05F9
:100DD0006C2FF801808991890E945B05CE01DF911B
:100DE000CF911F910F9108958F929F92BF92CF92B2
:100DF000DF92EF92FF920F931F93CF93DF9300D078
:100E000000D0CDB7DEB78C014B01C12CD12C7601BF
:100E1000C216D306E406F50644F5F401B1904F017D
:100E2000FAE0BF120EC06DE0F80180899189298334
:100E30003A834B835C830E945B055C814B813A81E2
:100E400029816B2DF8018089918929833A834B830D
:100E50005C830E945B05FFEFCF1ADF0AEF0AFF0AEF
:100E60005C814B813A812981D3CFCA01B9010F90AE
:100E70000F900F900F90DF91CF911F910F91FF90E6
:100E8000EF90DF90CF90BF909F908F9008952BEFC1
:100E900031E0FC013183208325E032E0358B248B67
:100EA0006BE072E00C94EA01DC01ED91FC91369765
:100EB00020813181820F931F0C944707CF93DF93DA
:100EC000EC010E944707CE01DF91CF910C94C0192D
:100ED000DC01ED91FC91369720813181820F931FC7
:100EE0000C945E0723E831E0FC01318320832DE878
:100EF00031E0318F208F63E971E00C94D601DC0181
:100F0000ED91FC91369720813181820F931F0C94D3
:100F10007207CF93DF93EC010E947207CE01DF913D
:100F2000CF910C94C019DC01ED91FC913697208192
:100F30003181820F931F0C948907DC01ED91FC91A4
:100F4000369720813181820F931F0C946E01CF93CD
:100F5000DF93EC010E946E01CE01DF91CF910C94E2
:100F6000C019DC01ED91FC91369720813181820F0F
:100F7000931F0C94A707CF93DF93EC010E94050504
:100F80006D837E838F839887DF91CF9108958091C1
:100F9000CE029091CF02892BC9F48DE090E00E949F
:100FA0002B19FC018BE191E09183808313821282E3
:100FB0001482158216821782108684E08187128639
:100FC00014861386F093CF02E093CE028091CE0276
:100FD0009091CF02089525E232E0FC0121933193F4
:100FE000CF010C945503CF93DF93EC010E94EB07E4
:100FF000CE01DF91CF910C94C0198F929F92AF9246
:10100000BF92CF92DF92EF92FF920F931F93CF93F5
:10101000DF938091CC029091CD02892B09F03CC1E5
:1010200081E490E00E942B19EC0183E191E0998327
:1010300088831A820BE211E01C830B8385E08D8389
:101040001F821E82198618861B861A861C861D869C
:101050001E861F86198A188A1B8A1A8A1C8A0E9471
:10106000130F1E8B0D8B87E08F8B198E188E1B8EA6
:101070001A8E1D8E1C8E1E8E1F8E18A219A21BA2E8
:101080001AA21DA21CA21EA20E94130F18A70FA332
:1010900086E089A71BA61AA61DA61CA61FA61EA62B
:1010A00018AA19AA1AAA1BAA1DAA1CAA1FAA1EAA14
:1010B00018AE0E94130F85E090E00E942B197C016E
:1010C000FC011082148213828CE79BE0928381835F
:1010D00085E090E00E942B196C011FEFFC0110834A
:1010E00084E190E092838183F482E38285E090E062
:1010F0000E942B19FC0183E0808388E2E82EF12C0A
:10110000F282E182D482C382FAAFE9AF85E090E057
:101110000E942B196C01FC011082148213828CEC4A
:1011200091E09283818385E090E00E942B194C012D
:10113000FC011083F282E182D482C38285E090E0D8
:101140000E942B195C01FC0110829CE3C92ED12C5A
:10115000D282C1829482838285E090E00E942B1922
:101160004C01FC011083F282E182B482A38285E00B
:1011700090E00E942B195C01FC011082D282C18296
:101180009482838285E090E00E942B194C01FC013F
:101190001083F282E182B482A38285E090E00E9413
:1011A0002B195C01FC011082D282C182948283825D
:1011B00085E090E00E942B194C01FC011083F28223
:1011C000E182B482A38285E090E00E942B195C0149
:1011D000FC011082D282C1829482838285E090E0F9
:1011E0000E942B194C01FC011083F282E182B4822F
:1011F000A38285E090E00E942B195C01FC01108223
:10120000D282C1829482838285E090E00E942B1971
:10121000FC011083F282E182B482A3829CAF8BAF87
:1012200085E090E00E942B197C01FC011082148261
:10123000138289EA9BE09283818385E090E00E949B
:101240002B19FC01108389E190E092838183F48261
:10125000E382FEAFEDAF85E090E00E942B197C01A8
:10126000FC011082148213822EEEC22E22E0D22EB6
:10127000D282C18285E090E00E942B19FC0110838C
:10128000D282C182F482E382DE01DF968D939C9349
:10129000D093CD02C093CC028091CC029091CD022C
:1012A000DF91CF911F910F91FF90EF90DF90CF9042
:1012B000BF90AF909F908F9008950895FC01918DFD
:1012C000228D892F90E0805C9F4F821B91098F7344
:1012D0009927089580E090E0892B29F00E949204DC
:1012E00081110C9400000895089508950C94C0197C
:1012F0000C94C0190C94C0190C94C019FC01848D75
:10130000DF01A80FB11DA35ABF4F2C91848D90E02F
:1013100001968F739927848FA689B7892C93A0890A
:10132000B1898C9180648C93938D848D981306C0C1
:101330000288F389E02D80818F7D80830895CF938B
:10134000DF93EC018DE192E0998388838091D6024E
:101350009091D702009739F0DC01ED91FC91028069
:10136000F381E02D09958A819B81DF91CF910C94C7
:10137000C019CF93DF93EC010E949F09CE01DF914A
:10138000CF910C94C0194F925F926F927F928F927F
:101390009F92AF92BF92CF92DF92EF92FF920F9304
:1013A0001F93CF93DF931F92CDB7DEB77C012B0144
:1013B000FC01848195816C01FFEFCF1ADF0A8C1547
:1013C0009D0508F06EC0F701228133812C153D0583
:1013D000F0F5099628173907D0F58080918093831E
:1013E000828327E0AC01249FC001259F900D11242A
:1013F0000E942B19F701918380835401612C712C79
:10140000F7018481958168167906F0F4F70120814F
:101410003181C50188199909820F931F009751F0F6
:101420008E010F5F1F4F2FEF3FEF40E050E0B501FF
:101430000E94A903C5010E945503FFEF6F1A7F0A9E
:1014400027E0A20EB11CDCCFC4010E94C019F70135
:10145000A480B58087E08A9D30018B9D700C11249B
:10146000812C912CF701AC14BD0408F040C0208100
:101470003181C401860D971D820F931F009751F093
:101480008E010F5F1F4F2FEF3FEF40E050E0B201A2
:101490000E94A903FFEFAF1ABF0A27E0820E911C3A
:1014A000E1CFC816D90628F527E0289F3001299FEB
:1014B000700C11245601812C912CF7E06F0E711CD9
:1014C000F70184819581A816B90688F4C301880DB7
:1014D000991DF70120813181820F931F0E945503CE
:1014E000FFEFAF1ABF0A27E0820E911CE9CFD58229
:1014F000C4820F90DF91CF911F910F91FF90EF90D9
:10150000DF90CF90BF90AF909F908F907F906F9023
:101510005F904F900895CF92DF92EF92FF920F93DA
:101520001F93CF93DF9300D0CDB7DEB76C01FB01E3
:10153000048115810417150710F40E944B23041B26
:10154000150B2017310708F48901FB01E080F180B9
:10155000E40EF51EBE016E5F7F4FC6010E945A0366
:101560000F3FFFEF1F0749F3F7018081181684F43E
:101570001982AE014F5F5F4FB801C6010E941B0385
:10158000F60144815581B701808191810E948603D3
:10159000C6010F900F90DF91CF911F910F91FF9097
:1015A000EF90DF90CF9008950895CF93DF9361156A
:1015B000710509F45FC0FB01C081CF3F11F461E008
:1015C00003C0C11104C060E0FC0182814FC0FC0176
:1015D000D2818D2F0E94130FED2FF0E0E854FE4FC3
:1015E000E491E33009F148F4E130C9F0E230C1F5AB
:1015F00084B5806284BDC8BD3DC0E73009F1E830E4
:1016000039F1E43069F58091800080628093800038
:101610008C2F90E090938B0080938A002BC084B530
:10162000806884BDC7BD26C080918000806880939B
:1016300080008C2F90E090938900809388001AC0DE
:101640008091B00080688093B000C093B30012C056
:101650008091B00080628093B000C093B4000AC053
:10166000C03810F460E001C061E08D2FDF91CF91B0
:101670000C946E0FDF91CF9108958F929F92AF924D
:10168000BF92CF92DF92EF92FF920F931F93CF936F
:10169000DF93FC012189223009F065C0EC010E9432
:1016A00005052D853E856901E12CF12C09851A85FA
:1016B0002B853C8546015701801A910AA20AB30A7C
:1016C000DC01CB01880D991DAA1DBB1DEF85F88992
:1016D0004181528160E070E084179507A607B70743
:1016E00008F441C01E861D860E94050569877A8719
:1016F0008B879C87EF85F8896381748161157105FB
:1017000079F48F819885019698878F832D813E810A
:101710006B817C812115310519F0821793078CF4B8
:10172000788B6F87CE01DF91CF911F910F91FF9042
:10173000EF90DF90CF90BF90AF909F908F900C94E0
:10174000D50A198A788B6F871E861D8660E08A818C
:101750000E946E0F2F8138858D819E812817390751
:1017600011F418861F82DF91CF911F910F91FF9086
:10177000EF90DF90CF90BF90AF909F908F900895A3
:10178000AF92BF92CF92DF92EF92FF920F931F938F
:10179000CF93DF931F92CDB7DEB77C016B01FB01C6
:1017A00001900020E9F731978F01061B170BFC0110
:1017B000A480B5801982B8016A0D7B1DAE014F5F10
:1017C0005F4F0E941B03F70180819181A801B60140
:1017D0008A0D9B1D0E948603C7010F90DF91CF9158
:1017E0001F910F91FF90EF90DF90CF90BF90AF903F
:1017F00008950895CF92DF92EF92FF921F93CF93B7
:10180000DF936115710571F0FB0101900020E9F78C
:101810003197AF01461B570B8EE393E00E943004D3
:10182000182F01C010E00E9405056B017C01C0E08B
:101830008EE393E00E946E048534910589F0C11116
:101840000FC00E940505AB01BC014C195D096E0972
:101850007F09C1E0483251056105710548F7E7CFBE
:1018600061E070E080E090E00E94C50FC11105C00A
:1018700081E011111FC080E01DC0CFEAD1E0FE0160
:101880006491611109C042E050E064E772E08EE3C8
:1018900093E00E943004ECCFE0913E03F0913F03CF
:1018A0000190F081E02D8EE393E009952196892B3C
:1018B00031F7E9CFDF91CF911F91FF90EF90DF904B
:1018C000CF9008957F928F929F92AF92BF92CF92C6
:1018D000DF92EF92FF920F931F93CF93DF93CDB7D9
:1018E000DEB75C01CB01142F952E822E732ECDB660
:1018F000DEB6DB011496ED91FC9115973D962DB760
:101900003EB72E1B3F0B0FB6F8943EBF0FBE2DBF48
:10191000ADB7BEB711967D010031D0F40E946A03C5
:101920009F938F937F928F929F921F9387E792E06E
:101930009F938F93FF92EF920E945E232DB73EB745
:10194000265F3F4F0FB6F8943EBF0FBE2DBF18C0A5
:101950000E946A039F938F937F928F929F921F930F
:1019600087E892E09F938F93FF92EF920E945E230D
:101970008DB79EB70A960FB6F8949EBF0FBE8DBF67
:10198000B701C5010E94FA0B0FB6F894DEBE0FBE78
:10199000CDBEDF91CF911F910F91FF90EF90DF901F
:1019A000CF90BF90AF909F908F907F9008958F922F
:1019B0009F92AF92BF92CF92DF92EF92FF920F93DE
:1019C0001F93CF93DF93CDB7DEB765970FB6F8942B
:1019D000DEBF0FBECDBF6C01FC0185809680A78065
:1019E000B0847E01FFE0EF0EF11C86E0F70111925A
:1019F0008A95E9F7870122E042E0C501B4010E941F
:101A00000B19BE01685F7F4FCE0101960E945A03F9
:101A100020E030E040E251E4C501B4010E942C21F5
:101A200087FF06C067E672E0CE0101960E94C00BF8
:101A3000B701CE0101960E94C00B69E672E0CE01AB
:101A400001960E94C00B8E010B5E1F4F2FEF3FEFE0
:101A500040E050E0BE016F5F7F4FCE0108960E94CC
:101A6000A90300E123E030E040E050E0BE01685F00
:101A70007F4FF601828193810E94620CCE0108960D
:101A80000E945503CE0101960E94550365960FB63C
:101A9000F894DEBF0FBECDBFDF91CF911F910F91A4
:101AA000FF90EF90DF90CF90BF90AF909F908F907E
:101AB0000895CF93DF938091D0029091D102892B2A
:101AC00079F482E090E00E942B19EC0183E291E02E
:101AD000998388830E94EB0ED093D102C093D002E9
:101AE0008091D0029091D102DF91CF910895CF9350
:101AF000DF93CDB7DEB72A970FB6F894DEBF0FBEDF
:101B0000CDBFFC0183859485009741F1DB01FC0189
:101B100020813181F901448155812BE031E03A8304
:101B2000298312962D913C9113973C832B83149615
:101B30002D913C9115973E832D8316962D913C91C6
:101B4000179738872F8318962D913C9119973A87CC
:101B50002987BE016F5F7F4FFA0109952A960FB65C
:101B6000F894DEBF0FBECDBFDF91CF9108958F9265
:101B70009F92AF92BF92CF92DF92EF92FF920F931C
:101B80001F93CF93DF93CDB7DEB72A970FB6F894A4
:101B9000DEBF0FBECDBF6C015B01FC010281138172
:101BA00060E0C8010E94FE01F801808991890E94CD
:101BB000BA0F6DE1C8010E949C0281FF08C0F801C4
:101BC000808991890E94BA0FC8010E942F0260E0AB
:101BD000C8010E949C02482F4E7F60E0C8010E940D
:101BE000410262E0C8010E949C02EDE9F1E0E4914B
:101BF00041E050E001C0440FEA95EAF7482B62E06B
:101C0000C8010E944102F60102811381F801978107
:101C1000E92E913110F080E1E82EF80180858111E4
:101C200003C0F92EFE1801C0F12CC8010E94250244
:101C300080EA0E9428024501EA94FFEFEF1631F096
:101C4000F40181914F010E942802F6CFFF2029F074
:101C500080E00E942802FA94F9CFC8010E94220273
:101C600061E0C8010E94FE01C8010E9425028FEFB9
:101C70000E942802F82EC8010E9422028F2D807334
:101C800099F360E0C8010E94FE0140E767E0C801E7
:101C90000E94410284FF05C0C8010E942F0210E08B
:101CA00001C011E061E070E080E090E00E94C50FAB
:101CB0008BE091E09A8389831A861986DC82CB8235
:101CC0008CE590E098878F83AD82BE82BE016F5F06
:101CD0007F4FC6010E94770DF601828193810E9499
:101CE000D502812F2A960FB6F894DEBF0FBECDBF66
:101CF000DF91CF911F910F91FF90EF90DF90CF90E8
:101D0000BF90AF909F908F900895EF92FF920F93A6
:101D10001F93CF93DF93CDB7DEB764970FB6F894D8
:101D2000DEBF0FBECDBF8C0181E493E4ABE4B0E035
:101D3000898B9A8BAB8BBC8BCE0141969F938F93F3
:101D400083E592E09F938F93CE0101967C019F9350
:101D50008F930E945E230F900F900F900F900F9023
:101D60000F90F8018285882321F0B701C8010E94F5
:101D7000B70D64960FB6F894DEBF0FBECDBFDF91EE
:101D8000CF911F910F91FF90EF9008953FB7F89476
:101D90008091D2029091D302A091D402B091D50249
:101DA00026B5A89B05C02F3F19F00196A11DB11DB6
:101DB0003FBFBA2FA92F982F8827820F911DA11DF1
:101DC000B11DBC01CD0142E0660F771F881F991F2E
:101DD0004A95D1F70895EEE3F3E0A089B18982E056
:101DE0008C93A485B5851C92A685B78580E18C93DC
:101DF000108EA489B58986E08C93A289B3898C91D1
:101E000080618C93A289B3898C9188608C93A2891C
:101E1000B3898C9180688C930288F389E02D80814E
:101E20008F7D8083089590E0FC01EC50FE4F24915B
:101E3000FC01E052FE4F8491882399F090E0880FD6
:101E4000991FFC01EA52FE4FA591B491FC01E453A5
:101E5000FE4F859194918FB7F894EC91E22BEC931F
:101E60008FBF08950F931F93CF938C0166E08EED83
:101E700092E00E949C02C82FC77D0230110531F408
:101E8000C0628BE990E0A0E0B0E00DC00130110528
:101E900029F085E590E0A0E0B0E005C0C86081E4ED
:101EA00090E0A0E0B0E08093EE029093EF02A09368
:101EB000F002B093F1024C2F66E08EED92E00E94AA
:101EC000410266E08EED92E00E949C0291E08C134C
:101ED00090E0892FCF911F910F91089590E0FC0120
:101EE000E854FE4F3491FC01EC50FE4F2491FC016C
:101EF000E052FE4FE491EE2309F43BC0332339F165
:101F0000333091F038F43130A9F0323001F584B536
:101F10008F7D12C0373091F03830A1F03430B9F4F1
:101F2000809180008F7D03C0809180008F778093A7
:101F300080000DC084B58F7784BD09C08091B0004A
:101F40008F7703C08091B0008F7D8093B000F0E068
:101F5000EE0FFF1FE453FE4FA591B4918FB7F89495
:101F6000EC91611103C020952E2301C02E2B2C93E0
:101F70008FBF08958230910538F0880F991F880F20
:101F8000991F05970197F1F708958F929F92AF924D
:101F9000BF92CF92DF92EF92FF926B017C010E9481
:101FA000C60E4B015C01C114D104E104F104F1F04F
:101FB0000E94C60EDC01CB0188199909AA09BB0948
:101FC000883E9340A105B10570F321E0C21AD10803
:101FD000E108F10888EE880E83E0981EA11CB11C70
:101FE000C114D104E104F10419F7DDCFFF90EF90A3
:101FF000DF90CF90BF90AF909F908F9008950895FD
:102000000C94C01902970C9400106F927F928F92DB
:102010009F92AF92BF92CF92DF92EF92FF920F9377
:102020001F93CF93DF93CDB7DEB7EC970FB6F8943D
:10203000DEBF0FBECDBFDC01FB01268137814281AF
:10204000538116968D919C9117974817590709F05F
:102050002AC233272A35310509F44BC12B35310506
:1020600009F021C26D0164817581CE0101967C0168
:10207000AC01C3960E94F103B701CE018D960E9478
:102080005A0388E090E099A788A71BA61AA688E3C0
:1020900090E00E942B199FA38EA3A0900904B090FA
:1020A0000A04E0910504F0910604ACA9BDA9CF0192
:1020B0008A0D9B1DE817F90709F433C131912D9161
:1020C0003217C1F34FC08CAF6BA17CA16F5F7F4F04
:1020D000AE01445C5F4FCE014F960E941B03BFEFE1
:1020E000AB1ABB0A28AD39AD8CA99DA9820F931FED
:1020F0000817190749F0D8018D918D018D3319F713
:10210000A114B10409F019C12BA13CA1211531057D
:1021100029F12150310941E050E0BE01615E7F4F5D
:10212000C7010E948B0A09A91AA96D817E81600FDF
:10213000711F188EAE01485E5F4FCE018D960E94D2
:102140001B034D815E8169817A818DA59EA5800FDB
:10215000911F0E948603C7010E945503CE014F962E
:102160000E94550368E274E0CE018D960E94AB0197
:10217000892B31F581E493E4A2E5B0E0898B9A8B59
:10218000AB8BBC8BCE0141969F938F9383E592E0FE
:102190009F938F93FF92EF920E945E230E94C70746
:1021A0000F900F900F900F900F900F90DC011A96E8
:1021B0002C91222309F47DC0B7010E94B70D79C08C
:1021C00061E274E0CE018D960E94AB01892B99F5F6
:1021D0006EA17FA18E010F5E1F4F2FEF3FEF40E0FA
:1021E00050E0C7010E94A903C7010E946A030E9430
:1021F000581A20E030E04AE754E40E94A4224B0140
:102200005C01F601028513859B01AC01D80115968E
:102210006D917D918D919C9118970E942C2188231E
:1022200009F444C0F80185829682A782B086C8016D
:102230000E94D70C3BC06AE174E0CE018D960E94EB
:10224000AB01892BB1F163E174E0CE018D960E9460
:10225000AB01892B71F16CE074E0CE018D960E9488
:10226000AB01892B31F162E574E0CE018D960E94BD
:10227000AB01892BF1F46EA17FA18E010F5E1F4F80
:102280002FEF3FEF40E050E0C7010E94A903C701D4
:102290000E946A030E94581A0E941623D6011A96B9
:1022A000ED91FC911B97858586136587C7010E9478
:1022B0005503E12CF12C00E010E02AA53BA58EA1EE
:1022C0009FA10217130750F48E0D9F1D0E94550306
:1022D0000F5F1F4FB7E0EB0EF11CEFCF0E94C0194C
:1022E000CE018D960E945503CE01C4960E945503DF
:1022F000DAC00480F581E02D808191E09827149662
:10230000ED91FC911597828184FB222720F92917F2
:1023100009F4C9C0992311F0806101C08F7E8283C6
:10232000C2C0A70166E772E0CE014F960E94F1039A
:102330000CA91DA90E5F1F4FD5CEEFEFAE1ABE0A36
:1023400021503109A501BE016C5C7F4FCE0148963A
:102350000E948B0AAE01455C5F4F66E071E0CE01E2
:1023600041960E94F1032D893E898C8D9D8D8217A7
:10237000930718F40FEF1FEF20C001964C01821A4B
:10238000930A00E010E008151905A1F32D893E8994
:10239000A801BE01685E7F4FC7010E948B0AB7018A
:1023A000CE0141960E94AB013C01C7010E9455033A
:1023B000672819F00F5F1F4FE6CFCE0141960E94AC
:1023C00055030F3F1F4F09F456C08C8D9D8DE88D2E
:1023D000F98D00E010E00817190749F021912C321F
:1023E00019F4A12CB12C15C00F5F1F4FF4CF0FEFC4
:1023F0001FEFF7CF0F5F1F4F0217130758F5FC01B0
:10240000E00FF11F60816C32A9F70F3F8FEF1807C3
:1024100009F10F3F9FEF190709F440C098012A19ED
:102420003B09A501BE01685E7F4FC7010E948B0A70
:10243000B701CE0186960E94C309C7010E945503C9
:10244000A8014F5F5F4F5A012C8D3D8D888D998D6E
:102450008A01D2CFBE01685E7F4FC7010E948B0AFE
:10246000B701CE0186960E94C309C7010E94550399
:102470000FEF1FEFCECF28AD39AD21503109A501A7
:10248000BE016C5C7F4FC7010E948B0AB701CE0171
:1024900086960E94C309C7010E945503CE01489643
:1024A0000E94550331CEEC960FB6F894DEBF0FBEF6
:1024B000CDBFDF91CF911F910F91FF90EF90DF90F3
:1024C000CF90BF90AF909F908F907F906F90089526
:1024D00002970C940510CF93DF93CDB7DEB7E29748
:1024E0000FB6F894DEBF0FBECDBF789484B582607E
:1024F00084BD84B5816084BD85B5826085BD85B5A8
:10250000816085BD80916E00816080936E00109225
:1025100081008091810082608093810080918100A0
:102520008160809381008091800081608093800031
:102530008091B10084608093B1008091B00081608F
:102540008093B00080917A00846080937A008091BB
:102550007A00826080937A0080917A008160809313
:102560007A0080917A00806880937A001092C1008E
:1025700085E00E94130F87E00E94130F86E00E94FF
:10258000130F0E94EB0E209104033091050398E095
:10259000ECE6F2E0AE014F5F5F4F6A01DA010190B5
:1025A0000D929A95E1F7BA01C9010E94FA0B0091C8
:1025B0000803109109038EED92E0F8019383828362
:1025C0008091DE029091DF022091E0023091E102E1
:1025D0008217930711F00E94130F8091E0029091EF
:1025E000E1022091DE023091DF022817390711F055
:1025F0000E94130FFFB6F8948091C602811124C087
:10260000EAEEF1E08491EEEFF1E09491E82FF0E052
:10261000EE0FFF1FEA52FE4FA591B491EC91E92312
:1026200021F461E08AE00E946E0F8AE00E94130F9D
:102630008CB580618CBD8CB580648CBD8DE00E94B2
:10264000130F8BE00E94130F8091C6028F5F80935F
:10265000C602FFBE60E08EED92E00E94FE0161E0E6
:102660008EED92E00E940A0265E070E080E090E06A
:102670000E94C50F4CE060E08EED92E00E944102A6
:102680004FE564E08EED92E00E94410282E090E02E
:102690000E94320F882319F081E08093E40266E003
:1026A0008EED92E00E949C02F82E80E090E00E9465
:1026B000320F8EED92E00E94250280E50E942802F2
:1026C00083E70E9428028EED92E00E94220240E001
:1026D0006DE18EED92E00E94410240E06CE18EEDF2
:1026E00092E00E9441021092E60240E767E08EED20
:1026F00092E00E9441024CE465E08EED92E00E947F
:1027000041028EED92E00E94250282EE0E94280294
:102710008EED92E00E9422028EED92E00E942F0246
:102720008EED92E00E94BC0260E08EED92E00E948D
:102730009C02482F4E7F60E08EED92E00E944102A5
:102740008FEF8F0D8E3F08F086C04AEF64E08EED6C
:1027500092E00E94410240E06DE18EED92E00E9425
:10276000410240E06CE18EED92E00E944102109245
:10277000E60280E18093E502FF24F394FBA21CA211
:102780001DA21EA21FA218A619A61AA62091EC022D
:10279000AE014D5D5F4F6AE08EED92E00E946502F2
:1027A0002091EC02AE014D5D5F4F60E18EED92E055
:1027B0000E9465024091E50261E18EED92E00E9487
:1027C000410282E08B8F1C8E1D8E1E8E1F8E18A2E2
:1027D00019A21AA2EAEAF1E064912091EC02AE019A
:1027E000455E5F4F8EED92E00E946502E4EAF1E003
:1027F00064914091E5028EED92E00E94410262E018
:102800008EED92E00E949C02EEE9F1E0E49141E05D
:1028100050E001C0440FEA95EAF7482B62E08EEDE4
:1028200092E00E94410266E08EED92E00E949C02DE
:10283000887F482F436066E08EED92E00E9441025F
:1028400080E090E00E94320F8EED92E00E94D5026F
:10285000F801F28602C0F8011286C8010E94BB0787
:102860008091080390910903FC0111860E94BB0727
:10287000E091FC02F091FD02309721F088EF92E0A8
:10288000948783870091FA021091FB0201151105CC
:10289000F1F1F801828182FD3AC08460828378017F
:1028A000F3E0EF0EF11CF801148A86819781938B77
:1028B000828B118A108A60E085810E946E0FF80178
:1028C00021AD32AD868197818217930721F037833E
:1028D0002683338B228BF80186819781892BB9F06F
:1028E00094899230A1F0911104C0118A108A138644
:1028F00012860E940505F801648775878687978789
:1029000082E0848B62897389C7010E94D50AE090B6
:102910000003F0900103AE014F5E5F4F69E572E086
:10292000C6010E94F10308E020E030E040E050E002
:10293000B601F701828193810E94620CC6010E9458
:102940005503AE014F5E5F4F6DE572E0C6010E9418
:10295000F10320E030E041E050E0B601F701828170
:1029600093810E94620CC6010E945503AE014F5E26
:102970005F4F61E672E0C6010E94F10320E030E0A3
:1029800042E050E0B601F701828193810E94620C1F
:10299000C6010E945503AE014F5E5F4F64E672E0D0
:1029A000C6010E94F10320E030E043E050E0B601B0
:1029B000F701828193810E94620CC6010E94550337
:1029C000C7010E94D70CF701418452846384748448
:1029D0004E01FBE28F0E911C86E0F40111928A9564
:1029E000E9F7840122E042E0C301B2010E940B1921
:1029F000B601CE0141960E945A0320E030E040E249
:102A000051E4C301B2010E942C2187FF06C067E692
:102A100072E0CE0141960E94C00BB401CE014196F6
:102A20000E94C00B69E672E0CE0141960E94C00B85
:102A30001E01F1E32F0E311C81012FEF3FEF40E02B
:102A400050E0BE016F5E7F4FC6010E94A90300E106
:102A500023E030E042E050E0B601F701828193814B
:102A60000E94620CC6010E945503CE0141960E944D
:102A7000550361E085E00E946E0F61E087E00E94EF
:102A80006E0F61E086E00E946E0F6AEF70E080E0FA
:102A900090E00E94C50F60E085E00E946E0F60E04C
:102AA00087E00E946E0F60E086E00E946E0F0BE0F0
:102AB00011E00E9405054090DA025090DB02609020
:102AC000DC027090DD02DC01CB0184199509A609B6
:102AD000B709803D9740A105B10554F00E94050556
:102AE0006093DA027093DB028093DC029093DD0244
:102AF000E0900803F0900903F7018285882309F428
:102B0000A1C067E1828193810E949C0280FFADC0D9
:102B100038C0C5010E94220240E767E0C5010E945B
:102B20004102C7010E94BB0724E0F701218784818D
:102B3000811115C031E0348339AB1A8B098B1A8EA1
:102B4000198EFC8AEB8A4AE550E0588F4F8B3E8AFB
:102B50002D8ABE016F5E7F4FC7010E94770D1A8BD1
:102B6000098B1A8E198EFC8AEB8A8BE590E0988F80
:102B70008F8BDE8ACD8ABE016F5E7F4FC7010E94B8
:102B8000770D0E940505F7014580568067807084A7
:102B90002285222309F456C09B01AC012419350972
:102BA0004609570929013A018185811102C060E077
:102BB00011C0813039F4253F31404105510590F174
:102BC00061E008C0823051F4253F31404105510594
:102BD00048F162E0C7010E94850E1DC0833011F5E7
:102BE000253F314041055105E8F0F70184818823F4
:102BF00091F014821BA61A8309831A861986FC8217
:102C0000EB822AE530E038872F839E828D82B601E1
:102C1000C7010E94770DC7010E94BB07F70181859C
:102C20008F5F8187F7018185843061F4F1E14F1670
:102C3000F7E25F066104710428F0F7011186C7010D
:102C40000E94BB07E0900C03F0900D03C7010396B0
:102C50000E943D0BC70145960E943D0BC701879618
:102C60000E943D0B0E946A0924CFF701A280B38025
:102C7000F5018781803128F120E1F50190859111DE
:102C800003C0582E521A01C0512CC5012AAB0E9414
:102C9000250281E60E94280236012AA9215040F02F
:102CA0008FEF2AAB0E942802F30181933F01F5CFF9
:102CB000752C772009F42DCF8FEF0E9428027A948B
:102CC000F8CF282FDACFCF92DF92EF92FF920F93B7
:102CD0001F93CF93DF931F92CDB7DEB70EE313E0C0
:102CE000109241031092400388EE93E0A0E0B0E020
:102CF0008093420390934303A0934403B09345030E
:102D00008BE591E090933F0380933E0385EC90E048
:102D100090934B0380934A0384EC90E090934D038F
:102D200080934C0380EC90E090934F0380934E038C
:102D300081EC90E0909351038093500382EC90E0FB
:102D4000909353038093520386EC90E09093550345
:102D50008093540310925703109258031092590312
:102D600010925A03AE014F5F5F4F67E972E082E550
:102D700094E00E94F103AE014F5F5F4F6AE972E099
:102D80008BE494E00E94F103AE014F5F5F4F6DE969
:102D900072E084E494E00E94F103AE014F5F5F4F64
:102DA00062EA72E08DE394E00E94F103AE014F5FAE
:102DB0005F4F66EA72E086E394E00E94F103AE01A1
:102DC0004F5F5F4F6AEA72E08FE294E00E94F10386
:102DD000AE014F5F5F4F6EEA72E088E294E00E94BE
:102DE000F103AE014F5F5F4F62EB72E081E294E06E
:102DF0000E94F103AE014F5F5F4F66EB72E08AE124
:102E000094E00E94F103AE014F5F5F4F6AEB72E006
:102E100083E194E00E94F103AE014F5F5F4F6EEBE0
:102E200072E08CE094E00E94F103AE014F5F5F4FCF
:102E300062EC72E085E094E00E94F103E1E2F0E0F0
:102E4000F093F303E093F2031092F4031092F5036E
:102E50001092F60346E050E060E070E04093F70324
:102E60005093F8036093F9037093FA031092FB03F5
:102E70001092FC031092FD031092FE0320E22093B7
:102E8000FF031092010410920004109204048DEDCF
:102E900093E090930304809302048BEF91E090936E
:102EA000DC038093DB0385E092E09093F003809352
:102EB000EF031092E1031092E0031092E3031092EB
:102EC000E2031092E5031092E4031092E7031092DC
:102ED000E6031092E9031092E8031092EB031092BC
:102EE000EA0389ED91E09093DE038093DD03109374
:102EF000EE030093ED0330E13093EC03F0932C03E9
:102F0000E0932B0310922D0310922E0310922F03A7
:102F10004093300350933103609332037093330333
:102F20001092340310923503109236031092370337
:102F30002093380310923A031092390310923D0304
:102F4000109212031092130310921403109215039F
:102F500026E133E030933C0320933B0323E831E048
:102F600030931103209310032DE831E030932903AF
:102F70002093280310921A031092190310921C0335
:102F800010921B0310921E0310921D031092200337
:102F900010921F0310922203109221031092240317
:102FA0001092230390931703809316031093270323
:102FB0000093260388E08093250310930F0300936A
:102FC0000E0360E371E088E491E00E945C1A0E94C5
:102FD000FD0790930D0380930C038091D80290918C
:102FE000D902892BA1F489E090E00E942B198C0171
:102FF000FC0185E292E081939193BE016F5F7F4F68
:10300000CF010E945A030093D8021093D9028091F5
:10301000D8029091D90290930B0380930A030E94E7
:10302000C70790930903809308038091D60290917B
:10303000D702892BD9F489E090E00E942B198C01EA
:103040008DE192E0F8019183808388E090E09583A0
:1030500084831782168280E190E00E942B19F80188
:10306000938382831093D7020093D6028091D60275
:103070009091D70290930703809306030E94590D05
:103080008C01909305038093040380E190E00E94FB
:103090002B19FC0185E1C82E82E0D82ED182C08296
:1030A0001383028311E0148315821682178210861F
:1030B0001186128613861486158616861786F09357
:1030C0000303E093020381E492E09093F70280937C
:1030D000F6028DE492E09093F9028093F8020E9448
:1030E000FD079093FB028093FA020E94C70790931A
:1030F000FD028093FC020E94590D7C019093FF0217
:103100008093FE0280E190E00E942B19FC01D182A5
:10311000C082F382E282148315821682178210869F
:103120001186128613861486158616861786909346
:1031300001038093000389E090E09093DF02809385
:10314000DE028AE090E09093E1028093E002109228
:10315000E40280E28093E5021092E60285E080932B
:10316000EC0285E090E0A0E0B0E08093F202909362
:10317000F302A093F402B093F5021092E7020E94CA
:1031800005056093DA027093DB028093DC02909372
:10319000DD020F90DF91CF911F910F91FF90EF9083
:1031A000DF90CF90089580E193E00E9472078BED4D
:1031B00093E00E94470785E094E00E9455038CE06D
:1031C00094E00E94550383E194E00E9455038AE154
:1031D00094E00E94550381E294E00E94550388E246
:1031E00094E00E9455038FE294E00E94550386E329
:1031F00094E00E9455038DE394E00E94550384E41B
:1032000094E00E9455038BE494E00E94550382E50C
:1032100094E00C945503EF920F931F93CF93DF9399
:10322000E80147FD02C034E001C034E1E42F440F5F
:10323000FF0BF7FF03C0F195E195F109E32E022F93
:103240002E2FAE010E94951CCE01DF91CF911F91D0
:103250000F91EF900895CF93DF938230910510F492
:1032600082E090E0E0915B04F0915C0420E030E0CB
:10327000C0E0D0E0309711F14081518148175907E3
:10328000C0F04817590761F482819381209719F0A3
:103290009B838A832BC090935C0480935B0426C03D
:1032A0002115310519F04217530718F49A01BE0190
:1032B000DF01EF010280F381E02DDCCF2115310524
:1032C00009F1281B390B2430310590F412968D91A9
:1032D0009C9113976115710521F0FB019383828303
:1032E00004C090935C0480935B04FD01329644C05B
:1032F000FD01E20FF31F81939193225031092D9329
:103300003C933AC02091590430915A04232B41F444
:10331000209102013091030130935A042093590403
:1033200020910001309101012115310541F42DB7A3
:103330003EB74091040150910501241B350BE091EB
:103340005904F0915A04E217F307A0F42E1B3F0B27
:103350002817390778F0AC014E5F5F4F2417350707
:1033600048F04E0F5F1F50935A04409359048193C5
:10337000919302C0E0E0F0E0CF01DF91CF9108959A
:103380000F931F93CF93DF93009709F48CC0FC0138
:1033900032971382128200915B0410915C04011534
:1033A000110581F420813181820F931F20915904EE
:1033B00030915A042817390779F5F0935A04E093AD
:1033C000590471C0D80140E050E0AE17BF0750F477
:1033D00012962D913C911397AD012115310509F1FC
:1033E000D901F3CF9D01DA0133832283608171819A
:1033F000860F971F8217930769F4EC0128813981A2
:10340000260F371F2E5F3F4F318320838A819B8198
:1034100093838283452B29F4F0935C04E0935B044F
:1034200042C01396FC93EE931297ED014991599186
:103430009E01240F351FE217F30771F480819181FB
:10344000840F951F029611969C938E93828193818F
:1034500013969C938E931297E0E0F0E0D8011296B9
:103460008D919C911397009719F0F8018C01F6CF7C
:103470008D919C9198012E5F3F4F820F931F209159
:10348000590430915A042817390769F4309729F400
:1034900010925C0410925B0402C01382128210939B
:1034A0005A0400935904DF91CF911F910F91089511
:1034B000662777270C94231E0F931F93CF93DF93D8
:1034C000009731F46115710519F480E090E03AC07D
:1034D0008B01EC016EE070E081E090E00E94791CCD
:1034E000FC01892B91F380E883830115110571F0AC
:1034F0001387028781E8838380915D0490915E0445
:10350000892B21F4F0935E04E0935D042097C9F0C9
:10351000D187C08783818260838380915F0490918B
:103520006004892B71F4F0936004E0935F04809150
:10353000610490916204892B21F4F0936204E0937A
:103540006104CF01DF91CF911F910F910895ACE0FD
:10355000B0E0EDEAFAE10C945E227C016B018A0195
:10356000FC0117821682838181FFBDC1CE010196C5
:103570004C01F7019381F60193FD859193FF8191B1
:103580006F01882309F4ABC1853239F493FD85912D
:1035900093FF81916F01853229F4B70190E00E9479
:1035A0009620E7CF512C312C20E02032A0F48B3232
:1035B00069F030F4803259F0833269F420612CC014
:1035C0008D3239F0803339F4216026C022602460C6
:1035D00023C0286021C027FD27C030ED380F3A30C6
:1035E00078F426FF06C0FAE05F9E300D1124532EBA
:1035F00013C08AE0389E300D1124332E20620CC097
:103600008E3221F426FD6BC1206406C08C3611F485
:10361000206802C0883641F4F60193FD859193FF3E
:1036200081916F018111C1CF982F9F7D9554933067
:1036300028F40C5F1F4FFFE3F9830DC0833631F090
:10364000833771F0833509F05BC022C0F8018081B7
:1036500089830E5F1F4F44244394512C540115C09D
:103660003801F2E06F0E711CF801A080B18026FFD6
:1036700003C0652D70E002C06FEF7FEFC5012C879E
:103680000E948B202C0183012C852F77222E17C0BE
:103690003801F2E06F0E711CF801A080B18026FFA6
:1036A00003C0652D70E002C06FEF7FEFC5012C876E
:1036B0000E9479202C012C852068222E830123FC76
:1036C0001BC0832D90E048165906B0F4B70180E284
:1036D00090E00E9496203A94F4CFF50127FC859162
:1036E00027FE81915F01B70190E00E949620311082
:1036F0003A94F1E04F1A51084114510471F7E5C0B2
:10370000843611F0893639F5F80127FF07C060814A
:103710007181828193810C5F1F4F08C0608171812C
:10372000072E000C880B990B0E5F1F4F2F76722E01
:1037300097FF09C090958095709561957F4F8F4F49
:103740009F4F2068722E2AE030E0A4010E94CE2014
:10375000A82EA81844C0853729F42F7EB22E2AE05F
:1037600030E025C0F22FF97FBF2E8F36C1F018F45C
:10377000883579F0B4C0803719F0883721F0AFC0B0
:103780002F2F2061B22EB4FE0DC08B2D8460B82E79
:1037900009C024FF0AC09F2F9660B92E06C028E0FA
:1037A00030E005C020E130E002C020E132E0F80165
:1037B000B7FE07C060817181828193810C5F1F4FCA
:1037C00006C06081718180E090E00E5F1F4FA40110
:1037D0000E94CE20A82EA818FB2DFF777F2E76FE04
:1037E0000BC0372D3E7FA51450F474FE0AC072FC46
:1037F00008C0372D3E7E05C0BA2C372D03C0BA2C29
:1038000001C0B52C34FF0DC0FE01EA0DF11D808111
:10381000803311F4397E09C032FF06C0B394B394EB
:1038200004C0832F867809F0B39433FD13C030FFB2
:1038300006C05A2CB31418F4530C5B18B32CB314F1
:1038400068F4B70180E290E03C870E949620B39430
:103850003C85F5CFB31410F43B1801C0312C34FF74
:1038600012C0B70180E390E03C870E9496203C851F
:1038700032FF17C031FD03C088E790E002C088E541
:1038800090E0B7010CC0832F867859F031FF02C059
:103890008BE201C080E237FD8DE2B70190E00E942B
:1038A0009620A51438F4B70180E390E00E9496209A
:1038B0005A94F7CFAA94F401EA0DF11D8081B70163
:1038C00090E00E949620A110F5CF332009F451CE4C
:1038D000B70180E290E00E9496203A94F6CFF7017B
:1038E0008681978102C08FEF9FEF2C96E2E10C94C6
:1038F0007A220F931F93CF93DF93869F8001879F38
:10390000100D969F100D1124C8010E942B19EC0177
:10391000009729F0A80160E070E00E948420CE01A9
:10392000DF91CF911F910F9108954F925F926F9207
:103930007F929F92AF92BF92CF92DF92EF92FF92CF
:103940000F931F93CF93DF93CDB7DEB729970FB6B1
:10395000F894DEBF0FBECDBF6A01122FB02E2BE34D
:10396000201720F0FF24F394F00E02C0BCE3FB2EDE
:103970000F2D27E0AE014F5F5F4F0E94801FAC010B
:103980008981982F9970913031F0E1FC06C0E0FEFA
:1039900006C090E205C09DE203C09BE201C090E03A
:1039A000EE2DE07183FF3CC0911102C083E001C0A5
:1039B00084E0811718F4212F281B01C020E0E111B9
:1039C0000BC0F601822F30E2882319F03193815029
:1039D000FBCFC20ED11C20E0992329F0D6019C9385
:1039E000F60131966F01C6010396E2FE0AC03EE47D
:1039F000D6013C9341E411964C93119712963C9357
:103A000006C03EE6F601308341E641833283FC0185
:103A1000322F40E2332309F442C041933150FACFB0
:103A200082FF44C0911102C083E001C084E081178D
:103A300018F4212F281B01C020E0E1110BC0F60172
:103A4000822F30E2882319F031938150FBCFC20ED0
:103A5000D11C20E0992329F0D6019C93F6013196E0
:103A60006F01C6010396E2FE0BC039E4D6013C9318
:103A70003EE411963C93119736E412963C9307C0AE
:103A800039E6F60130833EE6318336E63283FC01C7
:103A9000322F40E2332319F041933150FBCFFC0128
:103AA000E20FF11D10828EEF9FEFB7C0F1E0911190
:103AB00001C0F0E06F2F70E01416150624F49A018F
:103AC0002F5F3F4F02C021E030E0260F371FBB20A1
:103AD00029F06B2D70E06F5F7F4F02C060E070E0F7
:103AE000260F371F612F70E0261737071CF4121BB3
:103AF000212F01C020E03E2D387159F4D601322F1C
:103B000060E2332319F06D933150FBCFC20ED11C0C
:103B100020E0FF2331F0D6019C93B6016F5F7F4F09
:103B20006B01E1110BC0F601922F30E3992319F0DC
:103B300031939150FBCFC20ED11C20E09F2D940FEA
:103B40003A81782F7071A72E84FF03C0313309F4B6
:103B50009150191624F4993018F098E001C091E0C2
:103B6000E42F852F57FF02C0E0E080E06E2F782F12
:103B7000E0E0F0E0AEE29A2E3A01691A71082A01FB
:103B8000461A570A0B2D10E01195019511096F3F48
:103B90008FEF780729F4D6019C92C60101966C013B
:103BA0004617570784F0661677066CF47F01E40C1D
:103BB000F51CA1E0B0E0AC0FBD1FEA0EFB1ED70163
:103BC0001196BC9002C090E3B92E615071093196F4
:103BD000C60101967C016017710724F0D601BC92E2
:103BE0006C01D5CF6417750741F4363320F43533B3
:103BF00021F4A11002C081E3B82EF601B082F701D2
:103C0000822F90E2882319F091938150FBCFF70126
:103C1000E20FF11D108280E090E029960FB6F89433
:103C2000DEBF0FBECDBFDF91CF911F910F91FF90EF
:103C3000EF90DF90CF90BF90AF909F907F906F906C
:103C40005F904F900895A0E0B0E0E9E2FEE10C94AF
:103C50006222EC017B016115710519F0DB018D9386
:103C60009C938E010F5F1F4F7880872D90E00E94FC
:103C70005820892B11F0E801F4CFBDE27B1205C07A
:103C80000F5F1F4F7980C1E008C0EBE27E1204C0D5
:103C90008E010E5F1F4F7980C0E06801F1E0CF1AFE
:103CA000D10843E050E060E770E0C6010E94612067
:103CB000892BF1F4680122E0C20ED11C45E050E0EE
:103CC0006BE670E0C6010E946120892B21F4680137
:103CD00087E0C80ED11CE114F10419F0D701CD9290
:103CE000DC92C111FFC060E070E080E89FE703C193
:103CF00043E050E068E670E0C6010E946120892B35
:103D000051F4E114F10409F4F2C00E5F1F4FF70102
:103D100011830083ECC0680160E070E0CB0100E03B
:103D200010E0F601D0EDD70DDA3058F52C2F2260D7
:103D3000622E2C2F2870C2FF05C0211128C00F5FF2
:103D40001F4F25C0222311F001501109A5E0B0E05A
:103D50009B01AC010E9453224B015C01880C991C11
:103D6000AA1CBB1CC501B4016D0F711D811D911DE5
:103D70006839A9E97A078A07A9E19A0740F0C6607D
:103D800005C0DE3F51F4C3FD44C0C8606C2EBFEFD8
:103D9000CB1ADB0A7080C62DC4CF2D2F2F7D253185
:103DA000C1F540814D3211F4C06106C04B3221F0A3
:103DB000319621E030E006C03296D60111964C9142
:103DC00022E030E0A0EDA40FAA3018F0E21BF30BC4
:103DD00020C040E050E04038BCE05B075CF49A0152
:103DE000220F331F220F331F420F531F440F551F43
:103DF0004A0F511D3196DF0111972C91A0EDA20FB2
:103E0000AA3048F3C4FF03C0519541955109040FEE
:103E1000151FC1FF07C0E114F10421F03197D7014C
:103E2000ED93FC930E943121C370C33019F06B01F4
:103E30007C0106C06B017C01F7FAF094F7F8F0946E
:103E400020E030E0A901C701B6010E942C2188239F
:103E500009F445C017FF06C0119501951109C7E87F
:103E6000D0E002C0CFE9D0E05E01B8E1AB1AB10802
:103E70004601BE2DAF2D90E2E92EF12C0E151F0547
:103E800084F0FE012591359145915491B4018B2F19
:103E90009A2F0E9492214B01B82FA92F0E191F09AA
:103EA000EDCF2497F594E794CA15DB0539F7640143
:103EB000EB2EFA2E8E2D880F8F2D881F8F3F49F005
:103EC00020E030E0A901C701B6010E942C21811138
:103ED00006C082E290E09093640480936304C7017B
:103EE000B60109C060E070E080E89FEF04C060E0C8
:103EF00070E080EC9FE7CDB7DEB7EEE00C947E2259
:103F0000283008F027E03327DA01990F311D87FDAB
:103F1000916000966105710539F432602E5F3D9322
:103F200030E32A95E1F708959F3F30F0803871051E
:103F3000610509F03C5F3C5F3D93913008F080687B
:103F4000911DDF93CF931F930F93FF92EF92192F41
:103F5000987F9695E92F96959695E90FFF27E35060
:103F6000FF4F99273327EE24FF24A701E70105908F
:103F70000894079428F4360FE71EF81E491F511DB8
:103F8000660F771F881F991F0694A1F70590079465
:103F900028F4E70EF81E491F561FC11D770F881F12
:103FA000991F661F0694A1F70590079428F4F80E50
:103FB000491F561FC71FD11D880F991F661F771FE6
:103FC0000694A1F70590079420F4490F561FC71FC8
:103FD000D81F990F661F771F881F0694A9F7849131
:103FE0001095177041F0D695C79557954795F7945A
:103FF000E7941A95C1F7E3EAF0E0689415901591FB
:1040000035916591959105907FE27395E118F10ADC
:10401000430B560BC90BD009C0F7E10CF11E431F2F
:10402000561FC91FD01D7EF4703311F48A95E6CF58
:10403000E894015030F0080F0AF40027021708F442
:10404000202F2395022F7A3328F079E37D932A9548
:10405000E9F710C07D932A9589F6069497956795A0
:10406000379517951794E118F10A430B560BC90BB6
:10407000D00998F023957E9173957A3308F070E318
:104080007C932013B8F77E9170617D9330F0839517
:1040900071E37D9370E32A95E1F71124EF90FF908F
:1040A0000F911F91CF91DF91992787FD90950895EA
:1040B00091110C94FF21803219F089508550C8F776
:1040C0000895FB01DC014150504088F08D9181340E
:1040D0001CF08B350CF4805E659161341CF06B35FF
:1040E0000CF4605E861B611171F3990B0895881BB7
:1040F000FCCFFC010590615070400110D8F780950D
:1041000090958E0F9F1F0895DC0101C06D93415063
:104110005040E0F70895FC0161507040019001109B
:10412000D8F7809590958E0F9F1F08950F931F933A
:10413000CF93DF93FB01238121FD03C08FEF9FEF1E
:1041400028C022FF16C0468157812481358142173D
:10415000530744F4A081B1819D012F5F3F4F31830C
:1041600020838C93268137812F5F3F4F37832683AF
:1041700010C0EB01092F182F0084F185E02D09955F
:10418000892BE1F68E819F8101969F838E83812FFB
:10419000902FDF91CF911F910F910895FA01AA27D7
:1041A000283051F1203181F1E8946F936E7F6E5F7A
:1041B0007F4F8F4F9F4FAF4FB1E03ED0B4E03CD028
:1041C000670F781F891F9A1FA11D680F791F8A1F0B
:1041D000911DA11D6A0F711D811D911DA11D20D072
:1041E00009F468943F912AE0269F11243019305D2C
:1041F0003193DEF6CF010895462F4770405D41931D
:10420000B3E00FD0C9F7F6CF462F4F70405D4A3369
:1042100018F0495D31FD4052419302D0A9F7EACF31
:10422000B4E0A6959795879577956795BA95C9F760
:1042300000976105710508959B01AC010A2E069453
:104240005795479537952795BA95C9F7620F731F0C
:10425000841F951FA01D08950E946E2108F481E01F
:104260000895E89409C097FB3EF490958095709569
:1042700061957F4F8F4F9F4F9923A9F0F92F96E9B2
:10428000BB279395F695879577956795B795F11127
:10429000F8CFFAF4BB0F11F460FF1BC06F5F7F4FC4
:1042A0008F4F9F4F16C0882311F096E911C07723D6
:1042B00021F09EE8872F762F05C0662371F096E8DF
:1042C000862F70E060E02AF09A95660F771F881FAE
:1042D000DAF7880F9695879597F90895990F000852
:1042E000550FAA0BE0E8FEEF16161706E807F907C8
:1042F000C0F012161306E407F50798F0621B730B63
:10430000840B950B39F40A2661F0232B242B252BE3
:1043100021F408950A2609F4A140A6958FEF811D86
:10432000811D08950E94A5210C9419220E940B2240
:1043300038F00E94122220F0952311F00C940222F2
:104340000C94082211240C944D220E942A2270F30E
:10435000959FC1F3950F50E0551F629FF001729F2A
:10436000BB27F00DB11D639FAA27F00DB11DAA1F39
:10437000649F6627B00DA11D661F829F2227B00D86
:10438000A11D621F739FB00DA11D621F839FA00D11
:10439000611D221F749F3327A00D611D231F849F61
:1043A000600D211D822F762F6A2F11249F575040B8
:1043B0009AF0F1F088234AF0EE0FFF1FBB1F661F33
:1043C000771F881F91505040A9F79E3F510580F0FC
:1043D0000C9402220C944D225F3FE4F3983ED4F3F8
:1043E000869577956795B795F795E7959F5FC1F7A0
:1043F000FE2B880F911D9695879597F9089599271B
:104400008827089597F99F6780E870E060E0089535
:104410009FEF80EC089500240A94161617061806DC
:104420000906089500240A941216130614060506B8
:104430000895092E0394000C11F4882352F0BB0F49
:1044400040F4BF2B11F460FF04C06F5F7F4F8F4FAC
:104450009F4F089557FD9058440F551F59F05F3FE7
:1044600071F04795880F97FB991F61F09F3F79F096
:1044700087950895121613061406551FF2CF469518
:10448000F1DF08C0161617061806991FF1CF86959A
:104490007105610508940895E894BB27662777277E
:1044A000CB0197F908950E949522A59F900DB49F86
:1044B000900DA49F800D911D112408952F923F927D
:1044C0004F925F926F927F928F929F92AF92BF9224
:1044D000CF92DF92EF92FF920F931F93CF93DF93D0
:1044E000CDB7DEB7CA1BDB0B0FB6F894DEBF0FBE2D
:1044F000CDBF09942A88398848885F846E847D847A
:104500008C849B84AA84B984C884DF80EE80FD807B
:104510000C811B81AA81B981CE0FD11D0FB6F894F1
:10452000DEBF0FBECDBFED010895A29FB001B39FC6
:10453000C001A39F700D811D1124911DB29F700DAC
:10454000811D1124911D08950E94B8220C941922F6
:104550000E94122258F00E940B2240F029F45F3F83
:1045600029F00C94022251110C944D220C94082233
:104570000E942A2268F39923B1F3552391F3951BE6
:10458000550BBB27AA2762177307840738F09F5F74
:104590005F4F220F331F441FAA1FA9F335D00E2EE1
:1045A0003AF0E0E832D091505040E695001CCAF74E
:1045B0002BD0FE2F29D0660F771F881FBB1F261711
:1045C00037074807AB07B0E809F0BB0B802DBF01E8
:1045D000FF2793585F4F3AF09E3F510578F00C94B7
:1045E00002220C944D225F3FE4F3983ED4F386956B
:1045F00077956795B795F7959F5FC9F7880F911DD8
:104600009695879597F90895E1E0660F771F881FC3
:10461000BB1F621773078407BA0720F0621B730B76
:10462000840BBA0BEE1F88F7E09508950E943222A2
:1046300088F09F5798F0B92F9927B751B0F0E1F063
:10464000660F771F881F991F1AF0BA95C9F714C013
:10465000B13091F00E944C22B1E008950C944C22AC
:10466000672F782F8827B85F39F0B93FCCF386954C
:1046700077956795B395D9F73EF4909580957095A9
:1046800061957F4F8F4F9F4F0895EE0FFF1F05904D
:10469000F491E02D099481E090E0F8940C9481234A
:1046A000FB01DC014150504030F08D9101908019A8
:1046B00019F40020B9F7881B990B0895AEE0B0E01B
:1046C000E4E6F3E20C946C220D891E8986E08C836B
:1046D0001A8309838FEF9FE79E838D83AE01475E28
:1046E0005F4F6F89788DCE0101960E94A71A2F81A6
:1046F0003885F801E20FF31F10822E96E4E00C9447
:10470000882211E0C5E0D1E004C0FE010E944523EB
:0C4710002196C630D107C9F7F894FFCFFE
:10471C000000650480002C00000000D40A7609001B
:10472C00000000BB05CF0600000000BA05CD060056
:10473C0000000075097C0900000000740978091854
:10474C00000000000000000000E8FFE8FF0000008F
:10475C0000000014000000000000000000ECFFEC62
:10476C00FF000000000000000000009C0430045F0B
:10477C0004E3045E096E0482040600000000006E6F
:10478C0001A707FAFFFAFF00009D07B10718000008
:10479C0000000072078907E8FFE8FF00007F07931D
:1047AC0007830135013F018D01000000005D09D137
:1047BC0006CC06C906C606C306C006370633063045
:1047CC00061A063A06BE05BC050200000000007180
:1047DC00017301FEFFFEFF00007201750100000075
:1047EC0000FD017F0100000000E9016F01CC06C94A
:1047FC0006C606C306C006B4066E0655063C063A47
:10480C0006F406D30614000000000047075E07EC10
:10481C00FFECFF000054076807FB01490153010539
:10482C000200000000F90B7A09000000009F09B992
:10483C000900000000EB07F3070000000000000077
:10484C000090040000000000000000900400000034
:10485C0000850300106D010510FEFF0000FF0F0224
:10486C0010681241542B25730031302F0033353032
:10487C0000382F0032300020006B56004154643059
:10488C003D2829000D0A00415438313D2825642C5F
:10489C0025642C25732900415438333D2825642C7C
:1048AC0025642C2573290042540048560053455466
:1048BC00530053455400544C530054425A00414346
:1048CC004B00485631005352310048563200535277
:0648DC003200415400000F
:00000001FF
