:100000000C9444040C946C040C946C040C949F05A4
:100010000C949F050C949F050C946C040C946C0438
:100020000C946C040C946C040C946C040C946C0490
:100030000C946C040C946C040C946C040C946C0480
:100040000C94FA140C946C040C94EE090C94C809EA
:100050000C946C040C946C040C946C040C946C0460
:100060000C946C040C946C04A219D51BD51BB61906
:10007000D51BCA19D51BD51BD51BD51BC11A001AF8
:10008000631AD51BAD1AD51BD51BD51BD51BD51B8C
:10009000D51BD51A241BD51BC01BFE1CEE1DEE1D47
:1000A000021DEE1D261DEE1DEE1DEE1DEE1D6B1D2F
:1000B0003F1D531D681D6B1DEE1DEE1DEE1DEE1D3B
:1000C000EE1DCE1D7F1D931DEE1DAB1DF221F521F2
:1000D0000223F821FE21FB21012202230223022315
:1000E000042207220A220D221022022302230223C5
:1000F0000223022313221622192202231C22022386
:1001000002230223022302230223022302230223C7
:1001100002230223022302230223022302230223B7
:1001200002230223022302230223022302230223A7
:100130001F222222252228222B222E223122342263
:100140004E414E494E495459494E46CDCCCC3D0ABC
:10015000D7233C17B7D13877CC2B329595E6241F9F
:10016000B14F0A000020410000C84200401C462058
:10017000BCBE4CCA1B0E5AAEC59D7400407A10F32B
:100180005A00A0724E18090010A5D4E80000E876C5
:1001900048170000E40B54020000CA9A3B0000001C
:1001A000E1F505000080969800000040420F000035
:1001B00000A08601000000102700000000E80300F6
:1001C0000000006400000000000A000000000001C0
:1001D00000000000002C76D888DC674F0823DFC1C0
:1001E000DFAE59E1B1B796E5E3E453C63AE651997B
:1001F0007696E8E6C28426EB898C9B62ED407C6FA4
:10020000FCEFBC9C9F40F2BAA56FA5F490055A2A5A
:10021000F75C936B6CF9676DC11BFCE0E40D47FE66
:10022000F520E6B500D0ED902E030094357705005B
:1002300080841E080000204E0A000000C80C3333E2
:1002400033330F986E12831141EF8D2114893BE6F1
:100250005516CFFEE6DB18D1844B381BF77C1D907A
:100260001DA4BBE424203284725E228100C9F124E3
:10027000ECA1E53D2750415F4D41580050415F489A
:100280004947480050415F4C4F570050415F4D492E
:100290004E003136206269747300382062697473CD
:1002A0000044697361626C6564006E524632344C7E
:1002B00030312B006E524632344C30310032353002
:1002C0004B42505300324D42505300314D42505337
:1002D00000526164696F204552524F52005354419D
:1002E0005455530909203D2030782530327820526A
:1002F000585F44523D25782054585F44533D25783B
:10030000204D41585F52543D25782052585F505F30
:100310004E4F3D25782054585F46554C4C3D25782E
:100320000D0A00504120506F77657209203D20254D
:10033000530D0A008B0284027C0275024352432053
:100340004C656E67746809203D2025530D0A00A195
:10035000029A0292024D6F64656C0909203D2025C6
:10036000530D0A00B402AA02446174612052617400
:100370006509203D2025530D0A00CB02C502BD02B0
:1003800044594E50442F4645415455524500434F21
:100390004E464947090052465F5345545550005256
:1003A000465F43480900454E5F525841444452005D
:1003B000454E5F4141090052585F50575F50302D04
:1003C000360054585F41444452090052585F41443A
:1003D00044525F50322D350052585F414444525FC1
:1003E00050302D31000001020304051112131415C1
:1003F000160A0B0C0D0E0F526164696F20455252A4
:100400004F5200526164696F20426567696E004611
:100410007265652052414D203D2000535441525495
:1004200000467265652052414D203D200024204643
:100430007265652052414D203D200053656E646910
:100440006E672E2E2E002E2E2E20574149542052FC
:100450004553502054494D454F555421002D2D20D2
:1004600052656365697665643A200041542B4349BF
:100470005053454E443D0041542B43495053454E43
:10048000443D0041542B434950434C4F5345004198
:10049000542B52535400536C617665205246204DC4
:1004A0006573736167652052656365697665643A53
:1004B0002000574946492052455155455354205034
:1004C0004F53544544204552524F520057494649D4
:1004D000205245515545535420504F5354454400E4
:1004E000574946492057414954494E4720524551A2
:1004F00020524553504F4E534500574946492052CC
:100500004551554553542053454E4400574946499B
:10051000205245515545535420495320504F535470
:10052000494E47005749464920504F5354494E477A
:10053000205245414459005749464920535441529D
:100540005420504F5354494E470057494649205371
:10055000544F5020504F5354494E47005749464935
:100560002053455256455220434F4E4E4543544525
:100570004400574946492053455256455220434F5F
:100580004E4E454354494E4700574946492053452E
:100590005256455220434845434B0057494649204F
:1005A00053455256455220444953434F4E4E4543BE
:1005B000544544005749464920574C414E20434F2B
:1005C0004E4E4543544544005749464920574C41F7
:1005D0004E20434F4E4E454354494E4720464149D5
:1005E0004C005749464920574C414E20434F4E4EF0
:1005F000454354494E47005749464920574C414EC0
:1006000020434845434B005749464920574C414EEB
:1006100020444953434F4E4E4543544544005749A7
:10062000464920494E495449414C495A4544203293
:10063000005749464920494E495449414C495A4579
:1006400044005749464920494E495449414C495A6A
:10065000494E472032005749464920494E4954499E
:10066000414C495A494E47005749464920424C554A
:100670004445440057494649204F46460041542BC3
:1006800043574155544F434F4E4E3D310024204671
:100690007265652052414D203D2000000000080099
:1006A0000201000003040700000000000000000039
:1006B000000000250028002B000000000023002679
:1006C00000290004040404040404040202020202D7
:1006D0000203030303030301020408102040800106
:1006E0000204081020010204081020766F6C747355
:1006F0003D2564266C6576656C3D256426616C61DC
:10070000726D3D256400736F757263653D256426C7
:100710006368617267653D256C7526736C6F7065E3
:100720003D256400504F53542025732573204854B1
:1007300054502F312E310D0A486F73743A202573AF
:100740000D0A4163636570743A202A2F2A0D0A430B
:100750006F6E74656E742D4C656E6774683A2025F3
:10076000640D0A436F6E74656E742D547970653A2A
:10077000206170706C69636174696F6E2F782D777A
:1007800077772D666F726D2D75726C656E636F6411
:1007900065640D0A0D0A257300766F6C74733D2530
:1007A00064266C6576656C3D256426616C61726DAE
:1007B0003D256400736F757263653D25642663682B
:1007C000617267653D256C7526736C6F70653D259C
:1007D0006400504F535420257325732048545450BF
:1007E0002F312E310D0A486F73743A2025730D0A8C
:1007F0004163636570743A202A2F2A0D0A436F6E95
:1008000074656E742D4C656E6774683A2025640DAE
:100810000A436F6E74656E742D547970653A206169
:1008200070706C69636174696F6E2F782D7777775C
:100830002D666F726D2D75726C656E636F64656485
:100840000D0A0D0A2573000D0A002030782530327C
:100850007800255309203D000D0A0025303278002C
:1008600020307800255309203D0024070607EB06B9
:10087000D207B40799074154000000000024002764
:10088000002A00001F23C52611241FBECFEFD8E089
:10089000DEBFCDBF13E0A0E0B1E0E8E4F6E602C0C1
:1008A00005900D92AA3EB107D9F725E0AAEEB3E074
:1008B00001C01D92AF3CB207E1F714E0C3E4D4E0FD
:1008C00004C02197FE010E949A31C234D107C9F7B2
:1008D0000E9444150C9417330C94000020912F04AF
:1008E000309130042817390771F490912D048091CC
:1008F0002E04981741F0E0912D04F0E0E551FC4FF3
:10090000808190E008958FEF9FEF089508951F93E1
:10091000CF93DF93DC015C962D913C915D9721157F
:10092000310539F481E090E013969C938E931297F1
:100930003DC05196ED91FC91529750969C915097E5
:10094000892F80951FB75E964C915E9741FB772764
:1009500070F941FD6095F8944081772311F0492B9F
:1009600001C048234083E9012197F1F748E0508115
:1009700060FF02C0592B01C058235083E901219721
:10098000F1F76695415099F7772321F090818923FB
:10099000808303C08081982B90831FBF5C968D91CC
:1009A0009C915D970197F1F721E030E0C901DF915B
:1009B000CF911F91089520912F0430913004281772
:1009C000390771F480912E0420912D0490E0805C11
:1009D0009F4F821B910960E470E00E94643108958A
:1009E00080E090E0089520912F0430913004281782
:1009F0003907B9F490912D0480912E04981789F04D
:100A0000E0912D04F0E0E551FC4F808120912D0410
:100A100030E02F5F3F4F2F73332720932D0490E05A
:100A200008958FEF9FEF0895089580E090E0089576
:100A300008950F931F93CF93DF93EC01CB010881AF
:100A400019817B836A830E941D279983888320E014
:100A500030E08C819D812817390770F4E881F98195
:100A6000E20FF31F309729F0D801A20FB31F8C912A
:100A700080832F5F3F4FEDCFC801DF91CF911F9152
:100A80000F910C94B2270F931F93CF93DF93FC0128
:100A900004811581FB01C481D581AE010C171D07AE
:100AA00008F4A801FB0160817181FC0180819181C2
:100AB0000E949C32009769F481E090E0C017D10752
:100AC00040F00C171D0710F080E090E091958195A3
:100AD0009109DF91CF911F910F910895FC01208121
:100AE0003181828193812817390719F0822F0C9464
:100AF0006B0E0895CF93DF93EC019CB59F7D9CBD59
:100B00009CB5937F9CBD9CB59C7F9CBD9DB5916021
:100B10009DBD8A810E946B0E8C899D89DF91CF914A
:100B20000C94A91461E00C947A0560E00C947A05A9
:100B30008EBD00000DB407FEFDCF8EB508951F9247
:100B40000F920FB60F9211242F933F934F935F9301
:100B50006F937F938F939F93AF93BF93EF93FF9385
:100B6000E0912F04F0913004309709F451C0968D34
:100B7000A685B785858591FF04C09C91892329F4BA
:100B800047C09C91892309F043C0A389B4899C91F3
:100B90008589809589238C93868997890197F1F7B8
:100BA000608D718DA685B785558538E020E0CB0135
:100BB0000197F1F7822F90E095958795282F4C911A
:100BC000452309F02068315091F7868D81FD2095ED
:100BD00080912E0490E001968F73992730912D0417
:100BE000381749F0A0912E04B0E0A551BC4F2C93CA
:100BF00080932E0403C0868D8160868F828D938DB5
:100C00000197F1F7A389B4899C918589892B8C93ED
:100C1000FF91EF91BF91AF919F918F917F916F91D4
:100C20005F914F913F912F910F900FBE0F901F90AA
:100C30001895EF92FF920F931F93CF93DF93EC01E0
:100C40008C819D818617970710F57A018B018A8127
:100C50009B818617970740F4685F7F4F8617970739
:100C600018F4CE010E9419058C819D81801791078F
:100C700058F4E881F981E80FF91F309719F0D7018E
:100C80002C9120830196F2CF1D830C8305C0681739
:100C9000790710F47D836C83DF91CF911F910F91C1
:100CA000FF90EF900895FC01808191810C94B22710
:100CB000CF93DF93EC016C817D816F5F7F4F8A81E1
:100CC0009B818617970718F4CE010E941905E881C9
:100CD000F9818C819D81E80FF91F108288819981AB
:100CE000DF91CF9108950895CF92DF92EF92FF9216
:100CF0000F931F93FB01DC0100E010E098016A01F3
:100D0000E12CF12C0C151D052E053F0538F46191E1
:100D10006D930F5F1F4F2F4F3F4FF4CF840F951FE1
:100D20001F910F91FF90EF90DF90CF900895AF92B9
:100D3000BF92CF92DF92EF92FF920F931F93CF93C8
:100D4000DF931F92CDB7DEB78C016B017A01590199
:100D500088E090E0F80193838283158214820E94D8
:100D60001D27F80191838083F601848195818E157A
:100D70009F0510F40E947E321982BC016E197F0912
:100D8000A616B70608F4B501AE014F5F5F4FC80164
:100D90000E941906F80144815581F6016081718134
:100DA0006E0D7F1DF801808191810E9474060F9065
:100DB000DF91CF911F910F91FF90EF90DF90CF9037
:100DC000BF90AF900895CF92DF92EF92FF920F9372
:100DD0001F93CF93DF931F92CDB7DEB77C016B01DA
:100DE00088E090E0F70193838283158214820E9449
:100DF0001D27F70191838083C114D104B9F0F60156
:100E000001900020E9F731978F010C191D09198213
:100E1000AE014F5F5F4FB801C7010E941906A801DC
:100E2000B601F701808191810E9474060F90DF91D5
:100E3000CF911F910F91FF90EF90DF90CF90089589
:100E4000CF92DF92EF92FF920F931F93CF93DF9396
:100E50006C017A018B01C0E0D0E0CE15DF0589F08E
:100E6000D8016D918D01D601ED91FC910190F08139
:100E7000E02DC6010995892B11F47E0102C021964F
:100E8000ECCFC701DF91CF911F910F91FF90EF90B1
:100E9000DF90CF900895FC01538D448D252F30E0D5
:100EA000842F90E0821B930B541710F0CF96089577
:100EB00001970895FC01918D828D981761F0828DC4
:100EC000DF01A80FB11D5D968C91928D9F5F9F737E
:100ED000928F90E008958FEF9FEF0895FC01918D20
:100EE000828D981731F0828DE80FF11D858D90E08D
:100EF00008958FEF9FEF0895FC01918D228D892F2A
:100F000090E0805C9F4F821B91098F739927089511
:100F10008FE994E00E947C0721E0892B09F420E00E
:100F2000822F0895FC01848DDF01A80FB11DA35A03
:100F3000BF4F2C91848D90E001968F739927848FF9
:100F4000A689B7892C93A089B1898C9180648C93F0
:100F5000938D848D981306C00288F389E02D8081DB
:100F60008F7D80830895EF92FF920F931F93CF930D
:100F7000DF93EC0181E0888F9B8D8C8D981305C0E9
:100F8000E889F989808185FD24C0F62E0B8D10E05B
:100F90000F5F1F4F0F731127E02E8C8DE8120CC0CE
:100FA0000FB607FCFACFE889F989808185FFF5CF74
:100FB000CE010E949207F1CF8B8DFE01E80FF11D4B
:100FC000E35AFF4FF0820B8FEA89FB8980818062B0
:100FD00007C0EE89FF896083E889F9898081806490
:100FE000808381E090E0DF91CF911F910F91FF907E
:100FF000EF900895CF93DF93EC01888D8823C9F09B
:10100000EA89FB89808185FD05C0A889B9898C9111
:1010100086FD0FC00FB607FCF5CF808185FFF2CFAC
:10102000A889B9898C9185FFEDCFCE010E949207E6
:10103000E7CFDF91CF91089580E090E0892B29F0F0
:101040000E94880781110C94000008950895089566
:10105000CF93DF93CDB7DEB72A970FB6F894DEBFF4
:101060000FBECDBFFC0186A197A1009741F1DB0126
:10107000FC0120813181F901448155812EE331E069
:101080003A83298312962D913C9113973C832B83AD
:1010900014962D913C9115973E832D8316962D9194
:1010A0003C91179738872F8318962D913C9119976B
:1010B0003A872987BE016F5F7F4FFA0109952A960B
:1010C0000FB6F894DEBF0FBECDBFDF91CF9108956C
:1010D0000E947E320C94B2270C94B2270C94B22753
:1010E0000C94B2270C94B2270F931F93CF93DF93E6
:1010F000CDB7DEB7C956D1090FB6F894DEBF0FBE23
:10110000CDBFAE01475B5F4F8DE0E2E2F3E0DA0175
:1011100001900D928A95E1F7CE018A5A9F4F2BE0FC
:10112000EFE2F3E0DC0101900D922A95E1F79E01D8
:101130002F593F4F69E0EAE3F3E0D90101900D92A6
:101140006A95E1F75F934F933F932F939F938F930C
:1011500082E093E09F938F938E010F5F1F4F1F9349
:101160000F930E94F4320FB6F894DEBF0FBECDBFCE
:10117000C801C759DF4F0FB6F894DEBF0FBECDBF11
:10118000DF91CF911F910F910895CF93DF93FC01D1
:1011900024813581232B71F0FB01DC01CD91DC91A1
:1011A00060817181CE010E94AA32009719F08C1BD8
:1011B0009D0B02C08FEF9FEFDF91CF910895CF93EA
:1011C000DF93DC01ED91FC91EB01A881B9813097AF
:1011D00011F01097C9F4109759F0EB012C813D8163
:1011E000232B31F08C9190E091958195910914C059
:1011F000309781F0DC0114968D919C911597892B85
:1012000049F0808190E008C0BD01CF01DF91CF910E
:101210000C948C3280E090E0DF91CF910895FC0136
:10122000808191810C94B227EF92FF920F931F93CC
:10123000CF93DF93EC01198218821B821A821D82E0
:101240001C8261157105A9F17B01FB010190002051
:10125000E9F731978F01061B170BB8016F5F7F4FBE
:1012600080E090E00E94B431009759F09983888320
:101270001B830A832C813D81232B81F4FC01108286
:101280000DC088819981009711F00E94B2271982C0
:1012900018821D821C821B821A820BC01D830C8344
:1012A000B701DF91CF911F910F91FF90EF900C94B8
:1012B0009532DF91CF911F910F91FF90EF9008959C
:1012C000DC01ED91FC910190F081E02D0994EF9209
:1012D000FF920F931F93CF93DF938C017B01C0E0AC
:1012E000D0E0F701EC0FFD1F6491662361F0D80197
:1012F000ED91FC910190F081E02DC8010995892BB9
:1013000011F02196EECFCE01DF91CF911F910F9179
:10131000FF90EF9008956115710579F0FB01019040
:101320000020E9F73197AF01461B570BDC01ED9127
:10133000FC910280F381E02D099480E090E0089513
:101340000F931F93CF93DF93EC010E948B098C01C5
:101350006FE173E0CE010E948B09800F911FDF9136
:10136000CF911F910F9108950F931F93CF93DF9308
:10137000EC010E9467098C016FE173E0CE010E94CD
:101380008B09800F911FDF91CF911F910F910895CD
:101390001F920F920FB60F9211242F933F934F93EA
:1013A0005F936F937F938F939F93AF93BF93EF93CD
:1013B000FF938FE994E00E949207FF91EF91BF9114
:1013C000AF919F918F917F916F915F914F913F91DD
:1013D0002F910F900FBE0F901F9018951F920F9294
:1013E0000FB60F9211242F938F939F93EF93FF9338
:1013F000E091AF04F091B0048081E091B504F091E8
:10140000B60482FD12C090818091B8048F5F8F7303
:101410002091B904821751F0E091B804F0E0E15650
:10142000FB4F958F8093B80401C08081FF91EF91AD
:101430009F918F912F910F900FBE0F901F90189535
:101440004F925F926F927F928F929F92AF92BF92D4
:10145000CF92DF92EF92FF920F931F93CF93DF9380
:101460001F92CDB7DEB77C012B01FC0184819581F1
:101470006C01FFEFCF1ADF0A8C159D0508F06EC0D6
:10148000F701228133812C153D05F0F509962817C7
:101490003907D0F5808091809383828327E0AC0167
:1014A000249FC001259F900D11240E941D27F70144
:1014B000918380835401612C712CF7018481958183
:1014C00068167906F0F4F70120813181C501881989
:1014D0009909820F931F009751F08E010F5F1F4FE4
:1014E0002FEF3FEF40E050E0B5010E949706C501A5
:1014F0000E945306FFEF6F1A7F0A27E0A20EB11C6D
:10150000DCCFC4010E94B227F701A480B58087E038
:101510008A9D30018B9D700C1124812C912CF70138
:10152000AC14BD0408F040C020813181C401860D97
:10153000971D820F931F009751F08E010F5F1F4F71
:101540002FEF3FEF40E050E0B2010E949706FFEF1F
:10155000AF1ABF0A27E0820E911CE1CFC816D90648
:1015600028F527E0289F3001299F700C112456018F
:10157000812C912CF7E06F0E711CF701848195810D
:10158000A816B90688F4C301880D991DF7012081BA
:101590003181820F931F0E945306FFEFAF1ABF0ADB
:1015A00027E0820E911CE9CFD582C4820F90DF9193
:1015B000CF911F910F91FF90EF90DF90CF90BF9050
:1015C000AF909F908F907F906F905F904F90089515
:1015D000CF92DF92EF92FF920F931F93CF93DF93FF
:1015E0001F92CDB7DEB78C01FB01E480F580E416D5
:1015F000F50610F40E947E32E41AF50A2E153F0516
:1016000008F47901C080D180C40ED51E88E090E036
:10161000F80193838283158214820E941D27F801AA
:1016200091838083FFEFEF16FF0621F3F60180819F
:10163000181684F41982AE014F5F5F4FB701C801DD
:101640000E941906F80144815581B601808191817B
:101650000E947406C8010F90DF91CF911F910F91E6
:10166000FF90EF90DF90CF900895AF92BF92CF920E
:10167000DF92EF92FF920F931F93CF93DF931F920E
:10168000CDB7DEB77C016B01FB0101900020E9F7CB
:1016900031978F01061B170BFC01A480B5801982BE
:1016A000B8016A0D7B1DAE014F5F5F4F0E941906A6
:1016B000F70180819181A801B6018A0D9B1D0E94CE
:1016C0007406C7010F90DF91CF911F910F91FF908A
:1016D000EF90DF90CF90BF90AF9008950895089558
:1016E00080912B0490912C04892BC9F48DE090E01B
:1016F0000E941D27FC0186E391E091838083138281
:1017000012821482158216821782108684E08187E5
:10171000128614861386F0932C04E0932B04809198
:101720002B0490912C04089508950F931F93CF9349
:10173000DF93CDB7DEB72A970FB6F894DEBF0FBEA2
:10174000CDBFFC01208D261709F467C08C01608F86
:101750008EE391E09A838983FC83EB831E821D8252
:1017600070E078876F831A861986BE016F5F7F4F9E
:10177000CF010E942808F801808D8733C9F028F432
:101780008433B1F08633A1F046C08833C9F0893381
:1017900009F041C00E94EE14F801668F778F80A394
:1017A00091A363E3C8010E94950B88E893E129C0E7
:1017B0000E94EE14F801668F778F80A391A32BC04F
:1017C0000E94EE14F801668F778F80A391A3948115
:1017D000992389F08589E80FF11DE80FF11D168224
:1017E00015828F5FF801883010F4858B01C0158A4F
:1017F0009150F801948363E3C8010E94950B88EE31
:1018000093E0F80193A382A30E94EE14F801628F83
:10181000738F848F958F81E001C080E02A960FB688
:10182000F894DEBF0FBECDBFDF91CF911F910F9116
:101830000895EF92FF920F931F93CF93DF93CDB74D
:10184000DEB7C054D1090FB6F894DEBF0FBECDBFCE
:101850008C0183E493E09F938F9387E892E09F93BA
:101860008F938CE493E09F938F93CE0101967C013C
:101870009F938F930E94F432B701F8018281938184
:101880000E94A0096CE0C8010E94600C0E94EE1446
:10189000F801628F738F848F958F0FB6F894DEBF37
:1018A0000FBECDBFC05CDF4F0FB6F894DEBF0FBEDA
:1018B000CDBFDF91CF911F910F91FF90EF900895D1
:1018C000EF92FF920F931F93CF93DF93CDB7DEB7C5
:1018D0002A970FB6F894DEBF0FBECDBFFC01278953
:1018E000261709F457C08C01678B8EE391E09A8329
:1018F0008983FC83EB831E821D8270E078876F836F
:101900001A861986CE0101967C01BC01CF010E9486
:101910002808F80187898630B1F08D30C1F0843015
:10192000D1F46DE776E0828193810E94B40965E08D
:10193000C8010E94600C0E94EE14F801628F738F40
:10194000848F958F08C0C8010E94190C04C06AE0FA
:10195000C8010E94600C6DE876E08FE994E00E9477
:1019600067098091C3059091C405B701681B790B85
:101970008FE994E00E946D0D82E390E0F80193A35B
:1019800082A30E94EE14F801628F738F848F958F6B
:1019900081E001C080E02A960FB6F894DEBF0FBE4A
:1019A000CDBFDF91CF911F910F91FF90EF900895E0
:1019B000CF93DF93EC016BE00E94600C63E673E071
:1019C0008A819B810E94A0090E94EE146A8F7B8FFE
:1019D0008C8F9D8FDF91CF910895EF92FF920F939F
:1019E0001F93CF93DF93CDB7DEB7C054D1090FB6A5
:1019F000F894DEBF0FBECDBF8C0182E293E09F93CF
:101A00008F938DE693E09F938F93CE0101967C0197
:101A10009F938F930E94F432B701F80182819381E2
:101A20000E94A00966E1C8010E94600C0E94EE14A9
:101A3000F801628F738F848F958F0F900F900F90A6
:101A40000F900F900F90C05CDF4F0FB6F894DEBF81
:101A50000FBECDBFDF91CF911F910F91FF90EF90FF
:101A600008950F931F93CF938C0166E087E594E070
:101A70000E948413C82FC77D0230110531F4C06263
:101A80008BE990E0A0E0B0E00DC00130110529F035
:101A900085E590E0A0E0B0E005C0C86081E490E09A
:101AA000A0E0B0E08093670490936804A093690479
:101AB000B0936A044C2F66E087E594E00E942913F6
:101AC00066E087E594E00E94841391E08C1390E037
:101AD000892FCF911F910F9108954F925F926F922E
:101AE0007F928F929F92AF92BF92CF92DF92EF92AE
:101AF000FF920F931F93CF93DF93CDB7DEB7A197DC
:101B00000FB6F894DEBF0FBECDBF8C016B01770F0F
:101B1000EE08FF08F7FE2AC06DE20E9460095C0132
:101B200022273327A9012C193D094E095F0919A263
:101B3000CE0181967C019AE0492E512C612C712CAA
:101B4000CA01B901A30192010E947831605DF701D9
:101B500062937F01211531054105510589F7BF01C8
:101B6000C8010E948B09A80EB91E1FC0A7019601CB
:101B700019A2CE0181967C018AE0882E912CA12C9D
:101B8000B12CCA01B901A50194010E947831605DB0
:101B9000F70162937F01211531054105510589F750
:101BA000BF01C8010E948B095C016FE173E0C801AD
:101BB0000E948B098A0D9B1DA1960FB6F894DEBF7B
:101BC0000FBECDBFDF91CF911F910F91FF90EF908E
:101BD000DF90CF90BF90AF909F908F907F906F904D
:101BE0005F904F9008958F929F92AF92BF92EF9225
:101BF000FF920F931F93CF93DF9300D0CDB7DEB743
:101C0000CB01EDB6FEB6FB0124813581235F3F4F4A
:101C10006DB77EB7621B730B0FB6F8947EBF0FBE15
:101C20006DBF0DB71EB70F5F1F4F49835A830E94C8
:101C300058069F938F931F9283E08F935A815F93EF
:101C400049814F9385EB93E09F938F931F930F935D
:101C50000E94F432B8018FE994E00E948B090E943F
:101C6000EE144B015C018DB79EB70A960FB6F8943F
:101C70009EBF0FBE8DBF10E08FE994E00E945A070F
:101C80008534910581F011110EC00E94EE14DC0123
:101C9000CB0188199909AA09BB0911E08897A10508
:101CA000B10550F7E8CF61E070E080E090E00E947D
:101CB000B4140FB6F894FEBE0FBEEDBE0F900F9099
:101CC000DF91CF911F910F91FF90EF90BF90AF9058
:101CD0009F908F90089590E0FC01E556F94F349164
:101CE000FC01E952F94F2491FC01ED53F94FE491C5
:101CF000EE2309F43BC0332339F1333091F038F44B
:101D00003130A9F0323001F584B58F7D12C0373003
:101D100091F03830A1F03430B9F4809180008F7D9B
:101D200003C0809180008F77809380000DC084B5C0
:101D30008F7784BD09C08091B0008F7703C08091F8
:101D4000B0008F7D8093B000F0E0EE0FFF1FE155F3
:101D5000F94FA591B4918FB7F894EC91611103C03C
:101D600020952E2301C02E2B2C938FBF0895CB01DD
:101D700008957F928F929F92AF92BF92CF92DF92FF
:101D8000EF92FF920F931F93CF93DF93EC014901E2
:101D90005A018B01C12CD12C7601C814D904EA0454
:101DA000FB0484F5F80171908F018F8580FF0BC0D3
:101DB000E881F9810084F185E02D20E144E060E0D4
:101DC00070E0CE010995EB85FC858D859E85E81731
:101DD000F90738F470828B859C8501969C878B87E8
:101DE0000BC0E881F981672D70E0028CF38DE02D46
:101DF000CE010995019649F02FEFC21AD20AE20AE4
:101E0000F20ACBCFB401C50102C0B601C701DF9110
:101E1000CF911F910F91FF90EF90DF90CF90BF90E7
:101E2000AF909F908F907F900895CF93DF93EC01B8
:101E3000E881F9810288F389E02D09958F3F2FEF22
:101E4000920731F02D813E812F5F3F4F3E832D83DE
:101E5000DF91CF9108958FEF9FEF089560E070E0DC
:101E6000CB01089580E090E00895CB010895CF93D1
:101E7000DF93EC0188899989DC01ED91FC91008464
:101E8000F185E02D0995892BA9F388899989DC01D1
:101E9000ED91FC910284F385E02DDF91CF910994BF
:101EA000CF93DF93EC0188899989DC01ED91FC9156
:101EB0000084F185E02D0995892BA9F388899989FA
:101EC000DC01ED91FC910484F585E02DDF91CF914B
:101ED0000994AF92BF92CF92DF92EF92FF920F934D
:101EE0001F93CF93DF9300D000D0CDB7DEB78C0126
:101EF0005B01C12CD12C7601F80180899189DC012C
:101F0000ED91FC910284F385E02D29833A834B8384
:101F10005C83099529813A814B815C818F3F71F007
:101F2000C216D306E406F5064CF4D5018D935D0187
:101F3000BFEFCB1ADB0AEB0AFB0ADECFC701B60103
:101F40000F900F900F900F90DF91CF911F910F91F5
:101F5000FF90EF90DF90CF90BF90AF900895DC019D
:101F600050968D919C915197DC01ED91FC910084EC
:101F7000F185E02D099480E090E0089580E090E004
:101F8000089580E090E0089580E090E0089508953D
:101F9000CF93DF93C0916F04D0917004E881F981F1
:101FA0000084F185E02DCE010995892BB9F3E881F4
:101FB000F9810284F385E02DCE01DF91CF91099460
:101FC0001F93CF93DF93182FC0916F04D0917004AB
:101FD0008A3041F4E881F9810190F081E02D6DE0D3
:101FE000CE010995E881F9810190F081E02D612F02
:101FF000CE01099521E030E0019711F420E030E0B6
:10200000C901DF91CF911F9108950C94B2270C94D0
:10201000B2270C94B2270C94B227089508950C941B
:10202000B227DC01ED91FC91369720813181820F3E
:10203000931F0C940F10FB0120813181FC0131832F
:102040002083FB0142815381F90136972081318140
:10205000FC01E20FF31F51834083089526E931E02C
:10206000FC013183208320EA31E0318F208F66EA42
:1020700071E00C941B10DC01ED91FC9136972081EE
:102080003181820F931F0C942E10CF93DF93EC01BC
:102090000E942E10CE01DF91CF910C94B227DC016B
:1020A000ED91FC91369720813181820F931F0C9422
:1020B00045100C94B227089508950C94B227DC01C2
:1020C000ED91FC91369720813181820F931F0C9402
:1020D0005D10FB0120813181FC0131832083FB01F4
:1020E00042815381F901369720813181FC01E20F51
:1020F000F31F5183408308952EE032E0FC013183C9
:10210000208328E132E0358B248B6EE172E00C9461
:102110006910DC01ED91FC91369720813181820FAD
:10212000931F0C947C10CF93DF93EC010E947C10E2
:10213000CE01DF91CF910C94B227DC01ED91FC919F
:10214000369720813181820F931F0C9493100C9449
:10215000B227CF92DF92EF92FF920F931F93CF930C
:10216000DF93CDB7DEB7C75AD1400FB6F894DEBFC4
:102170000FBECDBF8C01E2E7F8E0659174916E016E
:1021800086E7C81A8EEFD80AC6010E944E28E0E7FB
:10219000F8E0659174917E0191EDE90EF11CC701A3
:1021A0000E944E28F80180858F9387818F938681C6
:1021B0008F9385818F9384818F9383818F93828185
:1021C0001F928F93DF92CF921F9288E38F938E019D
:1021D0000E5A1E4F1F930F930E94C4321F930F93EA
:1021E0009C0133273F932F9382E293E09F938F9339
:1021F00085EC93E09F938F938FE293E09F938F936F
:10220000FF92EF921F9280ED8F93015511401F9323
:102210000F930E94C4320FB6F894DEBF0FBECDBF3D
:10222000C801C955DE4F0FB6F894DEBF0FBECDBF53
:10223000DF91CF911F910F91FF90EF90DF90CF90A2
:102240000895CF92DF92EF92FF920F931F93CF9357
:10225000DF93CDB7DEB7C458D1400FB6F894DEBFD8
:102260000FBECDBF8C01EEE6F8E0659174916E0172
:1022700086E9C81A8EEFD80AC6010E944E28EAE6FF
:10228000F8E0659174917E0191ECE90EF11CC701B3
:102290000E944E28F80185811F928F9384811F929E
:1022A0008F9383818F9382818F93DF92CF921F923E
:1022B00088E28F938E010E5B1E4F1F930F930E9437
:1022C000C4321F930F939C0133273F932F9382E2D5
:1022D00093E09F938F9386ED93E09F938F938FE28C
:1022E00093E09F938F93FF92EF921F9280EC8F93D6
:1022F000015411401F930F930E94C4320FB6F894FB
:10230000DEBF0FBECDBFC801CC57DE4F0FB6F8946D
:10231000DEBF0FBECDBFDF91CF911F910F91FF9018
:10232000EF90DF90CF9008950F931F93CF93DF939B
:102330008C01EB016F3F8FEF780719F480E090E09C
:102340000FC06A3031F46DE0F801808991890E94F4
:1023500060096C2FF801808991890E946009CE0183
:10236000DF91CF911F910F9108958F929F92BF920D
:10237000CF92DF92EF92FF920F931F93CF93DF9351
:1023800000D000D0CDB7DEB78C014B01C12CD12CD1
:102390007601C216D306E406F50644F5F401B190C1
:1023A0004F01FAE0BF120EC06DE0F80180899189FB
:1023B00029833A834B835C830E9460095C814B8153
:1023C0003A8129816B2DF8018089918929833A838B
:1023D0004B835C830E946009FFEFCF1ADF0AEF0A8C
:1023E000FF0A5C814B813A812981D3CFCA01B901AF
:1023F0000F900F900F900F90DF91CF911F910F9141
:10240000FF90EF90DF90CF90BF909F908F900895B6
:10241000CF93DF93EC0166E778E08A819B810E948D
:10242000B4090E94EE146A8F7B8F8C8F9D8F63E0BE
:10243000CE01DF91CF910C94600C0F931F93CF933B
:10244000DF93EC018C819D89883070F4980F98306F
:1024500008F09770FE01E90FF11DE90FF11D768379
:1024600065838F5F8C8321C08B01FE01E90FF11D15
:10247000E90FF11D8581968116821582009739F04A
:10248000DC01ED91FC910280F381E02D09958D89AD
:10249000FE01E80FF11DE80FF11D168305838F5F24
:1024A000883010F48D8B01C01D8A81E0DF91CF91BF
:1024B0001F910F910895089508950895089508951E
:1024C00008952F923F924F925F926F927F928F92D8
:1024D0009F92AF92BF92CF92DF92EF92FF920F93B3
:1024E0001F93CF93DF9300D01F92CDB7DEB73C018F
:1024F000D42E2DB63EB67F936F9384E698E09F93DB
:102500008F932B830E94A0282B812D0D2A830F905F
:102510000F900F900F9080E6482E88E0582E9BE594
:10252000A92E98E0B92EFA81DF1609F450C08DB6B5
:102530009EB6F3012685022F10E08DB79EB7801B53
:10254000910B0FB6F8949EBF0FBE8DBFEDB7FEB7CF
:1025500031967F01F1E0FD0DF983C3012B830E94C9
:1025600095058D2D8F710E94980567012B812E0D89
:102570002C1549F08FEF2B830E949805F60181936B
:102580006F012B81F5CFC3010E9492055F924F929C
:102590000E94A0280E0D1F1D0F900F9001501109D1
:1025A0000E151F0568F0F80180811F928F93BF926E
:1025B000AF920E94A0280F900F900F900F90EECF37
:1025C0000FB6F8949EBE0FBE8DBED980ACCF88E505
:1025D00098E09F938F930E94A0280F900F900FB6C2
:1025E000F8943EBE0FBE2DBE0F900F900F90DF915E
:1025F000CF911F910F91FF90EF90DF90CF90BF9000
:10260000AF909F908F907F906F905F904F903F9092
:102610002F900895EF92FF921F93CF93DF931F9215
:10262000CDB7DEB77C0169830E9495056981862F4D
:102630000E949805182FC7010E949205812F0F90C4
:10264000DF91CF911F91FF90EF90089561EE0C9470
:102650000A13EF92FF921F93CF93DF9300D0CDB771
:10266000DEB77C014A8369830E9495056981862FC4
:102670008F7180620E949805182F4A81842F0E94D2
:102680009805C7010E949205812F0F900F90DF914E
:10269000CF911F91FF90EF900895CF92DF92EF922C
:1026A000FF920F931F93CF93DF9300D01F92CDB76C
:1026B000DEB77C01142F2A835B8369830E94950512
:1026C0006981862F8F7180620E949805082FC12E24
:1026D0005B81D52E2A81120F1C1531F0F6018191F4
:1026E0006F010E949805F8CFC7010E949205802FC4
:1026F0000F900F900F90DF91CF911F910F91FF904E
:10270000EF90DF90CF900895EF92FF921F93CF93B9
:10271000DF931F92CDB7DEB77C0169830E949505D8
:102720006981862F8F710E9498058FEF0E9498050E
:10273000182FC7010E949205812F0F90DF91CF9132
:102740001F91FF90EF900895CF93DF93EC0160E02D
:102750000E94841381FD0EC0482F426060E0CE01CC
:102760000E94291365E070E080E090E0DF91CF9156
:102770000C94B414DF91CF910895CF93DF93EC01C3
:102780000E94A41360E0CE010E948413482F416090
:1027900060E0CE010E94291340E767E0CE010E946D
:1027A000291361E0CE010E946E058985882349F0D6
:1027B0002E85AE01475F5F4F6AE0CE010E944D1348
:1027C00014C062E0CE010E948413E5EEF3E0E491D0
:1027D00021E030E001C0220FEA95EAF72095422F70
:1027E000482362E0CE010E9429136DE1CE010E94D0
:1027F000841381FF05C0CE01DF91CF910C94261385
:10280000DF91CF910895CF92DF92EF92FF920F93D5
:102810001F93CF93DF931F92CDB7DEB77C01C22EFB
:102820007F936F9322E538E03F932F9349830E9473
:10283000A0284981C40E0F900F900F900F900AE4CA
:1028400018E04C1599F0DD24D394D40E642FC70101
:102850000E9484131F928F931F930F930E94A028AE
:102860000F900F900F900F904D2DEBCF87E498E0D5
:102870009F938F930E94A0280F900F900F90DF914D
:10288000CF911F910F91FF90EF90DF90CF9008951F
:102890003FB7F8948091BF059091C005A091C10504
:1028A000B091C20526B5A89B05C02F3F19F001962F
:1028B000A11DB11D3FBFBA2FA92F982F8827820FC6
:1028C000911DA11DB11DBC01CD0142E0660F771F16
:1028D000881F991F4A95D1F70895CF93DF9390E011
:1028E000FC01E952F94F2491FC01ED53F94F849119
:1028F000882361F190E0880F991FFC01E758F74F9A
:10290000C591D491FC01E155F94FA591B4916111A4
:1029100009C09FB7F8948881209582238883EC9121
:102920002E230BC0623061F49FB7F8943881822F58
:10293000809583238883EC912E2B2C939FBF06C018
:102940008FB7F894E8812E2B28838FBFDF91CF912A
:1029500008958230910538F0880F991F880F991FCC
:1029600005970197F1F708958F929F92AF92BF92CA
:10297000CF92DF92EF92FF926B017C010E9448148C
:102980004B015C01C114D104E104F104F1F00E9497
:102990004814DC01CB0188199909AA09BB09883EB2
:1029A0009340A105B10570F321E0C21AD108E108F6
:1029B000F10888EE880E83E0981EA11CB11CC1149A
:1029C000D104E104F10419F7DDCFFF90EF90DF901F
:1029D000CF90BF90AF909F908F9008952FB7F894AD
:1029E0006091BB057091BC058091BD059091BE05BD
:1029F0002FBF08951F920F920FB60F9211242F939D
:102A00003F938F939F93AF93BF938091BB0590911A
:102A1000BC05A091BD05B091BE053091BA0523E07B
:102A2000230F2D3720F40196A11DB11D05C026E806
:102A3000230F0296A11DB11D2093BA058093BB05FB
:102A40009093BC05A093BD05B093BE058091BF05D2
:102A50009091C005A091C105B091C2050196A11D3C
:102A6000B11D8093BF059093C005A093C105B0939D
:102A7000C205BF91AF919F918F913F912F910F9080
:102A80000FBE0F901F901895CF93DF93CDB7DEB791
:102A9000CC54D1090FB6F894DEBF0FBECDBF7894E9
:102AA00084B5826084BD84B5816084BD85B5826053
:102AB00085BD85B5816085BD80916E008160809304
:102AC0006E0010928100809181008260809381006D
:102AD000809181008160809381008091800081607D
:102AE000809380008091B10084608093B1008091D8
:102AF000B00081608093B00080917A008460809300
:102B00007A0080917A00826080937A0080917A00C6
:102B1000816080937A0080917A00806880937A0047
:102B20001092C10061E085E00E946D1461E087E0D1
:102B30000E946D1461E086E00E946D14E091AF0484
:102B4000F091B00482E08083E091AB04F091AC049A
:102B50001082E091AD04F091AE0480E18083109288
:102B6000B704E091B304F091B40486E08083E0916F
:102B7000B104F091B204808180618083E091B1045E
:102B8000F091B204808188608083E091B104F0917B
:102B9000B204808180688083E091B104F091B20436
:102BA00080818F7D8083E0903D04F0903E0487E536
:102BB00094E0D70113969C938E93129780915704BB
:102BC000909158042091590430915A048217930728
:102BD00019F061E00E946D148091590490915A049B
:102BE00020915704309158042817390719F061E0F3
:102BF0000E946D141FB7F8948091EA03811127C0D9
:102C0000EDECF6E08491E1EEF6E09491E82FF0E04F
:102C1000EE0FFF1FE758F74FA591B491EC91E92310
:102C200021F461E08AE00E946B0E61E08AE00E947C
:102C30006D148CB580618CBD8CB580648CBD61E0F9
:102C40008DE00E946D1461E08BE00E946D14809114
:102C5000EA038F5F8093EA031FBF60E087E594E09B
:102C60000E946E0561E087E594E00E947A0565E0C8
:102C700070E080E090E00E94B4144CE060E087E5F2
:102C800094E00E9429134FE564E087E594E00E94F8
:102C9000291382E090E00E94310D882319F081E031
:102CA00080935D0466E087E594E00E948413182F0A
:102CB00080E090E00E94310D87E594E00E94950548
:102CC00080E50E94980583E70E94980587E594E0D7
:102CD0000E94920540E06DE187E594E00E9429138F
:102CE00040E06CE187E594E00E94291310925F04B4
:102CF00040E767E087E594E00E9429134CE465E033
:102D000087E594E00E94291362EE87E594E00E9433
:102D10000A1387E594E00E94261387E594E00E9459
:102D2000A41360E087E594E00E948413482F4E7F4F
:102D300060E087E594E00E94291311501E3F08F0DF
:102D400081C14AEF64E087E594E00E94291340E0E6
:102D50006DE187E594E00E94291340E06CE187E58E
:102D600094E00E94291310925F0480E180935E0436
:102D700011E019AF1AAE1BAE1CAE1DAE1EAE1FAEDB
:102D800021961FAE219720916504AE01475C5F4FED
:102D90006AE087E594E00E944D1320916504AE013E
:102DA000475C5F4F60E187E594E00E944D134091DE
:102DB0005E0461E187E594E00E94291382E089AB1B
:102DC0001AAA1BAA1CAA1DAA1EAA1FAA18AEE2EFC5
:102DD000F3E0649120916504AE014F5C5F4F87E59D
:102DE00094E00E944D13ECEEF3E0649140915E0498
:102DF00087E594E00E94291362E087E594E00E9451
:102E00008413E6EEF3E0E49141E050E001C0440FAA
:102E1000EA95EAF7482B62E087E594E00E942913DF
:102E200066E087E594E00E948413887F482F436022
:102E300066E087E594E00E94291382E090E00E941A
:102E4000310D87E594E00E94BD13F701128763E01E
:102E500074E08FE994E00E94B409D7011A968C912E
:102E6000811107C061ED72E08FE994E00E94B4091E
:102E7000F2C0F701028113816FEFC8010E940A13AB
:102E8000282F30E0982F91701F929F9335952795AA
:102E9000277033273F932F9384FB992790F91F9234
:102EA0009F9385FB992790F91F929F9386FB992703
:102EB00090F91F929F931F928F938DED92E09F93B5
:102EC0008F930E94A02822E04AE068ED73E0C801D9
:102ED0000E94611224E04CE06BEC73E0C8010E9498
:102EE000031421E040E162EC73E0C8010E9461122A
:102EF00026E041E167EB73E0C8010E94031421E082
:102F000041E060EB73E0C8010E94031421E042E05D
:102F100066EA73E0C8010E94031421E045E06FE90E
:102F200073E0C8010E94031421E046E066E973E003
:102F3000C8010E94031421E040E06EE873E0C8017C
:102F40000E94031422E04CE160E873E0C8010E9493
:102F5000031466E0C8010E94841388720FB6F894C7
:102F6000DEBF0FBECDBF803241F021E090E088305F
:102F700009F020E0E22FF92F02C0E2E0F0E0EE0FCE
:102F8000FF1FE658FC4F859194919F938F9388E69D
:102F900093E09F938F930E94A028D8011696EC91FE
:102FA000F0E0EE0FFF1FEC59FC4F859194919F9339
:102FB0008F9385E593E09F938F930E94A02860E014
:102FC000C8010E948413D82E61E0C8010E948413B6
:102FD0000FB6F894DEBF0FBECDBFD3FC02C088236E
:102FE00029F0D2FC06C0E1E0F0E005C0E0E0F0E04E
:102FF00002C0E2E0F0E0EE0FFF1FE15BFC4F8591C5
:1030000094919F938F938CE393E09F938F930E946F
:10301000A02866E0C8010E9484138670E82FF0E0C3
:10302000EC5CFC4F859194919F938F9383E293E0A6
:103030009F938F930E94A0280FB6F894DEBF0FBE17
:10304000CDBF09C067EF73E08FE994E00E94B40937
:10305000D7011A961C920E94EE14F70165837683BD
:103060008783908700913D0410913E04011511055E
:1030700039F08BE394E0D8011C969C938E931B97B8
:10308000E0913F04F0914004309749F086A197A168
:103090008B53944021F08BE394E097A386A3F8012F
:1030A00011860E94EE14D80115966D937D938D9331
:1030B0009C93189761E085E00E946B0E61E087E0C9
:1030C0000E946B0E61E086E00E946B0E6AEF70E07A
:1030D00080E090E00E94B41460E085E00E946B0EF6
:1030E00060E087E00E946B0E60E086E00E946B0E5D
:1030F00061E274E08FE994E00E9467098091C30562
:103100009091C405FE0131965F01BF01681B790BE8
:103110008FE994E00E946D0D6BE174E08FE994E01B
:103120000E94B4096FE074E08FE994E00E9467099F
:103130008091C3059091C405B501681B790B8FE997
:1031400094E00E946D0D7E01F1E4EF0EF11C0E94EF
:10315000EE1400913504109136042091370430911B
:103160003804DC01CB01801B910BA20BB30B803D1B
:103170009740A105B10554F00E94EE146093350408
:1031800070933604809337049093380400913F0481
:1031900010914004D80112968D919C911397DC01F7
:1031A000ED91FC910084F185E02D0995892B09F4BE
:1031B000EAC3D80112968D919C911397DC01ED9191
:1031C000FC910084F185E02D0995181619060CF084
:1031D000DAC3F801C280D3801501812C912C0E94A2
:1031E000EE14D60118966D937D938D939C931B9747
:1031F000D601ED91FC910284F385E02DC60109957D
:1032000097FD04C08A309105C1F421C00E94EE14DC
:10321000F6014084518462847384DC01CB018419FB
:103220009509A609B7094480558066807780841582
:103230009505A605B705E0F20AC0D1018D931D01E1
:10324000BFEF8B1A9B0AE0E38E16910441F68928A2
:1032500009F4AFCFB501CE01895B9F4F0E941409DD
:1032600029968EAC9FAC29978114910409F447C02C
:103270002D96CEACDFAC2D97C114D10409F43FC01C
:1032800024013201FFEF4F1A5F0AD3018C91082EFF
:10329000000C990B0E94772E892B99F7B1E0CB1A7D
:1032A000D108C80CD91CD6018C91082E000C990BA2
:1032B0000E94772E892B89F4A6014F5F5F4F461934
:1032C00057092D965FAF4EAF2D978614970460F483
:1032D000B301C4010E94833207C0C614D70460F34F
:1032E000E1E0CE1AD108DFCF2996EEADFFAD2997E8
:1032F0002D968EAD9FAD2D97E80FF91F10822D965C
:103300008EAD9FAD2D97892B09F432C36DE574E026
:103310008FE994E00E94670929966EAD7FAD2997E9
:103320008FE994E00E94A009D8015796EC918E2F66
:1033300090E08931910508F038C2FC01EC5CFF4F48
:103340000C949A316EE271E0C7010E941409B70132
:10335000CE01895B9F4F0E94DF086C01C7010E946C
:103360000F09CD2809F021C261E01CC26EE271E0B4
:10337000C7010E941409B701CE01895B9F4F0E94CB
:10338000DF086C01C7010E940F09CD2809F00DC2AA
:1033900064E008C268E772E0C7010E941409B7013F
:1033A000CE01895B9F4F0E94C5086C01C7010E9436
:1033B0000F09CD2819F081E4F801818F6EE271E0E8
:1033C000C7010E941409B701CE01895B9F4F0E947B
:1033D000DF08892B39F4DD24D394D80159968C91D8
:1033E000813409F0D12CC7010E940F09DD2009F4B6
:1033F000DCC166E0C8010E94600CF801118ED5C1E5
:103400006EE271E0C7010E941409B701CE01895B29
:103410009F4F0E94DF086C01C7010E940F09CD2851
:1034200069F4D80159968C918F3411F46EE001C083
:103430006AE0C8010E94600CF801118E6FE772E02B
:10344000C7010E941409B701CE01895B9F4F0E94FA
:10345000C5086C01C7010E940F09D7FC1BC067E8B3
:1034600072E0C7010E941409B701CE01895B9F4F2A
:103470000E94C5086C01C7010E940F091C141D049D
:103480002CF48FE4D80159968C938FC126E4F8016F
:10349000218F8BC168E972E0C7010E941409B7014E
:1034A000CE01895B9F4F0E94C5086C01C7010E9435
:1034B0000F09D7FC7AC16AE0C8010E94600CC801FC
:1034C0000E94190C72C16EE271E0C7010E941409DA
:1034D000B701CE01895B9F4F0E94DF08892B39F429
:1034E000DD24D394D80159968C91893409F0D12CDC
:1034F000C7010E940F09DD2039F06EE0C8010E946B
:10350000600CF801118E15C066ED72E0C7010E94D3
:103510001409B701CE01895B9F4F0E94C5086C0159
:10352000C7010E940F09D7FC04C06DE0C8010E94CA
:10353000600C6FE972E0C7010E941409B701CE0167
:10354000895B9F4F0E94DF086C01C7010E940F0931
:10355000CD2809F02AC1E9E473C066EA72E0C70128
:103560000E941409B701CE01895B9F4F0E94DF08BA
:103570006C01C7010E940F09CD2809F016C16AE04D
:1035800011C16FE972E0C7010E941409B701CE01B1
:10359000895B9F4F0E94DF086C01C7010E940F09E1
:1035A000CD2809F002C16EE0FDC06EE271E0C701F6
:1035B0000E941409B701CE01895B9F4F0E94DF086A
:1035C0006C01C7010E940F09CD28A1F4D8015996BA
:1035D0008C918253823028F468E1C8010E94600C0B
:1035E00007C064E1C8010E94600CC8010E94ED0C94
:1035F000F801118E6FEA72E0C7010E941409B70149
:10360000CE01895B9F4F0E94DF086C01C7010E94B9
:103610000F09CD2811F4E2E313C065EB72E0C70196
:103620000E941409B701CE01895B9F4F0E94DF08F9
:103630006C01C7010E940F09CD2809F0B6C0E3E371
:10364000D8015996EC93B1C0D80159968C91893123
:1036500099F46EE271E0C7010E941409B701CE012E
:10366000895B9F4F0E94DF086C01C7010E940F0910
:10367000CD2811F468E112C06BEB72E0C7010E9423
:103680001409B701CE01895B9F4F0E94DF086C01CE
:10369000C7010E940F09CD2829F464E1C8010E94E6
:1036A000600C3DC062EC72E0C7010E941409B701D2
:1036B000CE01895B9F4F0E94C5086C01C7010E9423
:1036C0000F09D7FC04C088E1F801818F28C066EC9F
:1036D00072E0C7010E941409B701CE01895B9F4FB8
:1036E0000E94DF086C01C7010E940F09CD2811F468
:1036F000E9E112C06EEC72E0C7010E941409B70143
:10370000CE01895B9F4F0E94C5086C01C7010E94D2
:103710000F09D7FC04C0EAE1D8015996EC936BED90
:1037200072E0C7010E941409D70114964D915C9173
:1037300015972D968EAD9FAD2D978417950788F020
:1037400029968EAD9FAD2997009759F06D917C9188
:103750006115710531F00E949C32DD24D394892BD0
:1037600009F0D12CC7010E940F09DD20F1F0F8010A
:10377000818D883111F468E115C08A31B1F411C02E
:103780006BEB72E0C7010E941409B701CE01895B9F
:103790009F4F0E94DF086C01C7010E940F09CD28CE
:1037A00021F464E1C8010E94600CD80157968C9105
:1037B0008E3018F16FE972E0C7010E941409B70159
:1037C000CE01895B9F4F0E94DF086C01C7010E94F8
:1037D0000F09CD2891F46EE0C8010E94600C2AEF19
:1037E00030E0F80133A322A30E94EE14D8015A96C8
:1037F0006D937D938D939C935D97F801808D8333BA
:1038000008F4B6C0863309F44DC0873309F461C0AB
:10381000853309F0ADC06EED72E0C7010E94140956
:10382000B701CE01895B9F4F0E94C5086C01C7019B
:103830000E940F09D7FC9CC066E3C8010E94950B4B
:10384000D80194968D919C9195970097C9F0DC01D1
:10385000ED91FC910480F581E02D09956C016BE3FD
:1038600074E08FE994E00E94B409B6018FE994E016
:103870000E94A009B601F801828193810E948B0900
:103880006DE274E08FE994E00E9467098091C305BE
:103890009091C405B701681B790B8FE994E00E94F1
:1038A0006D0D66C060EE72E0C7010E941409B70199
:1038B000CE01895B9F4F0E94DF086C01C7010E9407
:1038C0000F09CD2809F054C067E3C8010E94950B89
:1038D0004FC068EE72E0C7010E941409B701CE0123
:1038E000895B9F4F0E94C5086C01C7010E940F09A8
:1038F000D7FC02C068E312C060EF72E0C7010E940B
:103900001409B701CE01895B9F4F0E94C5086C0165
:10391000C7010E940F09D7FC04C069E3C8010E94D7
:10392000950B0E94EE14D8015E964D905D906D90BF
:103930007C909197DC01CB0184199509A609B70900
:1039400081319742A105B10598F066E474E08FE9F2
:1039500094E00E94B40964E3C8010E94950B0E94A0
:10396000EE14D8015E966D937D938D939C93919701
:1039700080E3F50111928A95E9F7CE01895B9F4FAB
:103980000E940F0916CCF8018689882309F4CDC15D
:1039900082A193A1892B21F10E94EE14D8015A969D
:1039A0004D905D906D907C905D97AB01BC0144198A
:1039B00055096609770992968D919C919397A0E09D
:1039C000B0E084179507A607B70708F0AEC10E94BC
:1039D000EE14F801628F738F848F958F13A212A259
:1039E000D8015796EC918E2F90E08931910508F01F
:1039F000F5C0FC01E35BFF4F0C949A31C8010E94B3
:103A00000812ECC00E94EE14F801428C538C648CB6
:103A1000758CDC01CB0184199509A609B709813A97
:103A20009F40A105B10508F4D9C06FE874E0D80142
:103A300012968D919C9113970E94B4090E94EE14E6
:103A4000F801628F738F848F958FC8C00E94EE1427
:103A5000D8015A964D905D906D907C905D97DC01F9
:103A6000CB0184199509A609B709893B9B40A1059B
:103A7000B10508F4B3C0C8010E940812A6C00E9494
:103A8000EE14F801428C538C648C758CDC01CB01F4
:103A900084199509A609B70989389341A105B1058B
:103AA00008F49CC092C00E94EE14F801428C538C22
:103AB000648C758CDC01CB0184199509A609B709C2
:103AC00080389E43A105B10508F488C06DE03FC071
:103AD0000E94EE1483C00E94EE14F801428C538CB5
:103AE000648C758CDC01CB0184199509A609B70992
:103AF00080339547A105B10508F470C063C00E94EA
:103B0000EE14F801428C538C648C758CDC01CB0173
:103B100084199509A609B709803A9F40A105B10506
:103B200008F45CC013C00E94EE14F801428C538C60
:103B3000648C758CDC01CB0184199509A609B70941
:103B400088389341A105B10508F448C064E1C80173
:103B50000E94600C3AC00E94EE14F801468C578C0B
:103B600060A071A0DC01CB0184199509A609B709F1
:103B700080319742A105B10588F163E874E0D8016E
:103B800012968D919C9113970E94B4090E94EE1495
:103B9000F801668F778F80A391A320C00E94EE1456
:103BA000D8015A964D905D906D907C905D97DC01A8
:103BB000CB0184199509A609B70980339547A1055A
:103BC000B10560F0C8010E94D80C0E94EE14D80123
:103BD0005A966D937D938D939C935D97F801808D9C
:103BE000853309F45EC018F4833341F09EC08633F8
:103BF00009F457C0873309F474C097C084818823BF
:103C000009F493C08789883109F044C08589F80197
:103C1000E80FF11DE80FF11D85819681009709F4E9
:103C200056C0F80195A384A3DC01ED91FC910480BA
:103C3000F581E02D0995FC0101900020E9F731970D
:103C40006F01C81AD90A67E774E08FE994E00E940F
:103C5000B409DD24B6018FE994E00E946D0D6BE696
:103C600074E0F801828193810E946709B601D8014E
:103C700012968D919C9113970E946D0D65E3C8017A
:103C80000E94950B0E94EE14F801668F778F80A337
:103C900091A31DC08E3008F448C0C8010E94ED0CED
:103CA00044C00E94EE14F801468C578C60A071A0AD
:103CB000DC01CB0184199509A609B70989399A4312
:103CC000A105B10590F163E3C8010E94950B0E9424
:103CD000EE14D8015E966D937D938D939C9391978E
:103CE00024C00E94EE14F801468C578C60A071A08D
:103CF000DC01CB0184199509A609B70981319742E6
:103D0000A105B10590F069E3C8010E94950B88EE0A
:103D100093E0D80193969C938E9392970E94EE1411
:103D2000F801628F738F848F958F80915104811178
:103D300015C00E94EE14009152041091530420917A
:103D4000540430915504DC01CB01801B910BA20B74
:103D5000B30B81319742A105B105B8F580915104AB
:103D60008130B1F40E94EE1400915204109153047A
:103D70002091540430915504DC01CB01801B910B40
:103D8000A20BB30B813A9F40A105B10508F076C0A4
:103D9000109151041230B1F40E94EE14409052047C
:103DA000509053046090540470905504DC01CB0192
:103DB00084199509A609B70989399A43A105B1055E
:103DC00008F060C00E941C08C2C982E090E00E9416
:103DD0001D274C0188E291E0D4018D939C9389E0EA
:103DE00090E00E941D276C0184E191E0F60191832F
:103DF000808377247394728288EC9FEAA0E0B0E01D
:103E000083839483A583B6838BE092E09087878336
:103E100086E090E00E941D278C018AE091E0D801A5
:103E200011969C938E9313961C921E921297149641
:103E30001C92149715961C92B40180913F049091A6
:103E400040040E941D12B60180913F0490914004ED
:103E50000E941D12B80180913F04909140040E947D
:103E60001D120E94EE1460935204709353048093C9
:103E70005404909355047092510470CF82E0809363
:103E8000510486CF0E94EE14609352047093530441
:103E900080935404909355041093510493CF089544
:103EA0000C94B22702970C94501F2F923F924F927E
:103EB0005F926F927F928F929F92AF92BF92CF92BA
:103EC000DF92EF92FF920F931F93CF93DF93CDB7C3
:103ED000DEB7C254D1090FB6F894DEBF0FBECDBF16
:103EE0005C01FB01828093808681978123969FAF3E
:103EF0008EAF2397D50114968D919C9115978816B6
:103F0000990609F05BC22296BFAD2297BB3509F036
:103F100055C20481158166E974E08FE994E00E943E
:103F20006709B8018FE994E00E94A009FE0131966B
:103F30007F01AF01B801CE01C7960E94E30608E0F9
:103F400010E01BAB0AAB1DAA1CAA88E090E00E94FF
:103F50001D2799AB88AB1CA70BA71EA61DA688E33F
:103F600090E00E941D279AA789A700916A051091E9
:103F70006B05E0916605F0916705AFA9B8ADCF017B
:103F8000800F911FE817F90709F475C231912D913F
:103F90003217C1F350C021968FAF21976EA17FA138
:103FA0006F5F7F4FAE01405C5F4FCE0182960E94F3
:103FB00019060F5F1F4F2BAD3CAD8FA998AD820F37
:103FC000931FC816D90649F0D6018D916D018D3326
:103FD00011F70115110509F05BC22EA13FA12115B2
:103FE000310529F12150310941E050E0BE016E5DFB
:103FF0007F4FC7010E94E80A0CA91DA96D817E812F
:10400000600F711F1FAEAE01415C5F4FCE01C096C5
:104010000E9419064D815E8169817A8188A999A9DA
:10402000800F911F0E947406C7010E945306CE01A3
:1040300082960E94530669E875E0CE01C0960E9400
:104040004305892B09F0CDC081E493E4A2E5B0E0FB
:104050008B8F9C8FAD8FBE8FCE014B969F938F938E
:1040600087EF92E09F938F93FF92EF920E94F4323A
:104070000E94700B6C010F900F900F900F900F909B
:104080000F90DC011A968C911A97882309F477C156
:1040900012960D911C91139760E0C8010E946E0565
:1040A000F801808991890E94A9146DE1C8010E94DC
:1040B000841381FF0AC0D80150968D919C9151972D
:1040C0000E94A914C8010E94261360E0C8010E9442
:1040D0008413482F4E7F60E0C8010E94291362E0DC
:1040E000C8010E948413E5EEF3E0E49141E050E062
:1040F00001C0440FEA95EAF7482B62E0C8010E942C
:104100002913F60102811381D80117968C91482E4C
:10411000813110F090E1492EF8019085911103C092
:10412000582E541801C0512CC8010E94950580EAF0
:104130000E94980537014A94BFEF4B1631F0D30126
:104140008D913D010E949805F6CF752C772029F0BE
:1041500080E00E9498057A94F9CFC8010E949205E8
:1041600061E0C8010E946E056FEFC8010E940A134A
:104170008073D1F360E0C8010E946E0540E767E0FC
:10418000C8010E94291384FF03C0C8010E9426139E
:1041900061E070E080E090E00E94B414F601838555
:1041A00094850097C1F0DC01ED91FC910480F581CC
:1041B000E02D2EE331E03A8B298BDC8ACB8AFE8A14
:1041C000ED8A2CE530E0388F2F8B1A8E198EBE01C8
:1041D0006F5E7F4F0995F601828193810E94BD1326
:1041E000CEC062E875E0CE01C0960E944305892BDF
:1041F00009F087C069A57AA587012FEF3FEF40E05E
:1042000050E0CE014B960E949706CE014B960E943D
:1042100058060E944A2820E030E04AE754E40E9411
:10422000C3301B012C01D5011A966D907C901B9711
:104230009B01AC01F30165817681878190850E94A5
:104240004B2F882309F45AC0D30115962D923D9225
:104250004D925C9218976E01B2E2CB0ED11C86E0B3
:10426000F60111928A95E9F7860122E042E0C20147
:10427000B1010E94FD2688E090E09C8B8B8B1E8A0A
:104280001D8A0E941D279A8B898B20E030E040E236
:1042900051E4C201B1010E944B2F87FF06C06DEFB0
:1042A00072E0CE0141960E94350BB601CE014196D7
:1042B0000E94350B6FEF72E0CE0141960E94350BE4
:1042C0008E01025C1F4F2FEF3FEF40E050E0BE0138
:1042D0006F5E7F4FC7010E94970640E050E0B70134
:1042E000D30112968D919C9113970E94F30DC701F3
:1042F0000E945306CE0141960E945306CE014B9672
:104300003CC06BE775E0CE01C0960E944305892B47
:10431000B1F164E775E0CE01C0960E944305892B98
:1043200071F16DE675E0CE01C0960E944305892BC0
:1043300031F163EB75E0CE01C0960E944305892BF5
:10434000F1F469A57AA58E010F5E1F4F2FEF3FEFA5
:1043500040E050E0C7010E949706C7010E9458063E
:104360000E944A280E943531D5011A96ED91FC91A0
:104370001B97858586136587C7010E945306E12C2C
:10438000F12C00E010E02DA53EA589A59AA5021705
:10439000130750F48E0D9F1D0E9453060F5F1F4F91
:1043A000B7E0EB0EF11CEFCF0E94B227CE01C09612
:1043B0000E945306CE01C7960E945306F5018681DE
:1043C00097818816990609F01DC12396EEADFFADC1
:1043D0002397FF27EA33F10508F014C1EA59FF4F8C
:1043E0000C949A3164E776E041C068E676E03EC01E
:1043F00066E576E03BC062E476E038C061E376E0F3
:1044000035C06EE176E032C067E076E02FC067EF3E
:1044100075E02CC062EE75E029C068EC75E026C03E
:1044200064EB75E023C06BE975E020C069E875E0D6
:104430001DC062E775E01AC06CE575E017C06AE45C
:1044400075E014C067E375E011C064E275E00EC06A
:104450006CE075E00BC06AEF74E008C060EE74E0D9
:1044600005C06CEC74E002C062EB74E08FE994E08C
:104470000E94B409C7C0A70161E273E0CE01829631
:104480000E94E306CFA8D8ACF2E0CF0ED11C93CDAA
:104490000F5F1F4F21503109A801BE01695C7F4F9A
:1044A000CE014B960E94E80A2E01B1E14B0E511C41
:1044B000AE01425C5F4F61E371E0C2010E94E3061E
:1044C0008D899E896F8C78A06816790620F4CC249B
:1044D000CA94DC2C21C0EFEF6E1A7E0A681A790AA2
:1044E000C12CD12CC614D70491F32D893E89A60185
:1044F000BE01655E7F4FC7010E94E80AB701C20195
:104500000E9443051C01C7010E945306232821F085
:10451000FFEFCF1ADF0AE6CFCE0141960E94530685
:10452000CD20C09409F456C08F8D98A1EB8DFC8DE1
:1045300000E010E00817190749F021912C3219F416
:10454000C12CD12C15C00F5F1F4FF4CF0FEF1FEF01
:10455000F7CF0F5F1F4F0217130758F5FC01E00F4D
:10456000F11F60816C32A9F70F3F8FEF180709F137
:104570000F3F9FEF190709F440C098012C193D091E
:10458000A601BE01655E7F4FC7010E94E80AB70120
:10459000CE0189960E94200AC7010E945306A801F5
:1045A0004F5F5F4F6A012F8D38A18B8D9C8D8A01E3
:1045B000D2CFBE01655E7F4FC7010E94E80AB701F6
:1045C000CE0189960E94200AC7010E9453060FEF70
:1045D0001FEFCECF2BAD3CAD21503109A801BE015C
:1045E000695C7F4FC7010E94E80AB701CE01899636
:1045F0000E94200AC7010E945306CE014B960E94DA
:104600005306EBCCCE5BDF4F0FB6F894DEBF0FBE88
:10461000CDBFDF91CF911F910F91FF90EF90DF9071
:10462000CF90BF90AF909F908F907F906F905F9052
:104630004F903F902F90089502970C94551F8F92A2
:104640009F92AF92BF92EF92FF920F931F93CF93DF
:10465000DF931F92CDB7DEB72FE9E22E24E0F22ED2
:104660001092A2041092A10438EE832E33E0932E10
:10467000A12CB12C8092A3049092A404A092A50432
:10468000B092A6048EE691E09093A00480939F04DC
:1046900085EC90E09093AC048093AB0484EC90E0C4
:1046A0009093AE048093AD0480EC90E09093B004BE
:1046B0008093AF0481EC90E09093B2048093B104B6
:1046C00082EC90E09093B4048093B30486EC90E085
:1046D0009093B6048093B5041092B8041092B90474
:1046E0001092BA041092BB04AE014F5F5F4F67E8AF
:1046F00073E083EB95E00E94E306AE014F5F5F4FEE
:104700006AE873E08CEA95E00E94E306AE014F5F31
:104710005F4F6DE873E085EA95E00E94E306AE0125
:104720004F5F5F4F62E973E08EE995E00E94E30618
:10473000AE014F5F5F4F66E973E087E995E00E9445
:10474000E306AE014F5F5F4F6AE973E080E995E0F1
:104750000E94E306AE014F5F5F4F6EE973E089E8A8
:1047600095E00E94E306AE014F5F5F4F62EA73E09F
:1047700082E895E00E94E306AE014F5F5F4F66EA74
:1047800073E08BE795E00E94E306AE014F5F5F4F59
:104790006AEA73E084E795E00E94E306AE014F5FAA
:1047A0005F4F6EEA73E08DE695E00E94E306AE018E
:1047B0004F5F5F4F62EB73E086E695E00E94E30691
:1047C00021E230E0309354052093530510925505B3
:1047D000109256051092570546E050E060E070E0F8
:1047E000409358055093590560935A0570935B05A3
:1047F00010925C0510925D0510925E0510925F05A7
:1048000010E21093600510926205109261051092FB
:1048100065058EE395E090936405809363058EE0D3
:1048200092E090933D0580933C0588E192E090935F
:104830005105809350051092420510924105109247
:1048400044051092430510924605109245051092BA
:1048500048051092470510924A051092490510929A
:104860004C0510924B058CEE91E090933F058093A0
:104870003E05F0924F05E0924E05E0E1E0934D05D4
:1048800030938D0420938C0410928E0410928F0428
:104890001092900440939104509392046093930477
:1048A00070939404109295041092960410929704B9
:1048B000109298041093990410929B0410929A04F9
:1048C00010929E0410927304109274041092750456
:1048D0001092760427E734E030939D0420939C04E3
:1048E00026E931E0309372042093710420EA31E02C
:1048F00030938A042093890410927B0410927A04E6
:1049000010927D0410927C0410927F0410927E0419
:1049100010928104109280041092830410928204F9
:104920001092850410928404909378048093770405
:10493000F0928804E092870488E080938604F092E5
:104940007004E0926F0468EC7FE080EE9FE00E94CC
:10495000552889E090E090935804809357048AE0AA
:1049600090E090935A048093590410925D04109340
:104970005E0410925F0485E08093650485E090E01A
:10498000A0E0B0E080936B0490936C04A0936D045E
:10499000B0936E041092600486E692E090933A041D
:1049A0008093390482E792E090933C0480933B0427
:1049B0000E94700B90933E0480933D0480913104DB
:1049C00090913204892B09F02FC188E290E00E9477
:1049D0001D278C018AE392E0D8018D939C938FE18F
:1049E00090E00E941D277C01FC01138212828482C8
:1049F0009582A682B78288E292E091838083178AAB
:104A0000168A118E108E138E128E158E148E668D50
:104A10006E7F6D7F668F6695617081E0682783E0A9
:104A20000E946B0E61E083E00E946D14EAEDF6E0F7
:104A3000E491D7015096EC93E6ECF6E0E491F0E0D7
:104A4000EE0FFF1FE155F94F85919491F701928B7D
:104A5000818B60E082E00E946D14D7015E968C919C
:104A600081FD04C061E082E00E946B0E82E0F701EC
:104A70008487E9EDF6E0E491D7011D96EC93E5EC2F
:104A8000F6E0E491F0E0EE0FFF1FE754F94F859157
:104A90009491F70197878687D8011396FC92EE923E
:104AA000129714961C92149755961C9255975696E9
:104AB0001C92569757961C92579758961C92589747
:104AC00059961C920E94EE14F801628F738F848FA6
:104AD000958F0E94EE14D8015E966D937D938D9311
:104AE0009C93919793961C921E92929797961C92E4
:104AF0001E929697F8013596C8014596119211922B
:104B0000E817F907D9F7D8011296ED91FC911397A0
:104B1000138E128E118E108E178A168A8DE991E0EF
:104B2000958F848F8485863108F04DC02DEB30E061
:104B3000378B268B2BE931E0318F208F2CE231E04F
:104B4000338F228F90916800883050F021E08E30B2
:104B500008F420E081E001C0880F2A95EAF701C03F
:104B600084E0892B809368009485983038F09E30DB
:104B700040F0963148F020E030E008C02DE630E00B
:104B800005C02BE630E002C02CE630E0348B238BEE
:104B9000983030F481E001C0880F9A95EAF70EC092
:104BA000292F30E09E3018F42850310902C02E50D1
:104BB000310981E001C0880F2A95EAF7858B848D41
:104BC000958D0197F1F7828D938D892B49F1409155
:104BD0002F04509130044E175F0711F14115510514
:104BE00071F0DA0153962D913C915497D9019C9123
:104BF000DA0155968C9180958923D9018C93868D05
:104C00008E7F868F10922E0410922D04F093300424
:104C1000E0932F04A389B4899C918589892B8C9377
:104C20001093320400933104809131049091320446
:104C30009093400480933F04809133049091340416
:104C4000892B09F042C082E090E00E941D27FC0100
:104C500082E492E091838083A091AF04B091B0048C
:104C600082E08C93A091AB04B091AC041C92A09113
:104C7000AD04B091AE048FEC8C931092B704A09168
:104C8000B304B091B40486E08C93A091B104B091C8
:104C9000B2049C9190619C93A091B104B091B20434
:104CA0009C9198609C93A091B104B091B2049C91A6
:104CB00090689C93A091B104B091B2049C919F7DA7
:104CC0009C93F0933404E0933304009133041091E7
:104CD0003404109342040093410480E190E00E9468
:104CE0001D27FC018AE492E0918380831383028371
:104CF00081E08483158216821782108611861286BF
:104D000013861486158616861786F0934404E0935E
:104D100043041092450410924604109247041092E6
:104D200048041092490410924A0410924B041092C5
:104D30004C0410924D0410924E0410924F041092A5
:104D40005004109251040E94EE1460935204709328
:104D500053048093540490935504109256040E9477
:104D6000EE14609335047093360480933704909367
:104D700038040F90DF91CF911F910F91FF90EF902A
:104D8000BF90AF909F908F90089581E794E00E942C
:104D90002E108CE395E00E947C1086E695E00E9440
:104DA00053068DE695E00E94530684E795E00E9445
:104DB00053068BE795E00E94530682E895E00E9437
:104DC000530689E895E00E94530680E995E00E9429
:104DD000530687E995E00E9453068EE995E00E940C
:104DE000530685EA95E00E9453068CEA95E00E94FE
:104DF000530683EB95E00C945306EF920F931F93A9
:104E0000CF93DF93E80147FD02C034E001C034E1F5
:104E1000E42F440FFF0BF7FF03C0F195E195F10973
:104E2000E32E022F2E2FAE010E94B42ACE01DF9175
:104E3000CF911F910F91EF900895CF93DF93823020
:104E4000910510F482E090E0E091C505F091C6056F
:104E500020E030E0C0E0D0E0309711F14081518196
:104E600048175907C0F04817590761F482819381A8
:104E7000209719F09B838A832BC09093C60580935B
:104E8000C50526C02115310519F04217530718F43E
:104E90009A01BE01DF01EF010280F381E02DDCCF3A
:104EA0002115310509F1281B390B2430310590F407
:104EB00012968D919C9113976115710521F0FB015C
:104EC0009383828304C09093C6058093C505FD013A
:104ED000329644C0FD01E20FF31F8193919322505B
:104EE00031092D933C933AC02091C3053091C405FC
:104EF000232B41F420910201309103013093C4052A
:104F00002093C30520910001309101012115310545
:104F100041F42DB73EB74091040150910501241B87
:104F2000350BE091C305F091C405E217F307A0F437
:104F30002E1B3F0B2817390778F0AC014E5F5F4FEF
:104F40002417350748F04E0F5F1F5093C405409358
:104F5000C3058193919302C0E0E0F0E0CF01DF91BF
:104F6000CF9108950F931F93CF93DF93009709F488
:104F70008CC0FC013297138212820091C5051091FA
:104F8000C6050115110581F420813181820F931F1F
:104F90002091C3053091C4052817390779F5F0939E
:104FA000C405E093C30571C0D80140E050E0AE17DE
:104FB000BF0750F412962D913C911397AD01211526
:104FC000310509F1D901F3CF9D01DA013383228341
:104FD00060817181860F971F8217930769F4EC0136
:104FE00028813981260F371F2E5F3F4F3183208361
:104FF0008A819B8193838283452B29F4F093C60594
:10500000E093C50542C01396FC93EE931297ED0111
:10501000499159919E01240F351FE217F30771F44E
:1050200080819181840F951F029611969C938E9397
:105030008281938113969C938E931297E0E0F0E027
:10504000D80112968D919C911397009719F0F80151
:105050008C01F6CF8D919C9198012E5F3F4F820F6E
:10506000931F2091C3053091C4052817390769F4AF
:10507000309729F41092C6051092C50502C013821C
:1050800012821093C4050093C305DF91CF911F9145
:105090000F910895662777270C94422CFB01DC01C1
:1050A00005900D920020E1F708950F931F93CF9381
:1050B000DF93009731F46115710519F480E090E0F9
:1050C0003AC08B01EC016EE070E081E090E00E945C
:1050D000982AFC01892B91F380E88383011511053F
:1050E00071F01387028781E883838091C7059091CF
:1050F000C805892B21F4F093C805E093C7052097D4
:10510000C9F0D187C0878381826083838091C9057C
:105110009091CA05892B71F4F093CA05E093C905F3
:105120008091CB059091CC05892B21F4F093CC058F
:10513000E093CB05CF01DF91CF911F910F9108959F
:10514000A0E0B0E0E6EAF8E20C948B30AE01495FF3
:105150005F4FDA016D917D91AD0107EC15E0F8012B
:1051600082819381DC0113962C911397286013960A
:105170002C930E94C628D8011296ED91FC911397AA
:105180002381277F2383E4E00C94A730ACE0B0E0D8
:10519000ECECF8E20C947D307C016B018A01FC019F
:1051A00017821682838181FFBDC1CE0101964C0119
:1051B000F7019381F60193FD859193FF81916F0132
:1051C000882309F4ABC1853239F493FD859193FFAF
:1051D00081916F01853229F4B70190E00E94B52ECC
:1051E000E7CF512C312C20E02032A0F48B3269F033
:1051F00030F4803259F0833269F420612CC08D3252
:1052000039F0803339F4216026C02260246023C045
:10521000286021C027FD27C030ED380F3A3078F4E0
:1052200026FF06C0FAE05F9E300D1124532E13C0F6
:105230008AE0389E300D1124332E20620CC08E324D
:1052400021F426FD6BC1206406C08C3611F4206861
:1052500002C0883641F4F60193FD859193FF819158
:105260006F018111C1CF982F9F7D9554933028F401
:105270000C5F1F4FFFE3F9830DC0833631F0833796
:1052800071F0833509F05BC022C0F8018081898309
:105290000E5F1F4F44244394512C540115C0380114
:1052A000F2E06F0E711CF801A080B18026FF03C0F0
:1052B000652D70E002C06FEF7FEFC5012C870E9463
:1052C000AA2E2C0183012C852F77222E17C038019E
:1052D000F2E06F0E711CF801A080B18026FF03C0C0
:1052E000652D70E002C06FEF7FEFC5012C870E9433
:1052F000982E2C012C852068222E830123FC1BC0B4
:10530000832D90E048165906B0F4B70180E290E092
:105310000E94B52E3A94F4CFF50127FC859127FE23
:1053200081915F01B70190E00E94B52E31103A944F
:10533000F1E04F1A51084114510471F7E5C0843669
:1053400011F0893639F5F80127FF07C060817181B6
:10535000828193810C5F1F4F08C060817181072E8D
:10536000000C880B990B0E5F1F4F2F76722E97FF44
:1053700009C090958095709561957F4F8F4F9F4F95
:105380002068722E2AE030E0A4010E94ED2EA82EA3
:10539000A81844C0853729F42F7EB22E2AE030E0C9
:1053A00025C0F22FF97FBF2E8F36C1F018F4883553
:1053B00079F0B4C0803719F0883721F0AFC02F2FB3
:1053C0002061B22EB4FE0DC08B2D8460B82E09C0B2
:1053D00024FF0AC09F2F9660B92E06C028E030E057
:1053E00005C020E130E002C020E132E0F801B7FE64
:1053F00007C060817181828193810C5F1F4F06C05D
:105400006081718180E090E00E5F1F4FA4010E94D7
:10541000ED2EA82EA818FB2DFF777F2E76FE0BC051
:10542000372D3E7FA51450F474FE0AC072FC08C0EC
:10543000372D3E7E05C0BA2C372D03C0BA2C01C0D3
:10544000B52C34FF0DC0FE01EA0DF11D80818033C3
:1054500011F4397E09C032FF06C0B394B39404C07E
:10546000832F867809F0B39433FD13C030FF06C054
:105470005A2CB31418F4530C5B18B32CB31468F4FF
:10548000B70180E290E03C870E94B52EB3943C8542
:10549000F5CFB31410F43B1801C0312C34FF12C007
:1054A000B70180E390E03C870E94B52E3C8532FF37
:1054B00017C031FD03C088E790E002C088E590E0A6
:1054C000B7010CC0832F867859F031FF02C08BE200
:1054D00001C080E237FD8DE2B70190E00E94B52E59
:1054E000A51438F4B70180E390E00E94B52E5A94D9
:1054F000F7CFAA94F401EA0DF11D8081B70190E085
:105500000E94B52EA110F5CF332009F451CEB7017A
:1055100080E290E00E94B52E3A94F6CFF7018681A2
:10552000978102C08FEF9FEF2C96E2E10C949930A7
:105530000F931F93CF93DF93869F8001879F100D5A
:10554000969F100D1124C8010E941D27EC010097A1
:1055500029F0A80160E070E00E94A32ECE01DF9147
:10556000CF911F910F9108954F925F926F927F920A
:105570009F92AF92BF92CF92DF92EF92FF920F93E2
:105580001F93CF93DF93CDB7DEB729970FB6F8946B
:10559000DEBF0FBECDBF6A01122FB02E2BE3201746
:1055A00020F0FF24F394F00E02C0BCE3FB2E0F2D7D
:1055B00027E0AE014F5F5F4F0E949F2DAC018981B4
:1055C000982F9970913031F0E1FC06C0E0FE06C0E2
:1055D00090E205C09DE203C09BE201C090E0EE2D89
:1055E000E07183FF3CC0911102C083E001C084E000
:1055F000811718F4212F281B01C020E0E1110BC0F6
:10560000F601822F30E2882319F031938150FBCFCD
:10561000C20ED11C20E0992329F0D6019C93F601FB
:1056200031966F01C6010396E2FE0AC03EE4D60140
:105630003C9341E411964C93119712963C9306C00B
:105640003EE6F601308341E641833283FC01322F8E
:1056500040E2332309F442C041933150FACF82FF34
:1056600044C0911102C083E001C084E0811718F4A6
:10567000212F281B01C020E0E1110BC0F601822F71
:1056800030E2882319F031938150FBCFC20ED11C38
:1056900020E0992329F0D6019C93F60131966F0101
:1056A000C6010396E2FE0BC039E4D6013C933EE40A
:1056B00011963C93119736E412963C9307C039E655
:1056C000F60130833EE6318336E63283FC01322F29
:1056D00040E2332319F041933150FBCFFC01E20F3C
:1056E000F11D10828EEF9FEFB7C0F1E0911101C064
:1056F000F0E06F2F70E01416150624F49A012F5F66
:105700003F4F02C021E030E0260F371FBB2029F0B9
:105710006B2D70E06F5F7F4F02C060E070E0260F7E
:10572000371F612F70E0261737071CF4121B212F3B
:1057300001C020E03E2D387159F4D601322F60E2CD
:10574000332319F06D933150FBCFC20ED11C20E0F2
:10575000FF2331F0D6019C93B6016F5F7F4F6B0141
:10576000E1110BC0F601922F30E3992319F0319328
:105770009150FBCFC20ED11C20E09F2D940F3A8197
:10578000782F7071A72E84FF03C0313309F4915034
:10579000191624F4993018F098E001C091E0E42F34
:1057A000852F57FF02C0E0E080E06E2F782FE0E009
:1057B000F0E0AEE29A2E3A01691A71082A01461AFF
:1057C000570A0B2D10E01195019511096F3F8FEFCE
:1057D000780729F4D6019C92C60101966C01461700
:1057E000570784F0661677066CF47F01E40CF51C0D
:1057F000A1E0B0E0AC0FBD1FEA0EFB1ED701119671
:10580000BC9002C090E3B92E615071093196C60177
:1058100001967C016017710724F0D601BC926C01DF
:10582000D5CF6417750741F4363320F4353321F4AE
:10583000A11002C081E3B82EF601B082F701822FD9
:1058400090E2882319F091938150FBCFF701E20F8A
:10585000F11D108280E090E029960FB6F894DEBF2B
:105860000FBECDBFDF91CF911F910F91FF90EF90B1
:10587000DF90CF90BF90AF909F907F906F905F90A0
:105880004F900895A0E0B0E0E8E4FCE20C94813091
:10589000EC017B016115710519F0DB018D939C937F
:1058A0008E010F5F1F4F7880872D90E00E94772E2A
:1058B000892B11F0E801F4CFBDE27B1205C00F5F28
:1058C0001F4F7980C1E008C0EBE27E1204C08E0158
:1058D0000E5F1F4F7980C0E06801F1E0CF1AD10858
:1058E00043E050E068E471E0C6010E94802E892BFD
:1058F000F1F4680122E0C20ED11C45E050E063E4FF
:1059000071E0C6010E94802E892B21F4680187E096
:10591000C80ED11CE114F10419F0D701CD92DC922C
:10592000C111FFC060E070E080E89FE703C143E081
:1059300050E060E471E0C6010E94802E892B51F492
:10594000E114F10409F4F2C00E5F1F4FF701118357
:105950000083ECC0680160E070E0CB0100E010E083
:10596000F601D0EDD70DDA3058F52C2F2260622EDB
:105970002C2F2870C2FF05C0211128C00F5F1F4FB8
:1059800025C0222311F001501109A5E0B0E09B01D0
:10599000AC010E9472304B015C01880C991CAA1C5E
:1059A000BB1CC501B4016D0F711D811D911D6839AE
:1059B000A9E97A078A07A9E19A0740F0C66005C0FD
:1059C000DE3F51F4C3FD44C0C8606C2EBFEFCB1A5C
:1059D000DB0A7080C62DC4CF2D2F2F7D2531C1F558
:1059E00040814D3211F4C06106C04B3221F0319636
:1059F00021E030E006C03296D60111964C9122E0AB
:105A000030E0A0EDA40FAA3018F0E21BF30B20C089
:105A100040E050E04038BCE05B075CF49A01220FA4
:105A2000331F220F331F420F531F440F551F4A0FBE
:105A3000511D3196DF0111972C91A0EDA20FAA30D4
:105A400048F3C4FF03C0519541955109040F151F38
:105A5000C1FF07C0E114F10421F03197D701ED93A4
:105A6000FC930E94502FC370C33019F06B017C016E
:105A700006C06B017C01F7FAF094F7F8F09420E08F
:105A800030E0A901C701B6010E944B2F882309F419
:105A900045C017FF06C0119501951109CFE5D1E06A
:105AA00002C0C7E7D1E05E01B8E1AB1AB108460118
:105AB000BE2DAF2D90E2E92EF12C0E151F0584F0BE
:105AC000FE012591359145915491B4018B2F9A2F68
:105AD0000E94B12F4B01B82FA92F0E191F09EDCF2E
